{
  "_format": "hh-sol-artifact-1",
  "contractName": "EFundPlatform",
  "sourceName": "contracts/EFundPlatform.sol",
  "abi": [
    {
      "inputs": [
        {
          "internalType": "address",
          "name": "_fundFactory",
          "type": "address"
        },
        {
          "internalType": "address",
          "name": "_efundToken",
          "type": "address"
        },
        {
          "internalType": "uint256",
          "name": "_softCap",
          "type": "uint256"
        },
        {
          "internalType": "uint256",
          "name": "_hardCap",
          "type": "uint256"
        }
      ],
      "stateMutability": "nonpayable",
      "type": "constructor"
    },
    {
      "anonymous": false,
      "inputs": [
        {
          "indexed": true,
          "internalType": "address",
          "name": "recipient",
          "type": "address"
        },
        {
          "indexed": true,
          "internalType": "uint256",
          "name": "ethReceived",
          "type": "uint256"
        },
        {
          "indexed": true,
          "internalType": "uint256",
          "name": "nextAvailableClaimDate",
          "type": "uint256"
        }
      ],
      "name": "ClaimHolderRewardSuccessfully",
      "type": "event"
    },
    {
      "stateMutability": "payable",
      "type": "fallback"
    },
    {
      "inputs": [],
      "name": "bronzePeriodRewardPercentage",
      "outputs": [
        {
          "internalType": "int256",
          "name": "",
          "type": "int256"
        }
      ],
      "stateMutability": "view",
      "type": "function"
    },
    {
      "inputs": [
        {
          "internalType": "address",
          "name": "ofAddress",
          "type": "address"
        }
      ],
      "name": "calculateHolderReward",
      "outputs": [
        {
          "internalType": "uint256",
          "name": "reward",
          "type": "uint256"
        }
      ],
      "stateMutability": "view",
      "type": "function"
    },
    {
      "inputs": [
        {
          "internalType": "address",
          "name": "_address",
          "type": "address"
        }
      ],
      "name": "calculateManagerRewardPercentage",
      "outputs": [
        {
          "internalType": "int256",
          "name": "",
          "type": "int256"
        }
      ],
      "stateMutability": "view",
      "type": "function"
    },
    {
      "inputs": [],
      "name": "claimHolderReward",
      "outputs": [],
      "stateMutability": "nonpayable",
      "type": "function"
    },
    {
      "inputs": [],
      "name": "closeFund",
      "outputs": [],
      "stateMutability": "nonpayable",
      "type": "function"
    },
    {
      "inputs": [
        {
          "internalType": "address payable",
          "name": "_swapRouter",
          "type": "address"
        },
        {
          "internalType": "uint256",
          "name": "_fundDurationInMonths",
          "type": "uint256"
        },
        {
          "internalType": "uint256",
          "name": "_softCap",
          "type": "uint256"
        },
        {
          "internalType": "uint256",
          "name": "_hardCap",
          "type": "uint256"
        },
        {
          "internalType": "uint256",
          "name": "_profitFee",
          "type": "uint256"
        },
        {
          "internalType": "uint256",
          "name": "_minimalDepositAmount",
          "type": "uint256"
        },
        {
          "internalType": "uint256",
          "name": "_minTimeUntilFundStart",
          "type": "uint256"
        },
        {
          "internalType": "address payable[]",
          "name": "_allowedTokens",
          "type": "address[]"
        }
      ],
      "name": "createFund",
      "outputs": [
        {
          "internalType": "address",
          "name": "",
          "type": "address"
        }
      ],
      "stateMutability": "payable",
      "type": "function"
    },
    {
      "inputs": [],
      "name": "defaultFundFee",
      "outputs": [
        {
          "internalType": "int256",
          "name": "",
          "type": "int256"
        }
      ],
      "stateMutability": "view",
      "type": "function"
    },
    {
      "inputs": [],
      "name": "eFund",
      "outputs": [
        {
          "internalType": "contract IERC20",
          "name": "",
          "type": "address"
        }
      ],
      "stateMutability": "view",
      "type": "function"
    },
    {
      "inputs": [],
      "name": "fundFactory",
      "outputs": [
        {
          "internalType": "contract FundFactory",
          "name": "",
          "type": "address"
        }
      ],
      "stateMutability": "view",
      "type": "function"
    },
    {
      "inputs": [],
      "name": "getAllFunds",
      "outputs": [
        {
          "internalType": "contract HedgeFund[]",
          "name": "",
          "type": "address[]"
        }
      ],
      "stateMutability": "view",
      "type": "function"
    },
    {
      "inputs": [],
      "name": "getCurrentEthBalance",
      "outputs": [
        {
          "internalType": "uint256",
          "name": "",
          "type": "uint256"
        }
      ],
      "stateMutability": "view",
      "type": "function"
    },
    {
      "inputs": [
        {
          "internalType": "address",
          "name": "_investor",
          "type": "address"
        }
      ],
      "name": "getInvestorFunds",
      "outputs": [
        {
          "internalType": "contract HedgeFund[]",
          "name": "",
          "type": "address[]"
        }
      ],
      "stateMutability": "view",
      "type": "function"
    },
    {
      "inputs": [
        {
          "internalType": "address",
          "name": "_manager",
          "type": "address"
        }
      ],
      "name": "getManagerFunds",
      "outputs": [
        {
          "internalType": "contract HedgeFund[]",
          "name": "",
          "type": "address[]"
        }
      ],
      "stateMutability": "view",
      "type": "function"
    },
    {
      "inputs": [],
      "name": "getPlatformData",
      "outputs": [
        {
          "internalType": "uint256",
          "name": "_softCap",
          "type": "uint256"
        },
        {
          "internalType": "uint256",
          "name": "_hardCap",
          "type": "uint256"
        },
        {
          "internalType": "uint256",
          "name": "_minimumTimeUntillFundStart",
          "type": "uint256"
        },
        {
          "internalType": "uint256",
          "name": "_maximumTimeUntillFundStart",
          "type": "uint256"
        },
        {
          "internalType": "uint256",
          "name": "_minimumProfitFee",
          "type": "uint256"
        },
        {
          "internalType": "uint256",
          "name": "_maximumProfitFee",
          "type": "uint256"
        }
      ],
      "stateMutability": "view",
      "type": "function"
    },
    {
      "inputs": [
        {
          "internalType": "uint256",
          "name": "_topAmount",
          "type": "uint256"
        }
      ],
      "name": "getTopRelevantFunds",
      "outputs": [
        {
          "internalType": "contract HedgeFund[]",
          "name": "",
          "type": "address[]"
        }
      ],
      "stateMutability": "view",
      "type": "function"
    },
    {
      "inputs": [],
      "name": "goldPeriodRewardPercentage",
      "outputs": [
        {
          "internalType": "int256",
          "name": "",
          "type": "int256"
        }
      ],
      "stateMutability": "view",
      "type": "function"
    },
    {
      "inputs": [],
      "name": "goldPeriodStart",
      "outputs": [
        {
          "internalType": "uint256",
          "name": "",
          "type": "uint256"
        }
      ],
      "stateMutability": "view",
      "type": "function"
    },
    {
      "inputs": [],
      "name": "hardCap",
      "outputs": [
        {
          "internalType": "uint256",
          "name": "",
          "type": "uint256"
        }
      ],
      "stateMutability": "view",
      "type": "function"
    },
    {
      "inputs": [
        {
          "internalType": "address",
          "name": "",
          "type": "address"
        }
      ],
      "name": "isExcludedFromReward",
      "outputs": [
        {
          "internalType": "bool",
          "name": "",
          "type": "bool"
        }
      ],
      "stateMutability": "view",
      "type": "function"
    },
    {
      "inputs": [
        {
          "internalType": "address",
          "name": "",
          "type": "address"
        }
      ],
      "name": "isFund",
      "outputs": [
        {
          "internalType": "bool",
          "name": "",
          "type": "bool"
        }
      ],
      "stateMutability": "view",
      "type": "function"
    },
    {
      "inputs": [
        {
          "internalType": "address",
          "name": "",
          "type": "address"
        },
        {
          "internalType": "address",
          "name": "",
          "type": "address"
        }
      ],
      "name": "isInvestorOf",
      "outputs": [
        {
          "internalType": "bool",
          "name": "",
          "type": "bool"
        }
      ],
      "stateMutability": "view",
      "type": "function"
    },
    {
      "inputs": [
        {
          "internalType": "address",
          "name": "",
          "type": "address"
        }
      ],
      "name": "managerFundActivity",
      "outputs": [
        {
          "internalType": "uint256",
          "name": "fundActivityMonths",
          "type": "uint256"
        },
        {
          "internalType": "uint256",
          "name": "reputation",
          "type": "uint256"
        },
        {
          "internalType": "bool",
          "name": "isValue",
          "type": "bool"
        }
      ],
      "stateMutability": "view",
      "type": "function"
    },
    {
      "inputs": [],
      "name": "maximumMinimalDepositAmountFromHardCapPercentage",
      "outputs": [
        {
          "internalType": "uint256",
          "name": "",
          "type": "uint256"
        }
      ],
      "stateMutability": "view",
      "type": "function"
    },
    {
      "inputs": [],
      "name": "maximumProfitFee",
      "outputs": [
        {
          "internalType": "uint256",
          "name": "",
          "type": "uint256"
        }
      ],
      "stateMutability": "view",
      "type": "function"
    },
    {
      "inputs": [],
      "name": "maximumTimeUntillFundStart",
      "outputs": [
        {
          "internalType": "uint256",
          "name": "",
          "type": "uint256"
        }
      ],
      "stateMutability": "view",
      "type": "function"
    },
    {
      "inputs": [],
      "name": "minimumProfitFee",
      "outputs": [
        {
          "internalType": "uint256",
          "name": "",
          "type": "uint256"
        }
      ],
      "stateMutability": "view",
      "type": "function"
    },
    {
      "inputs": [],
      "name": "minimumTimeUntillFundStart",
      "outputs": [
        {
          "internalType": "uint256",
          "name": "",
          "type": "uint256"
        }
      ],
      "stateMutability": "view",
      "type": "function"
    },
    {
      "inputs": [
        {
          "internalType": "address",
          "name": "",
          "type": "address"
        }
      ],
      "name": "nextAvailableRewardClaimDate",
      "outputs": [
        {
          "internalType": "uint256",
          "name": "",
          "type": "uint256"
        }
      ],
      "stateMutability": "view",
      "type": "function"
    },
    {
      "inputs": [],
      "name": "noProfitFundFee",
      "outputs": [
        {
          "internalType": "int256",
          "name": "",
          "type": "int256"
        }
      ],
      "stateMutability": "view",
      "type": "function"
    },
    {
      "inputs": [
        {
          "internalType": "address",
          "name": "_depositorAddress",
          "type": "address"
        }
      ],
      "name": "onDepositMade",
      "outputs": [],
      "stateMutability": "nonpayable",
      "type": "function"
    },
    {
      "inputs": [],
      "name": "percentageBase",
      "outputs": [
        {
          "internalType": "uint256",
          "name": "",
          "type": "uint256"
        }
      ],
      "stateMutability": "view",
      "type": "function"
    },
    {
      "inputs": [],
      "name": "rewardCycleBlock",
      "outputs": [
        {
          "internalType": "uint256",
          "name": "",
          "type": "uint256"
        }
      ],
      "stateMutability": "view",
      "type": "function"
    },
    {
      "inputs": [],
      "name": "silverPeriodRewardPercentage",
      "outputs": [
        {
          "internalType": "int256",
          "name": "",
          "type": "int256"
        }
      ],
      "stateMutability": "view",
      "type": "function"
    },
    {
      "inputs": [],
      "name": "silverPeriodStart",
      "outputs": [
        {
          "internalType": "uint256",
          "name": "",
          "type": "uint256"
        }
      ],
      "stateMutability": "view",
      "type": "function"
    },
    {
      "inputs": [],
      "name": "softCap",
      "outputs": [
        {
          "internalType": "uint256",
          "name": "",
          "type": "uint256"
        }
      ],
      "stateMutability": "view",
      "type": "function"
    },
    {
      "stateMutability": "payable",
      "type": "receive"
    }
  ],
  "bytecode": "0x6101006040523480156200001257600080fd5b506040516200473138038062004731833981810160405281019062000038919062000219565b600073ffffffffffffffffffffffffffffffffffffffff168473ffffffffffffffffffffffffffffffffffffffff161415620000ab576040517f08c379a0000000000000000000000000000000000000000000000000000000008152600401620000a290620003bd565b60405180910390fd5b600073ffffffffffffffffffffffffffffffffffffffff168373ffffffffffffffffffffffffffffffffffffffff1614156200011e576040517f08c379a00000000000000000000000000000000000000000000000000000000081526004016200011590620003df565b60405180910390fd5b81811162000163576040517f08c379a00000000000000000000000000000000000000000000000000000000081526004016200015a9062000401565b60405180910390fd5b8060e081815250508160c081815250508373ffffffffffffffffffffffffffffffffffffffff1660808173ffffffffffffffffffffffffffffffffffffffff1660601b815250508273ffffffffffffffffffffffffffffffffffffffff1660a08173ffffffffffffffffffffffffffffffffffffffff1660601b8152505050505050620004a6565b600081519050620001fc8162000472565b92915050565b60008151905062000213816200048c565b92915050565b600080600080608085870312156200023057600080fd5b60006200024087828801620001eb565b94505060206200025387828801620001eb565b9350506040620002668782880162000202565b9250506060620002798782880162000202565b91505092959194509250565b60006200029460248362000423565b91507f496e76616c69642066756e64466163746f727920616464726573732070726f7660008301527f69646564000000000000000000000000000000000000000000000000000000006020830152604082019050919050565b6000620002fc60248362000423565b91507f496e76616c6964206546756e6420746f6b656e20616464726573732070726f7660008301527f69646564000000000000000000000000000000000000000000000000000000006020830152604082019050919050565b60006200036460258362000423565b91507f4861726420636170206d75737420626520626967676572207468616e20736f6660008301527f74206361700000000000000000000000000000000000000000000000000000006020830152604082019050919050565b60006020820190508181036000830152620003d88162000285565b9050919050565b60006020820190508181036000830152620003fa81620002ed565b9050919050565b600060208201905081810360008301526200041c8162000355565b9050919050565b600082825260208201905092915050565b6000620004418262000448565b9050919050565b600073ffffffffffffffffffffffffffffffffffffffff82169050919050565b6000819050919050565b6200047d8162000434565b81146200048957600080fd5b50565b620004978162000468565b8114620004a357600080fd5b50565b60805160601c60a05160601c60c05160e05161421862000519600039806114445280611dd352806122c7525080611303528061146f5280611db2525080610f7a528061102252806116305280611ad25280611b7f5280611c285280611ce7525080610f4352806115cb52506142186000f3fe6080604052600436106102085760003560e01c8063a1ef85dc11610118578063de145692116100a0578063f4817d6d1161006f578063f4817d6d146107a1578063f61dc9e5146107de578063fb86a40414610809578063fc8fc79714610834578063fd56b3021461085f5761020f565b8063de145692146106f2578063e2164cdb1461071d578063e2c9b8a91461074d578063e3a1c6fe1461078a5761020f565b8063ca5b42cf116100e7578063ca5b42cf146105e5578063ca8f4ae814610622578063cc9bc68b1461065f578063d0b4fa051461068a578063d10d51a2146106c75761020f565b8063a1ef85dc14610510578063b0c72e901461053b578063b2c50b5314610578578063c7153b89146105a85761020f565b806359b6f2e61161019b5780637217f4bc1161016a5780637217f4bc1461041357806388f820201461043e5780638c5007871461047b578063906a26e0146104ba578063941e041c146104e55761020f565b806359b6f2e61461037b5780635c819281146103a6578063611b5322146103d157806365700481146103fc5761020f565b806326a3b51f116101d757806326a3b51f146102cf5780632ed6f71c146102fa5780633dea9e661461032557806344e8bc7d146103505761020f565b806308b89603146102115780631868b7291461023c5780631c69b4641461027957806322ab155e146102a45761020f565b3661020f57005b005b34801561021d57600080fd5b50610226610888565b6040516102339190613e9b565b60405180910390f35b34801561024857600080fd5b50610263600480360381019061025e91906131ad565b61088f565b6040516102709190613b39565b60405180910390f35b34801561028557600080fd5b5061028e610ea1565b60405161029b9190613b39565b60405180910390f35b3480156102b057600080fd5b506102b9610f2f565b6040516102c69190613e9b565b60405180910390f35b3480156102db57600080fd5b506102e4610f34565b6040516102f19190613bac565b60405180910390f35b34801561030657600080fd5b5061030f610f39565b60405161031c9190613e9b565b60405180910390f35b34801561033157600080fd5b5061033a610f41565b6040516103479190613b76565b60405180910390f35b34801561035c57600080fd5b50610365610f65565b6040516103729190613e9b565b60405180910390f35b34801561038757600080fd5b50610390610f6c565b60405161039d9190613bac565b60405180910390f35b3480156103b257600080fd5b506103bb610f71565b6040516103c89190613e9b565b60405180910390f35b3480156103dd57600080fd5b506103e6610f78565b6040516103f39190613b91565b60405180910390f35b34801561040857600080fd5b50610411610f9c565b005b34801561041f57600080fd5b506104286112a3565b6040516104359190613e9b565b60405180910390f35b34801561044a57600080fd5b5061046560048036038101906104609190613003565b6112aa565b6040516104729190613b5b565b60405180910390f35b34801561048757600080fd5b506104a2600480360381019061049d9190613003565b6112ca565b6040516104b193929190613eb6565b60405180910390f35b3480156104c657600080fd5b506104cf611301565b6040516104dc9190613e9b565b60405180910390f35b3480156104f157600080fd5b506104fa611325565b6040516105079190613e9b565b60405180910390f35b34801561051c57600080fd5b5061052561132c565b6040516105329190613e9b565b60405180910390f35b34801561054757600080fd5b50610562600480360381019061055d9190613003565b611331565b60405161056f9190613b39565b60405180910390f35b610592600480360381019061058d919061307e565b6113fe565b60405161059f9190613b03565b60405180910390f35b3480156105b457600080fd5b506105cf60048036038101906105ca9190613003565b611993565b6040516105dc9190613b5b565b60405180910390f35b3480156105f157600080fd5b5061060c60048036038101906106079190613148565b6119b3565b6040516106199190613b5b565b60405180910390f35b34801561062e57600080fd5b5061064960048036038101906106449190613003565b6119e2565b6040516106569190613bac565b60405180910390f35b34801561066b57600080fd5b50610674611ac5565b6040516106819190613e9b565b60405180910390f35b34801561069657600080fd5b506106b160048036038101906106ac9190613003565b611aca565b6040516106be9190613e9b565b60405180910390f35b3480156106d357600080fd5b506106dc611d9d565b6040516106e99190613bac565b60405180910390f35b3480156106fe57600080fd5b50610707611da2565b6040516107149190613bac565b60405180910390f35b34801561072957600080fd5b50610732611da7565b60405161074496959493929190613eed565b60405180910390f35b34801561075957600080fd5b50610774600480360381019061076f9190613003565b611e12565b6040516107819190613b39565b60405180910390f35b34801561079657600080fd5b5061079f611edf565b005b3480156107ad57600080fd5b506107c860048036038101906107c39190613003565b6122a8565b6040516107d59190613e9b565b60405180910390f35b3480156107ea57600080fd5b506107f36122c0565b6040516108009190613bac565b60405180910390f35b34801561081557600080fd5b5061081e6122c5565b60405161082b9190613e9b565b60405180910390f35b34801561084057600080fd5b506108496122e9565b6040516108569190613e9b565b60405180910390f35b34801561086b57600080fd5b5061088660048036038101906108819190613003565b6122ee565b005b62ed4e0081565b606060008080549050141561092c57600080548060200260200160405190810160405280929190818152602001828054801561092057602002820191906000526020600020905b8160009054906101000a900473ffffffffffffffffffffffffffffffffffffffff1673ffffffffffffffffffffffffffffffffffffffff16815260200190600101908083116108d6575b50505050509050610e9c565b60008054905082106109415760008054905091505b606060008054905067ffffffffffffffff8111801561095f57600080fd5b5060405190808252806020026020018201604052801561098e5781602001602082028036833780820191505090505b50905060008090505b600080549050811015610a2f57600081815481106109b157fe5b9060005260206000200160009054906101000a900473ffffffffffffffffffffffffffffffffffffffff168282815181106109e857fe5b602002602001019073ffffffffffffffffffffffffffffffffffffffff16908173ffffffffffffffffffffffffffffffffffffffff16815250508080600101915050610997565b5060608367ffffffffffffffff81118015610a4957600080fd5b50604051908082528060200260200182016040528015610a785781602001602082028036833780820191505090505b509050610abb6040518060400160405280600d81526020017f66756e64206c656e6774683a20000000000000000000000000000000000000008152508351612547565b60008090505b8251811015610dca5760008090505b60018285510303811015610dbc57836001820181518110610aed57fe5b602002602001015173ffffffffffffffffffffffffffffffffffffffff1631848281518110610b1857fe5b602002602001015173ffffffffffffffffffffffffffffffffffffffff16311180610ce9575060046000856001840181518110610b5157fe5b602002602001015173ffffffffffffffffffffffffffffffffffffffff16636209ec2d6040518163ffffffff1660e01b815260040160206040518083038186803b158015610b9e57600080fd5b505afa158015610bb2573d6000803e3d6000fd5b505050506040513d601f19601f82011682018060405250810190610bd69190613055565b73ffffffffffffffffffffffffffffffffffffffff1673ffffffffffffffffffffffffffffffffffffffff1681526020019081526020016000206001015460046000868481518110610c2457fe5b602002602001015173ffffffffffffffffffffffffffffffffffffffff16636209ec2d6040518163ffffffff1660e01b815260040160206040518083038186803b158015610c7157600080fd5b505afa158015610c85573d6000803e3d6000fd5b505050506040513d601f19601f82011682018060405250810190610ca99190613055565b73ffffffffffffffffffffffffffffffffffffffff1673ffffffffffffffffffffffffffffffffffffffff16815260200190815260200160002060010154115b15610daf576000846001830181518110610cff57fe5b60200260200101519050848281518110610d1557fe5b6020026020010151856001840181518110610d2c57fe5b602002602001019073ffffffffffffffffffffffffffffffffffffffff16908173ffffffffffffffffffffffffffffffffffffffff168152505080858381518110610d7357fe5b602002602001019073ffffffffffffffffffffffffffffffffffffffff16908173ffffffffffffffffffffffffffffffffffffffff1681525050505b8080600101915050610ad0565b508080600101915050610ac1565b50610e096040518060400160405280600c81526020017f736f7274696e6720646f6e6500000000000000000000000000000000000000008152506125e3565b6000600160008054905003905060008090505b85811015610e9457838281518110610e3057fe5b6020026020010151838281518110610e4457fe5b602002602001019073ffffffffffffffffffffffffffffffffffffffff16908173ffffffffffffffffffffffffffffffffffffffff16815250508180600190039250508080600101915050610e1c565b508193505050505b919050565b60606000805480602002602001604051908101604052809291908181526020018280548015610f2557602002820191906000526020600020905b8160009054906101000a900473ffffffffffffffffffffffffffffffffffffffff1673ffffffffffffffffffffffffffffffffffffffff1681526020019060010190808311610edb575b5050505050905090565b606481565b601e81565b600047905090565b7f000000000000000000000000000000000000000000000000000000000000000081565b6201518081565b600a81565b6276a70081565b7f000000000000000000000000000000000000000000000000000000000000000081565b42600660003373ffffffffffffffffffffffffffffffffffffffff1673ffffffffffffffffffffffffffffffffffffffff16815260200190815260200160002054111561101e576040517f08c379a000000000000000000000000000000000000000000000000000000000815260040161101590613c19565b60405180910390fd5b60007f000000000000000000000000000000000000000000000000000000000000000073ffffffffffffffffffffffffffffffffffffffff166370a08231336040518263ffffffff1660e01b81526004016110799190613b1e565b60206040518083038186803b15801561109157600080fd5b505afa1580156110a5573d6000803e3d6000fd5b505050506040513d601f19601f820116820180604052508101906110c991906131d6565b11611109576040517f08c379a000000000000000000000000000000000000000000000000000000000815260040161110090613d39565b60405180910390fd5b600061111433611aca565b905061112c62093a804261267c90919063ffffffff16565b600660003373ffffffffffffffffffffffffffffffffffffffff1673ffffffffffffffffffffffffffffffffffffffff1681526020019081526020016000208190555060003373ffffffffffffffffffffffffffffffffffffffff168260405161119590613aee565b60006040518083038185875af1925050503d80600081146111d2576040519150601f19603f3d011682016040523d82523d6000602084013e6111d7565b606091505b505090508061121b576040517f08c379a000000000000000000000000000000000000000000000000000000000815260040161121290613e19565b60405180910390fd5b600660003373ffffffffffffffffffffffffffffffffffffffff1673ffffffffffffffffffffffffffffffffffffffff16815260200190815260200160002054823373ffffffffffffffffffffffffffffffffffffffff167f22eee7f02e36f8323e1e4f98d1b2002e1ec68523f572f475011a03969d292aa560405160405180910390a45050565b62093a8081565b60076020528060005260406000206000915054906101000a900460ff1681565b60046020528060005260406000206000915090508060000154908060010154908060020160009054906101000a900460ff16905083565b7f000000000000000000000000000000000000000000000000000000000000000081565b620d2f0081565b600a81565b6060600160008373ffffffffffffffffffffffffffffffffffffffff1673ffffffffffffffffffffffffffffffffffffffff1681526020019081526020016000208054806020026020016040519081016040528092919081815260200182805480156113f257602002820191906000526020600020905b8160009054906101000a900473ffffffffffffffffffffffffffffffffffffffff1673ffffffffffffffffffffffffffffffffffffffff16815260200190600101908083116113a8575b50505050509050919050565b6000868611611442576040517f08c379a000000000000000000000000000000000000000000000000000000000815260040161143990613d19565b60405180910390fd5b7f0000000000000000000000000000000000000000000000000000000000000000861115801561149257507f00000000000000000000000000000000000000000000000000000000000000008710155b6114d1576040517f08c379a00000000000000000000000000000000000000000000000000000000081526004016114c890613df9565b60405180910390fd5b6000841180156114f457506114f0600a876126d190919063ffffffff16565b8411155b611533576040517f08c379a000000000000000000000000000000000000000000000000000000000815260040161152a90613cb9565b60405180910390fd5b85341115611576576040517f08c379a000000000000000000000000000000000000000000000000000000000815260040161156d90613d79565b60405180910390fd5b600185101580156115885750600a8511155b6115c7576040517f08c379a00000000000000000000000000000000000000000000000000000000081526004016115be90613e39565b60405180910390fd5b60007f000000000000000000000000000000000000000000000000000000000000000073ffffffffffffffffffffffffffffffffffffffff16637072997d346040518061018001604052808e73ffffffffffffffffffffffffffffffffffffffff1681526020017f000000000000000000000000000000000000000000000000000000000000000073ffffffffffffffffffffffffffffffffffffffff1681526020013073ffffffffffffffffffffffffffffffffffffffff1681526020018c81526020018b81526020018a81526020018981526020018881526020013373ffffffffffffffffffffffffffffffffffffffff1681526020018d8152602001348152602001878152506040518363ffffffff1660e01b81526004016116ec9190613e79565b6020604051808303818588803b15801561170557600080fd5b505af1158015611719573d6000803e3d6000fd5b50505050506040513d601f19601f8201168201806040525081019061173e919061302c565b90506000819080600181540180825580915050600190039060005260206000200160009091909190916101000a81548173ffffffffffffffffffffffffffffffffffffffff021916908373ffffffffffffffffffffffffffffffffffffffff160217905550600160003373ffffffffffffffffffffffffffffffffffffffff1673ffffffffffffffffffffffffffffffffffffffff168152602001908152602001600020819080600181540180825580915050600190039060005260206000200160009091909190916101000a81548173ffffffffffffffffffffffffffffffffffffffff021916908373ffffffffffffffffffffffffffffffffffffffff1602179055506001600360008373ffffffffffffffffffffffffffffffffffffffff1673ffffffffffffffffffffffffffffffffffffffff16815260200190815260200160002060006101000a81548160ff021916908315150217905550600460003373ffffffffffffffffffffffffffffffffffffffff1673ffffffffffffffffffffffffffffffffffffffff16815260200190815260200160002060020160009054906101000a900460ff16611986576040518060600160405280600081526020016000815260200160011515815250600460003373ffffffffffffffffffffffffffffffffffffffff1673ffffffffffffffffffffffffffffffffffffffff168152602001908152602001600020600082015181600001556020820151816001015560408201518160020160006101000a81548160ff0219169083151502179055509050505b5098975050505050505050565b60036020528060005260406000206000915054906101000a900460ff1681565b60056020528160005260406000206020528060005260406000206000915091509054906101000a900460ff1681565b6000600460008373ffffffffffffffffffffffffffffffffffffffff1673ffffffffffffffffffffffffffffffffffffffff16815260200190815260200160002060020160009054906101000a900460ff16611a73576040517f08c379a0000000000000000000000000000000000000000000000000000000008152600401611a6a90613c79565b60405180910390fd5b611abe600460008473ffffffffffffffffffffffffffffffffffffffff1673ffffffffffffffffffffffffffffffffffffffff16815260200190815260200160002060000154612727565b9050919050565b600a81565b600080611ce07f000000000000000000000000000000000000000000000000000000000000000073ffffffffffffffffffffffffffffffffffffffff166370a0823160006040518263ffffffff1660e01b8152600401611b2a9190613b1e565b60206040518083038186803b158015611b4257600080fd5b505afa158015611b56573d6000803e3d6000fd5b505050506040513d601f19601f82011682018060405250810190611b7a91906131d6565b611cd27f000000000000000000000000000000000000000000000000000000000000000073ffffffffffffffffffffffffffffffffffffffff166370a08231306040518263ffffffff1660e01b8152600401611bd69190613b1e565b60206040518083038186803b158015611bee57600080fd5b505afa158015611c02573d6000803e3d6000fd5b505050506040513d601f19601f82011682018060405250810190611c2691906131d6565b7f000000000000000000000000000000000000000000000000000000000000000073ffffffffffffffffffffffffffffffffffffffff166318160ddd6040518163ffffffff1660e01b815260040160206040518083038186803b158015611c8c57600080fd5b505afa158015611ca0573d6000803e3d6000fd5b505050506040513d601f19601f82011682018060405250810190611cc491906131d6565b61275b90919063ffffffff16565b61275b90919063ffffffff16565b9050611d957f000000000000000000000000000000000000000000000000000000000000000073ffffffffffffffffffffffffffffffffffffffff166370a08231856040518263ffffffff1660e01b8152600401611d3e9190613b03565b60206040518083038186803b158015611d5657600080fd5b505afa158015611d6a573d6000803e3d6000fd5b505050506040513d601f19601f82011682018060405250810190611d8e91906131d6565b47836127ab565b915050919050565b600381565b600a81565b6000806000806000807f00000000000000000000000000000000000000000000000000000000000000007f000000000000000000000000000000000000000000000000000000000000000062015180620d2f006001600a955095509550955095509550909192939495565b6060600260008373ffffffffffffffffffffffffffffffffffffffff1673ffffffffffffffffffffffffffffffffffffffff168152602001908152602001600020805480602002602001604051908101604052809291908181526020018280548015611ed357602002820191906000526020600020905b8160009054906101000a900473ffffffffffffffffffffffffffffffffffffffff1673ffffffffffffffffffffffffffffffffffffffff1681526020019060010190808311611e89575b50505050509050919050565b600360003373ffffffffffffffffffffffffffffffffffffffff1673ffffffffffffffffffffffffffffffffffffffff16815260200190815260200160002060009054906101000a900460ff16611f6b576040517f08c379a0000000000000000000000000000000000000000000000000000000008152600401611f6290613cf9565b60405180910390fd5b6000339050428173ffffffffffffffffffffffffffffffffffffffff1663439f5ac26040518163ffffffff1660e01b815260040160206040518083038186803b158015611fb757600080fd5b505afa158015611fcb573d6000803e3d6000fd5b505050506040513d601f19601f82011682018060405250810190611fef91906131d6565b10801561207657508073ffffffffffffffffffffffffffffffffffffffff16634d820b9a6040518163ffffffff1660e01b815260040160206040518083038186803b15801561203d57600080fd5b505afa158015612051573d6000803e3d6000fd5b505050506040513d601f19601f820116820180604052508101906120759190613184565b5b6120b5576040517f08c379a00000000000000000000000000000000000000000000000000000000081526004016120ac90613db9565b60405180910390fd5b60008173ffffffffffffffffffffffffffffffffffffffff16636209ec2d6040518163ffffffff1660e01b815260040160206040518083038186803b1580156120fd57600080fd5b505afa158015612111573d6000803e3d6000fd5b505050506040513d601f19601f820116820180604052508101906121359190613055565b90506000600460008373ffffffffffffffffffffffffffffffffffffffff1673ffffffffffffffffffffffffffffffffffffffff16815260200190815260200160002060000154905061220e8373ffffffffffffffffffffffffffffffffffffffff16636da797c96040518163ffffffff1660e01b815260040160206040518083038186803b1580156121c757600080fd5b505afa1580156121db573d6000803e3d6000fd5b505050506040513d601f19601f820116820180604052508101906121ff91906131d6565b8261267c90919063ffffffff16565b600460008473ffffffffffffffffffffffffffffffffffffffff1673ffffffffffffffffffffffffffffffffffffffff1681526020019081526020016000206000018190555061225d826127e0565b600460008473ffffffffffffffffffffffffffffffffffffffff1673ffffffffffffffffffffffffffffffffffffffff16815260200190815260200160002060010181905550505050565b60066020528060005260406000206000915090505481565b601481565b7f000000000000000000000000000000000000000000000000000000000000000081565b600181565b600360003373ffffffffffffffffffffffffffffffffffffffff1673ffffffffffffffffffffffffffffffffffffffff16815260200190815260200160002060009054906101000a900460ff1661237a576040517f08c379a000000000000000000000000000000000000000000000000000000000815260040161237190613cf9565b60405180910390fd5b600560008273ffffffffffffffffffffffffffffffffffffffff1673ffffffffffffffffffffffffffffffffffffffff16815260200190815260200160002060003373ffffffffffffffffffffffffffffffffffffffff1673ffffffffffffffffffffffffffffffffffffffff16815260200190815260200160002060009054906101000a900460ff161561240e57612544565b6001600560008373ffffffffffffffffffffffffffffffffffffffff1673ffffffffffffffffffffffffffffffffffffffff16815260200190815260200160002060003373ffffffffffffffffffffffffffffffffffffffff1673ffffffffffffffffffffffffffffffffffffffff16815260200190815260200160002060006101000a81548160ff021916908315150217905550600260008273ffffffffffffffffffffffffffffffffffffffff1673ffffffffffffffffffffffffffffffffffffffff168152602001908152602001600020339080600181540180825580915050600190039060005260206000200160009091909190916101000a81548173ffffffffffffffffffffffffffffffffffffffff021916908373ffffffffffffffffffffffffffffffffffffffff1602179055505b50565b6125df828260405160240161255d929190613be9565b6040516020818303038152906040527f9710a9d0000000000000000000000000000000000000000000000000000000007bffffffffffffffffffffffffffffffffffffffffffffffffffffffff19166020820180517bffffffffffffffffffffffffffffffffffffffffffffffffffffffff8381831617835250505050612c39565b5050565b612679816040516024016125f79190613bc7565b6040516020818303038152906040527f41304fac000000000000000000000000000000000000000000000000000000007bffffffffffffffffffffffffffffffffffffffffffffffffffffffff19166020820180517bffffffffffffffffffffffffffffffffffffffffffffffffffffffff8381831617835250505050612c39565b50565b6000808284019050838110156126c7576040517f08c379a00000000000000000000000000000000000000000000000000000000081526004016126be90613c59565b60405180910390fd5b8091505092915050565b6000808211612715576040517f08c379a000000000000000000000000000000000000000000000000000000000815260040161270c90613cd9565b60405180910390fd5b81838161271e57fe5b04905092915050565b60006276a70082101561273d57600a9050612756565b62ed4e008210156127515760149050612756565b601e90505b919050565b6000828211156127a0576040517f08c379a000000000000000000000000000000000000000000000000000000000815260040161279790613c99565b60405180910390fd5b818303905092915050565b6000806127d3836127c58787612c6290919063ffffffff16565b6126d190919063ffffffff16565b9050809150509392505050565b6000600460008373ffffffffffffffffffffffffffffffffffffffff1673ffffffffffffffffffffffffffffffffffffffff16815260200190815260200160002060020160009054906101000a900460ff16612871576040517f08c379a000000000000000000000000000000000000000000000000000000000815260040161286890613c39565b60405180910390fd5b6060600160008473ffffffffffffffffffffffffffffffffffffffff1673ffffffffffffffffffffffffffffffffffffffff16815260200190815260200160002080548060200260200160405190810160405280929190818152602001828054801561293257602002820191906000526020600020905b8160009054906101000a900473ffffffffffffffffffffffffffffffffffffffff1673ffffffffffffffffffffffffffffffffffffffff16815260200190600101908083116128e8575b5050505050905060008060008060008092509250925060008090505b8451811015612bd257600085828151811061296557fe5b602002602001015173ffffffffffffffffffffffffffffffffffffffff1663a1956e326040518163ffffffff1660e01b815260040160206040518083038186803b1580156129b257600080fd5b505afa1580156129c6573d6000803e3d6000fd5b505050506040513d601f19601f820116820180604052508101906129ea91906131d6565b14612bc5578380600101945050848181518110612a0357fe5b602002602001015173ffffffffffffffffffffffffffffffffffffffff166338bde7916040518163ffffffff1660e01b815260040160206040518083038186803b158015612a5057600080fd5b505afa158015612a64573d6000803e3d6000fd5b505050506040513d601f19601f82011682018060405250810190612a8891906131d6565b858281518110612a9457fe5b602002602001015173ffffffffffffffffffffffffffffffffffffffff1663a1956e326040518163ffffffff1660e01b815260040160206040518083038186803b158015612ae157600080fd5b505afa158015612af5573d6000803e3d6000fd5b505050506040513d601f19601f82011682018060405250810190612b1991906131d6565b11612b25576000612b28565b60015b60ff1683019250848181518110612b3b57fe5b602002602001015173ffffffffffffffffffffffffffffffffffffffff1663a1956e326040518163ffffffff1660e01b815260040160206040518083038186803b158015612b8857600080fd5b505afa158015612b9c573d6000803e3d6000fd5b505050506040513d601f19601f82011682018060405250810190612bc091906131d6565b820191505b808060010191505061294e565b506000612bdf8385612cd2565b9050612c2d612bf96103e8856126d190919063ffffffff16565b612c1f612c10600a866126d190919063ffffffff16565b8461267c90919063ffffffff16565b61267c90919063ffffffff16565b95505050505050919050565b60008151905060006a636f6e736f6c652e6c6f679050602083016000808483855afa5050505050565b600080831415612c755760009050612ccc565b6000828402905082848281612c8657fe5b0414612cc7576040517f08c379a0000000000000000000000000000000000000000000000000000000008152600401612cbe90613d99565b60405180910390fd5b809150505b92915050565b6000612cfc82612cee620186a086612d0490919063ffffffff16565b612e0290919063ffffffff16565b905092915050565b600080831415612d175760009050612dfc565b7fffffffffffffffffffffffffffffffffffffffffffffffffffffffffffffffff83148015612d6557507f800000000000000000000000000000000000000000000000000000000000000082145b15612da5576040517f08c379a0000000000000000000000000000000000000000000000000000000008152600401612d9c90613dd9565b60405180910390fd5b6000828402905082848281612db657fe5b0514612df7576040517f08c379a0000000000000000000000000000000000000000000000000000000008152600401612dee90613dd9565b60405180910390fd5b809150505b92915050565b600080821415612e47576040517f08c379a0000000000000000000000000000000000000000000000000000000008152600401612e3e90613e59565b60405180910390fd5b7fffffffffffffffffffffffffffffffffffffffffffffffffffffffffffffffff82148015612e9557507f800000000000000000000000000000000000000000000000000000000000000083145b15612ed5576040517f08c379a0000000000000000000000000000000000000000000000000000000008152600401612ecc90613d59565b60405180910390fd5b6000828481612ee057fe5b0590508091505092915050565b600081359050612efc81614186565b92915050565b600081519050612f1181614186565b92915050565b600081359050612f268161419d565b92915050565b600081519050612f3b8161419d565b92915050565b600082601f830112612f5257600080fd5b8135612f65612f6082613f7b565b613f4e565b91508181835260208401935060208101905083856020840282011115612f8a57600080fd5b60005b83811015612fba5781612fa08882612f17565b845260208401935060208301925050600181019050612f8d565b5050505092915050565b600081519050612fd3816141b4565b92915050565b600081359050612fe8816141cb565b92915050565b600081519050612ffd816141cb565b92915050565b60006020828403121561301557600080fd5b600061302384828501612eed565b91505092915050565b60006020828403121561303e57600080fd5b600061304c84828501612f02565b91505092915050565b60006020828403121561306757600080fd5b600061307584828501612f2c565b91505092915050565b600080600080600080600080610100898b03121561309b57600080fd5b60006130a98b828c01612f17565b98505060206130ba8b828c01612fd9565b97505060406130cb8b828c01612fd9565b96505060606130dc8b828c01612fd9565b95505060806130ed8b828c01612fd9565b94505060a06130fe8b828c01612fd9565b93505060c061310f8b828c01612fd9565b92505060e089013567ffffffffffffffff81111561312c57600080fd5b6131388b828c01612f41565b9150509295985092959890939650565b6000806040838503121561315b57600080fd5b600061316985828601612eed565b925050602061317a85828601612eed565b9150509250929050565b60006020828403121561319657600080fd5b60006131a484828501612fc4565b91505092915050565b6000602082840312156131bf57600080fd5b60006131cd84828501612fd9565b91505092915050565b6000602082840312156131e857600080fd5b60006131f684828501612fee565b91505092915050565b600061320b838361323e565b60208301905092915050565b60006132238383613336565b60208301905092915050565b613238816140a0565b82525050565b6132478161404e565b82525050565b6132568161403c565b82525050565b600061326782613fc3565b6132718185613ffe565b935061327c83613fa3565b8060005b838110156132ad57815161329488826131ff565b975061329f83613fe4565b925050600181019050613280565b5085935050505092915050565b60006132c582613fce565b6132cf818561400f565b93506132da83613fb3565b8060005b8381101561330b5781516132f28882613217565b97506132fd83613ff1565b9250506001810190506132de565b5085935050505092915050565b61332181614060565b82525050565b613330816140b2565b82525050565b61333f816140d6565b82525050565b61334e816140fa565b82525050565b61335d8161406c565b82525050565b600061336e82613fd9565b613378818561402b565b9350613388818560208601614142565b61339181614175565b840191505092915050565b60006133a960218361402b565b91507f4572726f723a206e65787420617661696c61626c65206e6f742072656163686560008301527f64000000000000000000000000000000000000000000000000000000000000006020830152604082019050919050565b600061340f60178361402b565b91507f4d616e6167657220646f657374206e6f742065786973740000000000000000006000830152602082019050919050565b600061344f601b8361402b565b91507f536166654d6174683a206164646974696f6e206f766572666c6f7700000000006000830152602082019050919050565b600061348f601d8361402b565b91507f41646472657373206973206e6f7420612066756e64206d616e616765720000006000830152602082019050919050565b60006134cf601e8361402b565b91507f536166654d6174683a207375627472616374696f6e206f766572666c6f7700006000830152602082019050919050565b600061350f601c8361402b565b91507f496e76616c6964206d696e696d616c4465706f736974416d6f756e74000000006000830152602082019050919050565b600061354f601a8361402b565b91507f536166654d6174683a206469766973696f6e206279207a65726f0000000000006000830152602082019050919050565b600061358f601c8361402b565b91507f43616c6c65722061646472657373206973206e6f7420612066756e64000000006000830152602082019050919050565b60006135cf60258361402b565b91507f4861726420636170206d75737420626520626967676572207468616e20736f6660008301527f74206361700000000000000000000000000000000000000000000000000000006020830152604082019050919050565b6000613635602a8361402b565b91507f4572726f723a206d757374206f776e206546756e64546f6b656e20746f20636c60008301527f61696d20726577617264000000000000000000000000000000000000000000006020830152604082019050919050565b600061369b60218361402b565b91507f5369676e6564536166654d6174683a206469766973696f6e206f766572666c6f60008301527f77000000000000000000000000000000000000000000000000000000000000006020830152604082019050919050565b600061370160218361402b565b91507f76616c7565206d757374206265206c6f776572207468656e206861726420636160008301527f70000000000000000000000000000000000000000000000000000000000000006020830152604082019050919050565b600061376760218361402b565b91507f536166654d6174683a206d756c7469706c69636174696f6e206f766572666c6f60008301527f77000000000000000000000000000000000000000000000000000000000000006020830152604082019050919050565b60006137cd60158361402b565b91507f46756e64206973206e6f7420636f6d706c6574656400000000000000000000006000830152602082019050919050565b600061380d60278361402b565b91507f5369676e6564536166654d6174683a206d756c7469706c69636174696f6e206f60008301527f766572666c6f77000000000000000000000000000000000000000000000000006020830152604082019050919050565b600061387360338361402b565b91507f486172644361702076616c756573206973206f7574736964652074686520706c60008301527f6174666f726d2064656661756c742063617073000000000000000000000000006020830152604082019050919050565b60006138d9600083614020565b9150600082019050919050565b60006138f3601d8361402b565b91507f4572726f723a2043616e6e6f74207769746864726177207265776172640000006000830152602082019050919050565b600061393360308361402b565b91507f4d616e61676572206665652076616c7565206973206f7574736964652074686560008301527f206d616e616765722066656520676170000000000000000000000000000000006020830152604082019050919050565b600061399960208361402b565b91507f5369676e6564536166654d6174683a206469766973696f6e206279207a65726f6000830152602082019050919050565b6000610180830160008301516139e5600086018261323e565b5060208301516139f8602086018261323e565b506040830151613a0b604086018261323e565b506060830151613a1e6060860182613ad0565b506080830151613a316080860182613ad0565b5060a0830151613a4460a0860182613ad0565b5060c0830151613a5760c0860182613ad0565b5060e0830151613a6a60e0860182613ad0565b50610100830151613a7f61010086018261323e565b50610120830151613a94610120860182613ad0565b50610140830151613aa9610140860182613ad0565b50610160830151848203610160860152613ac3828261325c565b9150508091505092915050565b613ad981614096565b82525050565b613ae881614096565b82525050565b6000613af9826138cc565b9150819050919050565b6000602082019050613b18600083018461324d565b92915050565b6000602082019050613b33600083018461322f565b92915050565b60006020820190508181036000830152613b5381846132ba565b905092915050565b6000602082019050613b706000830184613318565b92915050565b6000602082019050613b8b6000830184613327565b92915050565b6000602082019050613ba66000830184613345565b92915050565b6000602082019050613bc16000830184613354565b92915050565b60006020820190508181036000830152613be18184613363565b905092915050565b60006040820190508181036000830152613c038185613363565b9050613c126020830184613adf565b9392505050565b60006020820190508181036000830152613c328161339c565b9050919050565b60006020820190508181036000830152613c5281613402565b9050919050565b60006020820190508181036000830152613c7281613442565b9050919050565b60006020820190508181036000830152613c9281613482565b9050919050565b60006020820190508181036000830152613cb2816134c2565b9050919050565b60006020820190508181036000830152613cd281613502565b9050919050565b60006020820190508181036000830152613cf281613542565b9050919050565b60006020820190508181036000830152613d1281613582565b9050919050565b60006020820190508181036000830152613d32816135c2565b9050919050565b60006020820190508181036000830152613d5281613628565b9050919050565b60006020820190508181036000830152613d728161368e565b9050919050565b60006020820190508181036000830152613d92816136f4565b9050919050565b60006020820190508181036000830152613db28161375a565b9050919050565b60006020820190508181036000830152613dd2816137c0565b9050919050565b60006020820190508181036000830152613df281613800565b9050919050565b60006020820190508181036000830152613e1281613866565b9050919050565b60006020820190508181036000830152613e32816138e6565b9050919050565b60006020820190508181036000830152613e5281613926565b9050919050565b60006020820190508181036000830152613e728161398c565b9050919050565b60006020820190508181036000830152613e9381846139cc565b905092915050565b6000602082019050613eb06000830184613adf565b92915050565b6000606082019050613ecb6000830186613adf565b613ed86020830185613adf565b613ee56040830184613318565b949350505050565b600060c082019050613f026000830189613adf565b613f0f6020830188613adf565b613f1c6040830187613adf565b613f296060830186613adf565b613f366080830185613adf565b613f4360a0830184613adf565b979650505050505050565b6000604051905081810181811067ffffffffffffffff82111715613f7157600080fd5b8060405250919050565b600067ffffffffffffffff821115613f9257600080fd5b602082029050602081019050919050565b6000819050602082019050919050565b6000819050602082019050919050565b600081519050919050565b600081519050919050565b600081519050919050565b6000602082019050919050565b6000602082019050919050565b600082825260208201905092915050565b600082825260208201905092915050565b600081905092915050565b600082825260208201905092915050565b600061404782614076565b9050919050565b600061405982614076565b9050919050565b60008115159050919050565b6000819050919050565b600073ffffffffffffffffffffffffffffffffffffffff82169050919050565b6000819050919050565b60006140ab8261411e565b9050919050565b60006140bd826140c4565b9050919050565b60006140cf82614076565b9050919050565b60006140e1826140e8565b9050919050565b60006140f382614076565b9050919050565b60006141058261410c565b9050919050565b600061411782614076565b9050919050565b600061412982614130565b9050919050565b600061413b82614076565b9050919050565b60005b83811015614160578082015181840152602081019050614145565b8381111561416f576000848401525b50505050565b6000601f19601f8301169050919050565b61418f8161403c565b811461419a57600080fd5b50565b6141a68161404e565b81146141b157600080fd5b50565b6141bd81614060565b81146141c857600080fd5b50565b6141d481614096565b81146141df57600080fd5b5056fea264697066735822122011334cff79cf5a9ebf3ff238584a906f360cf85cedd9b978648eb4630a4cc5ac64736f6c63430006060033",
  "linkReferences": {},
  "deployedLinkReferences": {}
}