{
  "_format": "hh-sol-artifact-1",
  "contractName": "EFundPlatform",
  "sourceName": "contracts/EFundPlatform.sol",
  "abi": [
    {
      "inputs": [
        {
          "internalType": "address",
          "name": "_fundFactory",
          "type": "address"
        },
        {
          "internalType": "address",
          "name": "_efundToken",
          "type": "address"
        },
        {
          "internalType": "uint256",
          "name": "_softCap",
          "type": "uint256"
        },
        {
          "internalType": "uint256",
          "name": "_hardCap",
          "type": "uint256"
        }
      ],
      "stateMutability": "nonpayable",
      "type": "constructor"
    },
    {
      "anonymous": false,
      "inputs": [
        {
          "indexed": true,
          "internalType": "address",
          "name": "recipient",
          "type": "address"
        },
        {
          "indexed": true,
          "internalType": "uint256",
          "name": "ethReceived",
          "type": "uint256"
        },
        {
          "indexed": true,
          "internalType": "uint256",
          "name": "nextAvailableClaimDate",
          "type": "uint256"
        }
      ],
      "name": "ClaimHolderRewardSuccessfully",
      "type": "event"
    },
    {
      "stateMutability": "payable",
      "type": "fallback"
    },
    {
      "inputs": [],
      "name": "bronzePeriodRewardPercentage",
      "outputs": [
        {
          "internalType": "int256",
          "name": "",
          "type": "int256"
        }
      ],
      "stateMutability": "view",
      "type": "function"
    },
    {
      "inputs": [
        {
          "internalType": "address",
          "name": "ofAddress",
          "type": "address"
        }
      ],
      "name": "calculateHolderReward",
      "outputs": [
        {
          "internalType": "uint256",
          "name": "reward",
          "type": "uint256"
        }
      ],
      "stateMutability": "view",
      "type": "function"
    },
    {
      "inputs": [
        {
          "internalType": "address",
          "name": "_address",
          "type": "address"
        }
      ],
      "name": "calculateManagerRewardPercentage",
      "outputs": [
        {
          "internalType": "int256",
          "name": "",
          "type": "int256"
        }
      ],
      "stateMutability": "view",
      "type": "function"
    },
    {
      "inputs": [],
      "name": "claimHolderReward",
      "outputs": [],
      "stateMutability": "nonpayable",
      "type": "function"
    },
    {
      "inputs": [],
      "name": "closeFund",
      "outputs": [],
      "stateMutability": "nonpayable",
      "type": "function"
    },
    {
      "inputs": [
        {
          "internalType": "address payable",
          "name": "_swapRouter",
          "type": "address"
        },
        {
          "internalType": "uint256",
          "name": "_fundDurationInMonths",
          "type": "uint256"
        },
        {
          "internalType": "uint256",
          "name": "_softCap",
          "type": "uint256"
        },
        {
          "internalType": "uint256",
          "name": "_hardCap",
          "type": "uint256"
        },
        {
          "internalType": "uint256",
          "name": "_profitFee",
          "type": "uint256"
        },
        {
          "internalType": "uint256",
          "name": "_minimalDepositAmount",
          "type": "uint256"
        },
        {
          "internalType": "uint256",
          "name": "_minTimeUntilFundStart",
          "type": "uint256"
        },
        {
          "internalType": "address payable[]",
          "name": "_allowedTokens",
          "type": "address[]"
        }
      ],
      "name": "createFund",
      "outputs": [
        {
          "internalType": "address",
          "name": "",
          "type": "address"
        }
      ],
      "stateMutability": "payable",
      "type": "function"
    },
    {
      "inputs": [],
      "name": "defaultFundFee",
      "outputs": [
        {
          "internalType": "int256",
          "name": "",
          "type": "int256"
        }
      ],
      "stateMutability": "view",
      "type": "function"
    },
    {
      "inputs": [],
      "name": "eFund",
      "outputs": [
        {
          "internalType": "contract IERC20",
          "name": "",
          "type": "address"
        }
      ],
      "stateMutability": "view",
      "type": "function"
    },
    {
      "inputs": [],
      "name": "fundFactory",
      "outputs": [
        {
          "internalType": "contract FundFactory",
          "name": "",
          "type": "address"
        }
      ],
      "stateMutability": "view",
      "type": "function"
    },
    {
      "inputs": [],
      "name": "getAllFunds",
      "outputs": [
        {
          "internalType": "contract HedgeFund[]",
          "name": "",
          "type": "address[]"
        }
      ],
      "stateMutability": "view",
      "type": "function"
    },
    {
      "inputs": [],
      "name": "getCurrentEthBalance",
      "outputs": [
        {
          "internalType": "uint256",
          "name": "",
          "type": "uint256"
        }
      ],
      "stateMutability": "view",
      "type": "function"
    },
    {
      "inputs": [
        {
          "internalType": "address",
          "name": "manager",
          "type": "address"
        }
      ],
      "name": "getManagerFunds",
      "outputs": [
        {
          "internalType": "contract HedgeFund[]",
          "name": "",
          "type": "address[]"
        }
      ],
      "stateMutability": "view",
      "type": "function"
    },
    {
      "inputs": [
        {
          "internalType": "uint256",
          "name": "_topAmount",
          "type": "uint256"
        }
      ],
      "name": "getTopRelevantFunds",
      "outputs": [
        {
          "internalType": "contract HedgeFund[]",
          "name": "",
          "type": "address[]"
        }
      ],
      "stateMutability": "view",
      "type": "function"
    },
    {
      "inputs": [],
      "name": "goldPeriodRewardPercentage",
      "outputs": [
        {
          "internalType": "int256",
          "name": "",
          "type": "int256"
        }
      ],
      "stateMutability": "view",
      "type": "function"
    },
    {
      "inputs": [],
      "name": "goldPeriodStart",
      "outputs": [
        {
          "internalType": "uint256",
          "name": "",
          "type": "uint256"
        }
      ],
      "stateMutability": "view",
      "type": "function"
    },
    {
      "inputs": [],
      "name": "hardCap",
      "outputs": [
        {
          "internalType": "uint256",
          "name": "",
          "type": "uint256"
        }
      ],
      "stateMutability": "view",
      "type": "function"
    },
    {
      "inputs": [
        {
          "internalType": "address",
          "name": "",
          "type": "address"
        }
      ],
      "name": "isExcludedFromReward",
      "outputs": [
        {
          "internalType": "bool",
          "name": "",
          "type": "bool"
        }
      ],
      "stateMutability": "view",
      "type": "function"
    },
    {
      "inputs": [
        {
          "internalType": "address",
          "name": "",
          "type": "address"
        }
      ],
      "name": "isFund",
      "outputs": [
        {
          "internalType": "bool",
          "name": "",
          "type": "bool"
        }
      ],
      "stateMutability": "view",
      "type": "function"
    },
    {
      "inputs": [
        {
          "internalType": "address",
          "name": "",
          "type": "address"
        }
      ],
      "name": "managerFundActivity",
      "outputs": [
        {
          "internalType": "uint256",
          "name": "fundActivityMonths",
          "type": "uint256"
        },
        {
          "internalType": "uint256",
          "name": "reputation",
          "type": "uint256"
        },
        {
          "internalType": "bool",
          "name": "isValue",
          "type": "bool"
        }
      ],
      "stateMutability": "view",
      "type": "function"
    },
    {
      "inputs": [],
      "name": "maximumMinimalDepositAmountFromHardCapPercentage",
      "outputs": [
        {
          "internalType": "uint256",
          "name": "",
          "type": "uint256"
        }
      ],
      "stateMutability": "view",
      "type": "function"
    },
    {
      "inputs": [],
      "name": "maximumProfitFee",
      "outputs": [
        {
          "internalType": "uint256",
          "name": "",
          "type": "uint256"
        }
      ],
      "stateMutability": "view",
      "type": "function"
    },
    {
      "inputs": [],
      "name": "maximumTimeUntillFundStart",
      "outputs": [
        {
          "internalType": "uint256",
          "name": "",
          "type": "uint256"
        }
      ],
      "stateMutability": "view",
      "type": "function"
    },
    {
      "inputs": [],
      "name": "minimumProfitFee",
      "outputs": [
        {
          "internalType": "uint256",
          "name": "",
          "type": "uint256"
        }
      ],
      "stateMutability": "view",
      "type": "function"
    },
    {
      "inputs": [],
      "name": "minimumTimeUntillFundStart",
      "outputs": [
        {
          "internalType": "uint256",
          "name": "",
          "type": "uint256"
        }
      ],
      "stateMutability": "view",
      "type": "function"
    },
    {
      "inputs": [
        {
          "internalType": "address",
          "name": "",
          "type": "address"
        }
      ],
      "name": "nextAvailableRewardClaimDate",
      "outputs": [
        {
          "internalType": "uint256",
          "name": "",
          "type": "uint256"
        }
      ],
      "stateMutability": "view",
      "type": "function"
    },
    {
      "inputs": [],
      "name": "noProfitFundFee",
      "outputs": [
        {
          "internalType": "int256",
          "name": "",
          "type": "int256"
        }
      ],
      "stateMutability": "view",
      "type": "function"
    },
    {
      "inputs": [],
      "name": "percentageBase",
      "outputs": [
        {
          "internalType": "uint256",
          "name": "",
          "type": "uint256"
        }
      ],
      "stateMutability": "view",
      "type": "function"
    },
    {
      "inputs": [],
      "name": "rewardCycleBlock",
      "outputs": [
        {
          "internalType": "uint256",
          "name": "",
          "type": "uint256"
        }
      ],
      "stateMutability": "view",
      "type": "function"
    },
    {
      "inputs": [],
      "name": "silverPeriodRewardPercentage",
      "outputs": [
        {
          "internalType": "int256",
          "name": "",
          "type": "int256"
        }
      ],
      "stateMutability": "view",
      "type": "function"
    },
    {
      "inputs": [],
      "name": "silverPeriodStart",
      "outputs": [
        {
          "internalType": "uint256",
          "name": "",
          "type": "uint256"
        }
      ],
      "stateMutability": "view",
      "type": "function"
    },
    {
      "inputs": [],
      "name": "softCap",
      "outputs": [
        {
          "internalType": "uint256",
          "name": "",
          "type": "uint256"
        }
      ],
      "stateMutability": "view",
      "type": "function"
    },
    {
      "stateMutability": "payable",
      "type": "receive"
    }
  ],
  "bytecode": "0x6101006040523480156200001257600080fd5b506040516200436038038062004360833981810160405281019062000038919062000219565b600073ffffffffffffffffffffffffffffffffffffffff168473ffffffffffffffffffffffffffffffffffffffff161415620000ab576040517f08c379a0000000000000000000000000000000000000000000000000000000008152600401620000a290620003bd565b60405180910390fd5b600073ffffffffffffffffffffffffffffffffffffffff168373ffffffffffffffffffffffffffffffffffffffff1614156200011e576040517f08c379a00000000000000000000000000000000000000000000000000000000081526004016200011590620003df565b60405180910390fd5b81811162000163576040517f08c379a00000000000000000000000000000000000000000000000000000000081526004016200015a9062000401565b60405180910390fd5b8060e081815250508160c081815250508373ffffffffffffffffffffffffffffffffffffffff1660808173ffffffffffffffffffffffffffffffffffffffff1660601b815250508273ffffffffffffffffffffffffffffffffffffffff1660a08173ffffffffffffffffffffffffffffffffffffffff1660601b8152505050505050620004a6565b600081519050620001fc8162000472565b92915050565b60008151905062000213816200048c565b92915050565b600080600080608085870312156200023057600080fd5b60006200024087828801620001eb565b94505060206200025387828801620001eb565b9350506040620002668782880162000202565b9250506060620002798782880162000202565b91505092959194509250565b60006200029460248362000423565b91507f496e76616c69642066756e64466163746f727920616464726573732070726f7660008301527f69646564000000000000000000000000000000000000000000000000000000006020830152604082019050919050565b6000620002fc60248362000423565b91507f496e76616c6964206546756e6420746f6b656e20616464726573732070726f7660008301527f69646564000000000000000000000000000000000000000000000000000000006020830152604082019050919050565b60006200036460258362000423565b91507f4861726420636170206d75737420626520626967676572207468616e20736f6660008301527f74206361700000000000000000000000000000000000000000000000000000006020830152604082019050919050565b60006020820190508181036000830152620003d88162000285565b9050919050565b60006020820190508181036000830152620003fa81620002ed565b9050919050565b600060208201905081810360008301526200041c8162000355565b9050919050565b600082825260208201905092915050565b6000620004418262000448565b9050919050565b600073ffffffffffffffffffffffffffffffffffffffff82169050919050565b6000819050919050565b6200047d8162000434565b81146200048957600080fd5b50565b620004978162000468565b8114620004a357600080fd5b50565b60805160601c60a05160601c60c05160e051613e516200050f600039806113d4528061214b52508061120452806113ff525080610e7b5280610f2352806116215280611a8e5280611b3b5280611be45280611ca3525080610e4452806115bc5250613e516000f3fe6080604052600436106101dc5760003560e01c8063906a26e011610102578063d0b4fa0511610095578063f4817d6d11610064578063f4817d6d146106cb578063f61dc9e514610708578063fb86a40414610733578063fc8fc7971461075e576101e3565b8063d0b4fa0514610621578063d10d51a21461065e578063de14569214610689578063e3a1c6fe146106b4576101e3565b8063b2c50b53116100d1578063b2c50b531461054c578063c7153b891461057c578063ca8f4ae8146105b9578063cc9bc68b146105f6576101e3565b8063906a26e01461048e578063941e041c146104b9578063a1ef85dc146104e4578063b0c72e901461050f576101e3565b806344e8bc7d1161017a578063657004811161014957806365700481146103d05780637217f4bc146103e757806388f82020146104125780638c5007871461044f576101e3565b806344e8bc7d1461032457806359b6f2e61461034f5780635c8192811461037a578063611b5322146103a5576101e3565b806322ab155e116101b657806322ab155e1461027857806326a3b51f146102a35780632ed6f71c146102ce5780633dea9e66146102f9576101e3565b806308b89603146101e55780631868b729146102105780631c69b4641461024d576101e3565b366101e357005b005b3480156101f157600080fd5b506101fa610789565b6040516102079190613b35565b60405180910390f35b34801561021c57600080fd5b5061023760048036038101906102329190612d9c565b610790565b6040516102449190613793565b60405180910390f35b34801561025957600080fd5b50610262610da2565b60405161026f9190613793565b60405180910390f35b34801561028457600080fd5b5061028d610e30565b60405161029a9190613b35565b60405180910390f35b3480156102af57600080fd5b506102b8610e35565b6040516102c59190613806565b60405180910390f35b3480156102da57600080fd5b506102e3610e3a565b6040516102f09190613b35565b60405180910390f35b34801561030557600080fd5b5061030e610e42565b60405161031b91906137d0565b60405180910390f35b34801561033057600080fd5b50610339610e66565b6040516103469190613b35565b60405180910390f35b34801561035b57600080fd5b50610364610e6d565b6040516103719190613806565b60405180910390f35b34801561038657600080fd5b5061038f610e72565b60405161039c9190613b35565b60405180910390f35b3480156103b157600080fd5b506103ba610e79565b6040516103c791906137eb565b60405180910390f35b3480156103dc57600080fd5b506103e5610e9d565b005b3480156103f357600080fd5b506103fc6111a4565b6040516104099190613b35565b60405180910390f35b34801561041e57600080fd5b5061043960048036038101906104349190612c2e565b6111ab565b60405161044691906137b5565b60405180910390f35b34801561045b57600080fd5b5061047660048036038101906104719190612c2e565b6111cb565b60405161048593929190613b50565b60405180910390f35b34801561049a57600080fd5b506104a3611202565b6040516104b09190613b35565b60405180910390f35b3480156104c557600080fd5b506104ce611226565b6040516104db9190613b35565b60405180910390f35b3480156104f057600080fd5b506104f961122d565b6040516105069190613b35565b60405180910390f35b34801561051b57600080fd5b5061053660048036038101906105319190612c2e565b611232565b6040516105439190613793565b60405180910390f35b61056660048036038101906105619190612ca9565b61138e565b604051610573919061375d565b60405180910390f35b34801561058857600080fd5b506105a3600480360381019061059e9190612c2e565b61197e565b6040516105b091906137b5565b60405180910390f35b3480156105c557600080fd5b506105e060048036038101906105db9190612c2e565b61199e565b6040516105ed9190613806565b60405180910390f35b34801561060257600080fd5b5061060b611a81565b6040516106189190613b35565b60405180910390f35b34801561062d57600080fd5b5061064860048036038101906106439190612c2e565b611a86565b6040516106559190613b35565b60405180910390f35b34801561066a57600080fd5b50610673611d59565b6040516106809190613806565b60405180910390f35b34801561069557600080fd5b5061069e611d5e565b6040516106ab9190613806565b60405180910390f35b3480156106c057600080fd5b506106c9611d63565b005b3480156106d757600080fd5b506106f260048036038101906106ed9190612c2e565b61212c565b6040516106ff9190613b35565b60405180910390f35b34801561071457600080fd5b5061071d612144565b60405161072a9190613806565b60405180910390f35b34801561073f57600080fd5b50610748612149565b6040516107559190613b35565b60405180910390f35b34801561076a57600080fd5b5061077361216d565b6040516107809190613b35565b60405180910390f35b62ed4e0081565b606060008080549050141561082d57600080548060200260200160405190810160405280929190818152602001828054801561082157602002820191906000526020600020905b8160009054906101000a900473ffffffffffffffffffffffffffffffffffffffff1673ffffffffffffffffffffffffffffffffffffffff16815260200190600101908083116107d7575b50505050509050610d9d565b60008054905082106108425760008054905091505b606060008054905067ffffffffffffffff8111801561086057600080fd5b5060405190808252806020026020018201604052801561088f5781602001602082028036833780820191505090505b50905060008090505b60008054905081101561093057600081815481106108b257fe5b9060005260206000200160009054906101000a900473ffffffffffffffffffffffffffffffffffffffff168282815181106108e957fe5b602002602001019073ffffffffffffffffffffffffffffffffffffffff16908173ffffffffffffffffffffffffffffffffffffffff16815250508080600101915050610898565b5060608367ffffffffffffffff8111801561094a57600080fd5b506040519080825280602002602001820160405280156109795781602001602082028036833780820191505090505b5090506109bc6040518060400160405280600d81526020017f66756e64206c656e6774683a20000000000000000000000000000000000000008152508351612172565b60008090505b8251811015610ccb5760008090505b60018285510303811015610cbd578360018201815181106109ee57fe5b602002602001015173ffffffffffffffffffffffffffffffffffffffff1631848281518110610a1957fe5b602002602001015173ffffffffffffffffffffffffffffffffffffffff16311180610bea575060036000856001840181518110610a5257fe5b602002602001015173ffffffffffffffffffffffffffffffffffffffff16636209ec2d6040518163ffffffff1660e01b815260040160206040518083038186803b158015610a9f57600080fd5b505afa158015610ab3573d6000803e3d6000fd5b505050506040513d601f19601f82011682018060405250810190610ad79190612c80565b73ffffffffffffffffffffffffffffffffffffffff1673ffffffffffffffffffffffffffffffffffffffff1681526020019081526020016000206001015460036000868481518110610b2557fe5b602002602001015173ffffffffffffffffffffffffffffffffffffffff16636209ec2d6040518163ffffffff1660e01b815260040160206040518083038186803b158015610b7257600080fd5b505afa158015610b86573d6000803e3d6000fd5b505050506040513d601f19601f82011682018060405250810190610baa9190612c80565b73ffffffffffffffffffffffffffffffffffffffff1673ffffffffffffffffffffffffffffffffffffffff16815260200190815260200160002060010154115b15610cb0576000846001830181518110610c0057fe5b60200260200101519050848281518110610c1657fe5b6020026020010151856001840181518110610c2d57fe5b602002602001019073ffffffffffffffffffffffffffffffffffffffff16908173ffffffffffffffffffffffffffffffffffffffff168152505080858381518110610c7457fe5b602002602001019073ffffffffffffffffffffffffffffffffffffffff16908173ffffffffffffffffffffffffffffffffffffffff1681525050505b80806001019150506109d1565b5080806001019150506109c2565b50610d0a6040518060400160405280600c81526020017f736f7274696e6720646f6e65000000000000000000000000000000000000000081525061220e565b6000600160008054905003905060008090505b85811015610d9557838281518110610d3157fe5b6020026020010151838281518110610d4557fe5b602002602001019073ffffffffffffffffffffffffffffffffffffffff16908173ffffffffffffffffffffffffffffffffffffffff16815250508180600190039250508080600101915050610d1d565b508193505050505b919050565b60606000805480602002602001604051908101604052809291908181526020018280548015610e2657602002820191906000526020600020905b8160009054906101000a900473ffffffffffffffffffffffffffffffffffffffff1673ffffffffffffffffffffffffffffffffffffffff1681526020019060010190808311610ddc575b5050505050905090565b606481565b601e81565b600047905090565b7f000000000000000000000000000000000000000000000000000000000000000081565b6201518081565b600a81565b6276a70081565b7f000000000000000000000000000000000000000000000000000000000000000081565b42600460003373ffffffffffffffffffffffffffffffffffffffff1673ffffffffffffffffffffffffffffffffffffffff168152602001908152602001600020541115610f1f576040517f08c379a0000000000000000000000000000000000000000000000000000000008152600401610f1690613873565b60405180910390fd5b60007f000000000000000000000000000000000000000000000000000000000000000073ffffffffffffffffffffffffffffffffffffffff166370a08231336040518263ffffffff1660e01b8152600401610f7a9190613778565b60206040518083038186803b158015610f9257600080fd5b505afa158015610fa6573d6000803e3d6000fd5b505050506040513d601f19601f82011682018060405250810190610fca9190612dc5565b1161100a576040517f08c379a0000000000000000000000000000000000000000000000000000000008152600401611001906139b3565b60405180910390fd5b600061101533611a86565b905061102d62093a80426122a790919063ffffffff16565b600460003373ffffffffffffffffffffffffffffffffffffffff1673ffffffffffffffffffffffffffffffffffffffff1681526020019081526020016000208190555060003373ffffffffffffffffffffffffffffffffffffffff168260405161109690613748565b60006040518083038185875af1925050503d80600081146110d3576040519150601f19603f3d011682016040523d82523d6000602084013e6110d8565b606091505b505090508061111c576040517f08c379a000000000000000000000000000000000000000000000000000000000815260040161111390613a93565b60405180910390fd5b600460003373ffffffffffffffffffffffffffffffffffffffff1673ffffffffffffffffffffffffffffffffffffffff16815260200190815260200160002054823373ffffffffffffffffffffffffffffffffffffffff167f22eee7f02e36f8323e1e4f98d1b2002e1ec68523f572f475011a03969d292aa560405160405180910390a45050565b62093a8081565b60056020528060005260406000206000915054906101000a900460ff1681565b60036020528060005260406000206000915090508060000154908060010154908060020160009054906101000a900460ff16905083565b7f000000000000000000000000000000000000000000000000000000000000000081565b620d2f0081565b600a81565b6060600360008373ffffffffffffffffffffffffffffffffffffffff1673ffffffffffffffffffffffffffffffffffffffff16815260200190815260200160002060020160009054906101000a900460ff166112c3576040517f08c379a00000000000000000000000000000000000000000000000000000000081526004016112ba90613af3565b60405180910390fd5b600160008373ffffffffffffffffffffffffffffffffffffffff1673ffffffffffffffffffffffffffffffffffffffff16815260200190815260200160002080548060200260200160405190810160405280929190818152602001828054801561138257602002820191906000526020600020905b8160009054906101000a900473ffffffffffffffffffffffffffffffffffffffff1673ffffffffffffffffffffffffffffffffffffffff1681526020019060010190808311611338575b50505050509050919050565b60008686116113d2576040517f08c379a00000000000000000000000000000000000000000000000000000000081526004016113c990613993565b60405180910390fd5b7f0000000000000000000000000000000000000000000000000000000000000000861115801561142257507f00000000000000000000000000000000000000000000000000000000000000008710155b611461576040517f08c379a000000000000000000000000000000000000000000000000000000000815260040161145890613a73565b60405180910390fd5b6000841180156114845750611480600a876122fc90919063ffffffff16565b8411155b6114c3576040517f08c379a00000000000000000000000000000000000000000000000000000000081526004016114ba90613933565b60405180910390fd5b8634101580156114d35750853411155b611512576040517f08c379a000000000000000000000000000000000000000000000000000000000815260040161150990613a53565b60405180910390fd5b600185101580156115245750600a8511155b611563576040517f08c379a000000000000000000000000000000000000000000000000000000000815260040161155a90613ab3565b60405180910390fd5b6201518083101580156115795750620d2f008311155b6115b8576040517f08c379a00000000000000000000000000000000000000000000000000000000081526004016115af906138b3565b60405180910390fd5b60007f000000000000000000000000000000000000000000000000000000000000000073ffffffffffffffffffffffffffffffffffffffff1663c737cd9d346040518061016001604052808e73ffffffffffffffffffffffffffffffffffffffff1681526020017f000000000000000000000000000000000000000000000000000000000000000073ffffffffffffffffffffffffffffffffffffffff1681526020013073ffffffffffffffffffffffffffffffffffffffff1681526020018c81526020018b81526020018a81526020018981526020018881526020013373ffffffffffffffffffffffffffffffffffffffff1681526020018d8152602001878152506040518363ffffffff1660e01b81526004016116d79190613b13565b6020604051808303818588803b1580156116f057600080fd5b505af1158015611704573d6000803e3d6000fd5b50505050506040513d601f19601f820116820180604052508101906117299190612c57565b90506000819080600181540180825580915050600190039060005260206000200160009091909190916101000a81548173ffffffffffffffffffffffffffffffffffffffff021916908373ffffffffffffffffffffffffffffffffffffffff160217905550600160003373ffffffffffffffffffffffffffffffffffffffff1673ffffffffffffffffffffffffffffffffffffffff168152602001908152602001600020819080600181540180825580915050600190039060005260206000200160009091909190916101000a81548173ffffffffffffffffffffffffffffffffffffffff021916908373ffffffffffffffffffffffffffffffffffffffff1602179055506001600260008373ffffffffffffffffffffffffffffffffffffffff1673ffffffffffffffffffffffffffffffffffffffff16815260200190815260200160002060006101000a81548160ff021916908315150217905550600360003373ffffffffffffffffffffffffffffffffffffffff1673ffffffffffffffffffffffffffffffffffffffff16815260200190815260200160002060020160009054906101000a900460ff16611971576040518060600160405280600081526020016000815260200160011515815250600360003373ffffffffffffffffffffffffffffffffffffffff1673ffffffffffffffffffffffffffffffffffffffff168152602001908152602001600020600082015181600001556020820151816001015560408201518160020160006101000a81548160ff0219169083151502179055509050505b5098975050505050505050565b60026020528060005260406000206000915054906101000a900460ff1681565b6000600360008373ffffffffffffffffffffffffffffffffffffffff1673ffffffffffffffffffffffffffffffffffffffff16815260200190815260200160002060020160009054906101000a900460ff16611a2f576040517f08c379a0000000000000000000000000000000000000000000000000000000008152600401611a26906138f3565b60405180910390fd5b611a7a600360008473ffffffffffffffffffffffffffffffffffffffff1673ffffffffffffffffffffffffffffffffffffffff16815260200190815260200160002060000154612352565b9050919050565b600a81565b600080611c9c7f000000000000000000000000000000000000000000000000000000000000000073ffffffffffffffffffffffffffffffffffffffff166370a0823160006040518263ffffffff1660e01b8152600401611ae69190613778565b60206040518083038186803b158015611afe57600080fd5b505afa158015611b12573d6000803e3d6000fd5b505050506040513d601f19601f82011682018060405250810190611b369190612dc5565b611c8e7f000000000000000000000000000000000000000000000000000000000000000073ffffffffffffffffffffffffffffffffffffffff166370a08231306040518263ffffffff1660e01b8152600401611b929190613778565b60206040518083038186803b158015611baa57600080fd5b505afa158015611bbe573d6000803e3d6000fd5b505050506040513d601f19601f82011682018060405250810190611be29190612dc5565b7f000000000000000000000000000000000000000000000000000000000000000073ffffffffffffffffffffffffffffffffffffffff166318160ddd6040518163ffffffff1660e01b815260040160206040518083038186803b158015611c4857600080fd5b505afa158015611c5c573d6000803e3d6000fd5b505050506040513d601f19601f82011682018060405250810190611c809190612dc5565b61238690919063ffffffff16565b61238690919063ffffffff16565b9050611d517f000000000000000000000000000000000000000000000000000000000000000073ffffffffffffffffffffffffffffffffffffffff166370a08231856040518263ffffffff1660e01b8152600401611cfa919061375d565b60206040518083038186803b158015611d1257600080fd5b505afa158015611d26573d6000803e3d6000fd5b505050506040513d601f19601f82011682018060405250810190611d4a9190612dc5565b47836123d6565b915050919050565b600381565b600a81565b600260003373ffffffffffffffffffffffffffffffffffffffff1673ffffffffffffffffffffffffffffffffffffffff16815260200190815260200160002060009054906101000a900460ff16611def576040517f08c379a0000000000000000000000000000000000000000000000000000000008152600401611de690613973565b60405180910390fd5b6000339050428173ffffffffffffffffffffffffffffffffffffffff1663439f5ac26040518163ffffffff1660e01b815260040160206040518083038186803b158015611e3b57600080fd5b505afa158015611e4f573d6000803e3d6000fd5b505050506040513d601f19601f82011682018060405250810190611e739190612dc5565b108015611efa57508073ffffffffffffffffffffffffffffffffffffffff16634d820b9a6040518163ffffffff1660e01b815260040160206040518083038186803b158015611ec157600080fd5b505afa158015611ed5573d6000803e3d6000fd5b505050506040513d601f19601f82011682018060405250810190611ef99190612d73565b5b611f39576040517f08c379a0000000000000000000000000000000000000000000000000000000008152600401611f3090613a13565b60405180910390fd5b60008173ffffffffffffffffffffffffffffffffffffffff16636209ec2d6040518163ffffffff1660e01b815260040160206040518083038186803b158015611f8157600080fd5b505afa158015611f95573d6000803e3d6000fd5b505050506040513d601f19601f82011682018060405250810190611fb99190612c80565b90506000600360008373ffffffffffffffffffffffffffffffffffffffff1673ffffffffffffffffffffffffffffffffffffffff1681526020019081526020016000206000015490506120928373ffffffffffffffffffffffffffffffffffffffff16636da797c96040518163ffffffff1660e01b815260040160206040518083038186803b15801561204b57600080fd5b505afa15801561205f573d6000803e3d6000fd5b505050506040513d601f19601f820116820180604052508101906120839190612dc5565b826122a790919063ffffffff16565b600360008473ffffffffffffffffffffffffffffffffffffffff1673ffffffffffffffffffffffffffffffffffffffff168152602001908152602001600020600001819055506120e18261240b565b600360008473ffffffffffffffffffffffffffffffffffffffff1673ffffffffffffffffffffffffffffffffffffffff16815260200190815260200160002060010181905550505050565b60046020528060005260406000206000915090505481565b601481565b7f000000000000000000000000000000000000000000000000000000000000000081565b600181565b61220a8282604051602401612188929190613843565b6040516020818303038152906040527f9710a9d0000000000000000000000000000000000000000000000000000000007bffffffffffffffffffffffffffffffffffffffffffffffffffffffff19166020820180517bffffffffffffffffffffffffffffffffffffffffffffffffffffffff8381831617835250505050612864565b5050565b6122a4816040516024016122229190613821565b6040516020818303038152906040527f41304fac000000000000000000000000000000000000000000000000000000007bffffffffffffffffffffffffffffffffffffffffffffffffffffffff19166020820180517bffffffffffffffffffffffffffffffffffffffffffffffffffffffff8381831617835250505050612864565b50565b6000808284019050838110156122f2576040517f08c379a00000000000000000000000000000000000000000000000000000000081526004016122e9906138d3565b60405180910390fd5b8091505092915050565b6000808211612340576040517f08c379a000000000000000000000000000000000000000000000000000000000815260040161233790613953565b60405180910390fd5b81838161234957fe5b04905092915050565b60006276a70082101561236857600a9050612381565b62ed4e0082101561237c5760149050612381565b601e90505b919050565b6000828211156123cb576040517f08c379a00000000000000000000000000000000000000000000000000000000081526004016123c290613913565b60405180910390fd5b818303905092915050565b6000806123fe836123f0878761288d90919063ffffffff16565b6122fc90919063ffffffff16565b9050809150509392505050565b6000600360008373ffffffffffffffffffffffffffffffffffffffff1673ffffffffffffffffffffffffffffffffffffffff16815260200190815260200160002060020160009054906101000a900460ff1661249c576040517f08c379a000000000000000000000000000000000000000000000000000000000815260040161249390613893565b60405180910390fd5b6060600160008473ffffffffffffffffffffffffffffffffffffffff1673ffffffffffffffffffffffffffffffffffffffff16815260200190815260200160002080548060200260200160405190810160405280929190818152602001828054801561255d57602002820191906000526020600020905b8160009054906101000a900473ffffffffffffffffffffffffffffffffffffffff1673ffffffffffffffffffffffffffffffffffffffff1681526020019060010190808311612513575b5050505050905060008060008060008092509250925060008090505b84518110156127fd57600085828151811061259057fe5b602002602001015173ffffffffffffffffffffffffffffffffffffffff1663a1956e326040518163ffffffff1660e01b815260040160206040518083038186803b1580156125dd57600080fd5b505afa1580156125f1573d6000803e3d6000fd5b505050506040513d601f19601f820116820180604052508101906126159190612dc5565b146127f057838060010194505084818151811061262e57fe5b602002602001015173ffffffffffffffffffffffffffffffffffffffff166338bde7916040518163ffffffff1660e01b815260040160206040518083038186803b15801561267b57600080fd5b505afa15801561268f573d6000803e3d6000fd5b505050506040513d601f19601f820116820180604052508101906126b39190612dc5565b8582815181106126bf57fe5b602002602001015173ffffffffffffffffffffffffffffffffffffffff1663a1956e326040518163ffffffff1660e01b815260040160206040518083038186803b15801561270c57600080fd5b505afa158015612720573d6000803e3d6000fd5b505050506040513d601f19601f820116820180604052508101906127449190612dc5565b11612750576000612753565b60015b60ff168301925084818151811061276657fe5b602002602001015173ffffffffffffffffffffffffffffffffffffffff1663a1956e326040518163ffffffff1660e01b815260040160206040518083038186803b1580156127b357600080fd5b505afa1580156127c7573d6000803e3d6000fd5b505050506040513d601f19601f820116820180604052508101906127eb9190612dc5565b820191505b8080600101915050612579565b50600061280a83856128fd565b90506128586128246103e8856122fc90919063ffffffff16565b61284a61283b600a866122fc90919063ffffffff16565b846122a790919063ffffffff16565b6122a790919063ffffffff16565b95505050505050919050565b60008151905060006a636f6e736f6c652e6c6f679050602083016000808483855afa5050505050565b6000808314156128a057600090506128f7565b60008284029050828482816128b157fe5b04146128f2576040517f08c379a00000000000000000000000000000000000000000000000000000000081526004016128e9906139f3565b60405180910390fd5b809150505b92915050565b600061292782612919620186a08661292f90919063ffffffff16565b612a2d90919063ffffffff16565b905092915050565b6000808314156129425760009050612a27565b7fffffffffffffffffffffffffffffffffffffffffffffffffffffffffffffffff8314801561299057507f800000000000000000000000000000000000000000000000000000000000000082145b156129d0576040517f08c379a00000000000000000000000000000000000000000000000000000000081526004016129c790613a33565b60405180910390fd5b60008284029050828482816129e157fe5b0514612a22576040517f08c379a0000000000000000000000000000000000000000000000000000000008152600401612a1990613a33565b60405180910390fd5b809150505b92915050565b600080821415612a72576040517f08c379a0000000000000000000000000000000000000000000000000000000008152600401612a6990613ad3565b60405180910390fd5b7fffffffffffffffffffffffffffffffffffffffffffffffffffffffffffffffff82148015612ac057507f800000000000000000000000000000000000000000000000000000000000000083145b15612b00576040517f08c379a0000000000000000000000000000000000000000000000000000000008152600401612af7906139d3565b60405180910390fd5b6000828481612b0b57fe5b0590508091505092915050565b600081359050612b2781613dbf565b92915050565b600081519050612b3c81613dbf565b92915050565b600081359050612b5181613dd6565b92915050565b600081519050612b6681613dd6565b92915050565b600082601f830112612b7d57600080fd5b8135612b90612b8b82613bb4565b613b87565b91508181835260208401935060208101905083856020840282011115612bb557600080fd5b60005b83811015612be55781612bcb8882612b42565b845260208401935060208301925050600181019050612bb8565b5050505092915050565b600081519050612bfe81613ded565b92915050565b600081359050612c1381613e04565b92915050565b600081519050612c2881613e04565b92915050565b600060208284031215612c4057600080fd5b6000612c4e84828501612b18565b91505092915050565b600060208284031215612c6957600080fd5b6000612c7784828501612b2d565b91505092915050565b600060208284031215612c9257600080fd5b6000612ca084828501612b57565b91505092915050565b600080600080600080600080610100898b031215612cc657600080fd5b6000612cd48b828c01612b42565b9850506020612ce58b828c01612c04565b9750506040612cf68b828c01612c04565b9650506060612d078b828c01612c04565b9550506080612d188b828c01612c04565b94505060a0612d298b828c01612c04565b93505060c0612d3a8b828c01612c04565b92505060e089013567ffffffffffffffff811115612d5757600080fd5b612d638b828c01612b6c565b9150509295985092959890939650565b600060208284031215612d8557600080fd5b6000612d9384828501612bef565b91505092915050565b600060208284031215612dae57600080fd5b6000612dbc84828501612c04565b91505092915050565b600060208284031215612dd757600080fd5b6000612de584828501612c19565b91505092915050565b6000612dfa8383612e2d565b60208301905092915050565b6000612e128383612f25565b60208301905092915050565b612e2781613cd9565b82525050565b612e3681613c87565b82525050565b612e4581613c75565b82525050565b6000612e5682613bfc565b612e608185613c37565b9350612e6b83613bdc565b8060005b83811015612e9c578151612e838882612dee565b9750612e8e83613c1d565b925050600181019050612e6f565b5085935050505092915050565b6000612eb482613c07565b612ebe8185613c48565b9350612ec983613bec565b8060005b83811015612efa578151612ee18882612e06565b9750612eec83613c2a565b925050600181019050612ecd565b5085935050505092915050565b612f1081613c99565b82525050565b612f1f81613ceb565b82525050565b612f2e81613d0f565b82525050565b612f3d81613d33565b82525050565b612f4c81613ca5565b82525050565b6000612f5d82613c12565b612f678185613c64565b9350612f77818560208601613d7b565b612f8081613dae565b840191505092915050565b6000612f98602183613c64565b91507f4572726f723a206e65787420617661696c61626c65206e6f742072656163686560008301527f64000000000000000000000000000000000000000000000000000000000000006020830152604082019050919050565b6000612ffe601783613c64565b91507f4d616e6167657220646f657374206e6f742065786973740000000000000000006000830152602082019050919050565b600061303e603983613c64565b91507f4d696e54696d65556e74696c6c46756e6453746172742076616c75652069732060008301527f6f757473696465207468652066756e64537461727420676170000000000000006020830152604082019050919050565b60006130a4601b83613c64565b91507f536166654d6174683a206164646974696f6e206f766572666c6f7700000000006000830152602082019050919050565b60006130e4601d83613c64565b91507f41646472657373206973206e6f7420612066756e64206d616e616765720000006000830152602082019050919050565b6000613124601e83613c64565b91507f536166654d6174683a207375627472616374696f6e206f766572666c6f7700006000830152602082019050919050565b6000613164601c83613c64565b91507f496e76616c6964206d696e696d616c4465706f736974416d6f756e74000000006000830152602082019050919050565b60006131a4601a83613c64565b91507f536166654d6174683a206469766973696f6e206279207a65726f0000000000006000830152602082019050919050565b60006131e4601c83613c64565b91507f43616c6c65722061646472657373206973206e6f7420612066756e64000000006000830152602082019050919050565b6000613224602583613c64565b91507f4861726420636170206d75737420626520626967676572207468616e20736f6660008301527f74206361700000000000000000000000000000000000000000000000000000006020830152604082019050919050565b600061328a602a83613c64565b91507f4572726f723a206d757374206f776e206546756e64546f6b656e20746f20636c60008301527f61696d20726577617264000000000000000000000000000000000000000000006020830152604082019050919050565b60006132f0602183613c64565b91507f5369676e6564536166654d6174683a206469766973696f6e206f766572666c6f60008301527f77000000000000000000000000000000000000000000000000000000000000006020830152604082019050919050565b6000613356602183613c64565b91507f536166654d6174683a206d756c7469706c69636174696f6e206f766572666c6f60008301527f77000000000000000000000000000000000000000000000000000000000000006020830152604082019050919050565b60006133bc601583613c64565b91507f46756e64206973206e6f7420636f6d706c6574656400000000000000000000006000830152602082019050919050565b60006133fc602783613c64565b91507f5369676e6564536166654d6174683a206d756c7469706c69636174696f6e206f60008301527f766572666c6f77000000000000000000000000000000000000000000000000006020830152604082019050919050565b6000613462601883613c64565b91507f76616c7565206973206f757473696465206f66206361707300000000000000006000830152602082019050919050565b60006134a2603383613c64565b91507f486172644361702076616c756573206973206f7574736964652074686520706c60008301527f6174666f726d2064656661756c742063617073000000000000000000000000006020830152604082019050919050565b6000613508600083613c59565b9150600082019050919050565b6000613522601d83613c64565b91507f4572726f723a2043616e6e6f74207769746864726177207265776172640000006000830152602082019050919050565b6000613562603083613c64565b91507f4d616e61676572206665652076616c7565206973206f7574736964652074686560008301527f206d616e616765722066656520676170000000000000000000000000000000006020830152604082019050919050565b60006135c8602083613c64565b91507f5369676e6564536166654d6174683a206469766973696f6e206279207a65726f6000830152602082019050919050565b6000613608601683613c64565b91507f4d616e6167657220646f6573206e6f74206578697374000000000000000000006000830152602082019050919050565b6000610160830160008301516136546000860182612e2d565b5060208301516136676020860182612e2d565b50604083015161367a6040860182612e2d565b50606083015161368d606086018261372a565b5060808301516136a0608086018261372a565b5060a08301516136b360a086018261372a565b5060c08301516136c660c086018261372a565b5060e08301516136d960e086018261372a565b506101008301516136ee610100860182612e2d565b5061012083015161370361012086018261372a565b5061014083015184820361014086015261371d8282612e4b565b9150508091505092915050565b61373381613ccf565b82525050565b61374281613ccf565b82525050565b6000613753826134fb565b9150819050919050565b60006020820190506137726000830184612e3c565b92915050565b600060208201905061378d6000830184612e1e565b92915050565b600060208201905081810360008301526137ad8184612ea9565b905092915050565b60006020820190506137ca6000830184612f07565b92915050565b60006020820190506137e56000830184612f16565b92915050565b60006020820190506138006000830184612f34565b92915050565b600060208201905061381b6000830184612f43565b92915050565b6000602082019050818103600083015261383b8184612f52565b905092915050565b6000604082019050818103600083015261385d8185612f52565b905061386c6020830184613739565b9392505050565b6000602082019050818103600083015261388c81612f8b565b9050919050565b600060208201905081810360008301526138ac81612ff1565b9050919050565b600060208201905081810360008301526138cc81613031565b9050919050565b600060208201905081810360008301526138ec81613097565b9050919050565b6000602082019050818103600083015261390c816130d7565b9050919050565b6000602082019050818103600083015261392c81613117565b9050919050565b6000602082019050818103600083015261394c81613157565b9050919050565b6000602082019050818103600083015261396c81613197565b9050919050565b6000602082019050818103600083015261398c816131d7565b9050919050565b600060208201905081810360008301526139ac81613217565b9050919050565b600060208201905081810360008301526139cc8161327d565b9050919050565b600060208201905081810360008301526139ec816132e3565b9050919050565b60006020820190508181036000830152613a0c81613349565b9050919050565b60006020820190508181036000830152613a2c816133af565b9050919050565b60006020820190508181036000830152613a4c816133ef565b9050919050565b60006020820190508181036000830152613a6c81613455565b9050919050565b60006020820190508181036000830152613a8c81613495565b9050919050565b60006020820190508181036000830152613aac81613515565b9050919050565b60006020820190508181036000830152613acc81613555565b9050919050565b60006020820190508181036000830152613aec816135bb565b9050919050565b60006020820190508181036000830152613b0c816135fb565b9050919050565b60006020820190508181036000830152613b2d818461363b565b905092915050565b6000602082019050613b4a6000830184613739565b92915050565b6000606082019050613b656000830186613739565b613b726020830185613739565b613b7f6040830184612f07565b949350505050565b6000604051905081810181811067ffffffffffffffff82111715613baa57600080fd5b8060405250919050565b600067ffffffffffffffff821115613bcb57600080fd5b602082029050602081019050919050565b6000819050602082019050919050565b6000819050602082019050919050565b600081519050919050565b600081519050919050565b600081519050919050565b6000602082019050919050565b6000602082019050919050565b600082825260208201905092915050565b600082825260208201905092915050565b600081905092915050565b600082825260208201905092915050565b6000613c8082613caf565b9050919050565b6000613c9282613caf565b9050919050565b60008115159050919050565b6000819050919050565b600073ffffffffffffffffffffffffffffffffffffffff82169050919050565b6000819050919050565b6000613ce482613d57565b9050919050565b6000613cf682613cfd565b9050919050565b6000613d0882613caf565b9050919050565b6000613d1a82613d21565b9050919050565b6000613d2c82613caf565b9050919050565b6000613d3e82613d45565b9050919050565b6000613d5082613caf565b9050919050565b6000613d6282613d69565b9050919050565b6000613d7482613caf565b9050919050565b60005b83811015613d99578082015181840152602081019050613d7e565b83811115613da8576000848401525b50505050565b6000601f19601f8301169050919050565b613dc881613c75565b8114613dd357600080fd5b50565b613ddf81613c87565b8114613dea57600080fd5b50565b613df681613c99565b8114613e0157600080fd5b50565b613e0d81613ccf565b8114613e1857600080fd5b5056fea26469706673582212207801a6da0f40cae942a2bc5cbdeb1596f67f61805d33250084b36eeb8bc5b39e64736f6c63430006060033",
  "linkReferences": {},
  "deployedLinkReferences": {}
}