{
  "_format": "hh-sol-artifact-1",
  "contractName": "EFundPlatform",
  "sourceName": "contracts/EFundPlatform.sol",
  "abi": [
    {
      "inputs": [
        {
          "internalType": "address",
          "name": "_fundFactory",
          "type": "address"
        },
        {
          "internalType": "address",
          "name": "_efundToken",
          "type": "address"
        },
        {
          "internalType": "uint256",
          "name": "_softCap",
          "type": "uint256"
        },
        {
          "internalType": "uint256",
          "name": "_hardCap",
          "type": "uint256"
        }
      ],
      "stateMutability": "nonpayable",
      "type": "constructor"
    },
    {
      "anonymous": false,
      "inputs": [
        {
          "indexed": true,
          "internalType": "address",
          "name": "recipient",
          "type": "address"
        },
        {
          "indexed": true,
          "internalType": "uint256",
          "name": "ethReceived",
          "type": "uint256"
        },
        {
          "indexed": true,
          "internalType": "uint256",
          "name": "nextAvailableClaimDate",
          "type": "uint256"
        }
      ],
      "name": "ClaimHolderRewardSuccessfully",
      "type": "event"
    },
    {
      "stateMutability": "payable",
      "type": "fallback"
    },
    {
      "inputs": [],
      "name": "bronzePeriodRewardPercentage",
      "outputs": [
        {
          "internalType": "int256",
          "name": "",
          "type": "int256"
        }
      ],
      "stateMutability": "view",
      "type": "function"
    },
    {
      "inputs": [
        {
          "internalType": "address",
          "name": "ofAddress",
          "type": "address"
        }
      ],
      "name": "calculateHolderReward",
      "outputs": [
        {
          "internalType": "uint256",
          "name": "reward",
          "type": "uint256"
        }
      ],
      "stateMutability": "view",
      "type": "function"
    },
    {
      "inputs": [
        {
          "internalType": "address",
          "name": "_address",
          "type": "address"
        }
      ],
      "name": "calculateManagerRewardPercentage",
      "outputs": [
        {
          "internalType": "int256",
          "name": "",
          "type": "int256"
        }
      ],
      "stateMutability": "view",
      "type": "function"
    },
    {
      "inputs": [],
      "name": "claimHolderReward",
      "outputs": [],
      "stateMutability": "nonpayable",
      "type": "function"
    },
    {
      "inputs": [],
      "name": "closeFund",
      "outputs": [],
      "stateMutability": "nonpayable",
      "type": "function"
    },
    {
      "inputs": [
        {
          "internalType": "address payable",
          "name": "_swapRouter",
          "type": "address"
        },
        {
          "internalType": "uint256",
          "name": "_fundDurationInMonths",
          "type": "uint256"
        },
        {
          "internalType": "uint256",
          "name": "_softCap",
          "type": "uint256"
        },
        {
          "internalType": "uint256",
          "name": "_hardCap",
          "type": "uint256"
        },
        {
          "internalType": "uint256",
          "name": "_profitFee",
          "type": "uint256"
        },
        {
          "internalType": "uint256",
          "name": "_minimalDepositAmount",
          "type": "uint256"
        },
        {
          "internalType": "uint256",
          "name": "_minTimeUntilFundStart",
          "type": "uint256"
        },
        {
          "internalType": "address payable[]",
          "name": "_allowedTokens",
          "type": "address[]"
        }
      ],
      "name": "createFund",
      "outputs": [
        {
          "internalType": "address",
          "name": "",
          "type": "address"
        }
      ],
      "stateMutability": "payable",
      "type": "function"
    },
    {
      "inputs": [],
      "name": "defaultFundFee",
      "outputs": [
        {
          "internalType": "int256",
          "name": "",
          "type": "int256"
        }
      ],
      "stateMutability": "view",
      "type": "function"
    },
    {
      "inputs": [],
      "name": "eFund",
      "outputs": [
        {
          "internalType": "contract IERC20",
          "name": "",
          "type": "address"
        }
      ],
      "stateMutability": "view",
      "type": "function"
    },
    {
      "inputs": [],
      "name": "fundFactory",
      "outputs": [
        {
          "internalType": "contract FundFactory",
          "name": "",
          "type": "address"
        }
      ],
      "stateMutability": "view",
      "type": "function"
    },
    {
      "inputs": [],
      "name": "getAllFunds",
      "outputs": [
        {
          "internalType": "contract HedgeFund[]",
          "name": "",
          "type": "address[]"
        }
      ],
      "stateMutability": "view",
      "type": "function"
    },
    {
      "inputs": [],
      "name": "getCurrentEthBalance",
      "outputs": [
        {
          "internalType": "uint256",
          "name": "",
          "type": "uint256"
        }
      ],
      "stateMutability": "view",
      "type": "function"
    },
    {
      "inputs": [],
      "name": "getPlatformData",
      "outputs": [
        {
          "internalType": "uint256",
          "name": "_softCap",
          "type": "uint256"
        },
        {
          "internalType": "uint256",
          "name": "_hardCap",
          "type": "uint256"
        },
        {
          "internalType": "uint256",
          "name": "_minimumTimeUntillFundStart",
          "type": "uint256"
        },
        {
          "internalType": "uint256",
          "name": "_maximumTimeUntillFundStart",
          "type": "uint256"
        },
        {
          "internalType": "uint256",
          "name": "_minimumProfitFee",
          "type": "uint256"
        },
        {
          "internalType": "uint256",
          "name": "_maximumProfitFee",
          "type": "uint256"
        }
      ],
      "stateMutability": "view",
      "type": "function"
    },
    {
      "inputs": [
        {
          "internalType": "address",
          "name": "manager",
          "type": "address"
        }
      ],
      "name": "getManagerFunds",
      "outputs": [
        {
          "internalType": "contract HedgeFund[]",
          "name": "",
          "type": "address[]"
        }
      ],
      "stateMutability": "view",
      "type": "function"
    },
    {
      "inputs": [
        {
          "internalType": "uint256",
          "name": "_topAmount",
          "type": "uint256"
        }
      ],
      "name": "getTopRelevantFunds",
      "outputs": [
        {
          "internalType": "contract HedgeFund[]",
          "name": "",
          "type": "address[]"
        }
      ],
      "stateMutability": "view",
      "type": "function"
    },
    {
      "inputs": [],
      "name": "goldPeriodRewardPercentage",
      "outputs": [
        {
          "internalType": "int256",
          "name": "",
          "type": "int256"
        }
      ],
      "stateMutability": "view",
      "type": "function"
    },
    {
      "inputs": [],
      "name": "goldPeriodStart",
      "outputs": [
        {
          "internalType": "uint256",
          "name": "",
          "type": "uint256"
        }
      ],
      "stateMutability": "view",
      "type": "function"
    },
    {
      "inputs": [],
      "name": "hardCap",
      "outputs": [
        {
          "internalType": "uint256",
          "name": "",
          "type": "uint256"
        }
      ],
      "stateMutability": "view",
      "type": "function"
    },
    {
      "inputs": [
        {
          "internalType": "address",
          "name": "",
          "type": "address"
        }
      ],
      "name": "isExcludedFromReward",
      "outputs": [
        {
          "internalType": "bool",
          "name": "",
          "type": "bool"
        }
      ],
      "stateMutability": "view",
      "type": "function"
    },
    {
      "inputs": [
        {
          "internalType": "address",
          "name": "",
          "type": "address"
        }
      ],
      "name": "isFund",
      "outputs": [
        {
          "internalType": "bool",
          "name": "",
          "type": "bool"
        }
      ],
      "stateMutability": "view",
      "type": "function"
    },
    {
      "inputs": [
        {
          "internalType": "address",
          "name": "",
          "type": "address"
        },
        {
          "internalType": "address",
          "name": "",
          "type": "address"
        }
      ],
      "name": "isInvestorOf",
      "outputs": [
        {
          "internalType": "bool",
          "name": "",
          "type": "bool"
        }
      ],
      "stateMutability": "view",
      "type": "function"
    },
    {
      "inputs": [
        {
          "internalType": "address",
          "name": "",
          "type": "address"
        }
      ],
      "name": "managerFundActivity",
      "outputs": [
        {
          "internalType": "uint256",
          "name": "fundActivityMonths",
          "type": "uint256"
        },
        {
          "internalType": "uint256",
          "name": "reputation",
          "type": "uint256"
        },
        {
          "internalType": "bool",
          "name": "isValue",
          "type": "bool"
        }
      ],
      "stateMutability": "view",
      "type": "function"
    },
    {
      "inputs": [],
      "name": "maximumMinimalDepositAmountFromHardCapPercentage",
      "outputs": [
        {
          "internalType": "uint256",
          "name": "",
          "type": "uint256"
        }
      ],
      "stateMutability": "view",
      "type": "function"
    },
    {
      "inputs": [],
      "name": "maximumProfitFee",
      "outputs": [
        {
          "internalType": "uint256",
          "name": "",
          "type": "uint256"
        }
      ],
      "stateMutability": "view",
      "type": "function"
    },
    {
      "inputs": [],
      "name": "maximumTimeUntillFundStart",
      "outputs": [
        {
          "internalType": "uint256",
          "name": "",
          "type": "uint256"
        }
      ],
      "stateMutability": "view",
      "type": "function"
    },
    {
      "inputs": [],
      "name": "minimumProfitFee",
      "outputs": [
        {
          "internalType": "uint256",
          "name": "",
          "type": "uint256"
        }
      ],
      "stateMutability": "view",
      "type": "function"
    },
    {
      "inputs": [],
      "name": "minimumTimeUntillFundStart",
      "outputs": [
        {
          "internalType": "uint256",
          "name": "",
          "type": "uint256"
        }
      ],
      "stateMutability": "view",
      "type": "function"
    },
    {
      "inputs": [
        {
          "internalType": "address",
          "name": "",
          "type": "address"
        }
      ],
      "name": "nextAvailableRewardClaimDate",
      "outputs": [
        {
          "internalType": "uint256",
          "name": "",
          "type": "uint256"
        }
      ],
      "stateMutability": "view",
      "type": "function"
    },
    {
      "inputs": [],
      "name": "noProfitFundFee",
      "outputs": [
        {
          "internalType": "int256",
          "name": "",
          "type": "int256"
        }
      ],
      "stateMutability": "view",
      "type": "function"
    },
    {
      "inputs": [
        {
          "internalType": "address",
          "name": "_depositorAddress",
          "type": "address"
        }
      ],
      "name": "onDepositMade",
      "outputs": [],
      "stateMutability": "nonpayable",
      "type": "function"
    },
    {
      "inputs": [],
      "name": "percentageBase",
      "outputs": [
        {
          "internalType": "uint256",
          "name": "",
          "type": "uint256"
        }
      ],
      "stateMutability": "view",
      "type": "function"
    },
    {
      "inputs": [],
      "name": "rewardCycleBlock",
      "outputs": [
        {
          "internalType": "uint256",
          "name": "",
          "type": "uint256"
        }
      ],
      "stateMutability": "view",
      "type": "function"
    },
    {
      "inputs": [],
      "name": "silverPeriodRewardPercentage",
      "outputs": [
        {
          "internalType": "int256",
          "name": "",
          "type": "int256"
        }
      ],
      "stateMutability": "view",
      "type": "function"
    },
    {
      "inputs": [],
      "name": "silverPeriodStart",
      "outputs": [
        {
          "internalType": "uint256",
          "name": "",
          "type": "uint256"
        }
      ],
      "stateMutability": "view",
      "type": "function"
    },
    {
      "inputs": [],
      "name": "softCap",
      "outputs": [
        {
          "internalType": "uint256",
          "name": "",
          "type": "uint256"
        }
      ],
      "stateMutability": "view",
      "type": "function"
    },
    {
      "stateMutability": "payable",
      "type": "receive"
    }
  ],
  "bytecode": "0x6101006040523480156200001257600080fd5b50604051620046bb380380620046bb833981810160405281019062000038919062000219565b600073ffffffffffffffffffffffffffffffffffffffff168473ffffffffffffffffffffffffffffffffffffffff161415620000ab576040517f08c379a0000000000000000000000000000000000000000000000000000000008152600401620000a290620003bd565b60405180910390fd5b600073ffffffffffffffffffffffffffffffffffffffff168373ffffffffffffffffffffffffffffffffffffffff1614156200011e576040517f08c379a00000000000000000000000000000000000000000000000000000000081526004016200011590620003df565b60405180910390fd5b81811162000163576040517f08c379a00000000000000000000000000000000000000000000000000000000081526004016200015a9062000401565b60405180910390fd5b8060e081815250508160c081815250508373ffffffffffffffffffffffffffffffffffffffff1660808173ffffffffffffffffffffffffffffffffffffffff1660601b815250508273ffffffffffffffffffffffffffffffffffffffff1660a08173ffffffffffffffffffffffffffffffffffffffff1660601b8152505050505050620004a6565b600081519050620001fc8162000472565b92915050565b60008151905062000213816200048c565b92915050565b600080600080608085870312156200023057600080fd5b60006200024087828801620001eb565b94505060206200025387828801620001eb565b9350506040620002668782880162000202565b9250506060620002798782880162000202565b91505092959194509250565b60006200029460248362000423565b91507f496e76616c69642066756e64466163746f727920616464726573732070726f7660008301527f69646564000000000000000000000000000000000000000000000000000000006020830152604082019050919050565b6000620002fc60248362000423565b91507f496e76616c6964206546756e6420746f6b656e20616464726573732070726f7660008301527f69646564000000000000000000000000000000000000000000000000000000006020830152604082019050919050565b60006200036460258362000423565b91507f4861726420636170206d75737420626520626967676572207468616e20736f6660008301527f74206361700000000000000000000000000000000000000000000000000000006020830152604082019050919050565b60006020820190508181036000830152620003d88162000285565b9050919050565b60006020820190508181036000830152620003fa81620002ed565b9050919050565b600060208201905081810360008301526200041c8162000355565b9050919050565b600082825260208201905092915050565b6000620004418262000448565b9050919050565b600073ffffffffffffffffffffffffffffffffffffffff82169050919050565b6000819050919050565b6200047d8162000434565b81146200048957600080fd5b50565b620004978162000468565b8114620004a357600080fd5b50565b60805160601c60a05160601c60c05160e0516141ac6200050f6000398061145052806121fc525080611280528061147b525080610ef75280610f9f528061169d5280611b3f5280611bec5280611c955280611d54525080610ec0528061163852506141ac6000f3fe6080604052600436106101f25760003560e01c8063941e041c1161010d578063d0b4fa05116100a0578063f4817d6d1161006f578063f4817d6d1461071e578063f61dc9e51461075b578063fb86a40414610786578063fc8fc797146107b1578063fd56b302146107dc576101f9565b8063d0b4fa0514610674578063d10d51a2146106b1578063de145692146106dc578063e3a1c6fe14610707576101f9565b8063c7153b89116100dc578063c7153b8914610592578063ca5b42cf146105cf578063ca8f4ae81461060c578063cc9bc68b14610649576101f9565b8063941e041c146104cf578063a1ef85dc146104fa578063b0c72e9014610525578063b2c50b5314610562576101f9565b806359b6f2e6116101855780637217f4bc116101545780637217f4bc146103fd57806388f82020146104285780638c50078714610465578063906a26e0146104a4576101f9565b806359b6f2e6146103655780635c81928114610390578063611b5322146103bb57806365700481146103e6576101f9565b806326a3b51f116101c157806326a3b51f146102b95780632ed6f71c146102e45780633dea9e661461030f57806344e8bc7d1461033a576101f9565b806308b89603146101fb5780631868b729146102265780631c69b4641461026357806322ab155e1461028e576101f9565b366101f957005b005b34801561020757600080fd5b50610210610805565b60405161021d9190613e90565b60405180910390f35b34801561023257600080fd5b5061024d600480360381019061024891906130e2565b61080c565b60405161025a9190613aee565b60405180910390f35b34801561026f57600080fd5b50610278610e1e565b6040516102859190613aee565b60405180910390f35b34801561029a57600080fd5b506102a3610eac565b6040516102b09190613e90565b60405180910390f35b3480156102c557600080fd5b506102ce610eb1565b6040516102db9190613b61565b60405180910390f35b3480156102f057600080fd5b506102f9610eb6565b6040516103069190613e90565b60405180910390f35b34801561031b57600080fd5b50610324610ebe565b6040516103319190613b2b565b60405180910390f35b34801561034657600080fd5b5061034f610ee2565b60405161035c9190613e90565b60405180910390f35b34801561037157600080fd5b5061037a610ee9565b6040516103879190613b61565b60405180910390f35b34801561039c57600080fd5b506103a5610eee565b6040516103b29190613e90565b60405180910390f35b3480156103c757600080fd5b506103d0610ef5565b6040516103dd9190613b46565b60405180910390f35b3480156103f257600080fd5b506103fb610f19565b005b34801561040957600080fd5b50610412611220565b60405161041f9190613e90565b60405180910390f35b34801561043457600080fd5b5061044f600480360381019061044a9190612f38565b611227565b60405161045c9190613b10565b60405180910390f35b34801561047157600080fd5b5061048c60048036038101906104879190612f38565b611247565b60405161049b93929190613eab565b60405180910390f35b3480156104b057600080fd5b506104b961127e565b6040516104c69190613e90565b60405180910390f35b3480156104db57600080fd5b506104e46112a2565b6040516104f19190613e90565b60405180910390f35b34801561050657600080fd5b5061050f6112a9565b60405161051c9190613e90565b60405180910390f35b34801561053157600080fd5b5061054c60048036038101906105479190612f38565b6112ae565b6040516105599190613aee565b60405180910390f35b61057c60048036038101906105779190612fb3565b61140a565b6040516105899190613ab8565b60405180910390f35b34801561059e57600080fd5b506105b960048036038101906105b49190612f38565b611a00565b6040516105c69190613b10565b60405180910390f35b3480156105db57600080fd5b506105f660048036038101906105f1919061307d565b611a20565b6040516106039190613b10565b60405180910390f35b34801561061857600080fd5b50610633600480360381019061062e9190612f38565b611a4f565b6040516106409190613b61565b60405180910390f35b34801561065557600080fd5b5061065e611b32565b60405161066b9190613e90565b60405180910390f35b34801561068057600080fd5b5061069b60048036038101906106969190612f38565b611b37565b6040516106a89190613e90565b60405180910390f35b3480156106bd57600080fd5b506106c6611e0a565b6040516106d39190613b61565b60405180910390f35b3480156106e857600080fd5b506106f1611e0f565b6040516106fe9190613b61565b60405180910390f35b34801561071357600080fd5b5061071c611e14565b005b34801561072a57600080fd5b5061074560048036038101906107409190612f38565b6121dd565b6040516107529190613e90565b60405180910390f35b34801561076757600080fd5b506107706121f5565b60405161077d9190613b61565b60405180910390f35b34801561079257600080fd5b5061079b6121fa565b6040516107a89190613e90565b60405180910390f35b3480156107bd57600080fd5b506107c661221e565b6040516107d39190613e90565b60405180910390f35b3480156107e857600080fd5b5061080360048036038101906107fe9190612f38565b612223565b005b62ed4e0081565b60606000808054905014156108a957600080548060200260200160405190810160405280929190818152602001828054801561089d57602002820191906000526020600020905b8160009054906101000a900473ffffffffffffffffffffffffffffffffffffffff1673ffffffffffffffffffffffffffffffffffffffff1681526020019060010190808311610853575b50505050509050610e19565b60008054905082106108be5760008054905091505b606060008054905067ffffffffffffffff811180156108dc57600080fd5b5060405190808252806020026020018201604052801561090b5781602001602082028036833780820191505090505b50905060008090505b6000805490508110156109ac576000818154811061092e57fe5b9060005260206000200160009054906101000a900473ffffffffffffffffffffffffffffffffffffffff1682828151811061096557fe5b602002602001019073ffffffffffffffffffffffffffffffffffffffff16908173ffffffffffffffffffffffffffffffffffffffff16815250508080600101915050610914565b5060608367ffffffffffffffff811180156109c657600080fd5b506040519080825280602002602001820160405280156109f55781602001602082028036833780820191505090505b509050610a386040518060400160405280600d81526020017f66756e64206c656e6774683a2000000000000000000000000000000000000000815250835161247c565b60008090505b8251811015610d475760008090505b60018285510303811015610d3957836001820181518110610a6a57fe5b602002602001015173ffffffffffffffffffffffffffffffffffffffff1631848281518110610a9557fe5b602002602001015173ffffffffffffffffffffffffffffffffffffffff16311180610c66575060046000856001840181518110610ace57fe5b602002602001015173ffffffffffffffffffffffffffffffffffffffff16636209ec2d6040518163ffffffff1660e01b815260040160206040518083038186803b158015610b1b57600080fd5b505afa158015610b2f573d6000803e3d6000fd5b505050506040513d601f19601f82011682018060405250810190610b539190612f8a565b73ffffffffffffffffffffffffffffffffffffffff1673ffffffffffffffffffffffffffffffffffffffff1681526020019081526020016000206001015460046000868481518110610ba157fe5b602002602001015173ffffffffffffffffffffffffffffffffffffffff16636209ec2d6040518163ffffffff1660e01b815260040160206040518083038186803b158015610bee57600080fd5b505afa158015610c02573d6000803e3d6000fd5b505050506040513d601f19601f82011682018060405250810190610c269190612f8a565b73ffffffffffffffffffffffffffffffffffffffff1673ffffffffffffffffffffffffffffffffffffffff16815260200190815260200160002060010154115b15610d2c576000846001830181518110610c7c57fe5b60200260200101519050848281518110610c9257fe5b6020026020010151856001840181518110610ca957fe5b602002602001019073ffffffffffffffffffffffffffffffffffffffff16908173ffffffffffffffffffffffffffffffffffffffff168152505080858381518110610cf057fe5b602002602001019073ffffffffffffffffffffffffffffffffffffffff16908173ffffffffffffffffffffffffffffffffffffffff1681525050505b8080600101915050610a4d565b508080600101915050610a3e565b50610d866040518060400160405280600c81526020017f736f7274696e6720646f6e650000000000000000000000000000000000000000815250612518565b6000600160008054905003905060008090505b85811015610e1157838281518110610dad57fe5b6020026020010151838281518110610dc157fe5b602002602001019073ffffffffffffffffffffffffffffffffffffffff16908173ffffffffffffffffffffffffffffffffffffffff16815250508180600190039250508080600101915050610d99565b508193505050505b919050565b60606000805480602002602001604051908101604052809291908181526020018280548015610ea257602002820191906000526020600020905b8160009054906101000a900473ffffffffffffffffffffffffffffffffffffffff1673ffffffffffffffffffffffffffffffffffffffff1681526020019060010190808311610e58575b5050505050905090565b606481565b601e81565b600047905090565b7f000000000000000000000000000000000000000000000000000000000000000081565b6201518081565b600a81565b6276a70081565b7f000000000000000000000000000000000000000000000000000000000000000081565b42600660003373ffffffffffffffffffffffffffffffffffffffff1673ffffffffffffffffffffffffffffffffffffffff168152602001908152602001600020541115610f9b576040517f08c379a0000000000000000000000000000000000000000000000000000000008152600401610f9290613bce565b60405180910390fd5b60007f000000000000000000000000000000000000000000000000000000000000000073ffffffffffffffffffffffffffffffffffffffff166370a08231336040518263ffffffff1660e01b8152600401610ff69190613ad3565b60206040518083038186803b15801561100e57600080fd5b505afa158015611022573d6000803e3d6000fd5b505050506040513d601f19601f82011682018060405250810190611046919061310b565b11611086576040517f08c379a000000000000000000000000000000000000000000000000000000000815260040161107d90613d0e565b60405180910390fd5b600061109133611b37565b90506110a962093a80426125b190919063ffffffff16565b600660003373ffffffffffffffffffffffffffffffffffffffff1673ffffffffffffffffffffffffffffffffffffffff1681526020019081526020016000208190555060003373ffffffffffffffffffffffffffffffffffffffff168260405161111290613aa3565b60006040518083038185875af1925050503d806000811461114f576040519150601f19603f3d011682016040523d82523d6000602084013e611154565b606091505b5050905080611198576040517f08c379a000000000000000000000000000000000000000000000000000000000815260040161118f90613dee565b60405180910390fd5b600660003373ffffffffffffffffffffffffffffffffffffffff1673ffffffffffffffffffffffffffffffffffffffff16815260200190815260200160002054823373ffffffffffffffffffffffffffffffffffffffff167f22eee7f02e36f8323e1e4f98d1b2002e1ec68523f572f475011a03969d292aa560405160405180910390a45050565b62093a8081565b60076020528060005260406000206000915054906101000a900460ff1681565b60046020528060005260406000206000915090508060000154908060010154908060020160009054906101000a900460ff16905083565b7f000000000000000000000000000000000000000000000000000000000000000081565b620d2f0081565b600a81565b6060600460008373ffffffffffffffffffffffffffffffffffffffff1673ffffffffffffffffffffffffffffffffffffffff16815260200190815260200160002060020160009054906101000a900460ff1661133f576040517f08c379a000000000000000000000000000000000000000000000000000000000815260040161133690613e4e565b60405180910390fd5b600160008373ffffffffffffffffffffffffffffffffffffffff1673ffffffffffffffffffffffffffffffffffffffff1681526020019081526020016000208054806020026020016040519081016040528092919081815260200182805480156113fe57602002820191906000526020600020905b8160009054906101000a900473ffffffffffffffffffffffffffffffffffffffff1673ffffffffffffffffffffffffffffffffffffffff16815260200190600101908083116113b4575b50505050509050919050565b600086861161144e576040517f08c379a000000000000000000000000000000000000000000000000000000000815260040161144590613cee565b60405180910390fd5b7f0000000000000000000000000000000000000000000000000000000000000000861115801561149e57507f00000000000000000000000000000000000000000000000000000000000000008710155b6114dd576040517f08c379a00000000000000000000000000000000000000000000000000000000081526004016114d490613dce565b60405180910390fd5b60008411801561150057506114fc600a8761260690919063ffffffff16565b8411155b61153f576040517f08c379a000000000000000000000000000000000000000000000000000000000815260040161153690613c8e565b60405180910390fd5b86341015801561154f5750853411155b61158e576040517f08c379a000000000000000000000000000000000000000000000000000000000815260040161158590613dae565b60405180910390fd5b600185101580156115a05750600a8511155b6115df576040517f08c379a00000000000000000000000000000000000000000000000000000000081526004016115d690613e0e565b60405180910390fd5b6201518083101580156115f55750620d2f008311155b611634576040517f08c379a000000000000000000000000000000000000000000000000000000000815260040161162b90613c0e565b60405180910390fd5b60007f000000000000000000000000000000000000000000000000000000000000000073ffffffffffffffffffffffffffffffffffffffff16637072997d346040518061018001604052808e73ffffffffffffffffffffffffffffffffffffffff1681526020017f000000000000000000000000000000000000000000000000000000000000000073ffffffffffffffffffffffffffffffffffffffff1681526020013073ffffffffffffffffffffffffffffffffffffffff1681526020018c81526020018b81526020018a81526020018981526020018881526020013373ffffffffffffffffffffffffffffffffffffffff1681526020018d8152602001348152602001878152506040518363ffffffff1660e01b81526004016117599190613e6e565b6020604051808303818588803b15801561177257600080fd5b505af1158015611786573d6000803e3d6000fd5b50505050506040513d601f19601f820116820180604052508101906117ab9190612f61565b90506000819080600181540180825580915050600190039060005260206000200160009091909190916101000a81548173ffffffffffffffffffffffffffffffffffffffff021916908373ffffffffffffffffffffffffffffffffffffffff160217905550600160003373ffffffffffffffffffffffffffffffffffffffff1673ffffffffffffffffffffffffffffffffffffffff168152602001908152602001600020819080600181540180825580915050600190039060005260206000200160009091909190916101000a81548173ffffffffffffffffffffffffffffffffffffffff021916908373ffffffffffffffffffffffffffffffffffffffff1602179055506001600360008373ffffffffffffffffffffffffffffffffffffffff1673ffffffffffffffffffffffffffffffffffffffff16815260200190815260200160002060006101000a81548160ff021916908315150217905550600460003373ffffffffffffffffffffffffffffffffffffffff1673ffffffffffffffffffffffffffffffffffffffff16815260200190815260200160002060020160009054906101000a900460ff166119f3576040518060600160405280600081526020016000815260200160011515815250600460003373ffffffffffffffffffffffffffffffffffffffff1673ffffffffffffffffffffffffffffffffffffffff168152602001908152602001600020600082015181600001556020820151816001015560408201518160020160006101000a81548160ff0219169083151502179055509050505b5098975050505050505050565b60036020528060005260406000206000915054906101000a900460ff1681565b60056020528160005260406000206020528060005260406000206000915091509054906101000a900460ff1681565b6000600460008373ffffffffffffffffffffffffffffffffffffffff1673ffffffffffffffffffffffffffffffffffffffff16815260200190815260200160002060020160009054906101000a900460ff16611ae0576040517f08c379a0000000000000000000000000000000000000000000000000000000008152600401611ad790613c4e565b60405180910390fd5b611b2b600460008473ffffffffffffffffffffffffffffffffffffffff1673ffffffffffffffffffffffffffffffffffffffff1681526020019081526020016000206000015461265c565b9050919050565b600a81565b600080611d4d7f000000000000000000000000000000000000000000000000000000000000000073ffffffffffffffffffffffffffffffffffffffff166370a0823160006040518263ffffffff1660e01b8152600401611b979190613ad3565b60206040518083038186803b158015611baf57600080fd5b505afa158015611bc3573d6000803e3d6000fd5b505050506040513d601f19601f82011682018060405250810190611be7919061310b565b611d3f7f000000000000000000000000000000000000000000000000000000000000000073ffffffffffffffffffffffffffffffffffffffff166370a08231306040518263ffffffff1660e01b8152600401611c439190613ad3565b60206040518083038186803b158015611c5b57600080fd5b505afa158015611c6f573d6000803e3d6000fd5b505050506040513d601f19601f82011682018060405250810190611c93919061310b565b7f000000000000000000000000000000000000000000000000000000000000000073ffffffffffffffffffffffffffffffffffffffff166318160ddd6040518163ffffffff1660e01b815260040160206040518083038186803b158015611cf957600080fd5b505afa158015611d0d573d6000803e3d6000fd5b505050506040513d601f19601f82011682018060405250810190611d31919061310b565b61269090919063ffffffff16565b61269090919063ffffffff16565b9050611e027f000000000000000000000000000000000000000000000000000000000000000073ffffffffffffffffffffffffffffffffffffffff166370a08231856040518263ffffffff1660e01b8152600401611dab9190613ab8565b60206040518083038186803b158015611dc357600080fd5b505afa158015611dd7573d6000803e3d6000fd5b505050506040513d601f19601f82011682018060405250810190611dfb919061310b565b47836126e0565b915050919050565b600381565b600a81565b600360003373ffffffffffffffffffffffffffffffffffffffff1673ffffffffffffffffffffffffffffffffffffffff16815260200190815260200160002060009054906101000a900460ff16611ea0576040517f08c379a0000000000000000000000000000000000000000000000000000000008152600401611e9790613cce565b60405180910390fd5b6000339050428173ffffffffffffffffffffffffffffffffffffffff1663439f5ac26040518163ffffffff1660e01b815260040160206040518083038186803b158015611eec57600080fd5b505afa158015611f00573d6000803e3d6000fd5b505050506040513d601f19601f82011682018060405250810190611f24919061310b565b108015611fab57508073ffffffffffffffffffffffffffffffffffffffff16634d820b9a6040518163ffffffff1660e01b815260040160206040518083038186803b158015611f7257600080fd5b505afa158015611f86573d6000803e3d6000fd5b505050506040513d601f19601f82011682018060405250810190611faa91906130b9565b5b611fea576040517f08c379a0000000000000000000000000000000000000000000000000000000008152600401611fe190613d6e565b60405180910390fd5b60008173ffffffffffffffffffffffffffffffffffffffff16636209ec2d6040518163ffffffff1660e01b815260040160206040518083038186803b15801561203257600080fd5b505afa158015612046573d6000803e3d6000fd5b505050506040513d601f19601f8201168201806040525081019061206a9190612f8a565b90506000600460008373ffffffffffffffffffffffffffffffffffffffff1673ffffffffffffffffffffffffffffffffffffffff1681526020019081526020016000206000015490506121438373ffffffffffffffffffffffffffffffffffffffff16636da797c96040518163ffffffff1660e01b815260040160206040518083038186803b1580156120fc57600080fd5b505afa158015612110573d6000803e3d6000fd5b505050506040513d601f19601f82011682018060405250810190612134919061310b565b826125b190919063ffffffff16565b600460008473ffffffffffffffffffffffffffffffffffffffff1673ffffffffffffffffffffffffffffffffffffffff1681526020019081526020016000206000018190555061219282612715565b600460008473ffffffffffffffffffffffffffffffffffffffff1673ffffffffffffffffffffffffffffffffffffffff16815260200190815260200160002060010181905550505050565b60066020528060005260406000206000915090505481565b601481565b7f000000000000000000000000000000000000000000000000000000000000000081565b600181565b600360003373ffffffffffffffffffffffffffffffffffffffff1673ffffffffffffffffffffffffffffffffffffffff16815260200190815260200160002060009054906101000a900460ff166122af576040517f08c379a00000000000000000000000000000000000000000000000000000000081526004016122a690613cce565b60405180910390fd5b600560008273ffffffffffffffffffffffffffffffffffffffff1673ffffffffffffffffffffffffffffffffffffffff16815260200190815260200160002060003373ffffffffffffffffffffffffffffffffffffffff1673ffffffffffffffffffffffffffffffffffffffff16815260200190815260200160002060009054906101000a900460ff161561234357612479565b6001600560008373ffffffffffffffffffffffffffffffffffffffff1673ffffffffffffffffffffffffffffffffffffffff16815260200190815260200160002060003373ffffffffffffffffffffffffffffffffffffffff1673ffffffffffffffffffffffffffffffffffffffff16815260200190815260200160002060006101000a81548160ff021916908315150217905550600260008273ffffffffffffffffffffffffffffffffffffffff1673ffffffffffffffffffffffffffffffffffffffff168152602001908152602001600020339080600181540180825580915050600190039060005260206000200160009091909190916101000a81548173ffffffffffffffffffffffffffffffffffffffff021916908373ffffffffffffffffffffffffffffffffffffffff1602179055505b50565b6125148282604051602401612492929190613b9e565b6040516020818303038152906040527f9710a9d0000000000000000000000000000000000000000000000000000000007bffffffffffffffffffffffffffffffffffffffffffffffffffffffff19166020820180517bffffffffffffffffffffffffffffffffffffffffffffffffffffffff8381831617835250505050612b6e565b5050565b6125ae8160405160240161252c9190613b7c565b6040516020818303038152906040527f41304fac000000000000000000000000000000000000000000000000000000007bffffffffffffffffffffffffffffffffffffffffffffffffffffffff19166020820180517bffffffffffffffffffffffffffffffffffffffffffffffffffffffff8381831617835250505050612b6e565b50565b6000808284019050838110156125fc576040517f08c379a00000000000000000000000000000000000000000000000000000000081526004016125f390613c2e565b60405180910390fd5b8091505092915050565b600080821161264a576040517f08c379a000000000000000000000000000000000000000000000000000000000815260040161264190613cae565b60405180910390fd5b81838161265357fe5b04905092915050565b60006276a70082101561267257600a905061268b565b62ed4e00821015612686576014905061268b565b601e90505b919050565b6000828211156126d5576040517f08c379a00000000000000000000000000000000000000000000000000000000081526004016126cc90613c6e565b60405180910390fd5b818303905092915050565b600080612708836126fa8787612b9790919063ffffffff16565b61260690919063ffffffff16565b9050809150509392505050565b6000600460008373ffffffffffffffffffffffffffffffffffffffff1673ffffffffffffffffffffffffffffffffffffffff16815260200190815260200160002060020160009054906101000a900460ff166127a6576040517f08c379a000000000000000000000000000000000000000000000000000000000815260040161279d90613bee565b60405180910390fd5b6060600160008473ffffffffffffffffffffffffffffffffffffffff1673ffffffffffffffffffffffffffffffffffffffff16815260200190815260200160002080548060200260200160405190810160405280929190818152602001828054801561286757602002820191906000526020600020905b8160009054906101000a900473ffffffffffffffffffffffffffffffffffffffff1673ffffffffffffffffffffffffffffffffffffffff168152602001906001019080831161281d575b5050505050905060008060008060008092509250925060008090505b8451811015612b0757600085828151811061289a57fe5b602002602001015173ffffffffffffffffffffffffffffffffffffffff1663a1956e326040518163ffffffff1660e01b815260040160206040518083038186803b1580156128e757600080fd5b505afa1580156128fb573d6000803e3d6000fd5b505050506040513d601f19601f8201168201806040525081019061291f919061310b565b14612afa57838060010194505084818151811061293857fe5b602002602001015173ffffffffffffffffffffffffffffffffffffffff166338bde7916040518163ffffffff1660e01b815260040160206040518083038186803b15801561298557600080fd5b505afa158015612999573d6000803e3d6000fd5b505050506040513d601f19601f820116820180604052508101906129bd919061310b565b8582815181106129c957fe5b602002602001015173ffffffffffffffffffffffffffffffffffffffff1663a1956e326040518163ffffffff1660e01b815260040160206040518083038186803b158015612a1657600080fd5b505afa158015612a2a573d6000803e3d6000fd5b505050506040513d601f19601f82011682018060405250810190612a4e919061310b565b11612a5a576000612a5d565b60015b60ff1683019250848181518110612a7057fe5b602002602001015173ffffffffffffffffffffffffffffffffffffffff1663a1956e326040518163ffffffff1660e01b815260040160206040518083038186803b158015612abd57600080fd5b505afa158015612ad1573d6000803e3d6000fd5b505050506040513d601f19601f82011682018060405250810190612af5919061310b565b820191505b8080600101915050612883565b506000612b148385612c07565b9050612b62612b2e6103e88561260690919063ffffffff16565b612b54612b45600a8661260690919063ffffffff16565b846125b190919063ffffffff16565b6125b190919063ffffffff16565b95505050505050919050565b60008151905060006a636f6e736f6c652e6c6f679050602083016000808483855afa5050505050565b600080831415612baa5760009050612c01565b6000828402905082848281612bbb57fe5b0414612bfc576040517f08c379a0000000000000000000000000000000000000000000000000000000008152600401612bf390613d4e565b60405180910390fd5b809150505b92915050565b6000612c3182612c23620186a086612c3990919063ffffffff16565b612d3790919063ffffffff16565b905092915050565b600080831415612c4c5760009050612d31565b7fffffffffffffffffffffffffffffffffffffffffffffffffffffffffffffffff83148015612c9a57507f800000000000000000000000000000000000000000000000000000000000000082145b15612cda576040517f08c379a0000000000000000000000000000000000000000000000000000000008152600401612cd190613d8e565b60405180910390fd5b6000828402905082848281612ceb57fe5b0514612d2c576040517f08c379a0000000000000000000000000000000000000000000000000000000008152600401612d2390613d8e565b60405180910390fd5b809150505b92915050565b600080821415612d7c576040517f08c379a0000000000000000000000000000000000000000000000000000000008152600401612d7390613e2e565b60405180910390fd5b7fffffffffffffffffffffffffffffffffffffffffffffffffffffffffffffffff82148015612dca57507f800000000000000000000000000000000000000000000000000000000000000083145b15612e0a576040517f08c379a0000000000000000000000000000000000000000000000000000000008152600401612e0190613d2e565b60405180910390fd5b6000828481612e1557fe5b0590508091505092915050565b600081359050612e318161411a565b92915050565b600081519050612e468161411a565b92915050565b600081359050612e5b81614131565b92915050565b600081519050612e7081614131565b92915050565b600082601f830112612e8757600080fd5b8135612e9a612e9582613f0f565b613ee2565b91508181835260208401935060208101905083856020840282011115612ebf57600080fd5b60005b83811015612eef5781612ed58882612e4c565b845260208401935060208301925050600181019050612ec2565b5050505092915050565b600081519050612f0881614148565b92915050565b600081359050612f1d8161415f565b92915050565b600081519050612f328161415f565b92915050565b600060208284031215612f4a57600080fd5b6000612f5884828501612e22565b91505092915050565b600060208284031215612f7357600080fd5b6000612f8184828501612e37565b91505092915050565b600060208284031215612f9c57600080fd5b6000612faa84828501612e61565b91505092915050565b600080600080600080600080610100898b031215612fd057600080fd5b6000612fde8b828c01612e4c565b9850506020612fef8b828c01612f0e565b97505060406130008b828c01612f0e565b96505060606130118b828c01612f0e565b95505060806130228b828c01612f0e565b94505060a06130338b828c01612f0e565b93505060c06130448b828c01612f0e565b92505060e089013567ffffffffffffffff81111561306157600080fd5b61306d8b828c01612e76565b9150509295985092959890939650565b6000806040838503121561309057600080fd5b600061309e85828601612e22565b92505060206130af85828601612e22565b9150509250929050565b6000602082840312156130cb57600080fd5b60006130d984828501612ef9565b91505092915050565b6000602082840312156130f457600080fd5b600061310284828501612f0e565b91505092915050565b60006020828403121561311d57600080fd5b600061312b84828501612f23565b91505092915050565b60006131408383613173565b60208301905092915050565b6000613158838361326b565b60208301905092915050565b61316d81614034565b82525050565b61317c81613fe2565b82525050565b61318b81613fd0565b82525050565b600061319c82613f57565b6131a68185613f92565b93506131b183613f37565b8060005b838110156131e25781516131c98882613134565b97506131d483613f78565b9250506001810190506131b5565b5085935050505092915050565b60006131fa82613f62565b6132048185613fa3565b935061320f83613f47565b8060005b83811015613240578151613227888261314c565b975061323283613f85565b925050600181019050613213565b5085935050505092915050565b61325681613ff4565b82525050565b61326581614046565b82525050565b6132748161406a565b82525050565b6132838161408e565b82525050565b61329281614000565b82525050565b60006132a382613f6d565b6132ad8185613fbf565b93506132bd8185602086016140d6565b6132c681614109565b840191505092915050565b60006132de602183613fbf565b91507f4572726f723a206e65787420617661696c61626c65206e6f742072656163686560008301527f64000000000000000000000000000000000000000000000000000000000000006020830152604082019050919050565b6000613344601783613fbf565b91507f4d616e6167657220646f657374206e6f742065786973740000000000000000006000830152602082019050919050565b6000613384603983613fbf565b91507f4d696e54696d65556e74696c6c46756e6453746172742076616c75652069732060008301527f6f757473696465207468652066756e64537461727420676170000000000000006020830152604082019050919050565b60006133ea601b83613fbf565b91507f536166654d6174683a206164646974696f6e206f766572666c6f7700000000006000830152602082019050919050565b600061342a601d83613fbf565b91507f41646472657373206973206e6f7420612066756e64206d616e616765720000006000830152602082019050919050565b600061346a601e83613fbf565b91507f536166654d6174683a207375627472616374696f6e206f766572666c6f7700006000830152602082019050919050565b60006134aa601c83613fbf565b91507f496e76616c6964206d696e696d616c4465706f736974416d6f756e74000000006000830152602082019050919050565b60006134ea601a83613fbf565b91507f536166654d6174683a206469766973696f6e206279207a65726f0000000000006000830152602082019050919050565b600061352a601c83613fbf565b91507f43616c6c65722061646472657373206973206e6f7420612066756e64000000006000830152602082019050919050565b600061356a602583613fbf565b91507f4861726420636170206d75737420626520626967676572207468616e20736f6660008301527f74206361700000000000000000000000000000000000000000000000000000006020830152604082019050919050565b60006135d0602a83613fbf565b91507f4572726f723a206d757374206f776e206546756e64546f6b656e20746f20636c60008301527f61696d20726577617264000000000000000000000000000000000000000000006020830152604082019050919050565b6000613636602183613fbf565b91507f5369676e6564536166654d6174683a206469766973696f6e206f766572666c6f60008301527f77000000000000000000000000000000000000000000000000000000000000006020830152604082019050919050565b600061369c602183613fbf565b91507f536166654d6174683a206d756c7469706c69636174696f6e206f766572666c6f60008301527f77000000000000000000000000000000000000000000000000000000000000006020830152604082019050919050565b6000613702601583613fbf565b91507f46756e64206973206e6f7420636f6d706c6574656400000000000000000000006000830152602082019050919050565b6000613742602783613fbf565b91507f5369676e6564536166654d6174683a206d756c7469706c69636174696f6e206f60008301527f766572666c6f77000000000000000000000000000000000000000000000000006020830152604082019050919050565b60006137a8601883613fbf565b91507f76616c7565206973206f757473696465206f66206361707300000000000000006000830152602082019050919050565b60006137e8603383613fbf565b91507f486172644361702076616c756573206973206f7574736964652074686520706c60008301527f6174666f726d2064656661756c742063617073000000000000000000000000006020830152604082019050919050565b600061384e600083613fb4565b9150600082019050919050565b6000613868601d83613fbf565b91507f4572726f723a2043616e6e6f74207769746864726177207265776172640000006000830152602082019050919050565b60006138a8603083613fbf565b91507f4d616e61676572206665652076616c7565206973206f7574736964652074686560008301527f206d616e616765722066656520676170000000000000000000000000000000006020830152604082019050919050565b600061390e602083613fbf565b91507f5369676e6564536166654d6174683a206469766973696f6e206279207a65726f6000830152602082019050919050565b600061394e601683613fbf565b91507f4d616e6167657220646f6573206e6f74206578697374000000000000000000006000830152602082019050919050565b60006101808301600083015161399a6000860182613173565b5060208301516139ad6020860182613173565b5060408301516139c06040860182613173565b5060608301516139d36060860182613a85565b5060808301516139e66080860182613a85565b5060a08301516139f960a0860182613a85565b5060c0830151613a0c60c0860182613a85565b5060e0830151613a1f60e0860182613a85565b50610100830151613a34610100860182613173565b50610120830151613a49610120860182613a85565b50610140830151613a5e610140860182613a85565b50610160830151848203610160860152613a788282613191565b9150508091505092915050565b613a8e8161402a565b82525050565b613a9d8161402a565b82525050565b6000613aae82613841565b9150819050919050565b6000602082019050613acd6000830184613182565b92915050565b6000602082019050613ae86000830184613164565b92915050565b60006020820190508181036000830152613b0881846131ef565b905092915050565b6000602082019050613b25600083018461324d565b92915050565b6000602082019050613b40600083018461325c565b92915050565b6000602082019050613b5b600083018461327a565b92915050565b6000602082019050613b766000830184613289565b92915050565b60006020820190508181036000830152613b968184613298565b905092915050565b60006040820190508181036000830152613bb88185613298565b9050613bc76020830184613a94565b9392505050565b60006020820190508181036000830152613be7816132d1565b9050919050565b60006020820190508181036000830152613c0781613337565b9050919050565b60006020820190508181036000830152613c2781613377565b9050919050565b60006020820190508181036000830152613c47816133dd565b9050919050565b60006020820190508181036000830152613c678161341d565b9050919050565b60006020820190508181036000830152613c878161345d565b9050919050565b60006020820190508181036000830152613ca78161349d565b9050919050565b60006020820190508181036000830152613cc7816134dd565b9050919050565b60006020820190508181036000830152613ce78161351d565b9050919050565b60006020820190508181036000830152613d078161355d565b9050919050565b60006020820190508181036000830152613d27816135c3565b9050919050565b60006020820190508181036000830152613d4781613629565b9050919050565b60006020820190508181036000830152613d678161368f565b9050919050565b60006020820190508181036000830152613d87816136f5565b9050919050565b60006020820190508181036000830152613da781613735565b9050919050565b60006020820190508181036000830152613dc78161379b565b9050919050565b60006020820190508181036000830152613de7816137db565b9050919050565b60006020820190508181036000830152613e078161385b565b9050919050565b60006020820190508181036000830152613e278161389b565b9050919050565b60006020820190508181036000830152613e4781613901565b9050919050565b60006020820190508181036000830152613e6781613941565b9050919050565b60006020820190508181036000830152613e888184613981565b905092915050565b6000602082019050613ea56000830184613a94565b92915050565b6000606082019050613ec06000830186613a94565b613ecd6020830185613a94565b613eda604083018461324d565b949350505050565b6000604051905081810181811067ffffffffffffffff82111715613f0557600080fd5b8060405250919050565b600067ffffffffffffffff821115613f2657600080fd5b602082029050602081019050919050565b6000819050602082019050919050565b6000819050602082019050919050565b600081519050919050565b600081519050919050565b600081519050919050565b6000602082019050919050565b6000602082019050919050565b600082825260208201905092915050565b600082825260208201905092915050565b600081905092915050565b600082825260208201905092915050565b6000613fdb8261400a565b9050919050565b6000613fed8261400a565b9050919050565b60008115159050919050565b6000819050919050565b600073ffffffffffffffffffffffffffffffffffffffff82169050919050565b6000819050919050565b600061403f826140b2565b9050919050565b600061405182614058565b9050919050565b60006140638261400a565b9050919050565b60006140758261407c565b9050919050565b60006140878261400a565b9050919050565b6000614099826140a0565b9050919050565b60006140ab8261400a565b9050919050565b60006140bd826140c4565b9050919050565b60006140cf8261400a565b9050919050565b60005b838110156140f45780820151818401526020810190506140d9565b83811115614103576000848401525b50505050565b6000601f19601f8301169050919050565b61412381613fd0565b811461412e57600080fd5b50565b61413a81613fe2565b811461414557600080fd5b50565b61415181613ff4565b811461415c57600080fd5b50565b6141688161402a565b811461417357600080fd5b5056fea2646970667358221220675b18725ffed02d9c2f533a948ccd1a99c8bb6a39e24e10d7096e7b3170699664736f6c63430006060033",
  "linkReferences": {},
  "deployedLinkReferences": {}
}