{
  "_format": "hh-sol-artifact-1",
  "contractName": "EFundPlatform",
  "sourceName": "contracts/EFundPlatform.sol",
  "abi": [
    {
      "inputs": [
        {
          "internalType": "address",
          "name": "_fundFactory",
          "type": "address"
        },
        {
          "internalType": "address",
          "name": "_efundToken",
          "type": "address"
        },
        {
          "internalType": "uint256",
          "name": "_softCap",
          "type": "uint256"
        },
        {
          "internalType": "uint256",
          "name": "_hardCap",
          "type": "uint256"
        }
      ],
      "stateMutability": "nonpayable",
      "type": "constructor"
    },
    {
      "anonymous": false,
      "inputs": [
        {
          "indexed": true,
          "internalType": "address",
          "name": "recipient",
          "type": "address"
        },
        {
          "indexed": true,
          "internalType": "uint256",
          "name": "ethReceived",
          "type": "uint256"
        },
        {
          "indexed": true,
          "internalType": "uint256",
          "name": "nextAvailableClaimDate",
          "type": "uint256"
        }
      ],
      "name": "ClaimHolderRewardSuccessfully",
      "type": "event"
    },
    {
      "stateMutability": "payable",
      "type": "fallback"
    },
    {
      "inputs": [],
      "name": "bronzePeriodRewardPercentage",
      "outputs": [
        {
          "internalType": "int256",
          "name": "",
          "type": "int256"
        }
      ],
      "stateMutability": "view",
      "type": "function"
    },
    {
      "inputs": [
        {
          "internalType": "address",
          "name": "ofAddress",
          "type": "address"
        }
      ],
      "name": "calculateHolderReward",
      "outputs": [
        {
          "internalType": "uint256",
          "name": "reward",
          "type": "uint256"
        }
      ],
      "stateMutability": "view",
      "type": "function"
    },
    {
      "inputs": [
        {
          "internalType": "address",
          "name": "_address",
          "type": "address"
        }
      ],
      "name": "calculateManagerRewardPercentage",
      "outputs": [
        {
          "internalType": "int256",
          "name": "",
          "type": "int256"
        }
      ],
      "stateMutability": "view",
      "type": "function"
    },
    {
      "inputs": [],
      "name": "claimHolderReward",
      "outputs": [],
      "stateMutability": "nonpayable",
      "type": "function"
    },
    {
      "inputs": [],
      "name": "closeFund",
      "outputs": [],
      "stateMutability": "nonpayable",
      "type": "function"
    },
    {
      "inputs": [
        {
          "internalType": "address payable",
          "name": "_swapRouter",
          "type": "address"
        },
        {
          "internalType": "uint256",
          "name": "_fundDurationInMonths",
          "type": "uint256"
        },
        {
          "internalType": "uint256",
          "name": "_softCap",
          "type": "uint256"
        },
        {
          "internalType": "uint256",
          "name": "_hardCap",
          "type": "uint256"
        },
        {
          "internalType": "uint256",
          "name": "_profitFee",
          "type": "uint256"
        },
        {
          "internalType": "uint256",
          "name": "_minimalDepositAmount",
          "type": "uint256"
        },
        {
          "internalType": "uint256",
          "name": "_minTimeUntilFundStart",
          "type": "uint256"
        },
        {
          "internalType": "address payable[]",
          "name": "_allowedTokens",
          "type": "address[]"
        }
      ],
      "name": "createFund",
      "outputs": [
        {
          "internalType": "address",
          "name": "",
          "type": "address"
        }
      ],
      "stateMutability": "payable",
      "type": "function"
    },
    {
      "inputs": [],
      "name": "defaultFundFee",
      "outputs": [
        {
          "internalType": "int256",
          "name": "",
          "type": "int256"
        }
      ],
      "stateMutability": "view",
      "type": "function"
    },
    {
      "inputs": [],
      "name": "eFund",
      "outputs": [
        {
          "internalType": "contract IERC20",
          "name": "",
          "type": "address"
        }
      ],
      "stateMutability": "view",
      "type": "function"
    },
    {
      "inputs": [],
      "name": "fundFactory",
      "outputs": [
        {
          "internalType": "contract FundFactory",
          "name": "",
          "type": "address"
        }
      ],
      "stateMutability": "view",
      "type": "function"
    },
    {
      "inputs": [],
      "name": "getAllFunds",
      "outputs": [
        {
          "internalType": "contract HedgeFund[]",
          "name": "",
          "type": "address[]"
        }
      ],
      "stateMutability": "view",
      "type": "function"
    },
    {
      "inputs": [],
      "name": "getCurrentEthBalance",
      "outputs": [
        {
          "internalType": "uint256",
          "name": "",
          "type": "uint256"
        }
      ],
      "stateMutability": "view",
      "type": "function"
    },
    {
      "inputs": [
        {
          "internalType": "address",
          "name": "manager",
          "type": "address"
        }
      ],
      "name": "getManagerFunds",
      "outputs": [
        {
          "internalType": "contract HedgeFund[]",
          "name": "",
          "type": "address[]"
        }
      ],
      "stateMutability": "view",
      "type": "function"
    },
    {
      "inputs": [
        {
          "internalType": "uint256",
          "name": "_topAmount",
          "type": "uint256"
        }
      ],
      "name": "getTopRelevantFunds",
      "outputs": [
        {
          "internalType": "contract HedgeFund[]",
          "name": "",
          "type": "address[]"
        }
      ],
      "stateMutability": "view",
      "type": "function"
    },
    {
      "inputs": [],
      "name": "goldPeriodRewardPercentage",
      "outputs": [
        {
          "internalType": "int256",
          "name": "",
          "type": "int256"
        }
      ],
      "stateMutability": "view",
      "type": "function"
    },
    {
      "inputs": [],
      "name": "goldPeriodStart",
      "outputs": [
        {
          "internalType": "uint256",
          "name": "",
          "type": "uint256"
        }
      ],
      "stateMutability": "view",
      "type": "function"
    },
    {
      "inputs": [],
      "name": "hardCap",
      "outputs": [
        {
          "internalType": "uint256",
          "name": "",
          "type": "uint256"
        }
      ],
      "stateMutability": "view",
      "type": "function"
    },
    {
      "inputs": [
        {
          "internalType": "address",
          "name": "",
          "type": "address"
        }
      ],
      "name": "isExcludedFromReward",
      "outputs": [
        {
          "internalType": "bool",
          "name": "",
          "type": "bool"
        }
      ],
      "stateMutability": "view",
      "type": "function"
    },
    {
      "inputs": [
        {
          "internalType": "address",
          "name": "",
          "type": "address"
        }
      ],
      "name": "isFund",
      "outputs": [
        {
          "internalType": "bool",
          "name": "",
          "type": "bool"
        }
      ],
      "stateMutability": "view",
      "type": "function"
    },
    {
      "inputs": [
        {
          "internalType": "address",
          "name": "",
          "type": "address"
        }
      ],
      "name": "managerFundActivity",
      "outputs": [
        {
          "internalType": "uint256",
          "name": "fundActivityMonths",
          "type": "uint256"
        },
        {
          "internalType": "uint256",
          "name": "reputation",
          "type": "uint256"
        },
        {
          "internalType": "bool",
          "name": "isValue",
          "type": "bool"
        }
      ],
      "stateMutability": "view",
      "type": "function"
    },
    {
      "inputs": [],
      "name": "maximumManagerFee",
      "outputs": [
        {
          "internalType": "uint256",
          "name": "",
          "type": "uint256"
        }
      ],
      "stateMutability": "view",
      "type": "function"
    },
    {
      "inputs": [],
      "name": "maximumMinimalDepositAmountFromHardCapPercentage",
      "outputs": [
        {
          "internalType": "uint256",
          "name": "",
          "type": "uint256"
        }
      ],
      "stateMutability": "view",
      "type": "function"
    },
    {
      "inputs": [],
      "name": "maximumTimeUntillFundStart",
      "outputs": [
        {
          "internalType": "uint256",
          "name": "",
          "type": "uint256"
        }
      ],
      "stateMutability": "view",
      "type": "function"
    },
    {
      "inputs": [],
      "name": "minimumManagerFee",
      "outputs": [
        {
          "internalType": "uint256",
          "name": "",
          "type": "uint256"
        }
      ],
      "stateMutability": "view",
      "type": "function"
    },
    {
      "inputs": [],
      "name": "minimumTimeUntillFundStart",
      "outputs": [
        {
          "internalType": "uint256",
          "name": "",
          "type": "uint256"
        }
      ],
      "stateMutability": "view",
      "type": "function"
    },
    {
      "inputs": [
        {
          "internalType": "address",
          "name": "",
          "type": "address"
        }
      ],
      "name": "nextAvailableRewardClaimDate",
      "outputs": [
        {
          "internalType": "uint256",
          "name": "",
          "type": "uint256"
        }
      ],
      "stateMutability": "view",
      "type": "function"
    },
    {
      "inputs": [],
      "name": "noProfitFundFee",
      "outputs": [
        {
          "internalType": "int256",
          "name": "",
          "type": "int256"
        }
      ],
      "stateMutability": "view",
      "type": "function"
    },
    {
      "inputs": [],
      "name": "percentageBase",
      "outputs": [
        {
          "internalType": "uint256",
          "name": "",
          "type": "uint256"
        }
      ],
      "stateMutability": "view",
      "type": "function"
    },
    {
      "inputs": [],
      "name": "rewardCycleBlock",
      "outputs": [
        {
          "internalType": "uint256",
          "name": "",
          "type": "uint256"
        }
      ],
      "stateMutability": "view",
      "type": "function"
    },
    {
      "inputs": [],
      "name": "silverPeriodRewardPercentage",
      "outputs": [
        {
          "internalType": "int256",
          "name": "",
          "type": "int256"
        }
      ],
      "stateMutability": "view",
      "type": "function"
    },
    {
      "inputs": [],
      "name": "silverPeriodStart",
      "outputs": [
        {
          "internalType": "uint256",
          "name": "",
          "type": "uint256"
        }
      ],
      "stateMutability": "view",
      "type": "function"
    },
    {
      "inputs": [],
      "name": "softCap",
      "outputs": [
        {
          "internalType": "uint256",
          "name": "",
          "type": "uint256"
        }
      ],
      "stateMutability": "view",
      "type": "function"
    },
    {
      "stateMutability": "payable",
      "type": "receive"
    }
  ],
  "bytecode": "0x6101006040523480156200001257600080fd5b50604051620043ff380380620043ff833981810160405281019062000038919062000219565b600073ffffffffffffffffffffffffffffffffffffffff168473ffffffffffffffffffffffffffffffffffffffff161415620000ab576040517f08c379a0000000000000000000000000000000000000000000000000000000008152600401620000a290620003bd565b60405180910390fd5b600073ffffffffffffffffffffffffffffffffffffffff168373ffffffffffffffffffffffffffffffffffffffff1614156200011e576040517f08c379a00000000000000000000000000000000000000000000000000000000081526004016200011590620003df565b60405180910390fd5b81811162000163576040517f08c379a00000000000000000000000000000000000000000000000000000000081526004016200015a9062000401565b60405180910390fd5b8060e081815250508160c081815250508373ffffffffffffffffffffffffffffffffffffffff1660808173ffffffffffffffffffffffffffffffffffffffff1660601b815250508273ffffffffffffffffffffffffffffffffffffffff1660a08173ffffffffffffffffffffffffffffffffffffffff1660601b8152505050505050620004a6565b600081519050620001fc8162000472565b92915050565b60008151905062000213816200048c565b92915050565b600080600080608085870312156200023057600080fd5b60006200024087828801620001eb565b94505060206200025387828801620001eb565b9350506040620002668782880162000202565b9250506060620002798782880162000202565b91505092959194509250565b60006200029460248362000423565b91507f496e76616c69642066756e64466163746f727920616464726573732070726f7660008301527f69646564000000000000000000000000000000000000000000000000000000006020830152604082019050919050565b6000620002fc60248362000423565b91507f496e76616c6964206546756e6420746f6b656e20616464726573732070726f7660008301527f69646564000000000000000000000000000000000000000000000000000000006020830152604082019050919050565b60006200036460258362000423565b91507f4861726420636170206d75737420626520626967676572207468616e20736f6660008301527f74206361700000000000000000000000000000000000000000000000000000006020830152604082019050919050565b60006020820190508181036000830152620003d88162000285565b9050919050565b60006020820190508181036000830152620003fa81620002ed565b9050919050565b600060208201905081810360008301526200041c8162000355565b9050919050565b600082825260208201905092915050565b6000620004418262000448565b9050919050565b600073ffffffffffffffffffffffffffffffffffffffff82169050919050565b6000819050919050565b6200047d8162000434565b81146200048957600080fd5b50565b620004978162000468565b8114620004a357600080fd5b50565b60805160601c60a05160601c60c05160e051613ef06200050f60003980611418528061218f5250806112435280611443525080610eba5280610f6252806116655280611acd5280611b7a5280611c235280611ce2525080610e8352806116005250613ef06000f3fe6080604052600436106101dc5760003560e01c8063906a26e011610102578063d0b4fa0511610095578063eb25933b11610064578063eb25933b146106cb578063f4817d6d146106f6578063f61dc9e514610733578063fb86a4041461075e576101e3565b8063d0b4fa0514610621578063d10d51a21461065e578063de14569214610689578063e3a1c6fe146106b4576101e3565b8063b0c72e90116100d1578063b0c72e901461053a578063b2c50b5314610577578063c7153b89146105a7578063ca8f4ae8146105e4576101e3565b8063906a26e01461048e578063941e041c146104b9578063964a6b4b146104e4578063a1ef85dc1461050f576101e3565b806344e8bc7d1161017a578063657004811161014957806365700481146103d05780637217f4bc146103e757806388f82020146104125780638c5007871461044f576101e3565b806344e8bc7d1461032457806359b6f2e61461034f5780635c8192811461037a578063611b5322146103a5576101e3565b806322ab155e116101b657806322ab155e1461027857806326a3b51f146102a35780632ed6f71c146102ce5780633dea9e66146102f9576101e3565b806308b89603146101e55780631868b729146102105780631c69b4641461024d576101e3565b366101e357005b005b3480156101f157600080fd5b506101fa610789565b6040516102079190613bd4565b60405180910390f35b34801561021c57600080fd5b5061023760048036038101906102329190612ddb565b610790565b6040516102449190613812565b60405180910390f35b34801561025957600080fd5b50610262610de1565b60405161026f9190613812565b60405180910390f35b34801561028457600080fd5b5061028d610e6f565b60405161029a9190613bd4565b60405180910390f35b3480156102af57600080fd5b506102b8610e74565b6040516102c59190613885565b60405180910390f35b3480156102da57600080fd5b506102e3610e79565b6040516102f09190613bd4565b60405180910390f35b34801561030557600080fd5b5061030e610e81565b60405161031b919061384f565b60405180910390f35b34801561033057600080fd5b50610339610ea5565b6040516103469190613bd4565b60405180910390f35b34801561035b57600080fd5b50610364610eac565b6040516103719190613885565b60405180910390f35b34801561038657600080fd5b5061038f610eb1565b60405161039c9190613bd4565b60405180910390f35b3480156103b157600080fd5b506103ba610eb8565b6040516103c7919061386a565b60405180910390f35b3480156103dc57600080fd5b506103e5610edc565b005b3480156103f357600080fd5b506103fc6111e3565b6040516104099190613bd4565b60405180910390f35b34801561041e57600080fd5b5061043960048036038101906104349190612c6d565b6111ea565b6040516104469190613834565b60405180910390f35b34801561045b57600080fd5b5061047660048036038101906104719190612c6d565b61120a565b60405161048593929190613bef565b60405180910390f35b34801561049a57600080fd5b506104a3611241565b6040516104b09190613bd4565b60405180910390f35b3480156104c557600080fd5b506104ce611265565b6040516104db9190613bd4565b60405180910390f35b3480156104f057600080fd5b506104f961126c565b6040516105069190613bd4565b60405180910390f35b34801561051b57600080fd5b50610524611271565b6040516105319190613bd4565b60405180910390f35b34801561054657600080fd5b50610561600480360381019061055c9190612c6d565b611276565b60405161056e9190613812565b60405180910390f35b610591600480360381019061058c9190612ce8565b6113d2565b60405161059e91906137dc565b60405180910390f35b3480156105b357600080fd5b506105ce60048036038101906105c99190612c6d565b6119c2565b6040516105db9190613834565b60405180910390f35b3480156105f057600080fd5b5061060b60048036038101906106069190612c6d565b6119e2565b6040516106189190613885565b60405180910390f35b34801561062d57600080fd5b5061064860048036038101906106439190612c6d565b611ac5565b6040516106559190613bd4565b60405180910390f35b34801561066a57600080fd5b50610673611d98565b6040516106809190613885565b60405180910390f35b34801561069557600080fd5b5061069e611d9d565b6040516106ab9190613885565b60405180910390f35b3480156106c057600080fd5b506106c9611da2565b005b3480156106d757600080fd5b506106e061216b565b6040516106ed9190613bd4565b60405180910390f35b34801561070257600080fd5b5061071d60048036038101906107189190612c6d565b612170565b60405161072a9190613bd4565b60405180910390f35b34801561073f57600080fd5b50610748612188565b6040516107559190613885565b60405180910390f35b34801561076a57600080fd5b5061077361218d565b6040516107809190613bd4565b60405180910390f35b62ed4e0081565b606060008080549050141561082d57600080548060200260200160405190810160405280929190818152602001828054801561082157602002820191906000526020600020905b8160009054906101000a900473ffffffffffffffffffffffffffffffffffffffff1673ffffffffffffffffffffffffffffffffffffffff16815260200190600101908083116107d7575b50505050509050610ddc565b60008054905082111580156108425750600082115b610881576040517f08c379a000000000000000000000000000000000000000000000000000000000815260040161087890613b52565b60405180910390fd5b606060008054905067ffffffffffffffff8111801561089f57600080fd5b506040519080825280602002602001820160405280156108ce5781602001602082028036833780820191505090505b50905060008090505b60008054905081101561096f57600081815481106108f157fe5b9060005260206000200160009054906101000a900473ffffffffffffffffffffffffffffffffffffffff1682828151811061092857fe5b602002602001019073ffffffffffffffffffffffffffffffffffffffff16908173ffffffffffffffffffffffffffffffffffffffff168152505080806001019150506108d7565b5060608367ffffffffffffffff8111801561098957600080fd5b506040519080825280602002602001820160405280156109b85781602001602082028036833780820191505090505b5090506109fb6040518060400160405280600d81526020017f66756e64206c656e6774683a200000000000000000000000000000000000000081525083516121b1565b60008090505b8251811015610d0a5760008090505b60018285510303811015610cfc57836001820181518110610a2d57fe5b602002602001015173ffffffffffffffffffffffffffffffffffffffff1631848281518110610a5857fe5b602002602001015173ffffffffffffffffffffffffffffffffffffffff16311180610c29575060036000856001840181518110610a9157fe5b602002602001015173ffffffffffffffffffffffffffffffffffffffff16636209ec2d6040518163ffffffff1660e01b815260040160206040518083038186803b158015610ade57600080fd5b505afa158015610af2573d6000803e3d6000fd5b505050506040513d601f19601f82011682018060405250810190610b169190612cbf565b73ffffffffffffffffffffffffffffffffffffffff1673ffffffffffffffffffffffffffffffffffffffff1681526020019081526020016000206001015460036000868481518110610b6457fe5b602002602001015173ffffffffffffffffffffffffffffffffffffffff16636209ec2d6040518163ffffffff1660e01b815260040160206040518083038186803b158015610bb157600080fd5b505afa158015610bc5573d6000803e3d6000fd5b505050506040513d601f19601f82011682018060405250810190610be99190612cbf565b73ffffffffffffffffffffffffffffffffffffffff1673ffffffffffffffffffffffffffffffffffffffff16815260200190815260200160002060010154115b15610cef576000846001830181518110610c3f57fe5b60200260200101519050848281518110610c5557fe5b6020026020010151856001840181518110610c6c57fe5b602002602001019073ffffffffffffffffffffffffffffffffffffffff16908173ffffffffffffffffffffffffffffffffffffffff168152505080858381518110610cb357fe5b602002602001019073ffffffffffffffffffffffffffffffffffffffff16908173ffffffffffffffffffffffffffffffffffffffff1681525050505b8080600101915050610a10565b508080600101915050610a01565b50610d496040518060400160405280600c81526020017f736f7274696e6720646f6e65000000000000000000000000000000000000000081525061224d565b6000600160008054905003905060008090505b85811015610dd457838281518110610d7057fe5b6020026020010151838281518110610d8457fe5b602002602001019073ffffffffffffffffffffffffffffffffffffffff16908173ffffffffffffffffffffffffffffffffffffffff16815250508180600190039250508080600101915050610d5c565b508193505050505b919050565b60606000805480602002602001604051908101604052809291908181526020018280548015610e6557602002820191906000526020600020905b8160009054906101000a900473ffffffffffffffffffffffffffffffffffffffff1673ffffffffffffffffffffffffffffffffffffffff1681526020019060010190808311610e1b575b5050505050905090565b606481565b601e81565b600047905090565b7f000000000000000000000000000000000000000000000000000000000000000081565b6201518081565b600a81565b6276a70081565b7f000000000000000000000000000000000000000000000000000000000000000081565b42600460003373ffffffffffffffffffffffffffffffffffffffff1673ffffffffffffffffffffffffffffffffffffffff168152602001908152602001600020541115610f5e576040517f08c379a0000000000000000000000000000000000000000000000000000000008152600401610f55906138f2565b60405180910390fd5b60007f000000000000000000000000000000000000000000000000000000000000000073ffffffffffffffffffffffffffffffffffffffff166370a08231336040518263ffffffff1660e01b8152600401610fb991906137f7565b60206040518083038186803b158015610fd157600080fd5b505afa158015610fe5573d6000803e3d6000fd5b505050506040513d601f19601f820116820180604052508101906110099190612e04565b11611049576040517f08c379a000000000000000000000000000000000000000000000000000000000815260040161104090613a32565b60405180910390fd5b600061105433611ac5565b905061106c62093a80426122e690919063ffffffff16565b600460003373ffffffffffffffffffffffffffffffffffffffff1673ffffffffffffffffffffffffffffffffffffffff1681526020019081526020016000208190555060003373ffffffffffffffffffffffffffffffffffffffff16826040516110d5906137c7565b60006040518083038185875af1925050503d8060008114611112576040519150601f19603f3d011682016040523d82523d6000602084013e611117565b606091505b505090508061115b576040517f08c379a000000000000000000000000000000000000000000000000000000000815260040161115290613b12565b60405180910390fd5b600460003373ffffffffffffffffffffffffffffffffffffffff1673ffffffffffffffffffffffffffffffffffffffff16815260200190815260200160002054823373ffffffffffffffffffffffffffffffffffffffff167f22eee7f02e36f8323e1e4f98d1b2002e1ec68523f572f475011a03969d292aa560405160405180910390a45050565b62093a8081565b60056020528060005260406000206000915054906101000a900460ff1681565b60036020528060005260406000206000915090508060000154908060010154908060020160009054906101000a900460ff16905083565b7f000000000000000000000000000000000000000000000000000000000000000081565b620d2f0081565b600181565b600a81565b6060600360008373ffffffffffffffffffffffffffffffffffffffff1673ffffffffffffffffffffffffffffffffffffffff16815260200190815260200160002060020160009054906101000a900460ff16611307576040517f08c379a00000000000000000000000000000000000000000000000000000000081526004016112fe90613b92565b60405180910390fd5b600160008373ffffffffffffffffffffffffffffffffffffffff1673ffffffffffffffffffffffffffffffffffffffff1681526020019081526020016000208054806020026020016040519081016040528092919081815260200182805480156113c657602002820191906000526020600020905b8160009054906101000a900473ffffffffffffffffffffffffffffffffffffffff1673ffffffffffffffffffffffffffffffffffffffff168152602001906001019080831161137c575b50505050509050919050565b6000868611611416576040517f08c379a000000000000000000000000000000000000000000000000000000000815260040161140d90613a12565b60405180910390fd5b7f0000000000000000000000000000000000000000000000000000000000000000861115801561146657507f00000000000000000000000000000000000000000000000000000000000000008710155b6114a5576040517f08c379a000000000000000000000000000000000000000000000000000000000815260040161149c90613af2565b60405180910390fd5b6000841180156114c857506114c4600a8761233b90919063ffffffff16565b8411155b611507576040517f08c379a00000000000000000000000000000000000000000000000000000000081526004016114fe906139b2565b60405180910390fd5b8634101580156115175750853411155b611556576040517f08c379a000000000000000000000000000000000000000000000000000000000815260040161154d90613ad2565b60405180910390fd5b600185101580156115685750600a8511155b6115a7576040517f08c379a000000000000000000000000000000000000000000000000000000000815260040161159e90613b32565b60405180910390fd5b6201518083101580156115bd5750620d2f008311155b6115fc576040517f08c379a00000000000000000000000000000000000000000000000000000000081526004016115f390613932565b60405180910390fd5b60007f000000000000000000000000000000000000000000000000000000000000000073ffffffffffffffffffffffffffffffffffffffff1663c737cd9d346040518061016001604052808e73ffffffffffffffffffffffffffffffffffffffff1681526020017f000000000000000000000000000000000000000000000000000000000000000073ffffffffffffffffffffffffffffffffffffffff1681526020013073ffffffffffffffffffffffffffffffffffffffff1681526020018c81526020018b81526020018a81526020018981526020018881526020013373ffffffffffffffffffffffffffffffffffffffff1681526020018d8152602001878152506040518363ffffffff1660e01b815260040161171b9190613bb2565b6020604051808303818588803b15801561173457600080fd5b505af1158015611748573d6000803e3d6000fd5b50505050506040513d601f19601f8201168201806040525081019061176d9190612c96565b90506000819080600181540180825580915050600190039060005260206000200160009091909190916101000a81548173ffffffffffffffffffffffffffffffffffffffff021916908373ffffffffffffffffffffffffffffffffffffffff160217905550600160003373ffffffffffffffffffffffffffffffffffffffff1673ffffffffffffffffffffffffffffffffffffffff168152602001908152602001600020819080600181540180825580915050600190039060005260206000200160009091909190916101000a81548173ffffffffffffffffffffffffffffffffffffffff021916908373ffffffffffffffffffffffffffffffffffffffff1602179055506001600260008373ffffffffffffffffffffffffffffffffffffffff1673ffffffffffffffffffffffffffffffffffffffff16815260200190815260200160002060006101000a81548160ff021916908315150217905550600360003373ffffffffffffffffffffffffffffffffffffffff1673ffffffffffffffffffffffffffffffffffffffff16815260200190815260200160002060020160009054906101000a900460ff166119b5576040518060600160405280600081526020016000815260200160011515815250600360003373ffffffffffffffffffffffffffffffffffffffff1673ffffffffffffffffffffffffffffffffffffffff168152602001908152602001600020600082015181600001556020820151816001015560408201518160020160006101000a81548160ff0219169083151502179055509050505b5098975050505050505050565b60026020528060005260406000206000915054906101000a900460ff1681565b6000600360008373ffffffffffffffffffffffffffffffffffffffff1673ffffffffffffffffffffffffffffffffffffffff16815260200190815260200160002060020160009054906101000a900460ff16611a73576040517f08c379a0000000000000000000000000000000000000000000000000000000008152600401611a6a90613972565b60405180910390fd5b611abe600360008473ffffffffffffffffffffffffffffffffffffffff1673ffffffffffffffffffffffffffffffffffffffff16815260200190815260200160002060000154612391565b9050919050565b600080611cdb7f000000000000000000000000000000000000000000000000000000000000000073ffffffffffffffffffffffffffffffffffffffff166370a0823160006040518263ffffffff1660e01b8152600401611b2591906137f7565b60206040518083038186803b158015611b3d57600080fd5b505afa158015611b51573d6000803e3d6000fd5b505050506040513d601f19601f82011682018060405250810190611b759190612e04565b611ccd7f000000000000000000000000000000000000000000000000000000000000000073ffffffffffffffffffffffffffffffffffffffff166370a08231306040518263ffffffff1660e01b8152600401611bd191906137f7565b60206040518083038186803b158015611be957600080fd5b505afa158015611bfd573d6000803e3d6000fd5b505050506040513d601f19601f82011682018060405250810190611c219190612e04565b7f000000000000000000000000000000000000000000000000000000000000000073ffffffffffffffffffffffffffffffffffffffff166318160ddd6040518163ffffffff1660e01b815260040160206040518083038186803b158015611c8757600080fd5b505afa158015611c9b573d6000803e3d6000fd5b505050506040513d601f19601f82011682018060405250810190611cbf9190612e04565b6123c590919063ffffffff16565b6123c590919063ffffffff16565b9050611d907f000000000000000000000000000000000000000000000000000000000000000073ffffffffffffffffffffffffffffffffffffffff166370a08231856040518263ffffffff1660e01b8152600401611d3991906137dc565b60206040518083038186803b158015611d5157600080fd5b505afa158015611d65573d6000803e3d6000fd5b505050506040513d601f19601f82011682018060405250810190611d899190612e04565b4783612415565b915050919050565b600381565b600a81565b600260003373ffffffffffffffffffffffffffffffffffffffff1673ffffffffffffffffffffffffffffffffffffffff16815260200190815260200160002060009054906101000a900460ff16611e2e576040517f08c379a0000000000000000000000000000000000000000000000000000000008152600401611e25906139f2565b60405180910390fd5b6000339050428173ffffffffffffffffffffffffffffffffffffffff1663439f5ac26040518163ffffffff1660e01b815260040160206040518083038186803b158015611e7a57600080fd5b505afa158015611e8e573d6000803e3d6000fd5b505050506040513d601f19601f82011682018060405250810190611eb29190612e04565b108015611f3957508073ffffffffffffffffffffffffffffffffffffffff16634d820b9a6040518163ffffffff1660e01b815260040160206040518083038186803b158015611f0057600080fd5b505afa158015611f14573d6000803e3d6000fd5b505050506040513d601f19601f82011682018060405250810190611f389190612db2565b5b611f78576040517f08c379a0000000000000000000000000000000000000000000000000000000008152600401611f6f90613a92565b60405180910390fd5b60008173ffffffffffffffffffffffffffffffffffffffff16636209ec2d6040518163ffffffff1660e01b815260040160206040518083038186803b158015611fc057600080fd5b505afa158015611fd4573d6000803e3d6000fd5b505050506040513d601f19601f82011682018060405250810190611ff89190612cbf565b90506000600360008373ffffffffffffffffffffffffffffffffffffffff1673ffffffffffffffffffffffffffffffffffffffff1681526020019081526020016000206000015490506120d18373ffffffffffffffffffffffffffffffffffffffff16636da797c96040518163ffffffff1660e01b815260040160206040518083038186803b15801561208a57600080fd5b505afa15801561209e573d6000803e3d6000fd5b505050506040513d601f19601f820116820180604052508101906120c29190612e04565b826122e690919063ffffffff16565b600360008473ffffffffffffffffffffffffffffffffffffffff1673ffffffffffffffffffffffffffffffffffffffff168152602001908152602001600020600001819055506121208261244a565b600360008473ffffffffffffffffffffffffffffffffffffffff1673ffffffffffffffffffffffffffffffffffffffff16815260200190815260200160002060010181905550505050565b600a81565b60046020528060005260406000206000915090505481565b601481565b7f000000000000000000000000000000000000000000000000000000000000000081565b61224982826040516024016121c79291906138c2565b6040516020818303038152906040527f9710a9d0000000000000000000000000000000000000000000000000000000007bffffffffffffffffffffffffffffffffffffffffffffffffffffffff19166020820180517bffffffffffffffffffffffffffffffffffffffffffffffffffffffff83818316178352505050506128a3565b5050565b6122e38160405160240161226191906138a0565b6040516020818303038152906040527f41304fac000000000000000000000000000000000000000000000000000000007bffffffffffffffffffffffffffffffffffffffffffffffffffffffff19166020820180517bffffffffffffffffffffffffffffffffffffffffffffffffffffffff83818316178352505050506128a3565b50565b600080828401905083811015612331576040517f08c379a000000000000000000000000000000000000000000000000000000000815260040161232890613952565b60405180910390fd5b8091505092915050565b600080821161237f576040517f08c379a0000000000000000000000000000000000000000000000000000000008152600401612376906139d2565b60405180910390fd5b81838161238857fe5b04905092915050565b60006276a7008210156123a757600a90506123c0565b62ed4e008210156123bb57601490506123c0565b601e90505b919050565b60008282111561240a576040517f08c379a000000000000000000000000000000000000000000000000000000000815260040161240190613992565b60405180910390fd5b818303905092915050565b60008061243d8361242f87876128cc90919063ffffffff16565b61233b90919063ffffffff16565b9050809150509392505050565b6000600360008373ffffffffffffffffffffffffffffffffffffffff1673ffffffffffffffffffffffffffffffffffffffff16815260200190815260200160002060020160009054906101000a900460ff166124db576040517f08c379a00000000000000000000000000000000000000000000000000000000081526004016124d290613912565b60405180910390fd5b6060600160008473ffffffffffffffffffffffffffffffffffffffff1673ffffffffffffffffffffffffffffffffffffffff16815260200190815260200160002080548060200260200160405190810160405280929190818152602001828054801561259c57602002820191906000526020600020905b8160009054906101000a900473ffffffffffffffffffffffffffffffffffffffff1673ffffffffffffffffffffffffffffffffffffffff1681526020019060010190808311612552575b5050505050905060008060008060008092509250925060008090505b845181101561283c5760008582815181106125cf57fe5b602002602001015173ffffffffffffffffffffffffffffffffffffffff1663a1956e326040518163ffffffff1660e01b815260040160206040518083038186803b15801561261c57600080fd5b505afa158015612630573d6000803e3d6000fd5b505050506040513d601f19601f820116820180604052508101906126549190612e04565b1461282f57838060010194505084818151811061266d57fe5b602002602001015173ffffffffffffffffffffffffffffffffffffffff166338bde7916040518163ffffffff1660e01b815260040160206040518083038186803b1580156126ba57600080fd5b505afa1580156126ce573d6000803e3d6000fd5b505050506040513d601f19601f820116820180604052508101906126f29190612e04565b8582815181106126fe57fe5b602002602001015173ffffffffffffffffffffffffffffffffffffffff1663a1956e326040518163ffffffff1660e01b815260040160206040518083038186803b15801561274b57600080fd5b505afa15801561275f573d6000803e3d6000fd5b505050506040513d601f19601f820116820180604052508101906127839190612e04565b1161278f576000612792565b60015b60ff16830192508481815181106127a557fe5b602002602001015173ffffffffffffffffffffffffffffffffffffffff1663a1956e326040518163ffffffff1660e01b815260040160206040518083038186803b1580156127f257600080fd5b505afa158015612806573d6000803e3d6000fd5b505050506040513d601f19601f8201168201806040525081019061282a9190612e04565b820191505b80806001019150506125b8565b506000612849838561293c565b90506128976128636103e88561233b90919063ffffffff16565b61288961287a600a8661233b90919063ffffffff16565b846122e690919063ffffffff16565b6122e690919063ffffffff16565b95505050505050919050565b60008151905060006a636f6e736f6c652e6c6f679050602083016000808483855afa5050505050565b6000808314156128df5760009050612936565b60008284029050828482816128f057fe5b0414612931576040517f08c379a000000000000000000000000000000000000000000000000000000000815260040161292890613a72565b60405180910390fd5b809150505b92915050565b600061296682612958620186a08661296e90919063ffffffff16565b612a6c90919063ffffffff16565b905092915050565b6000808314156129815760009050612a66565b7fffffffffffffffffffffffffffffffffffffffffffffffffffffffffffffffff831480156129cf57507f800000000000000000000000000000000000000000000000000000000000000082145b15612a0f576040517f08c379a0000000000000000000000000000000000000000000000000000000008152600401612a0690613ab2565b60405180910390fd5b6000828402905082848281612a2057fe5b0514612a61576040517f08c379a0000000000000000000000000000000000000000000000000000000008152600401612a5890613ab2565b60405180910390fd5b809150505b92915050565b600080821415612ab1576040517f08c379a0000000000000000000000000000000000000000000000000000000008152600401612aa890613b72565b60405180910390fd5b7fffffffffffffffffffffffffffffffffffffffffffffffffffffffffffffffff82148015612aff57507f800000000000000000000000000000000000000000000000000000000000000083145b15612b3f576040517f08c379a0000000000000000000000000000000000000000000000000000000008152600401612b3690613a52565b60405180910390fd5b6000828481612b4a57fe5b0590508091505092915050565b600081359050612b6681613e5e565b92915050565b600081519050612b7b81613e5e565b92915050565b600081359050612b9081613e75565b92915050565b600081519050612ba581613e75565b92915050565b600082601f830112612bbc57600080fd5b8135612bcf612bca82613c53565b613c26565b91508181835260208401935060208101905083856020840282011115612bf457600080fd5b60005b83811015612c245781612c0a8882612b81565b845260208401935060208301925050600181019050612bf7565b5050505092915050565b600081519050612c3d81613e8c565b92915050565b600081359050612c5281613ea3565b92915050565b600081519050612c6781613ea3565b92915050565b600060208284031215612c7f57600080fd5b6000612c8d84828501612b57565b91505092915050565b600060208284031215612ca857600080fd5b6000612cb684828501612b6c565b91505092915050565b600060208284031215612cd157600080fd5b6000612cdf84828501612b96565b91505092915050565b600080600080600080600080610100898b031215612d0557600080fd5b6000612d138b828c01612b81565b9850506020612d248b828c01612c43565b9750506040612d358b828c01612c43565b9650506060612d468b828c01612c43565b9550506080612d578b828c01612c43565b94505060a0612d688b828c01612c43565b93505060c0612d798b828c01612c43565b92505060e089013567ffffffffffffffff811115612d9657600080fd5b612da28b828c01612bab565b9150509295985092959890939650565b600060208284031215612dc457600080fd5b6000612dd284828501612c2e565b91505092915050565b600060208284031215612ded57600080fd5b6000612dfb84828501612c43565b91505092915050565b600060208284031215612e1657600080fd5b6000612e2484828501612c58565b91505092915050565b6000612e398383612e6c565b60208301905092915050565b6000612e518383612f64565b60208301905092915050565b612e6681613d78565b82525050565b612e7581613d26565b82525050565b612e8481613d14565b82525050565b6000612e9582613c9b565b612e9f8185613cd6565b9350612eaa83613c7b565b8060005b83811015612edb578151612ec28882612e2d565b9750612ecd83613cbc565b925050600181019050612eae565b5085935050505092915050565b6000612ef382613ca6565b612efd8185613ce7565b9350612f0883613c8b565b8060005b83811015612f39578151612f208882612e45565b9750612f2b83613cc9565b925050600181019050612f0c565b5085935050505092915050565b612f4f81613d38565b82525050565b612f5e81613d8a565b82525050565b612f6d81613dae565b82525050565b612f7c81613dd2565b82525050565b612f8b81613d44565b82525050565b6000612f9c82613cb1565b612fa68185613d03565b9350612fb6818560208601613e1a565b612fbf81613e4d565b840191505092915050565b6000612fd7602183613d03565b91507f4572726f723a206e65787420617661696c61626c65206e6f742072656163686560008301527f64000000000000000000000000000000000000000000000000000000000000006020830152604082019050919050565b600061303d601783613d03565b91507f4d616e6167657220646f657374206e6f742065786973740000000000000000006000830152602082019050919050565b600061307d603983613d03565b91507f4d696e54696d65556e74696c6c46756e6453746172742076616c75652069732060008301527f6f757473696465207468652066756e64537461727420676170000000000000006020830152604082019050919050565b60006130e3601b83613d03565b91507f536166654d6174683a206164646974696f6e206f766572666c6f7700000000006000830152602082019050919050565b6000613123601d83613d03565b91507f41646472657373206973206e6f7420612066756e64206d616e616765720000006000830152602082019050919050565b6000613163601e83613d03565b91507f536166654d6174683a207375627472616374696f6e206f766572666c6f7700006000830152602082019050919050565b60006131a3601c83613d03565b91507f496e76616c6964206d696e696d616c4465706f736974416d6f756e74000000006000830152602082019050919050565b60006131e3601a83613d03565b91507f536166654d6174683a206469766973696f6e206279207a65726f0000000000006000830152602082019050919050565b6000613223601c83613d03565b91507f43616c6c65722061646472657373206973206e6f7420612066756e64000000006000830152602082019050919050565b6000613263602583613d03565b91507f4861726420636170206d75737420626520626967676572207468616e20736f6660008301527f74206361700000000000000000000000000000000000000000000000000000006020830152604082019050919050565b60006132c9602a83613d03565b91507f4572726f723a206d757374206f776e206546756e64546f6b656e20746f20636c60008301527f61696d20726577617264000000000000000000000000000000000000000000006020830152604082019050919050565b600061332f602183613d03565b91507f5369676e6564536166654d6174683a206469766973696f6e206f766572666c6f60008301527f77000000000000000000000000000000000000000000000000000000000000006020830152604082019050919050565b6000613395602183613d03565b91507f536166654d6174683a206d756c7469706c69636174696f6e206f766572666c6f60008301527f77000000000000000000000000000000000000000000000000000000000000006020830152604082019050919050565b60006133fb601583613d03565b91507f46756e64206973206e6f7420636f6d706c6574656400000000000000000000006000830152602082019050919050565b600061343b602783613d03565b91507f5369676e6564536166654d6174683a206d756c7469706c69636174696f6e206f60008301527f766572666c6f77000000000000000000000000000000000000000000000000006020830152604082019050919050565b60006134a1601883613d03565b91507f76616c7565206973206f757473696465206f66206361707300000000000000006000830152602082019050919050565b60006134e1603383613d03565b91507f486172644361702076616c756573206973206f7574736964652074686520706c60008301527f6174666f726d2064656661756c742063617073000000000000000000000000006020830152604082019050919050565b6000613547600083613cf8565b9150600082019050919050565b6000613561601d83613d03565b91507f4572726f723a2043616e6e6f74207769746864726177207265776172640000006000830152602082019050919050565b60006135a1603083613d03565b91507f4d616e61676572206665652076616c7565206973206f7574736964652074686560008301527f206d616e616765722066656520676170000000000000000000000000000000006020830152604082019050919050565b6000613607601883613d03565b91507f496e76616c6964205f746f70416d6f756e742076616c756500000000000000006000830152602082019050919050565b6000613647602083613d03565b91507f5369676e6564536166654d6174683a206469766973696f6e206279207a65726f6000830152602082019050919050565b6000613687601683613d03565b91507f4d616e6167657220646f6573206e6f74206578697374000000000000000000006000830152602082019050919050565b6000610160830160008301516136d36000860182612e6c565b5060208301516136e66020860182612e6c565b5060408301516136f96040860182612e6c565b50606083015161370c60608601826137a9565b50608083015161371f60808601826137a9565b5060a083015161373260a08601826137a9565b5060c083015161374560c08601826137a9565b5060e083015161375860e08601826137a9565b5061010083015161376d610100860182612e6c565b506101208301516137826101208601826137a9565b5061014083015184820361014086015261379c8282612e8a565b9150508091505092915050565b6137b281613d6e565b82525050565b6137c181613d6e565b82525050565b60006137d28261353a565b9150819050919050565b60006020820190506137f16000830184612e7b565b92915050565b600060208201905061380c6000830184612e5d565b92915050565b6000602082019050818103600083015261382c8184612ee8565b905092915050565b60006020820190506138496000830184612f46565b92915050565b60006020820190506138646000830184612f55565b92915050565b600060208201905061387f6000830184612f73565b92915050565b600060208201905061389a6000830184612f82565b92915050565b600060208201905081810360008301526138ba8184612f91565b905092915050565b600060408201905081810360008301526138dc8185612f91565b90506138eb60208301846137b8565b9392505050565b6000602082019050818103600083015261390b81612fca565b9050919050565b6000602082019050818103600083015261392b81613030565b9050919050565b6000602082019050818103600083015261394b81613070565b9050919050565b6000602082019050818103600083015261396b816130d6565b9050919050565b6000602082019050818103600083015261398b81613116565b9050919050565b600060208201905081810360008301526139ab81613156565b9050919050565b600060208201905081810360008301526139cb81613196565b9050919050565b600060208201905081810360008301526139eb816131d6565b9050919050565b60006020820190508181036000830152613a0b81613216565b9050919050565b60006020820190508181036000830152613a2b81613256565b9050919050565b60006020820190508181036000830152613a4b816132bc565b9050919050565b60006020820190508181036000830152613a6b81613322565b9050919050565b60006020820190508181036000830152613a8b81613388565b9050919050565b60006020820190508181036000830152613aab816133ee565b9050919050565b60006020820190508181036000830152613acb8161342e565b9050919050565b60006020820190508181036000830152613aeb81613494565b9050919050565b60006020820190508181036000830152613b0b816134d4565b9050919050565b60006020820190508181036000830152613b2b81613554565b9050919050565b60006020820190508181036000830152613b4b81613594565b9050919050565b60006020820190508181036000830152613b6b816135fa565b9050919050565b60006020820190508181036000830152613b8b8161363a565b9050919050565b60006020820190508181036000830152613bab8161367a565b9050919050565b60006020820190508181036000830152613bcc81846136ba565b905092915050565b6000602082019050613be960008301846137b8565b92915050565b6000606082019050613c0460008301866137b8565b613c1160208301856137b8565b613c1e6040830184612f46565b949350505050565b6000604051905081810181811067ffffffffffffffff82111715613c4957600080fd5b8060405250919050565b600067ffffffffffffffff821115613c6a57600080fd5b602082029050602081019050919050565b6000819050602082019050919050565b6000819050602082019050919050565b600081519050919050565b600081519050919050565b600081519050919050565b6000602082019050919050565b6000602082019050919050565b600082825260208201905092915050565b600082825260208201905092915050565b600081905092915050565b600082825260208201905092915050565b6000613d1f82613d4e565b9050919050565b6000613d3182613d4e565b9050919050565b60008115159050919050565b6000819050919050565b600073ffffffffffffffffffffffffffffffffffffffff82169050919050565b6000819050919050565b6000613d8382613df6565b9050919050565b6000613d9582613d9c565b9050919050565b6000613da782613d4e565b9050919050565b6000613db982613dc0565b9050919050565b6000613dcb82613d4e565b9050919050565b6000613ddd82613de4565b9050919050565b6000613def82613d4e565b9050919050565b6000613e0182613e08565b9050919050565b6000613e1382613d4e565b9050919050565b60005b83811015613e38578082015181840152602081019050613e1d565b83811115613e47576000848401525b50505050565b6000601f19601f8301169050919050565b613e6781613d14565b8114613e7257600080fd5b50565b613e7e81613d26565b8114613e8957600080fd5b50565b613e9581613d38565b8114613ea057600080fd5b50565b613eac81613d6e565b8114613eb757600080fd5b5056fea26469706673582212205649a29962c013a09e4456622a9108bef84bb189a33706b35287a15c11ff0f7c64736f6c63430006060033",
  "linkReferences": {},
  "deployedLinkReferences": {}
}