{
  "_format": "hh-sol-artifact-1",
  "contractName": "EFundPlatform",
  "sourceName": "contracts/EFundPlatform.sol",
  "abi": [
    {
      "inputs": [
        {
          "internalType": "address",
          "name": "_fundFactory",
          "type": "address"
        },
        {
          "internalType": "address",
          "name": "_efundToken",
          "type": "address"
        },
        {
          "internalType": "uint256",
          "name": "_softCap",
          "type": "uint256"
        },
        {
          "internalType": "uint256",
          "name": "_hardCap",
          "type": "uint256"
        },
        {
          "internalType": "uint256",
          "name": "_managerMinimalCollateral",
          "type": "uint256"
        }
      ],
      "stateMutability": "nonpayable",
      "type": "constructor"
    },
    {
      "anonymous": false,
      "inputs": [
        {
          "indexed": true,
          "internalType": "address",
          "name": "recipient",
          "type": "address"
        },
        {
          "indexed": true,
          "internalType": "uint256",
          "name": "ethReceived",
          "type": "uint256"
        },
        {
          "indexed": true,
          "internalType": "uint256",
          "name": "nextAvailableClaimDate",
          "type": "uint256"
        }
      ],
      "name": "ClaimHolderRewardSuccessfully",
      "type": "event"
    },
    {
      "stateMutability": "payable",
      "type": "fallback"
    },
    {
      "inputs": [],
      "name": "bronzePeriodRewardPercentage",
      "outputs": [
        {
          "internalType": "int256",
          "name": "",
          "type": "int256"
        }
      ],
      "stateMutability": "view",
      "type": "function"
    },
    {
      "inputs": [
        {
          "internalType": "address",
          "name": "ofAddress",
          "type": "address"
        }
      ],
      "name": "calculateHolderReward",
      "outputs": [
        {
          "internalType": "uint256",
          "name": "reward",
          "type": "uint256"
        }
      ],
      "stateMutability": "view",
      "type": "function"
    },
    {
      "inputs": [
        {
          "internalType": "address",
          "name": "_address",
          "type": "address"
        }
      ],
      "name": "calculateManagerRewardPercentage",
      "outputs": [
        {
          "internalType": "int256",
          "name": "",
          "type": "int256"
        }
      ],
      "stateMutability": "view",
      "type": "function"
    },
    {
      "inputs": [],
      "name": "claimHolderReward",
      "outputs": [],
      "stateMutability": "nonpayable",
      "type": "function"
    },
    {
      "inputs": [],
      "name": "closeFund",
      "outputs": [],
      "stateMutability": "nonpayable",
      "type": "function"
    },
    {
      "inputs": [
        {
          "internalType": "address payable",
          "name": "_swapRouter",
          "type": "address"
        },
        {
          "internalType": "uint256",
          "name": "_fundDurationInMonths",
          "type": "uint256"
        },
        {
          "internalType": "uint256",
          "name": "_softCap",
          "type": "uint256"
        },
        {
          "internalType": "uint256",
          "name": "_hardCap",
          "type": "uint256"
        },
        {
          "internalType": "uint256",
          "name": "_profitFee",
          "type": "uint256"
        },
        {
          "internalType": "uint256",
          "name": "_minimalDepositAmount",
          "type": "uint256"
        },
        {
          "internalType": "uint256",
          "name": "_minTimeUntilFundStart",
          "type": "uint256"
        },
        {
          "internalType": "address payable[]",
          "name": "_allowedTokens",
          "type": "address[]"
        }
      ],
      "name": "createFund",
      "outputs": [
        {
          "internalType": "address",
          "name": "",
          "type": "address"
        }
      ],
      "stateMutability": "payable",
      "type": "function"
    },
    {
      "inputs": [],
      "name": "eFund",
      "outputs": [
        {
          "internalType": "contract IERC20",
          "name": "",
          "type": "address"
        }
      ],
      "stateMutability": "view",
      "type": "function"
    },
    {
      "inputs": [],
      "name": "fundFactory",
      "outputs": [
        {
          "internalType": "contract FundFactory",
          "name": "",
          "type": "address"
        }
      ],
      "stateMutability": "view",
      "type": "function"
    },
    {
      "inputs": [],
      "name": "getAllFunds",
      "outputs": [
        {
          "internalType": "contract HedgeFund[]",
          "name": "",
          "type": "address[]"
        }
      ],
      "stateMutability": "view",
      "type": "function"
    },
    {
      "inputs": [],
      "name": "getCurrentEthBalance",
      "outputs": [
        {
          "internalType": "uint256",
          "name": "",
          "type": "uint256"
        }
      ],
      "stateMutability": "view",
      "type": "function"
    },
    {
      "inputs": [
        {
          "internalType": "address",
          "name": "_investor",
          "type": "address"
        }
      ],
      "name": "getInvestorFunds",
      "outputs": [
        {
          "internalType": "contract HedgeFund[]",
          "name": "",
          "type": "address[]"
        }
      ],
      "stateMutability": "view",
      "type": "function"
    },
    {
      "inputs": [
        {
          "internalType": "address",
          "name": "_manager",
          "type": "address"
        }
      ],
      "name": "getManagerFunds",
      "outputs": [
        {
          "internalType": "contract HedgeFund[]",
          "name": "",
          "type": "address[]"
        }
      ],
      "stateMutability": "view",
      "type": "function"
    },
    {
      "inputs": [],
      "name": "getPlatformData",
      "outputs": [
        {
          "internalType": "uint256",
          "name": "_softCap",
          "type": "uint256"
        },
        {
          "internalType": "uint256",
          "name": "_hardCap",
          "type": "uint256"
        },
        {
          "internalType": "uint256",
          "name": "_minimumTimeUntillFundStart",
          "type": "uint256"
        },
        {
          "internalType": "uint256",
          "name": "_maximumTimeUntillFundStart",
          "type": "uint256"
        },
        {
          "internalType": "uint256",
          "name": "_minimumProfitFee",
          "type": "uint256"
        },
        {
          "internalType": "uint256",
          "name": "_maximumProfitFee",
          "type": "uint256"
        },
        {
          "internalType": "uint256",
          "name": "_minimalManagerCollateral",
          "type": "uint256"
        }
      ],
      "stateMutability": "view",
      "type": "function"
    },
    {
      "inputs": [
        {
          "internalType": "uint256",
          "name": "_topAmount",
          "type": "uint256"
        }
      ],
      "name": "getTopRelevantFunds",
      "outputs": [
        {
          "internalType": "contract HedgeFund[]",
          "name": "",
          "type": "address[]"
        }
      ],
      "stateMutability": "view",
      "type": "function"
    },
    {
      "inputs": [],
      "name": "goldPeriodRewardPercentage",
      "outputs": [
        {
          "internalType": "int256",
          "name": "",
          "type": "int256"
        }
      ],
      "stateMutability": "view",
      "type": "function"
    },
    {
      "inputs": [],
      "name": "goldPeriodStart",
      "outputs": [
        {
          "internalType": "uint256",
          "name": "",
          "type": "uint256"
        }
      ],
      "stateMutability": "view",
      "type": "function"
    },
    {
      "inputs": [],
      "name": "hardCap",
      "outputs": [
        {
          "internalType": "uint256",
          "name": "",
          "type": "uint256"
        }
      ],
      "stateMutability": "view",
      "type": "function"
    },
    {
      "inputs": [
        {
          "internalType": "address",
          "name": "",
          "type": "address"
        }
      ],
      "name": "isExcludedFromReward",
      "outputs": [
        {
          "internalType": "bool",
          "name": "",
          "type": "bool"
        }
      ],
      "stateMutability": "view",
      "type": "function"
    },
    {
      "inputs": [
        {
          "internalType": "address",
          "name": "",
          "type": "address"
        }
      ],
      "name": "isFund",
      "outputs": [
        {
          "internalType": "bool",
          "name": "",
          "type": "bool"
        }
      ],
      "stateMutability": "view",
      "type": "function"
    },
    {
      "inputs": [
        {
          "internalType": "address",
          "name": "",
          "type": "address"
        },
        {
          "internalType": "address",
          "name": "",
          "type": "address"
        }
      ],
      "name": "isInvestorOf",
      "outputs": [
        {
          "internalType": "bool",
          "name": "",
          "type": "bool"
        }
      ],
      "stateMutability": "view",
      "type": "function"
    },
    {
      "inputs": [
        {
          "internalType": "address",
          "name": "",
          "type": "address"
        }
      ],
      "name": "managerFundActivity",
      "outputs": [
        {
          "internalType": "uint256",
          "name": "fundActivityMonths",
          "type": "uint256"
        },
        {
          "internalType": "uint256",
          "name": "completedFunds",
          "type": "uint256"
        },
        {
          "internalType": "uint256",
          "name": "successCompletedFunds",
          "type": "uint256"
        },
        {
          "internalType": "bool",
          "name": "isValue",
          "type": "bool"
        }
      ],
      "stateMutability": "view",
      "type": "function"
    },
    {
      "inputs": [],
      "name": "maximumMinimalDepositAmountFromHardCapPercentage",
      "outputs": [
        {
          "internalType": "uint256",
          "name": "",
          "type": "uint256"
        }
      ],
      "stateMutability": "view",
      "type": "function"
    },
    {
      "inputs": [],
      "name": "maximumProfitFee",
      "outputs": [
        {
          "internalType": "uint256",
          "name": "",
          "type": "uint256"
        }
      ],
      "stateMutability": "view",
      "type": "function"
    },
    {
      "inputs": [],
      "name": "maximumTimeUntillFundStart",
      "outputs": [
        {
          "internalType": "uint256",
          "name": "",
          "type": "uint256"
        }
      ],
      "stateMutability": "view",
      "type": "function"
    },
    {
      "inputs": [],
      "name": "minimalManagerCollateral",
      "outputs": [
        {
          "internalType": "uint256",
          "name": "",
          "type": "uint256"
        }
      ],
      "stateMutability": "view",
      "type": "function"
    },
    {
      "inputs": [],
      "name": "minimumProfitFee",
      "outputs": [
        {
          "internalType": "uint256",
          "name": "",
          "type": "uint256"
        }
      ],
      "stateMutability": "view",
      "type": "function"
    },
    {
      "inputs": [],
      "name": "minimumTimeUntillFundStart",
      "outputs": [
        {
          "internalType": "uint256",
          "name": "",
          "type": "uint256"
        }
      ],
      "stateMutability": "view",
      "type": "function"
    },
    {
      "inputs": [
        {
          "internalType": "address",
          "name": "",
          "type": "address"
        }
      ],
      "name": "nextAvailableRewardClaimDate",
      "outputs": [
        {
          "internalType": "uint256",
          "name": "",
          "type": "uint256"
        }
      ],
      "stateMutability": "view",
      "type": "function"
    },
    {
      "inputs": [],
      "name": "noProfitFundFee",
      "outputs": [
        {
          "internalType": "int256",
          "name": "",
          "type": "int256"
        }
      ],
      "stateMutability": "view",
      "type": "function"
    },
    {
      "inputs": [
        {
          "internalType": "address",
          "name": "_depositorAddress",
          "type": "address"
        }
      ],
      "name": "onDepositMade",
      "outputs": [],
      "stateMutability": "nonpayable",
      "type": "function"
    },
    {
      "inputs": [],
      "name": "percentageBase",
      "outputs": [
        {
          "internalType": "uint256",
          "name": "",
          "type": "uint256"
        }
      ],
      "stateMutability": "view",
      "type": "function"
    },
    {
      "inputs": [],
      "name": "rewardCycleBlock",
      "outputs": [
        {
          "internalType": "uint256",
          "name": "",
          "type": "uint256"
        }
      ],
      "stateMutability": "view",
      "type": "function"
    },
    {
      "inputs": [],
      "name": "silverPeriodRewardPercentage",
      "outputs": [
        {
          "internalType": "int256",
          "name": "",
          "type": "int256"
        }
      ],
      "stateMutability": "view",
      "type": "function"
    },
    {
      "inputs": [],
      "name": "silverPeriodStart",
      "outputs": [
        {
          "internalType": "uint256",
          "name": "",
          "type": "uint256"
        }
      ],
      "stateMutability": "view",
      "type": "function"
    },
    {
      "inputs": [],
      "name": "softCap",
      "outputs": [
        {
          "internalType": "uint256",
          "name": "",
          "type": "uint256"
        }
      ],
      "stateMutability": "view",
      "type": "function"
    },
    {
      "stateMutability": "payable",
      "type": "receive"
    }
  ],
  "bytecode": "0x6101206040523480156200001257600080fd5b5060405162003fd338038062003fd3833981810160405281019062000038919062000268565b600073ffffffffffffffffffffffffffffffffffffffff168573ffffffffffffffffffffffffffffffffffffffff161415620000ab576040517f08c379a0000000000000000000000000000000000000000000000000000000008152600401620000a2906200048a565b60405180910390fd5b600073ffffffffffffffffffffffffffffffffffffffff168473ffffffffffffffffffffffffffffffffffffffff1614156200011e576040517f08c379a00000000000000000000000000000000000000000000000000000000081526004016200011590620004ac565b60405180910390fd5b82821162000163576040517f08c379a00000000000000000000000000000000000000000000000000000000081526004016200015a90620004ce565b60405180910390fd5b818110620001a8576040517f08c379a00000000000000000000000000000000000000000000000000000000081526004016200019f90620004f0565b60405180910390fd5b8161010081815250508260e081815250508060c081815250508473ffffffffffffffffffffffffffffffffffffffff1660808173ffffffffffffffffffffffffffffffffffffffff1660601b815250508373ffffffffffffffffffffffffffffffffffffffff1660a08173ffffffffffffffffffffffffffffffffffffffff1660601b81525050505050505062000595565b6000815190506200024b8162000561565b92915050565b60008151905062000262816200057b565b92915050565b600080600080600060a086880312156200028157600080fd5b600062000291888289016200023a565b9550506020620002a4888289016200023a565b9450506040620002b78882890162000251565b9350506060620002ca8882890162000251565b9250506080620002dd8882890162000251565b9150509295509295909350565b6000620002f960248362000512565b91507f496e76616c69642066756e64466163746f727920616464726573732070726f7660008301527f69646564000000000000000000000000000000000000000000000000000000006020830152604082019050919050565b60006200036160248362000512565b91507f496e76616c6964206546756e6420746f6b656e20616464726573732070726f7660008301527f69646564000000000000000000000000000000000000000000000000000000006020830152604082019050919050565b6000620003c960258362000512565b91507f4861726420636170206d75737420626520626967676572207468616e20736f6660008301527f74206361700000000000000000000000000000000000000000000000000000006020830152604082019050919050565b600062000431602f8362000512565b91507f4d696e756d616c206d616e6167657220636f6c6c61746572616c2063616e6e6f60008301527f74206265203e3d206861726443617000000000000000000000000000000000006020830152604082019050919050565b60006020820190508181036000830152620004a581620002ea565b9050919050565b60006020820190508181036000830152620004c78162000352565b9050919050565b60006020820190508181036000830152620004e981620003ba565b9050919050565b600060208201905081810360008301526200050b8162000422565b9050919050565b600082825260208201905092915050565b6000620005308262000537565b9050919050565b600073ffffffffffffffffffffffffffffffffffffffff82169050919050565b6000819050919050565b6200056c8162000523565b81146200057857600080fd5b50565b620005868162000557565b81146200059257600080fd5b50565b60805160601c60a05160601c60c05160e051610100516139b76200061c600039806113ec5280611e0c52806124915250806112ab52806114175280611deb525080610ef152806114dd5280611e37525080610f1c5280610fc452806116565280611b095280611bb65280611c5f5280611d1e525080610ec852806115f152506139b76000f3fe6080604052600436106102085760003560e01c8063a1ef85dc11610118578063de145692116100a0578063f4817d6d1161006f578063f4817d6d146107a3578063f61dc9e5146107e0578063fb86a4041461080b578063fc8fc79714610836578063fd56b302146108615761020f565b8063de145692146106f3578063e2164cdb1461071e578063e2c9b8a91461074f578063e3a1c6fe1461078c5761020f565b8063ca5b42cf116100e7578063ca5b42cf146105e6578063ca8f4ae814610623578063cc9bc68b14610660578063d0b4fa051461068b578063d10d51a2146106c85761020f565b8063a1ef85dc14610511578063b0c72e901461053c578063b2c50b5314610579578063c7153b89146105a95761020f565b8063576816d91161019b5780637217f4bc1161016a5780637217f4bc1461041357806388f820201461043e5780638c5007871461047b578063906a26e0146104bb578063941e041c146104e65761020f565b8063576816d91461037b5780635c819281146103a6578063611b5322146103d157806365700481146103fc5761020f565b806326a3b51f116101d757806326a3b51f146102cf5780632ed6f71c146102fa5780633dea9e661461032557806344e8bc7d146103505761020f565b806308b89603146102115780631868b7291461023c5780631c69b4641461027957806322ab155e146102a45761020f565b3661020f57005b005b34801561021d57600080fd5b5061022661088a565b6040516102339190613684565b60405180910390f35b34801561024857600080fd5b50610263600480360381019061025e9190612b67565b610891565b60405161027091906133d4565b60405180910390f35b34801561028557600080fd5b5061028e610e26565b60405161029b91906133d4565b60405180910390f35b3480156102b057600080fd5b506102b9610eb4565b6040516102c69190613684565b60405180910390f35b3480156102db57600080fd5b506102e4610eb9565b6040516102f19190613447565b60405180910390f35b34801561030657600080fd5b5061030f610ebe565b60405161031c9190613684565b60405180910390f35b34801561033157600080fd5b5061033a610ec6565b6040516103479190613411565b60405180910390f35b34801561035c57600080fd5b50610365610eea565b6040516103729190613684565b60405180910390f35b34801561038757600080fd5b50610390610eef565b60405161039d9190613684565b60405180910390f35b3480156103b257600080fd5b506103bb610f13565b6040516103c89190613684565b60405180910390f35b3480156103dd57600080fd5b506103e6610f1a565b6040516103f3919061342c565b60405180910390f35b34801561040857600080fd5b50610411610f3e565b005b34801561041f57600080fd5b50610428611245565b6040516104359190613684565b60405180910390f35b34801561044a57600080fd5b50610465600480360381019061046091906129e6565b61124c565b60405161047291906133f6565b60405180910390f35b34801561048757600080fd5b506104a2600480360381019061049d91906129e6565b61126c565b6040516104b2949392919061369f565b60405180910390f35b3480156104c757600080fd5b506104d06112a9565b6040516104dd9190613684565b60405180910390f35b3480156104f257600080fd5b506104fb6112cd565b6040516105089190613684565b60405180910390f35b34801561051d57600080fd5b506105266112d4565b6040516105339190613684565b60405180910390f35b34801561054857600080fd5b50610563600480360381019061055e91906129e6565b6112d9565b60405161057091906133d4565b60405180910390f35b610593600480360381019061058e9190612a61565b6113a6565b6040516105a0919061339e565b60405180910390f35b3480156105b557600080fd5b506105d060048036038101906105cb91906129e6565b6119ca565b6040516105dd91906133f6565b60405180910390f35b3480156105f257600080fd5b5061060d60048036038101906106089190612b2b565b6119ea565b60405161061a91906133f6565b60405180910390f35b34801561062f57600080fd5b5061064a600480360381019061064591906129e6565b611a19565b6040516106579190613447565b60405180910390f35b34801561066c57600080fd5b50610675611afc565b6040516106829190613684565b60405180910390f35b34801561069757600080fd5b506106b260048036038101906106ad91906129e6565b611b01565b6040516106bf9190613684565b60405180910390f35b3480156106d457600080fd5b506106dd611dd4565b6040516106ea9190613447565b60405180910390f35b3480156106ff57600080fd5b50610708611dd9565b6040516107159190613447565b60405180910390f35b34801561072a57600080fd5b50610733611dde565b60405161074697969594939291906136e4565b60405180910390f35b34801561075b57600080fd5b50610776600480360381019061077191906129e6565b611e6d565b60405161078391906133d4565b60405180910390f35b34801561079857600080fd5b506107a1611f3a565b005b3480156107af57600080fd5b506107ca60048036038101906107c591906129e6565b612472565b6040516107d79190613684565b60405180910390f35b3480156107ec57600080fd5b506107f561248a565b6040516108029190613447565b60405180910390f35b34801561081757600080fd5b5061082061248f565b60405161082d9190613684565b60405180910390f35b34801561084257600080fd5b5061084b6124b3565b6040516108589190613684565b60405180910390f35b34801561086d57600080fd5b50610888600480360381019061088391906129e6565b6124b8565b005b62ed4e0081565b606060008080549050141561092e57600080548060200260200160405190810160405280929190818152602001828054801561092257602002820191906000526020600020905b8160009054906101000a900473ffffffffffffffffffffffffffffffffffffffff1673ffffffffffffffffffffffffffffffffffffffff16815260200190600101908083116108d8575b50505050509050610e21565b60008054905082106109435760008054905091505b606060008054905067ffffffffffffffff8111801561096157600080fd5b506040519080825280602002602001820160405280156109905781602001602082028036833780820191505090505b50905060008090505b600080549050811015610a3157600081815481106109b357fe5b9060005260206000200160009054906101000a900473ffffffffffffffffffffffffffffffffffffffff168282815181106109ea57fe5b602002602001019073ffffffffffffffffffffffffffffffffffffffff16908173ffffffffffffffffffffffffffffffffffffffff16815250508080600101915050610999565b5060608367ffffffffffffffff81118015610a4b57600080fd5b50604051908082528060200260200182016040528015610a7a5781602001602082028036833780820191505090505b50905060008090505b8251811015610d8d5760008090505b60018285510303811015610d7f5760046000856001840181518110610ab357fe5b602002602001015173ffffffffffffffffffffffffffffffffffffffff16636209ec2d6040518163ffffffff1660e01b815260040160206040518083038186803b158015610b0057600080fd5b505afa158015610b14573d6000803e3d6000fd5b505050506040513d601f19601f82011682018060405250810190610b389190612a38565b73ffffffffffffffffffffffffffffffffffffffff1673ffffffffffffffffffffffffffffffffffffffff1681526020019081526020016000206002015460046000868481518110610b8657fe5b602002602001015173ffffffffffffffffffffffffffffffffffffffff16636209ec2d6040518163ffffffff1660e01b815260040160206040518083038186803b158015610bd357600080fd5b505afa158015610be7573d6000803e3d6000fd5b505050506040513d601f19601f82011682018060405250810190610c0b9190612a38565b73ffffffffffffffffffffffffffffffffffffffff1673ffffffffffffffffffffffffffffffffffffffff16815260200190815260200160002060020154118015610cac5750836001820181518110610c6057fe5b602002602001015173ffffffffffffffffffffffffffffffffffffffff1631848281518110610c8b57fe5b602002602001015173ffffffffffffffffffffffffffffffffffffffff1631115b15610d72576000846001830181518110610cc257fe5b60200260200101519050848281518110610cd857fe5b6020026020010151856001840181518110610cef57fe5b602002602001019073ffffffffffffffffffffffffffffffffffffffff16908173ffffffffffffffffffffffffffffffffffffffff168152505080858381518110610d3657fe5b602002602001019073ffffffffffffffffffffffffffffffffffffffff16908173ffffffffffffffffffffffffffffffffffffffff1681525050505b8080600101915050610a92565b508080600101915050610a83565b506000600160008054905003905060008090505b85811015610e1957838281518110610db557fe5b6020026020010151838281518110610dc957fe5b602002602001019073ffffffffffffffffffffffffffffffffffffffff16908173ffffffffffffffffffffffffffffffffffffffff16815250508180600190039250508080600101915050610da1565b508193505050505b919050565b60606000805480602002602001604051908101604052809291908181526020018280548015610eaa57602002820191906000526020600020905b8160009054906101000a900473ffffffffffffffffffffffffffffffffffffffff1673ffffffffffffffffffffffffffffffffffffffff1681526020019060010190808311610e60575b5050505050905090565b606481565b601e81565b600047905090565b7f000000000000000000000000000000000000000000000000000000000000000081565b600081565b7f000000000000000000000000000000000000000000000000000000000000000081565b6276a70081565b7f000000000000000000000000000000000000000000000000000000000000000081565b42600660003373ffffffffffffffffffffffffffffffffffffffff1673ffffffffffffffffffffffffffffffffffffffff168152602001908152602001600020541115610fc0576040517f08c379a0000000000000000000000000000000000000000000000000000000008152600401610fb790613462565b60405180910390fd5b60007f000000000000000000000000000000000000000000000000000000000000000073ffffffffffffffffffffffffffffffffffffffff166370a08231336040518263ffffffff1660e01b815260040161101b91906133b9565b60206040518083038186803b15801561103357600080fd5b505afa158015611047573d6000803e3d6000fd5b505050506040513d601f19601f8201168201806040525081019061106b9190612b90565b116110ab576040517f08c379a00000000000000000000000000000000000000000000000000000000081526004016110a2906135a2565b60405180910390fd5b60006110b633611b01565b90506110ce62093a804261271190919063ffffffff16565b600660003373ffffffffffffffffffffffffffffffffffffffff1673ffffffffffffffffffffffffffffffffffffffff1681526020019081526020016000208190555060003373ffffffffffffffffffffffffffffffffffffffff168260405161113790613389565b60006040518083038185875af1925050503d8060008114611174576040519150601f19603f3d011682016040523d82523d6000602084013e611179565b606091505b50509050806111bd576040517f08c379a00000000000000000000000000000000000000000000000000000000081526004016111b490613622565b60405180910390fd5b600660003373ffffffffffffffffffffffffffffffffffffffff1673ffffffffffffffffffffffffffffffffffffffff16815260200190815260200160002054823373ffffffffffffffffffffffffffffffffffffffff167f22eee7f02e36f8323e1e4f98d1b2002e1ec68523f572f475011a03969d292aa560405160405180910390a45050565b62093a8081565b60076020528060005260406000206000915054906101000a900460ff1681565b60046020528060005260406000206000915090508060000154908060010154908060020154908060030160009054906101000a900460ff16905084565b7f000000000000000000000000000000000000000000000000000000000000000081565b620d2f0081565b600a81565b6060600160008373ffffffffffffffffffffffffffffffffffffffff1673ffffffffffffffffffffffffffffffffffffffff16815260200190815260200160002080548060200260200160405190810160405280929190818152602001828054801561139a57602002820191906000526020600020905b8160009054906101000a900473ffffffffffffffffffffffffffffffffffffffff1673ffffffffffffffffffffffffffffffffffffffff1681526020019060010190808311611350575b50505050509050919050565b60008686116113ea576040517f08c379a00000000000000000000000000000000000000000000000000000000081526004016113e190613582565b60405180910390fd5b7f0000000000000000000000000000000000000000000000000000000000000000861115801561143a57507f00000000000000000000000000000000000000000000000000000000000000008710155b611479576040517f08c379a000000000000000000000000000000000000000000000000000000000815260040161147090613602565b60405180910390fd5b60008411801561149c5750611498600a8761276690919063ffffffff16565b8411155b6114db576040517f08c379a00000000000000000000000000000000000000000000000000000000081526004016114d290613522565b60405180910390fd5b7f0000000000000000000000000000000000000000000000000000000000000000341015801561150a57508534105b611549576040517f08c379a0000000000000000000000000000000000000000000000000000000008152600401611540906134c2565b60405180910390fd5b6001851015801561155b5750600a8511155b61159a576040517f08c379a000000000000000000000000000000000000000000000000000000000815260040161159190613642565b60405180910390fd5b600083101580156115ae5750620d2f008311155b6115ed576040517f08c379a00000000000000000000000000000000000000000000000000000000081526004016115e490613482565b60405180910390fd5b60007f000000000000000000000000000000000000000000000000000000000000000073ffffffffffffffffffffffffffffffffffffffff16637072997d346040518061018001604052808e73ffffffffffffffffffffffffffffffffffffffff1681526020017f000000000000000000000000000000000000000000000000000000000000000073ffffffffffffffffffffffffffffffffffffffff1681526020013073ffffffffffffffffffffffffffffffffffffffff1681526020018c81526020018b81526020018a81526020018981526020018881526020013373ffffffffffffffffffffffffffffffffffffffff1681526020018d8152602001348152602001878152506040518363ffffffff1660e01b81526004016117129190613662565b6020604051808303818588803b15801561172b57600080fd5b505af115801561173f573d6000803e3d6000fd5b50505050506040513d601f19601f820116820180604052508101906117649190612a0f565b90506000819080600181540180825580915050600190039060005260206000200160009091909190916101000a81548173ffffffffffffffffffffffffffffffffffffffff021916908373ffffffffffffffffffffffffffffffffffffffff160217905550600160003373ffffffffffffffffffffffffffffffffffffffff1673ffffffffffffffffffffffffffffffffffffffff168152602001908152602001600020819080600181540180825580915050600190039060005260206000200160009091909190916101000a81548173ffffffffffffffffffffffffffffffffffffffff021916908373ffffffffffffffffffffffffffffffffffffffff1602179055506001600360008373ffffffffffffffffffffffffffffffffffffffff1673ffffffffffffffffffffffffffffffffffffffff16815260200190815260200160002060006101000a81548160ff021916908315150217905550600460003373ffffffffffffffffffffffffffffffffffffffff1673ffffffffffffffffffffffffffffffffffffffff16815260200190815260200160002060030160009054906101000a900460ff166119bd57604051806080016040528060008152602001600081526020016000815260200160011515815250600460003373ffffffffffffffffffffffffffffffffffffffff1673ffffffffffffffffffffffffffffffffffffffff16815260200190815260200160002060008201518160000155602082015181600101556040820151816002015560608201518160030160006101000a81548160ff0219169083151502179055509050505b5098975050505050505050565b60036020528060005260406000206000915054906101000a900460ff1681565b60056020528160005260406000206020528060005260406000206000915091509054906101000a900460ff1681565b6000600460008373ffffffffffffffffffffffffffffffffffffffff1673ffffffffffffffffffffffffffffffffffffffff16815260200190815260200160002060030160009054906101000a900460ff16611aaa576040517f08c379a0000000000000000000000000000000000000000000000000000000008152600401611aa1906134e2565b60405180910390fd5b611af5600460008473ffffffffffffffffffffffffffffffffffffffff1673ffffffffffffffffffffffffffffffffffffffff168152602001908152602001600020600001546127bc565b9050919050565b600a81565b600080611d177f000000000000000000000000000000000000000000000000000000000000000073ffffffffffffffffffffffffffffffffffffffff166370a0823160006040518263ffffffff1660e01b8152600401611b6191906133b9565b60206040518083038186803b158015611b7957600080fd5b505afa158015611b8d573d6000803e3d6000fd5b505050506040513d601f19601f82011682018060405250810190611bb19190612b90565b611d097f000000000000000000000000000000000000000000000000000000000000000073ffffffffffffffffffffffffffffffffffffffff166370a08231306040518263ffffffff1660e01b8152600401611c0d91906133b9565b60206040518083038186803b158015611c2557600080fd5b505afa158015611c39573d6000803e3d6000fd5b505050506040513d601f19601f82011682018060405250810190611c5d9190612b90565b7f000000000000000000000000000000000000000000000000000000000000000073ffffffffffffffffffffffffffffffffffffffff166318160ddd6040518163ffffffff1660e01b815260040160206040518083038186803b158015611cc357600080fd5b505afa158015611cd7573d6000803e3d6000fd5b505050506040513d601f19601f82011682018060405250810190611cfb9190612b90565b6127f090919063ffffffff16565b6127f090919063ffffffff16565b9050611dcc7f000000000000000000000000000000000000000000000000000000000000000073ffffffffffffffffffffffffffffffffffffffff166370a08231856040518263ffffffff1660e01b8152600401611d75919061339e565b60206040518083038186803b158015611d8d57600080fd5b505afa158015611da1573d6000803e3d6000fd5b505050506040513d601f19601f82011682018060405250810190611dc59190612b90565b4783612840565b915050919050565b600381565b600a81565b60008060008060008060007f00000000000000000000000000000000000000000000000000000000000000007f00000000000000000000000000000000000000000000000000000000000000006000620d2f006001600a7f0000000000000000000000000000000000000000000000000000000000000000965096509650965096509650965090919293949596565b6060600260008373ffffffffffffffffffffffffffffffffffffffff1673ffffffffffffffffffffffffffffffffffffffff168152602001908152602001600020805480602002602001604051908101604052809291908181526020018280548015611f2e57602002820191906000526020600020905b8160009054906101000a900473ffffffffffffffffffffffffffffffffffffffff1673ffffffffffffffffffffffffffffffffffffffff1681526020019060010190808311611ee4575b50505050509050919050565b600360003373ffffffffffffffffffffffffffffffffffffffff1673ffffffffffffffffffffffffffffffffffffffff16815260200190815260200160002060009054906101000a900460ff16611fc6576040517f08c379a0000000000000000000000000000000000000000000000000000000008152600401611fbd90613562565b60405180910390fd5b6000339050428173ffffffffffffffffffffffffffffffffffffffff1663439f5ac26040518163ffffffff1660e01b815260040160206040518083038186803b15801561201257600080fd5b505afa158015612026573d6000803e3d6000fd5b505050506040513d601f19601f8201168201806040525081019061204a9190612b90565b1061208a576040517f08c379a0000000000000000000000000000000000000000000000000000000008152600401612081906135e2565b60405180910390fd5b60008173ffffffffffffffffffffffffffffffffffffffff16636209ec2d6040518163ffffffff1660e01b815260040160206040518083038186803b1580156120d257600080fd5b505afa1580156120e6573d6000803e3d6000fd5b505050506040513d601f19601f8201168201806040525081019061210a9190612a38565b90506000600460008373ffffffffffffffffffffffffffffffffffffffff1673ffffffffffffffffffffffffffffffffffffffff1681526020019081526020016000206000015490506121e38373ffffffffffffffffffffffffffffffffffffffff16636da797c96040518163ffffffff1660e01b815260040160206040518083038186803b15801561219c57600080fd5b505afa1580156121b0573d6000803e3d6000fd5b505050506040513d601f19601f820116820180604052508101906121d49190612b90565b8261271190919063ffffffff16565b600460008473ffffffffffffffffffffffffffffffffffffffff1673ffffffffffffffffffffffffffffffffffffffff1681526020019081526020016000206000018190555061227f6001600460008573ffffffffffffffffffffffffffffffffffffffff1673ffffffffffffffffffffffffffffffffffffffff1681526020019081526020016000206001015461271190919063ffffffff16565b600460008473ffffffffffffffffffffffffffffffffffffffff1673ffffffffffffffffffffffffffffffffffffffff168152602001908152602001600020600101819055506124278373ffffffffffffffffffffffffffffffffffffffff166338bde7916040518163ffffffff1660e01b815260040160206040518083038186803b15801561230e57600080fd5b505afa158015612322573d6000803e3d6000fd5b505050506040513d601f19601f820116820180604052508101906123469190612b90565b8473ffffffffffffffffffffffffffffffffffffffff16632629f1f46040518163ffffffff1660e01b815260040160206040518083038186803b15801561238c57600080fd5b505afa1580156123a0573d6000803e3d6000fd5b505050506040513d601f19601f820116820180604052508101906123c49190612b90565b116123d05760006123d3565b60015b60ff16600460008573ffffffffffffffffffffffffffffffffffffffff1673ffffffffffffffffffffffffffffffffffffffff1681526020019081526020016000206002015461271190919063ffffffff16565b600460008473ffffffffffffffffffffffffffffffffffffffff1673ffffffffffffffffffffffffffffffffffffffff16815260200190815260200160002060020181905550505050565b60066020528060005260406000206000915090505481565b601481565b7f000000000000000000000000000000000000000000000000000000000000000081565b600181565b600360003373ffffffffffffffffffffffffffffffffffffffff1673ffffffffffffffffffffffffffffffffffffffff16815260200190815260200160002060009054906101000a900460ff16612544576040517f08c379a000000000000000000000000000000000000000000000000000000000815260040161253b90613562565b60405180910390fd5b600560008273ffffffffffffffffffffffffffffffffffffffff1673ffffffffffffffffffffffffffffffffffffffff16815260200190815260200160002060003373ffffffffffffffffffffffffffffffffffffffff1673ffffffffffffffffffffffffffffffffffffffff16815260200190815260200160002060009054906101000a900460ff16156125d85761270e565b6001600560008373ffffffffffffffffffffffffffffffffffffffff1673ffffffffffffffffffffffffffffffffffffffff16815260200190815260200160002060003373ffffffffffffffffffffffffffffffffffffffff1673ffffffffffffffffffffffffffffffffffffffff16815260200190815260200160002060006101000a81548160ff021916908315150217905550600260008273ffffffffffffffffffffffffffffffffffffffff1673ffffffffffffffffffffffffffffffffffffffff168152602001908152602001600020339080600181540180825580915050600190039060005260206000200160009091909190916101000a81548173ffffffffffffffffffffffffffffffffffffffff021916908373ffffffffffffffffffffffffffffffffffffffff1602179055505b50565b60008082840190508381101561275c576040517f08c379a0000000000000000000000000000000000000000000000000000000008152600401612753906134a2565b60405180910390fd5b8091505092915050565b60008082116127aa576040517f08c379a00000000000000000000000000000000000000000000000000000000081526004016127a190613542565b60405180910390fd5b8183816127b357fe5b04905092915050565b60006276a7008210156127d257600a90506127eb565b62ed4e008210156127e657601490506127eb565b601e90505b919050565b600082821115612835576040517f08c379a000000000000000000000000000000000000000000000000000000000815260040161282c90613502565b60405180910390fd5b818303905092915050565b6000806128688361285a878761287590919063ffffffff16565b61276690919063ffffffff16565b9050809150509392505050565b60008083141561288857600090506128df565b600082840290508284828161289957fe5b04146128da576040517f08c379a00000000000000000000000000000000000000000000000000000000081526004016128d1906135c2565b60405180910390fd5b809150505b92915050565b6000813590506128f48161393c565b92915050565b6000815190506129098161393c565b92915050565b60008135905061291e81613953565b92915050565b60008151905061293381613953565b92915050565b600082601f83011261294a57600080fd5b813561295d61295882613780565b613753565b9150818183526020840193506020810190508385602084028201111561298257600080fd5b60005b838110156129b25781612998888261290f565b845260208401935060208301925050600181019050612985565b5050505092915050565b6000813590506129cb8161396a565b92915050565b6000815190506129e08161396a565b92915050565b6000602082840312156129f857600080fd5b6000612a06848285016128e5565b91505092915050565b600060208284031215612a2157600080fd5b6000612a2f848285016128fa565b91505092915050565b600060208284031215612a4a57600080fd5b6000612a5884828501612924565b91505092915050565b600080600080600080600080610100898b031215612a7e57600080fd5b6000612a8c8b828c0161290f565b9850506020612a9d8b828c016129bc565b9750506040612aae8b828c016129bc565b9650506060612abf8b828c016129bc565b9550506080612ad08b828c016129bc565b94505060a0612ae18b828c016129bc565b93505060c0612af28b828c016129bc565b92505060e089013567ffffffffffffffff811115612b0f57600080fd5b612b1b8b828c01612939565b9150509295985092959890939650565b60008060408385031215612b3e57600080fd5b6000612b4c858286016128e5565b9250506020612b5d858286016128e5565b9150509250929050565b600060208284031215612b7957600080fd5b6000612b87848285016129bc565b91505092915050565b600060208284031215612ba257600080fd5b6000612bb0848285016129d1565b91505092915050565b6000612bc58383612bf8565b60208301905092915050565b6000612bdd8383612cf0565b60208301905092915050565b612bf28161389a565b82525050565b612c0181613848565b82525050565b612c1081613836565b82525050565b6000612c21826137c8565b612c2b81856137f8565b9350612c36836137a8565b8060005b83811015612c67578151612c4e8882612bb9565b9750612c59836137de565b925050600181019050612c3a565b5085935050505092915050565b6000612c7f826137d3565b612c898185613809565b9350612c94836137b8565b8060005b83811015612cc5578151612cac8882612bd1565b9750612cb7836137eb565b925050600181019050612c98565b5085935050505092915050565b612cdb8161385a565b82525050565b612cea816138ac565b82525050565b612cf9816138d0565b82525050565b612d08816138f4565b82525050565b612d1781613866565b82525050565b6000612d2a602183613825565b91507f4572726f723a206e65787420617661696c61626c65206e6f742072656163686560008301527f64000000000000000000000000000000000000000000000000000000000000006020830152604082019050919050565b6000612d90603983613825565b91507f4d696e54696d65556e74696c6c46756e6453746172742076616c75652069732060008301527f6f757473696465207468652066756e64537461727420676170000000000000006020830152604082019050919050565b6000612df6601b83613825565b91507f536166654d6174683a206164646974696f6e206f766572666c6f7700000000006000830152602082019050919050565b6000612e36603e83613825565b91507f76616c7565206d757374206265203c20686172642063617020616e64203e207460008301527f68616e206d696e696d756d206d616e6167657220636f6c6c61746572616c00006020830152604082019050919050565b6000612e9c601d83613825565b91507f41646472657373206973206e6f7420612066756e64206d616e616765720000006000830152602082019050919050565b6000612edc601e83613825565b91507f536166654d6174683a207375627472616374696f6e206f766572666c6f7700006000830152602082019050919050565b6000612f1c601c83613825565b91507f496e76616c6964206d696e696d616c4465706f736974416d6f756e74000000006000830152602082019050919050565b6000612f5c601a83613825565b91507f536166654d6174683a206469766973696f6e206279207a65726f0000000000006000830152602082019050919050565b6000612f9c601c83613825565b91507f43616c6c65722061646472657373206973206e6f7420612066756e64000000006000830152602082019050919050565b6000612fdc602583613825565b91507f4861726420636170206d75737420626520626967676572207468616e20736f6660008301527f74206361700000000000000000000000000000000000000000000000000000006020830152604082019050919050565b6000613042602a83613825565b91507f4572726f723a206d757374206f776e206546756e64546f6b656e20746f20636c60008301527f61696d20726577617264000000000000000000000000000000000000000000006020830152604082019050919050565b60006130a8602183613825565b91507f536166654d6174683a206d756c7469706c69636174696f6e206f766572666c6f60008301527f77000000000000000000000000000000000000000000000000000000000000006020830152604082019050919050565b600061310e601583613825565b91507f46756e64206973206e6f7420636f6d706c6574656400000000000000000000006000830152602082019050919050565b600061314e603383613825565b91507f486172644361702076616c756573206973206f7574736964652074686520706c60008301527f6174666f726d2064656661756c742063617073000000000000000000000000006020830152604082019050919050565b60006131b460008361381a565b9150600082019050919050565b60006131ce601d83613825565b91507f4572726f723a2043616e6e6f74207769746864726177207265776172640000006000830152602082019050919050565b600061320e603083613825565b91507f4d616e61676572206665652076616c7565206973206f7574736964652074686560008301527f206d616e616765722066656520676170000000000000000000000000000000006020830152604082019050919050565b6000610180830160008301516132806000860182612bf8565b5060208301516132936020860182612bf8565b5060408301516132a66040860182612bf8565b5060608301516132b9606086018261336b565b5060808301516132cc608086018261336b565b5060a08301516132df60a086018261336b565b5060c08301516132f260c086018261336b565b5060e083015161330560e086018261336b565b5061010083015161331a610100860182612bf8565b5061012083015161332f61012086018261336b565b5061014083015161334461014086018261336b565b5061016083015184820361016086015261335e8282612c16565b9150508091505092915050565b61337481613890565b82525050565b61338381613890565b82525050565b6000613394826131a7565b9150819050919050565b60006020820190506133b36000830184612c07565b92915050565b60006020820190506133ce6000830184612be9565b92915050565b600060208201905081810360008301526133ee8184612c74565b905092915050565b600060208201905061340b6000830184612cd2565b92915050565b60006020820190506134266000830184612ce1565b92915050565b60006020820190506134416000830184612cff565b92915050565b600060208201905061345c6000830184612d0e565b92915050565b6000602082019050818103600083015261347b81612d1d565b9050919050565b6000602082019050818103600083015261349b81612d83565b9050919050565b600060208201905081810360008301526134bb81612de9565b9050919050565b600060208201905081810360008301526134db81612e29565b9050919050565b600060208201905081810360008301526134fb81612e8f565b9050919050565b6000602082019050818103600083015261351b81612ecf565b9050919050565b6000602082019050818103600083015261353b81612f0f565b9050919050565b6000602082019050818103600083015261355b81612f4f565b9050919050565b6000602082019050818103600083015261357b81612f8f565b9050919050565b6000602082019050818103600083015261359b81612fcf565b9050919050565b600060208201905081810360008301526135bb81613035565b9050919050565b600060208201905081810360008301526135db8161309b565b9050919050565b600060208201905081810360008301526135fb81613101565b9050919050565b6000602082019050818103600083015261361b81613141565b9050919050565b6000602082019050818103600083015261363b816131c1565b9050919050565b6000602082019050818103600083015261365b81613201565b9050919050565b6000602082019050818103600083015261367c8184613267565b905092915050565b6000602082019050613699600083018461337a565b92915050565b60006080820190506136b4600083018761337a565b6136c1602083018661337a565b6136ce604083018561337a565b6136db6060830184612cd2565b95945050505050565b600060e0820190506136f9600083018a61337a565b613706602083018961337a565b613713604083018861337a565b613720606083018761337a565b61372d608083018661337a565b61373a60a083018561337a565b61374760c083018461337a565b98975050505050505050565b6000604051905081810181811067ffffffffffffffff8211171561377657600080fd5b8060405250919050565b600067ffffffffffffffff82111561379757600080fd5b602082029050602081019050919050565b6000819050602082019050919050565b6000819050602082019050919050565b600081519050919050565b600081519050919050565b6000602082019050919050565b6000602082019050919050565b600082825260208201905092915050565b600082825260208201905092915050565b600081905092915050565b600082825260208201905092915050565b600061384182613870565b9050919050565b600061385382613870565b9050919050565b60008115159050919050565b6000819050919050565b600073ffffffffffffffffffffffffffffffffffffffff82169050919050565b6000819050919050565b60006138a582613918565b9050919050565b60006138b7826138be565b9050919050565b60006138c982613870565b9050919050565b60006138db826138e2565b9050919050565b60006138ed82613870565b9050919050565b60006138ff82613906565b9050919050565b600061391182613870565b9050919050565b60006139238261392a565b9050919050565b600061393582613870565b9050919050565b61394581613836565b811461395057600080fd5b50565b61395c81613848565b811461396757600080fd5b50565b61397381613890565b811461397e57600080fd5b5056fea264697066735822122008151196641e967ec2607260975dcd92f0003414f7f73cdf745c20cbca0d3ab464736f6c63430006060033",
  "linkReferences": {},
  "deployedLinkReferences": {}
}