{
  "_format": "hh-sol-artifact-1",
  "contractName": "EFundPlatform",
  "sourceName": "contracts/EFundPlatform.sol",
  "abi": [
    {
      "inputs": [
        {
          "internalType": "address",
          "name": "_fundFactory",
          "type": "address"
        },
        {
          "internalType": "address",
          "name": "_efundToken",
          "type": "address"
        },
        {
          "internalType": "uint256",
          "name": "_softCap",
          "type": "uint256"
        },
        {
          "internalType": "uint256",
          "name": "_hardCap",
          "type": "uint256"
        }
      ],
      "stateMutability": "nonpayable",
      "type": "constructor"
    },
    {
      "anonymous": false,
      "inputs": [
        {
          "indexed": true,
          "internalType": "address",
          "name": "recipient",
          "type": "address"
        },
        {
          "indexed": true,
          "internalType": "uint256",
          "name": "ethReceived",
          "type": "uint256"
        },
        {
          "indexed": true,
          "internalType": "uint256",
          "name": "nextAvailableClaimDate",
          "type": "uint256"
        }
      ],
      "name": "ClaimHolderRewardSuccessfully",
      "type": "event"
    },
    {
      "stateMutability": "payable",
      "type": "fallback"
    },
    {
      "inputs": [],
      "name": "bronzePeriodRewardPercentage",
      "outputs": [
        {
          "internalType": "int256",
          "name": "",
          "type": "int256"
        }
      ],
      "stateMutability": "view",
      "type": "function"
    },
    {
      "inputs": [
        {
          "internalType": "address",
          "name": "ofAddress",
          "type": "address"
        }
      ],
      "name": "calculateHolderReward",
      "outputs": [
        {
          "internalType": "uint256",
          "name": "reward",
          "type": "uint256"
        }
      ],
      "stateMutability": "view",
      "type": "function"
    },
    {
      "inputs": [
        {
          "internalType": "address",
          "name": "_address",
          "type": "address"
        }
      ],
      "name": "calculateManagerRewardPercentage",
      "outputs": [
        {
          "internalType": "int256",
          "name": "",
          "type": "int256"
        }
      ],
      "stateMutability": "view",
      "type": "function"
    },
    {
      "inputs": [],
      "name": "claimHolderReward",
      "outputs": [],
      "stateMutability": "nonpayable",
      "type": "function"
    },
    {
      "inputs": [],
      "name": "closeFund",
      "outputs": [],
      "stateMutability": "nonpayable",
      "type": "function"
    },
    {
      "inputs": [
        {
          "internalType": "address payable",
          "name": "_swapRouter",
          "type": "address"
        },
        {
          "internalType": "uint256",
          "name": "_fundDurationInMonths",
          "type": "uint256"
        },
        {
          "internalType": "uint256",
          "name": "_softCap",
          "type": "uint256"
        },
        {
          "internalType": "uint256",
          "name": "_hardCap",
          "type": "uint256"
        },
        {
          "internalType": "uint256",
          "name": "_profitFee",
          "type": "uint256"
        },
        {
          "internalType": "uint256",
          "name": "_minimalDepositAmount",
          "type": "uint256"
        },
        {
          "internalType": "uint256",
          "name": "_minTimeUntilFundStart",
          "type": "uint256"
        },
        {
          "internalType": "address payable[]",
          "name": "_allowedTokens",
          "type": "address[]"
        }
      ],
      "name": "createFund",
      "outputs": [
        {
          "internalType": "address",
          "name": "",
          "type": "address"
        }
      ],
      "stateMutability": "payable",
      "type": "function"
    },
    {
      "inputs": [],
      "name": "defaultFundFee",
      "outputs": [
        {
          "internalType": "int256",
          "name": "",
          "type": "int256"
        }
      ],
      "stateMutability": "view",
      "type": "function"
    },
    {
      "inputs": [],
      "name": "eFund",
      "outputs": [
        {
          "internalType": "contract IERC20",
          "name": "",
          "type": "address"
        }
      ],
      "stateMutability": "view",
      "type": "function"
    },
    {
      "inputs": [],
      "name": "fundFactory",
      "outputs": [
        {
          "internalType": "contract FundFactory",
          "name": "",
          "type": "address"
        }
      ],
      "stateMutability": "view",
      "type": "function"
    },
    {
      "inputs": [],
      "name": "getAllFunds",
      "outputs": [
        {
          "internalType": "contract HedgeFund[]",
          "name": "",
          "type": "address[]"
        }
      ],
      "stateMutability": "view",
      "type": "function"
    },
    {
      "inputs": [],
      "name": "getCurrentEthBalance",
      "outputs": [
        {
          "internalType": "uint256",
          "name": "",
          "type": "uint256"
        }
      ],
      "stateMutability": "view",
      "type": "function"
    },
    {
      "inputs": [
        {
          "internalType": "address",
          "name": "investor",
          "type": "address"
        }
      ],
      "name": "getInvestorFunds",
      "outputs": [
        {
          "internalType": "contract HedgeFund[]",
          "name": "",
          "type": "address[]"
        }
      ],
      "stateMutability": "view",
      "type": "function"
    },
    {
      "inputs": [
        {
          "internalType": "address",
          "name": "manager",
          "type": "address"
        }
      ],
      "name": "getManagerFunds",
      "outputs": [
        {
          "internalType": "contract HedgeFund[]",
          "name": "",
          "type": "address[]"
        }
      ],
      "stateMutability": "view",
      "type": "function"
    },
    {
      "inputs": [],
      "name": "getPlatformData",
      "outputs": [
        {
          "internalType": "uint256",
          "name": "_softCap",
          "type": "uint256"
        },
        {
          "internalType": "uint256",
          "name": "_hardCap",
          "type": "uint256"
        },
        {
          "internalType": "uint256",
          "name": "_minimumTimeUntillFundStart",
          "type": "uint256"
        },
        {
          "internalType": "uint256",
          "name": "_maximumTimeUntillFundStart",
          "type": "uint256"
        },
        {
          "internalType": "uint256",
          "name": "_minimumProfitFee",
          "type": "uint256"
        },
        {
          "internalType": "uint256",
          "name": "_maximumProfitFee",
          "type": "uint256"
        }
      ],
      "stateMutability": "view",
      "type": "function"
    },
    {
      "inputs": [
        {
          "internalType": "uint256",
          "name": "_topAmount",
          "type": "uint256"
        }
      ],
      "name": "getTopRelevantFunds",
      "outputs": [
        {
          "internalType": "contract HedgeFund[]",
          "name": "",
          "type": "address[]"
        }
      ],
      "stateMutability": "view",
      "type": "function"
    },
    {
      "inputs": [],
      "name": "goldPeriodRewardPercentage",
      "outputs": [
        {
          "internalType": "int256",
          "name": "",
          "type": "int256"
        }
      ],
      "stateMutability": "view",
      "type": "function"
    },
    {
      "inputs": [],
      "name": "goldPeriodStart",
      "outputs": [
        {
          "internalType": "uint256",
          "name": "",
          "type": "uint256"
        }
      ],
      "stateMutability": "view",
      "type": "function"
    },
    {
      "inputs": [],
      "name": "hardCap",
      "outputs": [
        {
          "internalType": "uint256",
          "name": "",
          "type": "uint256"
        }
      ],
      "stateMutability": "view",
      "type": "function"
    },
    {
      "inputs": [
        {
          "internalType": "address",
          "name": "",
          "type": "address"
        }
      ],
      "name": "isExcludedFromReward",
      "outputs": [
        {
          "internalType": "bool",
          "name": "",
          "type": "bool"
        }
      ],
      "stateMutability": "view",
      "type": "function"
    },
    {
      "inputs": [
        {
          "internalType": "address",
          "name": "",
          "type": "address"
        }
      ],
      "name": "isFund",
      "outputs": [
        {
          "internalType": "bool",
          "name": "",
          "type": "bool"
        }
      ],
      "stateMutability": "view",
      "type": "function"
    },
    {
      "inputs": [
        {
          "internalType": "address",
          "name": "",
          "type": "address"
        },
        {
          "internalType": "address",
          "name": "",
          "type": "address"
        }
      ],
      "name": "isInvestorOf",
      "outputs": [
        {
          "internalType": "bool",
          "name": "",
          "type": "bool"
        }
      ],
      "stateMutability": "view",
      "type": "function"
    },
    {
      "inputs": [
        {
          "internalType": "address",
          "name": "",
          "type": "address"
        }
      ],
      "name": "managerFundActivity",
      "outputs": [
        {
          "internalType": "uint256",
          "name": "fundActivityMonths",
          "type": "uint256"
        },
        {
          "internalType": "uint256",
          "name": "reputation",
          "type": "uint256"
        },
        {
          "internalType": "bool",
          "name": "isValue",
          "type": "bool"
        }
      ],
      "stateMutability": "view",
      "type": "function"
    },
    {
      "inputs": [],
      "name": "maximumMinimalDepositAmountFromHardCapPercentage",
      "outputs": [
        {
          "internalType": "uint256",
          "name": "",
          "type": "uint256"
        }
      ],
      "stateMutability": "view",
      "type": "function"
    },
    {
      "inputs": [],
      "name": "maximumProfitFee",
      "outputs": [
        {
          "internalType": "uint256",
          "name": "",
          "type": "uint256"
        }
      ],
      "stateMutability": "view",
      "type": "function"
    },
    {
      "inputs": [],
      "name": "maximumTimeUntillFundStart",
      "outputs": [
        {
          "internalType": "uint256",
          "name": "",
          "type": "uint256"
        }
      ],
      "stateMutability": "view",
      "type": "function"
    },
    {
      "inputs": [],
      "name": "minimumProfitFee",
      "outputs": [
        {
          "internalType": "uint256",
          "name": "",
          "type": "uint256"
        }
      ],
      "stateMutability": "view",
      "type": "function"
    },
    {
      "inputs": [],
      "name": "minimumTimeUntillFundStart",
      "outputs": [
        {
          "internalType": "uint256",
          "name": "",
          "type": "uint256"
        }
      ],
      "stateMutability": "view",
      "type": "function"
    },
    {
      "inputs": [
        {
          "internalType": "address",
          "name": "",
          "type": "address"
        }
      ],
      "name": "nextAvailableRewardClaimDate",
      "outputs": [
        {
          "internalType": "uint256",
          "name": "",
          "type": "uint256"
        }
      ],
      "stateMutability": "view",
      "type": "function"
    },
    {
      "inputs": [],
      "name": "noProfitFundFee",
      "outputs": [
        {
          "internalType": "int256",
          "name": "",
          "type": "int256"
        }
      ],
      "stateMutability": "view",
      "type": "function"
    },
    {
      "inputs": [
        {
          "internalType": "address",
          "name": "_depositorAddress",
          "type": "address"
        }
      ],
      "name": "onDepositMade",
      "outputs": [],
      "stateMutability": "nonpayable",
      "type": "function"
    },
    {
      "inputs": [],
      "name": "percentageBase",
      "outputs": [
        {
          "internalType": "uint256",
          "name": "",
          "type": "uint256"
        }
      ],
      "stateMutability": "view",
      "type": "function"
    },
    {
      "inputs": [],
      "name": "rewardCycleBlock",
      "outputs": [
        {
          "internalType": "uint256",
          "name": "",
          "type": "uint256"
        }
      ],
      "stateMutability": "view",
      "type": "function"
    },
    {
      "inputs": [],
      "name": "silverPeriodRewardPercentage",
      "outputs": [
        {
          "internalType": "int256",
          "name": "",
          "type": "int256"
        }
      ],
      "stateMutability": "view",
      "type": "function"
    },
    {
      "inputs": [],
      "name": "silverPeriodStart",
      "outputs": [
        {
          "internalType": "uint256",
          "name": "",
          "type": "uint256"
        }
      ],
      "stateMutability": "view",
      "type": "function"
    },
    {
      "inputs": [],
      "name": "softCap",
      "outputs": [
        {
          "internalType": "uint256",
          "name": "",
          "type": "uint256"
        }
      ],
      "stateMutability": "view",
      "type": "function"
    },
    {
      "stateMutability": "payable",
      "type": "receive"
    }
  ],
  "bytecode": "0x6101006040523480156200001257600080fd5b50604051620048e1380380620048e1833981810160405281019062000038919062000219565b600073ffffffffffffffffffffffffffffffffffffffff168473ffffffffffffffffffffffffffffffffffffffff161415620000ab576040517f08c379a0000000000000000000000000000000000000000000000000000000008152600401620000a290620003bd565b60405180910390fd5b600073ffffffffffffffffffffffffffffffffffffffff168373ffffffffffffffffffffffffffffffffffffffff1614156200011e576040517f08c379a00000000000000000000000000000000000000000000000000000000081526004016200011590620003df565b60405180910390fd5b81811162000163576040517f08c379a00000000000000000000000000000000000000000000000000000000081526004016200015a9062000401565b60405180910390fd5b8060e081815250508160c081815250508373ffffffffffffffffffffffffffffffffffffffff1660808173ffffffffffffffffffffffffffffffffffffffff1660601b815250508273ffffffffffffffffffffffffffffffffffffffff1660a08173ffffffffffffffffffffffffffffffffffffffff1660601b8152505050505050620004a6565b600081519050620001fc8162000472565b92915050565b60008151905062000213816200048c565b92915050565b600080600080608085870312156200023057600080fd5b60006200024087828801620001eb565b94505060206200025387828801620001eb565b9350506040620002668782880162000202565b9250506060620002798782880162000202565b91505092959194509250565b60006200029460248362000423565b91507f496e76616c69642066756e64466163746f727920616464726573732070726f7660008301527f69646564000000000000000000000000000000000000000000000000000000006020830152604082019050919050565b6000620002fc60248362000423565b91507f496e76616c6964206546756e6420746f6b656e20616464726573732070726f7660008301527f69646564000000000000000000000000000000000000000000000000000000006020830152604082019050919050565b60006200036460258362000423565b91507f4861726420636170206d75737420626520626967676572207468616e20736f6660008301527f74206361700000000000000000000000000000000000000000000000000000006020830152604082019050919050565b60006020820190508181036000830152620003d88162000285565b9050919050565b60006020820190508181036000830152620003fa81620002ed565b9050919050565b600060208201905081810360008301526200041c8162000355565b9050919050565b600082825260208201905092915050565b6000620004418262000448565b9050919050565b600073ffffffffffffffffffffffffffffffffffffffff82169050919050565b6000819050919050565b6200047d8162000434565b81146200048957600080fd5b50565b620004978162000468565b8114620004a357600080fd5b50565b60805160601c60a05160601c60c05160e0516143c862000519600039806114d35280611ec352806123b752508061130352806114fe5280611ea2525080610f7a528061102252806117205280611bc25280611c6f5280611d185280611dd7525080610f4352806116bb52506143c86000f3fe6080604052600436106102085760003560e01c8063a1ef85dc11610118578063de145692116100a0578063f4817d6d1161006f578063f4817d6d146107a1578063f61dc9e5146107de578063fb86a40414610809578063fc8fc79714610834578063fd56b3021461085f5761020f565b8063de145692146106f2578063e2164cdb1461071d578063e2c9b8a91461074d578063e3a1c6fe1461078a5761020f565b8063ca5b42cf116100e7578063ca5b42cf146105e5578063ca8f4ae814610622578063cc9bc68b1461065f578063d0b4fa051461068a578063d10d51a2146106c75761020f565b8063a1ef85dc14610510578063b0c72e901461053b578063b2c50b5314610578578063c7153b89146105a85761020f565b806359b6f2e61161019b5780637217f4bc1161016a5780637217f4bc1461041357806388f820201461043e5780638c5007871461047b578063906a26e0146104ba578063941e041c146104e55761020f565b806359b6f2e61461037b5780635c819281146103a6578063611b5322146103d157806365700481146103fc5761020f565b806326a3b51f116101d757806326a3b51f146102cf5780632ed6f71c146102fa5780633dea9e661461032557806344e8bc7d146103505761020f565b806308b89603146102115780631868b7291461023c5780631c69b4641461027957806322ab155e146102a45761020f565b3661020f57005b005b34801561021d57600080fd5b50610226610888565b604051610233919061404b565b60405180910390f35b34801561024857600080fd5b50610263600480360381019061025e919061329d565b61088f565b6040516102709190613ca9565b60405180910390f35b34801561028557600080fd5b5061028e610ea1565b60405161029b9190613ca9565b60405180910390f35b3480156102b057600080fd5b506102b9610f2f565b6040516102c6919061404b565b60405180910390f35b3480156102db57600080fd5b506102e4610f34565b6040516102f19190613d1c565b60405180910390f35b34801561030657600080fd5b5061030f610f39565b60405161031c919061404b565b60405180910390f35b34801561033157600080fd5b5061033a610f41565b6040516103479190613ce6565b60405180910390f35b34801561035c57600080fd5b50610365610f65565b604051610372919061404b565b60405180910390f35b34801561038757600080fd5b50610390610f6c565b60405161039d9190613d1c565b60405180910390f35b3480156103b257600080fd5b506103bb610f71565b6040516103c8919061404b565b60405180910390f35b3480156103dd57600080fd5b506103e6610f78565b6040516103f39190613d01565b60405180910390f35b34801561040857600080fd5b50610411610f9c565b005b34801561041f57600080fd5b506104286112a3565b604051610435919061404b565b60405180910390f35b34801561044a57600080fd5b50610465600480360381019061046091906130f3565b6112aa565b6040516104729190613ccb565b60405180910390f35b34801561048757600080fd5b506104a2600480360381019061049d91906130f3565b6112ca565b6040516104b193929190614066565b60405180910390f35b3480156104c657600080fd5b506104cf611301565b6040516104dc919061404b565b60405180910390f35b3480156104f157600080fd5b506104fa611325565b604051610507919061404b565b60405180910390f35b34801561051c57600080fd5b5061052561132c565b604051610532919061404b565b60405180910390f35b34801561054757600080fd5b50610562600480360381019061055d91906130f3565b611331565b60405161056f9190613ca9565b60405180910390f35b610592600480360381019061058d919061316e565b61148d565b60405161059f9190613c73565b60405180910390f35b3480156105b457600080fd5b506105cf60048036038101906105ca91906130f3565b611a83565b6040516105dc9190613ccb565b60405180910390f35b3480156105f157600080fd5b5061060c60048036038101906106079190613238565b611aa3565b6040516106199190613ccb565b60405180910390f35b34801561062e57600080fd5b50610649600480360381019061064491906130f3565b611ad2565b6040516106569190613d1c565b60405180910390f35b34801561066b57600080fd5b50610674611bb5565b604051610681919061404b565b60405180910390f35b34801561069657600080fd5b506106b160048036038101906106ac91906130f3565b611bba565b6040516106be919061404b565b60405180910390f35b3480156106d357600080fd5b506106dc611e8d565b6040516106e99190613d1c565b60405180910390f35b3480156106fe57600080fd5b50610707611e92565b6040516107149190613d1c565b60405180910390f35b34801561072957600080fd5b50610732611e97565b6040516107449695949392919061409d565b60405180910390f35b34801561075957600080fd5b50610774600480360381019061076f91906130f3565b611f02565b6040516107819190613ca9565b60405180910390f35b34801561079657600080fd5b5061079f611fcf565b005b3480156107ad57600080fd5b506107c860048036038101906107c391906130f3565b612398565b6040516107d5919061404b565b60405180910390f35b3480156107ea57600080fd5b506107f36123b0565b6040516108009190613d1c565b60405180910390f35b34801561081557600080fd5b5061081e6123b5565b60405161082b919061404b565b60405180910390f35b34801561084057600080fd5b506108496123d9565b604051610856919061404b565b60405180910390f35b34801561086b57600080fd5b50610886600480360381019061088191906130f3565b6123de565b005b62ed4e0081565b606060008080549050141561092c57600080548060200260200160405190810160405280929190818152602001828054801561092057602002820191906000526020600020905b8160009054906101000a900473ffffffffffffffffffffffffffffffffffffffff1673ffffffffffffffffffffffffffffffffffffffff16815260200190600101908083116108d6575b50505050509050610e9c565b60008054905082106109415760008054905091505b606060008054905067ffffffffffffffff8111801561095f57600080fd5b5060405190808252806020026020018201604052801561098e5781602001602082028036833780820191505090505b50905060008090505b600080549050811015610a2f57600081815481106109b157fe5b9060005260206000200160009054906101000a900473ffffffffffffffffffffffffffffffffffffffff168282815181106109e857fe5b602002602001019073ffffffffffffffffffffffffffffffffffffffff16908173ffffffffffffffffffffffffffffffffffffffff16815250508080600101915050610997565b5060608367ffffffffffffffff81118015610a4957600080fd5b50604051908082528060200260200182016040528015610a785781602001602082028036833780820191505090505b509050610abb6040518060400160405280600d81526020017f66756e64206c656e6774683a20000000000000000000000000000000000000008152508351612637565b60008090505b8251811015610dca5760008090505b60018285510303811015610dbc57836001820181518110610aed57fe5b602002602001015173ffffffffffffffffffffffffffffffffffffffff1631848281518110610b1857fe5b602002602001015173ffffffffffffffffffffffffffffffffffffffff16311180610ce9575060046000856001840181518110610b5157fe5b602002602001015173ffffffffffffffffffffffffffffffffffffffff16636209ec2d6040518163ffffffff1660e01b815260040160206040518083038186803b158015610b9e57600080fd5b505afa158015610bb2573d6000803e3d6000fd5b505050506040513d601f19601f82011682018060405250810190610bd69190613145565b73ffffffffffffffffffffffffffffffffffffffff1673ffffffffffffffffffffffffffffffffffffffff1681526020019081526020016000206001015460046000868481518110610c2457fe5b602002602001015173ffffffffffffffffffffffffffffffffffffffff16636209ec2d6040518163ffffffff1660e01b815260040160206040518083038186803b158015610c7157600080fd5b505afa158015610c85573d6000803e3d6000fd5b505050506040513d601f19601f82011682018060405250810190610ca99190613145565b73ffffffffffffffffffffffffffffffffffffffff1673ffffffffffffffffffffffffffffffffffffffff16815260200190815260200160002060010154115b15610daf576000846001830181518110610cff57fe5b60200260200101519050848281518110610d1557fe5b6020026020010151856001840181518110610d2c57fe5b602002602001019073ffffffffffffffffffffffffffffffffffffffff16908173ffffffffffffffffffffffffffffffffffffffff168152505080858381518110610d7357fe5b602002602001019073ffffffffffffffffffffffffffffffffffffffff16908173ffffffffffffffffffffffffffffffffffffffff1681525050505b8080600101915050610ad0565b508080600101915050610ac1565b50610e096040518060400160405280600c81526020017f736f7274696e6720646f6e6500000000000000000000000000000000000000008152506126d3565b6000600160008054905003905060008090505b85811015610e9457838281518110610e3057fe5b6020026020010151838281518110610e4457fe5b602002602001019073ffffffffffffffffffffffffffffffffffffffff16908173ffffffffffffffffffffffffffffffffffffffff16815250508180600190039250508080600101915050610e1c565b508193505050505b919050565b60606000805480602002602001604051908101604052809291908181526020018280548015610f2557602002820191906000526020600020905b8160009054906101000a900473ffffffffffffffffffffffffffffffffffffffff1673ffffffffffffffffffffffffffffffffffffffff1681526020019060010190808311610edb575b5050505050905090565b606481565b601e81565b600047905090565b7f000000000000000000000000000000000000000000000000000000000000000081565b6201518081565b600a81565b6276a70081565b7f000000000000000000000000000000000000000000000000000000000000000081565b42600660003373ffffffffffffffffffffffffffffffffffffffff1673ffffffffffffffffffffffffffffffffffffffff16815260200190815260200160002054111561101e576040517f08c379a000000000000000000000000000000000000000000000000000000000815260040161101590613d89565b60405180910390fd5b60007f000000000000000000000000000000000000000000000000000000000000000073ffffffffffffffffffffffffffffffffffffffff166370a08231336040518263ffffffff1660e01b81526004016110799190613c8e565b60206040518083038186803b15801561109157600080fd5b505afa1580156110a5573d6000803e3d6000fd5b505050506040513d601f19601f820116820180604052508101906110c991906132c6565b11611109576040517f08c379a000000000000000000000000000000000000000000000000000000000815260040161110090613ec9565b60405180910390fd5b600061111433611bba565b905061112c62093a804261276c90919063ffffffff16565b600660003373ffffffffffffffffffffffffffffffffffffffff1673ffffffffffffffffffffffffffffffffffffffff1681526020019081526020016000208190555060003373ffffffffffffffffffffffffffffffffffffffff168260405161119590613c5e565b60006040518083038185875af1925050503d80600081146111d2576040519150601f19603f3d011682016040523d82523d6000602084013e6111d7565b606091505b505090508061121b576040517f08c379a000000000000000000000000000000000000000000000000000000000815260040161121290613fa9565b60405180910390fd5b600660003373ffffffffffffffffffffffffffffffffffffffff1673ffffffffffffffffffffffffffffffffffffffff16815260200190815260200160002054823373ffffffffffffffffffffffffffffffffffffffff167f22eee7f02e36f8323e1e4f98d1b2002e1ec68523f572f475011a03969d292aa560405160405180910390a45050565b62093a8081565b60076020528060005260406000206000915054906101000a900460ff1681565b60046020528060005260406000206000915090508060000154908060010154908060020160009054906101000a900460ff16905083565b7f000000000000000000000000000000000000000000000000000000000000000081565b620d2f0081565b600a81565b6060600460008373ffffffffffffffffffffffffffffffffffffffff1673ffffffffffffffffffffffffffffffffffffffff16815260200190815260200160002060020160009054906101000a900460ff166113c2576040517f08c379a00000000000000000000000000000000000000000000000000000000081526004016113b990614009565b60405180910390fd5b600160008373ffffffffffffffffffffffffffffffffffffffff1673ffffffffffffffffffffffffffffffffffffffff16815260200190815260200160002080548060200260200160405190810160405280929190818152602001828054801561148157602002820191906000526020600020905b8160009054906101000a900473ffffffffffffffffffffffffffffffffffffffff1673ffffffffffffffffffffffffffffffffffffffff1681526020019060010190808311611437575b50505050509050919050565b60008686116114d1576040517f08c379a00000000000000000000000000000000000000000000000000000000081526004016114c890613ea9565b60405180910390fd5b7f0000000000000000000000000000000000000000000000000000000000000000861115801561152157507f00000000000000000000000000000000000000000000000000000000000000008710155b611560576040517f08c379a000000000000000000000000000000000000000000000000000000000815260040161155790613f89565b60405180910390fd5b600084118015611583575061157f600a876127c190919063ffffffff16565b8411155b6115c2576040517f08c379a00000000000000000000000000000000000000000000000000000000081526004016115b990613e49565b60405180910390fd5b8334101580156115d25750853411155b611611576040517f08c379a000000000000000000000000000000000000000000000000000000000815260040161160890613f69565b60405180910390fd5b600185101580156116235750600a8511155b611662576040517f08c379a000000000000000000000000000000000000000000000000000000000815260040161165990613fc9565b60405180910390fd5b6201518083101580156116785750620d2f008311155b6116b7576040517f08c379a00000000000000000000000000000000000000000000000000000000081526004016116ae90613dc9565b60405180910390fd5b60007f000000000000000000000000000000000000000000000000000000000000000073ffffffffffffffffffffffffffffffffffffffff16637072997d346040518061018001604052808e73ffffffffffffffffffffffffffffffffffffffff1681526020017f000000000000000000000000000000000000000000000000000000000000000073ffffffffffffffffffffffffffffffffffffffff1681526020013073ffffffffffffffffffffffffffffffffffffffff1681526020018c81526020018b81526020018a81526020018981526020018881526020013373ffffffffffffffffffffffffffffffffffffffff1681526020018d8152602001348152602001878152506040518363ffffffff1660e01b81526004016117dc9190614029565b6020604051808303818588803b1580156117f557600080fd5b505af1158015611809573d6000803e3d6000fd5b50505050506040513d601f19601f8201168201806040525081019061182e919061311c565b90506000819080600181540180825580915050600190039060005260206000200160009091909190916101000a81548173ffffffffffffffffffffffffffffffffffffffff021916908373ffffffffffffffffffffffffffffffffffffffff160217905550600160003373ffffffffffffffffffffffffffffffffffffffff1673ffffffffffffffffffffffffffffffffffffffff168152602001908152602001600020819080600181540180825580915050600190039060005260206000200160009091909190916101000a81548173ffffffffffffffffffffffffffffffffffffffff021916908373ffffffffffffffffffffffffffffffffffffffff1602179055506001600360008373ffffffffffffffffffffffffffffffffffffffff1673ffffffffffffffffffffffffffffffffffffffff16815260200190815260200160002060006101000a81548160ff021916908315150217905550600460003373ffffffffffffffffffffffffffffffffffffffff1673ffffffffffffffffffffffffffffffffffffffff16815260200190815260200160002060020160009054906101000a900460ff16611a76576040518060600160405280600081526020016000815260200160011515815250600460003373ffffffffffffffffffffffffffffffffffffffff1673ffffffffffffffffffffffffffffffffffffffff168152602001908152602001600020600082015181600001556020820151816001015560408201518160020160006101000a81548160ff0219169083151502179055509050505b5098975050505050505050565b60036020528060005260406000206000915054906101000a900460ff1681565b60056020528160005260406000206020528060005260406000206000915091509054906101000a900460ff1681565b6000600460008373ffffffffffffffffffffffffffffffffffffffff1673ffffffffffffffffffffffffffffffffffffffff16815260200190815260200160002060020160009054906101000a900460ff16611b63576040517f08c379a0000000000000000000000000000000000000000000000000000000008152600401611b5a90613e09565b60405180910390fd5b611bae600460008473ffffffffffffffffffffffffffffffffffffffff1673ffffffffffffffffffffffffffffffffffffffff16815260200190815260200160002060000154612817565b9050919050565b600a81565b600080611dd07f000000000000000000000000000000000000000000000000000000000000000073ffffffffffffffffffffffffffffffffffffffff166370a0823160006040518263ffffffff1660e01b8152600401611c1a9190613c8e565b60206040518083038186803b158015611c3257600080fd5b505afa158015611c46573d6000803e3d6000fd5b505050506040513d601f19601f82011682018060405250810190611c6a91906132c6565b611dc27f000000000000000000000000000000000000000000000000000000000000000073ffffffffffffffffffffffffffffffffffffffff166370a08231306040518263ffffffff1660e01b8152600401611cc69190613c8e565b60206040518083038186803b158015611cde57600080fd5b505afa158015611cf2573d6000803e3d6000fd5b505050506040513d601f19601f82011682018060405250810190611d1691906132c6565b7f000000000000000000000000000000000000000000000000000000000000000073ffffffffffffffffffffffffffffffffffffffff166318160ddd6040518163ffffffff1660e01b815260040160206040518083038186803b158015611d7c57600080fd5b505afa158015611d90573d6000803e3d6000fd5b505050506040513d601f19601f82011682018060405250810190611db491906132c6565b61284b90919063ffffffff16565b61284b90919063ffffffff16565b9050611e857f000000000000000000000000000000000000000000000000000000000000000073ffffffffffffffffffffffffffffffffffffffff166370a08231856040518263ffffffff1660e01b8152600401611e2e9190613c73565b60206040518083038186803b158015611e4657600080fd5b505afa158015611e5a573d6000803e3d6000fd5b505050506040513d601f19601f82011682018060405250810190611e7e91906132c6565b478361289b565b915050919050565b600381565b600a81565b6000806000806000807f00000000000000000000000000000000000000000000000000000000000000007f000000000000000000000000000000000000000000000000000000000000000062015180620d2f006001600a955095509550955095509550909192939495565b6060600260008373ffffffffffffffffffffffffffffffffffffffff1673ffffffffffffffffffffffffffffffffffffffff168152602001908152602001600020805480602002602001604051908101604052809291908181526020018280548015611fc357602002820191906000526020600020905b8160009054906101000a900473ffffffffffffffffffffffffffffffffffffffff1673ffffffffffffffffffffffffffffffffffffffff1681526020019060010190808311611f79575b50505050509050919050565b600360003373ffffffffffffffffffffffffffffffffffffffff1673ffffffffffffffffffffffffffffffffffffffff16815260200190815260200160002060009054906101000a900460ff1661205b576040517f08c379a000000000000000000000000000000000000000000000000000000000815260040161205290613e89565b60405180910390fd5b6000339050428173ffffffffffffffffffffffffffffffffffffffff1663439f5ac26040518163ffffffff1660e01b815260040160206040518083038186803b1580156120a757600080fd5b505afa1580156120bb573d6000803e3d6000fd5b505050506040513d601f19601f820116820180604052508101906120df91906132c6565b10801561216657508073ffffffffffffffffffffffffffffffffffffffff16634d820b9a6040518163ffffffff1660e01b815260040160206040518083038186803b15801561212d57600080fd5b505afa158015612141573d6000803e3d6000fd5b505050506040513d601f19601f820116820180604052508101906121659190613274565b5b6121a5576040517f08c379a000000000000000000000000000000000000000000000000000000000815260040161219c90613f29565b60405180910390fd5b60008173ffffffffffffffffffffffffffffffffffffffff16636209ec2d6040518163ffffffff1660e01b815260040160206040518083038186803b1580156121ed57600080fd5b505afa158015612201573d6000803e3d6000fd5b505050506040513d601f19601f820116820180604052508101906122259190613145565b90506000600460008373ffffffffffffffffffffffffffffffffffffffff1673ffffffffffffffffffffffffffffffffffffffff1681526020019081526020016000206000015490506122fe8373ffffffffffffffffffffffffffffffffffffffff16636da797c96040518163ffffffff1660e01b815260040160206040518083038186803b1580156122b757600080fd5b505afa1580156122cb573d6000803e3d6000fd5b505050506040513d601f19601f820116820180604052508101906122ef91906132c6565b8261276c90919063ffffffff16565b600460008473ffffffffffffffffffffffffffffffffffffffff1673ffffffffffffffffffffffffffffffffffffffff1681526020019081526020016000206000018190555061234d826128d0565b600460008473ffffffffffffffffffffffffffffffffffffffff1673ffffffffffffffffffffffffffffffffffffffff16815260200190815260200160002060010181905550505050565b60066020528060005260406000206000915090505481565b601481565b7f000000000000000000000000000000000000000000000000000000000000000081565b600181565b600360003373ffffffffffffffffffffffffffffffffffffffff1673ffffffffffffffffffffffffffffffffffffffff16815260200190815260200160002060009054906101000a900460ff1661246a576040517f08c379a000000000000000000000000000000000000000000000000000000000815260040161246190613e89565b60405180910390fd5b600560008273ffffffffffffffffffffffffffffffffffffffff1673ffffffffffffffffffffffffffffffffffffffff16815260200190815260200160002060003373ffffffffffffffffffffffffffffffffffffffff1673ffffffffffffffffffffffffffffffffffffffff16815260200190815260200160002060009054906101000a900460ff16156124fe57612634565b6001600560008373ffffffffffffffffffffffffffffffffffffffff1673ffffffffffffffffffffffffffffffffffffffff16815260200190815260200160002060003373ffffffffffffffffffffffffffffffffffffffff1673ffffffffffffffffffffffffffffffffffffffff16815260200190815260200160002060006101000a81548160ff021916908315150217905550600260008273ffffffffffffffffffffffffffffffffffffffff1673ffffffffffffffffffffffffffffffffffffffff168152602001908152602001600020339080600181540180825580915050600190039060005260206000200160009091909190916101000a81548173ffffffffffffffffffffffffffffffffffffffff021916908373ffffffffffffffffffffffffffffffffffffffff1602179055505b50565b6126cf828260405160240161264d929190613d59565b6040516020818303038152906040527f9710a9d0000000000000000000000000000000000000000000000000000000007bffffffffffffffffffffffffffffffffffffffffffffffffffffffff19166020820180517bffffffffffffffffffffffffffffffffffffffffffffffffffffffff8381831617835250505050612d29565b5050565b612769816040516024016126e79190613d37565b6040516020818303038152906040527f41304fac000000000000000000000000000000000000000000000000000000007bffffffffffffffffffffffffffffffffffffffffffffffffffffffff19166020820180517bffffffffffffffffffffffffffffffffffffffffffffffffffffffff8381831617835250505050612d29565b50565b6000808284019050838110156127b7576040517f08c379a00000000000000000000000000000000000000000000000000000000081526004016127ae90613de9565b60405180910390fd5b8091505092915050565b6000808211612805576040517f08c379a00000000000000000000000000000000000000000000000000000000081526004016127fc90613e69565b60405180910390fd5b81838161280e57fe5b04905092915050565b60006276a70082101561282d57600a9050612846565b62ed4e008210156128415760149050612846565b601e90505b919050565b600082821115612890576040517f08c379a000000000000000000000000000000000000000000000000000000000815260040161288790613e29565b60405180910390fd5b818303905092915050565b6000806128c3836128b58787612d5290919063ffffffff16565b6127c190919063ffffffff16565b9050809150509392505050565b6000600460008373ffffffffffffffffffffffffffffffffffffffff1673ffffffffffffffffffffffffffffffffffffffff16815260200190815260200160002060020160009054906101000a900460ff16612961576040517f08c379a000000000000000000000000000000000000000000000000000000000815260040161295890613da9565b60405180910390fd5b6060600160008473ffffffffffffffffffffffffffffffffffffffff1673ffffffffffffffffffffffffffffffffffffffff168152602001908152602001600020805480602002602001604051908101604052809291908181526020018280548015612a2257602002820191906000526020600020905b8160009054906101000a900473ffffffffffffffffffffffffffffffffffffffff1673ffffffffffffffffffffffffffffffffffffffff16815260200190600101908083116129d8575b5050505050905060008060008060008092509250925060008090505b8451811015612cc2576000858281518110612a5557fe5b602002602001015173ffffffffffffffffffffffffffffffffffffffff1663a1956e326040518163ffffffff1660e01b815260040160206040518083038186803b158015612aa257600080fd5b505afa158015612ab6573d6000803e3d6000fd5b505050506040513d601f19601f82011682018060405250810190612ada91906132c6565b14612cb5578380600101945050848181518110612af357fe5b602002602001015173ffffffffffffffffffffffffffffffffffffffff166338bde7916040518163ffffffff1660e01b815260040160206040518083038186803b158015612b4057600080fd5b505afa158015612b54573d6000803e3d6000fd5b505050506040513d601f19601f82011682018060405250810190612b7891906132c6565b858281518110612b8457fe5b602002602001015173ffffffffffffffffffffffffffffffffffffffff1663a1956e326040518163ffffffff1660e01b815260040160206040518083038186803b158015612bd157600080fd5b505afa158015612be5573d6000803e3d6000fd5b505050506040513d601f19601f82011682018060405250810190612c0991906132c6565b11612c15576000612c18565b60015b60ff1683019250848181518110612c2b57fe5b602002602001015173ffffffffffffffffffffffffffffffffffffffff1663a1956e326040518163ffffffff1660e01b815260040160206040518083038186803b158015612c7857600080fd5b505afa158015612c8c573d6000803e3d6000fd5b505050506040513d601f19601f82011682018060405250810190612cb091906132c6565b820191505b8080600101915050612a3e565b506000612ccf8385612dc2565b9050612d1d612ce96103e8856127c190919063ffffffff16565b612d0f612d00600a866127c190919063ffffffff16565b8461276c90919063ffffffff16565b61276c90919063ffffffff16565b95505050505050919050565b60008151905060006a636f6e736f6c652e6c6f679050602083016000808483855afa5050505050565b600080831415612d655760009050612dbc565b6000828402905082848281612d7657fe5b0414612db7576040517f08c379a0000000000000000000000000000000000000000000000000000000008152600401612dae90613f09565b60405180910390fd5b809150505b92915050565b6000612dec82612dde620186a086612df490919063ffffffff16565b612ef290919063ffffffff16565b905092915050565b600080831415612e075760009050612eec565b7fffffffffffffffffffffffffffffffffffffffffffffffffffffffffffffffff83148015612e5557507f800000000000000000000000000000000000000000000000000000000000000082145b15612e95576040517f08c379a0000000000000000000000000000000000000000000000000000000008152600401612e8c90613f49565b60405180910390fd5b6000828402905082848281612ea657fe5b0514612ee7576040517f08c379a0000000000000000000000000000000000000000000000000000000008152600401612ede90613f49565b60405180910390fd5b809150505b92915050565b600080821415612f37576040517f08c379a0000000000000000000000000000000000000000000000000000000008152600401612f2e90613fe9565b60405180910390fd5b7fffffffffffffffffffffffffffffffffffffffffffffffffffffffffffffffff82148015612f8557507f800000000000000000000000000000000000000000000000000000000000000083145b15612fc5576040517f08c379a0000000000000000000000000000000000000000000000000000000008152600401612fbc90613ee9565b60405180910390fd5b6000828481612fd057fe5b0590508091505092915050565b600081359050612fec81614336565b92915050565b60008151905061300181614336565b92915050565b6000813590506130168161434d565b92915050565b60008151905061302b8161434d565b92915050565b600082601f83011261304257600080fd5b81356130556130508261412b565b6140fe565b9150818183526020840193506020810190508385602084028201111561307a57600080fd5b60005b838110156130aa57816130908882613007565b84526020840193506020830192505060018101905061307d565b5050505092915050565b6000815190506130c381614364565b92915050565b6000813590506130d88161437b565b92915050565b6000815190506130ed8161437b565b92915050565b60006020828403121561310557600080fd5b600061311384828501612fdd565b91505092915050565b60006020828403121561312e57600080fd5b600061313c84828501612ff2565b91505092915050565b60006020828403121561315757600080fd5b60006131658482850161301c565b91505092915050565b600080600080600080600080610100898b03121561318b57600080fd5b60006131998b828c01613007565b98505060206131aa8b828c016130c9565b97505060406131bb8b828c016130c9565b96505060606131cc8b828c016130c9565b95505060806131dd8b828c016130c9565b94505060a06131ee8b828c016130c9565b93505060c06131ff8b828c016130c9565b92505060e089013567ffffffffffffffff81111561321c57600080fd5b6132288b828c01613031565b9150509295985092959890939650565b6000806040838503121561324b57600080fd5b600061325985828601612fdd565b925050602061326a85828601612fdd565b9150509250929050565b60006020828403121561328657600080fd5b6000613294848285016130b4565b91505092915050565b6000602082840312156132af57600080fd5b60006132bd848285016130c9565b91505092915050565b6000602082840312156132d857600080fd5b60006132e6848285016130de565b91505092915050565b60006132fb838361332e565b60208301905092915050565b60006133138383613426565b60208301905092915050565b61332881614250565b82525050565b613337816141fe565b82525050565b613346816141ec565b82525050565b600061335782614173565b61336181856141ae565b935061336c83614153565b8060005b8381101561339d57815161338488826132ef565b975061338f83614194565b925050600181019050613370565b5085935050505092915050565b60006133b58261417e565b6133bf81856141bf565b93506133ca83614163565b8060005b838110156133fb5781516133e28882613307565b97506133ed836141a1565b9250506001810190506133ce565b5085935050505092915050565b61341181614210565b82525050565b61342081614262565b82525050565b61342f81614286565b82525050565b61343e816142aa565b82525050565b61344d8161421c565b82525050565b600061345e82614189565b61346881856141db565b93506134788185602086016142f2565b61348181614325565b840191505092915050565b60006134996021836141db565b91507f4572726f723a206e65787420617661696c61626c65206e6f742072656163686560008301527f64000000000000000000000000000000000000000000000000000000000000006020830152604082019050919050565b60006134ff6017836141db565b91507f4d616e6167657220646f657374206e6f742065786973740000000000000000006000830152602082019050919050565b600061353f6039836141db565b91507f4d696e54696d65556e74696c6c46756e6453746172742076616c75652069732060008301527f6f757473696465207468652066756e64537461727420676170000000000000006020830152604082019050919050565b60006135a5601b836141db565b91507f536166654d6174683a206164646974696f6e206f766572666c6f7700000000006000830152602082019050919050565b60006135e5601d836141db565b91507f41646472657373206973206e6f7420612066756e64206d616e616765720000006000830152602082019050919050565b6000613625601e836141db565b91507f536166654d6174683a207375627472616374696f6e206f766572666c6f7700006000830152602082019050919050565b6000613665601c836141db565b91507f496e76616c6964206d696e696d616c4465706f736974416d6f756e74000000006000830152602082019050919050565b60006136a5601a836141db565b91507f536166654d6174683a206469766973696f6e206279207a65726f0000000000006000830152602082019050919050565b60006136e5601c836141db565b91507f43616c6c65722061646472657373206973206e6f7420612066756e64000000006000830152602082019050919050565b60006137256025836141db565b91507f4861726420636170206d75737420626520626967676572207468616e20736f6660008301527f74206361700000000000000000000000000000000000000000000000000000006020830152604082019050919050565b600061378b602a836141db565b91507f4572726f723a206d757374206f776e206546756e64546f6b656e20746f20636c60008301527f61696d20726577617264000000000000000000000000000000000000000000006020830152604082019050919050565b60006137f16021836141db565b91507f5369676e6564536166654d6174683a206469766973696f6e206f766572666c6f60008301527f77000000000000000000000000000000000000000000000000000000000000006020830152604082019050919050565b60006138576021836141db565b91507f536166654d6174683a206d756c7469706c69636174696f6e206f766572666c6f60008301527f77000000000000000000000000000000000000000000000000000000000000006020830152604082019050919050565b60006138bd6015836141db565b91507f46756e64206973206e6f7420636f6d706c6574656400000000000000000000006000830152602082019050919050565b60006138fd6027836141db565b91507f5369676e6564536166654d6174683a206d756c7469706c69636174696f6e206f60008301527f766572666c6f77000000000000000000000000000000000000000000000000006020830152604082019050919050565b60006139636018836141db565b91507f76616c7565206973206f757473696465206f66206361707300000000000000006000830152602082019050919050565b60006139a36033836141db565b91507f486172644361702076616c756573206973206f7574736964652074686520706c60008301527f6174666f726d2064656661756c742063617073000000000000000000000000006020830152604082019050919050565b6000613a096000836141d0565b9150600082019050919050565b6000613a23601d836141db565b91507f4572726f723a2043616e6e6f74207769746864726177207265776172640000006000830152602082019050919050565b6000613a636030836141db565b91507f4d616e61676572206665652076616c7565206973206f7574736964652074686560008301527f206d616e616765722066656520676170000000000000000000000000000000006020830152604082019050919050565b6000613ac96020836141db565b91507f5369676e6564536166654d6174683a206469766973696f6e206279207a65726f6000830152602082019050919050565b6000613b096016836141db565b91507f4d616e6167657220646f6573206e6f74206578697374000000000000000000006000830152602082019050919050565b600061018083016000830151613b55600086018261332e565b506020830151613b68602086018261332e565b506040830151613b7b604086018261332e565b506060830151613b8e6060860182613c40565b506080830151613ba16080860182613c40565b5060a0830151613bb460a0860182613c40565b5060c0830151613bc760c0860182613c40565b5060e0830151613bda60e0860182613c40565b50610100830151613bef61010086018261332e565b50610120830151613c04610120860182613c40565b50610140830151613c19610140860182613c40565b50610160830151848203610160860152613c33828261334c565b9150508091505092915050565b613c4981614246565b82525050565b613c5881614246565b82525050565b6000613c69826139fc565b9150819050919050565b6000602082019050613c88600083018461333d565b92915050565b6000602082019050613ca3600083018461331f565b92915050565b60006020820190508181036000830152613cc381846133aa565b905092915050565b6000602082019050613ce06000830184613408565b92915050565b6000602082019050613cfb6000830184613417565b92915050565b6000602082019050613d166000830184613435565b92915050565b6000602082019050613d316000830184613444565b92915050565b60006020820190508181036000830152613d518184613453565b905092915050565b60006040820190508181036000830152613d738185613453565b9050613d826020830184613c4f565b9392505050565b60006020820190508181036000830152613da28161348c565b9050919050565b60006020820190508181036000830152613dc2816134f2565b9050919050565b60006020820190508181036000830152613de281613532565b9050919050565b60006020820190508181036000830152613e0281613598565b9050919050565b60006020820190508181036000830152613e22816135d8565b9050919050565b60006020820190508181036000830152613e4281613618565b9050919050565b60006020820190508181036000830152613e6281613658565b9050919050565b60006020820190508181036000830152613e8281613698565b9050919050565b60006020820190508181036000830152613ea2816136d8565b9050919050565b60006020820190508181036000830152613ec281613718565b9050919050565b60006020820190508181036000830152613ee28161377e565b9050919050565b60006020820190508181036000830152613f02816137e4565b9050919050565b60006020820190508181036000830152613f228161384a565b9050919050565b60006020820190508181036000830152613f42816138b0565b9050919050565b60006020820190508181036000830152613f62816138f0565b9050919050565b60006020820190508181036000830152613f8281613956565b9050919050565b60006020820190508181036000830152613fa281613996565b9050919050565b60006020820190508181036000830152613fc281613a16565b9050919050565b60006020820190508181036000830152613fe281613a56565b9050919050565b6000602082019050818103600083015261400281613abc565b9050919050565b6000602082019050818103600083015261402281613afc565b9050919050565b600060208201905081810360008301526140438184613b3c565b905092915050565b60006020820190506140606000830184613c4f565b92915050565b600060608201905061407b6000830186613c4f565b6140886020830185613c4f565b6140956040830184613408565b949350505050565b600060c0820190506140b26000830189613c4f565b6140bf6020830188613c4f565b6140cc6040830187613c4f565b6140d96060830186613c4f565b6140e66080830185613c4f565b6140f360a0830184613c4f565b979650505050505050565b6000604051905081810181811067ffffffffffffffff8211171561412157600080fd5b8060405250919050565b600067ffffffffffffffff82111561414257600080fd5b602082029050602081019050919050565b6000819050602082019050919050565b6000819050602082019050919050565b600081519050919050565b600081519050919050565b600081519050919050565b6000602082019050919050565b6000602082019050919050565b600082825260208201905092915050565b600082825260208201905092915050565b600081905092915050565b600082825260208201905092915050565b60006141f782614226565b9050919050565b600061420982614226565b9050919050565b60008115159050919050565b6000819050919050565b600073ffffffffffffffffffffffffffffffffffffffff82169050919050565b6000819050919050565b600061425b826142ce565b9050919050565b600061426d82614274565b9050919050565b600061427f82614226565b9050919050565b600061429182614298565b9050919050565b60006142a382614226565b9050919050565b60006142b5826142bc565b9050919050565b60006142c782614226565b9050919050565b60006142d9826142e0565b9050919050565b60006142eb82614226565b9050919050565b60005b838110156143105780820151818401526020810190506142f5565b8381111561431f576000848401525b50505050565b6000601f19601f8301169050919050565b61433f816141ec565b811461434a57600080fd5b50565b614356816141fe565b811461436157600080fd5b50565b61436d81614210565b811461437857600080fd5b50565b61438481614246565b811461438f57600080fd5b5056fea26469706673582212208f2a1e430691b9b0223236f0cdb097d405607d4f5161caa7a6a2eb93c79a547464736f6c63430006060033",
  "linkReferences": {},
  "deployedLinkReferences": {}
}