{
  "_format": "hh-sol-artifact-1",
  "contractName": "EFundPlatform",
  "sourceName": "contracts/EFundPlatform.sol",
  "abi": [
    {
      "inputs": [
        {
          "internalType": "address",
          "name": "_fundFactory",
          "type": "address"
        },
        {
          "internalType": "address",
          "name": "_efundToken",
          "type": "address"
        },
        {
          "internalType": "uint256",
          "name": "_softCap",
          "type": "uint256"
        },
        {
          "internalType": "uint256",
          "name": "_hardCap",
          "type": "uint256"
        }
      ],
      "stateMutability": "nonpayable",
      "type": "constructor"
    },
    {
      "anonymous": false,
      "inputs": [
        {
          "indexed": false,
          "internalType": "address",
          "name": "recipient",
          "type": "address"
        },
        {
          "indexed": false,
          "internalType": "uint256",
          "name": "ethReceived",
          "type": "uint256"
        },
        {
          "indexed": false,
          "internalType": "uint256",
          "name": "nextAvailableClaimDate",
          "type": "uint256"
        }
      ],
      "name": "ClaimHolderRewardSuccessfully",
      "type": "event"
    },
    {
      "stateMutability": "payable",
      "type": "fallback"
    },
    {
      "inputs": [],
      "name": "bronzePeriodRewardPercentage",
      "outputs": [
        {
          "internalType": "int256",
          "name": "",
          "type": "int256"
        }
      ],
      "stateMutability": "view",
      "type": "function"
    },
    {
      "inputs": [
        {
          "internalType": "address",
          "name": "ofAddress",
          "type": "address"
        }
      ],
      "name": "calculateHolderReward",
      "outputs": [
        {
          "internalType": "uint256",
          "name": "reward",
          "type": "uint256"
        }
      ],
      "stateMutability": "view",
      "type": "function"
    },
    {
      "inputs": [
        {
          "internalType": "address",
          "name": "_address",
          "type": "address"
        }
      ],
      "name": "calculateManagerRewardPercentage",
      "outputs": [
        {
          "internalType": "int256",
          "name": "",
          "type": "int256"
        }
      ],
      "stateMutability": "view",
      "type": "function"
    },
    {
      "inputs": [],
      "name": "claimHolderReward",
      "outputs": [],
      "stateMutability": "nonpayable",
      "type": "function"
    },
    {
      "inputs": [],
      "name": "closeFund",
      "outputs": [],
      "stateMutability": "nonpayable",
      "type": "function"
    },
    {
      "inputs": [
        {
          "internalType": "address payable",
          "name": "_swapRouter",
          "type": "address"
        },
        {
          "internalType": "uint256",
          "name": "_fundDurationInMonths",
          "type": "uint256"
        },
        {
          "internalType": "uint256",
          "name": "_softCap",
          "type": "uint256"
        },
        {
          "internalType": "uint256",
          "name": "_hardCap",
          "type": "uint256"
        },
        {
          "internalType": "address payable[]",
          "name": "_allowedTokens",
          "type": "address[]"
        }
      ],
      "name": "createFund",
      "outputs": [
        {
          "internalType": "address",
          "name": "",
          "type": "address"
        }
      ],
      "stateMutability": "payable",
      "type": "function"
    },
    {
      "inputs": [],
      "name": "eFund",
      "outputs": [
        {
          "internalType": "contract IERC20",
          "name": "",
          "type": "address"
        }
      ],
      "stateMutability": "view",
      "type": "function"
    },
    {
      "inputs": [],
      "name": "fundFactory",
      "outputs": [
        {
          "internalType": "contract FundFactory",
          "name": "",
          "type": "address"
        }
      ],
      "stateMutability": "view",
      "type": "function"
    },
    {
      "inputs": [
        {
          "internalType": "uint256",
          "name": "",
          "type": "uint256"
        }
      ],
      "name": "funds",
      "outputs": [
        {
          "internalType": "contract HedgeFund",
          "name": "",
          "type": "address"
        }
      ],
      "stateMutability": "view",
      "type": "function"
    },
    {
      "inputs": [],
      "name": "getAllFunds",
      "outputs": [
        {
          "internalType": "contract HedgeFund[]",
          "name": "",
          "type": "address[]"
        }
      ],
      "stateMutability": "view",
      "type": "function"
    },
    {
      "inputs": [],
      "name": "getCurrentEthBalance",
      "outputs": [
        {
          "internalType": "uint256",
          "name": "",
          "type": "uint256"
        }
      ],
      "stateMutability": "view",
      "type": "function"
    },
    {
      "inputs": [],
      "name": "goldPeriodRewardPercentage",
      "outputs": [
        {
          "internalType": "int256",
          "name": "",
          "type": "int256"
        }
      ],
      "stateMutability": "view",
      "type": "function"
    },
    {
      "inputs": [],
      "name": "goldPeriodStart",
      "outputs": [
        {
          "internalType": "uint256",
          "name": "",
          "type": "uint256"
        }
      ],
      "stateMutability": "view",
      "type": "function"
    },
    {
      "inputs": [],
      "name": "hardCap",
      "outputs": [
        {
          "internalType": "uint256",
          "name": "",
          "type": "uint256"
        }
      ],
      "stateMutability": "view",
      "type": "function"
    },
    {
      "inputs": [
        {
          "internalType": "address",
          "name": "",
          "type": "address"
        }
      ],
      "name": "isExcludedFromReward",
      "outputs": [
        {
          "internalType": "bool",
          "name": "",
          "type": "bool"
        }
      ],
      "stateMutability": "view",
      "type": "function"
    },
    {
      "inputs": [
        {
          "internalType": "address",
          "name": "",
          "type": "address"
        }
      ],
      "name": "isFund",
      "outputs": [
        {
          "internalType": "bool",
          "name": "",
          "type": "bool"
        }
      ],
      "stateMutability": "view",
      "type": "function"
    },
    {
      "inputs": [
        {
          "internalType": "address",
          "name": "",
          "type": "address"
        }
      ],
      "name": "managerFundActivity",
      "outputs": [
        {
          "internalType": "uint256",
          "name": "fundActivityDuration",
          "type": "uint256"
        },
        {
          "internalType": "bool",
          "name": "isValue",
          "type": "bool"
        }
      ],
      "stateMutability": "view",
      "type": "function"
    },
    {
      "inputs": [
        {
          "internalType": "address",
          "name": "",
          "type": "address"
        }
      ],
      "name": "nextAvailableRewardClaimDate",
      "outputs": [
        {
          "internalType": "uint256",
          "name": "",
          "type": "uint256"
        }
      ],
      "stateMutability": "view",
      "type": "function"
    },
    {
      "inputs": [],
      "name": "percentageBase",
      "outputs": [
        {
          "internalType": "uint256",
          "name": "",
          "type": "uint256"
        }
      ],
      "stateMutability": "view",
      "type": "function"
    },
    {
      "inputs": [],
      "name": "rewardCycleBlock",
      "outputs": [
        {
          "internalType": "uint256",
          "name": "",
          "type": "uint256"
        }
      ],
      "stateMutability": "view",
      "type": "function"
    },
    {
      "inputs": [],
      "name": "silverPeriodRewardPercentage",
      "outputs": [
        {
          "internalType": "int256",
          "name": "",
          "type": "int256"
        }
      ],
      "stateMutability": "view",
      "type": "function"
    },
    {
      "inputs": [],
      "name": "silverPeriodStart",
      "outputs": [
        {
          "internalType": "uint256",
          "name": "",
          "type": "uint256"
        }
      ],
      "stateMutability": "view",
      "type": "function"
    },
    {
      "inputs": [],
      "name": "softCap",
      "outputs": [
        {
          "internalType": "uint256",
          "name": "",
          "type": "uint256"
        }
      ],
      "stateMutability": "view",
      "type": "function"
    },
    {
      "stateMutability": "payable",
      "type": "receive"
    }
  ],
  "bytecode": "0x6101006040523480156200001257600080fd5b50604051620021f7380380620021f7833981810160405260808110156200003857600080fd5b8101908080519060200190929190805190602001909291908051906020019092919080519060200190929190505050600073ffffffffffffffffffffffffffffffffffffffff168473ffffffffffffffffffffffffffffffffffffffff161415620000ef576040517f08c379a00000000000000000000000000000000000000000000000000000000081526004018080602001828103825260248152602001806200218a6024913960400191505060405180910390fd5b600073ffffffffffffffffffffffffffffffffffffffff168373ffffffffffffffffffffffffffffffffffffffff16141562000177576040517f08c379a0000000000000000000000000000000000000000000000000000000008152600401808060200182810382526024815260200180620021ae6024913960400191505060405180910390fd5b818111620001d1576040517f08c379a0000000000000000000000000000000000000000000000000000000008152600401808060200182810382526025815260200180620021d26025913960400191505060405180910390fd5b8060e081815250508160c081815250508373ffffffffffffffffffffffffffffffffffffffff1660808173ffffffffffffffffffffffffffffffffffffffff1660601b815250508273ffffffffffffffffffffffffffffffffffffffff1660a08173ffffffffffffffffffffffffffffffffffffffff1660601b815250505050505060805160601c60a05160601c60c05160e051611ece620002bc6000398061098c5280611b315250806109b65280611275525080610af15280610dfd5280610ebb52806113d552806114b15280611589528061164b52508061090e5280610ab35250611ece6000f3fe6080604052600436106101445760003560e01c80637b8e8895116100b6578063d0b4fa051161006f578063d0b4fa0514610703578063de14569214610768578063e3a1c6fe14610793578063f4817d6d146107aa578063f61dc9e51461080f578063fb86a4041461083a5761014b565b80637b8e8895146104b657806388f82020146105315780638c5007871461059a578063906a26e01461060a578063c7153b8914610635578063ca8f4ae81461069e5761014b565b80633dea9e66116101085780633dea9e661461026557806347b28cf5146102bc5780635c819281146103f2578063611b53221461041d57806365700481146104745780637217f4bc1461048b5761014b565b806308b896031461014d5780631c69b4641461017857806322ab155e146101e457806326a3b51f1461020f5780632ed6f71c1461023a5761014b565b3661014b57005b005b34801561015957600080fd5b50610162610865565b6040518082815260200191505060405180910390f35b34801561018457600080fd5b5061018d61086c565b6040518080602001828103825283818151815260200191508051906020019060200280838360005b838110156101d05780820151818401526020810190506101b5565b505050509050019250505060405180910390f35b3480156101f057600080fd5b506101f96108fa565b6040518082815260200191505060405180910390f35b34801561021b57600080fd5b506102246108ff565b6040518082815260200191505060405180910390f35b34801561024657600080fd5b5061024f610904565b6040518082815260200191505060405180910390f35b34801561027157600080fd5b5061027a61090c565b604051808273ffffffffffffffffffffffffffffffffffffffff1673ffffffffffffffffffffffffffffffffffffffff16815260200191505060405180910390f35b6103b0600480360360a08110156102d257600080fd5b81019080803573ffffffffffffffffffffffffffffffffffffffff1690602001909291908035906020019092919080359060200190929190803590602001909291908035906020019064010000000081111561032d57600080fd5b82018360208201111561033f57600080fd5b8035906020019184602083028401116401000000008311171561036157600080fd5b919080806020026020016040519081016040528093929190818152602001838360200280828437600081840152601f19601f820116905080830192505050505050509192919290505050610930565b604051808273ffffffffffffffffffffffffffffffffffffffff1673ffffffffffffffffffffffffffffffffffffffff16815260200191505060405180910390f35b3480156103fe57600080fd5b50610407610df4565b6040518082815260200191505060405180910390f35b34801561042957600080fd5b50610432610dfb565b604051808273ffffffffffffffffffffffffffffffffffffffff1673ffffffffffffffffffffffffffffffffffffffff16815260200191505060405180910390f35b34801561048057600080fd5b50610489610e1f565b005b34801561049757600080fd5b506104a06111df565b6040518082815260200191505060405180910390f35b3480156104c257600080fd5b506104ef600480360360208110156104d957600080fd5b81019080803590602001909291905050506111e6565b604051808273ffffffffffffffffffffffffffffffffffffffff1673ffffffffffffffffffffffffffffffffffffffff16815260200191505060405180910390f35b34801561053d57600080fd5b506105806004803603602081101561055457600080fd5b81019080803573ffffffffffffffffffffffffffffffffffffffff169060200190929190505050611222565b604051808215151515815260200191505060405180910390f35b3480156105a657600080fd5b506105e9600480360360208110156105bd57600080fd5b81019080803573ffffffffffffffffffffffffffffffffffffffff169060200190929190505050611242565b60405180838152602001821515151581526020019250505060405180910390f35b34801561061657600080fd5b5061061f611273565b6040518082815260200191505060405180910390f35b34801561064157600080fd5b506106846004803603602081101561065857600080fd5b81019080803573ffffffffffffffffffffffffffffffffffffffff169060200190929190505050611297565b604051808215151515815260200191505060405180910390f35b3480156106aa57600080fd5b506106ed600480360360208110156106c157600080fd5b81019080803573ffffffffffffffffffffffffffffffffffffffff1690602001909291905050506112b7565b6040518082815260200191505060405180910390f35b34801561070f57600080fd5b506107526004803603602081101561072657600080fd5b81019080803573ffffffffffffffffffffffffffffffffffffffff1690602001909291905050506113cd565b6040518082815260200191505060405180910390f35b34801561077457600080fd5b5061077d611730565b6040518082815260200191505060405180910390f35b34801561079f57600080fd5b506107a8611735565b005b3480156107b657600080fd5b506107f9600480360360208110156107cd57600080fd5b81019080803573ffffffffffffffffffffffffffffffffffffffff169060200190929190505050611b12565b6040518082815260200191505060405180910390f35b34801561081b57600080fd5b50610824611b2a565b6040518082815260200191505060405180910390f35b34801561084657600080fd5b5061084f611b2f565b6040518082815260200191505060405180910390f35b62ed4e0081565b606060048054806020026020016040519081016040528092919081815260200182805480156108f057602002820191906000526020600020905b8160009054906101000a900473ffffffffffffffffffffffffffffffffffffffff1673ffffffffffffffffffffffffffffffffffffffff16815260200190600101908083116108a6575b5050505050905090565b606481565b601e81565b600047905090565b7f000000000000000000000000000000000000000000000000000000000000000081565b600083831161098a576040517f08c379a0000000000000000000000000000000000000000000000000000000008152600401808060200182810382526025815260200180611e296025913960400191505060405180910390fd5b7f0000000000000000000000000000000000000000000000000000000000000000831080156109d857507f000000000000000000000000000000000000000000000000000000000000000084105b610a2d576040517f08c379a0000000000000000000000000000000000000000000000000000000008152600401808060200182810382526031815260200180611df86031913960400191505060405180910390fd5b833410158015610a3d5750823411155b610aaf576040517f08c379a00000000000000000000000000000000000000000000000000000000081526004018080602001828103825260188152602001807f76616c7565206973206f757473696465206f662063617073000000000000000081525060200191505060405180910390fd5b60007f000000000000000000000000000000000000000000000000000000000000000073ffffffffffffffffffffffffffffffffffffffff16633130b0e234897f000000000000000000000000000000000000000000000000000000000000000033308c8c8c8c6040518a63ffffffff1660e01b8152600401808973ffffffffffffffffffffffffffffffffffffffff1673ffffffffffffffffffffffffffffffffffffffff1681526020018873ffffffffffffffffffffffffffffffffffffffff1673ffffffffffffffffffffffffffffffffffffffff1681526020018773ffffffffffffffffffffffffffffffffffffffff1673ffffffffffffffffffffffffffffffffffffffff1681526020018673ffffffffffffffffffffffffffffffffffffffff1673ffffffffffffffffffffffffffffffffffffffff16815260200185815260200184815260200183815260200180602001828103825283818151815260200191508051906020019060200280838360005b83811015610c42578082015181840152602081019050610c27565b5050505090500199505050505050505050506020604051808303818588803b158015610c6d57600080fd5b505af1158015610c81573d6000803e3d6000fd5b50505050506040513d6020811015610c9857600080fd5b810190808051906020019092919050505090506004819080600181540180825580915050600190039060005260206000200160009091909190916101000a81548173ffffffffffffffffffffffffffffffffffffffff021916908373ffffffffffffffffffffffffffffffffffffffff16021790555060016000808373ffffffffffffffffffffffffffffffffffffffff1673ffffffffffffffffffffffffffffffffffffffff16815260200190815260200160002060006101000a81548160ff02191690831515021790555060405180604001604052806000815260200160011515815250600160003373ffffffffffffffffffffffffffffffffffffffff1673ffffffffffffffffffffffffffffffffffffffff1681526020019081526020016000206000820151816000015560208201518160010160006101000a81548160ff0219169083151502179055509050505095945050505050565b6276a70081565b7f000000000000000000000000000000000000000000000000000000000000000081565b42600260003373ffffffffffffffffffffffffffffffffffffffff1673ffffffffffffffffffffffffffffffffffffffff168152602001908152602001600020541115610eb7576040517f08c379a0000000000000000000000000000000000000000000000000000000008152600401808060200182810382526021815260200180611dd76021913960400191505060405180910390fd5b60007f000000000000000000000000000000000000000000000000000000000000000073ffffffffffffffffffffffffffffffffffffffff166370a08231336040518263ffffffff1660e01b8152600401808273ffffffffffffffffffffffffffffffffffffffff1673ffffffffffffffffffffffffffffffffffffffff16815260200191505060206040518083038186803b158015610f5657600080fd5b505afa158015610f6a573d6000803e3d6000fd5b505050506040513d6020811015610f8057600080fd5b810190808051906020019092919050505011610fe7576040517f08c379a000000000000000000000000000000000000000000000000000000000815260040180806020018281038252602a815260200180611e4e602a913960400191505060405180910390fd5b6000610ff2336113cd565b905061100a62093a8042611b5390919063ffffffff16565b600260003373ffffffffffffffffffffffffffffffffffffffff1673ffffffffffffffffffffffffffffffffffffffff1681526020019081526020016000208190555060003373ffffffffffffffffffffffffffffffffffffffff168260405180600001905060006040518083038185875af1925050503d80600081146110ad576040519150601f19603f3d011682016040523d82523d6000602084013e6110b2565b606091505b5050905080611129576040517f08c379a000000000000000000000000000000000000000000000000000000000815260040180806020018281038252601d8152602001807f4572726f723a2043616e6e6f742077697468647261772072657761726400000081525060200191505060405180910390fd5b7f22eee7f02e36f8323e1e4f98d1b2002e1ec68523f572f475011a03969d292aa53383600260003373ffffffffffffffffffffffffffffffffffffffff1673ffffffffffffffffffffffffffffffffffffffff16815260200190815260200160002054604051808473ffffffffffffffffffffffffffffffffffffffff1673ffffffffffffffffffffffffffffffffffffffff168152602001838152602001828152602001935050505060405180910390a15050565b62093a8081565b600481815481106111f357fe5b906000526020600020016000915054906101000a900473ffffffffffffffffffffffffffffffffffffffff1681565b60036020528060005260406000206000915054906101000a900460ff1681565b60016020528060005260406000206000915090508060000154908060010160009054906101000a900460ff16905082565b7f000000000000000000000000000000000000000000000000000000000000000081565b60006020528060005260406000206000915054906101000a900460ff1681565b6000600160008373ffffffffffffffffffffffffffffffffffffffff1673ffffffffffffffffffffffffffffffffffffffff16815260200190815260200160002060010160009054906101000a900460ff1661137b576040517f08c379a000000000000000000000000000000000000000000000000000000000815260040180806020018281038252601d8152602001807f41646472657373206973206e6f7420612066756e64206d616e6167657200000081525060200191505060405180910390fd5b6113c6600160008473ffffffffffffffffffffffffffffffffffffffff1673ffffffffffffffffffffffffffffffffffffffff16815260200190815260200160002060000154611bdb565b9050919050565b6000806116447f000000000000000000000000000000000000000000000000000000000000000073ffffffffffffffffffffffffffffffffffffffff166370a0823160006040518263ffffffff1660e01b8152600401808273ffffffffffffffffffffffffffffffffffffffff1673ffffffffffffffffffffffffffffffffffffffff16815260200191505060206040518083038186803b15801561147157600080fd5b505afa158015611485573d6000803e3d6000fd5b505050506040513d602081101561149b57600080fd5b81019080805190602001909291905050506116367f000000000000000000000000000000000000000000000000000000000000000073ffffffffffffffffffffffffffffffffffffffff166370a08231306040518263ffffffff1660e01b8152600401808273ffffffffffffffffffffffffffffffffffffffff1673ffffffffffffffffffffffffffffffffffffffff16815260200191505060206040518083038186803b15801561154c57600080fd5b505afa158015611560573d6000803e3d6000fd5b505050506040513d602081101561157657600080fd5b81019080805190602001909291905050507f000000000000000000000000000000000000000000000000000000000000000073ffffffffffffffffffffffffffffffffffffffff166318160ddd6040518163ffffffff1660e01b815260040160206040518083038186803b1580156115ed57600080fd5b505afa158015611601573d6000803e3d6000fd5b505050506040513d602081101561161757600080fd5b8101908080519060200190929190505050611c0f90919063ffffffff16565b611c0f90919063ffffffff16565b90506117287f000000000000000000000000000000000000000000000000000000000000000073ffffffffffffffffffffffffffffffffffffffff166370a08231856040518263ffffffff1660e01b8152600401808273ffffffffffffffffffffffffffffffffffffffff1673ffffffffffffffffffffffffffffffffffffffff16815260200191505060206040518083038186803b1580156116e657600080fd5b505afa1580156116fa573d6000803e3d6000fd5b505050506040513d602081101561171057600080fd5b81019080805190602001909291905050504783611c92565b915050919050565b600a81565b6000803373ffffffffffffffffffffffffffffffffffffffff1673ffffffffffffffffffffffffffffffffffffffff16815260200190815260200160002060009054906101000a900460ff166117f3576040517f08c379a000000000000000000000000000000000000000000000000000000000815260040180806020018281038252601c8152602001807f43616c6c65722061646472657373206973206e6f7420612066756e640000000081525060200191505060405180910390fd5b6000339050428173ffffffffffffffffffffffffffffffffffffffff1663439f5ac26040518163ffffffff1660e01b815260040160206040518083038186803b15801561183f57600080fd5b505afa158015611853573d6000803e3d6000fd5b505050506040513d602081101561186957600080fd5b810190808051906020019092919050505011156118ee576040517f08c379a00000000000000000000000000000000000000000000000000000000081526004018080602001828103825260158152602001807f46756e64206973206e6f7420636f6d706c65746564000000000000000000000081525060200191505060405180910390fd5b6000600160008373ffffffffffffffffffffffffffffffffffffffff16636209ec2d6040518163ffffffff1660e01b815260040160206040518083038186803b15801561193a57600080fd5b505afa15801561194e573d6000803e3d6000fd5b505050506040513d602081101561196457600080fd5b810190808051906020019092919050505073ffffffffffffffffffffffffffffffffffffffff1673ffffffffffffffffffffffffffffffffffffffff168152602001908152602001600020600001549050611a488273ffffffffffffffffffffffffffffffffffffffff166382b04edf6040518163ffffffff1660e01b815260040160206040518083038186803b1580156119fe57600080fd5b505afa158015611a12573d6000803e3d6000fd5b505050506040513d6020811015611a2857600080fd5b810190808051906020019092919050505082611b5390919063ffffffff16565b600160008473ffffffffffffffffffffffffffffffffffffffff16636209ec2d6040518163ffffffff1660e01b815260040160206040518083038186803b158015611a9257600080fd5b505afa158015611aa6573d6000803e3d6000fd5b505050506040513d6020811015611abc57600080fd5b810190808051906020019092919050505073ffffffffffffffffffffffffffffffffffffffff1673ffffffffffffffffffffffffffffffffffffffff168152602001908152602001600020600001819055505050565b60026020528060005260406000206000915090505481565b601481565b7f000000000000000000000000000000000000000000000000000000000000000081565b600080828401905083811015611bd1576040517f08c379a000000000000000000000000000000000000000000000000000000000815260040180806020018281038252601b8152602001807f536166654d6174683a206164646974696f6e206f766572666c6f77000000000081525060200191505060405180910390fd5b8091505092915050565b60006276a700821015611bf157600a9050611c0a565b62ed4e00821015611c055760149050611c0a565b601e90505b919050565b600082821115611c87576040517f08c379a000000000000000000000000000000000000000000000000000000000815260040180806020018281038252601e8152602001807f536166654d6174683a207375627472616374696f6e206f766572666c6f77000081525060200191505060405180910390fd5b818303905092915050565b600080611cba83611cac8787611cc790919063ffffffff16565b611d4d90919063ffffffff16565b9050809150509392505050565b600080831415611cda5760009050611d47565b6000828402905082848281611ceb57fe5b0414611d42576040517f08c379a0000000000000000000000000000000000000000000000000000000008152600401808060200182810382526021815260200180611e786021913960400191505060405180910390fd5b809150505b92915050565b6000808211611dc4576040517f08c379a000000000000000000000000000000000000000000000000000000000815260040180806020018281038252601a8152602001807f536166654d6174683a206469766973696f6e206279207a65726f00000000000081525060200191505060405180910390fd5b818381611dcd57fe5b0490509291505056fe4572726f723a206e65787420617661696c61626c65206e6f742072656163686564536f667420636170206d757374206265203e20302e312045544820616e64206861726420636170203c20313030204554484861726420636170206d75737420626520626967676572207468616e20736f6674206361704572726f723a206d757374206f776e206546756e64546f6b656e20746f20636c61696d20726577617264536166654d6174683a206d756c7469706c69636174696f6e206f766572666c6f77a26469706673582212201b81ae500194e66d3d2e6878d27978b48f88102047450b8be7df4d14fba6fb9b64736f6c63430006060033496e76616c69642066756e64466163746f727920616464726573732070726f7669646564496e76616c6964206546756e6420746f6b656e20616464726573732070726f76696465644861726420636170206d75737420626520626967676572207468616e20736f667420636170",
  "linkReferences": {},
  "deployedLinkReferences": {}
}