{
  "_format": "hh-sol-artifact-1",
  "contractName": "EFundPlatform",
  "sourceName": "contracts/EFundPlatform.sol",
  "abi": [
    {
      "inputs": [
        {
          "internalType": "address",
          "name": "_fundFactory",
          "type": "address"
        },
        {
          "internalType": "address",
          "name": "_efundToken",
          "type": "address"
        },
        {
          "internalType": "uint256",
          "name": "_softCap",
          "type": "uint256"
        },
        {
          "internalType": "uint256",
          "name": "_hardCap",
          "type": "uint256"
        },
        {
          "internalType": "uint256",
          "name": "_managerMinimalCollateral",
          "type": "uint256"
        }
      ],
      "stateMutability": "nonpayable",
      "type": "constructor"
    },
    {
      "anonymous": false,
      "inputs": [
        {
          "indexed": true,
          "internalType": "address",
          "name": "recipient",
          "type": "address"
        },
        {
          "indexed": true,
          "internalType": "uint256",
          "name": "ethReceived",
          "type": "uint256"
        },
        {
          "indexed": true,
          "internalType": "uint256",
          "name": "nextAvailableClaimDate",
          "type": "uint256"
        }
      ],
      "name": "ClaimHolderRewardSuccessfully",
      "type": "event"
    },
    {
      "stateMutability": "payable",
      "type": "fallback"
    },
    {
      "inputs": [],
      "name": "bronzePeriodRewardPercentage",
      "outputs": [
        {
          "internalType": "int256",
          "name": "",
          "type": "int256"
        }
      ],
      "stateMutability": "view",
      "type": "function"
    },
    {
      "inputs": [
        {
          "internalType": "address",
          "name": "ofAddress",
          "type": "address"
        }
      ],
      "name": "calculateHolderReward",
      "outputs": [
        {
          "internalType": "uint256",
          "name": "reward",
          "type": "uint256"
        }
      ],
      "stateMutability": "view",
      "type": "function"
    },
    {
      "inputs": [
        {
          "internalType": "address",
          "name": "_address",
          "type": "address"
        }
      ],
      "name": "calculateManagerRewardPercentage",
      "outputs": [
        {
          "internalType": "int256",
          "name": "",
          "type": "int256"
        }
      ],
      "stateMutability": "view",
      "type": "function"
    },
    {
      "inputs": [],
      "name": "claimHolderReward",
      "outputs": [],
      "stateMutability": "nonpayable",
      "type": "function"
    },
    {
      "inputs": [],
      "name": "closeFund",
      "outputs": [],
      "stateMutability": "nonpayable",
      "type": "function"
    },
    {
      "inputs": [
        {
          "internalType": "address payable",
          "name": "_swapRouter",
          "type": "address"
        },
        {
          "internalType": "uint256",
          "name": "_fundDurationInMonths",
          "type": "uint256"
        },
        {
          "internalType": "uint256",
          "name": "_softCap",
          "type": "uint256"
        },
        {
          "internalType": "uint256",
          "name": "_hardCap",
          "type": "uint256"
        },
        {
          "internalType": "uint256",
          "name": "_profitFee",
          "type": "uint256"
        },
        {
          "internalType": "uint256",
          "name": "_minimalDepositAmount",
          "type": "uint256"
        },
        {
          "internalType": "uint256",
          "name": "_minTimeUntilFundStart",
          "type": "uint256"
        },
        {
          "internalType": "address payable[]",
          "name": "_allowedTokens",
          "type": "address[]"
        }
      ],
      "name": "createFund",
      "outputs": [
        {
          "internalType": "address",
          "name": "",
          "type": "address"
        }
      ],
      "stateMutability": "payable",
      "type": "function"
    },
    {
      "inputs": [],
      "name": "eFund",
      "outputs": [
        {
          "internalType": "contract IERC20",
          "name": "",
          "type": "address"
        }
      ],
      "stateMutability": "view",
      "type": "function"
    },
    {
      "inputs": [],
      "name": "fundFactory",
      "outputs": [
        {
          "internalType": "contract FundFactory",
          "name": "",
          "type": "address"
        }
      ],
      "stateMutability": "view",
      "type": "function"
    },
    {
      "inputs": [],
      "name": "getAllFunds",
      "outputs": [
        {
          "internalType": "contract HedgeFund[]",
          "name": "",
          "type": "address[]"
        }
      ],
      "stateMutability": "view",
      "type": "function"
    },
    {
      "inputs": [],
      "name": "getCurrentEthBalance",
      "outputs": [
        {
          "internalType": "uint256",
          "name": "",
          "type": "uint256"
        }
      ],
      "stateMutability": "view",
      "type": "function"
    },
    {
      "inputs": [
        {
          "internalType": "address",
          "name": "_investor",
          "type": "address"
        }
      ],
      "name": "getInvestorFunds",
      "outputs": [
        {
          "internalType": "contract HedgeFund[]",
          "name": "",
          "type": "address[]"
        }
      ],
      "stateMutability": "view",
      "type": "function"
    },
    {
      "inputs": [
        {
          "internalType": "address",
          "name": "_manager",
          "type": "address"
        }
      ],
      "name": "getManagerFunds",
      "outputs": [
        {
          "internalType": "contract HedgeFund[]",
          "name": "",
          "type": "address[]"
        }
      ],
      "stateMutability": "view",
      "type": "function"
    },
    {
      "inputs": [],
      "name": "getPlatformData",
      "outputs": [
        {
          "internalType": "uint256",
          "name": "_softCap",
          "type": "uint256"
        },
        {
          "internalType": "uint256",
          "name": "_hardCap",
          "type": "uint256"
        },
        {
          "internalType": "uint256",
          "name": "_minimumTimeUntillFundStart",
          "type": "uint256"
        },
        {
          "internalType": "uint256",
          "name": "_maximumTimeUntillFundStart",
          "type": "uint256"
        },
        {
          "internalType": "uint256",
          "name": "_minimumProfitFee",
          "type": "uint256"
        },
        {
          "internalType": "uint256",
          "name": "_maximumProfitFee",
          "type": "uint256"
        }
      ],
      "stateMutability": "view",
      "type": "function"
    },
    {
      "inputs": [
        {
          "internalType": "uint256",
          "name": "_topAmount",
          "type": "uint256"
        }
      ],
      "name": "getTopRelevantFunds",
      "outputs": [
        {
          "internalType": "contract HedgeFund[]",
          "name": "",
          "type": "address[]"
        }
      ],
      "stateMutability": "view",
      "type": "function"
    },
    {
      "inputs": [],
      "name": "goldPeriodRewardPercentage",
      "outputs": [
        {
          "internalType": "int256",
          "name": "",
          "type": "int256"
        }
      ],
      "stateMutability": "view",
      "type": "function"
    },
    {
      "inputs": [],
      "name": "goldPeriodStart",
      "outputs": [
        {
          "internalType": "uint256",
          "name": "",
          "type": "uint256"
        }
      ],
      "stateMutability": "view",
      "type": "function"
    },
    {
      "inputs": [],
      "name": "hardCap",
      "outputs": [
        {
          "internalType": "uint256",
          "name": "",
          "type": "uint256"
        }
      ],
      "stateMutability": "view",
      "type": "function"
    },
    {
      "inputs": [
        {
          "internalType": "address",
          "name": "",
          "type": "address"
        }
      ],
      "name": "isExcludedFromReward",
      "outputs": [
        {
          "internalType": "bool",
          "name": "",
          "type": "bool"
        }
      ],
      "stateMutability": "view",
      "type": "function"
    },
    {
      "inputs": [
        {
          "internalType": "address",
          "name": "",
          "type": "address"
        }
      ],
      "name": "isFund",
      "outputs": [
        {
          "internalType": "bool",
          "name": "",
          "type": "bool"
        }
      ],
      "stateMutability": "view",
      "type": "function"
    },
    {
      "inputs": [
        {
          "internalType": "address",
          "name": "",
          "type": "address"
        },
        {
          "internalType": "address",
          "name": "",
          "type": "address"
        }
      ],
      "name": "isInvestorOf",
      "outputs": [
        {
          "internalType": "bool",
          "name": "",
          "type": "bool"
        }
      ],
      "stateMutability": "view",
      "type": "function"
    },
    {
      "inputs": [
        {
          "internalType": "address",
          "name": "",
          "type": "address"
        }
      ],
      "name": "managerFundActivity",
      "outputs": [
        {
          "internalType": "uint256",
          "name": "fundActivityMonths",
          "type": "uint256"
        },
        {
          "internalType": "uint256",
          "name": "completedFunds",
          "type": "uint256"
        },
        {
          "internalType": "uint256",
          "name": "successCompletedFunds",
          "type": "uint256"
        },
        {
          "internalType": "bool",
          "name": "isValue",
          "type": "bool"
        }
      ],
      "stateMutability": "view",
      "type": "function"
    },
    {
      "inputs": [],
      "name": "maximumMinimalDepositAmountFromHardCapPercentage",
      "outputs": [
        {
          "internalType": "uint256",
          "name": "",
          "type": "uint256"
        }
      ],
      "stateMutability": "view",
      "type": "function"
    },
    {
      "inputs": [],
      "name": "maximumProfitFee",
      "outputs": [
        {
          "internalType": "uint256",
          "name": "",
          "type": "uint256"
        }
      ],
      "stateMutability": "view",
      "type": "function"
    },
    {
      "inputs": [],
      "name": "maximumTimeUntillFundStart",
      "outputs": [
        {
          "internalType": "uint256",
          "name": "",
          "type": "uint256"
        }
      ],
      "stateMutability": "view",
      "type": "function"
    },
    {
      "inputs": [],
      "name": "minimalManagerCollateral",
      "outputs": [
        {
          "internalType": "uint256",
          "name": "",
          "type": "uint256"
        }
      ],
      "stateMutability": "view",
      "type": "function"
    },
    {
      "inputs": [],
      "name": "minimumProfitFee",
      "outputs": [
        {
          "internalType": "uint256",
          "name": "",
          "type": "uint256"
        }
      ],
      "stateMutability": "view",
      "type": "function"
    },
    {
      "inputs": [],
      "name": "minimumTimeUntillFundStart",
      "outputs": [
        {
          "internalType": "uint256",
          "name": "",
          "type": "uint256"
        }
      ],
      "stateMutability": "view",
      "type": "function"
    },
    {
      "inputs": [
        {
          "internalType": "address",
          "name": "",
          "type": "address"
        }
      ],
      "name": "nextAvailableRewardClaimDate",
      "outputs": [
        {
          "internalType": "uint256",
          "name": "",
          "type": "uint256"
        }
      ],
      "stateMutability": "view",
      "type": "function"
    },
    {
      "inputs": [],
      "name": "noProfitFundFee",
      "outputs": [
        {
          "internalType": "int256",
          "name": "",
          "type": "int256"
        }
      ],
      "stateMutability": "view",
      "type": "function"
    },
    {
      "inputs": [
        {
          "internalType": "address",
          "name": "_depositorAddress",
          "type": "address"
        }
      ],
      "name": "onDepositMade",
      "outputs": [],
      "stateMutability": "nonpayable",
      "type": "function"
    },
    {
      "inputs": [],
      "name": "percentageBase",
      "outputs": [
        {
          "internalType": "uint256",
          "name": "",
          "type": "uint256"
        }
      ],
      "stateMutability": "view",
      "type": "function"
    },
    {
      "inputs": [],
      "name": "rewardCycleBlock",
      "outputs": [
        {
          "internalType": "uint256",
          "name": "",
          "type": "uint256"
        }
      ],
      "stateMutability": "view",
      "type": "function"
    },
    {
      "inputs": [],
      "name": "silverPeriodRewardPercentage",
      "outputs": [
        {
          "internalType": "int256",
          "name": "",
          "type": "int256"
        }
      ],
      "stateMutability": "view",
      "type": "function"
    },
    {
      "inputs": [],
      "name": "silverPeriodStart",
      "outputs": [
        {
          "internalType": "uint256",
          "name": "",
          "type": "uint256"
        }
      ],
      "stateMutability": "view",
      "type": "function"
    },
    {
      "inputs": [],
      "name": "softCap",
      "outputs": [
        {
          "internalType": "uint256",
          "name": "",
          "type": "uint256"
        }
      ],
      "stateMutability": "view",
      "type": "function"
    },
    {
      "stateMutability": "payable",
      "type": "receive"
    }
  ],
  "bytecode": "0x6101206040523480156200001257600080fd5b5060405162003f9938038062003f99833981810160405281019062000038919062000268565b600073ffffffffffffffffffffffffffffffffffffffff168573ffffffffffffffffffffffffffffffffffffffff161415620000ab576040517f08c379a0000000000000000000000000000000000000000000000000000000008152600401620000a2906200048a565b60405180910390fd5b600073ffffffffffffffffffffffffffffffffffffffff168473ffffffffffffffffffffffffffffffffffffffff1614156200011e576040517f08c379a00000000000000000000000000000000000000000000000000000000081526004016200011590620004ac565b60405180910390fd5b82821162000163576040517f08c379a00000000000000000000000000000000000000000000000000000000081526004016200015a90620004ce565b60405180910390fd5b818110620001a8576040517f08c379a00000000000000000000000000000000000000000000000000000000081526004016200019f90620004f0565b60405180910390fd5b8161010081815250508260e081815250508060c081815250508473ffffffffffffffffffffffffffffffffffffffff1660808173ffffffffffffffffffffffffffffffffffffffff1660601b815250508373ffffffffffffffffffffffffffffffffffffffff1660a08173ffffffffffffffffffffffffffffffffffffffff1660601b81525050505050505062000595565b6000815190506200024b8162000561565b92915050565b60008151905062000262816200057b565b92915050565b600080600080600060a086880312156200028157600080fd5b600062000291888289016200023a565b9550506020620002a4888289016200023a565b9450506040620002b78882890162000251565b9350506060620002ca8882890162000251565b9250506080620002dd8882890162000251565b9150509295509295909350565b6000620002f960248362000512565b91507f496e76616c69642066756e64466163746f727920616464726573732070726f7660008301527f69646564000000000000000000000000000000000000000000000000000000006020830152604082019050919050565b60006200036160248362000512565b91507f496e76616c6964206546756e6420746f6b656e20616464726573732070726f7660008301527f69646564000000000000000000000000000000000000000000000000000000006020830152604082019050919050565b6000620003c960258362000512565b91507f4861726420636170206d75737420626520626967676572207468616e20736f6660008301527f74206361700000000000000000000000000000000000000000000000000000006020830152604082019050919050565b600062000431602f8362000512565b91507f4d696e756d616c206d616e6167657220636f6c6c61746572616c2063616e6e6f60008301527f74206265203e3d206861726443617000000000000000000000000000000000006020830152604082019050919050565b60006020820190508181036000830152620004a581620002ea565b9050919050565b60006020820190508181036000830152620004c78162000352565b9050919050565b60006020820190508181036000830152620004e981620003ba565b9050919050565b600060208201905081810360008301526200050b8162000422565b9050919050565b600082825260208201905092915050565b6000620005308262000537565b9050919050565b600073ffffffffffffffffffffffffffffffffffffffff82169050919050565b6000819050919050565b6200056c8162000523565b81146200057857600080fd5b50565b620005868162000557565b81146200059257600080fd5b50565b60805160601c60a05160601c60c05160e0516101005161398262000617600039806113eb5280611e09528061246a5250806112aa52806114165280611de8525080610ef052806114dc525080610f1b5280610fc352806116555280611b085280611bb55280611c5e5280611d1d525080610ec752806115f052506139826000f3fe6080604052600436106102085760003560e01c8063a1ef85dc11610118578063de145692116100a0578063f4817d6d1161006f578063f4817d6d146107a2578063f61dc9e5146107df578063fb86a4041461080a578063fc8fc79714610835578063fd56b302146108605761020f565b8063de145692146106f3578063e2164cdb1461071e578063e2c9b8a91461074e578063e3a1c6fe1461078b5761020f565b8063ca5b42cf116100e7578063ca5b42cf146105e6578063ca8f4ae814610623578063cc9bc68b14610660578063d0b4fa051461068b578063d10d51a2146106c85761020f565b8063a1ef85dc14610511578063b0c72e901461053c578063b2c50b5314610579578063c7153b89146105a95761020f565b8063576816d91161019b5780637217f4bc1161016a5780637217f4bc1461041357806388f820201461043e5780638c5007871461047b578063906a26e0146104bb578063941e041c146104e65761020f565b8063576816d91461037b5780635c819281146103a6578063611b5322146103d157806365700481146103fc5761020f565b806326a3b51f116101d757806326a3b51f146102cf5780632ed6f71c146102fa5780633dea9e661461032557806344e8bc7d146103505761020f565b806308b89603146102115780631868b7291461023c5780631c69b4641461027957806322ab155e146102a45761020f565b3661020f57005b005b34801561021d57600080fd5b50610226610889565b604051610233919061365d565b60405180910390f35b34801561024857600080fd5b50610263600480360381019061025e9190612b40565b610890565b60405161027091906133ad565b60405180910390f35b34801561028557600080fd5b5061028e610e25565b60405161029b91906133ad565b60405180910390f35b3480156102b057600080fd5b506102b9610eb3565b6040516102c6919061365d565b60405180910390f35b3480156102db57600080fd5b506102e4610eb8565b6040516102f19190613420565b60405180910390f35b34801561030657600080fd5b5061030f610ebd565b60405161031c919061365d565b60405180910390f35b34801561033157600080fd5b5061033a610ec5565b60405161034791906133ea565b60405180910390f35b34801561035c57600080fd5b50610365610ee9565b604051610372919061365d565b60405180910390f35b34801561038757600080fd5b50610390610eee565b60405161039d919061365d565b60405180910390f35b3480156103b257600080fd5b506103bb610f12565b6040516103c8919061365d565b60405180910390f35b3480156103dd57600080fd5b506103e6610f19565b6040516103f39190613405565b60405180910390f35b34801561040857600080fd5b50610411610f3d565b005b34801561041f57600080fd5b50610428611244565b604051610435919061365d565b60405180910390f35b34801561044a57600080fd5b50610465600480360381019061046091906129bf565b61124b565b60405161047291906133cf565b60405180910390f35b34801561048757600080fd5b506104a2600480360381019061049d91906129bf565b61126b565b6040516104b29493929190613678565b60405180910390f35b3480156104c757600080fd5b506104d06112a8565b6040516104dd919061365d565b60405180910390f35b3480156104f257600080fd5b506104fb6112cc565b604051610508919061365d565b60405180910390f35b34801561051d57600080fd5b506105266112d3565b604051610533919061365d565b60405180910390f35b34801561054857600080fd5b50610563600480360381019061055e91906129bf565b6112d8565b60405161057091906133ad565b60405180910390f35b610593600480360381019061058e9190612a3a565b6113a5565b6040516105a09190613377565b60405180910390f35b3480156105b557600080fd5b506105d060048036038101906105cb91906129bf565b6119c9565b6040516105dd91906133cf565b60405180910390f35b3480156105f257600080fd5b5061060d60048036038101906106089190612b04565b6119e9565b60405161061a91906133cf565b60405180910390f35b34801561062f57600080fd5b5061064a600480360381019061064591906129bf565b611a18565b6040516106579190613420565b60405180910390f35b34801561066c57600080fd5b50610675611afb565b604051610682919061365d565b60405180910390f35b34801561069757600080fd5b506106b260048036038101906106ad91906129bf565b611b00565b6040516106bf919061365d565b60405180910390f35b3480156106d457600080fd5b506106dd611dd3565b6040516106ea9190613420565b60405180910390f35b3480156106ff57600080fd5b50610708611dd8565b6040516107159190613420565b60405180910390f35b34801561072a57600080fd5b50610733611ddd565b604051610745969594939291906136bd565b60405180910390f35b34801561075a57600080fd5b50610775600480360381019061077091906129bf565b611e46565b60405161078291906133ad565b60405180910390f35b34801561079757600080fd5b506107a0611f13565b005b3480156107ae57600080fd5b506107c960048036038101906107c491906129bf565b61244b565b6040516107d6919061365d565b60405180910390f35b3480156107eb57600080fd5b506107f4612463565b6040516108019190613420565b60405180910390f35b34801561081657600080fd5b5061081f612468565b60405161082c919061365d565b60405180910390f35b34801561084157600080fd5b5061084a61248c565b604051610857919061365d565b60405180910390f35b34801561086c57600080fd5b50610887600480360381019061088291906129bf565b612491565b005b62ed4e0081565b606060008080549050141561092d57600080548060200260200160405190810160405280929190818152602001828054801561092157602002820191906000526020600020905b8160009054906101000a900473ffffffffffffffffffffffffffffffffffffffff1673ffffffffffffffffffffffffffffffffffffffff16815260200190600101908083116108d7575b50505050509050610e20565b60008054905082106109425760008054905091505b606060008054905067ffffffffffffffff8111801561096057600080fd5b5060405190808252806020026020018201604052801561098f5781602001602082028036833780820191505090505b50905060008090505b600080549050811015610a3057600081815481106109b257fe5b9060005260206000200160009054906101000a900473ffffffffffffffffffffffffffffffffffffffff168282815181106109e957fe5b602002602001019073ffffffffffffffffffffffffffffffffffffffff16908173ffffffffffffffffffffffffffffffffffffffff16815250508080600101915050610998565b5060608367ffffffffffffffff81118015610a4a57600080fd5b50604051908082528060200260200182016040528015610a795781602001602082028036833780820191505090505b50905060008090505b8251811015610d8c5760008090505b60018285510303811015610d7e5760046000856001840181518110610ab257fe5b602002602001015173ffffffffffffffffffffffffffffffffffffffff16636209ec2d6040518163ffffffff1660e01b815260040160206040518083038186803b158015610aff57600080fd5b505afa158015610b13573d6000803e3d6000fd5b505050506040513d601f19601f82011682018060405250810190610b379190612a11565b73ffffffffffffffffffffffffffffffffffffffff1673ffffffffffffffffffffffffffffffffffffffff1681526020019081526020016000206002015460046000868481518110610b8557fe5b602002602001015173ffffffffffffffffffffffffffffffffffffffff16636209ec2d6040518163ffffffff1660e01b815260040160206040518083038186803b158015610bd257600080fd5b505afa158015610be6573d6000803e3d6000fd5b505050506040513d601f19601f82011682018060405250810190610c0a9190612a11565b73ffffffffffffffffffffffffffffffffffffffff1673ffffffffffffffffffffffffffffffffffffffff16815260200190815260200160002060020154118015610cab5750836001820181518110610c5f57fe5b602002602001015173ffffffffffffffffffffffffffffffffffffffff1631848281518110610c8a57fe5b602002602001015173ffffffffffffffffffffffffffffffffffffffff1631115b15610d71576000846001830181518110610cc157fe5b60200260200101519050848281518110610cd757fe5b6020026020010151856001840181518110610cee57fe5b602002602001019073ffffffffffffffffffffffffffffffffffffffff16908173ffffffffffffffffffffffffffffffffffffffff168152505080858381518110610d3557fe5b602002602001019073ffffffffffffffffffffffffffffffffffffffff16908173ffffffffffffffffffffffffffffffffffffffff1681525050505b8080600101915050610a91565b508080600101915050610a82565b506000600160008054905003905060008090505b85811015610e1857838281518110610db457fe5b6020026020010151838281518110610dc857fe5b602002602001019073ffffffffffffffffffffffffffffffffffffffff16908173ffffffffffffffffffffffffffffffffffffffff16815250508180600190039250508080600101915050610da0565b508193505050505b919050565b60606000805480602002602001604051908101604052809291908181526020018280548015610ea957602002820191906000526020600020905b8160009054906101000a900473ffffffffffffffffffffffffffffffffffffffff1673ffffffffffffffffffffffffffffffffffffffff1681526020019060010190808311610e5f575b5050505050905090565b606481565b601e81565b600047905090565b7f000000000000000000000000000000000000000000000000000000000000000081565b600081565b7f000000000000000000000000000000000000000000000000000000000000000081565b6276a70081565b7f000000000000000000000000000000000000000000000000000000000000000081565b42600660003373ffffffffffffffffffffffffffffffffffffffff1673ffffffffffffffffffffffffffffffffffffffff168152602001908152602001600020541115610fbf576040517f08c379a0000000000000000000000000000000000000000000000000000000008152600401610fb69061343b565b60405180910390fd5b60007f000000000000000000000000000000000000000000000000000000000000000073ffffffffffffffffffffffffffffffffffffffff166370a08231336040518263ffffffff1660e01b815260040161101a9190613392565b60206040518083038186803b15801561103257600080fd5b505afa158015611046573d6000803e3d6000fd5b505050506040513d601f19601f8201168201806040525081019061106a9190612b69565b116110aa576040517f08c379a00000000000000000000000000000000000000000000000000000000081526004016110a19061357b565b60405180910390fd5b60006110b533611b00565b90506110cd62093a80426126ea90919063ffffffff16565b600660003373ffffffffffffffffffffffffffffffffffffffff1673ffffffffffffffffffffffffffffffffffffffff1681526020019081526020016000208190555060003373ffffffffffffffffffffffffffffffffffffffff168260405161113690613362565b60006040518083038185875af1925050503d8060008114611173576040519150601f19603f3d011682016040523d82523d6000602084013e611178565b606091505b50509050806111bc576040517f08c379a00000000000000000000000000000000000000000000000000000000081526004016111b3906135fb565b60405180910390fd5b600660003373ffffffffffffffffffffffffffffffffffffffff1673ffffffffffffffffffffffffffffffffffffffff16815260200190815260200160002054823373ffffffffffffffffffffffffffffffffffffffff167f22eee7f02e36f8323e1e4f98d1b2002e1ec68523f572f475011a03969d292aa560405160405180910390a45050565b62093a8081565b60076020528060005260406000206000915054906101000a900460ff1681565b60046020528060005260406000206000915090508060000154908060010154908060020154908060030160009054906101000a900460ff16905084565b7f000000000000000000000000000000000000000000000000000000000000000081565b620d2f0081565b600a81565b6060600160008373ffffffffffffffffffffffffffffffffffffffff1673ffffffffffffffffffffffffffffffffffffffff16815260200190815260200160002080548060200260200160405190810160405280929190818152602001828054801561139957602002820191906000526020600020905b8160009054906101000a900473ffffffffffffffffffffffffffffffffffffffff1673ffffffffffffffffffffffffffffffffffffffff168152602001906001019080831161134f575b50505050509050919050565b60008686116113e9576040517f08c379a00000000000000000000000000000000000000000000000000000000081526004016113e09061355b565b60405180910390fd5b7f0000000000000000000000000000000000000000000000000000000000000000861115801561143957507f00000000000000000000000000000000000000000000000000000000000000008710155b611478576040517f08c379a000000000000000000000000000000000000000000000000000000000815260040161146f906135db565b60405180910390fd5b60008411801561149b5750611497600a8761273f90919063ffffffff16565b8411155b6114da576040517f08c379a00000000000000000000000000000000000000000000000000000000081526004016114d1906134fb565b60405180910390fd5b7f0000000000000000000000000000000000000000000000000000000000000000341015801561150957508534105b611548576040517f08c379a000000000000000000000000000000000000000000000000000000000815260040161153f9061349b565b60405180910390fd5b6001851015801561155a5750600a8511155b611599576040517f08c379a00000000000000000000000000000000000000000000000000000000081526004016115909061361b565b60405180910390fd5b600083101580156115ad5750620d2f008311155b6115ec576040517f08c379a00000000000000000000000000000000000000000000000000000000081526004016115e39061345b565b60405180910390fd5b60007f000000000000000000000000000000000000000000000000000000000000000073ffffffffffffffffffffffffffffffffffffffff16637072997d346040518061018001604052808e73ffffffffffffffffffffffffffffffffffffffff1681526020017f000000000000000000000000000000000000000000000000000000000000000073ffffffffffffffffffffffffffffffffffffffff1681526020013073ffffffffffffffffffffffffffffffffffffffff1681526020018c81526020018b81526020018a81526020018981526020018881526020013373ffffffffffffffffffffffffffffffffffffffff1681526020018d8152602001348152602001878152506040518363ffffffff1660e01b8152600401611711919061363b565b6020604051808303818588803b15801561172a57600080fd5b505af115801561173e573d6000803e3d6000fd5b50505050506040513d601f19601f8201168201806040525081019061176391906129e8565b90506000819080600181540180825580915050600190039060005260206000200160009091909190916101000a81548173ffffffffffffffffffffffffffffffffffffffff021916908373ffffffffffffffffffffffffffffffffffffffff160217905550600160003373ffffffffffffffffffffffffffffffffffffffff1673ffffffffffffffffffffffffffffffffffffffff168152602001908152602001600020819080600181540180825580915050600190039060005260206000200160009091909190916101000a81548173ffffffffffffffffffffffffffffffffffffffff021916908373ffffffffffffffffffffffffffffffffffffffff1602179055506001600360008373ffffffffffffffffffffffffffffffffffffffff1673ffffffffffffffffffffffffffffffffffffffff16815260200190815260200160002060006101000a81548160ff021916908315150217905550600460003373ffffffffffffffffffffffffffffffffffffffff1673ffffffffffffffffffffffffffffffffffffffff16815260200190815260200160002060030160009054906101000a900460ff166119bc57604051806080016040528060008152602001600081526020016000815260200160011515815250600460003373ffffffffffffffffffffffffffffffffffffffff1673ffffffffffffffffffffffffffffffffffffffff16815260200190815260200160002060008201518160000155602082015181600101556040820151816002015560608201518160030160006101000a81548160ff0219169083151502179055509050505b5098975050505050505050565b60036020528060005260406000206000915054906101000a900460ff1681565b60056020528160005260406000206020528060005260406000206000915091509054906101000a900460ff1681565b6000600460008373ffffffffffffffffffffffffffffffffffffffff1673ffffffffffffffffffffffffffffffffffffffff16815260200190815260200160002060030160009054906101000a900460ff16611aa9576040517f08c379a0000000000000000000000000000000000000000000000000000000008152600401611aa0906134bb565b60405180910390fd5b611af4600460008473ffffffffffffffffffffffffffffffffffffffff1673ffffffffffffffffffffffffffffffffffffffff16815260200190815260200160002060000154612795565b9050919050565b600a81565b600080611d167f000000000000000000000000000000000000000000000000000000000000000073ffffffffffffffffffffffffffffffffffffffff166370a0823160006040518263ffffffff1660e01b8152600401611b609190613392565b60206040518083038186803b158015611b7857600080fd5b505afa158015611b8c573d6000803e3d6000fd5b505050506040513d601f19601f82011682018060405250810190611bb09190612b69565b611d087f000000000000000000000000000000000000000000000000000000000000000073ffffffffffffffffffffffffffffffffffffffff166370a08231306040518263ffffffff1660e01b8152600401611c0c9190613392565b60206040518083038186803b158015611c2457600080fd5b505afa158015611c38573d6000803e3d6000fd5b505050506040513d601f19601f82011682018060405250810190611c5c9190612b69565b7f000000000000000000000000000000000000000000000000000000000000000073ffffffffffffffffffffffffffffffffffffffff166318160ddd6040518163ffffffff1660e01b815260040160206040518083038186803b158015611cc257600080fd5b505afa158015611cd6573d6000803e3d6000fd5b505050506040513d601f19601f82011682018060405250810190611cfa9190612b69565b6127c990919063ffffffff16565b6127c990919063ffffffff16565b9050611dcb7f000000000000000000000000000000000000000000000000000000000000000073ffffffffffffffffffffffffffffffffffffffff166370a08231856040518263ffffffff1660e01b8152600401611d749190613377565b60206040518083038186803b158015611d8c57600080fd5b505afa158015611da0573d6000803e3d6000fd5b505050506040513d601f19601f82011682018060405250810190611dc49190612b69565b4783612819565b915050919050565b600381565b600a81565b6000806000806000807f00000000000000000000000000000000000000000000000000000000000000007f00000000000000000000000000000000000000000000000000000000000000006000620d2f006001600a955095509550955095509550909192939495565b6060600260008373ffffffffffffffffffffffffffffffffffffffff1673ffffffffffffffffffffffffffffffffffffffff168152602001908152602001600020805480602002602001604051908101604052809291908181526020018280548015611f0757602002820191906000526020600020905b8160009054906101000a900473ffffffffffffffffffffffffffffffffffffffff1673ffffffffffffffffffffffffffffffffffffffff1681526020019060010190808311611ebd575b50505050509050919050565b600360003373ffffffffffffffffffffffffffffffffffffffff1673ffffffffffffffffffffffffffffffffffffffff16815260200190815260200160002060009054906101000a900460ff16611f9f576040517f08c379a0000000000000000000000000000000000000000000000000000000008152600401611f969061353b565b60405180910390fd5b6000339050428173ffffffffffffffffffffffffffffffffffffffff1663439f5ac26040518163ffffffff1660e01b815260040160206040518083038186803b158015611feb57600080fd5b505afa158015611fff573d6000803e3d6000fd5b505050506040513d601f19601f820116820180604052508101906120239190612b69565b10612063576040517f08c379a000000000000000000000000000000000000000000000000000000000815260040161205a906135bb565b60405180910390fd5b60008173ffffffffffffffffffffffffffffffffffffffff16636209ec2d6040518163ffffffff1660e01b815260040160206040518083038186803b1580156120ab57600080fd5b505afa1580156120bf573d6000803e3d6000fd5b505050506040513d601f19601f820116820180604052508101906120e39190612a11565b90506000600460008373ffffffffffffffffffffffffffffffffffffffff1673ffffffffffffffffffffffffffffffffffffffff1681526020019081526020016000206000015490506121bc8373ffffffffffffffffffffffffffffffffffffffff16636da797c96040518163ffffffff1660e01b815260040160206040518083038186803b15801561217557600080fd5b505afa158015612189573d6000803e3d6000fd5b505050506040513d601f19601f820116820180604052508101906121ad9190612b69565b826126ea90919063ffffffff16565b600460008473ffffffffffffffffffffffffffffffffffffffff1673ffffffffffffffffffffffffffffffffffffffff168152602001908152602001600020600001819055506122586001600460008573ffffffffffffffffffffffffffffffffffffffff1673ffffffffffffffffffffffffffffffffffffffff168152602001908152602001600020600101546126ea90919063ffffffff16565b600460008473ffffffffffffffffffffffffffffffffffffffff1673ffffffffffffffffffffffffffffffffffffffff168152602001908152602001600020600101819055506124008373ffffffffffffffffffffffffffffffffffffffff166338bde7916040518163ffffffff1660e01b815260040160206040518083038186803b1580156122e757600080fd5b505afa1580156122fb573d6000803e3d6000fd5b505050506040513d601f19601f8201168201806040525081019061231f9190612b69565b8473ffffffffffffffffffffffffffffffffffffffff1663a1956e326040518163ffffffff1660e01b815260040160206040518083038186803b15801561236557600080fd5b505afa158015612379573d6000803e3d6000fd5b505050506040513d601f19601f8201168201806040525081019061239d9190612b69565b116123a95760006123ac565b60015b60ff16600460008573ffffffffffffffffffffffffffffffffffffffff1673ffffffffffffffffffffffffffffffffffffffff168152602001908152602001600020600201546126ea90919063ffffffff16565b600460008473ffffffffffffffffffffffffffffffffffffffff1673ffffffffffffffffffffffffffffffffffffffff16815260200190815260200160002060020181905550505050565b60066020528060005260406000206000915090505481565b601481565b7f000000000000000000000000000000000000000000000000000000000000000081565b600181565b600360003373ffffffffffffffffffffffffffffffffffffffff1673ffffffffffffffffffffffffffffffffffffffff16815260200190815260200160002060009054906101000a900460ff1661251d576040517f08c379a00000000000000000000000000000000000000000000000000000000081526004016125149061353b565b60405180910390fd5b600560008273ffffffffffffffffffffffffffffffffffffffff1673ffffffffffffffffffffffffffffffffffffffff16815260200190815260200160002060003373ffffffffffffffffffffffffffffffffffffffff1673ffffffffffffffffffffffffffffffffffffffff16815260200190815260200160002060009054906101000a900460ff16156125b1576126e7565b6001600560008373ffffffffffffffffffffffffffffffffffffffff1673ffffffffffffffffffffffffffffffffffffffff16815260200190815260200160002060003373ffffffffffffffffffffffffffffffffffffffff1673ffffffffffffffffffffffffffffffffffffffff16815260200190815260200160002060006101000a81548160ff021916908315150217905550600260008273ffffffffffffffffffffffffffffffffffffffff1673ffffffffffffffffffffffffffffffffffffffff168152602001908152602001600020339080600181540180825580915050600190039060005260206000200160009091909190916101000a81548173ffffffffffffffffffffffffffffffffffffffff021916908373ffffffffffffffffffffffffffffffffffffffff1602179055505b50565b600080828401905083811015612735576040517f08c379a000000000000000000000000000000000000000000000000000000000815260040161272c9061347b565b60405180910390fd5b8091505092915050565b6000808211612783576040517f08c379a000000000000000000000000000000000000000000000000000000000815260040161277a9061351b565b60405180910390fd5b81838161278c57fe5b04905092915050565b60006276a7008210156127ab57600a90506127c4565b62ed4e008210156127bf57601490506127c4565b601e90505b919050565b60008282111561280e576040517f08c379a0000000000000000000000000000000000000000000000000000000008152600401612805906134db565b60405180910390fd5b818303905092915050565b60008061284183612833878761284e90919063ffffffff16565b61273f90919063ffffffff16565b9050809150509392505050565b60008083141561286157600090506128b8565b600082840290508284828161287257fe5b04146128b3576040517f08c379a00000000000000000000000000000000000000000000000000000000081526004016128aa9061359b565b60405180910390fd5b809150505b92915050565b6000813590506128cd81613907565b92915050565b6000815190506128e281613907565b92915050565b6000813590506128f78161391e565b92915050565b60008151905061290c8161391e565b92915050565b600082601f83011261292357600080fd5b81356129366129318261374b565b61371e565b9150818183526020840193506020810190508385602084028201111561295b57600080fd5b60005b8381101561298b578161297188826128e8565b84526020840193506020830192505060018101905061295e565b5050505092915050565b6000813590506129a481613935565b92915050565b6000815190506129b981613935565b92915050565b6000602082840312156129d157600080fd5b60006129df848285016128be565b91505092915050565b6000602082840312156129fa57600080fd5b6000612a08848285016128d3565b91505092915050565b600060208284031215612a2357600080fd5b6000612a31848285016128fd565b91505092915050565b600080600080600080600080610100898b031215612a5757600080fd5b6000612a658b828c016128e8565b9850506020612a768b828c01612995565b9750506040612a878b828c01612995565b9650506060612a988b828c01612995565b9550506080612aa98b828c01612995565b94505060a0612aba8b828c01612995565b93505060c0612acb8b828c01612995565b92505060e089013567ffffffffffffffff811115612ae857600080fd5b612af48b828c01612912565b9150509295985092959890939650565b60008060408385031215612b1757600080fd5b6000612b25858286016128be565b9250506020612b36858286016128be565b9150509250929050565b600060208284031215612b5257600080fd5b6000612b6084828501612995565b91505092915050565b600060208284031215612b7b57600080fd5b6000612b89848285016129aa565b91505092915050565b6000612b9e8383612bd1565b60208301905092915050565b6000612bb68383612cc9565b60208301905092915050565b612bcb81613865565b82525050565b612bda81613813565b82525050565b612be981613801565b82525050565b6000612bfa82613793565b612c0481856137c3565b9350612c0f83613773565b8060005b83811015612c40578151612c278882612b92565b9750612c32836137a9565b925050600181019050612c13565b5085935050505092915050565b6000612c588261379e565b612c6281856137d4565b9350612c6d83613783565b8060005b83811015612c9e578151612c858882612baa565b9750612c90836137b6565b925050600181019050612c71565b5085935050505092915050565b612cb481613825565b82525050565b612cc381613877565b82525050565b612cd28161389b565b82525050565b612ce1816138bf565b82525050565b612cf081613831565b82525050565b6000612d036021836137f0565b91507f4572726f723a206e65787420617661696c61626c65206e6f742072656163686560008301527f64000000000000000000000000000000000000000000000000000000000000006020830152604082019050919050565b6000612d696039836137f0565b91507f4d696e54696d65556e74696c6c46756e6453746172742076616c75652069732060008301527f6f757473696465207468652066756e64537461727420676170000000000000006020830152604082019050919050565b6000612dcf601b836137f0565b91507f536166654d6174683a206164646974696f6e206f766572666c6f7700000000006000830152602082019050919050565b6000612e0f603e836137f0565b91507f76616c7565206d757374206265203c20686172642063617020616e64203e207460008301527f68616e206d696e696d756d206d616e6167657220636f6c6c61746572616c00006020830152604082019050919050565b6000612e75601d836137f0565b91507f41646472657373206973206e6f7420612066756e64206d616e616765720000006000830152602082019050919050565b6000612eb5601e836137f0565b91507f536166654d6174683a207375627472616374696f6e206f766572666c6f7700006000830152602082019050919050565b6000612ef5601c836137f0565b91507f496e76616c6964206d696e696d616c4465706f736974416d6f756e74000000006000830152602082019050919050565b6000612f35601a836137f0565b91507f536166654d6174683a206469766973696f6e206279207a65726f0000000000006000830152602082019050919050565b6000612f75601c836137f0565b91507f43616c6c65722061646472657373206973206e6f7420612066756e64000000006000830152602082019050919050565b6000612fb56025836137f0565b91507f4861726420636170206d75737420626520626967676572207468616e20736f6660008301527f74206361700000000000000000000000000000000000000000000000000000006020830152604082019050919050565b600061301b602a836137f0565b91507f4572726f723a206d757374206f776e206546756e64546f6b656e20746f20636c60008301527f61696d20726577617264000000000000000000000000000000000000000000006020830152604082019050919050565b60006130816021836137f0565b91507f536166654d6174683a206d756c7469706c69636174696f6e206f766572666c6f60008301527f77000000000000000000000000000000000000000000000000000000000000006020830152604082019050919050565b60006130e76015836137f0565b91507f46756e64206973206e6f7420636f6d706c6574656400000000000000000000006000830152602082019050919050565b60006131276033836137f0565b91507f486172644361702076616c756573206973206f7574736964652074686520706c60008301527f6174666f726d2064656661756c742063617073000000000000000000000000006020830152604082019050919050565b600061318d6000836137e5565b9150600082019050919050565b60006131a7601d836137f0565b91507f4572726f723a2043616e6e6f74207769746864726177207265776172640000006000830152602082019050919050565b60006131e76030836137f0565b91507f4d616e61676572206665652076616c7565206973206f7574736964652074686560008301527f206d616e616765722066656520676170000000000000000000000000000000006020830152604082019050919050565b6000610180830160008301516132596000860182612bd1565b50602083015161326c6020860182612bd1565b50604083015161327f6040860182612bd1565b5060608301516132926060860182613344565b5060808301516132a56080860182613344565b5060a08301516132b860a0860182613344565b5060c08301516132cb60c0860182613344565b5060e08301516132de60e0860182613344565b506101008301516132f3610100860182612bd1565b50610120830151613308610120860182613344565b5061014083015161331d610140860182613344565b506101608301518482036101608601526133378282612bef565b9150508091505092915050565b61334d8161385b565b82525050565b61335c8161385b565b82525050565b600061336d82613180565b9150819050919050565b600060208201905061338c6000830184612be0565b92915050565b60006020820190506133a76000830184612bc2565b92915050565b600060208201905081810360008301526133c78184612c4d565b905092915050565b60006020820190506133e46000830184612cab565b92915050565b60006020820190506133ff6000830184612cba565b92915050565b600060208201905061341a6000830184612cd8565b92915050565b60006020820190506134356000830184612ce7565b92915050565b6000602082019050818103600083015261345481612cf6565b9050919050565b6000602082019050818103600083015261347481612d5c565b9050919050565b6000602082019050818103600083015261349481612dc2565b9050919050565b600060208201905081810360008301526134b481612e02565b9050919050565b600060208201905081810360008301526134d481612e68565b9050919050565b600060208201905081810360008301526134f481612ea8565b9050919050565b6000602082019050818103600083015261351481612ee8565b9050919050565b6000602082019050818103600083015261353481612f28565b9050919050565b6000602082019050818103600083015261355481612f68565b9050919050565b6000602082019050818103600083015261357481612fa8565b9050919050565b600060208201905081810360008301526135948161300e565b9050919050565b600060208201905081810360008301526135b481613074565b9050919050565b600060208201905081810360008301526135d4816130da565b9050919050565b600060208201905081810360008301526135f48161311a565b9050919050565b600060208201905081810360008301526136148161319a565b9050919050565b60006020820190508181036000830152613634816131da565b9050919050565b600060208201905081810360008301526136558184613240565b905092915050565b60006020820190506136726000830184613353565b92915050565b600060808201905061368d6000830187613353565b61369a6020830186613353565b6136a76040830185613353565b6136b46060830184612cab565b95945050505050565b600060c0820190506136d26000830189613353565b6136df6020830188613353565b6136ec6040830187613353565b6136f96060830186613353565b6137066080830185613353565b61371360a0830184613353565b979650505050505050565b6000604051905081810181811067ffffffffffffffff8211171561374157600080fd5b8060405250919050565b600067ffffffffffffffff82111561376257600080fd5b602082029050602081019050919050565b6000819050602082019050919050565b6000819050602082019050919050565b600081519050919050565b600081519050919050565b6000602082019050919050565b6000602082019050919050565b600082825260208201905092915050565b600082825260208201905092915050565b600081905092915050565b600082825260208201905092915050565b600061380c8261383b565b9050919050565b600061381e8261383b565b9050919050565b60008115159050919050565b6000819050919050565b600073ffffffffffffffffffffffffffffffffffffffff82169050919050565b6000819050919050565b6000613870826138e3565b9050919050565b600061388282613889565b9050919050565b60006138948261383b565b9050919050565b60006138a6826138ad565b9050919050565b60006138b88261383b565b9050919050565b60006138ca826138d1565b9050919050565b60006138dc8261383b565b9050919050565b60006138ee826138f5565b9050919050565b60006139008261383b565b9050919050565b61391081613801565b811461391b57600080fd5b50565b61392781613813565b811461393257600080fd5b50565b61393e8161385b565b811461394957600080fd5b5056fea264697066735822122048a1d1692344ba428fc8608689348e41249d696c56e5ba68209ee9d32368ee7164736f6c63430006060033",
  "linkReferences": {},
  "deployedLinkReferences": {}
}