{
  "_format": "hh-sol-artifact-1",
  "contractName": "EFundPlatform",
  "sourceName": "contracts/EFundPlatform.sol",
  "abi": [
    {
      "inputs": [
        {
          "internalType": "address",
          "name": "_fundFactory",
          "type": "address"
        },
        {
          "internalType": "address",
          "name": "_efundToken",
          "type": "address"
        },
        {
          "internalType": "uint256",
          "name": "_softCap",
          "type": "uint256"
        },
        {
          "internalType": "uint256",
          "name": "_hardCap",
          "type": "uint256"
        }
      ],
      "stateMutability": "nonpayable",
      "type": "constructor"
    },
    {
      "anonymous": false,
      "inputs": [
        {
          "indexed": true,
          "internalType": "address",
          "name": "recipient",
          "type": "address"
        },
        {
          "indexed": true,
          "internalType": "uint256",
          "name": "ethReceived",
          "type": "uint256"
        },
        {
          "indexed": true,
          "internalType": "uint256",
          "name": "nextAvailableClaimDate",
          "type": "uint256"
        }
      ],
      "name": "ClaimHolderRewardSuccessfully",
      "type": "event"
    },
    {
      "stateMutability": "payable",
      "type": "fallback"
    },
    {
      "inputs": [],
      "name": "bronzePeriodRewardPercentage",
      "outputs": [
        {
          "internalType": "int256",
          "name": "",
          "type": "int256"
        }
      ],
      "stateMutability": "view",
      "type": "function"
    },
    {
      "inputs": [
        {
          "internalType": "address",
          "name": "ofAddress",
          "type": "address"
        }
      ],
      "name": "calculateHolderReward",
      "outputs": [
        {
          "internalType": "uint256",
          "name": "reward",
          "type": "uint256"
        }
      ],
      "stateMutability": "view",
      "type": "function"
    },
    {
      "inputs": [
        {
          "internalType": "address",
          "name": "_address",
          "type": "address"
        }
      ],
      "name": "calculateManagerRewardPercentage",
      "outputs": [
        {
          "internalType": "int256",
          "name": "",
          "type": "int256"
        }
      ],
      "stateMutability": "view",
      "type": "function"
    },
    {
      "inputs": [],
      "name": "claimHolderReward",
      "outputs": [],
      "stateMutability": "nonpayable",
      "type": "function"
    },
    {
      "inputs": [],
      "name": "closeFund",
      "outputs": [],
      "stateMutability": "nonpayable",
      "type": "function"
    },
    {
      "inputs": [
        {
          "internalType": "address payable",
          "name": "_swapRouter",
          "type": "address"
        },
        {
          "internalType": "uint256",
          "name": "_fundDurationInMonths",
          "type": "uint256"
        },
        {
          "internalType": "uint256",
          "name": "_softCap",
          "type": "uint256"
        },
        {
          "internalType": "uint256",
          "name": "_hardCap",
          "type": "uint256"
        },
        {
          "internalType": "uint256",
          "name": "_profitFee",
          "type": "uint256"
        },
        {
          "internalType": "uint256",
          "name": "_minimalDepositAmount",
          "type": "uint256"
        },
        {
          "internalType": "uint256",
          "name": "_minTimeUntilFundStart",
          "type": "uint256"
        },
        {
          "internalType": "address payable[]",
          "name": "_allowedTokens",
          "type": "address[]"
        }
      ],
      "name": "createFund",
      "outputs": [
        {
          "internalType": "address",
          "name": "",
          "type": "address"
        }
      ],
      "stateMutability": "payable",
      "type": "function"
    },
    {
      "inputs": [],
      "name": "defaultFundFee",
      "outputs": [
        {
          "internalType": "int256",
          "name": "",
          "type": "int256"
        }
      ],
      "stateMutability": "view",
      "type": "function"
    },
    {
      "inputs": [],
      "name": "eFund",
      "outputs": [
        {
          "internalType": "contract IERC20",
          "name": "",
          "type": "address"
        }
      ],
      "stateMutability": "view",
      "type": "function"
    },
    {
      "inputs": [],
      "name": "fundFactory",
      "outputs": [
        {
          "internalType": "contract FundFactory",
          "name": "",
          "type": "address"
        }
      ],
      "stateMutability": "view",
      "type": "function"
    },
    {
      "inputs": [],
      "name": "getAllFunds",
      "outputs": [
        {
          "internalType": "contract HedgeFund[]",
          "name": "",
          "type": "address[]"
        }
      ],
      "stateMutability": "view",
      "type": "function"
    },
    {
      "inputs": [],
      "name": "getCurrentEthBalance",
      "outputs": [
        {
          "internalType": "uint256",
          "name": "",
          "type": "uint256"
        }
      ],
      "stateMutability": "view",
      "type": "function"
    },
    {
      "inputs": [
        {
          "internalType": "address",
          "name": "manager",
          "type": "address"
        }
      ],
      "name": "getManagerFunds",
      "outputs": [
        {
          "internalType": "contract HedgeFund[]",
          "name": "",
          "type": "address[]"
        }
      ],
      "stateMutability": "view",
      "type": "function"
    },
    {
      "inputs": [],
      "name": "getPlatformData",
      "outputs": [
        {
          "internalType": "uint256",
          "name": "_softCap",
          "type": "uint256"
        },
        {
          "internalType": "uint256",
          "name": "_hardCap",
          "type": "uint256"
        },
        {
          "internalType": "uint256",
          "name": "_minimumTimeUntillFundStart",
          "type": "uint256"
        },
        {
          "internalType": "uint256",
          "name": "_maximumTimeUntillFundStart",
          "type": "uint256"
        },
        {
          "internalType": "uint256",
          "name": "_minimumProfitFee",
          "type": "uint256"
        },
        {
          "internalType": "uint256",
          "name": "_maximumProfitFee",
          "type": "uint256"
        }
      ],
      "stateMutability": "view",
      "type": "function"
    },
    {
      "inputs": [
        {
          "internalType": "uint256",
          "name": "_topAmount",
          "type": "uint256"
        }
      ],
      "name": "getTopRelevantFunds",
      "outputs": [
        {
          "internalType": "contract HedgeFund[]",
          "name": "",
          "type": "address[]"
        }
      ],
      "stateMutability": "view",
      "type": "function"
    },
    {
      "inputs": [],
      "name": "goldPeriodRewardPercentage",
      "outputs": [
        {
          "internalType": "int256",
          "name": "",
          "type": "int256"
        }
      ],
      "stateMutability": "view",
      "type": "function"
    },
    {
      "inputs": [],
      "name": "goldPeriodStart",
      "outputs": [
        {
          "internalType": "uint256",
          "name": "",
          "type": "uint256"
        }
      ],
      "stateMutability": "view",
      "type": "function"
    },
    {
      "inputs": [],
      "name": "hardCap",
      "outputs": [
        {
          "internalType": "uint256",
          "name": "",
          "type": "uint256"
        }
      ],
      "stateMutability": "view",
      "type": "function"
    },
    {
      "inputs": [
        {
          "internalType": "address",
          "name": "",
          "type": "address"
        }
      ],
      "name": "isExcludedFromReward",
      "outputs": [
        {
          "internalType": "bool",
          "name": "",
          "type": "bool"
        }
      ],
      "stateMutability": "view",
      "type": "function"
    },
    {
      "inputs": [
        {
          "internalType": "address",
          "name": "",
          "type": "address"
        }
      ],
      "name": "isFund",
      "outputs": [
        {
          "internalType": "bool",
          "name": "",
          "type": "bool"
        }
      ],
      "stateMutability": "view",
      "type": "function"
    },
    {
      "inputs": [
        {
          "internalType": "address",
          "name": "",
          "type": "address"
        },
        {
          "internalType": "address",
          "name": "",
          "type": "address"
        }
      ],
      "name": "isInvestorOf",
      "outputs": [
        {
          "internalType": "bool",
          "name": "",
          "type": "bool"
        }
      ],
      "stateMutability": "view",
      "type": "function"
    },
    {
      "inputs": [
        {
          "internalType": "address",
          "name": "",
          "type": "address"
        }
      ],
      "name": "managerFundActivity",
      "outputs": [
        {
          "internalType": "uint256",
          "name": "fundActivityMonths",
          "type": "uint256"
        },
        {
          "internalType": "uint256",
          "name": "reputation",
          "type": "uint256"
        },
        {
          "internalType": "bool",
          "name": "isValue",
          "type": "bool"
        }
      ],
      "stateMutability": "view",
      "type": "function"
    },
    {
      "inputs": [],
      "name": "maximumMinimalDepositAmountFromHardCapPercentage",
      "outputs": [
        {
          "internalType": "uint256",
          "name": "",
          "type": "uint256"
        }
      ],
      "stateMutability": "view",
      "type": "function"
    },
    {
      "inputs": [],
      "name": "maximumProfitFee",
      "outputs": [
        {
          "internalType": "uint256",
          "name": "",
          "type": "uint256"
        }
      ],
      "stateMutability": "view",
      "type": "function"
    },
    {
      "inputs": [],
      "name": "maximumTimeUntillFundStart",
      "outputs": [
        {
          "internalType": "uint256",
          "name": "",
          "type": "uint256"
        }
      ],
      "stateMutability": "view",
      "type": "function"
    },
    {
      "inputs": [],
      "name": "minimumProfitFee",
      "outputs": [
        {
          "internalType": "uint256",
          "name": "",
          "type": "uint256"
        }
      ],
      "stateMutability": "view",
      "type": "function"
    },
    {
      "inputs": [],
      "name": "minimumTimeUntillFundStart",
      "outputs": [
        {
          "internalType": "uint256",
          "name": "",
          "type": "uint256"
        }
      ],
      "stateMutability": "view",
      "type": "function"
    },
    {
      "inputs": [
        {
          "internalType": "address",
          "name": "",
          "type": "address"
        }
      ],
      "name": "nextAvailableRewardClaimDate",
      "outputs": [
        {
          "internalType": "uint256",
          "name": "",
          "type": "uint256"
        }
      ],
      "stateMutability": "view",
      "type": "function"
    },
    {
      "inputs": [],
      "name": "noProfitFundFee",
      "outputs": [
        {
          "internalType": "int256",
          "name": "",
          "type": "int256"
        }
      ],
      "stateMutability": "view",
      "type": "function"
    },
    {
      "inputs": [
        {
          "internalType": "address",
          "name": "_depositorAddress",
          "type": "address"
        }
      ],
      "name": "onDepositMade",
      "outputs": [],
      "stateMutability": "nonpayable",
      "type": "function"
    },
    {
      "inputs": [],
      "name": "percentageBase",
      "outputs": [
        {
          "internalType": "uint256",
          "name": "",
          "type": "uint256"
        }
      ],
      "stateMutability": "view",
      "type": "function"
    },
    {
      "inputs": [],
      "name": "rewardCycleBlock",
      "outputs": [
        {
          "internalType": "uint256",
          "name": "",
          "type": "uint256"
        }
      ],
      "stateMutability": "view",
      "type": "function"
    },
    {
      "inputs": [],
      "name": "silverPeriodRewardPercentage",
      "outputs": [
        {
          "internalType": "int256",
          "name": "",
          "type": "int256"
        }
      ],
      "stateMutability": "view",
      "type": "function"
    },
    {
      "inputs": [],
      "name": "silverPeriodStart",
      "outputs": [
        {
          "internalType": "uint256",
          "name": "",
          "type": "uint256"
        }
      ],
      "stateMutability": "view",
      "type": "function"
    },
    {
      "inputs": [],
      "name": "softCap",
      "outputs": [
        {
          "internalType": "uint256",
          "name": "",
          "type": "uint256"
        }
      ],
      "stateMutability": "view",
      "type": "function"
    },
    {
      "stateMutability": "payable",
      "type": "receive"
    }
  ],
  "bytecode": "0x6101006040523480156200001257600080fd5b50604051620047cc380380620047cc833981810160405281019062000038919062000219565b600073ffffffffffffffffffffffffffffffffffffffff168473ffffffffffffffffffffffffffffffffffffffff161415620000ab576040517f08c379a0000000000000000000000000000000000000000000000000000000008152600401620000a290620003bd565b60405180910390fd5b600073ffffffffffffffffffffffffffffffffffffffff168373ffffffffffffffffffffffffffffffffffffffff1614156200011e576040517f08c379a00000000000000000000000000000000000000000000000000000000081526004016200011590620003df565b60405180910390fd5b81811162000163576040517f08c379a00000000000000000000000000000000000000000000000000000000081526004016200015a9062000401565b60405180910390fd5b8060e081815250508160c081815250508373ffffffffffffffffffffffffffffffffffffffff1660808173ffffffffffffffffffffffffffffffffffffffff1660601b815250508273ffffffffffffffffffffffffffffffffffffffff1660a08173ffffffffffffffffffffffffffffffffffffffff1660601b8152505050505050620004a6565b600081519050620001fc8162000472565b92915050565b60008151905062000213816200048c565b92915050565b600080600080608085870312156200023057600080fd5b60006200024087828801620001eb565b94505060206200025387828801620001eb565b9350506040620002668782880162000202565b9250506060620002798782880162000202565b91505092959194509250565b60006200029460248362000423565b91507f496e76616c69642066756e64466163746f727920616464726573732070726f7660008301527f69646564000000000000000000000000000000000000000000000000000000006020830152604082019050919050565b6000620002fc60248362000423565b91507f496e76616c6964206546756e6420746f6b656e20616464726573732070726f7660008301527f69646564000000000000000000000000000000000000000000000000000000006020830152604082019050919050565b60006200036460258362000423565b91507f4861726420636170206d75737420626520626967676572207468616e20736f6660008301527f74206361700000000000000000000000000000000000000000000000000000006020830152604082019050919050565b60006020820190508181036000830152620003d88162000285565b9050919050565b60006020820190508181036000830152620003fa81620002ed565b9050919050565b600060208201905081810360008301526200041c8162000355565b9050919050565b600082825260208201905092915050565b6000620004418262000448565b9050919050565b600073ffffffffffffffffffffffffffffffffffffffff82169050919050565b6000819050919050565b6200047d8162000434565b81146200048957600080fd5b50565b620004978162000468565b8114620004a357600080fd5b50565b60805160601c60a05160601c60c05160e0516142b3620005196000398061148b5280611e7b52806122a25250806112bb52806114b65280611e5a525080610f325280610fda52806116d85280611b7a5280611c275280611cd05280611d8f525080610efb528061167352506142b36000f3fe6080604052600436106101fd5760003560e01c8063a1ef85dc1161010d578063d10d51a2116100a0578063f4817d6d1161006f578063f4817d6d14610759578063f61dc9e514610796578063fb86a404146107c1578063fc8fc797146107ec578063fd56b3021461081757610204565b8063d10d51a2146106bc578063de145692146106e7578063e2164cdb14610712578063e3a1c6fe1461074257610204565b8063ca5b42cf116100dc578063ca5b42cf146105da578063ca8f4ae814610617578063cc9bc68b14610654578063d0b4fa051461067f57610204565b8063a1ef85dc14610505578063b0c72e9014610530578063b2c50b531461056d578063c7153b891461059d57610204565b806359b6f2e6116101905780637217f4bc1161015f5780637217f4bc1461040857806388f82020146104335780638c50078714610470578063906a26e0146104af578063941e041c146104da57610204565b806359b6f2e6146103705780635c8192811461039b578063611b5322146103c657806365700481146103f157610204565b806326a3b51f116101cc57806326a3b51f146102c45780632ed6f71c146102ef5780633dea9e661461031a57806344e8bc7d1461034557610204565b806308b89603146102065780631868b729146102315780631c69b4641461026e57806322ab155e1461029957610204565b3661020457005b005b34801561021257600080fd5b5061021b610840565b6040516102289190613f36565b60405180910390f35b34801561023d57600080fd5b5061025860048036038101906102539190613188565b610847565b6040516102659190613b94565b60405180910390f35b34801561027a57600080fd5b50610283610e59565b6040516102909190613b94565b60405180910390f35b3480156102a557600080fd5b506102ae610ee7565b6040516102bb9190613f36565b60405180910390f35b3480156102d057600080fd5b506102d9610eec565b6040516102e69190613c07565b60405180910390f35b3480156102fb57600080fd5b50610304610ef1565b6040516103119190613f36565b60405180910390f35b34801561032657600080fd5b5061032f610ef9565b60405161033c9190613bd1565b60405180910390f35b34801561035157600080fd5b5061035a610f1d565b6040516103679190613f36565b60405180910390f35b34801561037c57600080fd5b50610385610f24565b6040516103929190613c07565b60405180910390f35b3480156103a757600080fd5b506103b0610f29565b6040516103bd9190613f36565b60405180910390f35b3480156103d257600080fd5b506103db610f30565b6040516103e89190613bec565b60405180910390f35b3480156103fd57600080fd5b50610406610f54565b005b34801561041457600080fd5b5061041d61125b565b60405161042a9190613f36565b60405180910390f35b34801561043f57600080fd5b5061045a60048036038101906104559190612fde565b611262565b6040516104679190613bb6565b60405180910390f35b34801561047c57600080fd5b5061049760048036038101906104929190612fde565b611282565b6040516104a693929190613f51565b60405180910390f35b3480156104bb57600080fd5b506104c46112b9565b6040516104d19190613f36565b60405180910390f35b3480156104e657600080fd5b506104ef6112dd565b6040516104fc9190613f36565b60405180910390f35b34801561051157600080fd5b5061051a6112e4565b6040516105279190613f36565b60405180910390f35b34801561053c57600080fd5b5061055760048036038101906105529190612fde565b6112e9565b6040516105649190613b94565b60405180910390f35b61058760048036038101906105829190613059565b611445565b6040516105949190613b5e565b60405180910390f35b3480156105a957600080fd5b506105c460048036038101906105bf9190612fde565b611a3b565b6040516105d19190613bb6565b60405180910390f35b3480156105e657600080fd5b5061060160048036038101906105fc9190613123565b611a5b565b60405161060e9190613bb6565b60405180910390f35b34801561062357600080fd5b5061063e60048036038101906106399190612fde565b611a8a565b60405161064b9190613c07565b60405180910390f35b34801561066057600080fd5b50610669611b6d565b6040516106769190613f36565b60405180910390f35b34801561068b57600080fd5b506106a660048036038101906106a19190612fde565b611b72565b6040516106b39190613f36565b60405180910390f35b3480156106c857600080fd5b506106d1611e45565b6040516106de9190613c07565b60405180910390f35b3480156106f357600080fd5b506106fc611e4a565b6040516107099190613c07565b60405180910390f35b34801561071e57600080fd5b50610727611e4f565b60405161073996959493929190613f88565b60405180910390f35b34801561074e57600080fd5b50610757611eba565b005b34801561076557600080fd5b50610780600480360381019061077b9190612fde565b612283565b60405161078d9190613f36565b60405180910390f35b3480156107a257600080fd5b506107ab61229b565b6040516107b89190613c07565b60405180910390f35b3480156107cd57600080fd5b506107d66122a0565b6040516107e39190613f36565b60405180910390f35b3480156107f857600080fd5b506108016122c4565b60405161080e9190613f36565b60405180910390f35b34801561082357600080fd5b5061083e60048036038101906108399190612fde565b6122c9565b005b62ed4e0081565b60606000808054905014156108e45760008054806020026020016040519081016040528092919081815260200182805480156108d857602002820191906000526020600020905b8160009054906101000a900473ffffffffffffffffffffffffffffffffffffffff1673ffffffffffffffffffffffffffffffffffffffff168152602001906001019080831161088e575b50505050509050610e54565b60008054905082106108f95760008054905091505b606060008054905067ffffffffffffffff8111801561091757600080fd5b506040519080825280602002602001820160405280156109465781602001602082028036833780820191505090505b50905060008090505b6000805490508110156109e7576000818154811061096957fe5b9060005260206000200160009054906101000a900473ffffffffffffffffffffffffffffffffffffffff168282815181106109a057fe5b602002602001019073ffffffffffffffffffffffffffffffffffffffff16908173ffffffffffffffffffffffffffffffffffffffff1681525050808060010191505061094f565b5060608367ffffffffffffffff81118015610a0157600080fd5b50604051908082528060200260200182016040528015610a305781602001602082028036833780820191505090505b509050610a736040518060400160405280600d81526020017f66756e64206c656e6774683a20000000000000000000000000000000000000008152508351612522565b60008090505b8251811015610d825760008090505b60018285510303811015610d7457836001820181518110610aa557fe5b602002602001015173ffffffffffffffffffffffffffffffffffffffff1631848281518110610ad057fe5b602002602001015173ffffffffffffffffffffffffffffffffffffffff16311180610ca1575060046000856001840181518110610b0957fe5b602002602001015173ffffffffffffffffffffffffffffffffffffffff16636209ec2d6040518163ffffffff1660e01b815260040160206040518083038186803b158015610b5657600080fd5b505afa158015610b6a573d6000803e3d6000fd5b505050506040513d601f19601f82011682018060405250810190610b8e9190613030565b73ffffffffffffffffffffffffffffffffffffffff1673ffffffffffffffffffffffffffffffffffffffff1681526020019081526020016000206001015460046000868481518110610bdc57fe5b602002602001015173ffffffffffffffffffffffffffffffffffffffff16636209ec2d6040518163ffffffff1660e01b815260040160206040518083038186803b158015610c2957600080fd5b505afa158015610c3d573d6000803e3d6000fd5b505050506040513d601f19601f82011682018060405250810190610c619190613030565b73ffffffffffffffffffffffffffffffffffffffff1673ffffffffffffffffffffffffffffffffffffffff16815260200190815260200160002060010154115b15610d67576000846001830181518110610cb757fe5b60200260200101519050848281518110610ccd57fe5b6020026020010151856001840181518110610ce457fe5b602002602001019073ffffffffffffffffffffffffffffffffffffffff16908173ffffffffffffffffffffffffffffffffffffffff168152505080858381518110610d2b57fe5b602002602001019073ffffffffffffffffffffffffffffffffffffffff16908173ffffffffffffffffffffffffffffffffffffffff1681525050505b8080600101915050610a88565b508080600101915050610a79565b50610dc16040518060400160405280600c81526020017f736f7274696e6720646f6e6500000000000000000000000000000000000000008152506125be565b6000600160008054905003905060008090505b85811015610e4c57838281518110610de857fe5b6020026020010151838281518110610dfc57fe5b602002602001019073ffffffffffffffffffffffffffffffffffffffff16908173ffffffffffffffffffffffffffffffffffffffff16815250508180600190039250508080600101915050610dd4565b508193505050505b919050565b60606000805480602002602001604051908101604052809291908181526020018280548015610edd57602002820191906000526020600020905b8160009054906101000a900473ffffffffffffffffffffffffffffffffffffffff1673ffffffffffffffffffffffffffffffffffffffff1681526020019060010190808311610e93575b5050505050905090565b606481565b601e81565b600047905090565b7f000000000000000000000000000000000000000000000000000000000000000081565b6201518081565b600a81565b6276a70081565b7f000000000000000000000000000000000000000000000000000000000000000081565b42600660003373ffffffffffffffffffffffffffffffffffffffff1673ffffffffffffffffffffffffffffffffffffffff168152602001908152602001600020541115610fd6576040517f08c379a0000000000000000000000000000000000000000000000000000000008152600401610fcd90613c74565b60405180910390fd5b60007f000000000000000000000000000000000000000000000000000000000000000073ffffffffffffffffffffffffffffffffffffffff166370a08231336040518263ffffffff1660e01b81526004016110319190613b79565b60206040518083038186803b15801561104957600080fd5b505afa15801561105d573d6000803e3d6000fd5b505050506040513d601f19601f8201168201806040525081019061108191906131b1565b116110c1576040517f08c379a00000000000000000000000000000000000000000000000000000000081526004016110b890613db4565b60405180910390fd5b60006110cc33611b72565b90506110e462093a804261265790919063ffffffff16565b600660003373ffffffffffffffffffffffffffffffffffffffff1673ffffffffffffffffffffffffffffffffffffffff1681526020019081526020016000208190555060003373ffffffffffffffffffffffffffffffffffffffff168260405161114d90613b49565b60006040518083038185875af1925050503d806000811461118a576040519150601f19603f3d011682016040523d82523d6000602084013e61118f565b606091505b50509050806111d3576040517f08c379a00000000000000000000000000000000000000000000000000000000081526004016111ca90613e94565b60405180910390fd5b600660003373ffffffffffffffffffffffffffffffffffffffff1673ffffffffffffffffffffffffffffffffffffffff16815260200190815260200160002054823373ffffffffffffffffffffffffffffffffffffffff167f22eee7f02e36f8323e1e4f98d1b2002e1ec68523f572f475011a03969d292aa560405160405180910390a45050565b62093a8081565b60076020528060005260406000206000915054906101000a900460ff1681565b60046020528060005260406000206000915090508060000154908060010154908060020160009054906101000a900460ff16905083565b7f000000000000000000000000000000000000000000000000000000000000000081565b620d2f0081565b600a81565b6060600460008373ffffffffffffffffffffffffffffffffffffffff1673ffffffffffffffffffffffffffffffffffffffff16815260200190815260200160002060020160009054906101000a900460ff1661137a576040517f08c379a000000000000000000000000000000000000000000000000000000000815260040161137190613ef4565b60405180910390fd5b600160008373ffffffffffffffffffffffffffffffffffffffff1673ffffffffffffffffffffffffffffffffffffffff16815260200190815260200160002080548060200260200160405190810160405280929190818152602001828054801561143957602002820191906000526020600020905b8160009054906101000a900473ffffffffffffffffffffffffffffffffffffffff1673ffffffffffffffffffffffffffffffffffffffff16815260200190600101908083116113ef575b50505050509050919050565b6000868611611489576040517f08c379a000000000000000000000000000000000000000000000000000000000815260040161148090613d94565b60405180910390fd5b7f000000000000000000000000000000000000000000000000000000000000000086111580156114d957507f00000000000000000000000000000000000000000000000000000000000000008710155b611518576040517f08c379a000000000000000000000000000000000000000000000000000000000815260040161150f90613e74565b60405180910390fd5b60008411801561153b5750611537600a876126ac90919063ffffffff16565b8411155b61157a576040517f08c379a000000000000000000000000000000000000000000000000000000000815260040161157190613d34565b60405180910390fd5b86341015801561158a5750853411155b6115c9576040517f08c379a00000000000000000000000000000000000000000000000000000000081526004016115c090613e54565b60405180910390fd5b600185101580156115db5750600a8511155b61161a576040517f08c379a000000000000000000000000000000000000000000000000000000000815260040161161190613eb4565b60405180910390fd5b6201518083101580156116305750620d2f008311155b61166f576040517f08c379a000000000000000000000000000000000000000000000000000000000815260040161166690613cb4565b60405180910390fd5b60007f000000000000000000000000000000000000000000000000000000000000000073ffffffffffffffffffffffffffffffffffffffff16637072997d346040518061018001604052808e73ffffffffffffffffffffffffffffffffffffffff1681526020017f000000000000000000000000000000000000000000000000000000000000000073ffffffffffffffffffffffffffffffffffffffff1681526020013073ffffffffffffffffffffffffffffffffffffffff1681526020018c81526020018b81526020018a81526020018981526020018881526020013373ffffffffffffffffffffffffffffffffffffffff1681526020018d8152602001348152602001878152506040518363ffffffff1660e01b81526004016117949190613f14565b6020604051808303818588803b1580156117ad57600080fd5b505af11580156117c1573d6000803e3d6000fd5b50505050506040513d601f19601f820116820180604052508101906117e69190613007565b90506000819080600181540180825580915050600190039060005260206000200160009091909190916101000a81548173ffffffffffffffffffffffffffffffffffffffff021916908373ffffffffffffffffffffffffffffffffffffffff160217905550600160003373ffffffffffffffffffffffffffffffffffffffff1673ffffffffffffffffffffffffffffffffffffffff168152602001908152602001600020819080600181540180825580915050600190039060005260206000200160009091909190916101000a81548173ffffffffffffffffffffffffffffffffffffffff021916908373ffffffffffffffffffffffffffffffffffffffff1602179055506001600360008373ffffffffffffffffffffffffffffffffffffffff1673ffffffffffffffffffffffffffffffffffffffff16815260200190815260200160002060006101000a81548160ff021916908315150217905550600460003373ffffffffffffffffffffffffffffffffffffffff1673ffffffffffffffffffffffffffffffffffffffff16815260200190815260200160002060020160009054906101000a900460ff16611a2e576040518060600160405280600081526020016000815260200160011515815250600460003373ffffffffffffffffffffffffffffffffffffffff1673ffffffffffffffffffffffffffffffffffffffff168152602001908152602001600020600082015181600001556020820151816001015560408201518160020160006101000a81548160ff0219169083151502179055509050505b5098975050505050505050565b60036020528060005260406000206000915054906101000a900460ff1681565b60056020528160005260406000206020528060005260406000206000915091509054906101000a900460ff1681565b6000600460008373ffffffffffffffffffffffffffffffffffffffff1673ffffffffffffffffffffffffffffffffffffffff16815260200190815260200160002060020160009054906101000a900460ff16611b1b576040517f08c379a0000000000000000000000000000000000000000000000000000000008152600401611b1290613cf4565b60405180910390fd5b611b66600460008473ffffffffffffffffffffffffffffffffffffffff1673ffffffffffffffffffffffffffffffffffffffff16815260200190815260200160002060000154612702565b9050919050565b600a81565b600080611d887f000000000000000000000000000000000000000000000000000000000000000073ffffffffffffffffffffffffffffffffffffffff166370a0823160006040518263ffffffff1660e01b8152600401611bd29190613b79565b60206040518083038186803b158015611bea57600080fd5b505afa158015611bfe573d6000803e3d6000fd5b505050506040513d601f19601f82011682018060405250810190611c2291906131b1565b611d7a7f000000000000000000000000000000000000000000000000000000000000000073ffffffffffffffffffffffffffffffffffffffff166370a08231306040518263ffffffff1660e01b8152600401611c7e9190613b79565b60206040518083038186803b158015611c9657600080fd5b505afa158015611caa573d6000803e3d6000fd5b505050506040513d601f19601f82011682018060405250810190611cce91906131b1565b7f000000000000000000000000000000000000000000000000000000000000000073ffffffffffffffffffffffffffffffffffffffff166318160ddd6040518163ffffffff1660e01b815260040160206040518083038186803b158015611d3457600080fd5b505afa158015611d48573d6000803e3d6000fd5b505050506040513d601f19601f82011682018060405250810190611d6c91906131b1565b61273690919063ffffffff16565b61273690919063ffffffff16565b9050611e3d7f000000000000000000000000000000000000000000000000000000000000000073ffffffffffffffffffffffffffffffffffffffff166370a08231856040518263ffffffff1660e01b8152600401611de69190613b5e565b60206040518083038186803b158015611dfe57600080fd5b505afa158015611e12573d6000803e3d6000fd5b505050506040513d601f19601f82011682018060405250810190611e3691906131b1565b4783612786565b915050919050565b600381565b600a81565b6000806000806000807f00000000000000000000000000000000000000000000000000000000000000007f000000000000000000000000000000000000000000000000000000000000000062015180620d2f006001600a955095509550955095509550909192939495565b600360003373ffffffffffffffffffffffffffffffffffffffff1673ffffffffffffffffffffffffffffffffffffffff16815260200190815260200160002060009054906101000a900460ff16611f46576040517f08c379a0000000000000000000000000000000000000000000000000000000008152600401611f3d90613d74565b60405180910390fd5b6000339050428173ffffffffffffffffffffffffffffffffffffffff1663439f5ac26040518163ffffffff1660e01b815260040160206040518083038186803b158015611f9257600080fd5b505afa158015611fa6573d6000803e3d6000fd5b505050506040513d601f19601f82011682018060405250810190611fca91906131b1565b10801561205157508073ffffffffffffffffffffffffffffffffffffffff16634d820b9a6040518163ffffffff1660e01b815260040160206040518083038186803b15801561201857600080fd5b505afa15801561202c573d6000803e3d6000fd5b505050506040513d601f19601f82011682018060405250810190612050919061315f565b5b612090576040517f08c379a000000000000000000000000000000000000000000000000000000000815260040161208790613e14565b60405180910390fd5b60008173ffffffffffffffffffffffffffffffffffffffff16636209ec2d6040518163ffffffff1660e01b815260040160206040518083038186803b1580156120d857600080fd5b505afa1580156120ec573d6000803e3d6000fd5b505050506040513d601f19601f820116820180604052508101906121109190613030565b90506000600460008373ffffffffffffffffffffffffffffffffffffffff1673ffffffffffffffffffffffffffffffffffffffff1681526020019081526020016000206000015490506121e98373ffffffffffffffffffffffffffffffffffffffff16636da797c96040518163ffffffff1660e01b815260040160206040518083038186803b1580156121a257600080fd5b505afa1580156121b6573d6000803e3d6000fd5b505050506040513d601f19601f820116820180604052508101906121da91906131b1565b8261265790919063ffffffff16565b600460008473ffffffffffffffffffffffffffffffffffffffff1673ffffffffffffffffffffffffffffffffffffffff16815260200190815260200160002060000181905550612238826127bb565b600460008473ffffffffffffffffffffffffffffffffffffffff1673ffffffffffffffffffffffffffffffffffffffff16815260200190815260200160002060010181905550505050565b60066020528060005260406000206000915090505481565b601481565b7f000000000000000000000000000000000000000000000000000000000000000081565b600181565b600360003373ffffffffffffffffffffffffffffffffffffffff1673ffffffffffffffffffffffffffffffffffffffff16815260200190815260200160002060009054906101000a900460ff16612355576040517f08c379a000000000000000000000000000000000000000000000000000000000815260040161234c90613d74565b60405180910390fd5b600560008273ffffffffffffffffffffffffffffffffffffffff1673ffffffffffffffffffffffffffffffffffffffff16815260200190815260200160002060003373ffffffffffffffffffffffffffffffffffffffff1673ffffffffffffffffffffffffffffffffffffffff16815260200190815260200160002060009054906101000a900460ff16156123e95761251f565b6001600560008373ffffffffffffffffffffffffffffffffffffffff1673ffffffffffffffffffffffffffffffffffffffff16815260200190815260200160002060003373ffffffffffffffffffffffffffffffffffffffff1673ffffffffffffffffffffffffffffffffffffffff16815260200190815260200160002060006101000a81548160ff021916908315150217905550600260008273ffffffffffffffffffffffffffffffffffffffff1673ffffffffffffffffffffffffffffffffffffffff168152602001908152602001600020339080600181540180825580915050600190039060005260206000200160009091909190916101000a81548173ffffffffffffffffffffffffffffffffffffffff021916908373ffffffffffffffffffffffffffffffffffffffff1602179055505b50565b6125ba8282604051602401612538929190613c44565b6040516020818303038152906040527f9710a9d0000000000000000000000000000000000000000000000000000000007bffffffffffffffffffffffffffffffffffffffffffffffffffffffff19166020820180517bffffffffffffffffffffffffffffffffffffffffffffffffffffffff8381831617835250505050612c14565b5050565b612654816040516024016125d29190613c22565b6040516020818303038152906040527f41304fac000000000000000000000000000000000000000000000000000000007bffffffffffffffffffffffffffffffffffffffffffffffffffffffff19166020820180517bffffffffffffffffffffffffffffffffffffffffffffffffffffffff8381831617835250505050612c14565b50565b6000808284019050838110156126a2576040517f08c379a000000000000000000000000000000000000000000000000000000000815260040161269990613cd4565b60405180910390fd5b8091505092915050565b60008082116126f0576040517f08c379a00000000000000000000000000000000000000000000000000000000081526004016126e790613d54565b60405180910390fd5b8183816126f957fe5b04905092915050565b60006276a70082101561271857600a9050612731565b62ed4e0082101561272c5760149050612731565b601e90505b919050565b60008282111561277b576040517f08c379a000000000000000000000000000000000000000000000000000000000815260040161277290613d14565b60405180910390fd5b818303905092915050565b6000806127ae836127a08787612c3d90919063ffffffff16565b6126ac90919063ffffffff16565b9050809150509392505050565b6000600460008373ffffffffffffffffffffffffffffffffffffffff1673ffffffffffffffffffffffffffffffffffffffff16815260200190815260200160002060020160009054906101000a900460ff1661284c576040517f08c379a000000000000000000000000000000000000000000000000000000000815260040161284390613c94565b60405180910390fd5b6060600160008473ffffffffffffffffffffffffffffffffffffffff1673ffffffffffffffffffffffffffffffffffffffff16815260200190815260200160002080548060200260200160405190810160405280929190818152602001828054801561290d57602002820191906000526020600020905b8160009054906101000a900473ffffffffffffffffffffffffffffffffffffffff1673ffffffffffffffffffffffffffffffffffffffff16815260200190600101908083116128c3575b5050505050905060008060008060008092509250925060008090505b8451811015612bad57600085828151811061294057fe5b602002602001015173ffffffffffffffffffffffffffffffffffffffff1663a1956e326040518163ffffffff1660e01b815260040160206040518083038186803b15801561298d57600080fd5b505afa1580156129a1573d6000803e3d6000fd5b505050506040513d601f19601f820116820180604052508101906129c591906131b1565b14612ba05783806001019450508481815181106129de57fe5b602002602001015173ffffffffffffffffffffffffffffffffffffffff166338bde7916040518163ffffffff1660e01b815260040160206040518083038186803b158015612a2b57600080fd5b505afa158015612a3f573d6000803e3d6000fd5b505050506040513d601f19601f82011682018060405250810190612a6391906131b1565b858281518110612a6f57fe5b602002602001015173ffffffffffffffffffffffffffffffffffffffff1663a1956e326040518163ffffffff1660e01b815260040160206040518083038186803b158015612abc57600080fd5b505afa158015612ad0573d6000803e3d6000fd5b505050506040513d601f19601f82011682018060405250810190612af491906131b1565b11612b00576000612b03565b60015b60ff1683019250848181518110612b1657fe5b602002602001015173ffffffffffffffffffffffffffffffffffffffff1663a1956e326040518163ffffffff1660e01b815260040160206040518083038186803b158015612b6357600080fd5b505afa158015612b77573d6000803e3d6000fd5b505050506040513d601f19601f82011682018060405250810190612b9b91906131b1565b820191505b8080600101915050612929565b506000612bba8385612cad565b9050612c08612bd46103e8856126ac90919063ffffffff16565b612bfa612beb600a866126ac90919063ffffffff16565b8461265790919063ffffffff16565b61265790919063ffffffff16565b95505050505050919050565b60008151905060006a636f6e736f6c652e6c6f679050602083016000808483855afa5050505050565b600080831415612c505760009050612ca7565b6000828402905082848281612c6157fe5b0414612ca2576040517f08c379a0000000000000000000000000000000000000000000000000000000008152600401612c9990613df4565b60405180910390fd5b809150505b92915050565b6000612cd782612cc9620186a086612cdf90919063ffffffff16565b612ddd90919063ffffffff16565b905092915050565b600080831415612cf25760009050612dd7565b7fffffffffffffffffffffffffffffffffffffffffffffffffffffffffffffffff83148015612d4057507f800000000000000000000000000000000000000000000000000000000000000082145b15612d80576040517f08c379a0000000000000000000000000000000000000000000000000000000008152600401612d7790613e34565b60405180910390fd5b6000828402905082848281612d9157fe5b0514612dd2576040517f08c379a0000000000000000000000000000000000000000000000000000000008152600401612dc990613e34565b60405180910390fd5b809150505b92915050565b600080821415612e22576040517f08c379a0000000000000000000000000000000000000000000000000000000008152600401612e1990613ed4565b60405180910390fd5b7fffffffffffffffffffffffffffffffffffffffffffffffffffffffffffffffff82148015612e7057507f800000000000000000000000000000000000000000000000000000000000000083145b15612eb0576040517f08c379a0000000000000000000000000000000000000000000000000000000008152600401612ea790613dd4565b60405180910390fd5b6000828481612ebb57fe5b0590508091505092915050565b600081359050612ed781614221565b92915050565b600081519050612eec81614221565b92915050565b600081359050612f0181614238565b92915050565b600081519050612f1681614238565b92915050565b600082601f830112612f2d57600080fd5b8135612f40612f3b82614016565b613fe9565b91508181835260208401935060208101905083856020840282011115612f6557600080fd5b60005b83811015612f955781612f7b8882612ef2565b845260208401935060208301925050600181019050612f68565b5050505092915050565b600081519050612fae8161424f565b92915050565b600081359050612fc381614266565b92915050565b600081519050612fd881614266565b92915050565b600060208284031215612ff057600080fd5b6000612ffe84828501612ec8565b91505092915050565b60006020828403121561301957600080fd5b600061302784828501612edd565b91505092915050565b60006020828403121561304257600080fd5b600061305084828501612f07565b91505092915050565b600080600080600080600080610100898b03121561307657600080fd5b60006130848b828c01612ef2565b98505060206130958b828c01612fb4565b97505060406130a68b828c01612fb4565b96505060606130b78b828c01612fb4565b95505060806130c88b828c01612fb4565b94505060a06130d98b828c01612fb4565b93505060c06130ea8b828c01612fb4565b92505060e089013567ffffffffffffffff81111561310757600080fd5b6131138b828c01612f1c565b9150509295985092959890939650565b6000806040838503121561313657600080fd5b600061314485828601612ec8565b925050602061315585828601612ec8565b9150509250929050565b60006020828403121561317157600080fd5b600061317f84828501612f9f565b91505092915050565b60006020828403121561319a57600080fd5b60006131a884828501612fb4565b91505092915050565b6000602082840312156131c357600080fd5b60006131d184828501612fc9565b91505092915050565b60006131e68383613219565b60208301905092915050565b60006131fe8383613311565b60208301905092915050565b6132138161413b565b82525050565b613222816140e9565b82525050565b613231816140d7565b82525050565b60006132428261405e565b61324c8185614099565b93506132578361403e565b8060005b8381101561328857815161326f88826131da565b975061327a8361407f565b92505060018101905061325b565b5085935050505092915050565b60006132a082614069565b6132aa81856140aa565b93506132b58361404e565b8060005b838110156132e65781516132cd88826131f2565b97506132d88361408c565b9250506001810190506132b9565b5085935050505092915050565b6132fc816140fb565b82525050565b61330b8161414d565b82525050565b61331a81614171565b82525050565b61332981614195565b82525050565b61333881614107565b82525050565b600061334982614074565b61335381856140c6565b93506133638185602086016141dd565b61336c81614210565b840191505092915050565b60006133846021836140c6565b91507f4572726f723a206e65787420617661696c61626c65206e6f742072656163686560008301527f64000000000000000000000000000000000000000000000000000000000000006020830152604082019050919050565b60006133ea6017836140c6565b91507f4d616e6167657220646f657374206e6f742065786973740000000000000000006000830152602082019050919050565b600061342a6039836140c6565b91507f4d696e54696d65556e74696c6c46756e6453746172742076616c75652069732060008301527f6f757473696465207468652066756e64537461727420676170000000000000006020830152604082019050919050565b6000613490601b836140c6565b91507f536166654d6174683a206164646974696f6e206f766572666c6f7700000000006000830152602082019050919050565b60006134d0601d836140c6565b91507f41646472657373206973206e6f7420612066756e64206d616e616765720000006000830152602082019050919050565b6000613510601e836140c6565b91507f536166654d6174683a207375627472616374696f6e206f766572666c6f7700006000830152602082019050919050565b6000613550601c836140c6565b91507f496e76616c6964206d696e696d616c4465706f736974416d6f756e74000000006000830152602082019050919050565b6000613590601a836140c6565b91507f536166654d6174683a206469766973696f6e206279207a65726f0000000000006000830152602082019050919050565b60006135d0601c836140c6565b91507f43616c6c65722061646472657373206973206e6f7420612066756e64000000006000830152602082019050919050565b60006136106025836140c6565b91507f4861726420636170206d75737420626520626967676572207468616e20736f6660008301527f74206361700000000000000000000000000000000000000000000000000000006020830152604082019050919050565b6000613676602a836140c6565b91507f4572726f723a206d757374206f776e206546756e64546f6b656e20746f20636c60008301527f61696d20726577617264000000000000000000000000000000000000000000006020830152604082019050919050565b60006136dc6021836140c6565b91507f5369676e6564536166654d6174683a206469766973696f6e206f766572666c6f60008301527f77000000000000000000000000000000000000000000000000000000000000006020830152604082019050919050565b60006137426021836140c6565b91507f536166654d6174683a206d756c7469706c69636174696f6e206f766572666c6f60008301527f77000000000000000000000000000000000000000000000000000000000000006020830152604082019050919050565b60006137a86015836140c6565b91507f46756e64206973206e6f7420636f6d706c6574656400000000000000000000006000830152602082019050919050565b60006137e86027836140c6565b91507f5369676e6564536166654d6174683a206d756c7469706c69636174696f6e206f60008301527f766572666c6f77000000000000000000000000000000000000000000000000006020830152604082019050919050565b600061384e6018836140c6565b91507f76616c7565206973206f757473696465206f66206361707300000000000000006000830152602082019050919050565b600061388e6033836140c6565b91507f486172644361702076616c756573206973206f7574736964652074686520706c60008301527f6174666f726d2064656661756c742063617073000000000000000000000000006020830152604082019050919050565b60006138f46000836140bb565b9150600082019050919050565b600061390e601d836140c6565b91507f4572726f723a2043616e6e6f74207769746864726177207265776172640000006000830152602082019050919050565b600061394e6030836140c6565b91507f4d616e61676572206665652076616c7565206973206f7574736964652074686560008301527f206d616e616765722066656520676170000000000000000000000000000000006020830152604082019050919050565b60006139b46020836140c6565b91507f5369676e6564536166654d6174683a206469766973696f6e206279207a65726f6000830152602082019050919050565b60006139f46016836140c6565b91507f4d616e6167657220646f6573206e6f74206578697374000000000000000000006000830152602082019050919050565b600061018083016000830151613a406000860182613219565b506020830151613a536020860182613219565b506040830151613a666040860182613219565b506060830151613a796060860182613b2b565b506080830151613a8c6080860182613b2b565b5060a0830151613a9f60a0860182613b2b565b5060c0830151613ab260c0860182613b2b565b5060e0830151613ac560e0860182613b2b565b50610100830151613ada610100860182613219565b50610120830151613aef610120860182613b2b565b50610140830151613b04610140860182613b2b565b50610160830151848203610160860152613b1e8282613237565b9150508091505092915050565b613b3481614131565b82525050565b613b4381614131565b82525050565b6000613b54826138e7565b9150819050919050565b6000602082019050613b736000830184613228565b92915050565b6000602082019050613b8e600083018461320a565b92915050565b60006020820190508181036000830152613bae8184613295565b905092915050565b6000602082019050613bcb60008301846132f3565b92915050565b6000602082019050613be66000830184613302565b92915050565b6000602082019050613c016000830184613320565b92915050565b6000602082019050613c1c600083018461332f565b92915050565b60006020820190508181036000830152613c3c818461333e565b905092915050565b60006040820190508181036000830152613c5e818561333e565b9050613c6d6020830184613b3a565b9392505050565b60006020820190508181036000830152613c8d81613377565b9050919050565b60006020820190508181036000830152613cad816133dd565b9050919050565b60006020820190508181036000830152613ccd8161341d565b9050919050565b60006020820190508181036000830152613ced81613483565b9050919050565b60006020820190508181036000830152613d0d816134c3565b9050919050565b60006020820190508181036000830152613d2d81613503565b9050919050565b60006020820190508181036000830152613d4d81613543565b9050919050565b60006020820190508181036000830152613d6d81613583565b9050919050565b60006020820190508181036000830152613d8d816135c3565b9050919050565b60006020820190508181036000830152613dad81613603565b9050919050565b60006020820190508181036000830152613dcd81613669565b9050919050565b60006020820190508181036000830152613ded816136cf565b9050919050565b60006020820190508181036000830152613e0d81613735565b9050919050565b60006020820190508181036000830152613e2d8161379b565b9050919050565b60006020820190508181036000830152613e4d816137db565b9050919050565b60006020820190508181036000830152613e6d81613841565b9050919050565b60006020820190508181036000830152613e8d81613881565b9050919050565b60006020820190508181036000830152613ead81613901565b9050919050565b60006020820190508181036000830152613ecd81613941565b9050919050565b60006020820190508181036000830152613eed816139a7565b9050919050565b60006020820190508181036000830152613f0d816139e7565b9050919050565b60006020820190508181036000830152613f2e8184613a27565b905092915050565b6000602082019050613f4b6000830184613b3a565b92915050565b6000606082019050613f666000830186613b3a565b613f736020830185613b3a565b613f8060408301846132f3565b949350505050565b600060c082019050613f9d6000830189613b3a565b613faa6020830188613b3a565b613fb76040830187613b3a565b613fc46060830186613b3a565b613fd16080830185613b3a565b613fde60a0830184613b3a565b979650505050505050565b6000604051905081810181811067ffffffffffffffff8211171561400c57600080fd5b8060405250919050565b600067ffffffffffffffff82111561402d57600080fd5b602082029050602081019050919050565b6000819050602082019050919050565b6000819050602082019050919050565b600081519050919050565b600081519050919050565b600081519050919050565b6000602082019050919050565b6000602082019050919050565b600082825260208201905092915050565b600082825260208201905092915050565b600081905092915050565b600082825260208201905092915050565b60006140e282614111565b9050919050565b60006140f482614111565b9050919050565b60008115159050919050565b6000819050919050565b600073ffffffffffffffffffffffffffffffffffffffff82169050919050565b6000819050919050565b6000614146826141b9565b9050919050565b60006141588261415f565b9050919050565b600061416a82614111565b9050919050565b600061417c82614183565b9050919050565b600061418e82614111565b9050919050565b60006141a0826141a7565b9050919050565b60006141b282614111565b9050919050565b60006141c4826141cb565b9050919050565b60006141d682614111565b9050919050565b60005b838110156141fb5780820151818401526020810190506141e0565b8381111561420a576000848401525b50505050565b6000601f19601f8301169050919050565b61422a816140d7565b811461423557600080fd5b50565b614241816140e9565b811461424c57600080fd5b50565b614258816140fb565b811461426357600080fd5b50565b61426f81614131565b811461427a57600080fd5b5056fea2646970667358221220faf16f580d060b43c6c65a0b59e60537203bf3feda38a2de525c11c715dc5cce64736f6c63430006060033",
  "linkReferences": {},
  "deployedLinkReferences": {}
}