{
  "_format": "hh-sol-artifact-1",
  "contractName": "FundFactory",
  "sourceName": "contracts/FundFactory.sol",
  "abi": [
    {
      "inputs": [
        {
          "internalType": "address payable",
          "name": "_swapRouterContract",
          "type": "address"
        },
        {
          "internalType": "address payable",
          "name": "_eFundToken",
          "type": "address"
        },
        {
          "internalType": "address payable",
          "name": "_fundOwner",
          "type": "address"
        },
        {
          "internalType": "address payable",
          "name": "_eFundPlatform",
          "type": "address"
        },
        {
          "internalType": "uint256",
          "name": "_fundDurationInMonths",
          "type": "uint256"
        },
        {
          "internalType": "address payable[]",
          "name": "allowedTokens",
          "type": "address[]"
        }
      ],
      "name": "createFund",
      "outputs": [
        {
          "internalType": "address",
          "name": "",
          "type": "address"
        }
      ],
      "stateMutability": "payable",
      "type": "function"
    },
    {
      "inputs": [],
      "name": "hardCap",
      "outputs": [
        {
          "internalType": "uint256",
          "name": "",
          "type": "uint256"
        }
      ],
      "stateMutability": "view",
      "type": "function"
    },
    {
      "inputs": [],
      "name": "softCap",
      "outputs": [
        {
          "internalType": "uint256",
          "name": "",
          "type": "uint256"
        }
      ],
      "stateMutability": "view",
      "type": "function"
    }
  ],
  "bytecode": "0x608060405234801561001057600080fd5b5061562c806100206000396000f3fe6080604052600436106100345760003560e01c8063906a26e014610039578063ac81d7e214610064578063fb86a404146101a7575b600080fd5b34801561004557600080fd5b5061004e6101d2565b6040518082815260200191505060405180910390f35b610165600480360360c081101561007a57600080fd5b81019080803573ffffffffffffffffffffffffffffffffffffffff169060200190929190803573ffffffffffffffffffffffffffffffffffffffff169060200190929190803573ffffffffffffffffffffffffffffffffffffffff169060200190929190803573ffffffffffffffffffffffffffffffffffffffff169060200190929190803590602001909291908035906020019064010000000081111561012157600080fd5b82018360208201111561013357600080fd5b8035906020019184602083028401116401000000008311171561015557600080fd5b90919293919293905050506101de565b604051808273ffffffffffffffffffffffffffffffffffffffff1673ffffffffffffffffffffffffffffffffffffffff16815260200191505060405180910390f35b3480156101b357600080fd5b506101bc6103d0565b6040518082815260200191505060405180910390f35b67016345785d8a000081565b600067016345785d8a000034101580156102015750683635c9adc5dea000003411155b610256576040517f08c379a00000000000000000000000000000000000000000000000000000000081526004018080602001828103825260438152602001806155b46043913960600191505060405180910390fd5b600088888767016345785d8a0000683635c9adc5dea000008b8a8a8a60405161027e906104c1565b808a73ffffffffffffffffffffffffffffffffffffffff1673ffffffffffffffffffffffffffffffffffffffff1681526020018973ffffffffffffffffffffffffffffffffffffffff1673ffffffffffffffffffffffffffffffffffffffff1681526020018873ffffffffffffffffffffffffffffffffffffffff1673ffffffffffffffffffffffffffffffffffffffff1681526020018781526020018681526020018573ffffffffffffffffffffffffffffffffffffffff1673ffffffffffffffffffffffffffffffffffffffff168152602001848152602001806020018281038252848482818152602001925060200280828437600081840152601f19601f8201169050808301925050509a5050505050505050505050604051809103906000f0801580156103b3573d6000803e3d6000fd5b5090506103c081346103dd565b5080915050979650505050505050565b683635c9adc5dea0000081565b6000808373ffffffffffffffffffffffffffffffffffffffff168360405180600001905060006040518083038185875af1925050503d806000811461043e576040519150601f19603f3d011682016040523d82523d6000602084013e610443565b606091505b50509050806104ba576040517f08c379a00000000000000000000000000000000000000000000000000000000081526004018080602001828103825260208152602001807f636f756c64206e6f742073656e6420657468657220746f207468652066756e6481525060200191505060405180910390fd5b5092915050565b6150e5806104cf8339019056fe6101606040523480156200001257600080fd5b50604051620050e5380380620050e583398181016040526101008110156200003957600080fd5b810190808051906020019092919080519060200190929190805190602001909291908051906020019092919080519060200190929190805190602001909291908051906020019092919080516040519392919084640100000000821115620000a057600080fd5b83820191506020820185811115620000b757600080fd5b8251866020820283011164010000000082111715620000d557600080fd5b8083526020830192505050908051906020019060200280838360005b838110156200010e578082015181840152602081019050620000f1565b505050509050016040525050506200012c826200038560201b60201c565b6200019f576040517f08c379a00000000000000000000000000000000000000000000000000000000081526004018080602001828103825260108152602001807f496e76616c6964206475726174696f6e0000000000000000000000000000000081525060200191505060405180910390fd5b8773ffffffffffffffffffffffffffffffffffffffff166101408173ffffffffffffffffffffffffffffffffffffffff1660601b815250508673ffffffffffffffffffffffffffffffffffffffff1660808173ffffffffffffffffffffffffffffffffffffffff1660601b815250508573ffffffffffffffffffffffffffffffffffffffff1660a08173ffffffffffffffffffffffffffffffffffffffff1660601b815250508273ffffffffffffffffffffffffffffffffffffffff166101008173ffffffffffffffffffffffffffffffffffffffff1660601b815250506000600160006101000a81548160ff021916908360038111156200029d57fe5b02179055508161012081815250508460c081815250508360e081815250508060079080519060200190620002d3929190620003b6565b506000600a60006101000a81548160ff02191690831515021790555060005b815181101562000376576001600960008484815181106200030f57fe5b602002602001015173ffffffffffffffffffffffffffffffffffffffff1673ffffffffffffffffffffffffffffffffffffffff16815260200190815260200160002060006101000a81548160ff0219169083151502179055508080600101915050620002f2565b5050505050505050506200048b565b60006001821480620003975750600282145b80620003a35750600382145b80620003af5750600682145b9050919050565b82805482825590600052602060002090810192821562000432579160200282015b82811115620004315782518260006101000a81548173ffffffffffffffffffffffffffffffffffffffff021916908373ffffffffffffffffffffffffffffffffffffffff16021790555091602001919060010190620003d7565b5b50905062000441919062000445565b5090565b6200048891905b808211156200048457600081816101000a81549073ffffffffffffffffffffffffffffffffffffffff0219169055506001016200044c565b5090565b90565b60805160601c60a05160601c60c05160e0516101005160601c610120516101405160601c614b696200057c600039806117b852806118625280611a7c5280611b4552806120f852806121a352806123a35280612c345280612e225280612eeb528061365852806139e35280613bfd5280613cc6528061435252508061156752806127d6525080610be85280610e3f52806116365280611f4552806127ac5280612a7152806133f35280613783528061422c5250806113af528061439652508061133652806127fa525080610ce6528061159252806133b752806134af52806141c55250806127885250614b696000f3fe6080604052600436106102135760003560e01c80639cd1b24111610118578063d10d51a2116100a0578063e6c6a8901161006f578063e6c6a890146109d7578063f887ea4014610a52578063f9eaee0d14610aa9578063fb86a40414610b12578063fe1781c814610b3d5761021a565b8063d10d51a2146108c3578063d51f996e146108ee578063e39e45e214610987578063e4206f10146109c05761021a565b8063ae86d6fc116100e7578063ae86d6fc14610741578063afb8b63a14610758578063b02c43d01461076f578063c4c23bdc146107f1578063cae5f11e1461086c5761021a565b80639cd1b2411461066b578063a1956e3214610682578063a63d78b1146106ad578063adc59278146106d85761021a565b806349c860291161019b578063611b53221161016a578063611b53221461053c5780636209ec2d14610593578063638a4b17146105ea5780636da797c914610615578063906a26e0146106405761021a565b806349c86029146103af5780634d820b9a1461042857806359c57bed146104575780636032c7e3146104c35761021a565b806338bde791116101e257806338bde791146102e15780633ccfd60b1461030c57806340732c8914610323578063439f5ac21461032d57806347f5b232146103585761021a565b806307ea63031461021c578063084b5626146102335780630b77b3b51461025e578063155d2830146102755761021a565b3661021a57005b005b34801561022857600080fd5b50610231610b68565b005b34801561023f57600080fd5b50610248610db7565b6040518082815260200191505060405180910390f35b34801561026a57600080fd5b50610273610dbf565b005b34801561028157600080fd5b5061028a61101b565b6040518080602001828103825283818151815260200191508051906020019060200280838360005b838110156102cd5780820151818401526020810190506102b2565b505050509050019250505060405180910390f35b3480156102ed57600080fd5b506102f66110a9565b6040518082815260200191505060405180910390f35b34801561031857600080fd5b506103216110af565b005b61032b6112b6565b005b34801561033957600080fd5b5061034261155f565b6040518082815260200191505060405180910390f35b34801561036457600080fd5b5061036d611590565b604051808273ffffffffffffffffffffffffffffffffffffffff1673ffffffffffffffffffffffffffffffffffffffff16815260200191505060405180910390f35b3480156103bb57600080fd5b50610412600480360360608110156103d257600080fd5b81019080803573ffffffffffffffffffffffffffffffffffffffff16906020019092919080359060200190929190803590602001909291905050506115b4565b6040518082815260200191505060405180910390f35b34801561043457600080fd5b5061043d611e22565b604051808215151515815260200191505060405180910390f35b34801561046357600080fd5b5061046c611e35565b6040518080602001828103825283818151815260200191508051906020019060200280838360005b838110156104af578082015181840152602081019050610494565b505050509050019250505060405180910390f35b3480156104cf57600080fd5b50610526600480360360608110156104e657600080fd5b81019080803573ffffffffffffffffffffffffffffffffffffffff1690602001909291908035906020019092919080359060200190929190505050611ec3565b6040518082815260200191505060405180910390f35b34801561054857600080fd5b50610551612786565b604051808273ffffffffffffffffffffffffffffffffffffffff1673ffffffffffffffffffffffffffffffffffffffff16815260200191505060405180910390f35b34801561059f57600080fd5b506105a86127aa565b604051808273ffffffffffffffffffffffffffffffffffffffff1673ffffffffffffffffffffffffffffffffffffffff16815260200191505060405180910390f35b3480156105f657600080fd5b506105ff6127ce565b6040518082815260200191505060405180910390f35b34801561062157600080fd5b5061062a6127d4565b6040518082815260200191505060405180910390f35b34801561064c57600080fd5b506106556127f8565b6040518082815260200191505060405180910390f35b34801561067757600080fd5b5061068061281c565b005b34801561068e57600080fd5b50610697612a44565b6040518082815260200191505060405180910390f35b3480156106b957600080fd5b506106c2612a4a565b6040518082815260200191505060405180910390f35b3480156106e457600080fd5b50610727600480360360208110156106fb57600080fd5b81019080803573ffffffffffffffffffffffffffffffffffffffff169060200190929190505050612a4f565b604051808215151515815260200191505060405180910390f35b34801561074d57600080fd5b50610756612a6f565b005b34801561076457600080fd5b5061076d613284565b005b34801561077b57600080fd5b506107a86004803603602081101561079257600080fd5b81019080803590602001909291905050506135c7565b604051808373ffffffffffffffffffffffffffffffffffffffff1673ffffffffffffffffffffffffffffffffffffffff1681526020018281526020019250505060405180910390f35b3480156107fd57600080fd5b5061082a6004803603602081101561081457600080fd5b8101908080359060200190929190505050613618565b604051808273ffffffffffffffffffffffffffffffffffffffff1673ffffffffffffffffffffffffffffffffffffffff16815260200191505060405180910390f35b34801561087857600080fd5b50610881613654565b604051808273ffffffffffffffffffffffffffffffffffffffff1673ffffffffffffffffffffffffffffffffffffffff16815260200191505060405180910390f35b3480156108cf57600080fd5b506108d86136fc565b6040518082815260200191505060405180910390f35b3480156108fa57600080fd5b506109716004803603608081101561091157600080fd5b81019080803573ffffffffffffffffffffffffffffffffffffffff169060200190929190803573ffffffffffffffffffffffffffffffffffffffff1690602001909291908035906020019092919080359060200190929190505050613701565b6040518082815260200191505060405180910390f35b34801561099357600080fd5b5061099c6140b1565b604051808260038111156109ac57fe5b60ff16815260200191505060405180910390f35b3480156109cc57600080fd5b506109d56140c4565b005b3480156109e357600080fd5b50610a10600480360360208110156109fa57600080fd5b8101908080359060200190929190505050614314565b604051808273ffffffffffffffffffffffffffffffffffffffff1673ffffffffffffffffffffffffffffffffffffffff16815260200191505060405180910390f35b348015610a5e57600080fd5b50610a67614350565b604051808273ffffffffffffffffffffffffffffffffffffffff1673ffffffffffffffffffffffffffffffffffffffff16815260200191505060405180910390f35b348015610ab557600080fd5b50610af860048036036020811015610acc57600080fd5b81019080803573ffffffffffffffffffffffffffffffffffffffff169060200190929190505050614374565b604051808215151515815260200191505060405180910390f35b348015610b1e57600080fd5b50610b27614394565b6040518082815260200191505060405180910390f35b348015610b4957600080fd5b50610b526143b8565b6040518082815260200191505060405180910390f35b60026003811115610b7557fe5b600160009054906101000a900460ff166003811115610b9057fe5b14610be6576040517f08c379a00000000000000000000000000000000000000000000000000000000081526004018080602001828103825260258152602001806148e66025913960400191505060405180910390fd5b7f000000000000000000000000000000000000000000000000000000000000000073ffffffffffffffffffffffffffffffffffffffff163373ffffffffffffffffffffffffffffffffffffffff161480610c6b57503073ffffffffffffffffffffffffffffffffffffffff163373ffffffffffffffffffffffffffffffffffffffff16145b610cc0576040517f08c379a00000000000000000000000000000000000000000000000000000000081526004018080602001828103825260278152602001806149636027913960400191505060405180910390fd5b6003600160006101000a81548160ff02191690836003811115610cdf57fe5b02179055507f000000000000000000000000000000000000000000000000000000000000000073ffffffffffffffffffffffffffffffffffffffff1663e3a1c6fe6040518163ffffffff1660e01b8152600401600060405180830381600087803b158015610d4c57600080fd5b505af1158015610d60573d6000803e3d6000fd5b505050507fbc141a1c0c073ed34f6fa9cdc66bb9473f488bccda93d1e43bb9a15c4391a92f600160009054906101000a900460ff166003811115610da057fe5b6040518082815260200191505060405180910390a1565b600047905090565b60006003811115610dcc57fe5b600160009054906101000a900460ff166003811115610de757fe5b14610e3d576040517f08c379a00000000000000000000000000000000000000000000000000000000081526004018080602001828103825260228152602001806149ee6022913960400191505060405180910390fd5b7f000000000000000000000000000000000000000000000000000000000000000073ffffffffffffffffffffffffffffffffffffffff163373ffffffffffffffffffffffffffffffffffffffff161480610ec257503073ffffffffffffffffffffffffffffffffffffffff163373ffffffffffffffffffffffffffffffffffffffff16145b610f17576040517f08c379a00000000000000000000000000000000000000000000000000000000081526004018080602001828103825260278152602001806149636027913960400191505060405180910390fd5b60018060006101000a81548160ff02191690836003811115610f3557fe5b02179055503073ffffffffffffffffffffffffffffffffffffffff1663084b56266040518163ffffffff1660e01b815260040160206040518083038186803b158015610f8057600080fd5b505afa158015610f94573d6000803e3d6000fd5b505050506040513d6020811015610faa57600080fd5b8101908080519060200190929190505050600381905550426002819055507fbc141a1c0c073ed34f6fa9cdc66bb9473f488bccda93d1e43bb9a15c4391a92f600160009054906101000a900460ff16600381111561100457fe5b6040518082815260200191505060405180910390a1565b6060600780548060200260200160405190810160405280929190818152602001828054801561109f57602002820191906000526020600020905b8160009054906101000a900473ffffffffffffffffffffffffffffffffffffffff1673ffffffffffffffffffffffffffffffffffffffff1681526020019060010190808311611055575b5050505050905090565b60035481565b600260038111156110bc57fe5b600160009054906101000a900460ff1660038111156110d757fe5b148061110757506003808111156110ea57fe5b600160009054906101000a900460ff16600381111561110557fe5b145b611179576040517f08c379a00000000000000000000000000000000000000000000000000000000081526004018080602001828103825260198152602001807f46756e64206973206e6f7420636f6d706c69746564207965740000000000000081525060200191505060405180910390fd5b600a60009054906101000a900460ff16156111df576040517f08c379a00000000000000000000000000000000000000000000000000000000081526004018080602001828103825260238152602001806149406023913960400191505060405180910390fd5b60005b60008054905081101561126c57611212600082815481106111ff57fe5b90600052602060002090600202016143be565b6000818154811061121f57fe5b9060005260206000209060020201600080820160006101000a81549073ffffffffffffffffffffffffffffffffffffffff02191690556001820160009055505080806001019150506111e2565b506001600a60006101000a81548160ff0219169083151502179055507f70ac3d3f37bb5712619702156bd9af57f16ac82695c742a80d49800cd046be7060405160405180910390a1565b600060038111156112c357fe5b600160009054906101000a900460ff1660038111156112de57fe5b14611334576040517f08c379a00000000000000000000000000000000000000000000000000000000081526004018080602001828103825260228152602001806149ee6022913960400191505060405180910390fd5b7f00000000000000000000000000000000000000000000000000000000000000003410156113ad576040517f08c379a0000000000000000000000000000000000000000000000000000000008152600401808060200182810382526034815260200180614adf6034913960400191505060405180910390fd5b7f0000000000000000000000000000000000000000000000000000000000000000343073ffffffffffffffffffffffffffffffffffffffff1663084b56266040518163ffffffff1660e01b815260040160206040518083038186803b15801561141557600080fd5b505afa158015611429573d6000803e3d6000fd5b505050506040513d602081101561143f57600080fd5b81019080805190602001909291905050500111156114a8576040517f08c379a0000000000000000000000000000000000000000000000000000000008152600401808060200182810382526036815260200180614a826036913960400191505060405180910390fd5b6114b06148b5565b60405180604001604052803373ffffffffffffffffffffffffffffffffffffffff168152602001348152509050600081908060018154018082558091505060019003906000526020600020906002020160009091909190915060008201518160000160006101000a81548173ffffffffffffffffffffffffffffffffffffffff021916908373ffffffffffffffffffffffffffffffffffffffff16021790555060208201518160010155505050565b600062278d007f00000000000000000000000000000000000000000000000000000000000000000260025401905090565b7f000000000000000000000000000000000000000000000000000000000000000081565b6000600160038111156115c357fe5b600160009054906101000a900460ff1660038111156115de57fe5b14611634576040517f08c379a00000000000000000000000000000000000000000000000000000000081526004018080602001828103825260228152602001806149ab6022913960400191505060405180910390fd5b7f000000000000000000000000000000000000000000000000000000000000000073ffffffffffffffffffffffffffffffffffffffff163373ffffffffffffffffffffffffffffffffffffffff1614806116b957503073ffffffffffffffffffffffffffffffffffffffff163373ffffffffffffffffffffffffffffffffffffffff16145b61170e576040517f08c379a00000000000000000000000000000000000000000000000000000000081526004018080602001828103825260278152602001806149636027913960400191505060405180910390fd5b600860008573ffffffffffffffffffffffffffffffffffffffff1673ffffffffffffffffffffffffffffffffffffffff16815260200190815260200160002060009054906101000a900460ff166117b0576040517f08c379a000000000000000000000000000000000000000000000000000000000815260040180806020018281038252602181526020018061498a6021913960400191505060405180910390fd5b606061185c857f000000000000000000000000000000000000000000000000000000000000000073ffffffffffffffffffffffffffffffffffffffff1663ad5c46486040518163ffffffff1660e01b815260040160206040518083038186803b15801561181c57600080fd5b505afa158015611830573d6000803e3d6000fd5b505050506040513d602081101561184657600080fd5b81019080805190602001909291905050506144da565b905060007f000000000000000000000000000000000000000000000000000000000000000073ffffffffffffffffffffffffffffffffffffffff1663d06ca61f86846040518363ffffffff1660e01b81526004018083815260200180602001828103825283818151815260200191508051906020019060200280838360005b838110156118f65780820151818401526020810190506118db565b50505050905001935050505060006040518083038186803b15801561191a57600080fd5b505afa15801561192e573d6000803e3d6000fd5b505050506040513d6000823e3d601f19601f82011682018060405250602081101561195857600080fd5b810190808051604051939291908464010000000082111561197857600080fd5b8382019150602082018581111561198e57600080fd5b82518660208202830111640100000000821117156119ab57600080fd5b8083526020830192505050908051906020019060200280838360005b838110156119e25780820151818401526020810190506119c7565b505050509050016040525050506001815181106119fb57fe5b6020026020010151905083811015611a5e576040517f08c379a000000000000000000000000000000000000000000000000000000000815260040180806020018281038252602a815260200180614a10602a913960400191505060405180910390fd5b8573ffffffffffffffffffffffffffffffffffffffff1663095ea7b37f0000000000000000000000000000000000000000000000000000000000000000876040518363ffffffff1660e01b8152600401808373ffffffffffffffffffffffffffffffffffffffff1673ffffffffffffffffffffffffffffffffffffffff16815260200182815260200192505050602060405180830381600087803b158015611b0557600080fd5b505af1158015611b19573d6000803e3d6000fd5b505050506040513d6020811015611b2f57600080fd5b81019080805190602001909291905050505060607f000000000000000000000000000000000000000000000000000000000000000073ffffffffffffffffffffffffffffffffffffffff166318cbafe58784863061070842016040518663ffffffff1660e01b815260040180868152602001858152602001806020018473ffffffffffffffffffffffffffffffffffffffff1673ffffffffffffffffffffffffffffffffffffffff168152602001838152602001828103825285818151815260200191508051906020019060200280838360005b83811015611c1e578082015181840152602081019050611c03565b505050509050019650505050505050600060405180830381600087803b158015611c4757600080fd5b505af1158015611c5b573d6000803e3d6000fd5b505050506040513d6000823e3d601f19601f820116820180604052506020811015611c8557600080fd5b8101908080516040519392919084640100000000821115611ca557600080fd5b83820191506020820185811115611cbb57600080fd5b8251866020820283011164010000000082111715611cd857600080fd5b8083526020830192505050908051906020019060200280838360005b83811015611d0f578082015181840152602081019050611cf4565b5050505090500160405250505090507f6e31608d2e2f6546c30f3320a34d3826089ef057b2f52e93c107ca9d360f6dd483600081518110611d4c57fe5b602002602001015184600181518110611d6157fe5b60200260200101518884600181518110611d7757fe5b6020026020010151604051808573ffffffffffffffffffffffffffffffffffffffff1673ffffffffffffffffffffffffffffffffffffffff1681526020018473ffffffffffffffffffffffffffffffffffffffff1673ffffffffffffffffffffffffffffffffffffffff16815260200183815260200182815260200194505050505060405180910390a180600181518110611e0e57fe5b602002602001015193505050509392505050565b600a60009054906101000a900460ff1681565b60606006805480602002602001604051908101604052809291908181526020018280548015611eb957602002820191906000526020600020905b8160009054906101000a900473ffffffffffffffffffffffffffffffffffffffff1673ffffffffffffffffffffffffffffffffffffffff1681526020019060010190808311611e6f575b5050505050905090565b600060016003811115611ed257fe5b600160009054906101000a900460ff166003811115611eed57fe5b14611f43576040517f08c379a00000000000000000000000000000000000000000000000000000000081526004018080602001828103825260228152602001806149ab6022913960400191505060405180910390fd5b7f000000000000000000000000000000000000000000000000000000000000000073ffffffffffffffffffffffffffffffffffffffff163373ffffffffffffffffffffffffffffffffffffffff161480611fc857503073ffffffffffffffffffffffffffffffffffffffff163373ffffffffffffffffffffffffffffffffffffffff16145b61201d576040517f08c379a00000000000000000000000000000000000000000000000000000000081526004018080602001828103825260278152602001806149636027913960400191505060405180910390fd5b60006007805490501461207c57600960008573ffffffffffffffffffffffffffffffffffffffff1673ffffffffffffffffffffffffffffffffffffffff16815260200190815260200160002060009054906101000a900460ff1661207f565b60015b6120f1576040517f08c379a000000000000000000000000000000000000000000000000000000000815260040180806020018281038252601f8152602001807f54726164696e672077697468206e6f7420616c6c6f77656420746f6b656e730081525060200191505060405180910390fd5b606061219d7f000000000000000000000000000000000000000000000000000000000000000073ffffffffffffffffffffffffffffffffffffffff1663ad5c46486040518163ffffffff1660e01b815260040160206040518083038186803b15801561215c57600080fd5b505afa158015612170573d6000803e3d6000fd5b505050506040513d602081101561218657600080fd5b8101908080519060200190929190505050866144da565b905060007f000000000000000000000000000000000000000000000000000000000000000073ffffffffffffffffffffffffffffffffffffffff1663d06ca61f86846040518363ffffffff1660e01b81526004018083815260200180602001828103825283818151815260200191508051906020019060200280838360005b8381101561223757808201518184015260208101905061221c565b50505050905001935050505060006040518083038186803b15801561225b57600080fd5b505afa15801561226f573d6000803e3d6000fd5b505050506040513d6000823e3d601f19601f82011682018060405250602081101561229957600080fd5b81019080805160405193929190846401000000008211156122b957600080fd5b838201915060208201858111156122cf57600080fd5b82518660208202830111640100000000821117156122ec57600080fd5b8083526020830192505050908051906020019060200280838360005b83811015612323578082015181840152602081019050612308565b5050505090500160405250505060018151811061233c57fe5b602002602001015190508381101561239f576040517f08c379a000000000000000000000000000000000000000000000000000000000815260040180806020018281038252602a815260200180614a10602a913960400191505060405180910390fd5b60607f000000000000000000000000000000000000000000000000000000000000000073ffffffffffffffffffffffffffffffffffffffff1663fb3bdb418784863061070842016040518663ffffffff1660e01b815260040180858152602001806020018473ffffffffffffffffffffffffffffffffffffffff1673ffffffffffffffffffffffffffffffffffffffff168152602001838152602001828103825285818151815260200191508051906020019060200280838360005b8381101561247657808201518184015260208101905061245b565b50505050905001955050505050506000604051808303818588803b15801561249d57600080fd5b505af11580156124b1573d6000803e3d6000fd5b50505050506040513d6000823e3d601f19601f8201168201806040525060208110156124dc57600080fd5b81019080805160405193929190846401000000008211156124fc57600080fd5b8382019150602082018581111561251257600080fd5b825186602082028301116401000000008211171561252f57600080fd5b8083526020830192505050908051906020019060200280838360005b8381101561256657808201518184015260208101905061254b565b505050509050016040525050509050600860008873ffffffffffffffffffffffffffffffffffffffff1673ffffffffffffffffffffffffffffffffffffffff16815260200190815260200160002060009054906101000a900460ff16612682576006879080600181540180825580915050600190039060005260206000200160009091909190916101000a81548173ffffffffffffffffffffffffffffffffffffffff021916908373ffffffffffffffffffffffffffffffffffffffff1602179055506001600860008973ffffffffffffffffffffffffffffffffffffffff1673ffffffffffffffffffffffffffffffffffffffff16815260200190815260200160002060006101000a81548160ff0219169083151502179055505b7f6e31608d2e2f6546c30f3320a34d3826089ef057b2f52e93c107ca9d360f6dd4836000815181106126b057fe5b6020026020010151846001815181106126c557fe5b602002602001015188846001815181106126db57fe5b6020026020010151604051808573ffffffffffffffffffffffffffffffffffffffff1673ffffffffffffffffffffffffffffffffffffffff1681526020018473ffffffffffffffffffffffffffffffffffffffff1673ffffffffffffffffffffffffffffffffffffffff16815260200183815260200182815260200194505050505060405180910390a18060018151811061277257fe5b602002602001015193505050509392505050565b7f000000000000000000000000000000000000000000000000000000000000000081565b7f000000000000000000000000000000000000000000000000000000000000000081565b60025481565b7f000000000000000000000000000000000000000000000000000000000000000081565b7f000000000000000000000000000000000000000000000000000000000000000081565b6000600381111561282957fe5b600160009054906101000a900460ff16600381111561284457fe5b1461289a576040517f08c379a00000000000000000000000000000000000000000000000000000000081526004018080602001828103825260228152602001806149ee6022913960400191505060405180910390fd5b600080905060008090505b6000805490508110156129ea573373ffffffffffffffffffffffffffffffffffffffff16600082815481106128d657fe5b906000526020600020906002020160000160009054906101000a900473ffffffffffffffffffffffffffffffffffffffff1673ffffffffffffffffffffffffffffffffffffffff1614156129dd576001915061294b6000828154811061293857fe5b90600052602060002090600202016143be565b803373ffffffffffffffffffffffffffffffffffffffff167fe737dc9ea16794043839aa01f063bf3e6faa009fe354f0b6ae1d7ab6dc20ac3460405160405180910390a36000818154811061299c57fe5b9060005260206000209060020201600080820160006101000a81549073ffffffffffffffffffffffffffffffffffffffff0219169055600182016000905550505b80806001019150506128a5565b5080612a41576040517f08c379a0000000000000000000000000000000000000000000000000000000008152600401808060200182810382526027815260200180614ab86027913960400191505060405180910390fd5b50565b60045481565b605a81565b60086020528060005260406000206000915054906101000a900460ff1681565b7f000000000000000000000000000000000000000000000000000000000000000073ffffffffffffffffffffffffffffffffffffffff163373ffffffffffffffffffffffffffffffffffffffff161480612af457503073ffffffffffffffffffffffffffffffffffffffff163373ffffffffffffffffffffffffffffffffffffffff16145b612b49576040517f08c379a00000000000000000000000000000000000000000000000000000000081526004018080602001828103825260278152602001806149636027913960400191505060405180910390fd5b60006003811115612b5657fe5b600160009054906101000a900460ff166003811115612b7157fe5b1415612be5576040517f08c379a00000000000000000000000000000000000000000000000000000000081526004018080602001828103825260168152602001807f46756e642073686f756c6420626520737461727465640000000000000000000081525060200191505060405180910390fd5b60005b600680549050811015613281576060612cd860068381548110612c0757fe5b9060005260206000200160009054906101000a900473ffffffffffffffffffffffffffffffffffffffff167f000000000000000000000000000000000000000000000000000000000000000073ffffffffffffffffffffffffffffffffffffffff1663ad5c46486040518163ffffffff1660e01b815260040160206040518083038186803b158015612c9857600080fd5b505afa158015612cac573d6000803e3d6000fd5b505050506040513d6020811015612cc257600080fd5b81019080805190602001909291905050506144da565b9050600060068381548110612ce957fe5b9060005260206000200160009054906101000a900473ffffffffffffffffffffffffffffffffffffffff1673ffffffffffffffffffffffffffffffffffffffff166370a08231306040518263ffffffff1660e01b8152600401808273ffffffffffffffffffffffffffffffffffffffff1673ffffffffffffffffffffffffffffffffffffffff16815260200191505060206040518083038186803b158015612d9057600080fd5b505afa158015612da4573d6000803e3d6000fd5b505050506040513d6020811015612dba57600080fd5b8101908080519060200190929190505050905060068381548110612dda57fe5b9060005260206000200160009054906101000a900473ffffffffffffffffffffffffffffffffffffffff1673ffffffffffffffffffffffffffffffffffffffff1663095ea7b37f0000000000000000000000000000000000000000000000000000000000000000836040518363ffffffff1660e01b8152600401808373ffffffffffffffffffffffffffffffffffffffff1673ffffffffffffffffffffffffffffffffffffffff16815260200182815260200192505050602060405180830381600087803b158015612eab57600080fd5b505af1158015612ebf573d6000803e3d6000fd5b505050506040513d6020811015612ed557600080fd5b81019080805190602001909291905050505060607f000000000000000000000000000000000000000000000000000000000000000073ffffffffffffffffffffffffffffffffffffffff166318cbafe5836000863061070842016040518663ffffffff1660e01b815260040180868152602001858152602001806020018473ffffffffffffffffffffffffffffffffffffffff1673ffffffffffffffffffffffffffffffffffffffff168152602001838152602001828103825285818151815260200191508051906020019060200280838360005b83811015612fc5578082015181840152602081019050612faa565b505050509050019650505050505050600060405180830381600087803b158015612fee57600080fd5b505af1158015613002573d6000803e3d6000fd5b505050506040513d6000823e3d601f19601f82011682018060405250602081101561302c57600080fd5b810190808051604051939291908464010000000082111561304c57600080fd5b8382019150602082018581111561306257600080fd5b825186602082028301116401000000008211171561307f57600080fd5b8083526020830192505050908051906020019060200280838360005b838110156130b657808201518184015260208101905061309b565b5050505090500160405250505090507f6e31608d2e2f6546c30f3320a34d3826089ef057b2f52e93c107ca9d360f6dd4836000815181106130f357fe5b60200260200101518460018151811061310857fe5b6020026020010151848460018151811061311e57fe5b6020026020010151604051808573ffffffffffffffffffffffffffffffffffffffff1673ffffffffffffffffffffffffffffffffffffffff1681526020018473ffffffffffffffffffffffffffffffffffffffff1673ffffffffffffffffffffffffffffffffffffffff16815260200183815260200182815260200194505050505060405180910390a1600060086000600687815481106131bb57fe5b9060005260206000200160009054906101000a900473ffffffffffffffffffffffffffffffffffffffff1673ffffffffffffffffffffffffffffffffffffffff1673ffffffffffffffffffffffffffffffffffffffff16815260200190815260200160002060006101000a81548160ff0219169083151502179055506006848154811061324457fe5b9060005260206000200160006101000a81549073ffffffffffffffffffffffffffffffffffffffff02191690555050508080600101915050612be8565b50565b6001600381111561329157fe5b600160009054906101000a900460ff1660038111156132ac57fe5b14613302576040517f08c379a00000000000000000000000000000000000000000000000000000000081526004018080602001828103825260228152602001806149ab6022913960400191505060405180910390fd5b6002600160006101000a81548160ff0219169083600381111561332157fe5b02179055503073ffffffffffffffffffffffffffffffffffffffff1663084b56266040518163ffffffff1660e01b815260040160206040518083038186803b15801561336c57600080fd5b505afa158015613380573d6000803e3d6000fd5b505050506040513d602081101561339657600080fd5b8101908080519060200190929190505050600481905550600061355b6135537f000000000000000000000000000000000000000000000000000000000000000073ffffffffffffffffffffffffffffffffffffffff1663ca8f4ae87f00000000000000000000000000000000000000000000000000000000000000006040518263ffffffff1660e01b8152600401808273ffffffffffffffffffffffffffffffffffffffff1673ffffffffffffffffffffffffffffffffffffffff16815260200191505060206040518083038186803b15801561347257600080fd5b505afa158015613486573d6000803e3d6000fd5b505050506040513d602081101561349c57600080fd5b81019080805190602001909291905050507f000000000000000000000000000000000000000000000000000000000000000073ffffffffffffffffffffffffffffffffffffffff166322ab155e6040518163ffffffff1660e01b815260040160206040518083038186803b15801561351357600080fd5b505afa158015613527573d6000803e3d6000fd5b505050506040513d602081101561353d57600080fd5b81019080805190602001909291905050506145c1565b6004546145f3565b90506003548160045403111561357357806005819055505b7fbc141a1c0c073ed34f6fa9cdc66bb9473f488bccda93d1e43bb9a15c4391a92f600160009054906101000a900460ff1660038111156135af57fe5b6040518082815260200191505060405180910390a150565b600081815481106135d457fe5b90600052602060002090600202016000915090508060000160009054906101000a900473ffffffffffffffffffffffffffffffffffffffff16908060010154905082565b6007818154811061362557fe5b906000526020600020016000915054906101000a900473ffffffffffffffffffffffffffffffffffffffff1681565b60007f000000000000000000000000000000000000000000000000000000000000000073ffffffffffffffffffffffffffffffffffffffff1663ad5c46486040518163ffffffff1660e01b815260040160206040518083038186803b1580156136bc57600080fd5b505afa1580156136d0573d6000803e3d6000fd5b505050506040513d60208110156136e657600080fd5b8101908080519060200190929190505050905090565b600381565b60006001600381111561371057fe5b600160009054906101000a900460ff16600381111561372b57fe5b14613781576040517f08c379a00000000000000000000000000000000000000000000000000000000081526004018080602001828103825260228152602001806149ab6022913960400191505060405180910390fd5b7f000000000000000000000000000000000000000000000000000000000000000073ffffffffffffffffffffffffffffffffffffffff163373ffffffffffffffffffffffffffffffffffffffff16148061380657503073ffffffffffffffffffffffffffffffffffffffff163373ffffffffffffffffffffffffffffffffffffffff16145b61385b576040517f08c379a00000000000000000000000000000000000000000000000000000000081526004018080602001828103825260278152602001806149636027913960400191505060405180910390fd5b600860008673ffffffffffffffffffffffffffffffffffffffff1673ffffffffffffffffffffffffffffffffffffffff16815260200190815260200160002060009054906101000a900460ff166138fd576040517f08c379a0000000000000000000000000000000000000000000000000000000008152600401808060200182810382526021815260200180614b136021913960400191505060405180910390fd5b60006007805490501461395c57600960008573ffffffffffffffffffffffffffffffffffffffff1673ffffffffffffffffffffffffffffffffffffffff16815260200190815260200160002060009054906101000a900460ff1661395f565b60015b6139d1576040517f08c379a000000000000000000000000000000000000000000000000000000000815260040180806020018281038252601f8152602001807f54726164696e672077697468206e6f7420616c6c6f77656420746f6b656e730081525060200191505060405180910390fd5b60606139dd86866144da565b905060007f000000000000000000000000000000000000000000000000000000000000000073ffffffffffffffffffffffffffffffffffffffff1663d06ca61f86846040518363ffffffff1660e01b81526004018083815260200180602001828103825283818151815260200191508051906020019060200280838360005b83811015613a77578082015181840152602081019050613a5c565b50505050905001935050505060006040518083038186803b158015613a9b57600080fd5b505afa158015613aaf573d6000803e3d6000fd5b505050506040513d6000823e3d601f19601f820116820180604052506020811015613ad957600080fd5b8101908080516040519392919084640100000000821115613af957600080fd5b83820191506020820185811115613b0f57600080fd5b8251866020820283011164010000000082111715613b2c57600080fd5b8083526020830192505050908051906020019060200280838360005b83811015613b63578082015181840152602081019050613b48565b50505050905001604052505050600181518110613b7c57fe5b6020026020010151905083811015613bdf576040517f08c379a000000000000000000000000000000000000000000000000000000000815260040180806020018281038252602a815260200180614a10602a913960400191505060405180910390fd5b8673ffffffffffffffffffffffffffffffffffffffff1663095ea7b37f0000000000000000000000000000000000000000000000000000000000000000876040518363ffffffff1660e01b8152600401808373ffffffffffffffffffffffffffffffffffffffff1673ffffffffffffffffffffffffffffffffffffffff16815260200182815260200192505050602060405180830381600087803b158015613c8657600080fd5b505af1158015613c9a573d6000803e3d6000fd5b505050506040513d6020811015613cb057600080fd5b81019080805190602001909291905050505060607f000000000000000000000000000000000000000000000000000000000000000073ffffffffffffffffffffffffffffffffffffffff166338ed17398784863061070842016040518663ffffffff1660e01b815260040180868152602001858152602001806020018473ffffffffffffffffffffffffffffffffffffffff1673ffffffffffffffffffffffffffffffffffffffff168152602001838152602001828103825285818151815260200191508051906020019060200280838360005b83811015613d9f578082015181840152602081019050613d84565b505050509050019650505050505050600060405180830381600087803b158015613dc857600080fd5b505af1158015613ddc573d6000803e3d6000fd5b505050506040513d6000823e3d601f19601f820116820180604052506020811015613e0657600080fd5b8101908080516040519392919084640100000000821115613e2657600080fd5b83820191506020820185811115613e3c57600080fd5b8251866020820283011164010000000082111715613e5957600080fd5b8083526020830192505050908051906020019060200280838360005b83811015613e90578082015181840152602081019050613e75565b505050509050016040525050509050600860008873ffffffffffffffffffffffffffffffffffffffff1673ffffffffffffffffffffffffffffffffffffffff16815260200190815260200160002060009054906101000a900460ff16613fac576006879080600181540180825580915050600190039060005260206000200160009091909190916101000a81548173ffffffffffffffffffffffffffffffffffffffff021916908373ffffffffffffffffffffffffffffffffffffffff1602179055506001600860008973ffffffffffffffffffffffffffffffffffffffff1673ffffffffffffffffffffffffffffffffffffffff16815260200190815260200160002060006101000a81548160ff0219169083151502179055505b7f6e31608d2e2f6546c30f3320a34d3826089ef057b2f52e93c107ca9d360f6dd483600081518110613fda57fe5b602002602001015184600181518110613fef57fe5b6020026020010151888460018151811061400557fe5b6020026020010151604051808573ffffffffffffffffffffffffffffffffffffffff1673ffffffffffffffffffffffffffffffffffffffff1681526020018473ffffffffffffffffffffffffffffffffffffffff1673ffffffffffffffffffffffffffffffffffffffff16815260200183815260200182815260200194505050505060405180910390a18060018151811061409c57fe5b60200260200101519350505050949350505050565b600160009054906101000a900460ff1681565b600a60009054906101000a900460ff16614129576040517f08c379a000000000000000000000000000000000000000000000000000000000815260040180806020018281038252603581526020018061490b6035913960400191505060405180910390fd5b60004711614182576040517f08c379a00000000000000000000000000000000000000000000000000000000081526004018080602001828103825260218152602001806149cd6021913960400191505060405180910390fd5b6000600454600354106141ab576141a461419e600360646145c1565b476145f3565b90506141c3565b6141c06141ba605a60646145c1565b476145f3565b90505b7f000000000000000000000000000000000000000000000000000000000000000073ffffffffffffffffffffffffffffffffffffffff166108fc829081150290604051600060405180830381858888f19350505050158015614229573d6000803e3d6000fd5b507f000000000000000000000000000000000000000000000000000000000000000073ffffffffffffffffffffffffffffffffffffffff166108fc3073ffffffffffffffffffffffffffffffffffffffff1663084b56266040518163ffffffff1660e01b815260040160206040518083038186803b1580156142aa57600080fd5b505afa1580156142be573d6000803e3d6000fd5b505050506040513d60208110156142d457600080fd5b81019080805190602001909291905050509081150290604051600060405180830381858888f19350505050158015614310573d6000803e3d6000fd5b5050565b6006818154811061432157fe5b906000526020600020016000915054906101000a900473ffffffffffffffffffffffffffffffffffffffff1681565b7f000000000000000000000000000000000000000000000000000000000000000081565b60096020528060005260406000206000915054906101000a900460ff1681565b7f000000000000000000000000000000000000000000000000000000000000000081565b60055481565b6000600354141561443d578060000160009054906101000a900473ffffffffffffffffffffffffffffffffffffffff1673ffffffffffffffffffffffffffffffffffffffff166108fc82600101549081150290604051600060405180830381858888f19350505050158015614437573d6000803e3d6000fd5b506144d7565b600061444f8260010154600354614625565b90508160000160009054906101000a900473ffffffffffffffffffffffffffffffffffffffff1673ffffffffffffffffffffffffffffffffffffffff166108fc6144a38360055460035460045403036145f3565b8460010154019081150290604051600060405180830381858888f193505050501580156144d4573d6000803e3d6000fd5b50505b50565b606080600267ffffffffffffffff811180156144f557600080fd5b506040519080825280602002602001820160405280156145245781602001602082028036833780820191505090505b509050838160008151811061453557fe5b602002602001019073ffffffffffffffffffffffffffffffffffffffff16908173ffffffffffffffffffffffffffffffffffffffff1681525050828160018151811061457d57fe5b602002602001019073ffffffffffffffffffffffffffffffffffffffff16908173ffffffffffffffffffffffffffffffffffffffff16815250508091505092915050565b60006145eb826145dd620186a08661465790919063ffffffff16565b61478190919063ffffffff16565b905092915050565b600061461d620186a061460f858561465790919063ffffffff16565b61478190919063ffffffff16565b905092915050565b600061464f82614641620186a08661465790919063ffffffff16565b61478190919063ffffffff16565b905092915050565b60008083141561466a576000905061477b565b7fffffffffffffffffffffffffffffffffffffffffffffffffffffffffffffffff831480156146b857507f800000000000000000000000000000000000000000000000000000000000000082145b1561470e576040517f08c379a0000000000000000000000000000000000000000000000000000000008152600401808060200182810382526027815260200180614a5b6027913960400191505060405180910390fd5b600082840290508284828161471f57fe5b0514614776576040517f08c379a0000000000000000000000000000000000000000000000000000000008152600401808060200182810382526027815260200180614a5b6027913960400191505060405180910390fd5b809150505b92915050565b6000808214156147f9576040517f08c379a00000000000000000000000000000000000000000000000000000000081526004018080602001828103825260208152602001807f5369676e6564536166654d6174683a206469766973696f6e206279207a65726f81525060200191505060405180910390fd5b7fffffffffffffffffffffffffffffffffffffffffffffffffffffffffffffffff8214801561484757507f800000000000000000000000000000000000000000000000000000000000000083145b1561489d576040517f08c379a0000000000000000000000000000000000000000000000000000000008152600401808060200182810382526021815260200180614a3a6021913960400191505060405180910390fd5b60008284816148a857fe5b0590508091505092915050565b6040518060400160405280600073ffffffffffffffffffffffffffffffffffffffff16815260200160008152509056fe46756e642073686f756c6420626520696e20616e20436f6d706c697465642073746174757343616e207769746864726177206f6e6c7920616674657220616c6c206465706f736974737420776572652077697468647261776564416c6c206465706f736974732061726520616c72656164792077697468647261776564596f752068617665206e6f74207065726d697373696f6e7320746f207468697320616374696f6e596f75206e65656420746f206f776e207b746f6b656e46726f6d7d20666972737446756e642073686f756c6420626520696e20616e204163746976652073746174757342616c616e636520697320302c206e6f7468696e6720746f20776974686472617746756e642073686f756c6420626520696e20616e204f70656e6564207374617475734f757470757420616d6f756e74206973206c6f776572207468656e207b616d6f756e744f75744d696e7d5369676e6564536166654d6174683a206469766973696f6e206f766572666c6f775369676e6564536166654d6174683a206d756c7469706c69636174696f6e206f766572666c6f774d61782063617020696e2031303020455448206973206f766572666c6f7765642e2054727920746f2073656e64206c65737320574549596f752068617665206e6f7420616e79206465706f7369747320696e2068656467652066756e645472616e73616374696f6e2076616c7565206973206c657373207468656e206d696e696d756d206465706f73697420616d6f7574596f75206d75737420746f206f776e207b746f6b656e46726f6d7d206669727374a2646970667358221220af717240abd53ddee76aaa17bb724f27afdd145ffc91e7a96e1d6b23bf38c9b164736f6c63430006060033546f206372656174652066756e6420796f75206e65656420746f2073656e64206d696e696d756d20302e312045544820616e64206d6178696d756d2031303020455448a2646970667358221220c7a8d7a6ec96baa9b5cbd556c33baf4bff64cc02f39ce5e471f41f8940a6f7a564736f6c63430006060033",
  "linkReferences": {},
  "deployedLinkReferences": {}
}