{
  "_format": "hh-sol-artifact-1",
  "contractName": "FundFactory",
  "sourceName": "contracts/FundFactory.sol",
  "abi": [
    {
      "inputs": [
        {
          "components": [
            {
              "internalType": "address payable",
              "name": "swapRouterContract",
              "type": "address"
            },
            {
              "internalType": "address payable",
              "name": "eFundTokenContract",
              "type": "address"
            },
            {
              "internalType": "address payable",
              "name": "eFundPlatform",
              "type": "address"
            },
            {
              "internalType": "uint256",
              "name": "softCap",
              "type": "uint256"
            },
            {
              "internalType": "uint256",
              "name": "hardCap",
              "type": "uint256"
            },
            {
              "internalType": "uint256",
              "name": "profitFee",
              "type": "uint256"
            },
            {
              "internalType": "uint256",
              "name": "minimalDepostitAmount",
              "type": "uint256"
            },
            {
              "internalType": "uint256",
              "name": "minTimeUntilFundStart",
              "type": "uint256"
            },
            {
              "internalType": "address payable",
              "name": "managerAddress",
              "type": "address"
            },
            {
              "internalType": "uint256",
              "name": "duration",
              "type": "uint256"
            },
            {
              "internalType": "address payable[]",
              "name": "allowedTokenAddresses",
              "type": "address[]"
            }
          ],
          "internalType": "struct HedgeFundInfo",
          "name": "_hedgeFundInfo",
          "type": "tuple"
        }
      ],
      "name": "createFund",
      "outputs": [
        {
          "internalType": "address",
          "name": "",
          "type": "address"
        }
      ],
      "stateMutability": "payable",
      "type": "function"
    }
  ],
  "bytecode": "0x608060405234801561001057600080fd5b50615f3f806100206000396000f3fe608060405260043610620000205760003560e01c8063c737cd9d1462000025575b600080fd5b6200004360048036038101906200003d9190620001ec565b6200005b565b604051620000529190620004e0565b60405180910390f35b60008160600135826080013511620000aa576040517f08c379a0000000000000000000000000000000000000000000000000000000008152600401620000a190620004fd565b60405180910390fd5b81606001353410158015620000c3575081608001353411155b62000105576040517f08c379a0000000000000000000000000000000000000000000000000000000008152600401620000fc906200051f565b60405180910390fd5b600082604051620001169062000193565b62000122919062000541565b604051809103906000f0801580156200013f573d6000803e3d6000fd5b5090508073ffffffffffffffffffffffffffffffffffffffff166108fc349081150290604051600060405180830381858888f1935050505015801562000189573d6000803e3d6000fd5b5080915050919050565b61585980620006b183390190565b600081359050620001b2816200067c565b92915050565b60006101608284031215620001cc57600080fd5b81905092915050565b600081359050620001e68162000696565b92915050565b600060208284031215620001ff57600080fd5b600082013567ffffffffffffffff8111156200021a57600080fd5b6200022884828501620001b8565b91505092915050565b60006200023f83836200024b565b60208301905092915050565b62000256816200063e565b82525050565b62000267816200062a565b82525050565b60006200027b83856200057c565b9350620002888262000565565b8060005b85811015620002c957620002a182846200059e565b620002ad888262000231565b9750620002ba836200056f565b9250506001810190506200028c565b5085925050509392505050565b6000620002e56003836200058d565b91507f43453000000000000000000000000000000000000000000000000000000000006000830152602082019050919050565b6000620003276003836200058d565b91507f43453100000000000000000000000000000000000000000000000000000000006000830152602082019050919050565b600061016083016200037060008401846200059e565b6200037f60008601826200024b565b506200038f60208401846200059e565b6200039e60208601826200024b565b50620003ae60408401846200059e565b620003bd60408601826200024b565b50620003cd606084018462000611565b620003dc6060860182620004cf565b50620003ec608084018462000611565b620003fb6080860182620004cf565b506200040b60a084018462000611565b6200041a60a0860182620004cf565b506200042a60c084018462000611565b6200043960c0860182620004cf565b506200044960e084018462000611565b6200045860e0860182620004cf565b50620004696101008401846200059e565b620004796101008601826200024b565b506200048a61012084018462000611565b6200049a610120860182620004cf565b50620004ab610140840184620005b7565b858303610140870152620004c18382846200026d565b925050508091505092915050565b620004da8162000672565b82525050565b6000602082019050620004f760008301846200025c565b92915050565b600060208201905081810360008301526200051881620002d6565b9050919050565b600060208201905081810360008301526200053a8162000318565b9050919050565b600060208201905081810360008301526200055d81846200035a565b905092915050565b6000819050919050565b6000602082019050919050565b600082825260208201905092915050565b600082825260208201905092915050565b6000620005af6020840184620001a1565b905092915050565b60008083356001602003843603038112620005d157600080fd5b83810192508235915060208301925067ffffffffffffffff821115620005f657600080fd5b6020820236038413156200060957600080fd5b509250929050565b6000620006226020840184620001d5565b905092915050565b6000620006378262000652565b9050919050565b60006200064b8262000652565b9050919050565b600073ffffffffffffffffffffffffffffffffffffffff82169050919050565b6000819050919050565b62000687816200063e565b81146200069357600080fd5b50565b620006a18162000672565b8114620006ad57600080fd5b5056fe6102006040523480156200001257600080fd5b5060405162005859380380620058598339818101604052810190620000389190620005e9565b6200004e816101200151620002e660201b60201c565b62000090576040517f08c379a0000000000000000000000000000000000000000000000000000000008152600401620000879062000670565b60405180910390fd5b806000015173ffffffffffffffffffffffffffffffffffffffff1660c08173ffffffffffffffffffffffffffffffffffffffff1660601b81525050806020015173ffffffffffffffffffffffffffffffffffffffff1660808173ffffffffffffffffffffffffffffffffffffffff1660601b81525050806040015173ffffffffffffffffffffffffffffffffffffffff1660a08173ffffffffffffffffffffffffffffffffffffffff1660601b8152505080610100015173ffffffffffffffffffffffffffffffffffffffff166101a08173ffffffffffffffffffffffffffffffffffffffff1660601b815250506000600460006101000a81548160ff021916908360038111156200019e57fe5b02179055508061012001516101c08181525050806060015161014081815250508060800151610160818152505080610140015160039080519060200190620001e89291906200031f565b506000600b60006101000a81548160ff0219169083151502179055504261010081815250508060e00151420161012081815250508060c0015160e08181525050620002386200031760201b60201c565b61018081815250508060a001516101e0818152505060005b81610140015151811015620002de576001600a600084610140015184815181106200027757fe5b602002602001015173ffffffffffffffffffffffffffffffffffffffff1673ffffffffffffffffffffffffffffffffffffffff16815260200190815260200160002060006101000a81548160ff021916908315150217905550808060010191505062000250565b50506200076c565b60006001821480620002f85750600282145b80620003045750600382145b80620003105750600682145b9050919050565b600047905090565b8280548282559060005260206000209081019282156200039b579160200282015b828111156200039a5782518260006101000a81548173ffffffffffffffffffffffffffffffffffffffff021916908373ffffffffffffffffffffffffffffffffffffffff1602179055509160200191906001019062000340565b5b509050620003aa9190620003ae565b5090565b620003f191905b80821115620003ed57600081816101000a81549073ffffffffffffffffffffffffffffffffffffffff021916905550600101620003b5565b5090565b90565b600081519050620004058162000738565b92915050565b600082601f8301126200041d57600080fd5b8151620004346200042e82620006c0565b62000692565b915081818352602084019350602081019050838560208402820111156200045a57600080fd5b60005b838110156200048e5781620004738882620003f4565b8452602084019350602083019250506001810190506200045d565b5050505092915050565b60006101608284031215620004ac57600080fd5b620004b961016062000692565b90506000620004cb84828501620003f4565b6000830152506020620004e184828501620003f4565b6020830152506040620004f784828501620003f4565b60408301525060606200050d84828501620005d2565b60608301525060806200052384828501620005d2565b60808301525060a06200053984828501620005d2565b60a08301525060c06200054f84828501620005d2565b60c08301525060e06200056584828501620005d2565b60e0830152506101006200057c84828501620003f4565b610100830152506101206200059484828501620005d2565b6101208301525061014082015167ffffffffffffffff811115620005b757600080fd5b620005c5848285016200040b565b6101408301525092915050565b600081519050620005e38162000752565b92915050565b600060208284031215620005fc57600080fd5b600082015167ffffffffffffffff8111156200061757600080fd5b620006258482850162000498565b91505092915050565b60006200063d601083620006e9565b91507f496e76616c6964206475726174696f6e000000000000000000000000000000006000830152602082019050919050565b600060208201905081810360008301526200068b816200062e565b9050919050565b6000604051905081810181811067ffffffffffffffff82111715620006b657600080fd5b8060405250919050565b600067ffffffffffffffff821115620006d857600080fd5b602082029050602081019050919050565b600082825260208201905092915050565b600062000707826200070e565b9050919050565b600073ffffffffffffffffffffffffffffffffffffffff82169050919050565b6000819050919050565b6200074381620006fa565b81146200074f57600080fd5b50565b6200075d816200072e565b81146200076957600080fd5b50565b60805160601c60a05160601c60c05160601c60e05161010051610120516101405161016051610180516101a05160601c6101c0516101e051614fb1620008a86000398061283a5280612e5d5280612f60525080611b31528061305a5250806108b75280610ac05280610f8752806115935280611b075280611df45280612d645280612df75250806115055280612e8f525080610db75280612eb05280612fa45250806124c45280612ed1525080610b8552806124a052806124ec5280612e3c525080611ae3528061250d525080610d545280612e1b5280612f185250806110dd528061118452806112a9528061133d52806116fd52806117a552806118b052806120bb52806121e7528061227b5280612f3c5250806109855280610ef95280612b765280612c2e5280612cec52508061082b5250614fb16000f3fe60806040526004361061021e5760003560e01c80637f18c7f611610123578063d6cfeae0116100ab578063f887ea401161006f578063f887ea4014610740578063f90766a61461076b578063f9eaee0d14610796578063fb86a404146107d3578063fe1781c8146107fe57610225565b8063d6cfeae014610673578063e39e45e21461069e578063e4206f10146106c9578063ec233684146106e0578063f1aaef811461071557610225565b8063a1956e32116100f2578063a1956e321461059e578063a63d78b1146105c9578063adc59278146105f4578063afb8b63a14610631578063d3f3f5ea1461064857610225565b80637f18c7f6146104f4578063893f677114610531578063906a26e01461055c5780639cd1b2411461058757610225565b80634d820b9a116101a6578063610c51a511610175578063610c51a5146104315780636209ec2d1461045c578063638a4b17146104875780636da797c9146104b25780637cf2ed22146104dd57610225565b80634d820b9a1461037357806359c57bed1461039e5780635cfad0b7146103c95780636032c7e3146103f457610225565b806338bde791116101ed57806338bde791146102ab57806340732c89146102d6578063439f5ac2146102e057806347f5b2321461030b57806349c860291461033657610225565b8063064cb8e01461022757806307ea6303146102525780630b77b3b514610269578063155d28301461028057610225565b3661022557005b005b34801561023357600080fd5b5061023c610829565b604051610249919061478d565b60405180910390f35b34801561025e57600080fd5b5061026761084d565b005b34801561027557600080fd5b5061027e610a56565b005b34801561028c57600080fd5b50610295610c56565b6040516102a29190614646565b60405180910390f35b3480156102b757600080fd5b506102c0610ce4565b6040516102cd9190614ad9565b60405180910390f35b6102de610cea565b005b3480156102ec57600080fd5b506102f5610ee8565b6040516103029190614ad9565b60405180910390f35b34801561031757600080fd5b50610320610ef7565b60405161032d9190614772565b60405180910390f35b34801561034257600080fd5b5061035d600480360381019061035891906138df565b610f1b565b60405161036a9190614ad9565b60405180910390f35b34801561037f57600080fd5b50610388611462565b60405161039591906146ac565b60405180910390f35b3480156103aa57600080fd5b506103b3611475565b6040516103c09190614646565b60405180910390f35b3480156103d557600080fd5b506103de611503565b6040516103eb9190614ad9565b60405180910390f35b34801561040057600080fd5b5061041b600480360381019061041691906138df565b611527565b6040516104289190614ad9565b60405180910390f35b34801561043d57600080fd5b50610446611ae1565b6040516104539190614ad9565b60405180910390f35b34801561046857600080fd5b50610471611b05565b60405161047e9190614602565b60405180910390f35b34801561049357600080fd5b5061049c611b29565b6040516104a99190614ad9565b60405180910390f35b3480156104be57600080fd5b506104c7611b2f565b6040516104d49190614ad9565b60405180910390f35b3480156104e957600080fd5b506104f2611b53565b005b34801561050057600080fd5b5061051b6004803603810190610516919061392e565b611d88565b6040516105289190614ad9565b60405180910390f35b34801561053d57600080fd5b5061054661249e565b6040516105539190614ad9565b60405180910390f35b34801561056857600080fd5b506105716124c2565b60405161057e9190614ad9565b60405180910390f35b34801561059357600080fd5b5061059c6124e6565b005b3480156105aa57600080fd5b506105b3612785565b6040516105c09190614ad9565b60405180910390f35b3480156105d557600080fd5b506105de61278b565b6040516105eb91906147de565b60405180910390f35b34801561060057600080fd5b5061061b6004803603810190610616919061388d565b612790565b60405161062891906146ac565b60405180910390f35b34801561063d57600080fd5b506106466127b0565b005b34801561065457600080fd5b5061065d6128d4565b60405161066a9190614668565b60405180910390f35b34801561067f57600080fd5b50610688612993565b604051610695919061468a565b60405180910390f35b3480156106aa57600080fd5b506106b3612abc565b6040516106c091906147c3565b60405180910390f35b3480156106d557600080fd5b506106de612acf565b005b3480156106ec57600080fd5b506106f5612dd4565b60405161070c9b9a999897969594939291906146c7565b60405180910390f35b34801561072157600080fd5b5061072a612f16565b6040516107379190614ad9565b60405180910390f35b34801561074c57600080fd5b50610755612f3a565b60405161076291906147a8565b60405180910390f35b34801561077757600080fd5b50610780612f5e565b60405161078d9190614ad9565b60405180910390f35b3480156107a257600080fd5b506107bd60048036038101906107b8919061388d565b612f82565b6040516107ca91906146ac565b60405180910390f35b3480156107df57600080fd5b506107e8612fa2565b6040516107f59190614ad9565b60405180910390f35b34801561080a57600080fd5b50610813612fc6565b6040516108209190614ad9565b60405180910390f35b7f000000000000000000000000000000000000000000000000000000000000000081565b6002600381111561085a57fe5b600460009054906101000a900460ff16600381111561087557fe5b146108b5576040517f08c379a00000000000000000000000000000000000000000000000000000000081526004016108ac906147f9565b60405180910390fd5b7f000000000000000000000000000000000000000000000000000000000000000073ffffffffffffffffffffffffffffffffffffffff163373ffffffffffffffffffffffffffffffffffffffff16148061093a57503073ffffffffffffffffffffffffffffffffffffffff163373ffffffffffffffffffffffffffffffffffffffff16145b610979576040517f08c379a000000000000000000000000000000000000000000000000000000000815260040161097090614899565b60405180910390fd5b6109836003612fcc565b7f000000000000000000000000000000000000000000000000000000000000000073ffffffffffffffffffffffffffffffffffffffff1663e3a1c6fe6040518163ffffffff1660e01b8152600401600060405180830381600087803b1580156109eb57600080fd5b505af11580156109ff573d6000803e3d6000fd5b505050507fbc141a1c0c073ed34f6fa9cdc66bb9473f488bccda93d1e43bb9a15c4391a92f600460009054906101000a900460ff166003811115610a3f57fe5b604051610a4c9190614ad9565b60405180910390a1565b60006003811115610a6357fe5b600460009054906101000a900460ff166003811115610a7e57fe5b14610abe576040517f08c379a0000000000000000000000000000000000000000000000000000000008152600401610ab590614919565b60405180910390fd5b7f000000000000000000000000000000000000000000000000000000000000000073ffffffffffffffffffffffffffffffffffffffff163373ffffffffffffffffffffffffffffffffffffffff161480610b4357503073ffffffffffffffffffffffffffffffffffffffff163373ffffffffffffffffffffffffffffffffffffffff16145b610b82576040517f08c379a0000000000000000000000000000000000000000000000000000000008152600401610b7990614899565b60405180910390fd5b427f000000000000000000000000000000000000000000000000000000000000000010610be4576040517f08c379a0000000000000000000000000000000000000000000000000000000008152600401610bdb90614819565b60405180910390fd5b610bee6001612fcc565b610bf6612ff2565b600681905550426005819055507fbc141a1c0c073ed34f6fa9cdc66bb9473f488bccda93d1e43bb9a15c4391a92f600460009054906101000a900460ff166003811115610c3f57fe5b604051610c4c9190614ad9565b60405180910390a1565b60606003805480602002602001604051908101604052809291908181526020018280548015610cda57602002820191906000526020600020905b8160009054906101000a900473ffffffffffffffffffffffffffffffffffffffff1673ffffffffffffffffffffffffffffffffffffffff1681526020019060010190808311610c90575b5050505050905090565b60065481565b60006003811115610cf757fe5b600460009054906101000a900460ff166003811115610d1257fe5b14610d52576040517f08c379a0000000000000000000000000000000000000000000000000000000008152600401610d4990614919565b60405180910390fd5b7f0000000000000000000000000000000000000000000000000000000000000000341015610db5576040517f08c379a0000000000000000000000000000000000000000000000000000000008152600401610dac90614a79565b60405180910390fd5b7f0000000000000000000000000000000000000000000000000000000000000000610df034610de2612ff2565b612ffa90919063ffffffff16565b1115610e31576040517f08c379a0000000000000000000000000000000000000000000000000000000008152600401610e28906149d9565b60405180910390fd5b610e396136fd565b60405180604001604052803373ffffffffffffffffffffffffffffffffffffffff168152602001348152509050600081908060018154018082558091505060019003906000526020600020906002020160009091909190915060008201518160000160006101000a81548173ffffffffffffffffffffffffffffffffffffffff021916908373ffffffffffffffffffffffffffffffffffffffff16021790555060208201518160010155505050565b6000610ef261304f565b905090565b7f000000000000000000000000000000000000000000000000000000000000000081565b600060016003811115610f2a57fe5b600460009054906101000a900460ff166003811115610f4557fe5b14610f85576040517f08c379a0000000000000000000000000000000000000000000000000000000008152600401610f7c906148d9565b60405180910390fd5b7f000000000000000000000000000000000000000000000000000000000000000073ffffffffffffffffffffffffffffffffffffffff163373ffffffffffffffffffffffffffffffffffffffff16148061100a57503073ffffffffffffffffffffffffffffffffffffffff163373ffffffffffffffffffffffffffffffffffffffff16145b611049576040517f08c379a000000000000000000000000000000000000000000000000000000000815260040161104090614899565b60405180910390fd5b600960008573ffffffffffffffffffffffffffffffffffffffff1673ffffffffffffffffffffffffffffffffffffffff16815260200190815260200160002060009054906101000a900460ff166110d5576040517f08c379a00000000000000000000000000000000000000000000000000000000081526004016110cc906148b9565b60405180910390fd5b606061117e857f000000000000000000000000000000000000000000000000000000000000000073ffffffffffffffffffffffffffffffffffffffff1663ad5c46486040518163ffffffff1660e01b815260040160206040518083038186803b15801561114157600080fd5b505afa158015611155573d6000803e3d6000fd5b505050506040513d601f19601f8201168201806040525081019061117991906138b6565b613090565b905060007f000000000000000000000000000000000000000000000000000000000000000073ffffffffffffffffffffffffffffffffffffffff1663d06ca61f86846040518363ffffffff1660e01b81526004016111dd929190614b26565b60006040518083038186803b1580156111f557600080fd5b505afa158015611209573d6000803e3d6000fd5b505050506040513d6000823e3d601f19601f82011682018060405250810190611232919061399a565b60018151811061123e57fe5b602002602001015190508381101561128b576040517f08c379a000000000000000000000000000000000000000000000000000000000815260040161128290614939565b60405180910390fd5b8573ffffffffffffffffffffffffffffffffffffffff1663095ea7b37f0000000000000000000000000000000000000000000000000000000000000000876040518363ffffffff1660e01b81526004016112e692919061461d565b602060405180830381600087803b15801561130057600080fd5b505af1158015611314573d6000803e3d6000fd5b505050506040513d601f19601f8201168201806040525081019061133891906139db565b5060607f000000000000000000000000000000000000000000000000000000000000000073ffffffffffffffffffffffffffffffffffffffff166318cbafe58784863061070842016040518663ffffffff1660e01b81526004016113a0959493929190614bfe565b600060405180830381600087803b1580156113ba57600080fd5b505af11580156113ce573d6000803e3d6000fd5b505050506040513d6000823e3d601f19601f820116820180604052508101906113f7919061399a565b90506114418360008151811061140957fe5b60200260200101518460018151811061141e57fe5b6020026020010151888460018151811061143457fe5b6020026020010151613177565b8060018151811061144e57fe5b602002602001015193505050509392505050565b600b60009054906101000a900460ff1681565b606060028054806020026020016040519081016040528092919081815260200182805480156114f957602002820191906000526020600020905b8160009054906101000a900473ffffffffffffffffffffffffffffffffffffffff1673ffffffffffffffffffffffffffffffffffffffff16815260200190600101908083116114af575b5050505050905090565b7f000000000000000000000000000000000000000000000000000000000000000081565b60006001600381111561153657fe5b600460009054906101000a900460ff16600381111561155157fe5b14611591576040517f08c379a0000000000000000000000000000000000000000000000000000000008152600401611588906148d9565b60405180910390fd5b7f000000000000000000000000000000000000000000000000000000000000000073ffffffffffffffffffffffffffffffffffffffff163373ffffffffffffffffffffffffffffffffffffffff16148061161657503073ffffffffffffffffffffffffffffffffffffffff163373ffffffffffffffffffffffffffffffffffffffff16145b611655576040517f08c379a000000000000000000000000000000000000000000000000000000000815260040161164c90614899565b60405180910390fd5b6000600380549050146116b457600a60008573ffffffffffffffffffffffffffffffffffffffff1673ffffffffffffffffffffffffffffffffffffffff16815260200190815260200160002060009054906101000a900460ff166116b7565b60015b6116f6576040517f08c379a00000000000000000000000000000000000000000000000000000000081526004016116ed90614a19565b60405180910390fd5b606061179f7f000000000000000000000000000000000000000000000000000000000000000073ffffffffffffffffffffffffffffffffffffffff1663ad5c46486040518163ffffffff1660e01b815260040160206040518083038186803b15801561176157600080fd5b505afa158015611775573d6000803e3d6000fd5b505050506040513d601f19601f8201168201806040525081019061179991906138b6565b86613090565b905060007f000000000000000000000000000000000000000000000000000000000000000073ffffffffffffffffffffffffffffffffffffffff1663d06ca61f86846040518363ffffffff1660e01b81526004016117fe929190614b26565b60006040518083038186803b15801561181657600080fd5b505afa15801561182a573d6000803e3d6000fd5b505050506040513d6000823e3d601f19601f82011682018060405250810190611853919061399a565b60018151811061185f57fe5b60200260200101519050838110156118ac576040517f08c379a00000000000000000000000000000000000000000000000000000000081526004016118a390614939565b60405180910390fd5b60607f000000000000000000000000000000000000000000000000000000000000000073ffffffffffffffffffffffffffffffffffffffff1663fb3bdb418784863061070842016040518663ffffffff1660e01b81526004016119129493929190614b56565b6000604051808303818588803b15801561192b57600080fd5b505af115801561193f573d6000803e3d6000fd5b50505050506040513d6000823e3d601f19601f82011682018060405250810190611969919061399a565b9050600960008873ffffffffffffffffffffffffffffffffffffffff1673ffffffffffffffffffffffffffffffffffffffff16815260200190815260200160002060009054906101000a900460ff16611a78576002879080600181540180825580915050600190039060005260206000200160009091909190916101000a81548173ffffffffffffffffffffffffffffffffffffffff021916908373ffffffffffffffffffffffffffffffffffffffff1602179055506001600960008973ffffffffffffffffffffffffffffffffffffffff1673ffffffffffffffffffffffffffffffffffffffff16815260200190815260200160002060006101000a81548160ff0219169083151502179055505b611ac083600081518110611a8857fe5b602002602001015184600181518110611a9d57fe5b60200260200101518884600181518110611ab357fe5b6020026020010151613177565b80600181518110611acd57fe5b602002602001015193505050509392505050565b7f000000000000000000000000000000000000000000000000000000000000000081565b7f000000000000000000000000000000000000000000000000000000000000000081565b60055481565b7f000000000000000000000000000000000000000000000000000000000000000081565b60026003811115611b6057fe5b600460009054906101000a900460ff166003811115611b7b57fe5b1480611bab5750600380811115611b8e57fe5b600460009054906101000a900460ff166003811115611ba957fe5b145b611bea576040517f08c379a0000000000000000000000000000000000000000000000000000000008152600401611be1906149b9565b60405180910390fd5b600b60009054906101000a900460ff1615611c3a576040517f08c379a0000000000000000000000000000000000000000000000000000000008152600401611c3190614879565b60405180910390fd5b6001600b60006101000a81548160ff02191690831515021790555060005b600080549050811015611d5957611c6d6136fd565b60008281548110611c7a57fe5b90600052602060002090600202016040518060400160405290816000820160009054906101000a900473ffffffffffffffffffffffffffffffffffffffff1673ffffffffffffffffffffffffffffffffffffffff1673ffffffffffffffffffffffffffffffffffffffff168152602001600182015481525050905060008281548110611d0257fe5b9060005260206000209060020201600080820160006101000a81549073ffffffffffffffffffffffffffffffffffffffff021916905560018201600090555050611d4b8161330f565b508080600101915050611c58565b507f70ac3d3f37bb5712619702156bd9af57f16ac82695c742a80d49800cd046be7060405160405180910390a1565b600060016003811115611d9757fe5b600460009054906101000a900460ff166003811115611db257fe5b14611df2576040517f08c379a0000000000000000000000000000000000000000000000000000000008152600401611de9906148d9565b60405180910390fd5b7f000000000000000000000000000000000000000000000000000000000000000073ffffffffffffffffffffffffffffffffffffffff163373ffffffffffffffffffffffffffffffffffffffff161480611e7757503073ffffffffffffffffffffffffffffffffffffffff163373ffffffffffffffffffffffffffffffffffffffff16145b611eb6576040517f08c379a0000000000000000000000000000000000000000000000000000000008152600401611ead90614899565b60405180910390fd5b6002858590501015611efd576040517f08c379a0000000000000000000000000000000000000000000000000000000008152600401611ef490614a59565b60405180910390fd5b600085856000818110611f0c57fe5b9050602002016020810190611f21919061388d565b90506000868660018989905003818110611f3757fe5b9050602002016020810190611f4c919061388d565b905060005b878790508110156120b657600060038054905014611fdb57600a6000898984818110611f7957fe5b9050602002016020810190611f8e919061388d565b73ffffffffffffffffffffffffffffffffffffffff1673ffffffffffffffffffffffffffffffffffffffff16815260200190815260200160002060009054906101000a900460ff16611fde565b60015b61201d576040517f08c379a000000000000000000000000000000000000000000000000000000000815260040161201490614a19565b60405180910390fd5b600960008473ffffffffffffffffffffffffffffffffffffffff1673ffffffffffffffffffffffffffffffffffffffff16815260200190815260200160002060009054906101000a900460ff166120a9576040517f08c379a00000000000000000000000000000000000000000000000000000000081526004016120a090614a99565b60405180910390fd5b8080600101915050611f51565b5060007f000000000000000000000000000000000000000000000000000000000000000073ffffffffffffffffffffffffffffffffffffffff1663d06ca61f878a8a6040518463ffffffff1660e01b815260040161211693929190614af4565b60006040518083038186803b15801561212e57600080fd5b505afa158015612142573d6000803e3d6000fd5b505050506040513d6000823e3d601f19601f8201168201806040525081019061216b919061399a565b600189899050038151811061217c57fe5b60200260200101519050848110156121c9576040517f08c379a00000000000000000000000000000000000000000000000000000000081526004016121c090614939565b60405180910390fd5b8273ffffffffffffffffffffffffffffffffffffffff1663095ea7b37f0000000000000000000000000000000000000000000000000000000000000000886040518363ffffffff1660e01b815260040161222492919061461d565b602060405180830381600087803b15801561223e57600080fd5b505af1158015612252573d6000803e3d6000fd5b505050506040513d601f19601f8201168201806040525081019061227691906139db565b5060607f000000000000000000000000000000000000000000000000000000000000000073ffffffffffffffffffffffffffffffffffffffff166338ed173988848c8c306122cf61070842612ffa90919063ffffffff16565b6040518763ffffffff1660e01b81526004016122f096959493929190614ba2565b600060405180830381600087803b15801561230a57600080fd5b505af115801561231e573d6000803e3d6000fd5b505050506040513d6000823e3d601f19601f82011682018060405250810190612347919061399a565b9050600960008473ffffffffffffffffffffffffffffffffffffffff1673ffffffffffffffffffffffffffffffffffffffff16815260200190815260200160002060009054906101000a900460ff16612456576002839080600181540180825580915050600190039060005260206000200160009091909190916101000a81548173ffffffffffffffffffffffffffffffffffffffff021916908373ffffffffffffffffffffffffffffffffffffffff1602179055506001600960008573ffffffffffffffffffffffffffffffffffffffff1673ffffffffffffffffffffffffffffffffffffffff16815260200190815260200160002060006101000a81548160ff0219169083151502179055505b61247b8484898460018e8e9050038151811061246e57fe5b6020026020010151613177565b8060018151811061248857fe5b6020026020010151945050505050949350505050565b7f000000000000000000000000000000000000000000000000000000000000000081565b7f000000000000000000000000000000000000000000000000000000000000000081565b4261253a7f00000000000000000000000000000000000000000000000000000000000000007f0000000000000000000000000000000000000000000000000000000000000000612ffa90919063ffffffff16565b1061257a576040517f08c379a000000000000000000000000000000000000000000000000000000000815260040161257190614979565b60405180910390fd5b600080905060008090505b600080549050811015612741573373ffffffffffffffffffffffffffffffffffffffff16600082815481106125b657fe5b906000526020600020906002020160000160009054906101000a900473ffffffffffffffffffffffffffffffffffffffff1673ffffffffffffffffffffffffffffffffffffffff1614156127345761260c6136fd565b6000828154811061261957fe5b90600052602060002090600202016040518060400160405290816000820160009054906101000a900473ffffffffffffffffffffffffffffffffffffffff1673ffffffffffffffffffffffffffffffffffffffff1673ffffffffffffffffffffffffffffffffffffffff1681526020016001820154815250509050600082815481106126a157fe5b9060005260206000209060020201600080820160006101000a81549073ffffffffffffffffffffffffffffffffffffffff021916905560018201600090555050600192506126ee8161330f565b813373ffffffffffffffffffffffffffffffffffffffff167fe737dc9ea16794043839aa01f063bf3e6faa009fe354f0b6ae1d7ab6dc20ac3460405160405180910390a3505b8080600101915050612585565b5080612782576040517f08c379a000000000000000000000000000000000000000000000000000000000815260040161277990614a39565b60405180910390fd5b50565b60075481565b605a81565b60096020528060005260406000206000915054906101000a900460ff1681565b600160038111156127bd57fe5b600460009054906101000a900460ff1660038111156127d857fe5b14612818576040517f08c379a000000000000000000000000000000000000000000000000000000000815260040161280f906148d9565b60405180910390fd5b6128226002612fcc565b61282a612ff2565b60078190555060006128686128607f0000000000000000000000000000000000000000000000000000000000000000606461340e565b600754613440565b90506006548160075403111561288057806008819055505b7fbc141a1c0c073ed34f6fa9cdc66bb9473f488bccda93d1e43bb9a15c4391a92f600460009054906101000a900460ff1660038111156128bc57fe5b6040516128c99190614ad9565b60405180910390a150565b60606000805480602002602001604051908101604052809291908181526020016000905b8282101561298a57838290600052602060002090600202016040518060400160405290816000820160009054906101000a900473ffffffffffffffffffffffffffffffffffffffff1673ffffffffffffffffffffffffffffffffffffffff1673ffffffffffffffffffffffffffffffffffffffff168152602001600182015481525050815260200190600101906128f8565b50505050905090565b60606001805480602002602001604051908101604052809291908181526020016000905b82821015612ab357838290600052602060002090600502016040518060a00160405290816000820160009054906101000a900473ffffffffffffffffffffffffffffffffffffffff1673ffffffffffffffffffffffffffffffffffffffff1673ffffffffffffffffffffffffffffffffffffffff1681526020016001820160009054906101000a900473ffffffffffffffffffffffffffffffffffffffff1673ffffffffffffffffffffffffffffffffffffffff1673ffffffffffffffffffffffffffffffffffffffff1681526020016002820154815260200160038201548152602001600482015481525050815260200190600101906129b7565b50505050905090565b600460009054906101000a900460ff1681565b600b60009054906101000a900460ff16612b1e576040517f08c379a0000000000000000000000000000000000000000000000000000000008152600401612b1590614839565b60405180910390fd5b60004711612b61576040517f08c379a0000000000000000000000000000000000000000000000000000000008152600401612b58906148f9565b60405180910390fd5b600060075460065410612c2657612c1f612c197f000000000000000000000000000000000000000000000000000000000000000073ffffffffffffffffffffffffffffffffffffffff1663d10d51a26040518163ffffffff1660e01b815260040160206040518083038186803b158015612bda57600080fd5b505afa158015612bee573d6000803e3d6000fd5b505050506040513d601f19601f82011682018060405250810190612c129190613a04565b606461340e565b47613440565b9050612cda565b612cd7612cd17f000000000000000000000000000000000000000000000000000000000000000073ffffffffffffffffffffffffffffffffffffffff166359b6f2e66040518163ffffffff1660e01b815260040160206040518083038186803b158015612c9257600080fd5b505afa158015612ca6573d6000803e3d6000fd5b505050506040513d601f19601f82011682018060405250810190612cca9190613a04565b606461340e565b47613440565b90505b6000612ce4612ff2565b1115612d52577f000000000000000000000000000000000000000000000000000000000000000073ffffffffffffffffffffffffffffffffffffffff166108fc829081150290604051600060405180830381858888f19350505050158015612d50573d6000803e3d6000fd5b505b6000612d5c612ff2565b1115612dd1577f000000000000000000000000000000000000000000000000000000000000000073ffffffffffffffffffffffffffffffffffffffff166108fc612da4612ff2565b9081150290604051600060405180830381858888f19350505050158015612dcf573d6000803e3d6000fd5b505b50565b6000806000806000806000806000806000600b60009054906101000a900460ff167f00000000000000000000000000000000000000000000000000000000000000006005547f00000000000000000000000000000000000000000000000000000000000000007f00000000000000000000000000000000000000000000000000000000000000007f0000000000000000000000000000000000000000000000000000000000000000600460009054906101000a900460ff16477f00000000000000000000000000000000000000000000000000000000000000007f00000000000000000000000000000000000000000000000000000000000000007f00000000000000000000000000000000000000000000000000000000000000008999509a509a509a509a509a509a509a509a509a509a509a50909192939495969798999a565b7f000000000000000000000000000000000000000000000000000000000000000081565b7f000000000000000000000000000000000000000000000000000000000000000081565b7f000000000000000000000000000000000000000000000000000000000000000081565b600a6020528060005260406000206000915054906101000a900460ff1681565b7f000000000000000000000000000000000000000000000000000000000000000081565b60085481565b80600460006101000a81548160ff02191690836003811115612fea57fe5b021790555050565b600047905090565b600080828401905083811015613045576040517f08c379a000000000000000000000000000000000000000000000000000000000815260040161303c90614859565b60405180910390fd5b8091505092915050565b600061308762278d007f000000000000000000000000000000000000000000000000000000000000000061347290919063ffffffff16565b60055401905090565b606080600267ffffffffffffffff811180156130ab57600080fd5b506040519080825280602002602001820160405280156130da5781602001602082028036833780820191505090505b50905083816000815181106130eb57fe5b602002602001019073ffffffffffffffffffffffffffffffffffffffff16908173ffffffffffffffffffffffffffffffffffffffff1681525050828160018151811061313357fe5b602002602001019073ffffffffffffffffffffffffffffffffffffffff16908173ffffffffffffffffffffffffffffffffffffffff16815250508091505092915050565b808373ffffffffffffffffffffffffffffffffffffffff168573ffffffffffffffffffffffffffffffffffffffff167f6e31608d2e2f6546c30f3320a34d3826089ef057b2f52e93c107ca9d360f6dd4856040516131d59190614ad9565b60405180910390a460016040518060a001604052808673ffffffffffffffffffffffffffffffffffffffff1681526020018573ffffffffffffffffffffffffffffffffffffffff16815260200184815260200183815260200142815250908060018154018082558091505060019003906000526020600020906005020160009091909190915060008201518160000160006101000a81548173ffffffffffffffffffffffffffffffffffffffff021916908373ffffffffffffffffffffffffffffffffffffffff16021790555060208201518160010160006101000a81548173ffffffffffffffffffffffffffffffffffffffff021916908373ffffffffffffffffffffffffffffffffffffffff160217905550604082015181600201556060820151816003015560808201518160040155505050505050565b6000600381111561331c57fe5b600460009054906101000a900460ff16600381111561333757fe5b141561339157806000015173ffffffffffffffffffffffffffffffffffffffff166108fc82602001519081150290604051600060405180830381858888f1935050505015801561338b573d6000803e3d6000fd5b5061340b565b60006133a382602001516006546134e2565b9050816000015173ffffffffffffffffffffffffffffffffffffffff166108fc6133d7836008546006546007540303613440565b8460200151019081150290604051600060405180830381858888f19350505050158015613408573d6000803e3d6000fd5b50505b50565b60006134388261342a620186a08661351490919063ffffffff16565b61361290919063ffffffff16565b905092915050565b600061346a620186a061345c858561351490919063ffffffff16565b61361290919063ffffffff16565b905092915050565b60008083141561348557600090506134dc565b600082840290508284828161349657fe5b04146134d7576040517f08c379a00000000000000000000000000000000000000000000000000000000081526004016134ce90614999565b60405180910390fd5b809150505b92915050565b600061350c826134fe620186a08661351490919063ffffffff16565b61361290919063ffffffff16565b905092915050565b600080831415613527576000905061360c565b7fffffffffffffffffffffffffffffffffffffffffffffffffffffffffffffffff8314801561357557507f800000000000000000000000000000000000000000000000000000000000000082145b156135b5576040517f08c379a00000000000000000000000000000000000000000000000000000000081526004016135ac906149f9565b60405180910390fd5b60008284029050828482816135c657fe5b0514613607576040517f08c379a00000000000000000000000000000000000000000000000000000000081526004016135fe906149f9565b60405180910390fd5b809150505b92915050565b600080821415613657576040517f08c379a000000000000000000000000000000000000000000000000000000000815260040161364e90614ab9565b60405180910390fd5b7fffffffffffffffffffffffffffffffffffffffffffffffffffffffffffffffff821480156136a557507f800000000000000000000000000000000000000000000000000000000000000083145b156136e5576040517f08c379a00000000000000000000000000000000000000000000000000000000081526004016136dc90614959565b60405180910390fd5b60008284816136f057fe5b0590508091505092915050565b6040518060400160405280600073ffffffffffffffffffffffffffffffffffffffff168152602001600081525090565b60008135905061373c81614f08565b92915050565b60008151905061375181614f08565b92915050565b60008135905061376681614f1f565b92915050565b60008083601f84011261377e57600080fd5b8235905067ffffffffffffffff81111561379757600080fd5b6020830191508360208202830111156137af57600080fd5b9250929050565b600082601f8301126137c757600080fd5b81516137da6137d582614c85565b614c58565b915081818352602084019350602081019050838560208402820111156137ff57600080fd5b60005b8381101561382f57816138158882613878565b845260208401935060208301925050600181019050613802565b5050505092915050565b60008151905061384881614f36565b92915050565b60008151905061385d81614f4d565b92915050565b60008135905061387281614f64565b92915050565b60008151905061388781614f64565b92915050565b60006020828403121561389f57600080fd5b60006138ad8482850161372d565b91505092915050565b6000602082840312156138c857600080fd5b60006138d684828501613742565b91505092915050565b6000806000606084860312156138f457600080fd5b600061390286828701613757565b935050602061391386828701613863565b925050604061392486828701613863565b9150509250925092565b6000806000806060858703121561394457600080fd5b600085013567ffffffffffffffff81111561395e57600080fd5b61396a8782880161376c565b9450945050602061397d87828801613863565b925050604061398e87828801613863565b91505092959194509250565b6000602082840312156139ac57600080fd5b600082015167ffffffffffffffff8111156139c657600080fd5b6139d2848285016137b6565b91505092915050565b6000602082840312156139ed57600080fd5b60006139fb84828501613839565b91505092915050565b600060208284031215613a1657600080fd5b6000613a248482850161384e565b91505092915050565b6000613a398383613a9c565b60208301905092915050565b6000613a518383613aba565b60208301905092915050565b6000613a69838361454d565b60408301905092915050565b6000613a81838361457c565b60a08301905092915050565b613a9681614e47565b82525050565b613aa581614de2565b82525050565b613ab481614de2565b82525050565b613ac381614dd0565b82525050565b613ad281614dd0565b82525050565b6000613ae48385614d64565b9350613aef82614cad565b8060005b85811015613b2857613b058284614db9565b613b0f8882613a45565b9750613b1a83614d23565b925050600181019050613af3565b5085925050509392505050565b6000613b4082614cf7565b613b4a8185614d64565b9350613b5583614cb7565b8060005b83811015613b86578151613b6d8882613a45565b9750613b7883614d30565b925050600181019050613b59565b5085935050505092915050565b6000613b9e82614d02565b613ba88185614d75565b9350613bb383614cc7565b8060005b83811015613be4578151613bcb8882613a2d565b9750613bd683614d3d565b925050600181019050613bb7565b5085935050505092915050565b6000613bfc82614d0d565b613c068185614d86565b9350613c1183614cd7565b8060005b83811015613c42578151613c298882613a5d565b9750613c3483614d4a565b925050600181019050613c15565b5085935050505092915050565b6000613c5a82614d18565b613c648185614d97565b9350613c6f83614ce7565b8060005b83811015613ca0578151613c878882613a75565b9750613c9283614d57565b925050600181019050613c73565b5085935050505092915050565b613cb681614df4565b82525050565b613cc581614e59565b82525050565b613cd481614e7d565b82525050565b613ce381614ea1565b82525050565b613cf281614ec5565b82525050565b613d0181614e13565b82525050565b6000613d14602583614da8565b91507f46756e642073686f756c6420626520696e20616e20436f6d706c69746564207360008301527f74617475730000000000000000000000000000000000000000000000000000006020830152604082019050919050565b6000613d7a602583614da8565b91507f46756e642063616e6e6f7420626520737461727465642061742074686174206d60008301527f6f6d656e740000000000000000000000000000000000000000000000000000006020830152604082019050919050565b6000613de0603583614da8565b91507f43616e207769746864726177206f6e6c7920616674657220616c6c206465706f60008301527f73697473742077657265207769746864726177656400000000000000000000006020830152604082019050919050565b6000613e46601b83614da8565b91507f536166654d6174683a206164646974696f6e206f766572666c6f7700000000006000830152602082019050919050565b6000613e86602383614da8565b91507f416c6c206465706f736974732061726520616c7265616479207769746864726160008301527f77656400000000000000000000000000000000000000000000000000000000006020830152604082019050919050565b6000613eec602783614da8565b91507f596f752068617665206e6f74207065726d697373696f6e7320746f207468697360008301527f20616374696f6e000000000000000000000000000000000000000000000000006020830152604082019050919050565b6000613f52602183614da8565b91507f596f75206e65656420746f206f776e207b746f6b656e46726f6d7d206669727360008301527f74000000000000000000000000000000000000000000000000000000000000006020830152604082019050919050565b6000613fb8602283614da8565b91507f46756e642073686f756c6420626520696e20616e20416374697665207374617460008301527f75730000000000000000000000000000000000000000000000000000000000006020830152604082019050919050565b600061401e602183614da8565b91507f42616c616e636520697320302c206e6f7468696e6720746f207769746864726160008301527f77000000000000000000000000000000000000000000000000000000000000006020830152604082019050919050565b6000614084602283614da8565b91507f46756e642073686f756c6420626520696e20616e204f70656e6564207374617460008301527f75730000000000000000000000000000000000000000000000000000000000006020830152604082019050919050565b60006140ea602a83614da8565b91507f4f757470757420616d6f756e74206973206c6f776572207468656e207b616d6f60008301527f756e744f75744d696e7d000000000000000000000000000000000000000000006020830152604082019050919050565b6000614150602183614da8565b91507f5369676e6564536166654d6174683a206469766973696f6e206f766572666c6f60008301527f77000000000000000000000000000000000000000000000000000000000000006020830152604082019050919050565b60006141b6601883614da8565b91507f43616e6e6f742077697468647261772066756e64206e6f7700000000000000006000830152602082019050919050565b60006141f6602183614da8565b91507f536166654d6174683a206d756c7469706c69636174696f6e206f766572666c6f60008301527f77000000000000000000000000000000000000000000000000000000000000006020830152604082019050919050565b600061425c601983614da8565b91507f46756e64206973206e6f7420636f6d706c6974656420796574000000000000006000830152602082019050919050565b600061429c602e83614da8565b91507f4d617820636170206973206f766572666c6f7765642e2054727920746f20736560008301527f6e64206c6f7765722076616c75650000000000000000000000000000000000006020830152604082019050919050565b6000614302602783614da8565b91507f5369676e6564536166654d6174683a206d756c7469706c69636174696f6e206f60008301527f766572666c6f77000000000000000000000000000000000000000000000000006020830152604082019050919050565b6000614368601f83614da8565b91507f54726164696e672077697468206e6f7420616c6c6f77656420746f6b656e73006000830152602082019050919050565b60006143a8602783614da8565b91507f596f752068617665206e6f7420616e79206465706f7369747320696e2068656460008301527f67652066756e64000000000000000000000000000000000000000000000000006020830152604082019050919050565b600061440e601183614da8565b91507f50617468206d757374206265203e3d20320000000000000000000000000000006000830152602082019050919050565b600061444e603483614da8565b91507f5472616e73616374696f6e2076616c7565206973206c657373207468656e206d60008301527f696e696d756d206465706f73697420616d6f75740000000000000000000000006020830152604082019050919050565b60006144b4602183614da8565b91507f596f75206d75737420746f206f776e207b746f6b656e46726f6d7d206669727360008301527f74000000000000000000000000000000000000000000000000000000000000006020830152604082019050919050565b600061451a602083614da8565b91507f5369676e6564536166654d6174683a206469766973696f6e206279207a65726f6000830152602082019050919050565b6040820160008201516145636000850182613a9c565b50602082015161457660208501826145e4565b50505050565b60a0820160008201516145926000850182613aba565b5060208201516145a56020850182613aba565b5060408201516145b860408501826145e4565b5060608201516145cb60608501826145e4565b5060808201516145de60808501826145e4565b50505050565b6145ed81614e3d565b82525050565b6145fc81614e3d565b82525050565b60006020820190506146176000830184613aab565b92915050565b60006040820190506146326000830185613a8d565b61463f60208301846145f3565b9392505050565b600060208201905081810360008301526146608184613b93565b905092915050565b600060208201905081810360008301526146828184613bf1565b905092915050565b600060208201905081810360008301526146a48184613c4f565b905092915050565b60006020820190506146c16000830184613cad565b92915050565b6000610160820190506146dd600083018e613cad565b6146ea602083018d613ac9565b6146f7604083018c6145f3565b614704606083018b6145f3565b614711608083018a6145f3565b61471e60a08301896145f3565b61472b60c0830188613ce9565b61473860e08301876145f3565b6147466101008301866145f3565b6147546101208301856145f3565b6147626101408301846145f3565b9c9b505050505050505050505050565b60006020820190506147876000830184613cbc565b92915050565b60006020820190506147a26000830184613ccb565b92915050565b60006020820190506147bd6000830184613cda565b92915050565b60006020820190506147d86000830184613ce9565b92915050565b60006020820190506147f36000830184613cf8565b92915050565b6000602082019050818103600083015261481281613d07565b9050919050565b6000602082019050818103600083015261483281613d6d565b9050919050565b6000602082019050818103600083015261485281613dd3565b9050919050565b6000602082019050818103600083015261487281613e39565b9050919050565b6000602082019050818103600083015261489281613e79565b9050919050565b600060208201905081810360008301526148b281613edf565b9050919050565b600060208201905081810360008301526148d281613f45565b9050919050565b600060208201905081810360008301526148f281613fab565b9050919050565b6000602082019050818103600083015261491281614011565b9050919050565b6000602082019050818103600083015261493281614077565b9050919050565b60006020820190508181036000830152614952816140dd565b9050919050565b6000602082019050818103600083015261497281614143565b9050919050565b60006020820190508181036000830152614992816141a9565b9050919050565b600060208201905081810360008301526149b2816141e9565b9050919050565b600060208201905081810360008301526149d28161424f565b9050919050565b600060208201905081810360008301526149f28161428f565b9050919050565b60006020820190508181036000830152614a12816142f5565b9050919050565b60006020820190508181036000830152614a328161435b565b9050919050565b60006020820190508181036000830152614a528161439b565b9050919050565b60006020820190508181036000830152614a7281614401565b9050919050565b60006020820190508181036000830152614a9281614441565b9050919050565b60006020820190508181036000830152614ab2816144a7565b9050919050565b60006020820190508181036000830152614ad28161450d565b9050919050565b6000602082019050614aee60008301846145f3565b92915050565b6000604082019050614b0960008301866145f3565b8181036020830152614b1c818486613ad8565b9050949350505050565b6000604082019050614b3b60008301856145f3565b8181036020830152614b4d8184613b35565b90509392505050565b6000608082019050614b6b60008301876145f3565b8181036020830152614b7d8186613b35565b9050614b8c6040830185613a8d565b614b9960608301846145f3565b95945050505050565b600060a082019050614bb760008301896145f3565b614bc460208301886145f3565b8181036040830152614bd7818688613ad8565b9050614be66060830185613a8d565b614bf360808301846145f3565b979650505050505050565b600060a082019050614c1360008301886145f3565b614c2060208301876145f3565b8181036040830152614c328186613b35565b9050614c416060830185613a8d565b614c4e60808301846145f3565b9695505050505050565b6000604051905081810181811067ffffffffffffffff82111715614c7b57600080fd5b8060405250919050565b600067ffffffffffffffff821115614c9c57600080fd5b602082029050602081019050919050565b6000819050919050565b6000819050602082019050919050565b6000819050602082019050919050565b6000819050602082019050919050565b6000819050602082019050919050565b600081519050919050565b600081519050919050565b600081519050919050565b600081519050919050565b6000602082019050919050565b6000602082019050919050565b6000602082019050919050565b6000602082019050919050565b6000602082019050919050565b600082825260208201905092915050565b600082825260208201905092915050565b600082825260208201905092915050565b600082825260208201905092915050565b600082825260208201905092915050565b6000614dc8602084018461372d565b905092915050565b6000614ddb82614e1d565b9050919050565b6000614ded82614e1d565b9050919050565b60008115159050919050565b6000819050614e0e82614efb565b919050565b6000819050919050565b600073ffffffffffffffffffffffffffffffffffffffff82169050919050565b6000819050919050565b6000614e5282614ed7565b9050919050565b6000614e6482614e6b565b9050919050565b6000614e7682614e1d565b9050919050565b6000614e8882614e8f565b9050919050565b6000614e9a82614e1d565b9050919050565b6000614eac82614eb3565b9050919050565b6000614ebe82614e1d565b9050919050565b6000614ed082614e00565b9050919050565b6000614ee282614ee9565b9050919050565b6000614ef482614e1d565b9050919050565b60048110614f0557fe5b50565b614f1181614dd0565b8114614f1c57600080fd5b50565b614f2881614de2565b8114614f3357600080fd5b50565b614f3f81614df4565b8114614f4a57600080fd5b50565b614f5681614e13565b8114614f6157600080fd5b50565b614f6d81614e3d565b8114614f7857600080fd5b5056fea26469706673582212201b65a7c76372bd7b2ef3ffde5fa44053ab93372103ac11f00d55da269038527864736f6c63430006060033a2646970667358221220976b9caa426754ef56bfff18d1c066a9fece8fcdbc37d5a79ae3f2426e4e691664736f6c63430006060033",
  "linkReferences": {},
  "deployedLinkReferences": {}
}