{
  "_format": "hh-sol-artifact-1",
  "contractName": "FundFactory",
  "sourceName": "contracts/FundFactory.sol",
  "abi": [
    {
      "inputs": [
        {
          "components": [
            {
              "internalType": "address payable",
              "name": "swapRouterContract",
              "type": "address"
            },
            {
              "internalType": "address payable",
              "name": "eFundTokenContract",
              "type": "address"
            },
            {
              "internalType": "address payable",
              "name": "eFundPlatform",
              "type": "address"
            },
            {
              "internalType": "uint256",
              "name": "softCap",
              "type": "uint256"
            },
            {
              "internalType": "uint256",
              "name": "hardCap",
              "type": "uint256"
            },
            {
              "internalType": "uint256",
              "name": "profitFee",
              "type": "uint256"
            },
            {
              "internalType": "uint256",
              "name": "minimalDepostitAmount",
              "type": "uint256"
            },
            {
              "internalType": "uint256",
              "name": "minTimeUntilFundStart",
              "type": "uint256"
            },
            {
              "internalType": "address payable",
              "name": "managerAddress",
              "type": "address"
            },
            {
              "internalType": "uint256",
              "name": "duration",
              "type": "uint256"
            },
            {
              "internalType": "address payable[]",
              "name": "allowedTokenAddresses",
              "type": "address[]"
            }
          ],
          "internalType": "struct HedgeFundInfo",
          "name": "_hedgeFundInfo",
          "type": "tuple"
        }
      ],
      "name": "createFund",
      "outputs": [
        {
          "internalType": "address",
          "name": "",
          "type": "address"
        }
      ],
      "stateMutability": "payable",
      "type": "function"
    }
  ],
  "bytecode": "0x608060405234801561001057600080fd5b50615ce0806100206000396000f3fe608060405260043610620000205760003560e01c8063c737cd9d1462000025575b600080fd5b6200004360048036038101906200003d9190620001ec565b6200005b565b604051620000529190620004e0565b60405180910390f35b60008160600135826080013511620000aa576040517f08c379a0000000000000000000000000000000000000000000000000000000008152600401620000a190620004fd565b60405180910390fd5b81606001353410158015620000c3575081608001353411155b62000105576040517f08c379a0000000000000000000000000000000000000000000000000000000008152600401620000fc906200051f565b60405180910390fd5b600082604051620001169062000193565b62000122919062000541565b604051809103906000f0801580156200013f573d6000803e3d6000fd5b5090508073ffffffffffffffffffffffffffffffffffffffff166108fc349081150290604051600060405180830381858888f1935050505015801562000189573d6000803e3d6000fd5b5080915050919050565b6155fa80620006b183390190565b600081359050620001b2816200067c565b92915050565b60006101608284031215620001cc57600080fd5b81905092915050565b600081359050620001e68162000696565b92915050565b600060208284031215620001ff57600080fd5b600082013567ffffffffffffffff8111156200021a57600080fd5b6200022884828501620001b8565b91505092915050565b60006200023f83836200024b565b60208301905092915050565b62000256816200063e565b82525050565b62000267816200062a565b82525050565b60006200027b83856200057c565b9350620002888262000565565b8060005b85811015620002c957620002a182846200059e565b620002ad888262000231565b9750620002ba836200056f565b9250506001810190506200028c565b5085925050509392505050565b6000620002e56003836200058d565b91507f43453000000000000000000000000000000000000000000000000000000000006000830152602082019050919050565b6000620003276003836200058d565b91507f43453100000000000000000000000000000000000000000000000000000000006000830152602082019050919050565b600061016083016200037060008401846200059e565b6200037f60008601826200024b565b506200038f60208401846200059e565b6200039e60208601826200024b565b50620003ae60408401846200059e565b620003bd60408601826200024b565b50620003cd606084018462000611565b620003dc6060860182620004cf565b50620003ec608084018462000611565b620003fb6080860182620004cf565b506200040b60a084018462000611565b6200041a60a0860182620004cf565b506200042a60c084018462000611565b6200043960c0860182620004cf565b506200044960e084018462000611565b6200045860e0860182620004cf565b50620004696101008401846200059e565b620004796101008601826200024b565b506200048a61012084018462000611565b6200049a610120860182620004cf565b50620004ab610140840184620005b7565b858303610140870152620004c18382846200026d565b925050508091505092915050565b620004da8162000672565b82525050565b6000602082019050620004f760008301846200025c565b92915050565b600060208201905081810360008301526200051881620002d6565b9050919050565b600060208201905081810360008301526200053a8162000318565b9050919050565b600060208201905081810360008301526200055d81846200035a565b905092915050565b6000819050919050565b6000602082019050919050565b600082825260208201905092915050565b600082825260208201905092915050565b6000620005af6020840184620001a1565b905092915050565b60008083356001602003843603038112620005d157600080fd5b83810192508235915060208301925067ffffffffffffffff821115620005f657600080fd5b6020820236038413156200060957600080fd5b509250929050565b6000620006226020840184620001d5565b905092915050565b6000620006378262000652565b9050919050565b60006200064b8262000652565b9050919050565b600073ffffffffffffffffffffffffffffffffffffffff82169050919050565b6000819050919050565b62000687816200063e565b81146200069357600080fd5b50565b620006a18162000672565b8114620006ad57600080fd5b5056fe6102006040523480156200001257600080fd5b50604051620055fa380380620055fa8339818101604052810190620000389190620005e9565b6200004e816101200151620002e660201b60201c565b62000090576040517f08c379a0000000000000000000000000000000000000000000000000000000008152600401620000879062000670565b60405180910390fd5b806000015173ffffffffffffffffffffffffffffffffffffffff1660c08173ffffffffffffffffffffffffffffffffffffffff1660601b81525050806020015173ffffffffffffffffffffffffffffffffffffffff1660808173ffffffffffffffffffffffffffffffffffffffff1660601b81525050806040015173ffffffffffffffffffffffffffffffffffffffff1660a08173ffffffffffffffffffffffffffffffffffffffff1660601b8152505080610100015173ffffffffffffffffffffffffffffffffffffffff166101a08173ffffffffffffffffffffffffffffffffffffffff1660601b815250506000600460006101000a81548160ff021916908360038111156200019e57fe5b02179055508061012001516101c08181525050806060015161014081815250508060800151610160818152505080610140015160039080519060200190620001e89291906200031f565b506000600b60006101000a81548160ff0219169083151502179055504261010081815250508060e00151420161012081815250508060c0015160e08181525050620002386200031760201b60201c565b61018081815250508060a001516101e0818152505060005b81610140015151811015620002de576001600a600084610140015184815181106200027757fe5b602002602001015173ffffffffffffffffffffffffffffffffffffffff1673ffffffffffffffffffffffffffffffffffffffff16815260200190815260200160002060006101000a81548160ff021916908315150217905550808060010191505062000250565b50506200076c565b60006001821480620002f85750600282145b80620003045750600382145b80620003105750600682145b9050919050565b600047905090565b8280548282559060005260206000209081019282156200039b579160200282015b828111156200039a5782518260006101000a81548173ffffffffffffffffffffffffffffffffffffffff021916908373ffffffffffffffffffffffffffffffffffffffff1602179055509160200191906001019062000340565b5b509050620003aa9190620003ae565b5090565b620003f191905b80821115620003ed57600081816101000a81549073ffffffffffffffffffffffffffffffffffffffff021916905550600101620003b5565b5090565b90565b600081519050620004058162000738565b92915050565b600082601f8301126200041d57600080fd5b8151620004346200042e82620006c0565b62000692565b915081818352602084019350602081019050838560208402820111156200045a57600080fd5b60005b838110156200048e5781620004738882620003f4565b8452602084019350602083019250506001810190506200045d565b5050505092915050565b60006101608284031215620004ac57600080fd5b620004b961016062000692565b90506000620004cb84828501620003f4565b6000830152506020620004e184828501620003f4565b6020830152506040620004f784828501620003f4565b60408301525060606200050d84828501620005d2565b60608301525060806200052384828501620005d2565b60808301525060a06200053984828501620005d2565b60a08301525060c06200054f84828501620005d2565b60c08301525060e06200056584828501620005d2565b60e0830152506101006200057c84828501620003f4565b610100830152506101206200059484828501620005d2565b6101208301525061014082015167ffffffffffffffff811115620005b757600080fd5b620005c5848285016200040b565b6101408301525092915050565b600081519050620005e38162000752565b92915050565b600060208284031215620005fc57600080fd5b600082015167ffffffffffffffff8111156200061757600080fd5b620006258482850162000498565b91505092915050565b60006200063d601083620006e9565b91507f496e76616c6964206475726174696f6e000000000000000000000000000000006000830152602082019050919050565b600060208201905081810360008301526200068b816200062e565b9050919050565b6000604051905081810181811067ffffffffffffffff82111715620006b657600080fd5b8060405250919050565b600067ffffffffffffffff821115620006d857600080fd5b602082029050602081019050919050565b600082825260208201905092915050565b600062000707826200070e565b9050919050565b600073ffffffffffffffffffffffffffffffffffffffff82169050919050565b6000819050919050565b6200074381620006fa565b81146200074f57600080fd5b50565b6200075d816200072e565b81146200076957600080fd5b50565b60805160601c60a05160601c60c05160601c60e05161010051610120516101405161016051610180516101a05160601c6101c0516101e051614d7562000885600039806127fa5280612dde525080611af15280612ed85250806108775280610a805280610f4752806115535280611ac75280611db45280612d245250806114c5525080610d775280612e22525080612484525080610b45528061246052806124ac525080611aa352806124cd525080610d145280612d9652508061109d5280611144528061126952806112fd52806116bd52806117655280611870528061207b52806121a7528061223b5280612dba5250806109455280610eb95280612b365280612bee5280612cac5250806107eb5250614d756000f3fe6080604052600436106102135760003560e01c80637f18c7f611610118578063d6cfeae0116100a0578063f887ea401161006f578063f887ea4014610700578063f90766a61461072b578063f9eaee0d14610756578063fb86a40414610793578063fe1781c8146107be5761021a565b8063d6cfeae014610668578063e39e45e214610693578063e4206f10146106be578063f1aaef81146106d55761021a565b8063a1956e32116100e7578063a1956e3214610593578063a63d78b1146105be578063adc59278146105e9578063afb8b63a14610626578063d3f3f5ea1461063d5761021a565b80637f18c7f6146104e9578063893f677114610526578063906a26e0146105515780639cd1b2411461057c5761021a565b80634d820b9a1161019b578063610c51a51161016a578063610c51a5146104265780636209ec2d14610451578063638a4b171461047c5780636da797c9146104a75780637cf2ed22146104d25761021a565b80634d820b9a1461036857806359c57bed146103935780635cfad0b7146103be5780636032c7e3146103e95761021a565b806338bde791116101e257806338bde791146102a057806340732c89146102cb578063439f5ac2146102d557806347f5b2321461030057806349c860291461032b5761021a565b8063064cb8e01461021c57806307ea6303146102475780630b77b3b51461025e578063155d2830146102755761021a565b3661021a57005b005b34801561022857600080fd5b506102316107e9565b60405161023e9190614551565b60405180910390f35b34801561025357600080fd5b5061025c61080d565b005b34801561026a57600080fd5b50610273610a16565b005b34801561028157600080fd5b5061028a610c16565b60405161029791906144b5565b60405180910390f35b3480156102ac57600080fd5b506102b5610ca4565b6040516102c2919061489d565b60405180910390f35b6102d3610caa565b005b3480156102e157600080fd5b506102ea610ea8565b6040516102f7919061489d565b60405180910390f35b34801561030c57600080fd5b50610315610eb7565b6040516103229190614536565b60405180910390f35b34801561033757600080fd5b50610352600480360381019061034d919061375d565b610edb565b60405161035f919061489d565b60405180910390f35b34801561037457600080fd5b5061037d611422565b60405161038a919061451b565b60405180910390f35b34801561039f57600080fd5b506103a8611435565b6040516103b591906144b5565b60405180910390f35b3480156103ca57600080fd5b506103d36114c3565b6040516103e0919061489d565b60405180910390f35b3480156103f557600080fd5b50610410600480360381019061040b919061375d565b6114e7565b60405161041d919061489d565b60405180910390f35b34801561043257600080fd5b5061043b611aa1565b604051610448919061489d565b60405180910390f35b34801561045d57600080fd5b50610466611ac5565b6040516104739190614471565b60405180910390f35b34801561048857600080fd5b50610491611ae9565b60405161049e919061489d565b60405180910390f35b3480156104b357600080fd5b506104bc611aef565b6040516104c9919061489d565b60405180910390f35b3480156104de57600080fd5b506104e7611b13565b005b3480156104f557600080fd5b50610510600480360381019061050b91906137ac565b611d48565b60405161051d919061489d565b60405180910390f35b34801561053257600080fd5b5061053b61245e565b604051610548919061489d565b60405180910390f35b34801561055d57600080fd5b50610566612482565b604051610573919061489d565b60405180910390f35b34801561058857600080fd5b506105916124a6565b005b34801561059f57600080fd5b506105a8612745565b6040516105b5919061489d565b60405180910390f35b3480156105ca57600080fd5b506105d361274b565b6040516105e091906145a2565b60405180910390f35b3480156105f557600080fd5b50610610600480360381019061060b919061370b565b612750565b60405161061d919061451b565b60405180910390f35b34801561063257600080fd5b5061063b612770565b005b34801561064957600080fd5b50610652612894565b60405161065f91906144d7565b60405180910390f35b34801561067457600080fd5b5061067d612953565b60405161068a91906144f9565b60405180910390f35b34801561069f57600080fd5b506106a8612a7c565b6040516106b59190614587565b60405180910390f35b3480156106ca57600080fd5b506106d3612a8f565b005b3480156106e157600080fd5b506106ea612d94565b6040516106f7919061489d565b60405180910390f35b34801561070c57600080fd5b50610715612db8565b604051610722919061456c565b60405180910390f35b34801561073757600080fd5b50610740612ddc565b60405161074d919061489d565b60405180910390f35b34801561076257600080fd5b5061077d6004803603810190610778919061370b565b612e00565b60405161078a919061451b565b60405180910390f35b34801561079f57600080fd5b506107a8612e20565b6040516107b5919061489d565b60405180910390f35b3480156107ca57600080fd5b506107d3612e44565b6040516107e0919061489d565b60405180910390f35b7f000000000000000000000000000000000000000000000000000000000000000081565b6002600381111561081a57fe5b600460009054906101000a900460ff16600381111561083557fe5b14610875576040517f08c379a000000000000000000000000000000000000000000000000000000000815260040161086c906145bd565b60405180910390fd5b7f000000000000000000000000000000000000000000000000000000000000000073ffffffffffffffffffffffffffffffffffffffff163373ffffffffffffffffffffffffffffffffffffffff1614806108fa57503073ffffffffffffffffffffffffffffffffffffffff163373ffffffffffffffffffffffffffffffffffffffff16145b610939576040517f08c379a00000000000000000000000000000000000000000000000000000000081526004016109309061465d565b60405180910390fd5b6109436003612e4a565b7f000000000000000000000000000000000000000000000000000000000000000073ffffffffffffffffffffffffffffffffffffffff1663e3a1c6fe6040518163ffffffff1660e01b8152600401600060405180830381600087803b1580156109ab57600080fd5b505af11580156109bf573d6000803e3d6000fd5b505050507fbc141a1c0c073ed34f6fa9cdc66bb9473f488bccda93d1e43bb9a15c4391a92f600460009054906101000a900460ff1660038111156109ff57fe5b604051610a0c919061489d565b60405180910390a1565b60006003811115610a2357fe5b600460009054906101000a900460ff166003811115610a3e57fe5b14610a7e576040517f08c379a0000000000000000000000000000000000000000000000000000000008152600401610a75906146dd565b60405180910390fd5b7f000000000000000000000000000000000000000000000000000000000000000073ffffffffffffffffffffffffffffffffffffffff163373ffffffffffffffffffffffffffffffffffffffff161480610b0357503073ffffffffffffffffffffffffffffffffffffffff163373ffffffffffffffffffffffffffffffffffffffff16145b610b42576040517f08c379a0000000000000000000000000000000000000000000000000000000008152600401610b399061465d565b60405180910390fd5b427f000000000000000000000000000000000000000000000000000000000000000010610ba4576040517f08c379a0000000000000000000000000000000000000000000000000000000008152600401610b9b906145dd565b60405180910390fd5b610bae6001612e4a565b610bb6612e70565b600681905550426005819055507fbc141a1c0c073ed34f6fa9cdc66bb9473f488bccda93d1e43bb9a15c4391a92f600460009054906101000a900460ff166003811115610bff57fe5b604051610c0c919061489d565b60405180910390a1565b60606003805480602002602001604051908101604052809291908181526020018280548015610c9a57602002820191906000526020600020905b8160009054906101000a900473ffffffffffffffffffffffffffffffffffffffff1673ffffffffffffffffffffffffffffffffffffffff1681526020019060010190808311610c50575b5050505050905090565b60065481565b60006003811115610cb757fe5b600460009054906101000a900460ff166003811115610cd257fe5b14610d12576040517f08c379a0000000000000000000000000000000000000000000000000000000008152600401610d09906146dd565b60405180910390fd5b7f0000000000000000000000000000000000000000000000000000000000000000341015610d75576040517f08c379a0000000000000000000000000000000000000000000000000000000008152600401610d6c9061483d565b60405180910390fd5b7f0000000000000000000000000000000000000000000000000000000000000000610db034610da2612e70565b612e7890919063ffffffff16565b1115610df1576040517f08c379a0000000000000000000000000000000000000000000000000000000008152600401610de89061479d565b60405180910390fd5b610df961357b565b60405180604001604052803373ffffffffffffffffffffffffffffffffffffffff168152602001348152509050600081908060018154018082558091505060019003906000526020600020906002020160009091909190915060008201518160000160006101000a81548173ffffffffffffffffffffffffffffffffffffffff021916908373ffffffffffffffffffffffffffffffffffffffff16021790555060208201518160010155505050565b6000610eb2612ecd565b905090565b7f000000000000000000000000000000000000000000000000000000000000000081565b600060016003811115610eea57fe5b600460009054906101000a900460ff166003811115610f0557fe5b14610f45576040517f08c379a0000000000000000000000000000000000000000000000000000000008152600401610f3c9061469d565b60405180910390fd5b7f000000000000000000000000000000000000000000000000000000000000000073ffffffffffffffffffffffffffffffffffffffff163373ffffffffffffffffffffffffffffffffffffffff161480610fca57503073ffffffffffffffffffffffffffffffffffffffff163373ffffffffffffffffffffffffffffffffffffffff16145b611009576040517f08c379a00000000000000000000000000000000000000000000000000000000081526004016110009061465d565b60405180910390fd5b600960008573ffffffffffffffffffffffffffffffffffffffff1673ffffffffffffffffffffffffffffffffffffffff16815260200190815260200160002060009054906101000a900460ff16611095576040517f08c379a000000000000000000000000000000000000000000000000000000000815260040161108c9061467d565b60405180910390fd5b606061113e857f000000000000000000000000000000000000000000000000000000000000000073ffffffffffffffffffffffffffffffffffffffff1663ad5c46486040518163ffffffff1660e01b815260040160206040518083038186803b15801561110157600080fd5b505afa158015611115573d6000803e3d6000fd5b505050506040513d601f19601f820116820180604052508101906111399190613734565b612f0e565b905060007f000000000000000000000000000000000000000000000000000000000000000073ffffffffffffffffffffffffffffffffffffffff1663d06ca61f86846040518363ffffffff1660e01b815260040161119d9291906148ea565b60006040518083038186803b1580156111b557600080fd5b505afa1580156111c9573d6000803e3d6000fd5b505050506040513d6000823e3d601f19601f820116820180604052508101906111f29190613818565b6001815181106111fe57fe5b602002602001015190508381101561124b576040517f08c379a0000000000000000000000000000000000000000000000000000000008152600401611242906146fd565b60405180910390fd5b8573ffffffffffffffffffffffffffffffffffffffff1663095ea7b37f0000000000000000000000000000000000000000000000000000000000000000876040518363ffffffff1660e01b81526004016112a692919061448c565b602060405180830381600087803b1580156112c057600080fd5b505af11580156112d4573d6000803e3d6000fd5b505050506040513d601f19601f820116820180604052508101906112f89190613859565b5060607f000000000000000000000000000000000000000000000000000000000000000073ffffffffffffffffffffffffffffffffffffffff166318cbafe58784863061070842016040518663ffffffff1660e01b81526004016113609594939291906149c2565b600060405180830381600087803b15801561137a57600080fd5b505af115801561138e573d6000803e3d6000fd5b505050506040513d6000823e3d601f19601f820116820180604052508101906113b79190613818565b9050611401836000815181106113c957fe5b6020026020010151846001815181106113de57fe5b602002602001015188846001815181106113f457fe5b6020026020010151612ff5565b8060018151811061140e57fe5b602002602001015193505050509392505050565b600b60009054906101000a900460ff1681565b606060028054806020026020016040519081016040528092919081815260200182805480156114b957602002820191906000526020600020905b8160009054906101000a900473ffffffffffffffffffffffffffffffffffffffff1673ffffffffffffffffffffffffffffffffffffffff168152602001906001019080831161146f575b5050505050905090565b7f000000000000000000000000000000000000000000000000000000000000000081565b6000600160038111156114f657fe5b600460009054906101000a900460ff16600381111561151157fe5b14611551576040517f08c379a00000000000000000000000000000000000000000000000000000000081526004016115489061469d565b60405180910390fd5b7f000000000000000000000000000000000000000000000000000000000000000073ffffffffffffffffffffffffffffffffffffffff163373ffffffffffffffffffffffffffffffffffffffff1614806115d657503073ffffffffffffffffffffffffffffffffffffffff163373ffffffffffffffffffffffffffffffffffffffff16145b611615576040517f08c379a000000000000000000000000000000000000000000000000000000000815260040161160c9061465d565b60405180910390fd5b60006003805490501461167457600a60008573ffffffffffffffffffffffffffffffffffffffff1673ffffffffffffffffffffffffffffffffffffffff16815260200190815260200160002060009054906101000a900460ff16611677565b60015b6116b6576040517f08c379a00000000000000000000000000000000000000000000000000000000081526004016116ad906147dd565b60405180910390fd5b606061175f7f000000000000000000000000000000000000000000000000000000000000000073ffffffffffffffffffffffffffffffffffffffff1663ad5c46486040518163ffffffff1660e01b815260040160206040518083038186803b15801561172157600080fd5b505afa158015611735573d6000803e3d6000fd5b505050506040513d601f19601f820116820180604052508101906117599190613734565b86612f0e565b905060007f000000000000000000000000000000000000000000000000000000000000000073ffffffffffffffffffffffffffffffffffffffff1663d06ca61f86846040518363ffffffff1660e01b81526004016117be9291906148ea565b60006040518083038186803b1580156117d657600080fd5b505afa1580156117ea573d6000803e3d6000fd5b505050506040513d6000823e3d601f19601f820116820180604052508101906118139190613818565b60018151811061181f57fe5b602002602001015190508381101561186c576040517f08c379a0000000000000000000000000000000000000000000000000000000008152600401611863906146fd565b60405180910390fd5b60607f000000000000000000000000000000000000000000000000000000000000000073ffffffffffffffffffffffffffffffffffffffff1663fb3bdb418784863061070842016040518663ffffffff1660e01b81526004016118d2949392919061491a565b6000604051808303818588803b1580156118eb57600080fd5b505af11580156118ff573d6000803e3d6000fd5b50505050506040513d6000823e3d601f19601f820116820180604052508101906119299190613818565b9050600960008873ffffffffffffffffffffffffffffffffffffffff1673ffffffffffffffffffffffffffffffffffffffff16815260200190815260200160002060009054906101000a900460ff16611a38576002879080600181540180825580915050600190039060005260206000200160009091909190916101000a81548173ffffffffffffffffffffffffffffffffffffffff021916908373ffffffffffffffffffffffffffffffffffffffff1602179055506001600960008973ffffffffffffffffffffffffffffffffffffffff1673ffffffffffffffffffffffffffffffffffffffff16815260200190815260200160002060006101000a81548160ff0219169083151502179055505b611a8083600081518110611a4857fe5b602002602001015184600181518110611a5d57fe5b60200260200101518884600181518110611a7357fe5b6020026020010151612ff5565b80600181518110611a8d57fe5b602002602001015193505050509392505050565b7f000000000000000000000000000000000000000000000000000000000000000081565b7f000000000000000000000000000000000000000000000000000000000000000081565b60055481565b7f000000000000000000000000000000000000000000000000000000000000000081565b60026003811115611b2057fe5b600460009054906101000a900460ff166003811115611b3b57fe5b1480611b6b5750600380811115611b4e57fe5b600460009054906101000a900460ff166003811115611b6957fe5b145b611baa576040517f08c379a0000000000000000000000000000000000000000000000000000000008152600401611ba19061477d565b60405180910390fd5b600b60009054906101000a900460ff1615611bfa576040517f08c379a0000000000000000000000000000000000000000000000000000000008152600401611bf19061463d565b60405180910390fd5b6001600b60006101000a81548160ff02191690831515021790555060005b600080549050811015611d1957611c2d61357b565b60008281548110611c3a57fe5b90600052602060002090600202016040518060400160405290816000820160009054906101000a900473ffffffffffffffffffffffffffffffffffffffff1673ffffffffffffffffffffffffffffffffffffffff1673ffffffffffffffffffffffffffffffffffffffff168152602001600182015481525050905060008281548110611cc257fe5b9060005260206000209060020201600080820160006101000a81549073ffffffffffffffffffffffffffffffffffffffff021916905560018201600090555050611d0b8161318d565b508080600101915050611c18565b507f70ac3d3f37bb5712619702156bd9af57f16ac82695c742a80d49800cd046be7060405160405180910390a1565b600060016003811115611d5757fe5b600460009054906101000a900460ff166003811115611d7257fe5b14611db2576040517f08c379a0000000000000000000000000000000000000000000000000000000008152600401611da99061469d565b60405180910390fd5b7f000000000000000000000000000000000000000000000000000000000000000073ffffffffffffffffffffffffffffffffffffffff163373ffffffffffffffffffffffffffffffffffffffff161480611e3757503073ffffffffffffffffffffffffffffffffffffffff163373ffffffffffffffffffffffffffffffffffffffff16145b611e76576040517f08c379a0000000000000000000000000000000000000000000000000000000008152600401611e6d9061465d565b60405180910390fd5b6002858590501015611ebd576040517f08c379a0000000000000000000000000000000000000000000000000000000008152600401611eb49061481d565b60405180910390fd5b600085856000818110611ecc57fe5b9050602002016020810190611ee1919061370b565b90506000868660018989905003818110611ef757fe5b9050602002016020810190611f0c919061370b565b905060005b8787905081101561207657600060038054905014611f9b57600a6000898984818110611f3957fe5b9050602002016020810190611f4e919061370b565b73ffffffffffffffffffffffffffffffffffffffff1673ffffffffffffffffffffffffffffffffffffffff16815260200190815260200160002060009054906101000a900460ff16611f9e565b60015b611fdd576040517f08c379a0000000000000000000000000000000000000000000000000000000008152600401611fd4906147dd565b60405180910390fd5b600960008473ffffffffffffffffffffffffffffffffffffffff1673ffffffffffffffffffffffffffffffffffffffff16815260200190815260200160002060009054906101000a900460ff16612069576040517f08c379a00000000000000000000000000000000000000000000000000000000081526004016120609061485d565b60405180910390fd5b8080600101915050611f11565b5060007f000000000000000000000000000000000000000000000000000000000000000073ffffffffffffffffffffffffffffffffffffffff1663d06ca61f878a8a6040518463ffffffff1660e01b81526004016120d6939291906148b8565b60006040518083038186803b1580156120ee57600080fd5b505afa158015612102573d6000803e3d6000fd5b505050506040513d6000823e3d601f19601f8201168201806040525081019061212b9190613818565b600189899050038151811061213c57fe5b6020026020010151905084811015612189576040517f08c379a0000000000000000000000000000000000000000000000000000000008152600401612180906146fd565b60405180910390fd5b8273ffffffffffffffffffffffffffffffffffffffff1663095ea7b37f0000000000000000000000000000000000000000000000000000000000000000886040518363ffffffff1660e01b81526004016121e492919061448c565b602060405180830381600087803b1580156121fe57600080fd5b505af1158015612212573d6000803e3d6000fd5b505050506040513d601f19601f820116820180604052508101906122369190613859565b5060607f000000000000000000000000000000000000000000000000000000000000000073ffffffffffffffffffffffffffffffffffffffff166338ed173988848c8c3061228f61070842612e7890919063ffffffff16565b6040518763ffffffff1660e01b81526004016122b096959493929190614966565b600060405180830381600087803b1580156122ca57600080fd5b505af11580156122de573d6000803e3d6000fd5b505050506040513d6000823e3d601f19601f820116820180604052508101906123079190613818565b9050600960008473ffffffffffffffffffffffffffffffffffffffff1673ffffffffffffffffffffffffffffffffffffffff16815260200190815260200160002060009054906101000a900460ff16612416576002839080600181540180825580915050600190039060005260206000200160009091909190916101000a81548173ffffffffffffffffffffffffffffffffffffffff021916908373ffffffffffffffffffffffffffffffffffffffff1602179055506001600960008573ffffffffffffffffffffffffffffffffffffffff1673ffffffffffffffffffffffffffffffffffffffff16815260200190815260200160002060006101000a81548160ff0219169083151502179055505b61243b8484898460018e8e9050038151811061242e57fe5b6020026020010151612ff5565b8060018151811061244857fe5b6020026020010151945050505050949350505050565b7f000000000000000000000000000000000000000000000000000000000000000081565b7f000000000000000000000000000000000000000000000000000000000000000081565b426124fa7f00000000000000000000000000000000000000000000000000000000000000007f0000000000000000000000000000000000000000000000000000000000000000612e7890919063ffffffff16565b1061253a576040517f08c379a00000000000000000000000000000000000000000000000000000000081526004016125319061473d565b60405180910390fd5b600080905060008090505b600080549050811015612701573373ffffffffffffffffffffffffffffffffffffffff166000828154811061257657fe5b906000526020600020906002020160000160009054906101000a900473ffffffffffffffffffffffffffffffffffffffff1673ffffffffffffffffffffffffffffffffffffffff1614156126f4576125cc61357b565b600082815481106125d957fe5b90600052602060002090600202016040518060400160405290816000820160009054906101000a900473ffffffffffffffffffffffffffffffffffffffff1673ffffffffffffffffffffffffffffffffffffffff1673ffffffffffffffffffffffffffffffffffffffff16815260200160018201548152505090506000828154811061266157fe5b9060005260206000209060020201600080820160006101000a81549073ffffffffffffffffffffffffffffffffffffffff021916905560018201600090555050600192506126ae8161318d565b813373ffffffffffffffffffffffffffffffffffffffff167fe737dc9ea16794043839aa01f063bf3e6faa009fe354f0b6ae1d7ab6dc20ac3460405160405180910390a3505b8080600101915050612545565b5080612742576040517f08c379a0000000000000000000000000000000000000000000000000000000008152600401612739906147fd565b60405180910390fd5b50565b60075481565b605a81565b60096020528060005260406000206000915054906101000a900460ff1681565b6001600381111561277d57fe5b600460009054906101000a900460ff16600381111561279857fe5b146127d8576040517f08c379a00000000000000000000000000000000000000000000000000000000081526004016127cf9061469d565b60405180910390fd5b6127e26002612e4a565b6127ea612e70565b60078190555060006128286128207f0000000000000000000000000000000000000000000000000000000000000000606461328c565b6007546132be565b90506006548160075403111561284057806008819055505b7fbc141a1c0c073ed34f6fa9cdc66bb9473f488bccda93d1e43bb9a15c4391a92f600460009054906101000a900460ff16600381111561287c57fe5b604051612889919061489d565b60405180910390a150565b60606000805480602002602001604051908101604052809291908181526020016000905b8282101561294a57838290600052602060002090600202016040518060400160405290816000820160009054906101000a900473ffffffffffffffffffffffffffffffffffffffff1673ffffffffffffffffffffffffffffffffffffffff1673ffffffffffffffffffffffffffffffffffffffff168152602001600182015481525050815260200190600101906128b8565b50505050905090565b60606001805480602002602001604051908101604052809291908181526020016000905b82821015612a7357838290600052602060002090600502016040518060a00160405290816000820160009054906101000a900473ffffffffffffffffffffffffffffffffffffffff1673ffffffffffffffffffffffffffffffffffffffff1673ffffffffffffffffffffffffffffffffffffffff1681526020016001820160009054906101000a900473ffffffffffffffffffffffffffffffffffffffff1673ffffffffffffffffffffffffffffffffffffffff1673ffffffffffffffffffffffffffffffffffffffff168152602001600282015481526020016003820154815260200160048201548152505081526020019060010190612977565b50505050905090565b600460009054906101000a900460ff1681565b600b60009054906101000a900460ff16612ade576040517f08c379a0000000000000000000000000000000000000000000000000000000008152600401612ad5906145fd565b60405180910390fd5b60004711612b21576040517f08c379a0000000000000000000000000000000000000000000000000000000008152600401612b18906146bd565b60405180910390fd5b600060075460065410612be657612bdf612bd97f000000000000000000000000000000000000000000000000000000000000000073ffffffffffffffffffffffffffffffffffffffff1663d10d51a26040518163ffffffff1660e01b815260040160206040518083038186803b158015612b9a57600080fd5b505afa158015612bae573d6000803e3d6000fd5b505050506040513d601f19601f82011682018060405250810190612bd29190613882565b606461328c565b476132be565b9050612c9a565b612c97612c917f000000000000000000000000000000000000000000000000000000000000000073ffffffffffffffffffffffffffffffffffffffff166359b6f2e66040518163ffffffff1660e01b815260040160206040518083038186803b158015612c5257600080fd5b505afa158015612c66573d6000803e3d6000fd5b505050506040513d601f19601f82011682018060405250810190612c8a9190613882565b606461328c565b476132be565b90505b6000612ca4612e70565b1115612d12577f000000000000000000000000000000000000000000000000000000000000000073ffffffffffffffffffffffffffffffffffffffff166108fc829081150290604051600060405180830381858888f19350505050158015612d10573d6000803e3d6000fd5b505b6000612d1c612e70565b1115612d91577f000000000000000000000000000000000000000000000000000000000000000073ffffffffffffffffffffffffffffffffffffffff166108fc612d64612e70565b9081150290604051600060405180830381858888f19350505050158015612d8f573d6000803e3d6000fd5b505b50565b7f000000000000000000000000000000000000000000000000000000000000000081565b7f000000000000000000000000000000000000000000000000000000000000000081565b7f000000000000000000000000000000000000000000000000000000000000000081565b600a6020528060005260406000206000915054906101000a900460ff1681565b7f000000000000000000000000000000000000000000000000000000000000000081565b60085481565b80600460006101000a81548160ff02191690836003811115612e6857fe5b021790555050565b600047905090565b600080828401905083811015612ec3576040517f08c379a0000000000000000000000000000000000000000000000000000000008152600401612eba9061461d565b60405180910390fd5b8091505092915050565b6000612f0562278d007f00000000000000000000000000000000000000000000000000000000000000006132f090919063ffffffff16565b60055401905090565b606080600267ffffffffffffffff81118015612f2957600080fd5b50604051908082528060200260200182016040528015612f585781602001602082028036833780820191505090505b5090508381600081518110612f6957fe5b602002602001019073ffffffffffffffffffffffffffffffffffffffff16908173ffffffffffffffffffffffffffffffffffffffff16815250508281600181518110612fb157fe5b602002602001019073ffffffffffffffffffffffffffffffffffffffff16908173ffffffffffffffffffffffffffffffffffffffff16815250508091505092915050565b808373ffffffffffffffffffffffffffffffffffffffff168573ffffffffffffffffffffffffffffffffffffffff167f6e31608d2e2f6546c30f3320a34d3826089ef057b2f52e93c107ca9d360f6dd485604051613053919061489d565b60405180910390a460016040518060a001604052808673ffffffffffffffffffffffffffffffffffffffff1681526020018573ffffffffffffffffffffffffffffffffffffffff16815260200184815260200183815260200142815250908060018154018082558091505060019003906000526020600020906005020160009091909190915060008201518160000160006101000a81548173ffffffffffffffffffffffffffffffffffffffff021916908373ffffffffffffffffffffffffffffffffffffffff16021790555060208201518160010160006101000a81548173ffffffffffffffffffffffffffffffffffffffff021916908373ffffffffffffffffffffffffffffffffffffffff160217905550604082015181600201556060820151816003015560808201518160040155505050505050565b6000600381111561319a57fe5b600460009054906101000a900460ff1660038111156131b557fe5b141561320f57806000015173ffffffffffffffffffffffffffffffffffffffff166108fc82602001519081150290604051600060405180830381858888f19350505050158015613209573d6000803e3d6000fd5b50613289565b60006132218260200151600654613360565b9050816000015173ffffffffffffffffffffffffffffffffffffffff166108fc6132558360085460065460075403036132be565b8460200151019081150290604051600060405180830381858888f19350505050158015613286573d6000803e3d6000fd5b50505b50565b60006132b6826132a8620186a08661339290919063ffffffff16565b61349090919063ffffffff16565b905092915050565b60006132e8620186a06132da858561339290919063ffffffff16565b61349090919063ffffffff16565b905092915050565b600080831415613303576000905061335a565b600082840290508284828161331457fe5b0414613355576040517f08c379a000000000000000000000000000000000000000000000000000000000815260040161334c9061475d565b60405180910390fd5b809150505b92915050565b600061338a8261337c620186a08661339290919063ffffffff16565b61349090919063ffffffff16565b905092915050565b6000808314156133a5576000905061348a565b7fffffffffffffffffffffffffffffffffffffffffffffffffffffffffffffffff831480156133f357507f800000000000000000000000000000000000000000000000000000000000000082145b15613433576040517f08c379a000000000000000000000000000000000000000000000000000000000815260040161342a906147bd565b60405180910390fd5b600082840290508284828161344457fe5b0514613485576040517f08c379a000000000000000000000000000000000000000000000000000000000815260040161347c906147bd565b60405180910390fd5b809150505b92915050565b6000808214156134d5576040517f08c379a00000000000000000000000000000000000000000000000000000000081526004016134cc9061487d565b60405180910390fd5b7fffffffffffffffffffffffffffffffffffffffffffffffffffffffffffffffff8214801561352357507f800000000000000000000000000000000000000000000000000000000000000083145b15613563576040517f08c379a000000000000000000000000000000000000000000000000000000000815260040161355a9061471d565b60405180910390fd5b600082848161356e57fe5b0590508091505092915050565b6040518060400160405280600073ffffffffffffffffffffffffffffffffffffffff168152602001600081525090565b6000813590506135ba81614ccc565b92915050565b6000815190506135cf81614ccc565b92915050565b6000813590506135e481614ce3565b92915050565b60008083601f8401126135fc57600080fd5b8235905067ffffffffffffffff81111561361557600080fd5b60208301915083602082028301111561362d57600080fd5b9250929050565b600082601f83011261364557600080fd5b815161365861365382614a49565b614a1c565b9150818183526020840193506020810190508385602084028201111561367d57600080fd5b60005b838110156136ad578161369388826136f6565b845260208401935060208301925050600181019050613680565b5050505092915050565b6000815190506136c681614cfa565b92915050565b6000815190506136db81614d11565b92915050565b6000813590506136f081614d28565b92915050565b60008151905061370581614d28565b92915050565b60006020828403121561371d57600080fd5b600061372b848285016135ab565b91505092915050565b60006020828403121561374657600080fd5b6000613754848285016135c0565b91505092915050565b60008060006060848603121561377257600080fd5b6000613780868287016135d5565b9350506020613791868287016136e1565b92505060406137a2868287016136e1565b9150509250925092565b600080600080606085870312156137c257600080fd5b600085013567ffffffffffffffff8111156137dc57600080fd5b6137e8878288016135ea565b945094505060206137fb878288016136e1565b925050604061380c878288016136e1565b91505092959194509250565b60006020828403121561382a57600080fd5b600082015167ffffffffffffffff81111561384457600080fd5b61385084828501613634565b91505092915050565b60006020828403121561386b57600080fd5b6000613879848285016136b7565b91505092915050565b60006020828403121561389457600080fd5b60006138a2848285016136cc565b91505092915050565b60006138b7838361391a565b60208301905092915050565b60006138cf8383613938565b60208301905092915050565b60006138e783836143bc565b60408301905092915050565b60006138ff83836143eb565b60a08301905092915050565b61391481614c0b565b82525050565b61392381614ba6565b82525050565b61393281614ba6565b82525050565b61394181614b94565b82525050565b60006139538385614b28565b935061395e82614a71565b8060005b85811015613997576139748284614b7d565b61397e88826138c3565b975061398983614ae7565b925050600181019050613962565b5085925050509392505050565b60006139af82614abb565b6139b98185614b28565b93506139c483614a7b565b8060005b838110156139f55781516139dc88826138c3565b97506139e783614af4565b9250506001810190506139c8565b5085935050505092915050565b6000613a0d82614ac6565b613a178185614b39565b9350613a2283614a8b565b8060005b83811015613a53578151613a3a88826138ab565b9750613a4583614b01565b925050600181019050613a26565b5085935050505092915050565b6000613a6b82614ad1565b613a758185614b4a565b9350613a8083614a9b565b8060005b83811015613ab1578151613a9888826138db565b9750613aa383614b0e565b925050600181019050613a84565b5085935050505092915050565b6000613ac982614adc565b613ad38185614b5b565b9350613ade83614aab565b8060005b83811015613b0f578151613af688826138f3565b9750613b0183614b1b565b925050600181019050613ae2565b5085935050505092915050565b613b2581614bb8565b82525050565b613b3481614c1d565b82525050565b613b4381614c41565b82525050565b613b5281614c65565b82525050565b613b6181614c89565b82525050565b613b7081614bd7565b82525050565b6000613b83602583614b6c565b91507f46756e642073686f756c6420626520696e20616e20436f6d706c69746564207360008301527f74617475730000000000000000000000000000000000000000000000000000006020830152604082019050919050565b6000613be9602583614b6c565b91507f46756e642063616e6e6f7420626520737461727465642061742074686174206d60008301527f6f6d656e740000000000000000000000000000000000000000000000000000006020830152604082019050919050565b6000613c4f603583614b6c565b91507f43616e207769746864726177206f6e6c7920616674657220616c6c206465706f60008301527f73697473742077657265207769746864726177656400000000000000000000006020830152604082019050919050565b6000613cb5601b83614b6c565b91507f536166654d6174683a206164646974696f6e206f766572666c6f7700000000006000830152602082019050919050565b6000613cf5602383614b6c565b91507f416c6c206465706f736974732061726520616c7265616479207769746864726160008301527f77656400000000000000000000000000000000000000000000000000000000006020830152604082019050919050565b6000613d5b602783614b6c565b91507f596f752068617665206e6f74207065726d697373696f6e7320746f207468697360008301527f20616374696f6e000000000000000000000000000000000000000000000000006020830152604082019050919050565b6000613dc1602183614b6c565b91507f596f75206e65656420746f206f776e207b746f6b656e46726f6d7d206669727360008301527f74000000000000000000000000000000000000000000000000000000000000006020830152604082019050919050565b6000613e27602283614b6c565b91507f46756e642073686f756c6420626520696e20616e20416374697665207374617460008301527f75730000000000000000000000000000000000000000000000000000000000006020830152604082019050919050565b6000613e8d602183614b6c565b91507f42616c616e636520697320302c206e6f7468696e6720746f207769746864726160008301527f77000000000000000000000000000000000000000000000000000000000000006020830152604082019050919050565b6000613ef3602283614b6c565b91507f46756e642073686f756c6420626520696e20616e204f70656e6564207374617460008301527f75730000000000000000000000000000000000000000000000000000000000006020830152604082019050919050565b6000613f59602a83614b6c565b91507f4f757470757420616d6f756e74206973206c6f776572207468656e207b616d6f60008301527f756e744f75744d696e7d000000000000000000000000000000000000000000006020830152604082019050919050565b6000613fbf602183614b6c565b91507f5369676e6564536166654d6174683a206469766973696f6e206f766572666c6f60008301527f77000000000000000000000000000000000000000000000000000000000000006020830152604082019050919050565b6000614025601883614b6c565b91507f43616e6e6f742077697468647261772066756e64206e6f7700000000000000006000830152602082019050919050565b6000614065602183614b6c565b91507f536166654d6174683a206d756c7469706c69636174696f6e206f766572666c6f60008301527f77000000000000000000000000000000000000000000000000000000000000006020830152604082019050919050565b60006140cb601983614b6c565b91507f46756e64206973206e6f7420636f6d706c6974656420796574000000000000006000830152602082019050919050565b600061410b602e83614b6c565b91507f4d617820636170206973206f766572666c6f7765642e2054727920746f20736560008301527f6e64206c6f7765722076616c75650000000000000000000000000000000000006020830152604082019050919050565b6000614171602783614b6c565b91507f5369676e6564536166654d6174683a206d756c7469706c69636174696f6e206f60008301527f766572666c6f77000000000000000000000000000000000000000000000000006020830152604082019050919050565b60006141d7601f83614b6c565b91507f54726164696e672077697468206e6f7420616c6c6f77656420746f6b656e73006000830152602082019050919050565b6000614217602783614b6c565b91507f596f752068617665206e6f7420616e79206465706f7369747320696e2068656460008301527f67652066756e64000000000000000000000000000000000000000000000000006020830152604082019050919050565b600061427d601183614b6c565b91507f50617468206d757374206265203e3d20320000000000000000000000000000006000830152602082019050919050565b60006142bd603483614b6c565b91507f5472616e73616374696f6e2076616c7565206973206c657373207468656e206d60008301527f696e696d756d206465706f73697420616d6f75740000000000000000000000006020830152604082019050919050565b6000614323602183614b6c565b91507f596f75206d75737420746f206f776e207b746f6b656e46726f6d7d206669727360008301527f74000000000000000000000000000000000000000000000000000000000000006020830152604082019050919050565b6000614389602083614b6c565b91507f5369676e6564536166654d6174683a206469766973696f6e206279207a65726f6000830152602082019050919050565b6040820160008201516143d2600085018261391a565b5060208201516143e56020850182614453565b50505050565b60a0820160008201516144016000850182613938565b5060208201516144146020850182613938565b5060408201516144276040850182614453565b50606082015161443a6060850182614453565b50608082015161444d6080850182614453565b50505050565b61445c81614c01565b82525050565b61446b81614c01565b82525050565b60006020820190506144866000830184613929565b92915050565b60006040820190506144a1600083018561390b565b6144ae6020830184614462565b9392505050565b600060208201905081810360008301526144cf8184613a02565b905092915050565b600060208201905081810360008301526144f18184613a60565b905092915050565b600060208201905081810360008301526145138184613abe565b905092915050565b60006020820190506145306000830184613b1c565b92915050565b600060208201905061454b6000830184613b2b565b92915050565b60006020820190506145666000830184613b3a565b92915050565b60006020820190506145816000830184613b49565b92915050565b600060208201905061459c6000830184613b58565b92915050565b60006020820190506145b76000830184613b67565b92915050565b600060208201905081810360008301526145d681613b76565b9050919050565b600060208201905081810360008301526145f681613bdc565b9050919050565b6000602082019050818103600083015261461681613c42565b9050919050565b6000602082019050818103600083015261463681613ca8565b9050919050565b6000602082019050818103600083015261465681613ce8565b9050919050565b6000602082019050818103600083015261467681613d4e565b9050919050565b6000602082019050818103600083015261469681613db4565b9050919050565b600060208201905081810360008301526146b681613e1a565b9050919050565b600060208201905081810360008301526146d681613e80565b9050919050565b600060208201905081810360008301526146f681613ee6565b9050919050565b6000602082019050818103600083015261471681613f4c565b9050919050565b6000602082019050818103600083015261473681613fb2565b9050919050565b6000602082019050818103600083015261475681614018565b9050919050565b6000602082019050818103600083015261477681614058565b9050919050565b60006020820190508181036000830152614796816140be565b9050919050565b600060208201905081810360008301526147b6816140fe565b9050919050565b600060208201905081810360008301526147d681614164565b9050919050565b600060208201905081810360008301526147f6816141ca565b9050919050565b600060208201905081810360008301526148168161420a565b9050919050565b6000602082019050818103600083015261483681614270565b9050919050565b60006020820190508181036000830152614856816142b0565b9050919050565b6000602082019050818103600083015261487681614316565b9050919050565b600060208201905081810360008301526148968161437c565b9050919050565b60006020820190506148b26000830184614462565b92915050565b60006040820190506148cd6000830186614462565b81810360208301526148e0818486613947565b9050949350505050565b60006040820190506148ff6000830185614462565b818103602083015261491181846139a4565b90509392505050565b600060808201905061492f6000830187614462565b818103602083015261494181866139a4565b9050614950604083018561390b565b61495d6060830184614462565b95945050505050565b600060a08201905061497b6000830189614462565b6149886020830188614462565b818103604083015261499b818688613947565b90506149aa606083018561390b565b6149b76080830184614462565b979650505050505050565b600060a0820190506149d76000830188614462565b6149e46020830187614462565b81810360408301526149f681866139a4565b9050614a05606083018561390b565b614a126080830184614462565b9695505050505050565b6000604051905081810181811067ffffffffffffffff82111715614a3f57600080fd5b8060405250919050565b600067ffffffffffffffff821115614a6057600080fd5b602082029050602081019050919050565b6000819050919050565b6000819050602082019050919050565b6000819050602082019050919050565b6000819050602082019050919050565b6000819050602082019050919050565b600081519050919050565b600081519050919050565b600081519050919050565b600081519050919050565b6000602082019050919050565b6000602082019050919050565b6000602082019050919050565b6000602082019050919050565b6000602082019050919050565b600082825260208201905092915050565b600082825260208201905092915050565b600082825260208201905092915050565b600082825260208201905092915050565b600082825260208201905092915050565b6000614b8c60208401846135ab565b905092915050565b6000614b9f82614be1565b9050919050565b6000614bb182614be1565b9050919050565b60008115159050919050565b6000819050614bd282614cbf565b919050565b6000819050919050565b600073ffffffffffffffffffffffffffffffffffffffff82169050919050565b6000819050919050565b6000614c1682614c9b565b9050919050565b6000614c2882614c2f565b9050919050565b6000614c3a82614be1565b9050919050565b6000614c4c82614c53565b9050919050565b6000614c5e82614be1565b9050919050565b6000614c7082614c77565b9050919050565b6000614c8282614be1565b9050919050565b6000614c9482614bc4565b9050919050565b6000614ca682614cad565b9050919050565b6000614cb882614be1565b9050919050565b60048110614cc957fe5b50565b614cd581614b94565b8114614ce057600080fd5b50565b614cec81614ba6565b8114614cf757600080fd5b50565b614d0381614bb8565b8114614d0e57600080fd5b50565b614d1a81614bd7565b8114614d2557600080fd5b50565b614d3181614c01565b8114614d3c57600080fd5b5056fea2646970667358221220fd8ec0c1413e57f07e29a2efe5e33e83a2b17bf14d6b05c93bb6686e7a608d0364736f6c63430006060033a2646970667358221220d7c210c41d21ce06ae8253045df67420926b196a026ee1e086bae33efc1b897364736f6c63430006060033",
  "linkReferences": {},
  "deployedLinkReferences": {}
}