{
  "_format": "hh-sol-artifact-1",
  "contractName": "FundFactory",
  "sourceName": "contracts/FundFactory.sol",
  "abi": [
    {
      "inputs": [
        {
          "internalType": "address payable",
          "name": "_swapRouterContract",
          "type": "address"
        },
        {
          "internalType": "address payable",
          "name": "_eFundToken",
          "type": "address"
        },
        {
          "internalType": "address payable",
          "name": "_fundOwner",
          "type": "address"
        },
        {
          "internalType": "address payable",
          "name": "_eFundPlatform",
          "type": "address"
        },
        {
          "internalType": "uint256",
          "name": "_fundDuration",
          "type": "uint256"
        },
        {
          "internalType": "uint256",
          "name": "_softCap",
          "type": "uint256"
        },
        {
          "internalType": "uint256",
          "name": "_hardCap",
          "type": "uint256"
        },
        {
          "internalType": "address payable[]",
          "name": "allowedTokens",
          "type": "address[]"
        }
      ],
      "name": "createFund",
      "outputs": [
        {
          "internalType": "address",
          "name": "",
          "type": "address"
        }
      ],
      "stateMutability": "payable",
      "type": "function"
    }
  ],
  "bytecode": "0x608060405234801561001057600080fd5b506157c9806100206000396000f3fe60806040526004361061001e5760003560e01c80633130b0e214610023575b600080fd5b610139600480360361010081101561003a57600080fd5b81019080803573ffffffffffffffffffffffffffffffffffffffff169060200190929190803573ffffffffffffffffffffffffffffffffffffffff169060200190929190803573ffffffffffffffffffffffffffffffffffffffff169060200190929190803573ffffffffffffffffffffffffffffffffffffffff169060200190929190803590602001909291908035906020019092919080359060200190929190803590602001906401000000008111156100f557600080fd5b82018360208201111561010757600080fd5b8035906020019184602083028401116401000000008311171561012957600080fd5b909192939192939050505061017b565b604051808273ffffffffffffffffffffffffffffffffffffffff1673ffffffffffffffffffffffffffffffffffffffff16815260200191505060405180910390f35b60008484116101d5576040517f08c379a000000000000000000000000000000000000000000000000000000000815260040180806020018281038252602581526020018061576f6025913960400191505060405180910390fd5b8434101580156101e55750833411155b61023a576040517f08c379a000000000000000000000000000000000000000000000000000000000815260040180806020018281038252604381526020018061572c6043913960600191505060405180910390fd5b60008a8a8988888d8c8a8a60405161025190610489565b808a73ffffffffffffffffffffffffffffffffffffffff1673ffffffffffffffffffffffffffffffffffffffff1681526020018973ffffffffffffffffffffffffffffffffffffffff1673ffffffffffffffffffffffffffffffffffffffff1681526020018873ffffffffffffffffffffffffffffffffffffffff1673ffffffffffffffffffffffffffffffffffffffff1681526020018781526020018681526020018573ffffffffffffffffffffffffffffffffffffffff1673ffffffffffffffffffffffffffffffffffffffff168152602001848152602001806020018281038252848482818152602001925060200280828437600081840152601f19601f8201169050808301925050509a5050505050505050505050604051809103906000f080158015610386573d6000803e3d6000fd5b50905061039381346103a5565b50809150509998505050505050505050565b6000808373ffffffffffffffffffffffffffffffffffffffff168360405180600001905060006040518083038185875af1925050503d8060008114610406576040519150601f19603f3d011682016040523d82523d6000602084013e61040b565b606091505b5050905080610482576040517f08c379a00000000000000000000000000000000000000000000000000000000081526004018080602001828103825260208152602001807f636f756c64206e6f742073656e6420657468657220746f207468652066756e6481525060200191505060405180910390fd5b5092915050565b615295806104978339019056fe6101606040523480156200001257600080fd5b50604051620052953803806200529583398181016040526101008110156200003957600080fd5b810190808051906020019092919080519060200190929190805190602001909291908051906020019092919080519060200190929190805190602001909291908051906020019092919080516040519392919084640100000000821115620000a057600080fd5b83820191506020820185811115620000b757600080fd5b8251866020820283011164010000000082111715620000d557600080fd5b8083526020830192505050908051906020019060200280838360005b838110156200010e578082015181840152602081019050620000f1565b505050509050016040525050506200012c826200038560201b60201c565b6200019f576040517f08c379a00000000000000000000000000000000000000000000000000000000081526004018080602001828103825260108152602001807f496e76616c6964206475726174696f6e0000000000000000000000000000000081525060200191505060405180910390fd5b8773ffffffffffffffffffffffffffffffffffffffff166101408173ffffffffffffffffffffffffffffffffffffffff1660601b815250508673ffffffffffffffffffffffffffffffffffffffff1660808173ffffffffffffffffffffffffffffffffffffffff1660601b815250508573ffffffffffffffffffffffffffffffffffffffff1660a08173ffffffffffffffffffffffffffffffffffffffff1660601b815250508273ffffffffffffffffffffffffffffffffffffffff166101008173ffffffffffffffffffffffffffffffffffffffff1660601b815250506000600160006101000a81548160ff021916908360038111156200029d57fe5b02179055508161012081815250508460c081815250508360e081815250508060079080519060200190620002d392919062000391565b506000600a60006101000a81548160ff02191690831515021790555060005b815181101562000376576001600960008484815181106200030f57fe5b602002602001015173ffffffffffffffffffffffffffffffffffffffff1673ffffffffffffffffffffffffffffffffffffffff16815260200190815260200160002060006101000a81548160ff0219169083151502179055508080600101915050620002f2565b50505050505050505062000466565b60008082119050919050565b8280548282559060005260206000209081019282156200040d579160200282015b828111156200040c5782518260006101000a81548173ffffffffffffffffffffffffffffffffffffffff021916908373ffffffffffffffffffffffffffffffffffffffff16021790555091602001919060010190620003b2565b5b5090506200041c919062000420565b5090565b6200046391905b808211156200045f57600081816101000a81549073ffffffffffffffffffffffffffffffffffffffff02191690555060010162000427565b5090565b90565b60805160601c60a05160601c60c05160e0516101005160601c610120516101405160601c614d3e62000557600039806117c852806118725280611a8c5280611b55528061210852806121b352806123b35280612bd75280612de45280612ead52806136c452806138b2528061397b52806141dd52806145275250806115785280613266525080610bfd5280610e5452806116465280611f5552806127bc528061286652806135015280613f7852806144015250806113c4528061456b52508061134b528061328a525080610cfb52806115a25280613f3c5280614034528061439a5250806127985250614d3e6000f3fe6080604052600436106102135760003560e01c8063906a26e011610118578063cae5f11e116100a0578063e6c6a8901161006f578063e6c6a890146109ec578063f887ea4014610a67578063f9eaee0d14610abe578063fb86a40414610b27578063fe1781c814610b525761021a565b8063cae5f11e1461091a578063d10d51a214610971578063e39e45e21461099c578063e4206f10146109d55761021a565b8063adc59278116100e7578063adc5927814610786578063ae86d6fc146107ef578063afb8b63a14610806578063b02c43d01461081d578063c4c23bdc1461089f5761021a565b8063906a26e0146106ee5780639cd1b24114610719578063a1956e3214610730578063a63d78b11461075b5761021a565b806349c860291161019b578063611b53221161016a578063611b53221461053c5780636209ec2d14610593578063638a4b17146105ea5780637f18c7f61461061557806382b04edf146106c35761021a565b806349c86029146103af5780634d820b9a1461042857806359c57bed146104575780636032c7e3146104c35761021a565b806338bde791116101e257806338bde791146102e15780633ccfd60b1461030c57806340732c8914610323578063439f5ac21461032d57806347f5b232146103585761021a565b806307ea63031461021c578063084b5626146102335780630b77b3b51461025e578063155d2830146102755761021a565b3661021a57005b005b34801561022857600080fd5b50610231610b7d565b005b34801561023f57600080fd5b50610248610dcc565b6040518082815260200191505060405180910390f35b34801561026a57600080fd5b50610273610dd4565b005b34801561028157600080fd5b5061028a611030565b6040518080602001828103825283818151815260200191508051906020019060200280838360005b838110156102cd5780820151818401526020810190506102b2565b505050509050019250505060405180910390f35b3480156102ed57600080fd5b506102f66110be565b6040518082815260200191505060405180910390f35b34801561031857600080fd5b506103216110c4565b005b61032b6112cb565b005b34801561033957600080fd5b50610342611574565b6040518082815260200191505060405180910390f35b34801561036457600080fd5b5061036d6115a0565b604051808273ffffffffffffffffffffffffffffffffffffffff1673ffffffffffffffffffffffffffffffffffffffff16815260200191505060405180910390f35b3480156103bb57600080fd5b50610412600480360360608110156103d257600080fd5b81019080803573ffffffffffffffffffffffffffffffffffffffff16906020019092919080359060200190929190803590602001909291905050506115c4565b6040518082815260200191505060405180910390f35b34801561043457600080fd5b5061043d611e32565b604051808215151515815260200191505060405180910390f35b34801561046357600080fd5b5061046c611e45565b6040518080602001828103825283818151815260200191508051906020019060200280838360005b838110156104af578082015181840152602081019050610494565b505050509050019250505060405180910390f35b3480156104cf57600080fd5b50610526600480360360608110156104e657600080fd5b81019080803573ffffffffffffffffffffffffffffffffffffffff1690602001909291908035906020019092919080359060200190929190505050611ed3565b6040518082815260200191505060405180910390f35b34801561054857600080fd5b50610551612796565b604051808273ffffffffffffffffffffffffffffffffffffffff1673ffffffffffffffffffffffffffffffffffffffff16815260200191505060405180910390f35b34801561059f57600080fd5b506105a86127ba565b604051808273ffffffffffffffffffffffffffffffffffffffff1673ffffffffffffffffffffffffffffffffffffffff16815260200191505060405180910390f35b3480156105f657600080fd5b506105ff6127de565b6040518082815260200191505060405180910390f35b34801561062157600080fd5b506106ad6004803603606081101561063857600080fd5b810190808035906020019064010000000081111561065557600080fd5b82018360208201111561066757600080fd5b8035906020019184602083028401116401000000008311171561068957600080fd5b909192939192939080359060200190929190803590602001909291905050506127e4565b6040518082815260200191505060405180910390f35b3480156106cf57600080fd5b506106d8613264565b6040518082815260200191505060405180910390f35b3480156106fa57600080fd5b50610703613288565b6040518082815260200191505060405180910390f35b34801561072557600080fd5b5061072e6132ac565b005b34801561073c57600080fd5b506107456134d4565b6040518082815260200191505060405180910390f35b34801561076757600080fd5b506107706134da565b6040518082815260200191505060405180910390f35b34801561079257600080fd5b506107d5600480360360208110156107a957600080fd5b81019080803573ffffffffffffffffffffffffffffffffffffffff1690602001909291905050506134df565b604051808215151515815260200191505060405180910390f35b3480156107fb57600080fd5b506108046134ff565b005b34801561081257600080fd5b5061081b613d14565b005b34801561082957600080fd5b506108566004803603602081101561084057600080fd5b810190808035906020019092919050505061414c565b604051808373ffffffffffffffffffffffffffffffffffffffff1673ffffffffffffffffffffffffffffffffffffffff1681526020018281526020019250505060405180910390f35b3480156108ab57600080fd5b506108d8600480360360208110156108c257600080fd5b810190808035906020019092919050505061419d565b604051808273ffffffffffffffffffffffffffffffffffffffff1673ffffffffffffffffffffffffffffffffffffffff16815260200191505060405180910390f35b34801561092657600080fd5b5061092f6141d9565b604051808273ffffffffffffffffffffffffffffffffffffffff1673ffffffffffffffffffffffffffffffffffffffff16815260200191505060405180910390f35b34801561097d57600080fd5b50610986614281565b6040518082815260200191505060405180910390f35b3480156109a857600080fd5b506109b1614286565b604051808260038111156109c157fe5b60ff16815260200191505060405180910390f35b3480156109e157600080fd5b506109ea614299565b005b3480156109f857600080fd5b50610a2560048036036020811015610a0f57600080fd5b81019080803590602001909291905050506144e9565b604051808273ffffffffffffffffffffffffffffffffffffffff1673ffffffffffffffffffffffffffffffffffffffff16815260200191505060405180910390f35b348015610a7357600080fd5b50610a7c614525565b604051808273ffffffffffffffffffffffffffffffffffffffff1673ffffffffffffffffffffffffffffffffffffffff16815260200191505060405180910390f35b348015610aca57600080fd5b50610b0d60048036036020811015610ae157600080fd5b81019080803573ffffffffffffffffffffffffffffffffffffffff169060200190929190505050614549565b604051808215151515815260200191505060405180910390f35b348015610b3357600080fd5b50610b3c614569565b6040518082815260200191505060405180910390f35b348015610b5e57600080fd5b50610b6761458d565b6040518082815260200191505060405180910390f35b60026003811115610b8a57fe5b600160009054906101000a900460ff166003811115610ba557fe5b14610bfb576040517f08c379a0000000000000000000000000000000000000000000000000000000008152600401808060200182810382526025815260200180614abb6025913960400191505060405180910390fd5b7f000000000000000000000000000000000000000000000000000000000000000073ffffffffffffffffffffffffffffffffffffffff163373ffffffffffffffffffffffffffffffffffffffff161480610c8057503073ffffffffffffffffffffffffffffffffffffffff163373ffffffffffffffffffffffffffffffffffffffff16145b610cd5576040517f08c379a0000000000000000000000000000000000000000000000000000000008152600401808060200182810382526027815260200180614b386027913960400191505060405180910390fd5b6003600160006101000a81548160ff02191690836003811115610cf457fe5b02179055507f000000000000000000000000000000000000000000000000000000000000000073ffffffffffffffffffffffffffffffffffffffff1663e3a1c6fe6040518163ffffffff1660e01b8152600401600060405180830381600087803b158015610d6157600080fd5b505af1158015610d75573d6000803e3d6000fd5b505050507fbc141a1c0c073ed34f6fa9cdc66bb9473f488bccda93d1e43bb9a15c4391a92f600160009054906101000a900460ff166003811115610db557fe5b6040518082815260200191505060405180910390a1565b600047905090565b60006003811115610de157fe5b600160009054906101000a900460ff166003811115610dfc57fe5b14610e52576040517f08c379a0000000000000000000000000000000000000000000000000000000008152600401808060200182810382526022815260200180614bc36022913960400191505060405180910390fd5b7f000000000000000000000000000000000000000000000000000000000000000073ffffffffffffffffffffffffffffffffffffffff163373ffffffffffffffffffffffffffffffffffffffff161480610ed757503073ffffffffffffffffffffffffffffffffffffffff163373ffffffffffffffffffffffffffffffffffffffff16145b610f2c576040517f08c379a0000000000000000000000000000000000000000000000000000000008152600401808060200182810382526027815260200180614b386027913960400191505060405180910390fd5b60018060006101000a81548160ff02191690836003811115610f4a57fe5b02179055503073ffffffffffffffffffffffffffffffffffffffff1663084b56266040518163ffffffff1660e01b815260040160206040518083038186803b158015610f9557600080fd5b505afa158015610fa9573d6000803e3d6000fd5b505050506040513d6020811015610fbf57600080fd5b8101908080519060200190929190505050600381905550426002819055507fbc141a1c0c073ed34f6fa9cdc66bb9473f488bccda93d1e43bb9a15c4391a92f600160009054906101000a900460ff16600381111561101957fe5b6040518082815260200191505060405180910390a1565b606060078054806020026020016040519081016040528092919081815260200182805480156110b457602002820191906000526020600020905b8160009054906101000a900473ffffffffffffffffffffffffffffffffffffffff1673ffffffffffffffffffffffffffffffffffffffff168152602001906001019080831161106a575b5050505050905090565b60035481565b600260038111156110d157fe5b600160009054906101000a900460ff1660038111156110ec57fe5b148061111c57506003808111156110ff57fe5b600160009054906101000a900460ff16600381111561111a57fe5b145b61118e576040517f08c379a00000000000000000000000000000000000000000000000000000000081526004018080602001828103825260198152602001807f46756e64206973206e6f7420636f6d706c69746564207965740000000000000081525060200191505060405180910390fd5b600a60009054906101000a900460ff16156111f4576040517f08c379a0000000000000000000000000000000000000000000000000000000008152600401808060200182810382526023815260200180614b156023913960400191505060405180910390fd5b60005b600080549050811015611281576112276000828154811061121457fe5b9060005260206000209060020201614593565b6000818154811061123457fe5b9060005260206000209060020201600080820160006101000a81549073ffffffffffffffffffffffffffffffffffffffff02191690556001820160009055505080806001019150506111f7565b506001600a60006101000a81548160ff0219169083151502179055507f70ac3d3f37bb5712619702156bd9af57f16ac82695c742a80d49800cd046be7060405160405180910390a1565b600060038111156112d857fe5b600160009054906101000a900460ff1660038111156112f357fe5b14611349576040517f08c379a0000000000000000000000000000000000000000000000000000000008152600401808060200182810382526022815260200180614bc36022913960400191505060405180910390fd5b7f00000000000000000000000000000000000000000000000000000000000000003410156113c2576040517f08c379a0000000000000000000000000000000000000000000000000000000008152600401808060200182810382526034815260200180614cb46034913960400191505060405180910390fd5b7f0000000000000000000000000000000000000000000000000000000000000000343073ffffffffffffffffffffffffffffffffffffffff1663084b56266040518163ffffffff1660e01b815260040160206040518083038186803b15801561142a57600080fd5b505afa15801561143e573d6000803e3d6000fd5b505050506040513d602081101561145457600080fd5b81019080805190602001909291905050500111156114bd576040517f08c379a0000000000000000000000000000000000000000000000000000000008152600401808060200182810382526036815260200180614c576036913960400191505060405180910390fd5b6114c5614a8a565b60405180604001604052803373ffffffffffffffffffffffffffffffffffffffff168152602001348152509050600081908060018154018082558091505060019003906000526020600020906002020160009091909190915060008201518160000160006101000a81548173ffffffffffffffffffffffffffffffffffffffff021916908373ffffffffffffffffffffffffffffffffffffffff16021790555060208201518160010155505050565b60007f000000000000000000000000000000000000000000000000000000000000000060025401905090565b7f000000000000000000000000000000000000000000000000000000000000000081565b6000600160038111156115d357fe5b600160009054906101000a900460ff1660038111156115ee57fe5b14611644576040517f08c379a0000000000000000000000000000000000000000000000000000000008152600401808060200182810382526022815260200180614b806022913960400191505060405180910390fd5b7f000000000000000000000000000000000000000000000000000000000000000073ffffffffffffffffffffffffffffffffffffffff163373ffffffffffffffffffffffffffffffffffffffff1614806116c957503073ffffffffffffffffffffffffffffffffffffffff163373ffffffffffffffffffffffffffffffffffffffff16145b61171e576040517f08c379a0000000000000000000000000000000000000000000000000000000008152600401808060200182810382526027815260200180614b386027913960400191505060405180910390fd5b600860008573ffffffffffffffffffffffffffffffffffffffff1673ffffffffffffffffffffffffffffffffffffffff16815260200190815260200160002060009054906101000a900460ff166117c0576040517f08c379a0000000000000000000000000000000000000000000000000000000008152600401808060200182810382526021815260200180614b5f6021913960400191505060405180910390fd5b606061186c857f000000000000000000000000000000000000000000000000000000000000000073ffffffffffffffffffffffffffffffffffffffff1663ad5c46486040518163ffffffff1660e01b815260040160206040518083038186803b15801561182c57600080fd5b505afa158015611840573d6000803e3d6000fd5b505050506040513d602081101561185657600080fd5b81019080805190602001909291905050506146af565b905060007f000000000000000000000000000000000000000000000000000000000000000073ffffffffffffffffffffffffffffffffffffffff1663d06ca61f86846040518363ffffffff1660e01b81526004018083815260200180602001828103825283818151815260200191508051906020019060200280838360005b838110156119065780820151818401526020810190506118eb565b50505050905001935050505060006040518083038186803b15801561192a57600080fd5b505afa15801561193e573d6000803e3d6000fd5b505050506040513d6000823e3d601f19601f82011682018060405250602081101561196857600080fd5b810190808051604051939291908464010000000082111561198857600080fd5b8382019150602082018581111561199e57600080fd5b82518660208202830111640100000000821117156119bb57600080fd5b8083526020830192505050908051906020019060200280838360005b838110156119f25780820151818401526020810190506119d7565b50505050905001604052505050600181518110611a0b57fe5b6020026020010151905083811015611a6e576040517f08c379a000000000000000000000000000000000000000000000000000000000815260040180806020018281038252602a815260200180614be5602a913960400191505060405180910390fd5b8573ffffffffffffffffffffffffffffffffffffffff1663095ea7b37f0000000000000000000000000000000000000000000000000000000000000000876040518363ffffffff1660e01b8152600401808373ffffffffffffffffffffffffffffffffffffffff1673ffffffffffffffffffffffffffffffffffffffff16815260200182815260200192505050602060405180830381600087803b158015611b1557600080fd5b505af1158015611b29573d6000803e3d6000fd5b505050506040513d6020811015611b3f57600080fd5b81019080805190602001909291905050505060607f000000000000000000000000000000000000000000000000000000000000000073ffffffffffffffffffffffffffffffffffffffff166318cbafe58784863061070842016040518663ffffffff1660e01b815260040180868152602001858152602001806020018473ffffffffffffffffffffffffffffffffffffffff1673ffffffffffffffffffffffffffffffffffffffff168152602001838152602001828103825285818151815260200191508051906020019060200280838360005b83811015611c2e578082015181840152602081019050611c13565b505050509050019650505050505050600060405180830381600087803b158015611c5757600080fd5b505af1158015611c6b573d6000803e3d6000fd5b505050506040513d6000823e3d601f19601f820116820180604052506020811015611c9557600080fd5b8101908080516040519392919084640100000000821115611cb557600080fd5b83820191506020820185811115611ccb57600080fd5b8251866020820283011164010000000082111715611ce857600080fd5b8083526020830192505050908051906020019060200280838360005b83811015611d1f578082015181840152602081019050611d04565b5050505090500160405250505090507f6e31608d2e2f6546c30f3320a34d3826089ef057b2f52e93c107ca9d360f6dd483600081518110611d5c57fe5b602002602001015184600181518110611d7157fe5b60200260200101518884600181518110611d8757fe5b6020026020010151604051808573ffffffffffffffffffffffffffffffffffffffff1673ffffffffffffffffffffffffffffffffffffffff1681526020018473ffffffffffffffffffffffffffffffffffffffff1673ffffffffffffffffffffffffffffffffffffffff16815260200183815260200182815260200194505050505060405180910390a180600181518110611e1e57fe5b602002602001015193505050509392505050565b600a60009054906101000a900460ff1681565b60606006805480602002602001604051908101604052809291908181526020018280548015611ec957602002820191906000526020600020905b8160009054906101000a900473ffffffffffffffffffffffffffffffffffffffff1673ffffffffffffffffffffffffffffffffffffffff1681526020019060010190808311611e7f575b5050505050905090565b600060016003811115611ee257fe5b600160009054906101000a900460ff166003811115611efd57fe5b14611f53576040517f08c379a0000000000000000000000000000000000000000000000000000000008152600401808060200182810382526022815260200180614b806022913960400191505060405180910390fd5b7f000000000000000000000000000000000000000000000000000000000000000073ffffffffffffffffffffffffffffffffffffffff163373ffffffffffffffffffffffffffffffffffffffff161480611fd857503073ffffffffffffffffffffffffffffffffffffffff163373ffffffffffffffffffffffffffffffffffffffff16145b61202d576040517f08c379a0000000000000000000000000000000000000000000000000000000008152600401808060200182810382526027815260200180614b386027913960400191505060405180910390fd5b60006007805490501461208c57600960008573ffffffffffffffffffffffffffffffffffffffff1673ffffffffffffffffffffffffffffffffffffffff16815260200190815260200160002060009054906101000a900460ff1661208f565b60015b612101576040517f08c379a000000000000000000000000000000000000000000000000000000000815260040180806020018281038252601f8152602001807f54726164696e672077697468206e6f7420616c6c6f77656420746f6b656e730081525060200191505060405180910390fd5b60606121ad7f000000000000000000000000000000000000000000000000000000000000000073ffffffffffffffffffffffffffffffffffffffff1663ad5c46486040518163ffffffff1660e01b815260040160206040518083038186803b15801561216c57600080fd5b505afa158015612180573d6000803e3d6000fd5b505050506040513d602081101561219657600080fd5b8101908080519060200190929190505050866146af565b905060007f000000000000000000000000000000000000000000000000000000000000000073ffffffffffffffffffffffffffffffffffffffff1663d06ca61f86846040518363ffffffff1660e01b81526004018083815260200180602001828103825283818151815260200191508051906020019060200280838360005b8381101561224757808201518184015260208101905061222c565b50505050905001935050505060006040518083038186803b15801561226b57600080fd5b505afa15801561227f573d6000803e3d6000fd5b505050506040513d6000823e3d601f19601f8201168201806040525060208110156122a957600080fd5b81019080805160405193929190846401000000008211156122c957600080fd5b838201915060208201858111156122df57600080fd5b82518660208202830111640100000000821117156122fc57600080fd5b8083526020830192505050908051906020019060200280838360005b83811015612333578082015181840152602081019050612318565b5050505090500160405250505060018151811061234c57fe5b60200260200101519050838110156123af576040517f08c379a000000000000000000000000000000000000000000000000000000000815260040180806020018281038252602a815260200180614be5602a913960400191505060405180910390fd5b60607f000000000000000000000000000000000000000000000000000000000000000073ffffffffffffffffffffffffffffffffffffffff1663fb3bdb418784863061070842016040518663ffffffff1660e01b815260040180858152602001806020018473ffffffffffffffffffffffffffffffffffffffff1673ffffffffffffffffffffffffffffffffffffffff168152602001838152602001828103825285818151815260200191508051906020019060200280838360005b8381101561248657808201518184015260208101905061246b565b50505050905001955050505050506000604051808303818588803b1580156124ad57600080fd5b505af11580156124c1573d6000803e3d6000fd5b50505050506040513d6000823e3d601f19601f8201168201806040525060208110156124ec57600080fd5b810190808051604051939291908464010000000082111561250c57600080fd5b8382019150602082018581111561252257600080fd5b825186602082028301116401000000008211171561253f57600080fd5b8083526020830192505050908051906020019060200280838360005b8381101561257657808201518184015260208101905061255b565b505050509050016040525050509050600860008873ffffffffffffffffffffffffffffffffffffffff1673ffffffffffffffffffffffffffffffffffffffff16815260200190815260200160002060009054906101000a900460ff16612692576006879080600181540180825580915050600190039060005260206000200160009091909190916101000a81548173ffffffffffffffffffffffffffffffffffffffff021916908373ffffffffffffffffffffffffffffffffffffffff1602179055506001600860008973ffffffffffffffffffffffffffffffffffffffff1673ffffffffffffffffffffffffffffffffffffffff16815260200190815260200160002060006101000a81548160ff0219169083151502179055505b7f6e31608d2e2f6546c30f3320a34d3826089ef057b2f52e93c107ca9d360f6dd4836000815181106126c057fe5b6020026020010151846001815181106126d557fe5b602002602001015188846001815181106126eb57fe5b6020026020010151604051808573ffffffffffffffffffffffffffffffffffffffff1673ffffffffffffffffffffffffffffffffffffffff1681526020018473ffffffffffffffffffffffffffffffffffffffff1673ffffffffffffffffffffffffffffffffffffffff16815260200183815260200182815260200194505050505060405180910390a18060018151811061278257fe5b602002602001015193505050509392505050565b7f000000000000000000000000000000000000000000000000000000000000000081565b7f000000000000000000000000000000000000000000000000000000000000000081565b60025481565b6000600160038111156127f357fe5b600160009054906101000a900460ff16600381111561280e57fe5b14612864576040517f08c379a0000000000000000000000000000000000000000000000000000000008152600401808060200182810382526022815260200180614b806022913960400191505060405180910390fd5b7f000000000000000000000000000000000000000000000000000000000000000073ffffffffffffffffffffffffffffffffffffffff163373ffffffffffffffffffffffffffffffffffffffff1614806128e957503073ffffffffffffffffffffffffffffffffffffffff163373ffffffffffffffffffffffffffffffffffffffff16145b61293e576040517f08c379a0000000000000000000000000000000000000000000000000000000008152600401808060200182810382526027815260200180614b386027913960400191505060405180910390fd5b60028585905010156129b8576040517f08c379a00000000000000000000000000000000000000000000000000000000081526004018080602001828103825260118152602001807f50617468206d757374206265203e3d203200000000000000000000000000000081525060200191505060405180910390fd5b6000858560008181106129c757fe5b9050602002013573ffffffffffffffffffffffffffffffffffffffff16905060008686600189899050038181106129fa57fe5b9050602002013573ffffffffffffffffffffffffffffffffffffffff16905060005b87879050811015612bd257600060078054905014612aae5760096000898984818110612a4457fe5b9050602002013573ffffffffffffffffffffffffffffffffffffffff1673ffffffffffffffffffffffffffffffffffffffff1673ffffffffffffffffffffffffffffffffffffffff16815260200190815260200160002060009054906101000a900460ff16612ab1565b60015b612b23576040517f08c379a000000000000000000000000000000000000000000000000000000000815260040180806020018281038252601f8152602001807f54726164696e672077697468206e6f7420616c6c6f77656420746f6b656e730081525060200191505060405180910390fd5b600860008473ffffffffffffffffffffffffffffffffffffffff1673ffffffffffffffffffffffffffffffffffffffff16815260200190815260200160002060009054906101000a900460ff16612bc5576040517f08c379a0000000000000000000000000000000000000000000000000000000008152600401808060200182810382526021815260200180614ce86021913960400191505060405180910390fd5b8080600101915050612a1c565b5060007f000000000000000000000000000000000000000000000000000000000000000073ffffffffffffffffffffffffffffffffffffffff1663d06ca61f878a8a6040518463ffffffff1660e01b815260040180848152602001806020018281038252848482818152602001925060200280828437600081840152601f19601f82011690508083019250505094505050505060006040518083038186803b158015612c7d57600080fd5b505afa158015612c91573d6000803e3d6000fd5b505050506040513d6000823e3d601f19601f820116820180604052506020811015612cbb57600080fd5b8101908080516040519392919084640100000000821115612cdb57600080fd5b83820191506020820185811115612cf157600080fd5b8251866020820283011164010000000082111715612d0e57600080fd5b8083526020830192505050908051906020019060200280838360005b83811015612d45578082015181840152602081019050612d2a565b505050509050016040525050506001898990500381518110612d6357fe5b6020026020010151905084811015612dc6576040517f08c379a000000000000000000000000000000000000000000000000000000000815260040180806020018281038252602a815260200180614be5602a913960400191505060405180910390fd5b8273ffffffffffffffffffffffffffffffffffffffff1663095ea7b37f0000000000000000000000000000000000000000000000000000000000000000886040518363ffffffff1660e01b8152600401808373ffffffffffffffffffffffffffffffffffffffff1673ffffffffffffffffffffffffffffffffffffffff16815260200182815260200192505050602060405180830381600087803b158015612e6d57600080fd5b505af1158015612e81573d6000803e3d6000fd5b505050506040513d6020811015612e9757600080fd5b81019080805190602001909291905050505060607f000000000000000000000000000000000000000000000000000000000000000073ffffffffffffffffffffffffffffffffffffffff166338ed173988848c8c3061070842016040518763ffffffff1660e01b815260040180878152602001868152602001806020018473ffffffffffffffffffffffffffffffffffffffff1673ffffffffffffffffffffffffffffffffffffffff1681526020018381526020018281038252868682818152602001925060200280828437600081840152601f19601f820116905080830192505050975050505050505050600060405180830381600087803b158015612f9d57600080fd5b505af1158015612fb1573d6000803e3d6000fd5b505050506040513d6000823e3d601f19601f820116820180604052506020811015612fdb57600080fd5b8101908080516040519392919084640100000000821115612ffb57600080fd5b8382019150602082018581111561301157600080fd5b825186602082028301116401000000008211171561302e57600080fd5b8083526020830192505050908051906020019060200280838360005b8381101561306557808201518184015260208101905061304a565b505050509050016040525050509050600860008473ffffffffffffffffffffffffffffffffffffffff1673ffffffffffffffffffffffffffffffffffffffff16815260200190815260200160002060009054906101000a900460ff16613181576006839080600181540180825580915050600190039060005260206000200160009091909190916101000a81548173ffffffffffffffffffffffffffffffffffffffff021916908373ffffffffffffffffffffffffffffffffffffffff1602179055506001600860008573ffffffffffffffffffffffffffffffffffffffff1673ffffffffffffffffffffffffffffffffffffffff16815260200190815260200160002060006101000a81548160ff0219169083151502179055505b7f6e31608d2e2f6546c30f3320a34d3826089ef057b2f52e93c107ca9d360f6dd48484898460018e8e905003815181106131b757fe5b6020026020010151604051808573ffffffffffffffffffffffffffffffffffffffff1673ffffffffffffffffffffffffffffffffffffffff1681526020018473ffffffffffffffffffffffffffffffffffffffff1673ffffffffffffffffffffffffffffffffffffffff16815260200183815260200182815260200194505050505060405180910390a18060018151811061324e57fe5b6020026020010151945050505050949350505050565b7f000000000000000000000000000000000000000000000000000000000000000081565b7f000000000000000000000000000000000000000000000000000000000000000081565b600060038111156132b957fe5b600160009054906101000a900460ff1660038111156132d457fe5b1461332a576040517f08c379a0000000000000000000000000000000000000000000000000000000008152600401808060200182810382526022815260200180614bc36022913960400191505060405180910390fd5b600080905060008090505b60008054905081101561347a573373ffffffffffffffffffffffffffffffffffffffff166000828154811061336657fe5b906000526020600020906002020160000160009054906101000a900473ffffffffffffffffffffffffffffffffffffffff1673ffffffffffffffffffffffffffffffffffffffff16141561346d57600191506133db600082815481106133c857fe5b9060005260206000209060020201614593565b803373ffffffffffffffffffffffffffffffffffffffff167fe737dc9ea16794043839aa01f063bf3e6faa009fe354f0b6ae1d7ab6dc20ac3460405160405180910390a36000818154811061342c57fe5b9060005260206000209060020201600080820160006101000a81549073ffffffffffffffffffffffffffffffffffffffff0219169055600182016000905550505b8080600101915050613335565b50806134d1576040517f08c379a0000000000000000000000000000000000000000000000000000000008152600401808060200182810382526027815260200180614c8d6027913960400191505060405180910390fd5b50565b60045481565b605a81565b60086020528060005260406000206000915054906101000a900460ff1681565b7f000000000000000000000000000000000000000000000000000000000000000073ffffffffffffffffffffffffffffffffffffffff163373ffffffffffffffffffffffffffffffffffffffff16148061358457503073ffffffffffffffffffffffffffffffffffffffff163373ffffffffffffffffffffffffffffffffffffffff16145b6135d9576040517f08c379a0000000000000000000000000000000000000000000000000000000008152600401808060200182810382526027815260200180614b386027913960400191505060405180910390fd5b600060038111156135e657fe5b600160009054906101000a900460ff16600381111561360157fe5b1415613675576040517f08c379a00000000000000000000000000000000000000000000000000000000081526004018080602001828103825260168152602001807f46756e642073686f756c6420626520737461727465640000000000000000000081525060200191505060405180910390fd5b60005b600680549050811015613d115760606137686006838154811061369757fe5b9060005260206000200160009054906101000a900473ffffffffffffffffffffffffffffffffffffffff167f000000000000000000000000000000000000000000000000000000000000000073ffffffffffffffffffffffffffffffffffffffff1663ad5c46486040518163ffffffff1660e01b815260040160206040518083038186803b15801561372857600080fd5b505afa15801561373c573d6000803e3d6000fd5b505050506040513d602081101561375257600080fd5b81019080805190602001909291905050506146af565b905060006006838154811061377957fe5b9060005260206000200160009054906101000a900473ffffffffffffffffffffffffffffffffffffffff1673ffffffffffffffffffffffffffffffffffffffff166370a08231306040518263ffffffff1660e01b8152600401808273ffffffffffffffffffffffffffffffffffffffff1673ffffffffffffffffffffffffffffffffffffffff16815260200191505060206040518083038186803b15801561382057600080fd5b505afa158015613834573d6000803e3d6000fd5b505050506040513d602081101561384a57600080fd5b810190808051906020019092919050505090506006838154811061386a57fe5b9060005260206000200160009054906101000a900473ffffffffffffffffffffffffffffffffffffffff1673ffffffffffffffffffffffffffffffffffffffff1663095ea7b37f0000000000000000000000000000000000000000000000000000000000000000836040518363ffffffff1660e01b8152600401808373ffffffffffffffffffffffffffffffffffffffff1673ffffffffffffffffffffffffffffffffffffffff16815260200182815260200192505050602060405180830381600087803b15801561393b57600080fd5b505af115801561394f573d6000803e3d6000fd5b505050506040513d602081101561396557600080fd5b81019080805190602001909291905050505060607f000000000000000000000000000000000000000000000000000000000000000073ffffffffffffffffffffffffffffffffffffffff166318cbafe5836000863061070842016040518663ffffffff1660e01b815260040180868152602001858152602001806020018473ffffffffffffffffffffffffffffffffffffffff1673ffffffffffffffffffffffffffffffffffffffff168152602001838152602001828103825285818151815260200191508051906020019060200280838360005b83811015613a55578082015181840152602081019050613a3a565b505050509050019650505050505050600060405180830381600087803b158015613a7e57600080fd5b505af1158015613a92573d6000803e3d6000fd5b505050506040513d6000823e3d601f19601f820116820180604052506020811015613abc57600080fd5b8101908080516040519392919084640100000000821115613adc57600080fd5b83820191506020820185811115613af257600080fd5b8251866020820283011164010000000082111715613b0f57600080fd5b8083526020830192505050908051906020019060200280838360005b83811015613b46578082015181840152602081019050613b2b565b5050505090500160405250505090507f6e31608d2e2f6546c30f3320a34d3826089ef057b2f52e93c107ca9d360f6dd483600081518110613b8357fe5b602002602001015184600181518110613b9857fe5b60200260200101518484600181518110613bae57fe5b6020026020010151604051808573ffffffffffffffffffffffffffffffffffffffff1673ffffffffffffffffffffffffffffffffffffffff1681526020018473ffffffffffffffffffffffffffffffffffffffff1673ffffffffffffffffffffffffffffffffffffffff16815260200183815260200182815260200194505050505060405180910390a160006008600060068781548110613c4b57fe5b9060005260206000200160009054906101000a900473ffffffffffffffffffffffffffffffffffffffff1673ffffffffffffffffffffffffffffffffffffffff1673ffffffffffffffffffffffffffffffffffffffff16815260200190815260200160002060006101000a81548160ff02191690831515021790555060068481548110613cd457fe5b9060005260206000200160006101000a81549073ffffffffffffffffffffffffffffffffffffffff02191690555050508080600101915050613678565b50565b60016003811115613d2157fe5b600160009054906101000a900460ff166003811115613d3c57fe5b14613d92576040517f08c379a0000000000000000000000000000000000000000000000000000000008152600401808060200182810382526022815260200180614b806022913960400191505060405180910390fd5b3073ffffffffffffffffffffffffffffffffffffffff1663439f5ac26040518163ffffffff1660e01b815260040160206040518083038186803b158015613dd857600080fd5b505afa158015613dec573d6000803e3d6000fd5b505050506040513d6020811015613e0257600080fd5b81019080805190602001909291905050504211613e87576040517f08c379a00000000000000000000000000000000000000000000000000000000081526004018080602001828103825260198152602001807f46756e64206973206469646e60742066696e697368207965740000000000000081525060200191505060405180910390fd5b6002600160006101000a81548160ff02191690836003811115613ea657fe5b02179055503073ffffffffffffffffffffffffffffffffffffffff1663084b56266040518163ffffffff1660e01b815260040160206040518083038186803b158015613ef157600080fd5b505afa158015613f05573d6000803e3d6000fd5b505050506040513d6020811015613f1b57600080fd5b810190808051906020019092919050505060048190555060006140e06140d87f000000000000000000000000000000000000000000000000000000000000000073ffffffffffffffffffffffffffffffffffffffff1663ca8f4ae87f00000000000000000000000000000000000000000000000000000000000000006040518263ffffffff1660e01b8152600401808273ffffffffffffffffffffffffffffffffffffffff1673ffffffffffffffffffffffffffffffffffffffff16815260200191505060206040518083038186803b158015613ff757600080fd5b505afa15801561400b573d6000803e3d6000fd5b505050506040513d602081101561402157600080fd5b81019080805190602001909291905050507f000000000000000000000000000000000000000000000000000000000000000073ffffffffffffffffffffffffffffffffffffffff166322ab155e6040518163ffffffff1660e01b815260040160206040518083038186803b15801561409857600080fd5b505afa1580156140ac573d6000803e3d6000fd5b505050506040513d60208110156140c257600080fd5b8101908080519060200190929190505050614796565b6004546147c8565b9050600354816004540311156140f857806005819055505b7fbc141a1c0c073ed34f6fa9cdc66bb9473f488bccda93d1e43bb9a15c4391a92f600160009054906101000a900460ff16600381111561413457fe5b6040518082815260200191505060405180910390a150565b6000818154811061415957fe5b90600052602060002090600202016000915090508060000160009054906101000a900473ffffffffffffffffffffffffffffffffffffffff16908060010154905082565b600781815481106141aa57fe5b906000526020600020016000915054906101000a900473ffffffffffffffffffffffffffffffffffffffff1681565b60007f000000000000000000000000000000000000000000000000000000000000000073ffffffffffffffffffffffffffffffffffffffff1663ad5c46486040518163ffffffff1660e01b815260040160206040518083038186803b15801561424157600080fd5b505afa158015614255573d6000803e3d6000fd5b505050506040513d602081101561426b57600080fd5b8101908080519060200190929190505050905090565b600381565b600160009054906101000a900460ff1681565b600a60009054906101000a900460ff166142fe576040517f08c379a0000000000000000000000000000000000000000000000000000000008152600401808060200182810382526035815260200180614ae06035913960400191505060405180910390fd5b60004711614357576040517f08c379a0000000000000000000000000000000000000000000000000000000008152600401808060200182810382526021815260200180614ba26021913960400191505060405180910390fd5b6000600454600354106143805761437961437360036064614796565b476147c8565b9050614398565b61439561438f605a6064614796565b476147c8565b90505b7f000000000000000000000000000000000000000000000000000000000000000073ffffffffffffffffffffffffffffffffffffffff166108fc829081150290604051600060405180830381858888f193505050501580156143fe573d6000803e3d6000fd5b507f000000000000000000000000000000000000000000000000000000000000000073ffffffffffffffffffffffffffffffffffffffff166108fc3073ffffffffffffffffffffffffffffffffffffffff1663084b56266040518163ffffffff1660e01b815260040160206040518083038186803b15801561447f57600080fd5b505afa158015614493573d6000803e3d6000fd5b505050506040513d60208110156144a957600080fd5b81019080805190602001909291905050509081150290604051600060405180830381858888f193505050501580156144e5573d6000803e3d6000fd5b5050565b600681815481106144f657fe5b906000526020600020016000915054906101000a900473ffffffffffffffffffffffffffffffffffffffff1681565b7f000000000000000000000000000000000000000000000000000000000000000081565b60096020528060005260406000206000915054906101000a900460ff1681565b7f000000000000000000000000000000000000000000000000000000000000000081565b60055481565b60006003541415614612578060000160009054906101000a900473ffffffffffffffffffffffffffffffffffffffff1673ffffffffffffffffffffffffffffffffffffffff166108fc82600101549081150290604051600060405180830381858888f1935050505015801561460c573d6000803e3d6000fd5b506146ac565b600061462482600101546003546147fa565b90508160000160009054906101000a900473ffffffffffffffffffffffffffffffffffffffff1673ffffffffffffffffffffffffffffffffffffffff166108fc6146788360055460035460045403036147c8565b8460010154019081150290604051600060405180830381858888f193505050501580156146a9573d6000803e3d6000fd5b50505b50565b606080600267ffffffffffffffff811180156146ca57600080fd5b506040519080825280602002602001820160405280156146f95781602001602082028036833780820191505090505b509050838160008151811061470a57fe5b602002602001019073ffffffffffffffffffffffffffffffffffffffff16908173ffffffffffffffffffffffffffffffffffffffff1681525050828160018151811061475257fe5b602002602001019073ffffffffffffffffffffffffffffffffffffffff16908173ffffffffffffffffffffffffffffffffffffffff16815250508091505092915050565b60006147c0826147b2620186a08661482c90919063ffffffff16565b61495690919063ffffffff16565b905092915050565b60006147f2620186a06147e4858561482c90919063ffffffff16565b61495690919063ffffffff16565b905092915050565b600061482482614816620186a08661482c90919063ffffffff16565b61495690919063ffffffff16565b905092915050565b60008083141561483f5760009050614950565b7fffffffffffffffffffffffffffffffffffffffffffffffffffffffffffffffff8314801561488d57507f800000000000000000000000000000000000000000000000000000000000000082145b156148e3576040517f08c379a0000000000000000000000000000000000000000000000000000000008152600401808060200182810382526027815260200180614c306027913960400191505060405180910390fd5b60008284029050828482816148f457fe5b051461494b576040517f08c379a0000000000000000000000000000000000000000000000000000000008152600401808060200182810382526027815260200180614c306027913960400191505060405180910390fd5b809150505b92915050565b6000808214156149ce576040517f08c379a00000000000000000000000000000000000000000000000000000000081526004018080602001828103825260208152602001807f5369676e6564536166654d6174683a206469766973696f6e206279207a65726f81525060200191505060405180910390fd5b7fffffffffffffffffffffffffffffffffffffffffffffffffffffffffffffffff82148015614a1c57507f800000000000000000000000000000000000000000000000000000000000000083145b15614a72576040517f08c379a0000000000000000000000000000000000000000000000000000000008152600401808060200182810382526021815260200180614c0f6021913960400191505060405180910390fd5b6000828481614a7d57fe5b0590508091505092915050565b6040518060400160405280600073ffffffffffffffffffffffffffffffffffffffff16815260200160008152509056fe46756e642073686f756c6420626520696e20616e20436f6d706c697465642073746174757343616e207769746864726177206f6e6c7920616674657220616c6c206465706f736974737420776572652077697468647261776564416c6c206465706f736974732061726520616c72656164792077697468647261776564596f752068617665206e6f74207065726d697373696f6e7320746f207468697320616374696f6e596f75206e65656420746f206f776e207b746f6b656e46726f6d7d20666972737446756e642073686f756c6420626520696e20616e204163746976652073746174757342616c616e636520697320302c206e6f7468696e6720746f20776974686472617746756e642073686f756c6420626520696e20616e204f70656e6564207374617475734f757470757420616d6f756e74206973206c6f776572207468656e207b616d6f756e744f75744d696e7d5369676e6564536166654d6174683a206469766973696f6e206f766572666c6f775369676e6564536166654d6174683a206d756c7469706c69636174696f6e206f766572666c6f774d61782063617020696e2031303020455448206973206f766572666c6f7765642e2054727920746f2073656e64206c65737320574549596f752068617665206e6f7420616e79206465706f7369747320696e2068656467652066756e645472616e73616374696f6e2076616c7565206973206c657373207468656e206d696e696d756d206465706f73697420616d6f7574596f75206d75737420746f206f776e207b746f6b656e46726f6d7d206669727374a2646970667358221220878109150ce548a68473569a24de386cb3e8b189e3449418db50e7ec664b631864736f6c63430006060033546f206372656174652066756e6420796f75206e65656420746f2073656e64206d696e696d756d20302e312045544820616e64206d6178696d756d20313030204554484861726420636170206d75737420626520626967676572207468616e20736f667420636170a264697066735822122082109ea612fd361abcb3836ad8ed388316232ac30c90a8a40fd412408bf0530964736f6c63430006060033",
  "linkReferences": {},
  "deployedLinkReferences": {}
}