{
  "_format": "hh-sol-artifact-1",
  "contractName": "MathPercentage",
  "sourceName": "contracts/Libraries/MathPercentage.sol",
  "abi": [
    {
      "inputs": [],
      "name": "percentageBase",
      "outputs": [
        {
          "internalType": "int256",
          "name": "",
          "type": "int256"
        }
      ],
      "stateMutability": "view",
      "type": "function"
    }
  ],
  "bytecode": "0x6091610024600b82828239805160001a607314601757fe5b30600052607381538281f3fe730000000000000000000000000000000000000000301460806040526004361060335760003560e01c806322ab155e146038575b600080fd5b603e6054565b6040518082815260200191505060405180910390f35b620186a08156fea2646970667358221220883bf2cb309ac8426a6a2350e1979abe3ee7920d8a58f05e7c124194cf334b1d64736f6c63430006060033",
  "linkReferences": {},
  "deployedLinkReferences": {}
}