{
  "_format": "hh-sol-artifact-1",
  "contractName": "HedgeFund",
  "sourceName": "contracts/HedgeFund.sol",
  "abi": [
    {
      "inputs": [
        {
          "components": [
            {
              "internalType": "address payable",
              "name": "swapRouterContract",
              "type": "address"
            },
            {
              "internalType": "address payable",
              "name": "eFundTokenContract",
              "type": "address"
            },
            {
              "internalType": "address payable",
              "name": "eFundPlatform",
              "type": "address"
            },
            {
              "internalType": "uint256",
              "name": "softCap",
              "type": "uint256"
            },
            {
              "internalType": "uint256",
              "name": "hardCap",
              "type": "uint256"
            },
            {
              "internalType": "uint256",
              "name": "profitFee",
              "type": "uint256"
            },
            {
              "internalType": "uint256",
              "name": "minimalDepostitAmount",
              "type": "uint256"
            },
            {
              "internalType": "uint256",
              "name": "minTimeUntilFundStart",
              "type": "uint256"
            },
            {
              "internalType": "address payable",
              "name": "managerAddress",
              "type": "address"
            },
            {
              "internalType": "uint256",
              "name": "duration",
              "type": "uint256"
            },
            {
              "internalType": "uint256",
              "name": "managerCollateral",
              "type": "uint256"
            },
            {
              "internalType": "address payable[]",
              "name": "allowedTokenAddresses",
              "type": "address[]"
            }
          ],
          "internalType": "struct HedgeFundInfo",
          "name": "_hedgeFundInfo",
          "type": "tuple"
        }
      ],
      "stateMutability": "nonpayable",
      "type": "constructor"
    },
    {
      "anonymous": false,
      "inputs": [
        {
          "indexed": true,
          "internalType": "address payable",
          "name": "_depositOwner",
          "type": "address"
        },
        {
          "indexed": true,
          "internalType": "uint256",
          "name": "_amount",
          "type": "uint256"
        }
      ],
      "name": "DepositWithdrawedBeforeActiveState",
      "type": "event"
    },
    {
      "anonymous": false,
      "inputs": [
        {
          "indexed": true,
          "internalType": "address",
          "name": "_depositor",
          "type": "address"
        },
        {
          "indexed": true,
          "internalType": "uint256",
          "name": "_amount",
          "type": "uint256"
        }
      ],
      "name": "DepositsWitdrawed",
      "type": "event"
    },
    {
      "anonymous": false,
      "inputs": [
        {
          "indexed": false,
          "internalType": "uint256",
          "name": "_newStatus",
          "type": "uint256"
        }
      ],
      "name": "FundStatusChanged",
      "type": "event"
    },
    {
      "anonymous": false,
      "inputs": [
        {
          "indexed": true,
          "internalType": "address payable",
          "name": "_depositOwner",
          "type": "address"
        },
        {
          "indexed": true,
          "internalType": "uint256",
          "name": "_id",
          "type": "uint256"
        },
        {
          "indexed": true,
          "internalType": "uint256",
          "name": "_depositAmount",
          "type": "uint256"
        }
      ],
      "name": "NewDeposit",
      "type": "event"
    },
    {
      "anonymous": false,
      "inputs": [
        {
          "indexed": true,
          "internalType": "address",
          "name": "_tokenFrom",
          "type": "address"
        },
        {
          "indexed": true,
          "internalType": "address",
          "name": "_tokenTo",
          "type": "address"
        },
        {
          "indexed": false,
          "internalType": "uint256",
          "name": "_amountFrom",
          "type": "uint256"
        },
        {
          "indexed": true,
          "internalType": "uint256",
          "name": "_amountTo",
          "type": "uint256"
        }
      ],
      "name": "TokensSwap",
      "type": "event"
    },
    {
      "stateMutability": "payable",
      "type": "fallback"
    },
    {
      "inputs": [],
      "name": "baseBalance",
      "outputs": [
        {
          "internalType": "uint256",
          "name": "",
          "type": "uint256"
        }
      ],
      "stateMutability": "view",
      "type": "function"
    },
    {
      "inputs": [],
      "name": "eFundPlatform",
      "outputs": [
        {
          "internalType": "contract EFundPlatform",
          "name": "",
          "type": "address"
        }
      ],
      "stateMutability": "view",
      "type": "function"
    },
    {
      "inputs": [],
      "name": "eFundToken",
      "outputs": [
        {
          "internalType": "contract IERC20",
          "name": "",
          "type": "address"
        }
      ],
      "stateMutability": "view",
      "type": "function"
    },
    {
      "inputs": [],
      "name": "endBalance",
      "outputs": [
        {
          "internalType": "uint256",
          "name": "",
          "type": "uint256"
        }
      ],
      "stateMutability": "view",
      "type": "function"
    },
    {
      "inputs": [],
      "name": "fundCreatedAt",
      "outputs": [
        {
          "internalType": "uint256",
          "name": "",
          "type": "uint256"
        }
      ],
      "stateMutability": "view",
      "type": "function"
    },
    {
      "inputs": [],
      "name": "fundDurationMonths",
      "outputs": [
        {
          "internalType": "uint256",
          "name": "",
          "type": "uint256"
        }
      ],
      "stateMutability": "view",
      "type": "function"
    },
    {
      "inputs": [],
      "name": "fundManager",
      "outputs": [
        {
          "internalType": "address payable",
          "name": "",
          "type": "address"
        }
      ],
      "stateMutability": "view",
      "type": "function"
    },
    {
      "inputs": [],
      "name": "fundProfitWitdrawed",
      "outputs": [
        {
          "internalType": "bool",
          "name": "",
          "type": "bool"
        }
      ],
      "stateMutability": "view",
      "type": "function"
    },
    {
      "inputs": [],
      "name": "fundStatus",
      "outputs": [
        {
          "internalType": "enum HedgeFund.FundStatus",
          "name": "",
          "type": "uint8"
        }
      ],
      "stateMutability": "view",
      "type": "function"
    },
    {
      "inputs": [],
      "name": "getAllDeposits",
      "outputs": [
        {
          "components": [
            {
              "internalType": "address payable",
              "name": "depositOwner",
              "type": "address"
            },
            {
              "internalType": "uint256",
              "name": "depositAmount",
              "type": "uint256"
            },
            {
              "internalType": "bool",
              "name": "isWithdrawed",
              "type": "bool"
            }
          ],
          "internalType": "struct HedgeFund.DepositInfo[]",
          "name": "",
          "type": "tuple[]"
        }
      ],
      "stateMutability": "view",
      "type": "function"
    },
    {
      "inputs": [],
      "name": "getAllSwaps",
      "outputs": [
        {
          "components": [
            {
              "internalType": "address",
              "name": "from",
              "type": "address"
            },
            {
              "internalType": "address",
              "name": "to",
              "type": "address"
            },
            {
              "internalType": "uint256",
              "name": "amountFrom",
              "type": "uint256"
            },
            {
              "internalType": "uint256",
              "name": "amountTo",
              "type": "uint256"
            },
            {
              "internalType": "uint256",
              "name": "timeStamp",
              "type": "uint256"
            },
            {
              "internalType": "uint256",
              "name": "block",
              "type": "uint256"
            }
          ],
          "internalType": "struct SwapInfo[]",
          "name": "",
          "type": "tuple[]"
        }
      ],
      "stateMutability": "view",
      "type": "function"
    },
    {
      "inputs": [],
      "name": "getAllowedTokensAddresses",
      "outputs": [
        {
          "internalType": "address payable[]",
          "name": "",
          "type": "address[]"
        }
      ],
      "stateMutability": "view",
      "type": "function"
    },
    {
      "inputs": [],
      "name": "getBoughtTokensAddresses",
      "outputs": [
        {
          "internalType": "address payable[]",
          "name": "",
          "type": "address[]"
        }
      ],
      "stateMutability": "view",
      "type": "function"
    },
    {
      "inputs": [],
      "name": "getEndTime",
      "outputs": [
        {
          "internalType": "uint256",
          "name": "",
          "type": "uint256"
        }
      ],
      "stateMutability": "view",
      "type": "function"
    },
    {
      "inputs": [],
      "name": "getFundInfo",
      "outputs": [
        {
          "internalType": "address",
          "name": "_fundManager",
          "type": "address"
        },
        {
          "internalType": "uint256",
          "name": "_fundStartTimestamp",
          "type": "uint256"
        },
        {
          "internalType": "uint256",
          "name": "_minDepositAmount",
          "type": "uint256"
        },
        {
          "internalType": "uint256",
          "name": "_fundCanBeStartedAt",
          "type": "uint256"
        },
        {
          "internalType": "uint256",
          "name": "_fundDurationInMonths",
          "type": "uint256"
        },
        {
          "internalType": "uint256",
          "name": "_profitFee",
          "type": "uint256"
        },
        {
          "internalType": "enum HedgeFund.FundStatus",
          "name": "_fundStatus",
          "type": "uint8"
        },
        {
          "internalType": "uint256",
          "name": "_currentBalance",
          "type": "uint256"
        },
        {
          "internalType": "uint256",
          "name": "_managerCollateral",
          "type": "uint256"
        },
        {
          "internalType": "uint256",
          "name": "_hardCap",
          "type": "uint256"
        },
        {
          "internalType": "uint256",
          "name": "_softCap",
          "type": "uint256"
        },
        {
          "components": [
            {
              "internalType": "address payable",
              "name": "depositOwner",
              "type": "address"
            },
            {
              "internalType": "uint256",
              "name": "depositAmount",
              "type": "uint256"
            },
            {
              "internalType": "bool",
              "name": "isWithdrawed",
              "type": "bool"
            }
          ],
          "internalType": "struct HedgeFund.DepositInfo[]",
          "name": "_deposits",
          "type": "tuple[]"
        }
      ],
      "stateMutability": "view",
      "type": "function"
    },
    {
      "inputs": [],
      "name": "isDepositsWithdrawed",
      "outputs": [
        {
          "internalType": "bool",
          "name": "",
          "type": "bool"
        }
      ],
      "stateMutability": "view",
      "type": "function"
    },
    {
      "inputs": [],
      "name": "lockedFundProfit",
      "outputs": [
        {
          "internalType": "uint256",
          "name": "",
          "type": "uint256"
        }
      ],
      "stateMutability": "view",
      "type": "function"
    },
    {
      "inputs": [],
      "name": "makeDeposit",
      "outputs": [],
      "stateMutability": "payable",
      "type": "function"
    },
    {
      "inputs": [],
      "name": "originalEndBalance",
      "outputs": [
        {
          "internalType": "uint256",
          "name": "",
          "type": "uint256"
        }
      ],
      "stateMutability": "view",
      "type": "function"
    },
    {
      "inputs": [],
      "name": "router",
      "outputs": [
        {
          "internalType": "contract UniswapV2Router02",
          "name": "",
          "type": "address"
        }
      ],
      "stateMutability": "view",
      "type": "function"
    },
    {
      "inputs": [],
      "name": "setFundStatusActive",
      "outputs": [],
      "stateMutability": "nonpayable",
      "type": "function"
    },
    {
      "inputs": [],
      "name": "setFundStatusCompleted",
      "outputs": [],
      "stateMutability": "nonpayable",
      "type": "function"
    },
    {
      "inputs": [
        {
          "internalType": "address[]",
          "name": "path",
          "type": "address[]"
        },
        {
          "internalType": "uint256",
          "name": "amountIn",
          "type": "uint256"
        },
        {
          "internalType": "uint256",
          "name": "amountOutMin",
          "type": "uint256"
        }
      ],
      "name": "swapERC20ToERC20",
      "outputs": [],
      "stateMutability": "nonpayable",
      "type": "function"
    },
    {
      "inputs": [
        {
          "internalType": "address payable",
          "name": "tokenFrom",
          "type": "address"
        },
        {
          "internalType": "uint256",
          "name": "amountIn",
          "type": "uint256"
        },
        {
          "internalType": "uint256",
          "name": "amountOutMin",
          "type": "uint256"
        }
      ],
      "name": "swapERC20ToETH",
      "outputs": [],
      "stateMutability": "nonpayable",
      "type": "function"
    },
    {
      "inputs": [
        {
          "internalType": "address payable",
          "name": "tokenTo",
          "type": "address"
        },
        {
          "internalType": "uint256",
          "name": "amountIn",
          "type": "uint256"
        },
        {
          "internalType": "uint256",
          "name": "amountOutMin",
          "type": "uint256"
        }
      ],
      "name": "swapETHToERC20",
      "outputs": [],
      "stateMutability": "nonpayable",
      "type": "function"
    },
    {
      "inputs": [
        {
          "internalType": "address",
          "name": "",
          "type": "address"
        }
      ],
      "name": "userDeposits",
      "outputs": [
        {
          "internalType": "uint256",
          "name": "",
          "type": "uint256"
        }
      ],
      "stateMutability": "view",
      "type": "function"
    },
    {
      "inputs": [],
      "name": "withdrawDepositsBeforeFundStarted",
      "outputs": [],
      "stateMutability": "nonpayable",
      "type": "function"
    },
    {
      "inputs": [
        {
          "internalType": "address payable",
          "name": "_of",
          "type": "address"
        }
      ],
      "name": "withdrawDepositsOf",
      "outputs": [],
      "stateMutability": "nonpayable",
      "type": "function"
    },
    {
      "inputs": [],
      "name": "withdrawFundProfit",
      "outputs": [],
      "stateMutability": "nonpayable",
      "type": "function"
    },
    {
      "stateMutability": "payable",
      "type": "receive"
    }
  ],
  "bytecode": "0x6102006040523480156200001257600080fd5b506040516200580a3803806200580a8339818101604052810190620000389190620005fa565b6200004e816101200151620002dc60201b60201c565b62000090576040517f08c379a0000000000000000000000000000000000000000000000000000000008152600401620000879062000681565b60405180910390fd5b806000015173ffffffffffffffffffffffffffffffffffffffff1660c08173ffffffffffffffffffffffffffffffffffffffff1660601b81525050806020015173ffffffffffffffffffffffffffffffffffffffff1660808173ffffffffffffffffffffffffffffffffffffffff1660601b81525050806040015173ffffffffffffffffffffffffffffffffffffffff1660a08173ffffffffffffffffffffffffffffffffffffffff1660601b8152505080610100015173ffffffffffffffffffffffffffffffffffffffff166101a08173ffffffffffffffffffffffffffffffffffffffff1660601b815250506000600560006101000a81548160ff021916908360028111156200019e57fe5b02179055508061012001516101c08181525050806060015161014081815250508060800151610160818152505080610160015160049080519060200190620001e892919062000318565b506000600e60006101000a81548160ff0219169083151502179055504261010081815250508060e00151420161012081815250508060c0015160e0818152505080610140015161018081815250508060a001516101e0818152505060005b81610160015151811015620002d4576001600d600084610160015184815181106200026d57fe5b602002602001015173ffffffffffffffffffffffffffffffffffffffff1673ffffffffffffffffffffffffffffffffffffffff16815260200190815260200160002060006101000a81548160ff021916908315150217905550808060010191505062000246565b50506200077d565b600080821480620002ed5750600182145b80620002f95750600282145b80620003055750600382145b80620003115750600682145b9050919050565b82805482825590600052602060002090810192821562000394579160200282015b82811115620003935782518260006101000a81548173ffffffffffffffffffffffffffffffffffffffff021916908373ffffffffffffffffffffffffffffffffffffffff1602179055509160200191906001019062000339565b5b509050620003a39190620003a7565b5090565b620003ea91905b80821115620003e657600081816101000a81549073ffffffffffffffffffffffffffffffffffffffff021916905550600101620003ae565b5090565b90565b600081519050620003fe8162000749565b92915050565b600082601f8301126200041657600080fd5b81516200042d6200042782620006d1565b620006a3565b915081818352602084019350602081019050838560208402820111156200045357600080fd5b60005b838110156200048757816200046c8882620003ed565b84526020840193506020830192505060018101905062000456565b5050505092915050565b60006101808284031215620004a557600080fd5b620004b2610180620006a3565b90506000620004c484828501620003ed565b6000830152506020620004da84828501620003ed565b6020830152506040620004f084828501620003ed565b60408301525060606200050684828501620005e3565b60608301525060806200051c84828501620005e3565b60808301525060a06200053284828501620005e3565b60a08301525060c06200054884828501620005e3565b60c08301525060e06200055e84828501620005e3565b60e0830152506101006200057584828501620003ed565b610100830152506101206200058d84828501620005e3565b61012083015250610140620005a584828501620005e3565b6101408301525061016082015167ffffffffffffffff811115620005c857600080fd5b620005d68482850162000404565b6101608301525092915050565b600081519050620005f48162000763565b92915050565b6000602082840312156200060d57600080fd5b600082015167ffffffffffffffff8111156200062857600080fd5b620006368482850162000491565b91505092915050565b60006200064e601083620006fa565b91507f496e76616c6964206475726174696f6e000000000000000000000000000000006000830152602082019050919050565b600060208201905081810360008301526200069c816200063f565b9050919050565b6000604051905081810181811067ffffffffffffffff82111715620006c757600080fd5b8060405250919050565b600067ffffffffffffffff821115620006e957600080fd5b602082029050602081019050919050565b600082825260208201905092915050565b600062000718826200071f565b9050919050565b600073ffffffffffffffffffffffffffffffffffffffff82169050919050565b6000819050919050565b62000754816200070b565b81146200076057600080fd5b50565b6200076e816200073f565b81146200077a57600080fd5b50565b60805160601c60a05160601c60c05160601c60e05161010051610120516101405161016051610180516101a05160601c6101c0516101e051614f56620008b4600039806120cb5280612aca52508061191a5280612aa95280612eaf5250806108715280610ddd528061134a52806118f6528061194452806127a152806128e552806129915280612a4352508061296752806129cb5280612afc5280612e1c525080610b2e5280612b1d525080612b3e52508061065c528061093e5280612a885250806118d2525080610acb5280612a67525080610f3b5280610fe25280611107528061119b528061150552806115ad52806116b85280611c135280611d3f5280611dd35280612c5e525080610d1c5280610db9528061202652806121465280612765528061286852508061084d5250614f566000f3fe6080604052600436106101c65760003560e01c8063610c51a5116100f7578063afb8b63a11610095578063d7d91fe611610064578063d7d91fe6146105af578063e39e45e2146105c6578063ec233684146105f1578063f887ea4014610627576101cd565b8063afb8b63a14610519578063b0ae0fca14610530578063d3f3f5ea14610559578063d6cfeae014610584576101cd565b806373d2d071116100d157806373d2d0711461046f5780637f18c7f61461049a578063a0eb89fd146104c3578063a1956e32146104ee576101cd565b8063610c51a5146103ee5780636209ec2d146104195780636da797c914610444576101cd565b806340732c891161016457806349c860291161013e57806349c86029146103465780634d820b9a1461036f57806359c57bed1461039a5780636032c7e3146103c5576101cd565b806340732c89146102e6578063439f5ac2146102f057806347f5b2321461031b576101cd565b80630ba36dcd116101a05780630ba36dcd14610228578063155d2830146102655780632629f1f41461029057806338bde791146102bb576101cd565b806303787365146101cf578063064cb8e0146101e65780630b77b3b514610211576101cd565b366101cd57005b005b3480156101db57600080fd5b506101e4610652565b005b3480156101f257600080fd5b506101fb61084b565b60405161020891906146ed565b60405180910390f35b34801561021d57600080fd5b5061022661086f565b005b34801561023457600080fd5b5061024f600480360381019061024a919061371f565b610a0f565b60405161025c9190614a7e565b60405180910390f35b34801561027157600080fd5b5061027a610a27565b6040516102879190614651565b60405180910390f35b34801561029c57600080fd5b506102a5610ab5565b6040516102b29190614a7e565b60405180910390f35b3480156102c757600080fd5b506102d0610abb565b6040516102dd9190614a7e565b60405180910390f35b6102ee610ac1565b005b3480156102fc57600080fd5b50610305610da8565b6040516103129190614a7e565b60405180910390f35b34801561032757600080fd5b50610330610db7565b60405161033d91906146d2565b60405180910390f35b34801561035257600080fd5b5061036d6004803603810190610368919061379a565b610ddb565b005b34801561037b57600080fd5b506103846112a7565b60405161039191906146b7565b60405180910390f35b3480156103a657600080fd5b506103af6112ba565b6040516103bc9190614651565b60405180910390f35b3480156103d157600080fd5b506103ec60048036038101906103e7919061379a565b611348565b005b3480156103fa57600080fd5b506104036118d0565b6040516104109190614a7e565b60405180910390f35b34801561042557600080fd5b5061042e6118f4565b60405161043b919061454c565b60405180910390f35b34801561045057600080fd5b50610459611918565b6040516104669190614a7e565b60405180910390f35b34801561047b57600080fd5b5061048461193c565b6040516104919190614a7e565b60405180910390f35b3480156104a657600080fd5b506104c160048036038101906104bc91906137e9565b611942565b005b3480156104cf57600080fd5b506104d8611fdd565b6040516104e591906146b7565b60405180910390f35b3480156104fa57600080fd5b50610503611ff0565b6040516105109190614a7e565b60405180910390f35b34801561052557600080fd5b5061052e611ff6565b005b34801561053c57600080fd5b5061055760048036038101906105529190613771565b612218565b005b34801561056557600080fd5b5061056e61247b565b60405161057b9190614673565b60405180910390f35b34801561059057600080fd5b50610599612555565b6040516105a69190614695565b60405180910390f35b3480156105bb57600080fd5b506105c4612688565b005b3480156105d257600080fd5b506105db612a1b565b6040516105e89190614723565b60405180910390f35b3480156105fd57600080fd5b50610606612a2e565b60405161061e9c9b9a99989796959493929190614590565b60405180910390f35b34801561063357600080fd5b5061063c612c5c565b6040516106499190614708565b60405180910390f35b61065a612c80565b7f000000000000000000000000000000000000000000000000000000000000000042116106bc576040517f08c379a00000000000000000000000000000000000000000000000000000000081526004016106b39061493e565b60405180910390fd5b6000600260003373ffffffffffffffffffffffffffffffffffffffff1673ffffffffffffffffffffffffffffffffffffffff16815260200190815260200160002054141561073f576040517f08c379a0000000000000000000000000000000000000000000000000000000008152600401610736906149fe565b60405180910390fd5b6000600260003373ffffffffffffffffffffffffffffffffffffffff1673ffffffffffffffffffffffffffffffffffffffff1681526020019081526020016000205490506000600260003373ffffffffffffffffffffffffffffffffffffffff1673ffffffffffffffffffffffffffffffffffffffff1681526020019081526020016000208190555061080460405180606001604052803373ffffffffffffffffffffffffffffffffffffffff16815260200183815260200160001515815250612cea565b803373ffffffffffffffffffffffffffffffffffffffff167fe737dc9ea16794043839aa01f063bf3e6faa009fe354f0b6ae1d7ab6dc20ac3460405160405180910390a350565b7f000000000000000000000000000000000000000000000000000000000000000081565b7f000000000000000000000000000000000000000000000000000000000000000073ffffffffffffffffffffffffffffffffffffffff163373ffffffffffffffffffffffffffffffffffffffff1614806108f457503073ffffffffffffffffffffffffffffffffffffffff163373ffffffffffffffffffffffffffffffffffffffff16145b610933576040517f08c379a000000000000000000000000000000000000000000000000000000000815260040161092a9061479e565b60405180910390fd5b61093b612c80565b427f00000000000000000000000000000000000000000000000000000000000000001061099d576040517f08c379a00000000000000000000000000000000000000000000000000000000081526004016109949061473e565b60405180910390fd5b6109a76001612def565b6109af612e15565b600781905550426006819055507fbc141a1c0c073ed34f6fa9cdc66bb9473f488bccda93d1e43bb9a15c4391a92f600560009054906101000a900460ff1660028111156109f857fe5b604051610a059190614a7e565b60405180910390a1565b60026020528060005260406000206000915090505481565b60606004805480602002602001604051908101604052809291908181526020018280548015610aab57602002820191906000526020600020905b8160009054906101000a900473ffffffffffffffffffffffffffffffffffffffff1673ffffffffffffffffffffffffffffffffffffffff1681526020019060010190808311610a61575b5050505050905090565b60095481565b60075481565b610ac9612c80565b7f0000000000000000000000000000000000000000000000000000000000000000341015610b2c576040517f08c379a0000000000000000000000000000000000000000000000000000000008152600401610b2390614a3e565b60405180910390fd5b7f0000000000000000000000000000000000000000000000000000000000000000610b6734610b59612e15565b612e4f90919063ffffffff16565b1115610ba8576040517f08c379a0000000000000000000000000000000000000000000000000000000008152600401610b9f9061499e565b60405180910390fd5b610bb0613586565b60405180606001604052803373ffffffffffffffffffffffffffffffffffffffff168152602001348152602001600015158152509050610c3834600260003373ffffffffffffffffffffffffffffffffffffffff1673ffffffffffffffffffffffffffffffffffffffff16815260200190815260200160002054612e4f90919063ffffffff16565b600260003373ffffffffffffffffffffffffffffffffffffffff1673ffffffffffffffffffffffffffffffffffffffff16815260200190815260200160002081905550600081908060018154018082558091505060019003906000526020600020906003020160009091909190915060008201518160000160006101000a81548173ffffffffffffffffffffffffffffffffffffffff021916908373ffffffffffffffffffffffffffffffffffffffff1602179055506020820151816001015560408201518160020160006101000a81548160ff02191690831515021790555050507f000000000000000000000000000000000000000000000000000000000000000073ffffffffffffffffffffffffffffffffffffffff1663fd56b302336040518263ffffffff1660e01b8152600401610d739190614531565b600060405180830381600087803b158015610d8d57600080fd5b505af1158015610da1573d6000803e3d6000fd5b5050505050565b6000610db2612ea4565b905090565b7f000000000000000000000000000000000000000000000000000000000000000081565b7f000000000000000000000000000000000000000000000000000000000000000073ffffffffffffffffffffffffffffffffffffffff163373ffffffffffffffffffffffffffffffffffffffff161480610e6057503073ffffffffffffffffffffffffffffffffffffffff163373ffffffffffffffffffffffffffffffffffffffff16145b610e9f576040517f08c379a0000000000000000000000000000000000000000000000000000000008152600401610e969061479e565b60405180910390fd5b610ea7612ee5565b600c60008473ffffffffffffffffffffffffffffffffffffffff1673ffffffffffffffffffffffffffffffffffffffff16815260200190815260200160002060009054906101000a900460ff16610f33576040517f08c379a0000000000000000000000000000000000000000000000000000000008152600401610f2a906147de565b60405180910390fd5b6060610fdc847f000000000000000000000000000000000000000000000000000000000000000073ffffffffffffffffffffffffffffffffffffffff1663ad5c46486040518163ffffffff1660e01b815260040160206040518083038186803b158015610f9f57600080fd5b505afa158015610fb3573d6000803e3d6000fd5b505050506040513d601f19601f82011682018060405250810190610fd79190613748565b612f4f565b905060007f000000000000000000000000000000000000000000000000000000000000000073ffffffffffffffffffffffffffffffffffffffff1663d06ca61f85846040518363ffffffff1660e01b815260040161103b929190614acb565b60006040518083038186803b15801561105357600080fd5b505afa158015611067573d6000803e3d6000fd5b505050506040513d6000823e3d601f19601f820116820180604052508101906110909190613855565b60018151811061109c57fe5b60200260200101519050828110156110e9576040517f08c379a00000000000000000000000000000000000000000000000000000000081526004016110e0906148be565b60405180910390fd5b8473ffffffffffffffffffffffffffffffffffffffff1663095ea7b37f0000000000000000000000000000000000000000000000000000000000000000866040518363ffffffff1660e01b8152600401611144929190614567565b602060405180830381600087803b15801561115e57600080fd5b505af1158015611172573d6000803e3d6000fd5b505050506040513d601f19601f820116820180604052508101906111969190613896565b5060607f000000000000000000000000000000000000000000000000000000000000000073ffffffffffffffffffffffffffffffffffffffff166318cbafe58684863061070842016040518663ffffffff1660e01b81526004016111fe959493929190614ba3565b600060405180830381600087803b15801561121857600080fd5b505af115801561122c573d6000803e3d6000fd5b505050506040513d6000823e3d601f19601f820116820180604052508101906112559190613855565b905061129f8360008151811061126757fe5b60200260200101518460018151811061127c57fe5b6020026020010151878460018151811061129257fe5b6020026020010151613036565b505050505050565b600e60009054906101000a900460ff1681565b6060600380548060200260200160405190810160405280929190818152602001828054801561133e57602002820191906000526020600020905b8160009054906101000a900473ffffffffffffffffffffffffffffffffffffffff1673ffffffffffffffffffffffffffffffffffffffff16815260200190600101908083116112f4575b5050505050905090565b7f000000000000000000000000000000000000000000000000000000000000000073ffffffffffffffffffffffffffffffffffffffff163373ffffffffffffffffffffffffffffffffffffffff1614806113cd57503073ffffffffffffffffffffffffffffffffffffffff163373ffffffffffffffffffffffffffffffffffffffff16145b61140c576040517f08c379a00000000000000000000000000000000000000000000000000000000081526004016114039061479e565b60405180910390fd5b611414612ee5565b61141c612e15565b821061145d576040517f08c379a0000000000000000000000000000000000000000000000000000000008152600401611454906149be565b60405180910390fd5b6000600480549050146114bc57600d60008473ffffffffffffffffffffffffffffffffffffffff1673ffffffffffffffffffffffffffffffffffffffff16815260200190815260200160002060009054906101000a900460ff166114bf565b60015b6114fe576040517f08c379a00000000000000000000000000000000000000000000000000000000081526004016114f590614a1e565b60405180910390fd5b60606115a77f000000000000000000000000000000000000000000000000000000000000000073ffffffffffffffffffffffffffffffffffffffff1663ad5c46486040518163ffffffff1660e01b815260040160206040518083038186803b15801561156957600080fd5b505afa15801561157d573d6000803e3d6000fd5b505050506040513d601f19601f820116820180604052508101906115a19190613748565b85612f4f565b905060007f000000000000000000000000000000000000000000000000000000000000000073ffffffffffffffffffffffffffffffffffffffff1663d06ca61f85846040518363ffffffff1660e01b8152600401611606929190614acb565b60006040518083038186803b15801561161e57600080fd5b505afa158015611632573d6000803e3d6000fd5b505050506040513d6000823e3d601f19601f8201168201806040525081019061165b9190613855565b60018151811061166757fe5b60200260200101519050828110156116b4576040517f08c379a00000000000000000000000000000000000000000000000000000000081526004016116ab906148be565b60405180910390fd5b60607f000000000000000000000000000000000000000000000000000000000000000073ffffffffffffffffffffffffffffffffffffffff1663fb3bdb418684863061070842016040518663ffffffff1660e01b815260040161171a9493929190614afb565b6000604051808303818588803b15801561173357600080fd5b505af1158015611747573d6000803e3d6000fd5b50505050506040513d6000823e3d601f19601f820116820180604052508101906117719190613855565b9050600c60008773ffffffffffffffffffffffffffffffffffffffff1673ffffffffffffffffffffffffffffffffffffffff16815260200190815260200160002060009054906101000a900460ff16611880576003869080600181540180825580915050600190039060005260206000200160009091909190916101000a81548173ffffffffffffffffffffffffffffffffffffffff021916908373ffffffffffffffffffffffffffffffffffffffff1602179055506001600c60008873ffffffffffffffffffffffffffffffffffffffff1673ffffffffffffffffffffffffffffffffffffffff16815260200190815260200160002060006101000a81548160ff0219169083151502179055505b6118c88360008151811061189057fe5b6020026020010151846001815181106118a557fe5b602002602001015187846001815181106118bb57fe5b6020026020010151613036565b505050505050565b7f000000000000000000000000000000000000000000000000000000000000000081565b7f000000000000000000000000000000000000000000000000000000000000000081565b7f000000000000000000000000000000000000000000000000000000000000000081565b600a5481565b7f000000000000000000000000000000000000000000000000000000000000000073ffffffffffffffffffffffffffffffffffffffff163373ffffffffffffffffffffffffffffffffffffffff1614806119c757503073ffffffffffffffffffffffffffffffffffffffff163373ffffffffffffffffffffffffffffffffffffffff16145b611a06576040517f08c379a00000000000000000000000000000000000000000000000000000000081526004016119fd9061479e565b60405180910390fd5b611a0e612ee5565b6002848490501015611a55576040517f08c379a0000000000000000000000000000000000000000000000000000000008152600401611a4c9061483e565b60405180910390fd5b600084846000818110611a6457fe5b9050602002016020810190611a79919061371f565b90506000858560018888905003818110611a8f57fe5b9050602002016020810190611aa4919061371f565b905060005b86869050811015611c0e57600060048054905014611b3357600d6000888884818110611ad157fe5b9050602002016020810190611ae6919061371f565b73ffffffffffffffffffffffffffffffffffffffff1673ffffffffffffffffffffffffffffffffffffffff16815260200190815260200160002060009054906101000a900460ff16611b36565b60015b611b75576040517f08c379a0000000000000000000000000000000000000000000000000000000008152600401611b6c9061489e565b60405180910390fd5b600c60008473ffffffffffffffffffffffffffffffffffffffff1673ffffffffffffffffffffffffffffffffffffffff16815260200190815260200160002060009054906101000a900460ff16611c01576040517f08c379a0000000000000000000000000000000000000000000000000000000008152600401611bf89061477e565b60405180910390fd5b8080600101915050611aa9565b5060007f000000000000000000000000000000000000000000000000000000000000000073ffffffffffffffffffffffffffffffffffffffff1663d06ca61f8689896040518463ffffffff1660e01b8152600401611c6e93929190614a99565b60006040518083038186803b158015611c8657600080fd5b505afa158015611c9a573d6000803e3d6000fd5b505050506040513d6000823e3d601f19601f82011682018060405250810190611cc39190613855565b6001888890500381518110611cd457fe5b6020026020010151905083811015611d21576040517f08c379a0000000000000000000000000000000000000000000000000000000008152600401611d189061491e565b60405180910390fd5b8273ffffffffffffffffffffffffffffffffffffffff1663095ea7b37f0000000000000000000000000000000000000000000000000000000000000000876040518363ffffffff1660e01b8152600401611d7c929190614567565b602060405180830381600087803b158015611d9657600080fd5b505af1158015611daa573d6000803e3d6000fd5b505050506040513d601f19601f82011682018060405250810190611dce9190613896565b5060607f000000000000000000000000000000000000000000000000000000000000000073ffffffffffffffffffffffffffffffffffffffff166338ed173987848b8b30611e2761070842612e4f90919063ffffffff16565b6040518763ffffffff1660e01b8152600401611e4896959493929190614b47565b600060405180830381600087803b158015611e6257600080fd5b505af1158015611e76573d6000803e3d6000fd5b505050506040513d6000823e3d601f19601f82011682018060405250810190611e9f9190613855565b9050600c60008473ffffffffffffffffffffffffffffffffffffffff1673ffffffffffffffffffffffffffffffffffffffff16815260200190815260200160002060009054906101000a900460ff16611fae576003839080600181540180825580915050600190039060005260206000200160009091909190916101000a81548173ffffffffffffffffffffffffffffffffffffffff021916908373ffffffffffffffffffffffffffffffffffffffff1602179055506001600c60008573ffffffffffffffffffffffffffffffffffffffff1673ffffffffffffffffffffffffffffffffffffffff16815260200190815260200160002060006101000a81548160ff0219169083151502179055505b611fd38484888460018d8d90500381518110611fc657fe5b6020026020010151613036565b5050505050505050565b600b60009054906101000a900460ff1681565b60085481565b611ffe612ee5565b6120086002612def565b612010612e15565b600981905550600060075460095410156120c9577f000000000000000000000000000000000000000000000000000000000000000073ffffffffffffffffffffffffffffffffffffffff1663d10d51a26040518163ffffffff1660e01b815260040160206040518083038186803b15801561208a57600080fd5b505afa15801561209e573d6000803e3d6000fd5b505050506040513d601f19601f820116820180604052508101906120c291906138bf565b90506120ed565b7f000000000000000000000000000000000000000000000000000000000000000090505b6121036120fb8260646131de565b600954613210565b600a81905550600754612123600a5460095461324290919063ffffffff16565b10156121355747600881905550612144565b61213d612e15565b6008819055505b7f000000000000000000000000000000000000000000000000000000000000000073ffffffffffffffffffffffffffffffffffffffff1663e3a1c6fe6040518163ffffffff1660e01b8152600401600060405180830381600087803b1580156121ac57600080fd5b505af11580156121c0573d6000803e3d6000fd5b505050507fbc141a1c0c073ed34f6fa9cdc66bb9473f488bccda93d1e43bb9a15c4391a92f600560009054906101000a900460ff16600281111561220057fe5b60405161220d9190614a7e565b60405180910390a150565b612220613292565b6000600260008373ffffffffffffffffffffffffffffffffffffffff1673ffffffffffffffffffffffffffffffffffffffff1681526020019081526020016000205414156122a3576040517f08c379a000000000000000000000000000000000000000000000000000000000815260040161229a906148de565b60405180910390fd5b6000600260008373ffffffffffffffffffffffffffffffffffffffff1673ffffffffffffffffffffffffffffffffffffffff1681526020019081526020016000205490506000600260008473ffffffffffffffffffffffffffffffffffffffff1673ffffffffffffffffffffffffffffffffffffffff1681526020019081526020016000208190555061236860405180606001604052808473ffffffffffffffffffffffffffffffffffffffff16815260200183815260200160001515815250612cea565b60008090505b600080549050811015612432578273ffffffffffffffffffffffffffffffffffffffff166000828154811061239f57fe5b906000526020600020906003020160000160009054906101000a900473ffffffffffffffffffffffffffffffffffffffff1673ffffffffffffffffffffffffffffffffffffffff161415612425576001600082815481106123fc57fe5b906000526020600020906003020160020160006101000a81548160ff0219169083151502179055505b808060010191505061236e565b50808273ffffffffffffffffffffffffffffffffffffffff167fa3896ee6f93bcf0dae942b7d4c9073b9a3c233e301281c823f58a8f70ec1c43160405160405180910390a35050565b60606000805480602002602001604051908101604052809291908181526020016000905b8282101561254c57838290600052602060002090600302016040518060600160405290816000820160009054906101000a900473ffffffffffffffffffffffffffffffffffffffff1673ffffffffffffffffffffffffffffffffffffffff1673ffffffffffffffffffffffffffffffffffffffff168152602001600182015481526020016002820160009054906101000a900460ff1615151515815250508152602001906001019061249f565b50505050905090565b60606001805480602002602001604051908101604052809291908181526020016000905b8282101561267f57838290600052602060002090600602016040518060c00160405290816000820160009054906101000a900473ffffffffffffffffffffffffffffffffffffffff1673ffffffffffffffffffffffffffffffffffffffff1673ffffffffffffffffffffffffffffffffffffffff1681526020016001820160009054906101000a900473ffffffffffffffffffffffffffffffffffffffff1673ffffffffffffffffffffffffffffffffffffffff1673ffffffffffffffffffffffffffffffffffffffff16815260200160028201548152602001600382015481526020016004820154815260200160058201548152505081526020019060010190612579565b50505050905090565b612690613292565b600b60009054906101000a900460ff16156126e0576040517f08c379a00000000000000000000000000000000000000000000000000000000081526004016126d79061487e565b60405180910390fd5b60006126ea612e15565b1161272a576040517f08c379a0000000000000000000000000000000000000000000000000000000008152600401612721906147be565b60405180910390fd5b6001600b60006101000a81548160ff0219169083151502179055506000806008546007541061275d57600a549150612841565b61283e6128367f000000000000000000000000000000000000000000000000000000000000000073ffffffffffffffffffffffffffffffffffffffff1663ca8f4ae87f00000000000000000000000000000000000000000000000000000000000000006040518263ffffffff1660e01b81526004016127dc9190614531565b60206040518083038186803b1580156127f457600080fd5b505afa158015612808573d6000803e3d6000fd5b505050506040513d601f19601f8201168201806040525081019061282c91906138bf565b60640360646131de565b600a54613210565b91505b61285682600a5461324290919063ffffffff16565b905081612861612e15565b106128ce577f000000000000000000000000000000000000000000000000000000000000000073ffffffffffffffffffffffffffffffffffffffff166108fc839081150290604051600060405180830381858888f193505050501580156128cc573d6000803e3d6000fd5b505b6000811180156128de5750804710155b1561294b577f000000000000000000000000000000000000000000000000000000000000000073ffffffffffffffffffffffffffffffffffffffff166108fc829081150290604051600060405180830381858888f19350505050158015612949573d6000803e3d6000fd5b505b60008111801561295e5750600854600954145b801561298a57507f00000000000000000000000000000000000000000000000000000000000000004710155b15612a17577f000000000000000000000000000000000000000000000000000000000000000073ffffffffffffffffffffffffffffffffffffffff166108fc7f00000000000000000000000000000000000000000000000000000000000000009081150290604051600060405180830381858888f19350505050158015612a15573d6000803e3d6000fd5b505b5050565b600560009054906101000a900460ff1681565b600080600080600080600080600080600060607f00000000000000000000000000000000000000000000000000000000000000006006547f00000000000000000000000000000000000000000000000000000000000000007f00000000000000000000000000000000000000000000000000000000000000007f00000000000000000000000000000000000000000000000000000000000000007f0000000000000000000000000000000000000000000000000000000000000000600560009054906101000a900460ff16477f00000000000000000000000000000000000000000000000000000000000000007f00000000000000000000000000000000000000000000000000000000000000007f000000000000000000000000000000000000000000000000000000000000000060008b9b5080805480602002602001604051908101604052809291908181526020016000905b82821015612c3057838290600052602060002090600302016040518060600160405290816000820160009054906101000a900473ffffffffffffffffffffffffffffffffffffffff1673ffffffffffffffffffffffffffffffffffffffff1673ffffffffffffffffffffffffffffffffffffffff168152602001600182015481526020016002820160009054906101000a900460ff16151515158152505081526020019060010190612b83565b5050505090509b509b509b509b509b509b509b509b509b509b509b509b50909192939495969798999a9b565b7f000000000000000000000000000000000000000000000000000000000000000081565b60006002811115612c8d57fe5b600560009054906101000a900460ff166002811115612ca857fe5b14612ce8576040517f08c379a0000000000000000000000000000000000000000000000000000000008152600401612cdf9061485e565b60405180910390fd5b565b60006002811115612cf757fe5b600560009054906101000a900460ff166002811115612d1257fe5b1415612d6c57806000015173ffffffffffffffffffffffffffffffffffffffff166108fc82602001519081150290604051600060405180830381858888f19350505050158015612d66573d6000803e3d6000fd5b50612dec565b6000612d7e82602001516007546132fb565b9050816000015173ffffffffffffffffffffffffffffffffffffffff166108fc612dbe83612db9600a5460085461324290919063ffffffff16565b613210565b9081150290604051600060405180830381858888f19350505050158015612de9573d6000803e3d6000fd5b50505b50565b80600560006101000a81548160ff02191690836002811115612e0d57fe5b021790555050565b6000612e4a7f00000000000000000000000000000000000000000000000000000000000000004761324290919063ffffffff16565b905090565b600080828401905083811015612e9a576040517f08c379a0000000000000000000000000000000000000000000000000000000008152600401612e919061475e565b60405180910390fd5b8091505092915050565b6000612edc62278d007f000000000000000000000000000000000000000000000000000000000000000061332d90919063ffffffff16565b60065401905090565b60016002811115612ef257fe5b600560009054906101000a900460ff166002811115612f0d57fe5b14612f4d576040517f08c379a0000000000000000000000000000000000000000000000000000000008152600401612f449061481e565b60405180910390fd5b565b606080600267ffffffffffffffff81118015612f6a57600080fd5b50604051908082528060200260200182016040528015612f995781602001602082028036833780820191505090505b5090508381600081518110612faa57fe5b602002602001019073ffffffffffffffffffffffffffffffffffffffff16908173ffffffffffffffffffffffffffffffffffffffff16815250508281600181518110612ff257fe5b602002602001019073ffffffffffffffffffffffffffffffffffffffff16908173ffffffffffffffffffffffffffffffffffffffff16815250508091505092915050565b808373ffffffffffffffffffffffffffffffffffffffff168573ffffffffffffffffffffffffffffffffffffffff167f6e31608d2e2f6546c30f3320a34d3826089ef057b2f52e93c107ca9d360f6dd4856040516130949190614a7e565b60405180910390a460016040518060c001604052808673ffffffffffffffffffffffffffffffffffffffff1681526020018573ffffffffffffffffffffffffffffffffffffffff16815260200184815260200183815260200142815260200143815250908060018154018082558091505060019003906000526020600020906006020160009091909190915060008201518160000160006101000a81548173ffffffffffffffffffffffffffffffffffffffff021916908373ffffffffffffffffffffffffffffffffffffffff16021790555060208201518160010160006101000a81548173ffffffffffffffffffffffffffffffffffffffff021916908373ffffffffffffffffffffffffffffffffffffffff16021790555060408201518160020155606082015181600301556080820151816004015560a08201518160050155505050505050565b6000613208826131fa620186a08661339d90919063ffffffff16565b61349b90919063ffffffff16565b905092915050565b600061323a620186a061322c858561339d90919063ffffffff16565b61349b90919063ffffffff16565b905092915050565b600082821115613287576040517f08c379a000000000000000000000000000000000000000000000000000000000815260040161327e906147fe565b60405180910390fd5b818303905092915050565b60028081111561329e57fe5b600560009054906101000a900460ff1660028111156132b957fe5b146132f9576040517f08c379a00000000000000000000000000000000000000000000000000000000081526004016132f09061497e565b60405180910390fd5b565b600061332582613317620186a08661339d90919063ffffffff16565b61349b90919063ffffffff16565b905092915050565b6000808314156133405760009050613397565b600082840290508284828161335157fe5b0414613392576040517f08c379a00000000000000000000000000000000000000000000000000000000081526004016133899061495e565b60405180910390fd5b809150505b92915050565b6000808314156133b05760009050613495565b7fffffffffffffffffffffffffffffffffffffffffffffffffffffffffffffffff831480156133fe57507f800000000000000000000000000000000000000000000000000000000000000082145b1561343e576040517f08c379a0000000000000000000000000000000000000000000000000000000008152600401613435906149de565b60405180910390fd5b600082840290508284828161344f57fe5b0514613490576040517f08c379a0000000000000000000000000000000000000000000000000000000008152600401613487906149de565b60405180910390fd5b809150505b92915050565b6000808214156134e0576040517f08c379a00000000000000000000000000000000000000000000000000000000081526004016134d790614a5e565b60405180910390fd5b7fffffffffffffffffffffffffffffffffffffffffffffffffffffffffffffffff8214801561352e57507f800000000000000000000000000000000000000000000000000000000000000083145b1561356e576040517f08c379a0000000000000000000000000000000000000000000000000000000008152600401613565906148fe565b60405180910390fd5b600082848161357957fe5b0590508091505092915050565b6040518060600160405280600073ffffffffffffffffffffffffffffffffffffffff168152602001600081526020016000151581525090565b6000813590506135ce81614ead565b92915050565b6000815190506135e381614ead565b92915050565b6000813590506135f881614ec4565b92915050565b60008083601f84011261361057600080fd5b8235905067ffffffffffffffff81111561362957600080fd5b60208301915083602082028301111561364157600080fd5b9250929050565b600082601f83011261365957600080fd5b815161366c61366782614c2a565b614bfd565b9150818183526020840193506020810190508385602084028201111561369157600080fd5b60005b838110156136c157816136a7888261370a565b845260208401935060208301925050600181019050613694565b5050505092915050565b6000815190506136da81614edb565b92915050565b6000815190506136ef81614ef2565b92915050565b60008135905061370481614f09565b92915050565b60008151905061371981614f09565b92915050565b60006020828403121561373157600080fd5b600061373f848285016135bf565b91505092915050565b60006020828403121561375a57600080fd5b6000613768848285016135d4565b91505092915050565b60006020828403121561378357600080fd5b6000613791848285016135e9565b91505092915050565b6000806000606084860312156137af57600080fd5b60006137bd868287016135e9565b93505060206137ce868287016136f5565b92505060406137df868287016136f5565b9150509250925092565b600080600080606085870312156137ff57600080fd5b600085013567ffffffffffffffff81111561381957600080fd5b613825878288016135fe565b94509450506020613838878288016136f5565b9250506040613849878288016136f5565b91505092959194509250565b60006020828403121561386757600080fd5b600082015167ffffffffffffffff81111561388157600080fd5b61388d84828501613648565b91505092915050565b6000602082840312156138a857600080fd5b60006138b6848285016136cb565b91505092915050565b6000602082840312156138d157600080fd5b60006138df848285016136e0565b91505092915050565b60006138f48383613957565b60208301905092915050565b600061390c8383613975565b60208301905092915050565b60006139248383614456565b60608301905092915050565b600061393c8383614498565b60c08301905092915050565b61395181614dec565b82525050565b61396081614d87565b82525050565b61396f81614d87565b82525050565b61397e81614d75565b82525050565b61398d81614d75565b82525050565b600061399f8385614d09565b93506139aa82614c52565b8060005b858110156139e3576139c08284614d5e565b6139ca8882613900565b97506139d583614cc8565b9250506001810190506139ae565b5085925050509392505050565b60006139fb82614c9c565b613a058185614d09565b9350613a1083614c5c565b8060005b83811015613a41578151613a288882613900565b9750613a3383614cd5565b925050600181019050613a14565b5085935050505092915050565b6000613a5982614ca7565b613a638185614d1a565b9350613a6e83614c6c565b8060005b83811015613a9f578151613a8688826138e8565b9750613a9183614ce2565b925050600181019050613a72565b5085935050505092915050565b6000613ab782614cb2565b613ac18185614d2b565b9350613acc83614c7c565b8060005b83811015613afd578151613ae48882613918565b9750613aef83614cef565b925050600181019050613ad0565b5085935050505092915050565b6000613b1582614cbd565b613b1f8185614d3c565b9350613b2a83614c8c565b8060005b83811015613b5b578151613b428882613930565b9750613b4d83614cfc565b925050600181019050613b2e565b5085935050505092915050565b613b7181614d99565b82525050565b613b8081614d99565b82525050565b613b8f81614dfe565b82525050565b613b9e81614e22565b82525050565b613bad81614e46565b82525050565b613bbc81614e6a565b82525050565b6000613bcf602583614d4d565b91507f46756e642063616e6e6f7420626520737461727465642061742074686174206d60008301527f6f6d656e740000000000000000000000000000000000000000000000000000006020830152604082019050919050565b6000613c35601b83614d4d565b91507f536166654d6174683a206164646974696f6e206f766572666c6f7700000000006000830152602082019050919050565b6000613c75600283614d4d565b91507f54310000000000000000000000000000000000000000000000000000000000006000830152602082019050919050565b6000613cb5602783614d4d565b91507f596f752068617665206e6f74207065726d697373696f6e7320746f207468697360008301527f20616374696f6e000000000000000000000000000000000000000000000000006020830152604082019050919050565b6000613d1b600283614d4d565b91507f42300000000000000000000000000000000000000000000000000000000000006000830152602082019050919050565b6000613d5b602183614d4d565b91507f596f75206e65656420746f206f776e207b746f6b656e46726f6d7d206669727360008301527f74000000000000000000000000000000000000000000000000000000000000006020830152604082019050919050565b6000613dc1601e83614d4d565b91507f536166654d6174683a207375627472616374696f6e206f766572666c6f7700006000830152602082019050919050565b6000613e01602283614d4d565b91507f46756e642073686f756c6420626520696e20616e20416374697665207374617460008301527f75730000000000000000000000000000000000000000000000000000000000006020830152604082019050919050565b6000613e67600283614d4d565b91507f50300000000000000000000000000000000000000000000000000000000000006000830152602082019050919050565b6000613ea7602283614d4d565b91507f46756e642073686f756c6420626520696e20616e204f70656e6564207374617460008301527f75730000000000000000000000000000000000000000000000000000000000006020830152604082019050919050565b6000613f0d602183614d4d565b91507f46756e642070726f66697420697320616c72656164792077697468647261776560008301527f64000000000000000000000000000000000000000000000000000000000000006020830152604082019050919050565b6000613f73600283614d4d565b91507f54300000000000000000000000000000000000000000000000000000000000006000830152602082019050919050565b6000613fb3602a83614d4d565b91507f4f757470757420616d6f756e74206973206c6f776572207468656e207b616d6f60008301527f756e744f75744d696e7d000000000000000000000000000000000000000000006020830152604082019050919050565b6000614019602483614d4d565b91507f4164647265737320686173206e6f206465706f7369747320696e20746869732060008301527f66756e64000000000000000000000000000000000000000000000000000000006020830152604082019050919050565b600061407f602183614d4d565b91507f5369676e6564536166654d6174683a206469766973696f6e206f766572666c6f60008301527f77000000000000000000000000000000000000000000000000000000000000006020830152604082019050919050565b60006140e5600283614d4d565b91507f54320000000000000000000000000000000000000000000000000000000000006000830152602082019050919050565b6000614125601883614d4d565b91507f43616e6e6f742077697468647261772066756e64206e6f7700000000000000006000830152602082019050919050565b6000614165602183614d4d565b91507f536166654d6174683a206d756c7469706c69636174696f6e206f766572666c6f60008301527f77000000000000000000000000000000000000000000000000000000000000006020830152604082019050919050565b60006141cb601983614d4d565b91507f46756e64206973206e6f7420636f6d706c6974656420796574000000000000006000830152602082019050919050565b600061420b602e83614d4d565b91507f4d617820636170206973206f766572666c6f7765642e2054727920746f20736560008301527f6e64206c6f7765722076616c75650000000000000000000000000000000000006020830152604082019050919050565b6000614271601a83614d4d565b91507f496e73756666696369656e7420616d6f756e74206f66204554480000000000006000830152602082019050919050565b60006142b1602783614d4d565b91507f5369676e6564536166654d6174683a206d756c7469706c69636174696f6e206f60008301527f766572666c6f77000000000000000000000000000000000000000000000000006020830152604082019050919050565b6000614317602183614d4d565b91507f596f752068617665206e6f206465706f7369747320696e20746869732066756e60008301527f64000000000000000000000000000000000000000000000000000000000000006020830152604082019050919050565b600061437d601f83614d4d565b91507f54726164696e672077697468206e6f7420616c6c6f77656420746f6b656e73006000830152602082019050919050565b60006143bd603483614d4d565b91507f5472616e73616374696f6e2076616c7565206973206c657373207468656e206d60008301527f696e696d756d206465706f73697420616d6f75740000000000000000000000006020830152604082019050919050565b6000614423602083614d4d565b91507f5369676e6564536166654d6174683a206469766973696f6e206279207a65726f6000830152602082019050919050565b60608201600082015161446c6000850182613957565b50602082015161447f6020850182614513565b5060408201516144926040850182613b68565b50505050565b60c0820160008201516144ae6000850182613975565b5060208201516144c16020850182613975565b5060408201516144d46040850182614513565b5060608201516144e76060850182614513565b5060808201516144fa6080850182614513565b5060a082015161450d60a0850182614513565b50505050565b61451c81614de2565b82525050565b61452b81614de2565b82525050565b60006020820190506145466000830184613948565b92915050565b60006020820190506145616000830184613966565b92915050565b600060408201905061457c6000830185613948565b6145896020830184614522565b9392505050565b6000610180820190506145a6600083018f613984565b6145b3602083018e614522565b6145c0604083018d614522565b6145cd606083018c614522565b6145da608083018b614522565b6145e760a083018a614522565b6145f460c0830189613bb3565b61460160e0830188614522565b61460f610100830187614522565b61461d610120830186614522565b61462b610140830185614522565b81810361016083015261463e8184613aac565b90509d9c50505050505050505050505050565b6000602082019050818103600083015261466b8184613a4e565b905092915050565b6000602082019050818103600083015261468d8184613aac565b905092915050565b600060208201905081810360008301526146af8184613b0a565b905092915050565b60006020820190506146cc6000830184613b77565b92915050565b60006020820190506146e76000830184613b86565b92915050565b60006020820190506147026000830184613b95565b92915050565b600060208201905061471d6000830184613ba4565b92915050565b60006020820190506147386000830184613bb3565b92915050565b6000602082019050818103600083015261475781613bc2565b9050919050565b6000602082019050818103600083015261477781613c28565b9050919050565b6000602082019050818103600083015261479781613c68565b9050919050565b600060208201905081810360008301526147b781613ca8565b9050919050565b600060208201905081810360008301526147d781613d0e565b9050919050565b600060208201905081810360008301526147f781613d4e565b9050919050565b6000602082019050818103600083015261481781613db4565b9050919050565b6000602082019050818103600083015261483781613df4565b9050919050565b6000602082019050818103600083015261485781613e5a565b9050919050565b6000602082019050818103600083015261487781613e9a565b9050919050565b6000602082019050818103600083015261489781613f00565b9050919050565b600060208201905081810360008301526148b781613f66565b9050919050565b600060208201905081810360008301526148d781613fa6565b9050919050565b600060208201905081810360008301526148f78161400c565b9050919050565b6000602082019050818103600083015261491781614072565b9050919050565b60006020820190508181036000830152614937816140d8565b9050919050565b6000602082019050818103600083015261495781614118565b9050919050565b6000602082019050818103600083015261497781614158565b9050919050565b60006020820190508181036000830152614997816141be565b9050919050565b600060208201905081810360008301526149b7816141fe565b9050919050565b600060208201905081810360008301526149d781614264565b9050919050565b600060208201905081810360008301526149f7816142a4565b9050919050565b60006020820190508181036000830152614a178161430a565b9050919050565b60006020820190508181036000830152614a3781614370565b9050919050565b60006020820190508181036000830152614a57816143b0565b9050919050565b60006020820190508181036000830152614a7781614416565b9050919050565b6000602082019050614a936000830184614522565b92915050565b6000604082019050614aae6000830186614522565b8181036020830152614ac1818486613993565b9050949350505050565b6000604082019050614ae06000830185614522565b8181036020830152614af281846139f0565b90509392505050565b6000608082019050614b106000830187614522565b8181036020830152614b2281866139f0565b9050614b316040830185613948565b614b3e6060830184614522565b95945050505050565b600060a082019050614b5c6000830189614522565b614b696020830188614522565b8181036040830152614b7c818688613993565b9050614b8b6060830185613948565b614b986080830184614522565b979650505050505050565b600060a082019050614bb86000830188614522565b614bc56020830187614522565b8181036040830152614bd781866139f0565b9050614be66060830185613948565b614bf36080830184614522565b9695505050505050565b6000604051905081810181811067ffffffffffffffff82111715614c2057600080fd5b8060405250919050565b600067ffffffffffffffff821115614c4157600080fd5b602082029050602081019050919050565b6000819050919050565b6000819050602082019050919050565b6000819050602082019050919050565b6000819050602082019050919050565b6000819050602082019050919050565b600081519050919050565b600081519050919050565b600081519050919050565b600081519050919050565b6000602082019050919050565b6000602082019050919050565b6000602082019050919050565b6000602082019050919050565b6000602082019050919050565b600082825260208201905092915050565b600082825260208201905092915050565b600082825260208201905092915050565b600082825260208201905092915050565b600082825260208201905092915050565b6000614d6d60208401846135bf565b905092915050565b6000614d8082614dc2565b9050919050565b6000614d9282614dc2565b9050919050565b60008115159050919050565b6000819050614db382614ea0565b919050565b6000819050919050565b600073ffffffffffffffffffffffffffffffffffffffff82169050919050565b6000819050919050565b6000614df782614e7c565b9050919050565b6000614e0982614e10565b9050919050565b6000614e1b82614dc2565b9050919050565b6000614e2d82614e34565b9050919050565b6000614e3f82614dc2565b9050919050565b6000614e5182614e58565b9050919050565b6000614e6382614dc2565b9050919050565b6000614e7582614da5565b9050919050565b6000614e8782614e8e565b9050919050565b6000614e9982614dc2565b9050919050565b60038110614eaa57fe5b50565b614eb681614d75565b8114614ec157600080fd5b50565b614ecd81614d87565b8114614ed857600080fd5b50565b614ee481614d99565b8114614eef57600080fd5b50565b614efb81614db8565b8114614f0657600080fd5b50565b614f1281614de2565b8114614f1d57600080fd5b5056fea2646970667358221220f3573b37d5b3f163b871bb79125500f06ad2175876fd6a4c6756e90ee4a5718b64736f6c63430006060033",
  "linkReferences": {},
  "deployedLinkReferences": {}
}