{
  "_format": "hh-sol-artifact-1",
  "contractName": "HedgeFund",
  "sourceName": "contracts/HedgeFund.sol",
  "abi": [
    {
      "inputs": [
        {
          "internalType": "address payable",
          "name": "_swapRouterContract",
          "type": "address"
        },
        {
          "internalType": "address payable",
          "name": "_eFundTokenContract",
          "type": "address"
        },
        {
          "internalType": "address payable",
          "name": "_eFundPlatform",
          "type": "address"
        },
        {
          "internalType": "uint256",
          "name": "_softCap",
          "type": "uint256"
        },
        {
          "internalType": "uint256",
          "name": "_hardCap",
          "type": "uint256"
        },
        {
          "internalType": "address payable",
          "name": "_managerAddress",
          "type": "address"
        },
        {
          "internalType": "uint256",
          "name": "_durationMonths",
          "type": "uint256"
        },
        {
          "internalType": "address payable[]",
          "name": "_allowedTokenAddresses",
          "type": "address[]"
        }
      ],
      "stateMutability": "nonpayable",
      "type": "constructor"
    },
    {
      "anonymous": false,
      "inputs": [],
      "name": "AllDepositsWithdrawed",
      "type": "event"
    },
    {
      "anonymous": false,
      "inputs": [
        {
          "indexed": true,
          "internalType": "address payable",
          "name": "_depositOwner",
          "type": "address"
        },
        {
          "indexed": true,
          "internalType": "uint256",
          "name": "_id",
          "type": "uint256"
        }
      ],
      "name": "DepositWithdrawedBeforeActiveState",
      "type": "event"
    },
    {
      "anonymous": false,
      "inputs": [
        {
          "indexed": false,
          "internalType": "uint256",
          "name": "_newStatus",
          "type": "uint256"
        }
      ],
      "name": "FundStatusChanged",
      "type": "event"
    },
    {
      "anonymous": false,
      "inputs": [
        {
          "indexed": true,
          "internalType": "address payable",
          "name": "_depositOwner",
          "type": "address"
        },
        {
          "indexed": true,
          "internalType": "uint256",
          "name": "_id",
          "type": "uint256"
        },
        {
          "indexed": false,
          "internalType": "uint256",
          "name": "_depositAmount",
          "type": "uint256"
        }
      ],
      "name": "NewDeposit",
      "type": "event"
    },
    {
      "anonymous": false,
      "inputs": [
        {
          "indexed": false,
          "internalType": "address",
          "name": "_tokenFrom",
          "type": "address"
        },
        {
          "indexed": false,
          "internalType": "address",
          "name": "_tokenTo",
          "type": "address"
        },
        {
          "indexed": false,
          "internalType": "uint256",
          "name": "_amountFrom",
          "type": "uint256"
        },
        {
          "indexed": false,
          "internalType": "uint256",
          "name": "_amountTo",
          "type": "uint256"
        }
      ],
      "name": "TokensSwap",
      "type": "event"
    },
    {
      "stateMutability": "payable",
      "type": "fallback"
    },
    {
      "inputs": [
        {
          "internalType": "uint256",
          "name": "",
          "type": "uint256"
        }
      ],
      "name": "allowedTokenAddresses",
      "outputs": [
        {
          "internalType": "address payable",
          "name": "",
          "type": "address"
        }
      ],
      "stateMutability": "view",
      "type": "function"
    },
    {
      "inputs": [],
      "name": "baseBalance",
      "outputs": [
        {
          "internalType": "uint256",
          "name": "",
          "type": "uint256"
        }
      ],
      "stateMutability": "view",
      "type": "function"
    },
    {
      "inputs": [
        {
          "internalType": "uint256",
          "name": "",
          "type": "uint256"
        }
      ],
      "name": "boughtTokenAddresses",
      "outputs": [
        {
          "internalType": "address payable",
          "name": "",
          "type": "address"
        }
      ],
      "stateMutability": "view",
      "type": "function"
    },
    {
      "inputs": [
        {
          "internalType": "uint256",
          "name": "",
          "type": "uint256"
        }
      ],
      "name": "deposits",
      "outputs": [
        {
          "internalType": "address payable",
          "name": "depositOwner",
          "type": "address"
        },
        {
          "internalType": "uint256",
          "name": "depositAmount",
          "type": "uint256"
        }
      ],
      "stateMutability": "view",
      "type": "function"
    },
    {
      "inputs": [],
      "name": "eFund",
      "outputs": [
        {
          "internalType": "contract IERC20",
          "name": "",
          "type": "address"
        }
      ],
      "stateMutability": "view",
      "type": "function"
    },
    {
      "inputs": [],
      "name": "eFundPlatform",
      "outputs": [
        {
          "internalType": "contract EFundPlatform",
          "name": "",
          "type": "address"
        }
      ],
      "stateMutability": "view",
      "type": "function"
    },
    {
      "inputs": [],
      "name": "endBalance",
      "outputs": [
        {
          "internalType": "uint256",
          "name": "",
          "type": "uint256"
        }
      ],
      "stateMutability": "view",
      "type": "function"
    },
    {
      "inputs": [],
      "name": "fundDurationMonths",
      "outputs": [
        {
          "internalType": "uint256",
          "name": "",
          "type": "uint256"
        }
      ],
      "stateMutability": "view",
      "type": "function"
    },
    {
      "inputs": [],
      "name": "fundManager",
      "outputs": [
        {
          "internalType": "address payable",
          "name": "",
          "type": "address"
        }
      ],
      "stateMutability": "view",
      "type": "function"
    },
    {
      "inputs": [],
      "name": "fundStartTimestamp",
      "outputs": [
        {
          "internalType": "uint256",
          "name": "",
          "type": "uint256"
        }
      ],
      "stateMutability": "view",
      "type": "function"
    },
    {
      "inputs": [],
      "name": "fundStatus",
      "outputs": [
        {
          "internalType": "enum HedgeFund.FundStatus",
          "name": "",
          "type": "uint8"
        }
      ],
      "stateMutability": "view",
      "type": "function"
    },
    {
      "inputs": [],
      "name": "getCurrentBalanceInWei",
      "outputs": [
        {
          "internalType": "uint256",
          "name": "",
          "type": "uint256"
        }
      ],
      "stateMutability": "view",
      "type": "function"
    },
    {
      "inputs": [],
      "name": "getEndTime",
      "outputs": [
        {
          "internalType": "uint256",
          "name": "",
          "type": "uint256"
        }
      ],
      "stateMutability": "view",
      "type": "function"
    },
    {
      "inputs": [],
      "name": "getWETH",
      "outputs": [
        {
          "internalType": "address",
          "name": "",
          "type": "address"
        }
      ],
      "stateMutability": "view",
      "type": "function"
    },
    {
      "inputs": [],
      "name": "hardCap",
      "outputs": [
        {
          "internalType": "uint256",
          "name": "",
          "type": "uint256"
        }
      ],
      "stateMutability": "view",
      "type": "function"
    },
    {
      "inputs": [],
      "name": "isDepositsWithdrawed",
      "outputs": [
        {
          "internalType": "bool",
          "name": "",
          "type": "bool"
        }
      ],
      "stateMutability": "view",
      "type": "function"
    },
    {
      "inputs": [
        {
          "internalType": "address",
          "name": "",
          "type": "address"
        }
      ],
      "name": "isTokenAllowed",
      "outputs": [
        {
          "internalType": "bool",
          "name": "",
          "type": "bool"
        }
      ],
      "stateMutability": "view",
      "type": "function"
    },
    {
      "inputs": [
        {
          "internalType": "address",
          "name": "",
          "type": "address"
        }
      ],
      "name": "isTokenBought",
      "outputs": [
        {
          "internalType": "bool",
          "name": "",
          "type": "bool"
        }
      ],
      "stateMutability": "view",
      "type": "function"
    },
    {
      "inputs": [],
      "name": "lockedManagerProfit",
      "outputs": [
        {
          "internalType": "uint256",
          "name": "",
          "type": "uint256"
        }
      ],
      "stateMutability": "view",
      "type": "function"
    },
    {
      "inputs": [],
      "name": "makeDeposit",
      "outputs": [],
      "stateMutability": "payable",
      "type": "function"
    },
    {
      "inputs": [],
      "name": "managerProfitPercentage",
      "outputs": [
        {
          "internalType": "int256",
          "name": "",
          "type": "int256"
        }
      ],
      "stateMutability": "view",
      "type": "function"
    },
    {
      "inputs": [],
      "name": "noProfitFundFee",
      "outputs": [
        {
          "internalType": "int256",
          "name": "",
          "type": "int256"
        }
      ],
      "stateMutability": "view",
      "type": "function"
    },
    {
      "inputs": [],
      "name": "router",
      "outputs": [
        {
          "internalType": "contract UniswapV2Router02",
          "name": "",
          "type": "address"
        }
      ],
      "stateMutability": "view",
      "type": "function"
    },
    {
      "inputs": [],
      "name": "setFundStatusActive",
      "outputs": [],
      "stateMutability": "nonpayable",
      "type": "function"
    },
    {
      "inputs": [],
      "name": "setFundStatusClosed",
      "outputs": [],
      "stateMutability": "nonpayable",
      "type": "function"
    },
    {
      "inputs": [],
      "name": "setFundStatusCompleted",
      "outputs": [],
      "stateMutability": "nonpayable",
      "type": "function"
    },
    {
      "inputs": [],
      "name": "softCap",
      "outputs": [
        {
          "internalType": "uint256",
          "name": "",
          "type": "uint256"
        }
      ],
      "stateMutability": "view",
      "type": "function"
    },
    {
      "inputs": [],
      "name": "swapAllTokensIntoETH",
      "outputs": [],
      "stateMutability": "nonpayable",
      "type": "function"
    },
    {
      "inputs": [
        {
          "internalType": "address payable",
          "name": "tokenFrom",
          "type": "address"
        },
        {
          "internalType": "address payable",
          "name": "tokenTo",
          "type": "address"
        },
        {
          "internalType": "uint256",
          "name": "amountIn",
          "type": "uint256"
        },
        {
          "internalType": "uint256",
          "name": "amountOutMin",
          "type": "uint256"
        }
      ],
      "name": "swapERC20ToERC20",
      "outputs": [
        {
          "internalType": "uint256",
          "name": "",
          "type": "uint256"
        }
      ],
      "stateMutability": "nonpayable",
      "type": "function"
    },
    {
      "inputs": [
        {
          "internalType": "address payable",
          "name": "tokenFrom",
          "type": "address"
        },
        {
          "internalType": "uint256",
          "name": "amountIn",
          "type": "uint256"
        },
        {
          "internalType": "uint256",
          "name": "amountOutMin",
          "type": "uint256"
        }
      ],
      "name": "swapERC20ToETH",
      "outputs": [
        {
          "internalType": "uint256",
          "name": "",
          "type": "uint256"
        }
      ],
      "stateMutability": "nonpayable",
      "type": "function"
    },
    {
      "inputs": [
        {
          "internalType": "address payable",
          "name": "tokenTo",
          "type": "address"
        },
        {
          "internalType": "uint256",
          "name": "amountIn",
          "type": "uint256"
        },
        {
          "internalType": "uint256",
          "name": "amountOutMin",
          "type": "uint256"
        }
      ],
      "name": "swapETHToERC20",
      "outputs": [
        {
          "internalType": "uint256",
          "name": "",
          "type": "uint256"
        }
      ],
      "stateMutability": "nonpayable",
      "type": "function"
    },
    {
      "inputs": [],
      "name": "withdraw",
      "outputs": [],
      "stateMutability": "nonpayable",
      "type": "function"
    },
    {
      "inputs": [],
      "name": "withdrawBeforeFundStarted",
      "outputs": [],
      "stateMutability": "nonpayable",
      "type": "function"
    },
    {
      "inputs": [],
      "name": "withdrawToManager",
      "outputs": [],
      "stateMutability": "nonpayable",
      "type": "function"
    },
    {
      "stateMutability": "payable",
      "type": "receive"
    }
  ],
  "bytecode": "0x6101606040523480156200001257600080fd5b5060405162004edb38038062004edb83398181016040526101008110156200003957600080fd5b810190808051906020019092919080519060200190929190805190602001909291908051906020019092919080519060200190929190805190602001909291908051906020019092919080516040519392919084640100000000821115620000a057600080fd5b83820191506020820185811115620000b757600080fd5b8251866020820283011164010000000082111715620000d557600080fd5b8083526020830192505050908051906020019060200280838360005b838110156200010e578082015181840152602081019050620000f1565b505050509050016040525050506200012c826200038560201b60201c565b6200019f576040517f08c379a00000000000000000000000000000000000000000000000000000000081526004018080602001828103825260108152602001807f496e76616c6964206475726174696f6e0000000000000000000000000000000081525060200191505060405180910390fd5b8773ffffffffffffffffffffffffffffffffffffffff166101408173ffffffffffffffffffffffffffffffffffffffff1660601b815250508673ffffffffffffffffffffffffffffffffffffffff1660808173ffffffffffffffffffffffffffffffffffffffff1660601b815250508573ffffffffffffffffffffffffffffffffffffffff1660a08173ffffffffffffffffffffffffffffffffffffffff1660601b815250508273ffffffffffffffffffffffffffffffffffffffff166101008173ffffffffffffffffffffffffffffffffffffffff1660601b815250506000600160006101000a81548160ff021916908360038111156200029d57fe5b02179055508161012081815250508460c081815250508360e081815250508060079080519060200190620002d3929190620003b6565b506000600a60006101000a81548160ff02191690831515021790555060005b815181101562000376576001600960008484815181106200030f57fe5b602002602001015173ffffffffffffffffffffffffffffffffffffffff1673ffffffffffffffffffffffffffffffffffffffff16815260200190815260200160002060006101000a81548160ff0219169083151502179055508080600101915050620002f2565b5050505050505050506200048b565b60006001821480620003975750600282145b80620003a35750600382145b80620003af5750600682145b9050919050565b82805482825590600052602060002090810192821562000432579160200282015b82811115620004315782518260006101000a81548173ffffffffffffffffffffffffffffffffffffffff021916908373ffffffffffffffffffffffffffffffffffffffff16021790555091602001919060010190620003d7565b5b50905062000441919062000445565b5090565b6200048891905b808211156200048457600081816101000a81549073ffffffffffffffffffffffffffffffffffffffff0219169055506001016200044c565b5090565b90565b60805160601c60a05160601c60c05160e0516101005160601c610120516101405160601c61495f6200057c6000398061163c52806116e6528061190052806119c95280611eee5280611f9952806121995280612a2a5280612c185280612ce1528061344e52806137d952806139f35280613abc52806141485250806113eb52806125cc525080610afa5280610d5152806114ba5280611d3b52806125a2528061286752806131e952806135795280614022525080611233528061418c5250806111ba52806125f0525080610bf8528061141652806131ad52806132a55280613fbb52508061257e525061495f6000f3fe6080604052600436106101fd5760003560e01c8063a1956e321161010d578063d10d51a2116100a0578063e6c6a8901161006f578063e6c6a890146108e9578063f887ea4014610964578063f9eaee0d146109bb578063fb86a40414610a24578063fe1781c814610a4f57610204565b8063d10d51a2146107d5578063d51f996e14610800578063e39e45e214610899578063e4206f10146108d257610204565b8063afb8b63a116100dc578063afb8b63a1461066a578063b02c43d014610681578063c4c23bdc14610703578063cae5f11e1461077e57610204565b8063a1956e3214610594578063a63d78b1146105bf578063adc59278146105ea578063ae86d6fc1461065357610204565b806349c86029116101905780636209ec2d1161015f5780636209ec2d146104a5578063638a4b17146104fc5780636da797c914610527578063906a26e0146105525780639cd1b2411461057d57610204565b806349c860291461032d5780634d820b9a146103a65780636032c7e3146103d5578063611b53221461044e57610204565b80633ccfd60b116101cc5780633ccfd60b1461028a57806340732c89146102a1578063439f5ac2146102ab57806347f5b232146102d657610204565b806307ea630314610206578063084b56261461021d5780630b77b3b51461024857806338bde7911461025f57610204565b3661020457005b005b34801561021257600080fd5b5061021b610a7a565b005b34801561022957600080fd5b50610232610cc9565b6040518082815260200191505060405180910390f35b34801561025457600080fd5b5061025d610cd1565b005b34801561026b57600080fd5b50610274610f2d565b6040518082815260200191505060405180910390f35b34801561029657600080fd5b5061029f610f33565b005b6102a961113a565b005b3480156102b757600080fd5b506102c06113e3565b6040518082815260200191505060405180910390f35b3480156102e257600080fd5b506102eb611414565b604051808273ffffffffffffffffffffffffffffffffffffffff1673ffffffffffffffffffffffffffffffffffffffff16815260200191505060405180910390f35b34801561033957600080fd5b506103906004803603606081101561035057600080fd5b81019080803573ffffffffffffffffffffffffffffffffffffffff1690602001909291908035906020019092919080359060200190929190505050611438565b6040518082815260200191505060405180910390f35b3480156103b257600080fd5b506103bb611ca6565b604051808215151515815260200191505060405180910390f35b3480156103e157600080fd5b50610438600480360360608110156103f857600080fd5b81019080803573ffffffffffffffffffffffffffffffffffffffff1690602001909291908035906020019092919080359060200190929190505050611cb9565b6040518082815260200191505060405180910390f35b34801561045a57600080fd5b5061046361257c565b604051808273ffffffffffffffffffffffffffffffffffffffff1673ffffffffffffffffffffffffffffffffffffffff16815260200191505060405180910390f35b3480156104b157600080fd5b506104ba6125a0565b604051808273ffffffffffffffffffffffffffffffffffffffff1673ffffffffffffffffffffffffffffffffffffffff16815260200191505060405180910390f35b34801561050857600080fd5b506105116125c4565b6040518082815260200191505060405180910390f35b34801561053357600080fd5b5061053c6125ca565b6040518082815260200191505060405180910390f35b34801561055e57600080fd5b506105676125ee565b6040518082815260200191505060405180910390f35b34801561058957600080fd5b50610592612612565b005b3480156105a057600080fd5b506105a961283a565b6040518082815260200191505060405180910390f35b3480156105cb57600080fd5b506105d4612840565b6040518082815260200191505060405180910390f35b3480156105f657600080fd5b506106396004803603602081101561060d57600080fd5b81019080803573ffffffffffffffffffffffffffffffffffffffff169060200190929190505050612845565b604051808215151515815260200191505060405180910390f35b34801561065f57600080fd5b50610668612865565b005b34801561067657600080fd5b5061067f61307a565b005b34801561068d57600080fd5b506106ba600480360360208110156106a457600080fd5b81019080803590602001909291905050506133bd565b604051808373ffffffffffffffffffffffffffffffffffffffff1673ffffffffffffffffffffffffffffffffffffffff1681526020018281526020019250505060405180910390f35b34801561070f57600080fd5b5061073c6004803603602081101561072657600080fd5b810190808035906020019092919050505061340e565b604051808273ffffffffffffffffffffffffffffffffffffffff1673ffffffffffffffffffffffffffffffffffffffff16815260200191505060405180910390f35b34801561078a57600080fd5b5061079361344a565b604051808273ffffffffffffffffffffffffffffffffffffffff1673ffffffffffffffffffffffffffffffffffffffff16815260200191505060405180910390f35b3480156107e157600080fd5b506107ea6134f2565b6040518082815260200191505060405180910390f35b34801561080c57600080fd5b506108836004803603608081101561082357600080fd5b81019080803573ffffffffffffffffffffffffffffffffffffffff169060200190929190803573ffffffffffffffffffffffffffffffffffffffff16906020019092919080359060200190929190803590602001909291905050506134f7565b6040518082815260200191505060405180910390f35b3480156108a557600080fd5b506108ae613ea7565b604051808260038111156108be57fe5b60ff16815260200191505060405180910390f35b3480156108de57600080fd5b506108e7613eba565b005b3480156108f557600080fd5b506109226004803603602081101561090c57600080fd5b810190808035906020019092919050505061410a565b604051808273ffffffffffffffffffffffffffffffffffffffff1673ffffffffffffffffffffffffffffffffffffffff16815260200191505060405180910390f35b34801561097057600080fd5b50610979614146565b604051808273ffffffffffffffffffffffffffffffffffffffff1673ffffffffffffffffffffffffffffffffffffffff16815260200191505060405180910390f35b3480156109c757600080fd5b50610a0a600480360360208110156109de57600080fd5b81019080803573ffffffffffffffffffffffffffffffffffffffff16906020019092919050505061416a565b604051808215151515815260200191505060405180910390f35b348015610a3057600080fd5b50610a3961418a565b6040518082815260200191505060405180910390f35b348015610a5b57600080fd5b50610a646141ae565b6040518082815260200191505060405180910390f35b60026003811115610a8757fe5b600160009054906101000a900460ff166003811115610aa257fe5b14610af8576040517f08c379a00000000000000000000000000000000000000000000000000000000081526004018080602001828103825260258152602001806146dc6025913960400191505060405180910390fd5b7f000000000000000000000000000000000000000000000000000000000000000073ffffffffffffffffffffffffffffffffffffffff163373ffffffffffffffffffffffffffffffffffffffff161480610b7d57503073ffffffffffffffffffffffffffffffffffffffff163373ffffffffffffffffffffffffffffffffffffffff16145b610bd2576040517f08c379a00000000000000000000000000000000000000000000000000000000081526004018080602001828103825260278152602001806147596027913960400191505060405180910390fd5b6003600160006101000a81548160ff02191690836003811115610bf157fe5b02179055507f000000000000000000000000000000000000000000000000000000000000000073ffffffffffffffffffffffffffffffffffffffff1663e3a1c6fe6040518163ffffffff1660e01b8152600401600060405180830381600087803b158015610c5e57600080fd5b505af1158015610c72573d6000803e3d6000fd5b505050507fbc141a1c0c073ed34f6fa9cdc66bb9473f488bccda93d1e43bb9a15c4391a92f600160009054906101000a900460ff166003811115610cb257fe5b6040518082815260200191505060405180910390a1565b600047905090565b60006003811115610cde57fe5b600160009054906101000a900460ff166003811115610cf957fe5b14610d4f576040517f08c379a00000000000000000000000000000000000000000000000000000000081526004018080602001828103825260228152602001806147e46022913960400191505060405180910390fd5b7f000000000000000000000000000000000000000000000000000000000000000073ffffffffffffffffffffffffffffffffffffffff163373ffffffffffffffffffffffffffffffffffffffff161480610dd457503073ffffffffffffffffffffffffffffffffffffffff163373ffffffffffffffffffffffffffffffffffffffff16145b610e29576040517f08c379a00000000000000000000000000000000000000000000000000000000081526004018080602001828103825260278152602001806147596027913960400191505060405180910390fd5b60018060006101000a81548160ff02191690836003811115610e4757fe5b02179055503073ffffffffffffffffffffffffffffffffffffffff1663084b56266040518163ffffffff1660e01b815260040160206040518083038186803b158015610e9257600080fd5b505afa158015610ea6573d6000803e3d6000fd5b505050506040513d6020811015610ebc57600080fd5b8101908080519060200190929190505050600381905550426002819055507fbc141a1c0c073ed34f6fa9cdc66bb9473f488bccda93d1e43bb9a15c4391a92f600160009054906101000a900460ff166003811115610f1657fe5b6040518082815260200191505060405180910390a1565b60035481565b60026003811115610f4057fe5b600160009054906101000a900460ff166003811115610f5b57fe5b1480610f8b5750600380811115610f6e57fe5b600160009054906101000a900460ff166003811115610f8957fe5b145b610ffd576040517f08c379a00000000000000000000000000000000000000000000000000000000081526004018080602001828103825260198152602001807f46756e64206973206e6f7420636f6d706c69746564207965740000000000000081525060200191505060405180910390fd5b600a60009054906101000a900460ff1615611063576040517f08c379a00000000000000000000000000000000000000000000000000000000081526004018080602001828103825260238152602001806147366023913960400191505060405180910390fd5b60005b6000805490508110156110f0576110966000828154811061108357fe5b90600052602060002090600202016141b4565b600081815481106110a357fe5b9060005260206000209060020201600080820160006101000a81549073ffffffffffffffffffffffffffffffffffffffff0219169055600182016000905550508080600101915050611066565b506001600a60006101000a81548160ff0219169083151502179055507f70ac3d3f37bb5712619702156bd9af57f16ac82695c742a80d49800cd046be7060405160405180910390a1565b6000600381111561114757fe5b600160009054906101000a900460ff16600381111561116257fe5b146111b8576040517f08c379a00000000000000000000000000000000000000000000000000000000081526004018080602001828103825260228152602001806147e46022913960400191505060405180910390fd5b7f0000000000000000000000000000000000000000000000000000000000000000341015611231576040517f08c379a00000000000000000000000000000000000000000000000000000000081526004018080602001828103825260348152602001806148d56034913960400191505060405180910390fd5b7f0000000000000000000000000000000000000000000000000000000000000000343073ffffffffffffffffffffffffffffffffffffffff1663084b56266040518163ffffffff1660e01b815260040160206040518083038186803b15801561129957600080fd5b505afa1580156112ad573d6000803e3d6000fd5b505050506040513d60208110156112c357600080fd5b810190808051906020019092919050505001111561132c576040517f08c379a00000000000000000000000000000000000000000000000000000000081526004018080602001828103825260368152602001806148786036913960400191505060405180910390fd5b6113346146ab565b60405180604001604052803373ffffffffffffffffffffffffffffffffffffffff168152602001348152509050600081908060018154018082558091505060019003906000526020600020906002020160009091909190915060008201518160000160006101000a81548173ffffffffffffffffffffffffffffffffffffffff021916908373ffffffffffffffffffffffffffffffffffffffff16021790555060208201518160010155505050565b600062278d007f00000000000000000000000000000000000000000000000000000000000000000260025401905090565b7f000000000000000000000000000000000000000000000000000000000000000081565b60006001600381111561144757fe5b600160009054906101000a900460ff16600381111561146257fe5b146114b8576040517f08c379a00000000000000000000000000000000000000000000000000000000081526004018080602001828103825260228152602001806147a16022913960400191505060405180910390fd5b7f000000000000000000000000000000000000000000000000000000000000000073ffffffffffffffffffffffffffffffffffffffff163373ffffffffffffffffffffffffffffffffffffffff16148061153d57503073ffffffffffffffffffffffffffffffffffffffff163373ffffffffffffffffffffffffffffffffffffffff16145b611592576040517f08c379a00000000000000000000000000000000000000000000000000000000081526004018080602001828103825260278152602001806147596027913960400191505060405180910390fd5b600860008573ffffffffffffffffffffffffffffffffffffffff1673ffffffffffffffffffffffffffffffffffffffff16815260200190815260200160002060009054906101000a900460ff16611634576040517f08c379a00000000000000000000000000000000000000000000000000000000081526004018080602001828103825260218152602001806147806021913960400191505060405180910390fd5b60606116e0857f000000000000000000000000000000000000000000000000000000000000000073ffffffffffffffffffffffffffffffffffffffff1663ad5c46486040518163ffffffff1660e01b815260040160206040518083038186803b1580156116a057600080fd5b505afa1580156116b4573d6000803e3d6000fd5b505050506040513d60208110156116ca57600080fd5b81019080805190602001909291905050506142d0565b905060007f000000000000000000000000000000000000000000000000000000000000000073ffffffffffffffffffffffffffffffffffffffff1663d06ca61f86846040518363ffffffff1660e01b81526004018083815260200180602001828103825283818151815260200191508051906020019060200280838360005b8381101561177a57808201518184015260208101905061175f565b50505050905001935050505060006040518083038186803b15801561179e57600080fd5b505afa1580156117b2573d6000803e3d6000fd5b505050506040513d6000823e3d601f19601f8201168201806040525060208110156117dc57600080fd5b81019080805160405193929190846401000000008211156117fc57600080fd5b8382019150602082018581111561181257600080fd5b825186602082028301116401000000008211171561182f57600080fd5b8083526020830192505050908051906020019060200280838360005b8381101561186657808201518184015260208101905061184b565b5050505090500160405250505060018151811061187f57fe5b60200260200101519050838110156118e2576040517f08c379a000000000000000000000000000000000000000000000000000000000815260040180806020018281038252602a815260200180614806602a913960400191505060405180910390fd5b8573ffffffffffffffffffffffffffffffffffffffff1663095ea7b37f0000000000000000000000000000000000000000000000000000000000000000876040518363ffffffff1660e01b8152600401808373ffffffffffffffffffffffffffffffffffffffff1673ffffffffffffffffffffffffffffffffffffffff16815260200182815260200192505050602060405180830381600087803b15801561198957600080fd5b505af115801561199d573d6000803e3d6000fd5b505050506040513d60208110156119b357600080fd5b81019080805190602001909291905050505060607f000000000000000000000000000000000000000000000000000000000000000073ffffffffffffffffffffffffffffffffffffffff166318cbafe58784863061070842016040518663ffffffff1660e01b815260040180868152602001858152602001806020018473ffffffffffffffffffffffffffffffffffffffff1673ffffffffffffffffffffffffffffffffffffffff168152602001838152602001828103825285818151815260200191508051906020019060200280838360005b83811015611aa2578082015181840152602081019050611a87565b505050509050019650505050505050600060405180830381600087803b158015611acb57600080fd5b505af1158015611adf573d6000803e3d6000fd5b505050506040513d6000823e3d601f19601f820116820180604052506020811015611b0957600080fd5b8101908080516040519392919084640100000000821115611b2957600080fd5b83820191506020820185811115611b3f57600080fd5b8251866020820283011164010000000082111715611b5c57600080fd5b8083526020830192505050908051906020019060200280838360005b83811015611b93578082015181840152602081019050611b78565b5050505090500160405250505090507f6e31608d2e2f6546c30f3320a34d3826089ef057b2f52e93c107ca9d360f6dd483600081518110611bd057fe5b602002602001015184600181518110611be557fe5b60200260200101518884600181518110611bfb57fe5b6020026020010151604051808573ffffffffffffffffffffffffffffffffffffffff1673ffffffffffffffffffffffffffffffffffffffff1681526020018473ffffffffffffffffffffffffffffffffffffffff1673ffffffffffffffffffffffffffffffffffffffff16815260200183815260200182815260200194505050505060405180910390a180600181518110611c9257fe5b602002602001015193505050509392505050565b600a60009054906101000a900460ff1681565b600060016003811115611cc857fe5b600160009054906101000a900460ff166003811115611ce357fe5b14611d39576040517f08c379a00000000000000000000000000000000000000000000000000000000081526004018080602001828103825260228152602001806147a16022913960400191505060405180910390fd5b7f000000000000000000000000000000000000000000000000000000000000000073ffffffffffffffffffffffffffffffffffffffff163373ffffffffffffffffffffffffffffffffffffffff161480611dbe57503073ffffffffffffffffffffffffffffffffffffffff163373ffffffffffffffffffffffffffffffffffffffff16145b611e13576040517f08c379a00000000000000000000000000000000000000000000000000000000081526004018080602001828103825260278152602001806147596027913960400191505060405180910390fd5b600060078054905014611e7257600960008573ffffffffffffffffffffffffffffffffffffffff1673ffffffffffffffffffffffffffffffffffffffff16815260200190815260200160002060009054906101000a900460ff16611e75565b60015b611ee7576040517f08c379a000000000000000000000000000000000000000000000000000000000815260040180806020018281038252601f8152602001807f54726164696e672077697468206e6f7420616c6c6f77656420746f6b656e730081525060200191505060405180910390fd5b6060611f937f000000000000000000000000000000000000000000000000000000000000000073ffffffffffffffffffffffffffffffffffffffff1663ad5c46486040518163ffffffff1660e01b815260040160206040518083038186803b158015611f5257600080fd5b505afa158015611f66573d6000803e3d6000fd5b505050506040513d6020811015611f7c57600080fd5b8101908080519060200190929190505050866142d0565b905060007f000000000000000000000000000000000000000000000000000000000000000073ffffffffffffffffffffffffffffffffffffffff1663d06ca61f86846040518363ffffffff1660e01b81526004018083815260200180602001828103825283818151815260200191508051906020019060200280838360005b8381101561202d578082015181840152602081019050612012565b50505050905001935050505060006040518083038186803b15801561205157600080fd5b505afa158015612065573d6000803e3d6000fd5b505050506040513d6000823e3d601f19601f82011682018060405250602081101561208f57600080fd5b81019080805160405193929190846401000000008211156120af57600080fd5b838201915060208201858111156120c557600080fd5b82518660208202830111640100000000821117156120e257600080fd5b8083526020830192505050908051906020019060200280838360005b838110156121195780820151818401526020810190506120fe565b5050505090500160405250505060018151811061213257fe5b6020026020010151905083811015612195576040517f08c379a000000000000000000000000000000000000000000000000000000000815260040180806020018281038252602a815260200180614806602a913960400191505060405180910390fd5b60607f000000000000000000000000000000000000000000000000000000000000000073ffffffffffffffffffffffffffffffffffffffff1663fb3bdb418784863061070842016040518663ffffffff1660e01b815260040180858152602001806020018473ffffffffffffffffffffffffffffffffffffffff1673ffffffffffffffffffffffffffffffffffffffff168152602001838152602001828103825285818151815260200191508051906020019060200280838360005b8381101561226c578082015181840152602081019050612251565b50505050905001955050505050506000604051808303818588803b15801561229357600080fd5b505af11580156122a7573d6000803e3d6000fd5b50505050506040513d6000823e3d601f19601f8201168201806040525060208110156122d257600080fd5b81019080805160405193929190846401000000008211156122f257600080fd5b8382019150602082018581111561230857600080fd5b825186602082028301116401000000008211171561232557600080fd5b8083526020830192505050908051906020019060200280838360005b8381101561235c578082015181840152602081019050612341565b505050509050016040525050509050600860008873ffffffffffffffffffffffffffffffffffffffff1673ffffffffffffffffffffffffffffffffffffffff16815260200190815260200160002060009054906101000a900460ff16612478576006879080600181540180825580915050600190039060005260206000200160009091909190916101000a81548173ffffffffffffffffffffffffffffffffffffffff021916908373ffffffffffffffffffffffffffffffffffffffff1602179055506001600860008973ffffffffffffffffffffffffffffffffffffffff1673ffffffffffffffffffffffffffffffffffffffff16815260200190815260200160002060006101000a81548160ff0219169083151502179055505b7f6e31608d2e2f6546c30f3320a34d3826089ef057b2f52e93c107ca9d360f6dd4836000815181106124a657fe5b6020026020010151846001815181106124bb57fe5b602002602001015188846001815181106124d157fe5b6020026020010151604051808573ffffffffffffffffffffffffffffffffffffffff1673ffffffffffffffffffffffffffffffffffffffff1681526020018473ffffffffffffffffffffffffffffffffffffffff1673ffffffffffffffffffffffffffffffffffffffff16815260200183815260200182815260200194505050505060405180910390a18060018151811061256857fe5b602002602001015193505050509392505050565b7f000000000000000000000000000000000000000000000000000000000000000081565b7f000000000000000000000000000000000000000000000000000000000000000081565b60025481565b7f000000000000000000000000000000000000000000000000000000000000000081565b7f000000000000000000000000000000000000000000000000000000000000000081565b6000600381111561261f57fe5b600160009054906101000a900460ff16600381111561263a57fe5b14612690576040517f08c379a00000000000000000000000000000000000000000000000000000000081526004018080602001828103825260228152602001806147e46022913960400191505060405180910390fd5b600080905060008090505b6000805490508110156127e0573373ffffffffffffffffffffffffffffffffffffffff16600082815481106126cc57fe5b906000526020600020906002020160000160009054906101000a900473ffffffffffffffffffffffffffffffffffffffff1673ffffffffffffffffffffffffffffffffffffffff1614156127d357600191506127416000828154811061272e57fe5b90600052602060002090600202016141b4565b803373ffffffffffffffffffffffffffffffffffffffff167fe737dc9ea16794043839aa01f063bf3e6faa009fe354f0b6ae1d7ab6dc20ac3460405160405180910390a36000818154811061279257fe5b9060005260206000209060020201600080820160006101000a81549073ffffffffffffffffffffffffffffffffffffffff0219169055600182016000905550505b808060010191505061269b565b5080612837576040517f08c379a00000000000000000000000000000000000000000000000000000000081526004018080602001828103825260278152602001806148ae6027913960400191505060405180910390fd5b50565b60045481565b605a81565b60086020528060005260406000206000915054906101000a900460ff1681565b7f000000000000000000000000000000000000000000000000000000000000000073ffffffffffffffffffffffffffffffffffffffff163373ffffffffffffffffffffffffffffffffffffffff1614806128ea57503073ffffffffffffffffffffffffffffffffffffffff163373ffffffffffffffffffffffffffffffffffffffff16145b61293f576040517f08c379a00000000000000000000000000000000000000000000000000000000081526004018080602001828103825260278152602001806147596027913960400191505060405180910390fd5b6000600381111561294c57fe5b600160009054906101000a900460ff16600381111561296757fe5b14156129db576040517f08c379a00000000000000000000000000000000000000000000000000000000081526004018080602001828103825260168152602001807f46756e642073686f756c6420626520737461727465640000000000000000000081525060200191505060405180910390fd5b60005b600680549050811015613077576060612ace600683815481106129fd57fe5b9060005260206000200160009054906101000a900473ffffffffffffffffffffffffffffffffffffffff167f000000000000000000000000000000000000000000000000000000000000000073ffffffffffffffffffffffffffffffffffffffff1663ad5c46486040518163ffffffff1660e01b815260040160206040518083038186803b158015612a8e57600080fd5b505afa158015612aa2573d6000803e3d6000fd5b505050506040513d6020811015612ab857600080fd5b81019080805190602001909291905050506142d0565b9050600060068381548110612adf57fe5b9060005260206000200160009054906101000a900473ffffffffffffffffffffffffffffffffffffffff1673ffffffffffffffffffffffffffffffffffffffff166370a08231306040518263ffffffff1660e01b8152600401808273ffffffffffffffffffffffffffffffffffffffff1673ffffffffffffffffffffffffffffffffffffffff16815260200191505060206040518083038186803b158015612b8657600080fd5b505afa158015612b9a573d6000803e3d6000fd5b505050506040513d6020811015612bb057600080fd5b8101908080519060200190929190505050905060068381548110612bd057fe5b9060005260206000200160009054906101000a900473ffffffffffffffffffffffffffffffffffffffff1673ffffffffffffffffffffffffffffffffffffffff1663095ea7b37f0000000000000000000000000000000000000000000000000000000000000000836040518363ffffffff1660e01b8152600401808373ffffffffffffffffffffffffffffffffffffffff1673ffffffffffffffffffffffffffffffffffffffff16815260200182815260200192505050602060405180830381600087803b158015612ca157600080fd5b505af1158015612cb5573d6000803e3d6000fd5b505050506040513d6020811015612ccb57600080fd5b81019080805190602001909291905050505060607f000000000000000000000000000000000000000000000000000000000000000073ffffffffffffffffffffffffffffffffffffffff166318cbafe5836000863061070842016040518663ffffffff1660e01b815260040180868152602001858152602001806020018473ffffffffffffffffffffffffffffffffffffffff1673ffffffffffffffffffffffffffffffffffffffff168152602001838152602001828103825285818151815260200191508051906020019060200280838360005b83811015612dbb578082015181840152602081019050612da0565b505050509050019650505050505050600060405180830381600087803b158015612de457600080fd5b505af1158015612df8573d6000803e3d6000fd5b505050506040513d6000823e3d601f19601f820116820180604052506020811015612e2257600080fd5b8101908080516040519392919084640100000000821115612e4257600080fd5b83820191506020820185811115612e5857600080fd5b8251866020820283011164010000000082111715612e7557600080fd5b8083526020830192505050908051906020019060200280838360005b83811015612eac578082015181840152602081019050612e91565b5050505090500160405250505090507f6e31608d2e2f6546c30f3320a34d3826089ef057b2f52e93c107ca9d360f6dd483600081518110612ee957fe5b602002602001015184600181518110612efe57fe5b60200260200101518484600181518110612f1457fe5b6020026020010151604051808573ffffffffffffffffffffffffffffffffffffffff1673ffffffffffffffffffffffffffffffffffffffff1681526020018473ffffffffffffffffffffffffffffffffffffffff1673ffffffffffffffffffffffffffffffffffffffff16815260200183815260200182815260200194505050505060405180910390a160006008600060068781548110612fb157fe5b9060005260206000200160009054906101000a900473ffffffffffffffffffffffffffffffffffffffff1673ffffffffffffffffffffffffffffffffffffffff1673ffffffffffffffffffffffffffffffffffffffff16815260200190815260200160002060006101000a81548160ff0219169083151502179055506006848154811061303a57fe5b9060005260206000200160006101000a81549073ffffffffffffffffffffffffffffffffffffffff021916905550505080806001019150506129de565b50565b6001600381111561308757fe5b600160009054906101000a900460ff1660038111156130a257fe5b146130f8576040517f08c379a00000000000000000000000000000000000000000000000000000000081526004018080602001828103825260228152602001806147a16022913960400191505060405180910390fd5b6002600160006101000a81548160ff0219169083600381111561311757fe5b02179055503073ffffffffffffffffffffffffffffffffffffffff1663084b56266040518163ffffffff1660e01b815260040160206040518083038186803b15801561316257600080fd5b505afa158015613176573d6000803e3d6000fd5b505050506040513d602081101561318c57600080fd5b810190808051906020019092919050505060048190555060006133516133497f000000000000000000000000000000000000000000000000000000000000000073ffffffffffffffffffffffffffffffffffffffff1663ca8f4ae87f00000000000000000000000000000000000000000000000000000000000000006040518263ffffffff1660e01b8152600401808273ffffffffffffffffffffffffffffffffffffffff1673ffffffffffffffffffffffffffffffffffffffff16815260200191505060206040518083038186803b15801561326857600080fd5b505afa15801561327c573d6000803e3d6000fd5b505050506040513d602081101561329257600080fd5b81019080805190602001909291905050507f000000000000000000000000000000000000000000000000000000000000000073ffffffffffffffffffffffffffffffffffffffff166322ab155e6040518163ffffffff1660e01b815260040160206040518083038186803b15801561330957600080fd5b505afa15801561331d573d6000803e3d6000fd5b505050506040513d602081101561333357600080fd5b81019080805190602001909291905050506143b7565b6004546143e9565b90506003548160045403111561336957806005819055505b7fbc141a1c0c073ed34f6fa9cdc66bb9473f488bccda93d1e43bb9a15c4391a92f600160009054906101000a900460ff1660038111156133a557fe5b6040518082815260200191505060405180910390a150565b600081815481106133ca57fe5b90600052602060002090600202016000915090508060000160009054906101000a900473ffffffffffffffffffffffffffffffffffffffff16908060010154905082565b6007818154811061341b57fe5b906000526020600020016000915054906101000a900473ffffffffffffffffffffffffffffffffffffffff1681565b60007f000000000000000000000000000000000000000000000000000000000000000073ffffffffffffffffffffffffffffffffffffffff1663ad5c46486040518163ffffffff1660e01b815260040160206040518083038186803b1580156134b257600080fd5b505afa1580156134c6573d6000803e3d6000fd5b505050506040513d60208110156134dc57600080fd5b8101908080519060200190929190505050905090565b600381565b60006001600381111561350657fe5b600160009054906101000a900460ff16600381111561352157fe5b14613577576040517f08c379a00000000000000000000000000000000000000000000000000000000081526004018080602001828103825260228152602001806147a16022913960400191505060405180910390fd5b7f000000000000000000000000000000000000000000000000000000000000000073ffffffffffffffffffffffffffffffffffffffff163373ffffffffffffffffffffffffffffffffffffffff1614806135fc57503073ffffffffffffffffffffffffffffffffffffffff163373ffffffffffffffffffffffffffffffffffffffff16145b613651576040517f08c379a00000000000000000000000000000000000000000000000000000000081526004018080602001828103825260278152602001806147596027913960400191505060405180910390fd5b600860008673ffffffffffffffffffffffffffffffffffffffff1673ffffffffffffffffffffffffffffffffffffffff16815260200190815260200160002060009054906101000a900460ff166136f3576040517f08c379a00000000000000000000000000000000000000000000000000000000081526004018080602001828103825260218152602001806149096021913960400191505060405180910390fd5b60006007805490501461375257600960008573ffffffffffffffffffffffffffffffffffffffff1673ffffffffffffffffffffffffffffffffffffffff16815260200190815260200160002060009054906101000a900460ff16613755565b60015b6137c7576040517f08c379a000000000000000000000000000000000000000000000000000000000815260040180806020018281038252601f8152602001807f54726164696e672077697468206e6f7420616c6c6f77656420746f6b656e730081525060200191505060405180910390fd5b60606137d386866142d0565b905060007f000000000000000000000000000000000000000000000000000000000000000073ffffffffffffffffffffffffffffffffffffffff1663d06ca61f86846040518363ffffffff1660e01b81526004018083815260200180602001828103825283818151815260200191508051906020019060200280838360005b8381101561386d578082015181840152602081019050613852565b50505050905001935050505060006040518083038186803b15801561389157600080fd5b505afa1580156138a5573d6000803e3d6000fd5b505050506040513d6000823e3d601f19601f8201168201806040525060208110156138cf57600080fd5b81019080805160405193929190846401000000008211156138ef57600080fd5b8382019150602082018581111561390557600080fd5b825186602082028301116401000000008211171561392257600080fd5b8083526020830192505050908051906020019060200280838360005b8381101561395957808201518184015260208101905061393e565b5050505090500160405250505060018151811061397257fe5b60200260200101519050838110156139d5576040517f08c379a000000000000000000000000000000000000000000000000000000000815260040180806020018281038252602a815260200180614806602a913960400191505060405180910390fd5b8673ffffffffffffffffffffffffffffffffffffffff1663095ea7b37f0000000000000000000000000000000000000000000000000000000000000000876040518363ffffffff1660e01b8152600401808373ffffffffffffffffffffffffffffffffffffffff1673ffffffffffffffffffffffffffffffffffffffff16815260200182815260200192505050602060405180830381600087803b158015613a7c57600080fd5b505af1158015613a90573d6000803e3d6000fd5b505050506040513d6020811015613aa657600080fd5b81019080805190602001909291905050505060607f000000000000000000000000000000000000000000000000000000000000000073ffffffffffffffffffffffffffffffffffffffff166338ed17398784863061070842016040518663ffffffff1660e01b815260040180868152602001858152602001806020018473ffffffffffffffffffffffffffffffffffffffff1673ffffffffffffffffffffffffffffffffffffffff168152602001838152602001828103825285818151815260200191508051906020019060200280838360005b83811015613b95578082015181840152602081019050613b7a565b505050509050019650505050505050600060405180830381600087803b158015613bbe57600080fd5b505af1158015613bd2573d6000803e3d6000fd5b505050506040513d6000823e3d601f19601f820116820180604052506020811015613bfc57600080fd5b8101908080516040519392919084640100000000821115613c1c57600080fd5b83820191506020820185811115613c3257600080fd5b8251866020820283011164010000000082111715613c4f57600080fd5b8083526020830192505050908051906020019060200280838360005b83811015613c86578082015181840152602081019050613c6b565b505050509050016040525050509050600860008873ffffffffffffffffffffffffffffffffffffffff1673ffffffffffffffffffffffffffffffffffffffff16815260200190815260200160002060009054906101000a900460ff16613da2576006879080600181540180825580915050600190039060005260206000200160009091909190916101000a81548173ffffffffffffffffffffffffffffffffffffffff021916908373ffffffffffffffffffffffffffffffffffffffff1602179055506001600860008973ffffffffffffffffffffffffffffffffffffffff1673ffffffffffffffffffffffffffffffffffffffff16815260200190815260200160002060006101000a81548160ff0219169083151502179055505b7f6e31608d2e2f6546c30f3320a34d3826089ef057b2f52e93c107ca9d360f6dd483600081518110613dd057fe5b602002602001015184600181518110613de557fe5b60200260200101518884600181518110613dfb57fe5b6020026020010151604051808573ffffffffffffffffffffffffffffffffffffffff1673ffffffffffffffffffffffffffffffffffffffff1681526020018473ffffffffffffffffffffffffffffffffffffffff1673ffffffffffffffffffffffffffffffffffffffff16815260200183815260200182815260200194505050505060405180910390a180600181518110613e9257fe5b60200260200101519350505050949350505050565b600160009054906101000a900460ff1681565b600a60009054906101000a900460ff16613f1f576040517f08c379a00000000000000000000000000000000000000000000000000000000081526004018080602001828103825260358152602001806147016035913960400191505060405180910390fd5b60004711613f78576040517f08c379a00000000000000000000000000000000000000000000000000000000081526004018080602001828103825260218152602001806147c36021913960400191505060405180910390fd5b600060045460035410613fa157613f9a613f94600360646143b7565b476143e9565b9050613fb9565b613fb6613fb0605a60646143b7565b476143e9565b90505b7f000000000000000000000000000000000000000000000000000000000000000073ffffffffffffffffffffffffffffffffffffffff166108fc829081150290604051600060405180830381858888f1935050505015801561401f573d6000803e3d6000fd5b507f000000000000000000000000000000000000000000000000000000000000000073ffffffffffffffffffffffffffffffffffffffff166108fc3073ffffffffffffffffffffffffffffffffffffffff1663084b56266040518163ffffffff1660e01b815260040160206040518083038186803b1580156140a057600080fd5b505afa1580156140b4573d6000803e3d6000fd5b505050506040513d60208110156140ca57600080fd5b81019080805190602001909291905050509081150290604051600060405180830381858888f19350505050158015614106573d6000803e3d6000fd5b5050565b6006818154811061411757fe5b906000526020600020016000915054906101000a900473ffffffffffffffffffffffffffffffffffffffff1681565b7f000000000000000000000000000000000000000000000000000000000000000081565b60096020528060005260406000206000915054906101000a900460ff1681565b7f000000000000000000000000000000000000000000000000000000000000000081565b60055481565b60006003541415614233578060000160009054906101000a900473ffffffffffffffffffffffffffffffffffffffff1673ffffffffffffffffffffffffffffffffffffffff166108fc82600101549081150290604051600060405180830381858888f1935050505015801561422d573d6000803e3d6000fd5b506142cd565b6000614245826001015460035461441b565b90508160000160009054906101000a900473ffffffffffffffffffffffffffffffffffffffff1673ffffffffffffffffffffffffffffffffffffffff166108fc6142998360055460035460045403036143e9565b8460010154019081150290604051600060405180830381858888f193505050501580156142ca573d6000803e3d6000fd5b50505b50565b606080600267ffffffffffffffff811180156142eb57600080fd5b5060405190808252806020026020018201604052801561431a5781602001602082028036833780820191505090505b509050838160008151811061432b57fe5b602002602001019073ffffffffffffffffffffffffffffffffffffffff16908173ffffffffffffffffffffffffffffffffffffffff1681525050828160018151811061437357fe5b602002602001019073ffffffffffffffffffffffffffffffffffffffff16908173ffffffffffffffffffffffffffffffffffffffff16815250508091505092915050565b60006143e1826143d3620186a08661444d90919063ffffffff16565b61457790919063ffffffff16565b905092915050565b6000614413620186a0614405858561444d90919063ffffffff16565b61457790919063ffffffff16565b905092915050565b600061444582614437620186a08661444d90919063ffffffff16565b61457790919063ffffffff16565b905092915050565b6000808314156144605760009050614571565b7fffffffffffffffffffffffffffffffffffffffffffffffffffffffffffffffff831480156144ae57507f800000000000000000000000000000000000000000000000000000000000000082145b15614504576040517f08c379a00000000000000000000000000000000000000000000000000000000081526004018080602001828103825260278152602001806148516027913960400191505060405180910390fd5b600082840290508284828161451557fe5b051461456c576040517f08c379a00000000000000000000000000000000000000000000000000000000081526004018080602001828103825260278152602001806148516027913960400191505060405180910390fd5b809150505b92915050565b6000808214156145ef576040517f08c379a00000000000000000000000000000000000000000000000000000000081526004018080602001828103825260208152602001807f5369676e6564536166654d6174683a206469766973696f6e206279207a65726f81525060200191505060405180910390fd5b7fffffffffffffffffffffffffffffffffffffffffffffffffffffffffffffffff8214801561463d57507f800000000000000000000000000000000000000000000000000000000000000083145b15614693576040517f08c379a00000000000000000000000000000000000000000000000000000000081526004018080602001828103825260218152602001806148306021913960400191505060405180910390fd5b600082848161469e57fe5b0590508091505092915050565b6040518060400160405280600073ffffffffffffffffffffffffffffffffffffffff16815260200160008152509056fe46756e642073686f756c6420626520696e20616e20436f6d706c697465642073746174757343616e207769746864726177206f6e6c7920616674657220616c6c206465706f736974737420776572652077697468647261776564416c6c206465706f736974732061726520616c72656164792077697468647261776564596f752068617665206e6f74207065726d697373696f6e7320746f207468697320616374696f6e596f75206e65656420746f206f776e207b746f6b656e46726f6d7d20666972737446756e642073686f756c6420626520696e20616e204163746976652073746174757342616c616e636520697320302c206e6f7468696e6720746f20776974686472617746756e642073686f756c6420626520696e20616e204f70656e6564207374617475734f757470757420616d6f756e74206973206c6f776572207468656e207b616d6f756e744f75744d696e7d5369676e6564536166654d6174683a206469766973696f6e206f766572666c6f775369676e6564536166654d6174683a206d756c7469706c69636174696f6e206f766572666c6f774d61782063617020696e2031303020455448206973206f766572666c6f7765642e2054727920746f2073656e64206c65737320574549596f752068617665206e6f7420616e79206465706f7369747320696e2068656467652066756e645472616e73616374696f6e2076616c7565206973206c657373207468656e206d696e696d756d206465706f73697420616d6f7574596f75206d75737420746f206f776e207b746f6b656e46726f6d7d206669727374a26469706673582212209e114e4ea9e05fa6ad6a7c99a758da9ba226b26643720b93f8d48bb314e7a56e64736f6c63430006060033",
  "linkReferences": {},
  "deployedLinkReferences": {}
}