{
  "_format": "hh-sol-artifact-1",
  "contractName": "HedgeFund",
  "sourceName": "contracts/HedgeFund.sol",
  "abi": [
    {
      "inputs": [
        {
          "components": [
            {
              "internalType": "address payable",
              "name": "swapRouterContract",
              "type": "address"
            },
            {
              "internalType": "address payable",
              "name": "eFundTokenContract",
              "type": "address"
            },
            {
              "internalType": "address payable",
              "name": "eFundPlatform",
              "type": "address"
            },
            {
              "internalType": "uint256",
              "name": "softCap",
              "type": "uint256"
            },
            {
              "internalType": "uint256",
              "name": "hardCap",
              "type": "uint256"
            },
            {
              "internalType": "uint256",
              "name": "profitFee",
              "type": "uint256"
            },
            {
              "internalType": "uint256",
              "name": "minimalDepostitAmount",
              "type": "uint256"
            },
            {
              "internalType": "uint256",
              "name": "minTimeUntilFundStart",
              "type": "uint256"
            },
            {
              "internalType": "address payable",
              "name": "managerAddress",
              "type": "address"
            },
            {
              "internalType": "uint256",
              "name": "duration",
              "type": "uint256"
            },
            {
              "internalType": "uint256",
              "name": "managerCollateral",
              "type": "uint256"
            },
            {
              "internalType": "address payable[]",
              "name": "allowedTokenAddresses",
              "type": "address[]"
            }
          ],
          "internalType": "struct HedgeFundInfo",
          "name": "_hedgeFundInfo",
          "type": "tuple"
        }
      ],
      "stateMutability": "nonpayable",
      "type": "constructor"
    },
    {
      "anonymous": false,
      "inputs": [],
      "name": "AllDepositsWithdrawed",
      "type": "event"
    },
    {
      "anonymous": false,
      "inputs": [
        {
          "indexed": true,
          "internalType": "address payable",
          "name": "_depositOwner",
          "type": "address"
        },
        {
          "indexed": true,
          "internalType": "uint256",
          "name": "_id",
          "type": "uint256"
        }
      ],
      "name": "DepositWithdrawedBeforeActiveState",
      "type": "event"
    },
    {
      "anonymous": false,
      "inputs": [
        {
          "indexed": false,
          "internalType": "uint256",
          "name": "_newStatus",
          "type": "uint256"
        }
      ],
      "name": "FundStatusChanged",
      "type": "event"
    },
    {
      "anonymous": false,
      "inputs": [
        {
          "indexed": true,
          "internalType": "address payable",
          "name": "_depositOwner",
          "type": "address"
        },
        {
          "indexed": true,
          "internalType": "uint256",
          "name": "_id",
          "type": "uint256"
        },
        {
          "indexed": true,
          "internalType": "uint256",
          "name": "_depositAmount",
          "type": "uint256"
        }
      ],
      "name": "NewDeposit",
      "type": "event"
    },
    {
      "anonymous": false,
      "inputs": [
        {
          "indexed": true,
          "internalType": "address",
          "name": "_tokenFrom",
          "type": "address"
        },
        {
          "indexed": true,
          "internalType": "address",
          "name": "_tokenTo",
          "type": "address"
        },
        {
          "indexed": false,
          "internalType": "uint256",
          "name": "_amountFrom",
          "type": "uint256"
        },
        {
          "indexed": true,
          "internalType": "uint256",
          "name": "_amountTo",
          "type": "uint256"
        }
      ],
      "name": "TokensSwap",
      "type": "event"
    },
    {
      "stateMutability": "payable",
      "type": "fallback"
    },
    {
      "inputs": [],
      "name": "baseBalance",
      "outputs": [
        {
          "internalType": "uint256",
          "name": "",
          "type": "uint256"
        }
      ],
      "stateMutability": "view",
      "type": "function"
    },
    {
      "inputs": [],
      "name": "eFundPlatform",
      "outputs": [
        {
          "internalType": "contract EFundPlatform",
          "name": "",
          "type": "address"
        }
      ],
      "stateMutability": "view",
      "type": "function"
    },
    {
      "inputs": [],
      "name": "eFundToken",
      "outputs": [
        {
          "internalType": "contract IERC20",
          "name": "",
          "type": "address"
        }
      ],
      "stateMutability": "view",
      "type": "function"
    },
    {
      "inputs": [],
      "name": "endBalance",
      "outputs": [
        {
          "internalType": "uint256",
          "name": "",
          "type": "uint256"
        }
      ],
      "stateMutability": "view",
      "type": "function"
    },
    {
      "inputs": [],
      "name": "fundCreatedAt",
      "outputs": [
        {
          "internalType": "uint256",
          "name": "",
          "type": "uint256"
        }
      ],
      "stateMutability": "view",
      "type": "function"
    },
    {
      "inputs": [],
      "name": "fundDurationMonths",
      "outputs": [
        {
          "internalType": "uint256",
          "name": "",
          "type": "uint256"
        }
      ],
      "stateMutability": "view",
      "type": "function"
    },
    {
      "inputs": [],
      "name": "fundManager",
      "outputs": [
        {
          "internalType": "address payable",
          "name": "",
          "type": "address"
        }
      ],
      "stateMutability": "view",
      "type": "function"
    },
    {
      "inputs": [],
      "name": "fundStatus",
      "outputs": [
        {
          "internalType": "enum HedgeFund.FundStatus",
          "name": "",
          "type": "uint8"
        }
      ],
      "stateMutability": "view",
      "type": "function"
    },
    {
      "inputs": [],
      "name": "getAllDeposits",
      "outputs": [
        {
          "components": [
            {
              "internalType": "address payable",
              "name": "depositOwner",
              "type": "address"
            },
            {
              "internalType": "uint256",
              "name": "depositAmount",
              "type": "uint256"
            }
          ],
          "internalType": "struct HedgeFund.DepositInfo[]",
          "name": "",
          "type": "tuple[]"
        }
      ],
      "stateMutability": "view",
      "type": "function"
    },
    {
      "inputs": [],
      "name": "getAllSwaps",
      "outputs": [
        {
          "components": [
            {
              "internalType": "address",
              "name": "from",
              "type": "address"
            },
            {
              "internalType": "address",
              "name": "to",
              "type": "address"
            },
            {
              "internalType": "uint256",
              "name": "amountFrom",
              "type": "uint256"
            },
            {
              "internalType": "uint256",
              "name": "amountTo",
              "type": "uint256"
            },
            {
              "internalType": "uint256",
              "name": "timeStamp",
              "type": "uint256"
            },
            {
              "internalType": "uint256",
              "name": "block",
              "type": "uint256"
            }
          ],
          "internalType": "struct SwapInfo[]",
          "name": "",
          "type": "tuple[]"
        }
      ],
      "stateMutability": "view",
      "type": "function"
    },
    {
      "inputs": [],
      "name": "getAllowedTokensAddresses",
      "outputs": [
        {
          "internalType": "address payable[]",
          "name": "",
          "type": "address[]"
        }
      ],
      "stateMutability": "view",
      "type": "function"
    },
    {
      "inputs": [],
      "name": "getBoughtTokensAddresses",
      "outputs": [
        {
          "internalType": "address payable[]",
          "name": "",
          "type": "address[]"
        }
      ],
      "stateMutability": "view",
      "type": "function"
    },
    {
      "inputs": [],
      "name": "getEndTime",
      "outputs": [
        {
          "internalType": "uint256",
          "name": "",
          "type": "uint256"
        }
      ],
      "stateMutability": "view",
      "type": "function"
    },
    {
      "inputs": [],
      "name": "getFundInfo",
      "outputs": [
        {
          "internalType": "address",
          "name": "_fundManager",
          "type": "address"
        },
        {
          "internalType": "uint256",
          "name": "_fundStartTimestamp",
          "type": "uint256"
        },
        {
          "internalType": "uint256",
          "name": "_minDepositAmount",
          "type": "uint256"
        },
        {
          "internalType": "uint256",
          "name": "_fundCanBeStartedAt",
          "type": "uint256"
        },
        {
          "internalType": "uint256",
          "name": "_fundDurationInMonths",
          "type": "uint256"
        },
        {
          "internalType": "uint256",
          "name": "_profitFee",
          "type": "uint256"
        },
        {
          "internalType": "enum HedgeFund.FundStatus",
          "name": "_fundStatus",
          "type": "uint8"
        },
        {
          "internalType": "uint256",
          "name": "_currentBalance",
          "type": "uint256"
        },
        {
          "internalType": "uint256",
          "name": "_managerCollateral",
          "type": "uint256"
        },
        {
          "internalType": "uint256",
          "name": "_hardCap",
          "type": "uint256"
        },
        {
          "internalType": "uint256",
          "name": "_softCap",
          "type": "uint256"
        },
        {
          "internalType": "uint256",
          "name": "_investorsAmount",
          "type": "uint256"
        }
      ],
      "stateMutability": "view",
      "type": "function"
    },
    {
      "inputs": [],
      "name": "isDepositsWithdrawed",
      "outputs": [
        {
          "internalType": "bool",
          "name": "",
          "type": "bool"
        }
      ],
      "stateMutability": "view",
      "type": "function"
    },
    {
      "inputs": [],
      "name": "lockedPlatforFee",
      "outputs": [
        {
          "internalType": "uint256",
          "name": "",
          "type": "uint256"
        }
      ],
      "stateMutability": "view",
      "type": "function"
    },
    {
      "inputs": [],
      "name": "makeDeposit",
      "outputs": [],
      "stateMutability": "payable",
      "type": "function"
    },
    {
      "inputs": [],
      "name": "router",
      "outputs": [
        {
          "internalType": "contract UniswapV2Router02",
          "name": "",
          "type": "address"
        }
      ],
      "stateMutability": "view",
      "type": "function"
    },
    {
      "inputs": [],
      "name": "setFundStatusActive",
      "outputs": [],
      "stateMutability": "nonpayable",
      "type": "function"
    },
    {
      "inputs": [],
      "name": "setFundStatusClosed",
      "outputs": [],
      "stateMutability": "nonpayable",
      "type": "function"
    },
    {
      "inputs": [],
      "name": "setFundStatusCompleted",
      "outputs": [],
      "stateMutability": "nonpayable",
      "type": "function"
    },
    {
      "inputs": [
        {
          "internalType": "address[]",
          "name": "path",
          "type": "address[]"
        },
        {
          "internalType": "uint256",
          "name": "amountIn",
          "type": "uint256"
        },
        {
          "internalType": "uint256",
          "name": "amountOutMin",
          "type": "uint256"
        }
      ],
      "name": "swapERC20ToERC20",
      "outputs": [
        {
          "internalType": "uint256",
          "name": "",
          "type": "uint256"
        }
      ],
      "stateMutability": "nonpayable",
      "type": "function"
    },
    {
      "inputs": [
        {
          "internalType": "address payable",
          "name": "tokenFrom",
          "type": "address"
        },
        {
          "internalType": "uint256",
          "name": "amountIn",
          "type": "uint256"
        },
        {
          "internalType": "uint256",
          "name": "amountOutMin",
          "type": "uint256"
        }
      ],
      "name": "swapERC20ToETH",
      "outputs": [
        {
          "internalType": "uint256",
          "name": "",
          "type": "uint256"
        }
      ],
      "stateMutability": "nonpayable",
      "type": "function"
    },
    {
      "inputs": [
        {
          "internalType": "address payable",
          "name": "tokenTo",
          "type": "address"
        },
        {
          "internalType": "uint256",
          "name": "amountIn",
          "type": "uint256"
        },
        {
          "internalType": "uint256",
          "name": "amountOutMin",
          "type": "uint256"
        }
      ],
      "name": "swapETHToERC20",
      "outputs": [
        {
          "internalType": "uint256",
          "name": "",
          "type": "uint256"
        }
      ],
      "stateMutability": "nonpayable",
      "type": "function"
    },
    {
      "inputs": [],
      "name": "withdrawBeforeFundStarted",
      "outputs": [],
      "stateMutability": "nonpayable",
      "type": "function"
    },
    {
      "inputs": [],
      "name": "withdrawDeposits",
      "outputs": [],
      "stateMutability": "nonpayable",
      "type": "function"
    },
    {
      "inputs": [],
      "name": "withdrawManagerProfit",
      "outputs": [],
      "stateMutability": "nonpayable",
      "type": "function"
    },
    {
      "stateMutability": "payable",
      "type": "receive"
    }
  ],
  "bytecode": "0x6102006040523480156200001257600080fd5b506040516200563e3803806200563e8339818101604052810190620000389190620005ef565b6200004e816101200151620002dc60201b60201c565b62000090576040517f08c379a0000000000000000000000000000000000000000000000000000000008152600401620000879062000676565b60405180910390fd5b806000015173ffffffffffffffffffffffffffffffffffffffff1660c08173ffffffffffffffffffffffffffffffffffffffff1660601b81525050806020015173ffffffffffffffffffffffffffffffffffffffff1660808173ffffffffffffffffffffffffffffffffffffffff1660601b81525050806040015173ffffffffffffffffffffffffffffffffffffffff1660a08173ffffffffffffffffffffffffffffffffffffffff1660601b8152505080610100015173ffffffffffffffffffffffffffffffffffffffff166101a08173ffffffffffffffffffffffffffffffffffffffff1660601b815250506000600460006101000a81548160ff021916908360038111156200019e57fe5b02179055508061012001516101c08181525050806060015161014081815250508060800151610160818152505080610160015160039080519060200190620001e89291906200030d565b506000600b60006101000a81548160ff0219169083151502179055504261010081815250508060e00151420161012081815250508060c0015160e0818152505080610140015161018081815250508060a001516101e0818152505060005b81610160015151811015620002d4576001600a600084610160015184815181106200026d57fe5b602002602001015173ffffffffffffffffffffffffffffffffffffffff1673ffffffffffffffffffffffffffffffffffffffff16815260200190815260200160002060006101000a81548160ff021916908315150217905550808060010191505062000246565b505062000772565b60006001821480620002ee5750600282145b80620002fa5750600382145b80620003065750600682145b9050919050565b82805482825590600052602060002090810192821562000389579160200282015b82811115620003885782518260006101000a81548173ffffffffffffffffffffffffffffffffffffffff021916908373ffffffffffffffffffffffffffffffffffffffff160217905550916020019190600101906200032e565b5b5090506200039891906200039c565b5090565b620003df91905b80821115620003db57600081816101000a81549073ffffffffffffffffffffffffffffffffffffffff021916905550600101620003a3565b5090565b90565b600081519050620003f3816200073e565b92915050565b600082601f8301126200040b57600080fd5b8151620004226200041c82620006c6565b62000698565b915081818352602084019350602081019050838560208402820111156200044857600080fd5b60005b838110156200047c5781620004618882620003e2565b8452602084019350602083019250506001810190506200044b565b5050505092915050565b600061018082840312156200049a57600080fd5b620004a761018062000698565b90506000620004b984828501620003e2565b6000830152506020620004cf84828501620003e2565b6020830152506040620004e584828501620003e2565b6040830152506060620004fb84828501620005d8565b60608301525060806200051184828501620005d8565b60808301525060a06200052784828501620005d8565b60a08301525060c06200053d84828501620005d8565b60c08301525060e06200055384828501620005d8565b60e0830152506101006200056a84828501620003e2565b610100830152506101206200058284828501620005d8565b610120830152506101406200059a84828501620005d8565b6101408301525061016082015167ffffffffffffffff811115620005bd57600080fd5b620005cb84828501620003f9565b6101608301525092915050565b600081519050620005e98162000758565b92915050565b6000602082840312156200060257600080fd5b600082015167ffffffffffffffff8111156200061d57600080fd5b6200062b8482850162000486565b91505092915050565b600062000643601083620006ef565b91507f496e76616c6964206475726174696f6e000000000000000000000000000000006000830152602082019050919050565b60006020820190508181036000830152620006918162000634565b9050919050565b6000604051905081810181811067ffffffffffffffff82111715620006bc57600080fd5b8060405250919050565b600067ffffffffffffffff821115620006de57600080fd5b602082029050602081019050919050565b600082825260208201905092915050565b60006200070d8262000714565b9050919050565b600073ffffffffffffffffffffffffffffffffffffffff82169050919050565b6000819050919050565b620007498162000700565b81146200075557600080fd5b50565b620007638162000734565b81146200076f57600080fd5b50565b60805160601c60a05160601c60c05160601c60e05161010051610120516101405161016051610180516101a05160601c6101c0516101e051614d9f6200089f6000398061239f5280612abf5250806117c35280612a9e5280612c9d52508061060052806108095280610c9b5280611223528061179f5280611a1e52806129a15280612a38525080612af1525080610aa85280612b12525080612b335250806108d652806120d65280612a7d52508061177b52806120f7525080610a455280612a5c525080610df95280610ea05280610fc552806110595280611395528061143d52806115485280611ced5280611e195280611ead5280612b835250806107365280610bd85280610c75528061240e52806127b3528061286b52806129295250806105dc5250614d9f6000f3fe6080604052600436106101a05760003560e01c80636209ec2d116100ec578063cf78a45a1161008a578063e0d8965611610064578063e0d8965614610537578063e39e45e21461054e578063ec23368414610579578063f887ea40146105af576101a7565b8063cf78a45a146104b6578063d3f3f5ea146104e1578063d6cfeae01461050c576101a7565b80637f18c7f6116100c65780637f18c7f6146104205780639cd1b2411461045d578063a1956e3214610474578063afb8b63a1461049f576101a7565b80636209ec2d146103b35780636da797c9146103de5780637cf2ed2214610409576101a7565b8063439f5ac2116101595780634d820b9a116101335780634d820b9a146102f557806359c57bed146103205780636032c7e31461034b578063610c51a514610388576101a7565b8063439f5ac21461026257806347f5b2321461028d57806349c86029146102b8576101a7565b8063064cb8e0146101a957806307ea6303146101d45780630b77b3b5146101eb578063155d28301461020257806338bde7911461022d57806340732c8914610258576101a7565b366101a757005b005b3480156101b557600080fd5b506101be6105da565b6040516101cb9190614536565b60405180910390f35b3480156101e057600080fd5b506101e96105fe565b005b3480156101f757600080fd5b50610200610807565b005b34801561020e57600080fd5b506102176109a7565b604051610224919061449a565b60405180910390f35b34801561023957600080fd5b50610242610a35565b60405161024f91906148c7565b60405180910390f35b610260610a3b565b005b34801561026e57600080fd5b50610277610c64565b60405161028491906148c7565b60405180910390f35b34801561029957600080fd5b506102a2610c73565b6040516102af919061451b565b60405180910390f35b3480156102c457600080fd5b506102df60048036038101906102da919061360c565b610c97565b6040516102ec91906148c7565b60405180910390f35b34801561030157600080fd5b5061030a61117e565b6040516103179190614500565b60405180910390f35b34801561032c57600080fd5b50610335611191565b604051610342919061449a565b60405180910390f35b34801561035757600080fd5b50610372600480360381019061036d919061360c565b61121f565b60405161037f91906148c7565b60405180910390f35b34801561039457600080fd5b5061039d611779565b6040516103aa91906148c7565b60405180910390f35b3480156103bf57600080fd5b506103c861179d565b6040516103d5919061439c565b60405180910390f35b3480156103ea57600080fd5b506103f36117c1565b60405161040091906148c7565b60405180910390f35b34801561041557600080fd5b5061041e6117e5565b005b34801561042c57600080fd5b506104476004803603810190610442919061365b565b611a1a565b60405161045491906148c7565b60405180910390f35b34801561046957600080fd5b506104726120d0565b005b34801561048057600080fd5b5061048961236f565b60405161049691906148c7565b60405180910390f35b3480156104ab57600080fd5b506104b4612375565b005b3480156104c257600080fd5b506104cb612514565b6040516104d891906148c7565b60405180910390f35b3480156104ed57600080fd5b506104f661251a565b60405161050391906144bc565b60405180910390f35b34801561051857600080fd5b506105216125d9565b60405161052e91906144de565b60405180910390f35b34801561054357600080fd5b5061054c61270c565b005b34801561055a57600080fd5b50610563612a11565b604051610570919061456c565b60405180910390f35b34801561058557600080fd5b5061058e612a24565b6040516105a69c9b9a999897969594939291906143e0565b60405180910390f35b3480156105bb57600080fd5b506105c4612b81565b6040516105d19190614551565b60405180910390f35b7f000000000000000000000000000000000000000000000000000000000000000081565b7f000000000000000000000000000000000000000000000000000000000000000073ffffffffffffffffffffffffffffffffffffffff163373ffffffffffffffffffffffffffffffffffffffff16148061068357503073ffffffffffffffffffffffffffffffffffffffff163373ffffffffffffffffffffffffffffffffffffffff16145b6106c2576040517f08c379a00000000000000000000000000000000000000000000000000000000081526004016106b990614627565b60405180910390fd5b600260038111156106cf57fe5b600460009054906101000a900460ff1660038111156106ea57fe5b1461072a576040517f08c379a000000000000000000000000000000000000000000000000000000000815260040161072190614587565b60405180910390fd5b6107346003612ba5565b7f000000000000000000000000000000000000000000000000000000000000000073ffffffffffffffffffffffffffffffffffffffff1663e3a1c6fe6040518163ffffffff1660e01b8152600401600060405180830381600087803b15801561079c57600080fd5b505af11580156107b0573d6000803e3d6000fd5b505050507fbc141a1c0c073ed34f6fa9cdc66bb9473f488bccda93d1e43bb9a15c4391a92f600460009054906101000a900460ff1660038111156107f057fe5b6040516107fd91906148c7565b60405180910390a1565b7f000000000000000000000000000000000000000000000000000000000000000073ffffffffffffffffffffffffffffffffffffffff163373ffffffffffffffffffffffffffffffffffffffff16148061088c57503073ffffffffffffffffffffffffffffffffffffffff163373ffffffffffffffffffffffffffffffffffffffff16145b6108cb576040517f08c379a00000000000000000000000000000000000000000000000000000000081526004016108c290614627565b60405180910390fd5b6108d3612bcb565b427f000000000000000000000000000000000000000000000000000000000000000010610935576040517f08c379a000000000000000000000000000000000000000000000000000000000815260040161092c906145a7565b60405180910390fd5b61093f6001612ba5565b610947612c35565b600681905550426005819055507fbc141a1c0c073ed34f6fa9cdc66bb9473f488bccda93d1e43bb9a15c4391a92f600460009054906101000a900460ff16600381111561099057fe5b60405161099d91906148c7565b60405180910390a1565b60606003805480602002602001604051908101604052809291908181526020018280548015610a2b57602002820191906000526020600020905b8160009054906101000a900473ffffffffffffffffffffffffffffffffffffffff1673ffffffffffffffffffffffffffffffffffffffff16815260200190600101908083116109e1575b5050505050905090565b60065481565b610a43612bcb565b7f0000000000000000000000000000000000000000000000000000000000000000341015610aa6576040517f08c379a0000000000000000000000000000000000000000000000000000000008152600401610a9d90614887565b60405180910390fd5b7f0000000000000000000000000000000000000000000000000000000000000000610ae134610ad3612c35565b612c3d90919063ffffffff16565b1115610b22576040517f08c379a0000000000000000000000000000000000000000000000000000000008152600401610b1990614807565b60405180910390fd5b610b2a61342a565b60405180604001604052803373ffffffffffffffffffffffffffffffffffffffff168152602001348152509050600081908060018154018082558091505060019003906000526020600020906002020160009091909190915060008201518160000160006101000a81548173ffffffffffffffffffffffffffffffffffffffff021916908373ffffffffffffffffffffffffffffffffffffffff1602179055506020820151816001015550507f000000000000000000000000000000000000000000000000000000000000000073ffffffffffffffffffffffffffffffffffffffff1663fd56b302336040518263ffffffff1660e01b8152600401610c2f9190614381565b600060405180830381600087803b158015610c4957600080fd5b505af1158015610c5d573d6000803e3d6000fd5b5050505050565b6000610c6e612c92565b905090565b7f000000000000000000000000000000000000000000000000000000000000000081565b60007f000000000000000000000000000000000000000000000000000000000000000073ffffffffffffffffffffffffffffffffffffffff163373ffffffffffffffffffffffffffffffffffffffff161480610d1e57503073ffffffffffffffffffffffffffffffffffffffff163373ffffffffffffffffffffffffffffffffffffffff16145b610d5d576040517f08c379a0000000000000000000000000000000000000000000000000000000008152600401610d5490614627565b60405180910390fd5b610d65612cd3565b600960008573ffffffffffffffffffffffffffffffffffffffff1673ffffffffffffffffffffffffffffffffffffffff16815260200190815260200160002060009054906101000a900460ff16610df1576040517f08c379a0000000000000000000000000000000000000000000000000000000008152600401610de890614667565b60405180910390fd5b6060610e9a857f000000000000000000000000000000000000000000000000000000000000000073ffffffffffffffffffffffffffffffffffffffff1663ad5c46486040518163ffffffff1660e01b815260040160206040518083038186803b158015610e5d57600080fd5b505afa158015610e71573d6000803e3d6000fd5b505050506040513d601f19601f82011682018060405250810190610e9591906135e3565b612d3d565b905060007f000000000000000000000000000000000000000000000000000000000000000073ffffffffffffffffffffffffffffffffffffffff1663d06ca61f86846040518363ffffffff1660e01b8152600401610ef9929190614914565b60006040518083038186803b158015610f1157600080fd5b505afa158015610f25573d6000803e3d6000fd5b505050506040513d6000823e3d601f19601f82011682018060405250810190610f4e91906136c7565b600181518110610f5a57fe5b6020026020010151905083811015610fa7576040517f08c379a0000000000000000000000000000000000000000000000000000000008152600401610f9e90614727565b60405180910390fd5b8573ffffffffffffffffffffffffffffffffffffffff1663095ea7b37f0000000000000000000000000000000000000000000000000000000000000000876040518363ffffffff1660e01b81526004016110029291906143b7565b602060405180830381600087803b15801561101c57600080fd5b505af1158015611030573d6000803e3d6000fd5b505050506040513d601f19601f820116820180604052508101906110549190613708565b5060607f000000000000000000000000000000000000000000000000000000000000000073ffffffffffffffffffffffffffffffffffffffff166318cbafe58784863061070842016040518663ffffffff1660e01b81526004016110bc9594939291906149ec565b600060405180830381600087803b1580156110d657600080fd5b505af11580156110ea573d6000803e3d6000fd5b505050506040513d6000823e3d601f19601f8201168201806040525081019061111391906136c7565b905061115d8360008151811061112557fe5b60200260200101518460018151811061113a57fe5b6020026020010151888460018151811061115057fe5b6020026020010151612e24565b8060018151811061116a57fe5b602002602001015193505050509392505050565b600b60009054906101000a900460ff1681565b6060600280548060200260200160405190810160405280929190818152602001828054801561121557602002820191906000526020600020905b8160009054906101000a900473ffffffffffffffffffffffffffffffffffffffff1673ffffffffffffffffffffffffffffffffffffffff16815260200190600101908083116111cb575b5050505050905090565b60007f000000000000000000000000000000000000000000000000000000000000000073ffffffffffffffffffffffffffffffffffffffff163373ffffffffffffffffffffffffffffffffffffffff1614806112a657503073ffffffffffffffffffffffffffffffffffffffff163373ffffffffffffffffffffffffffffffffffffffff16145b6112e5576040517f08c379a00000000000000000000000000000000000000000000000000000000081526004016112dc90614627565b60405180910390fd5b6112ed612cd3565b60006003805490501461134c57600a60008573ffffffffffffffffffffffffffffffffffffffff1673ffffffffffffffffffffffffffffffffffffffff16815260200190815260200160002060009054906101000a900460ff1661134f565b60015b61138e576040517f08c379a000000000000000000000000000000000000000000000000000000000815260040161138590614847565b60405180910390fd5b60606114377f000000000000000000000000000000000000000000000000000000000000000073ffffffffffffffffffffffffffffffffffffffff1663ad5c46486040518163ffffffff1660e01b815260040160206040518083038186803b1580156113f957600080fd5b505afa15801561140d573d6000803e3d6000fd5b505050506040513d601f19601f8201168201806040525081019061143191906135e3565b86612d3d565b905060007f000000000000000000000000000000000000000000000000000000000000000073ffffffffffffffffffffffffffffffffffffffff1663d06ca61f86846040518363ffffffff1660e01b8152600401611496929190614914565b60006040518083038186803b1580156114ae57600080fd5b505afa1580156114c2573d6000803e3d6000fd5b505050506040513d6000823e3d601f19601f820116820180604052508101906114eb91906136c7565b6001815181106114f757fe5b6020026020010151905083811015611544576040517f08c379a000000000000000000000000000000000000000000000000000000000815260040161153b90614727565b60405180910390fd5b60607f000000000000000000000000000000000000000000000000000000000000000073ffffffffffffffffffffffffffffffffffffffff1663fb3bdb418784863061070842016040518663ffffffff1660e01b81526004016115aa9493929190614944565b6000604051808303818588803b1580156115c357600080fd5b505af11580156115d7573d6000803e3d6000fd5b50505050506040513d6000823e3d601f19601f8201168201806040525081019061160191906136c7565b9050600960008873ffffffffffffffffffffffffffffffffffffffff1673ffffffffffffffffffffffffffffffffffffffff16815260200190815260200160002060009054906101000a900460ff16611710576002879080600181540180825580915050600190039060005260206000200160009091909190916101000a81548173ffffffffffffffffffffffffffffffffffffffff021916908373ffffffffffffffffffffffffffffffffffffffff1602179055506001600960008973ffffffffffffffffffffffffffffffffffffffff1673ffffffffffffffffffffffffffffffffffffffff16815260200190815260200160002060006101000a81548160ff0219169083151502179055505b6117588360008151811061172057fe5b60200260200101518460018151811061173557fe5b6020026020010151888460018151811061174b57fe5b6020026020010151612e24565b8060018151811061176557fe5b602002602001015193505050509392505050565b7f000000000000000000000000000000000000000000000000000000000000000081565b7f000000000000000000000000000000000000000000000000000000000000000081565b7f000000000000000000000000000000000000000000000000000000000000000081565b600260038111156117f257fe5b600460009054906101000a900460ff16600381111561180d57fe5b148061183d575060038081111561182057fe5b600460009054906101000a900460ff16600381111561183b57fe5b145b61187c576040517f08c379a0000000000000000000000000000000000000000000000000000000008152600401611873906147e7565b60405180910390fd5b600b60009054906101000a900460ff16156118cc576040517f08c379a00000000000000000000000000000000000000000000000000000000081526004016118c390614607565b60405180910390fd5b6001600b60006101000a81548160ff02191690831515021790555060005b6000805490508110156119eb576118ff61342a565b6000828154811061190c57fe5b90600052602060002090600202016040518060400160405290816000820160009054906101000a900473ffffffffffffffffffffffffffffffffffffffff1673ffffffffffffffffffffffffffffffffffffffff1673ffffffffffffffffffffffffffffffffffffffff16815260200160018201548152505090506000828154811061199457fe5b9060005260206000209060020201600080820160006101000a81549073ffffffffffffffffffffffffffffffffffffffff0219169055600182016000905550506119dd81612fcc565b5080806001019150506118ea565b507f70ac3d3f37bb5712619702156bd9af57f16ac82695c742a80d49800cd046be7060405160405180910390a1565b60007f000000000000000000000000000000000000000000000000000000000000000073ffffffffffffffffffffffffffffffffffffffff163373ffffffffffffffffffffffffffffffffffffffff161480611aa157503073ffffffffffffffffffffffffffffffffffffffff163373ffffffffffffffffffffffffffffffffffffffff16145b611ae0576040517f08c379a0000000000000000000000000000000000000000000000000000000008152600401611ad790614627565b60405180910390fd5b611ae8612cd3565b6002858590501015611b2f576040517f08c379a0000000000000000000000000000000000000000000000000000000008152600401611b26906146c7565b60405180910390fd5b600085856000818110611b3e57fe5b9050602002016020810190611b5391906135ba565b90506000868660018989905003818110611b6957fe5b9050602002016020810190611b7e91906135ba565b905060005b87879050811015611ce857600060038054905014611c0d57600a6000898984818110611bab57fe5b9050602002016020810190611bc091906135ba565b73ffffffffffffffffffffffffffffffffffffffff1673ffffffffffffffffffffffffffffffffffffffff16815260200190815260200160002060009054906101000a900460ff16611c10565b60015b611c4f576040517f08c379a0000000000000000000000000000000000000000000000000000000008152600401611c4690614707565b60405180910390fd5b600960008473ffffffffffffffffffffffffffffffffffffffff1673ffffffffffffffffffffffffffffffffffffffff16815260200190815260200160002060009054906101000a900460ff16611cdb576040517f08c379a0000000000000000000000000000000000000000000000000000000008152600401611cd2906145e7565b60405180910390fd5b8080600101915050611b83565b5060007f000000000000000000000000000000000000000000000000000000000000000073ffffffffffffffffffffffffffffffffffffffff1663d06ca61f878a8a6040518463ffffffff1660e01b8152600401611d48939291906148e2565b60006040518083038186803b158015611d6057600080fd5b505afa158015611d74573d6000803e3d6000fd5b505050506040513d6000823e3d601f19601f82011682018060405250810190611d9d91906136c7565b6001898990500381518110611dae57fe5b6020026020010151905084811015611dfb576040517f08c379a0000000000000000000000000000000000000000000000000000000008152600401611df290614787565b60405180910390fd5b8273ffffffffffffffffffffffffffffffffffffffff1663095ea7b37f0000000000000000000000000000000000000000000000000000000000000000886040518363ffffffff1660e01b8152600401611e569291906143b7565b602060405180830381600087803b158015611e7057600080fd5b505af1158015611e84573d6000803e3d6000fd5b505050506040513d601f19601f82011682018060405250810190611ea89190613708565b5060607f000000000000000000000000000000000000000000000000000000000000000073ffffffffffffffffffffffffffffffffffffffff166338ed173988848c8c30611f0161070842612c3d90919063ffffffff16565b6040518763ffffffff1660e01b8152600401611f2296959493929190614990565b600060405180830381600087803b158015611f3c57600080fd5b505af1158015611f50573d6000803e3d6000fd5b505050506040513d6000823e3d601f19601f82011682018060405250810190611f7991906136c7565b9050600960008473ffffffffffffffffffffffffffffffffffffffff1673ffffffffffffffffffffffffffffffffffffffff16815260200190815260200160002060009054906101000a900460ff16612088576002839080600181540180825580915050600190039060005260206000200160009091909190916101000a81548173ffffffffffffffffffffffffffffffffffffffff021916908373ffffffffffffffffffffffffffffffffffffffff1602179055506001600960008573ffffffffffffffffffffffffffffffffffffffff1673ffffffffffffffffffffffffffffffffffffffff16815260200190815260200160002060006101000a81548160ff0219169083151502179055505b6120ad8484898460018e8e905003815181106120a057fe5b6020026020010151612e24565b806001815181106120ba57fe5b6020026020010151945050505050949350505050565b426121247f00000000000000000000000000000000000000000000000000000000000000007f0000000000000000000000000000000000000000000000000000000000000000612c3d90919063ffffffff16565b10612164576040517f08c379a000000000000000000000000000000000000000000000000000000000815260040161215b906147a7565b60405180910390fd5b600080905060008090505b60008054905081101561232b573373ffffffffffffffffffffffffffffffffffffffff16600082815481106121a057fe5b906000526020600020906002020160000160009054906101000a900473ffffffffffffffffffffffffffffffffffffffff1673ffffffffffffffffffffffffffffffffffffffff16141561231e576121f661342a565b6000828154811061220357fe5b90600052602060002090600202016040518060400160405290816000820160009054906101000a900473ffffffffffffffffffffffffffffffffffffffff1673ffffffffffffffffffffffffffffffffffffffff1673ffffffffffffffffffffffffffffffffffffffff16815260200160018201548152505090506000828154811061228b57fe5b9060005260206000209060020201600080820160006101000a81549073ffffffffffffffffffffffffffffffffffffffff021916905560018201600090555050600192506122d881612fcc565b813373ffffffffffffffffffffffffffffffffffffffff167fe737dc9ea16794043839aa01f063bf3e6faa009fe354f0b6ae1d7ab6dc20ac3460405160405180910390a3505b808060010191505061216f565b508061236c576040517f08c379a000000000000000000000000000000000000000000000000000000000815260040161236390614867565b60405180910390fd5b50565b60075481565b61237d612cd3565b6123876002612ba5565b61238f612c35565b60078190555060006123cd6123c57f000000000000000000000000000000000000000000000000000000000000000060646130eb565b60075461311d565b9050806007541180156123f557506006546123f38260075461314f90919063ffffffff16565b115b1561240657806008819055506124c0565b6124b96124b17f000000000000000000000000000000000000000000000000000000000000000073ffffffffffffffffffffffffffffffffffffffff1663d10d51a26040518163ffffffff1660e01b815260040160206040518083038186803b15801561247257600080fd5b505afa158015612486573d6000803e3d6000fd5b505050506040513d601f19601f820116820180604052508101906124aa9190613731565b60646130eb565b60075461311d565b6008819055505b7fbc141a1c0c073ed34f6fa9cdc66bb9473f488bccda93d1e43bb9a15c4391a92f600460009054906101000a900460ff1660038111156124fc57fe5b60405161250991906148c7565b60405180910390a150565b60085481565b60606000805480602002602001604051908101604052809291908181526020016000905b828210156125d057838290600052602060002090600202016040518060400160405290816000820160009054906101000a900473ffffffffffffffffffffffffffffffffffffffff1673ffffffffffffffffffffffffffffffffffffffff1673ffffffffffffffffffffffffffffffffffffffff1681526020016001820154815250508152602001906001019061253e565b50505050905090565b60606001805480602002602001604051908101604052809291908181526020016000905b8282101561270357838290600052602060002090600602016040518060c00160405290816000820160009054906101000a900473ffffffffffffffffffffffffffffffffffffffff1673ffffffffffffffffffffffffffffffffffffffff1673ffffffffffffffffffffffffffffffffffffffff1681526020016001820160009054906101000a900473ffffffffffffffffffffffffffffffffffffffff1673ffffffffffffffffffffffffffffffffffffffff1673ffffffffffffffffffffffffffffffffffffffff168152602001600282015481526020016003820154815260200160048201548152602001600582015481525050815260200190600101906125fd565b50505050905090565b600b60009054906101000a900460ff1661275b576040517f08c379a000000000000000000000000000000000000000000000000000000000815260040161275290614767565b60405180910390fd5b6000471161279e576040517f08c379a000000000000000000000000000000000000000000000000000000000815260040161279590614647565b60405180910390fd5b6000600754600654106128635761285c6128567f000000000000000000000000000000000000000000000000000000000000000073ffffffffffffffffffffffffffffffffffffffff1663d10d51a26040518163ffffffff1660e01b815260040160206040518083038186803b15801561281757600080fd5b505afa15801561282b573d6000803e3d6000fd5b505050506040513d601f19601f8201168201806040525081019061284f9190613731565b60646130eb565b4761311d565b9050612917565b61291461290e7f000000000000000000000000000000000000000000000000000000000000000073ffffffffffffffffffffffffffffffffffffffff166359b6f2e66040518163ffffffff1660e01b815260040160206040518083038186803b1580156128cf57600080fd5b505afa1580156128e3573d6000803e3d6000fd5b505050506040513d601f19601f820116820180604052508101906129079190613731565b60646130eb565b4761311d565b90505b6000612921612c35565b111561298f577f000000000000000000000000000000000000000000000000000000000000000073ffffffffffffffffffffffffffffffffffffffff166108fc829081150290604051600060405180830381858888f1935050505015801561298d573d6000803e3d6000fd5b505b6000612999612c35565b1115612a0e577f000000000000000000000000000000000000000000000000000000000000000073ffffffffffffffffffffffffffffffffffffffff166108fc6129e1612c35565b9081150290604051600060405180830381858888f19350505050158015612a0c573d6000803e3d6000fd5b505b50565b600460009054906101000a900460ff1681565b6000806000806000806000806000806000807f00000000000000000000000000000000000000000000000000000000000000006005547f00000000000000000000000000000000000000000000000000000000000000007f00000000000000000000000000000000000000000000000000000000000000007f00000000000000000000000000000000000000000000000000000000000000007f0000000000000000000000000000000000000000000000000000000000000000600460009054906101000a900460ff16477f00000000000000000000000000000000000000000000000000000000000000007f00000000000000000000000000000000000000000000000000000000000000007f00000000000000000000000000000000000000000000000000000000000000006000805490508b9b509b509b509b509b509b509b509b509b509b509b509b509b50909192939495969798999a9b565b7f000000000000000000000000000000000000000000000000000000000000000081565b80600460006101000a81548160ff02191690836003811115612bc357fe5b021790555050565b60006003811115612bd857fe5b600460009054906101000a900460ff166003811115612bf357fe5b14612c33576040517f08c379a0000000000000000000000000000000000000000000000000000000008152600401612c2a906146e7565b60405180910390fd5b565b600047905090565b600080828401905083811015612c88576040517f08c379a0000000000000000000000000000000000000000000000000000000008152600401612c7f906145c7565b60405180910390fd5b8091505092915050565b6000612cca62278d007f000000000000000000000000000000000000000000000000000000000000000061319f90919063ffffffff16565b60055401905090565b60016003811115612ce057fe5b600460009054906101000a900460ff166003811115612cfb57fe5b14612d3b576040517f08c379a0000000000000000000000000000000000000000000000000000000008152600401612d32906146a7565b60405180910390fd5b565b606080600267ffffffffffffffff81118015612d5857600080fd5b50604051908082528060200260200182016040528015612d875781602001602082028036833780820191505090505b5090508381600081518110612d9857fe5b602002602001019073ffffffffffffffffffffffffffffffffffffffff16908173ffffffffffffffffffffffffffffffffffffffff16815250508281600181518110612de057fe5b602002602001019073ffffffffffffffffffffffffffffffffffffffff16908173ffffffffffffffffffffffffffffffffffffffff16815250508091505092915050565b808373ffffffffffffffffffffffffffffffffffffffff168573ffffffffffffffffffffffffffffffffffffffff167f6e31608d2e2f6546c30f3320a34d3826089ef057b2f52e93c107ca9d360f6dd485604051612e8291906148c7565b60405180910390a460016040518060c001604052808673ffffffffffffffffffffffffffffffffffffffff1681526020018573ffffffffffffffffffffffffffffffffffffffff16815260200184815260200183815260200142815260200143815250908060018154018082558091505060019003906000526020600020906006020160009091909190915060008201518160000160006101000a81548173ffffffffffffffffffffffffffffffffffffffff021916908373ffffffffffffffffffffffffffffffffffffffff16021790555060208201518160010160006101000a81548173ffffffffffffffffffffffffffffffffffffffff021916908373ffffffffffffffffffffffffffffffffffffffff16021790555060408201518160020155606082015181600301556080820151816004015560a08201518160050155505050505050565b60006003811115612fd957fe5b600460009054906101000a900460ff166003811115612ff457fe5b141561304e57806000015173ffffffffffffffffffffffffffffffffffffffff166108fc82602001519081150290604051600060405180830381858888f19350505050158015613048573d6000803e3d6000fd5b506130e8565b6000613060826020015160065461320f565b9050816000015173ffffffffffffffffffffffffffffffffffffffff166108fc6130b4836130af6008546130a160065460075461314f90919063ffffffff16565b61314f90919063ffffffff16565b61311d565b8460200151019081150290604051600060405180830381858888f193505050501580156130e5573d6000803e3d6000fd5b50505b50565b600061311582613107620186a08661324190919063ffffffff16565b61333f90919063ffffffff16565b905092915050565b6000613147620186a0613139858561324190919063ffffffff16565b61333f90919063ffffffff16565b905092915050565b600082821115613194576040517f08c379a000000000000000000000000000000000000000000000000000000000815260040161318b90614687565b60405180910390fd5b818303905092915050565b6000808314156131b25760009050613209565b60008284029050828482816131c357fe5b0414613204576040517f08c379a00000000000000000000000000000000000000000000000000000000081526004016131fb906147c7565b60405180910390fd5b809150505b92915050565b60006132398261322b620186a08661324190919063ffffffff16565b61333f90919063ffffffff16565b905092915050565b6000808314156132545760009050613339565b7fffffffffffffffffffffffffffffffffffffffffffffffffffffffffffffffff831480156132a257507f800000000000000000000000000000000000000000000000000000000000000082145b156132e2576040517f08c379a00000000000000000000000000000000000000000000000000000000081526004016132d990614827565b60405180910390fd5b60008284029050828482816132f357fe5b0514613334576040517f08c379a000000000000000000000000000000000000000000000000000000000815260040161332b90614827565b60405180910390fd5b809150505b92915050565b600080821415613384576040517f08c379a000000000000000000000000000000000000000000000000000000000815260040161337b906148a7565b60405180910390fd5b7fffffffffffffffffffffffffffffffffffffffffffffffffffffffffffffffff821480156133d257507f800000000000000000000000000000000000000000000000000000000000000083145b15613412576040517f08c379a000000000000000000000000000000000000000000000000000000000815260040161340990614747565b60405180910390fd5b600082848161341d57fe5b0590508091505092915050565b6040518060400160405280600073ffffffffffffffffffffffffffffffffffffffff168152602001600081525090565b60008135905061346981614cf6565b92915050565b60008151905061347e81614cf6565b92915050565b60008135905061349381614d0d565b92915050565b60008083601f8401126134ab57600080fd5b8235905067ffffffffffffffff8111156134c457600080fd5b6020830191508360208202830111156134dc57600080fd5b9250929050565b600082601f8301126134f457600080fd5b815161350761350282614a73565b614a46565b9150818183526020840193506020810190508385602084028201111561352c57600080fd5b60005b8381101561355c578161354288826135a5565b84526020840193506020830192505060018101905061352f565b5050505092915050565b60008151905061357581614d24565b92915050565b60008151905061358a81614d3b565b92915050565b60008135905061359f81614d52565b92915050565b6000815190506135b481614d52565b92915050565b6000602082840312156135cc57600080fd5b60006135da8482850161345a565b91505092915050565b6000602082840312156135f557600080fd5b60006136038482850161346f565b91505092915050565b60008060006060848603121561362157600080fd5b600061362f86828701613484565b935050602061364086828701613590565b925050604061365186828701613590565b9150509250925092565b6000806000806060858703121561367157600080fd5b600085013567ffffffffffffffff81111561368b57600080fd5b61369787828801613499565b945094505060206136aa87828801613590565b92505060406136bb87828801613590565b91505092959194509250565b6000602082840312156136d957600080fd5b600082015167ffffffffffffffff8111156136f357600080fd5b6136ff848285016134e3565b91505092915050565b60006020828403121561371a57600080fd5b600061372884828501613566565b91505092915050565b60006020828403121561374357600080fd5b60006137518482850161357b565b91505092915050565b600061376683836137c9565b60208301905092915050565b600061377e83836137e7565b60208301905092915050565b600061379683836142b9565b60408301905092915050565b60006137ae83836142e8565b60c08301905092915050565b6137c381614c35565b82525050565b6137d281614bd0565b82525050565b6137e181614bd0565b82525050565b6137f081614bbe565b82525050565b6137ff81614bbe565b82525050565b60006138118385614b52565b935061381c82614a9b565b8060005b85811015613855576138328284614ba7565b61383c8882613772565b975061384783614b11565b925050600181019050613820565b5085925050509392505050565b600061386d82614ae5565b6138778185614b52565b935061388283614aa5565b8060005b838110156138b357815161389a8882613772565b97506138a583614b1e565b925050600181019050613886565b5085935050505092915050565b60006138cb82614af0565b6138d58185614b63565b93506138e083614ab5565b8060005b838110156139115781516138f8888261375a565b975061390383614b2b565b9250506001810190506138e4565b5085935050505092915050565b600061392982614afb565b6139338185614b74565b935061393e83614ac5565b8060005b8381101561396f578151613956888261378a565b975061396183614b38565b925050600181019050613942565b5085935050505092915050565b600061398782614b06565b6139918185614b85565b935061399c83614ad5565b8060005b838110156139cd5781516139b488826137a2565b97506139bf83614b45565b9250506001810190506139a0565b5085935050505092915050565b6139e381614be2565b82525050565b6139f281614c47565b82525050565b613a0181614c6b565b82525050565b613a1081614c8f565b82525050565b613a1f81614cb3565b82525050565b6000613a32602583614b96565b91507f46756e642073686f756c6420626520696e20616e20436f6d706c69746564207360008301527f74617475730000000000000000000000000000000000000000000000000000006020830152604082019050919050565b6000613a98602583614b96565b91507f46756e642063616e6e6f7420626520737461727465642061742074686174206d60008301527f6f6d656e740000000000000000000000000000000000000000000000000000006020830152604082019050919050565b6000613afe601b83614b96565b91507f536166654d6174683a206164646974696f6e206f766572666c6f7700000000006000830152602082019050919050565b6000613b3e600283614b96565b91507f54310000000000000000000000000000000000000000000000000000000000006000830152602082019050919050565b6000613b7e602383614b96565b91507f416c6c206465706f736974732061726520616c7265616479207769746864726160008301527f77656400000000000000000000000000000000000000000000000000000000006020830152604082019050919050565b6000613be4602783614b96565b91507f596f752068617665206e6f74207065726d697373696f6e7320746f207468697360008301527f20616374696f6e000000000000000000000000000000000000000000000000006020830152604082019050919050565b6000613c4a600283614b96565b91507f42300000000000000000000000000000000000000000000000000000000000006000830152602082019050919050565b6000613c8a602183614b96565b91507f596f75206e65656420746f206f776e207b746f6b656e46726f6d7d206669727360008301527f74000000000000000000000000000000000000000000000000000000000000006020830152604082019050919050565b6000613cf0601e83614b96565b91507f536166654d6174683a207375627472616374696f6e206f766572666c6f7700006000830152602082019050919050565b6000613d30602283614b96565b91507f46756e642073686f756c6420626520696e20616e20416374697665207374617460008301527f75730000000000000000000000000000000000000000000000000000000000006020830152604082019050919050565b6000613d96600283614b96565b91507f50300000000000000000000000000000000000000000000000000000000000006000830152602082019050919050565b6000613dd6602283614b96565b91507f46756e642073686f756c6420626520696e20616e204f70656e6564207374617460008301527f75730000000000000000000000000000000000000000000000000000000000006020830152604082019050919050565b6000613e3c600283614b96565b91507f54300000000000000000000000000000000000000000000000000000000000006000830152602082019050919050565b6000613e7c602a83614b96565b91507f4f757470757420616d6f756e74206973206c6f776572207468656e207b616d6f60008301527f756e744f75744d696e7d000000000000000000000000000000000000000000006020830152604082019050919050565b6000613ee2602183614b96565b91507f5369676e6564536166654d6174683a206469766973696f6e206f766572666c6f60008301527f77000000000000000000000000000000000000000000000000000000000000006020830152604082019050919050565b6000613f48600283614b96565b91507f43300000000000000000000000000000000000000000000000000000000000006000830152602082019050919050565b6000613f88600283614b96565b91507f54320000000000000000000000000000000000000000000000000000000000006000830152602082019050919050565b6000613fc8601883614b96565b91507f43616e6e6f742077697468647261772066756e64206e6f7700000000000000006000830152602082019050919050565b6000614008602183614b96565b91507f536166654d6174683a206d756c7469706c69636174696f6e206f766572666c6f60008301527f77000000000000000000000000000000000000000000000000000000000000006020830152604082019050919050565b600061406e601983614b96565b91507f46756e64206973206e6f7420636f6d706c6974656420796574000000000000006000830152602082019050919050565b60006140ae602e83614b96565b91507f4d617820636170206973206f766572666c6f7765642e2054727920746f20736560008301527f6e64206c6f7765722076616c75650000000000000000000000000000000000006020830152604082019050919050565b6000614114602783614b96565b91507f5369676e6564536166654d6174683a206d756c7469706c69636174696f6e206f60008301527f766572666c6f77000000000000000000000000000000000000000000000000006020830152604082019050919050565b600061417a601f83614b96565b91507f54726164696e672077697468206e6f7420616c6c6f77656420746f6b656e73006000830152602082019050919050565b60006141ba602783614b96565b91507f596f752068617665206e6f7420616e79206465706f7369747320696e2068656460008301527f67652066756e64000000000000000000000000000000000000000000000000006020830152604082019050919050565b6000614220603483614b96565b91507f5472616e73616374696f6e2076616c7565206973206c657373207468656e206d60008301527f696e696d756d206465706f73697420616d6f75740000000000000000000000006020830152604082019050919050565b6000614286602083614b96565b91507f5369676e6564536166654d6174683a206469766973696f6e206279207a65726f6000830152602082019050919050565b6040820160008201516142cf60008501826137c9565b5060208201516142e26020850182614363565b50505050565b60c0820160008201516142fe60008501826137e7565b50602082015161431160208501826137e7565b5060408201516143246040850182614363565b5060608201516143376060850182614363565b50608082015161434a6080850182614363565b5060a082015161435d60a0850182614363565b50505050565b61436c81614c2b565b82525050565b61437b81614c2b565b82525050565b600060208201905061439660008301846137ba565b92915050565b60006020820190506143b160008301846137d8565b92915050565b60006040820190506143cc60008301856137ba565b6143d96020830184614372565b9392505050565b6000610180820190506143f6600083018f6137f6565b614403602083018e614372565b614410604083018d614372565b61441d606083018c614372565b61442a608083018b614372565b61443760a083018a614372565b61444460c0830189613a16565b61445160e0830188614372565b61445f610100830187614372565b61446d610120830186614372565b61447b610140830185614372565b614489610160830184614372565b9d9c50505050505050505050505050565b600060208201905081810360008301526144b481846138c0565b905092915050565b600060208201905081810360008301526144d6818461391e565b905092915050565b600060208201905081810360008301526144f8818461397c565b905092915050565b600060208201905061451560008301846139da565b92915050565b600060208201905061453060008301846139e9565b92915050565b600060208201905061454b60008301846139f8565b92915050565b60006020820190506145666000830184613a07565b92915050565b60006020820190506145816000830184613a16565b92915050565b600060208201905081810360008301526145a081613a25565b9050919050565b600060208201905081810360008301526145c081613a8b565b9050919050565b600060208201905081810360008301526145e081613af1565b9050919050565b6000602082019050818103600083015261460081613b31565b9050919050565b6000602082019050818103600083015261462081613b71565b9050919050565b6000602082019050818103600083015261464081613bd7565b9050919050565b6000602082019050818103600083015261466081613c3d565b9050919050565b6000602082019050818103600083015261468081613c7d565b9050919050565b600060208201905081810360008301526146a081613ce3565b9050919050565b600060208201905081810360008301526146c081613d23565b9050919050565b600060208201905081810360008301526146e081613d89565b9050919050565b6000602082019050818103600083015261470081613dc9565b9050919050565b6000602082019050818103600083015261472081613e2f565b9050919050565b6000602082019050818103600083015261474081613e6f565b9050919050565b6000602082019050818103600083015261476081613ed5565b9050919050565b6000602082019050818103600083015261478081613f3b565b9050919050565b600060208201905081810360008301526147a081613f7b565b9050919050565b600060208201905081810360008301526147c081613fbb565b9050919050565b600060208201905081810360008301526147e081613ffb565b9050919050565b6000602082019050818103600083015261480081614061565b9050919050565b60006020820190508181036000830152614820816140a1565b9050919050565b6000602082019050818103600083015261484081614107565b9050919050565b600060208201905081810360008301526148608161416d565b9050919050565b60006020820190508181036000830152614880816141ad565b9050919050565b600060208201905081810360008301526148a081614213565b9050919050565b600060208201905081810360008301526148c081614279565b9050919050565b60006020820190506148dc6000830184614372565b92915050565b60006040820190506148f76000830186614372565b818103602083015261490a818486613805565b9050949350505050565b60006040820190506149296000830185614372565b818103602083015261493b8184613862565b90509392505050565b60006080820190506149596000830187614372565b818103602083015261496b8186613862565b905061497a60408301856137ba565b6149876060830184614372565b95945050505050565b600060a0820190506149a56000830189614372565b6149b26020830188614372565b81810360408301526149c5818688613805565b90506149d460608301856137ba565b6149e16080830184614372565b979650505050505050565b600060a082019050614a016000830188614372565b614a0e6020830187614372565b8181036040830152614a208186613862565b9050614a2f60608301856137ba565b614a3c6080830184614372565b9695505050505050565b6000604051905081810181811067ffffffffffffffff82111715614a6957600080fd5b8060405250919050565b600067ffffffffffffffff821115614a8a57600080fd5b602082029050602081019050919050565b6000819050919050565b6000819050602082019050919050565b6000819050602082019050919050565b6000819050602082019050919050565b6000819050602082019050919050565b600081519050919050565b600081519050919050565b600081519050919050565b600081519050919050565b6000602082019050919050565b6000602082019050919050565b6000602082019050919050565b6000602082019050919050565b6000602082019050919050565b600082825260208201905092915050565b600082825260208201905092915050565b600082825260208201905092915050565b600082825260208201905092915050565b600082825260208201905092915050565b6000614bb6602084018461345a565b905092915050565b6000614bc982614c0b565b9050919050565b6000614bdb82614c0b565b9050919050565b60008115159050919050565b6000819050614bfc82614ce9565b919050565b6000819050919050565b600073ffffffffffffffffffffffffffffffffffffffff82169050919050565b6000819050919050565b6000614c4082614cc5565b9050919050565b6000614c5282614c59565b9050919050565b6000614c6482614c0b565b9050919050565b6000614c7682614c7d565b9050919050565b6000614c8882614c0b565b9050919050565b6000614c9a82614ca1565b9050919050565b6000614cac82614c0b565b9050919050565b6000614cbe82614bee565b9050919050565b6000614cd082614cd7565b9050919050565b6000614ce282614c0b565b9050919050565b60048110614cf357fe5b50565b614cff81614bbe565b8114614d0a57600080fd5b50565b614d1681614bd0565b8114614d2157600080fd5b50565b614d2d81614be2565b8114614d3857600080fd5b50565b614d4481614c01565b8114614d4f57600080fd5b50565b614d5b81614c2b565b8114614d6657600080fd5b5056fea264697066735822122088270ece7f534f9db95b41009ac604a26bd8a40a8a0ea9edd8adecfee5d751f764736f6c63430006060033",
  "linkReferences": {},
  "deployedLinkReferences": {}
}