{
  "_format": "hh-sol-artifact-1",
  "contractName": "HedgeFund",
  "sourceName": "contracts/HedgeFund.sol",
  "abi": [
    {
      "inputs": [
        {
          "components": [
            {
              "internalType": "address payable",
              "name": "swapRouterContract",
              "type": "address"
            },
            {
              "internalType": "address payable",
              "name": "eFundTokenContract",
              "type": "address"
            },
            {
              "internalType": "address payable",
              "name": "eFundPlatform",
              "type": "address"
            },
            {
              "internalType": "uint256",
              "name": "softCap",
              "type": "uint256"
            },
            {
              "internalType": "uint256",
              "name": "hardCap",
              "type": "uint256"
            },
            {
              "internalType": "uint256",
              "name": "profitFee",
              "type": "uint256"
            },
            {
              "internalType": "uint256",
              "name": "minimalDepostitAmount",
              "type": "uint256"
            },
            {
              "internalType": "uint256",
              "name": "minTimeUntilFundStart",
              "type": "uint256"
            },
            {
              "internalType": "address payable",
              "name": "managerAddress",
              "type": "address"
            },
            {
              "internalType": "uint256",
              "name": "duration",
              "type": "uint256"
            },
            {
              "internalType": "uint256",
              "name": "managerCollateral",
              "type": "uint256"
            },
            {
              "internalType": "address payable[]",
              "name": "allowedTokenAddresses",
              "type": "address[]"
            }
          ],
          "internalType": "struct HedgeFundInfo",
          "name": "_hedgeFundInfo",
          "type": "tuple"
        }
      ],
      "stateMutability": "nonpayable",
      "type": "constructor"
    },
    {
      "anonymous": false,
      "inputs": [
        {
          "indexed": true,
          "internalType": "address payable",
          "name": "_depositOwner",
          "type": "address"
        },
        {
          "indexed": true,
          "internalType": "uint256",
          "name": "_amount",
          "type": "uint256"
        }
      ],
      "name": "DepositWithdrawedBeforeActiveState",
      "type": "event"
    },
    {
      "anonymous": false,
      "inputs": [
        {
          "indexed": true,
          "internalType": "address",
          "name": "_depositor",
          "type": "address"
        },
        {
          "indexed": true,
          "internalType": "uint256",
          "name": "_amount",
          "type": "uint256"
        }
      ],
      "name": "DepositsWitdrawed",
      "type": "event"
    },
    {
      "anonymous": false,
      "inputs": [
        {
          "indexed": false,
          "internalType": "uint256",
          "name": "_newStatus",
          "type": "uint256"
        }
      ],
      "name": "FundStatusChanged",
      "type": "event"
    },
    {
      "anonymous": false,
      "inputs": [
        {
          "indexed": true,
          "internalType": "address payable",
          "name": "_depositOwner",
          "type": "address"
        },
        {
          "indexed": true,
          "internalType": "uint256",
          "name": "_id",
          "type": "uint256"
        },
        {
          "indexed": true,
          "internalType": "uint256",
          "name": "_depositAmount",
          "type": "uint256"
        }
      ],
      "name": "NewDeposit",
      "type": "event"
    },
    {
      "anonymous": false,
      "inputs": [
        {
          "indexed": true,
          "internalType": "address",
          "name": "_tokenFrom",
          "type": "address"
        },
        {
          "indexed": true,
          "internalType": "address",
          "name": "_tokenTo",
          "type": "address"
        },
        {
          "indexed": false,
          "internalType": "uint256",
          "name": "_amountFrom",
          "type": "uint256"
        },
        {
          "indexed": true,
          "internalType": "uint256",
          "name": "_amountTo",
          "type": "uint256"
        }
      ],
      "name": "TokensSwap",
      "type": "event"
    },
    {
      "stateMutability": "payable",
      "type": "fallback"
    },
    {
      "inputs": [],
      "name": "baseBalance",
      "outputs": [
        {
          "internalType": "uint256",
          "name": "",
          "type": "uint256"
        }
      ],
      "stateMutability": "view",
      "type": "function"
    },
    {
      "inputs": [],
      "name": "eFundPlatform",
      "outputs": [
        {
          "internalType": "contract EFundPlatform",
          "name": "",
          "type": "address"
        }
      ],
      "stateMutability": "view",
      "type": "function"
    },
    {
      "inputs": [],
      "name": "eFundToken",
      "outputs": [
        {
          "internalType": "contract IERC20",
          "name": "",
          "type": "address"
        }
      ],
      "stateMutability": "view",
      "type": "function"
    },
    {
      "inputs": [],
      "name": "endBalance",
      "outputs": [
        {
          "internalType": "uint256",
          "name": "",
          "type": "uint256"
        }
      ],
      "stateMutability": "view",
      "type": "function"
    },
    {
      "inputs": [],
      "name": "fundCreatedAt",
      "outputs": [
        {
          "internalType": "uint256",
          "name": "",
          "type": "uint256"
        }
      ],
      "stateMutability": "view",
      "type": "function"
    },
    {
      "inputs": [],
      "name": "fundDurationMonths",
      "outputs": [
        {
          "internalType": "uint256",
          "name": "",
          "type": "uint256"
        }
      ],
      "stateMutability": "view",
      "type": "function"
    },
    {
      "inputs": [],
      "name": "fundManager",
      "outputs": [
        {
          "internalType": "address payable",
          "name": "",
          "type": "address"
        }
      ],
      "stateMutability": "view",
      "type": "function"
    },
    {
      "inputs": [],
      "name": "fundProfitWitdrawed",
      "outputs": [
        {
          "internalType": "bool",
          "name": "",
          "type": "bool"
        }
      ],
      "stateMutability": "view",
      "type": "function"
    },
    {
      "inputs": [],
      "name": "fundStatus",
      "outputs": [
        {
          "internalType": "enum HedgeFund.FundStatus",
          "name": "",
          "type": "uint8"
        }
      ],
      "stateMutability": "view",
      "type": "function"
    },
    {
      "inputs": [],
      "name": "getAllDeposits",
      "outputs": [
        {
          "components": [
            {
              "internalType": "address payable",
              "name": "depositOwner",
              "type": "address"
            },
            {
              "internalType": "uint256",
              "name": "depositAmount",
              "type": "uint256"
            }
          ],
          "internalType": "struct HedgeFund.DepositInfo[]",
          "name": "",
          "type": "tuple[]"
        }
      ],
      "stateMutability": "view",
      "type": "function"
    },
    {
      "inputs": [],
      "name": "getAllSwaps",
      "outputs": [
        {
          "components": [
            {
              "internalType": "address",
              "name": "from",
              "type": "address"
            },
            {
              "internalType": "address",
              "name": "to",
              "type": "address"
            },
            {
              "internalType": "uint256",
              "name": "amountFrom",
              "type": "uint256"
            },
            {
              "internalType": "uint256",
              "name": "amountTo",
              "type": "uint256"
            },
            {
              "internalType": "uint256",
              "name": "timeStamp",
              "type": "uint256"
            },
            {
              "internalType": "uint256",
              "name": "block",
              "type": "uint256"
            }
          ],
          "internalType": "struct SwapInfo[]",
          "name": "",
          "type": "tuple[]"
        }
      ],
      "stateMutability": "view",
      "type": "function"
    },
    {
      "inputs": [],
      "name": "getAllowedTokensAddresses",
      "outputs": [
        {
          "internalType": "address payable[]",
          "name": "",
          "type": "address[]"
        }
      ],
      "stateMutability": "view",
      "type": "function"
    },
    {
      "inputs": [],
      "name": "getBoughtTokensAddresses",
      "outputs": [
        {
          "internalType": "address payable[]",
          "name": "",
          "type": "address[]"
        }
      ],
      "stateMutability": "view",
      "type": "function"
    },
    {
      "inputs": [],
      "name": "getEndTime",
      "outputs": [
        {
          "internalType": "uint256",
          "name": "",
          "type": "uint256"
        }
      ],
      "stateMutability": "view",
      "type": "function"
    },
    {
      "inputs": [],
      "name": "getFundInfo",
      "outputs": [
        {
          "internalType": "address",
          "name": "_fundManager",
          "type": "address"
        },
        {
          "internalType": "uint256",
          "name": "_fundStartTimestamp",
          "type": "uint256"
        },
        {
          "internalType": "uint256",
          "name": "_minDepositAmount",
          "type": "uint256"
        },
        {
          "internalType": "uint256",
          "name": "_fundCanBeStartedAt",
          "type": "uint256"
        },
        {
          "internalType": "uint256",
          "name": "_fundDurationInMonths",
          "type": "uint256"
        },
        {
          "internalType": "uint256",
          "name": "_profitFee",
          "type": "uint256"
        },
        {
          "internalType": "enum HedgeFund.FundStatus",
          "name": "_fundStatus",
          "type": "uint8"
        },
        {
          "internalType": "uint256",
          "name": "_currentBalance",
          "type": "uint256"
        },
        {
          "internalType": "uint256",
          "name": "_managerCollateral",
          "type": "uint256"
        },
        {
          "internalType": "uint256",
          "name": "_hardCap",
          "type": "uint256"
        },
        {
          "internalType": "uint256",
          "name": "_softCap",
          "type": "uint256"
        },
        {
          "components": [
            {
              "internalType": "address payable",
              "name": "depositOwner",
              "type": "address"
            },
            {
              "internalType": "uint256",
              "name": "depositAmount",
              "type": "uint256"
            }
          ],
          "internalType": "struct HedgeFund.DepositInfo[]",
          "name": "_deposits",
          "type": "tuple[]"
        }
      ],
      "stateMutability": "view",
      "type": "function"
    },
    {
      "inputs": [],
      "name": "lockedFundProfit",
      "outputs": [
        {
          "internalType": "uint256",
          "name": "",
          "type": "uint256"
        }
      ],
      "stateMutability": "view",
      "type": "function"
    },
    {
      "inputs": [],
      "name": "makeDeposit",
      "outputs": [],
      "stateMutability": "payable",
      "type": "function"
    },
    {
      "inputs": [],
      "name": "originalEndBalance",
      "outputs": [
        {
          "internalType": "uint256",
          "name": "",
          "type": "uint256"
        }
      ],
      "stateMutability": "view",
      "type": "function"
    },
    {
      "inputs": [],
      "name": "router",
      "outputs": [
        {
          "internalType": "contract UniswapV2Router02",
          "name": "",
          "type": "address"
        }
      ],
      "stateMutability": "view",
      "type": "function"
    },
    {
      "inputs": [],
      "name": "setFundStatusActive",
      "outputs": [],
      "stateMutability": "nonpayable",
      "type": "function"
    },
    {
      "inputs": [],
      "name": "setFundStatusCompleted",
      "outputs": [],
      "stateMutability": "nonpayable",
      "type": "function"
    },
    {
      "inputs": [],
      "name": "swapAllTokensIntoETH",
      "outputs": [],
      "stateMutability": "nonpayable",
      "type": "function"
    },
    {
      "inputs": [
        {
          "internalType": "address[]",
          "name": "path",
          "type": "address[]"
        },
        {
          "internalType": "uint256",
          "name": "amountIn",
          "type": "uint256"
        },
        {
          "internalType": "uint256",
          "name": "amountOutMin",
          "type": "uint256"
        }
      ],
      "name": "swapERC20ToERC20",
      "outputs": [],
      "stateMutability": "nonpayable",
      "type": "function"
    },
    {
      "inputs": [
        {
          "internalType": "address payable",
          "name": "tokenFrom",
          "type": "address"
        },
        {
          "internalType": "uint256",
          "name": "amountIn",
          "type": "uint256"
        },
        {
          "internalType": "uint256",
          "name": "amountOutMin",
          "type": "uint256"
        }
      ],
      "name": "swapERC20ToETH",
      "outputs": [],
      "stateMutability": "nonpayable",
      "type": "function"
    },
    {
      "inputs": [
        {
          "internalType": "address payable",
          "name": "tokenTo",
          "type": "address"
        },
        {
          "internalType": "uint256",
          "name": "amountIn",
          "type": "uint256"
        },
        {
          "internalType": "uint256",
          "name": "amountOutMin",
          "type": "uint256"
        }
      ],
      "name": "swapETHToERC20",
      "outputs": [],
      "stateMutability": "nonpayable",
      "type": "function"
    },
    {
      "inputs": [
        {
          "internalType": "address",
          "name": "",
          "type": "address"
        }
      ],
      "name": "userDeposits",
      "outputs": [
        {
          "internalType": "uint256",
          "name": "",
          "type": "uint256"
        }
      ],
      "stateMutability": "view",
      "type": "function"
    },
    {
      "inputs": [],
      "name": "withdrawDepositsBeforeFundStarted",
      "outputs": [],
      "stateMutability": "nonpayable",
      "type": "function"
    },
    {
      "inputs": [
        {
          "internalType": "address payable",
          "name": "_of",
          "type": "address"
        }
      ],
      "name": "withdrawDepositsOf",
      "outputs": [],
      "stateMutability": "nonpayable",
      "type": "function"
    },
    {
      "inputs": [],
      "name": "withdrawFundProfit",
      "outputs": [],
      "stateMutability": "nonpayable",
      "type": "function"
    },
    {
      "stateMutability": "payable",
      "type": "receive"
    }
  ],
  "bytecode": "0x6102006040523480156200001257600080fd5b5060405162005827380380620058278339818101604052810190620000389190620005df565b6200004e816101200151620002c160201b60201c565b62000090576040517f08c379a0000000000000000000000000000000000000000000000000000000008152600401620000879062000666565b60405180910390fd5b806000015173ffffffffffffffffffffffffffffffffffffffff1660c08173ffffffffffffffffffffffffffffffffffffffff1660601b81525050806020015173ffffffffffffffffffffffffffffffffffffffff1660808173ffffffffffffffffffffffffffffffffffffffff1660601b81525050806040015173ffffffffffffffffffffffffffffffffffffffff1660a08173ffffffffffffffffffffffffffffffffffffffff1660601b8152505080610100015173ffffffffffffffffffffffffffffffffffffffff166101a08173ffffffffffffffffffffffffffffffffffffffff1660601b815250506000600560006101000a81548160ff021916908360028111156200019e57fe5b02179055508061012001516101c08181525050806060015161014081815250508060800151610160818152505080610160015160049080519060200190620001e8929190620002fd565b504261010081815250508060e00151420161012081815250508060c0015160e0818152505080610140015161018081815250508060a001516101e0818152505060005b81610160015151811015620002b9576001600d600084610160015184815181106200025257fe5b602002602001015173ffffffffffffffffffffffffffffffffffffffff1673ffffffffffffffffffffffffffffffffffffffff16815260200190815260200160002060006101000a81548160ff02191690831515021790555080806001019150506200022b565b505062000762565b600080821480620002d25750600182145b80620002de5750600282145b80620002ea5750600382145b80620002f65750600682145b9050919050565b82805482825590600052602060002090810192821562000379579160200282015b82811115620003785782518260006101000a81548173ffffffffffffffffffffffffffffffffffffffff021916908373ffffffffffffffffffffffffffffffffffffffff160217905550916020019190600101906200031e565b5b5090506200038891906200038c565b5090565b620003cf91905b80821115620003cb57600081816101000a81549073ffffffffffffffffffffffffffffffffffffffff02191690555060010162000393565b5090565b90565b600081519050620003e3816200072e565b92915050565b600082601f830112620003fb57600080fd5b8151620004126200040c82620006b6565b62000688565b915081818352602084019350602081019050838560208402820111156200043857600080fd5b60005b838110156200046c5781620004518882620003d2565b8452602084019350602083019250506001810190506200043b565b5050505092915050565b600061018082840312156200048a57600080fd5b6200049761018062000688565b90506000620004a984828501620003d2565b6000830152506020620004bf84828501620003d2565b6020830152506040620004d584828501620003d2565b6040830152506060620004eb84828501620005c8565b60608301525060806200050184828501620005c8565b60808301525060a06200051784828501620005c8565b60a08301525060c06200052d84828501620005c8565b60c08301525060e06200054384828501620005c8565b60e0830152506101006200055a84828501620003d2565b610100830152506101206200057284828501620005c8565b610120830152506101406200058a84828501620005c8565b6101408301525061016082015167ffffffffffffffff811115620005ad57600080fd5b620005bb84828501620003e9565b6101608301525092915050565b600081519050620005d98162000748565b92915050565b600060208284031215620005f257600080fd5b600082015167ffffffffffffffff8111156200060d57600080fd5b6200061b8482850162000476565b91505092915050565b600062000633600283620006df565b91507f49440000000000000000000000000000000000000000000000000000000000006000830152602082019050919050565b60006020820190508181036000830152620006818162000624565b9050919050565b6000604051905081810181811067ffffffffffffffff82111715620006ac57600080fd5b8060405250919050565b600067ffffffffffffffff821115620006ce57600080fd5b602082029050602081019050919050565b600082825260208201905092915050565b6000620006fd8262000704565b9050919050565b600073ffffffffffffffffffffffffffffffffffffffff82169050919050565b6000819050919050565b6200073981620006f0565b81146200074557600080fd5b50565b620007538162000724565b81146200075f57600080fd5b50565b60805160601c60a05160601c60c05160601c60e05161010051610120516101405161016051610180516101a05160601c6101c0516101e051614f8e62000899600039806121f25280612b1752508061168d5280612af65280612fa852508061166952806127e0528061292b52806129de5280612a905280612e1d5250806129ad5280612a185280612b495280612f0e525080610a555280612b6a525080612b8b52508061064852806108655280612ad55250806116455250806109f25280612ab4525080610d7d5280610e245280610f495280610fdd52806112785280611320528061142b52806118ca52806119f65280611a8a5280611d6d5280611f395280611fcb5280612c90525080610c1a5280610cb7528061214d528061227452806127a452806128a75250806108305250614f8e6000f3fe6080604052600436106101c65760003560e01c80636209ec2d116100f7578063afb8b63a11610095578063d7d91fe611610064578063d7d91fe61461059b578063e39e45e2146105b2578063ec233684146105dd578063f887ea4014610613576101cd565b8063afb8b63a14610505578063b0ae0fca1461051c578063d3f3f5ea14610545578063d6cfeae014610570576101cd565b80637f18c7f6116100d15780637f18c7f61461046f578063a0eb89fd14610498578063a1956e32146104c3578063ae86d6fc146104ee576101cd565b80636209ec2d146103ee5780636da797c91461041957806373d2d07114610444576101cd565b806340732c891161016457806349c860291161013e57806349c860291461034657806359c57bed1461036f5780636032c7e31461039a578063610c51a5146103c3576101cd565b806340732c89146102e6578063439f5ac2146102f057806347f5b2321461031b576101cd565b80630ba36dcd116101a05780630ba36dcd14610228578063155d2830146102655780632629f1f41461029057806338bde791146102bb576101cd565b806303787365146101cf578063064cb8e0146101e65780630b77b3b514610211576101cd565b366101cd57005b005b3480156101db57600080fd5b506101e461063e565b005b3480156101f257600080fd5b506101fb61082e565b6040516102089190614699565b60405180910390f35b34801561021d57600080fd5b50610226610852565b005b34801561023457600080fd5b5061024f600480360381019061024a9190613817565b610936565b60405161025c9190614a4a565b60405180910390f35b34801561027157600080fd5b5061027a61094e565b60405161028791906145fd565b60405180910390f35b34801561029c57600080fd5b506102a56109dc565b6040516102b29190614a4a565b60405180910390f35b3480156102c757600080fd5b506102d06109e2565b6040516102dd9190614a4a565b60405180910390f35b6102ee6109e8565b005b3480156102fc57600080fd5b50610305610ca6565b6040516103129190614a4a565b60405180910390f35b34801561032757600080fd5b50610330610cb5565b60405161033d919061467e565b60405180910390f35b34801561035257600080fd5b5061036d60048036038101906103689190613892565b610cd9565b005b34801561037b57600080fd5b506103846110e9565b60405161039191906145fd565b60405180910390f35b3480156103a657600080fd5b506103c160048036038101906103bc9190613892565b611177565b005b3480156103cf57600080fd5b506103d8611643565b6040516103e59190614a4a565b60405180910390f35b3480156103fa57600080fd5b50610403611667565b60405161041091906144f8565b60405180910390f35b34801561042557600080fd5b5061042e61168b565b60405161043b9190614a4a565b60405180910390f35b34801561045057600080fd5b506104596116af565b6040516104669190614a4a565b60405180910390f35b34801561047b57600080fd5b50610496600480360381019061049191906138e1565b6116b5565b005b3480156104a457600080fd5b506104ad611c94565b6040516104ba9190614663565b60405180910390f35b3480156104cf57600080fd5b506104d8611ca7565b6040516104e59190614a4a565b60405180910390f35b3480156104fa57600080fd5b50610503611cad565b005b34801561051157600080fd5b5061051a6120d4565b005b34801561052857600080fd5b50610543600480360381019061053e9190613869565b612346565b005b34801561055157600080fd5b5061055a6124d5565b604051610567919061461f565b60405180910390f35b34801561057c57600080fd5b50610585612594565b6040516105929190614641565b60405180910390f35b3480156105a757600080fd5b506105b06126c7565b005b3480156105be57600080fd5b506105c7612a68565b6040516105d491906146cf565b60405180910390f35b3480156105e957600080fd5b506105f2612a7b565b60405161060a9c9b9a9998979695949392919061453c565b60405180910390f35b34801561061f57600080fd5b50610628612c8e565b60405161063591906146b4565b60405180910390f35b610646612cb2565b7f000000000000000000000000000000000000000000000000000000000000000042116106a8576040517f08c379a000000000000000000000000000000000000000000000000000000000815260040161069f906148aa565b60405180910390fd5b6000600260003373ffffffffffffffffffffffffffffffffffffffff1673ffffffffffffffffffffffffffffffffffffffff16815260200190815260200160002054141561072b576040517f08c379a00000000000000000000000000000000000000000000000000000000081526004016107229061488a565b60405180910390fd5b6000600260003373ffffffffffffffffffffffffffffffffffffffff1673ffffffffffffffffffffffffffffffffffffffff1681526020019081526020016000205490506000600260003373ffffffffffffffffffffffffffffffffffffffff1673ffffffffffffffffffffffffffffffffffffffff168152602001908152602001600020819055506107e760405180604001604052803373ffffffffffffffffffffffffffffffffffffffff16815260200183815250612d1c565b803373ffffffffffffffffffffffffffffffffffffffff167fe737dc9ea16794043839aa01f063bf3e6faa009fe354f0b6ae1d7ab6dc20ac3460405160405180910390a350565b7f000000000000000000000000000000000000000000000000000000000000000081565b61085a612e1b565b610862612cb2565b427f0000000000000000000000000000000000000000000000000000000000000000106108c4576040517f08c379a00000000000000000000000000000000000000000000000000000000081526004016108bb9061494a565b60405180910390fd5b6108ce6001612ee1565b6108d6612f07565b600781905550426006819055507fbc141a1c0c073ed34f6fa9cdc66bb9473f488bccda93d1e43bb9a15c4391a92f600560009054906101000a900460ff16600281111561091f57fe5b60405161092c9190614a4a565b60405180910390a1565b60026020528060005260406000206000915090505481565b606060048054806020026020016040519081016040528092919081815260200182805480156109d257602002820191906000526020600020905b8160009054906101000a900473ffffffffffffffffffffffffffffffffffffffff1673ffffffffffffffffffffffffffffffffffffffff1681526020019060010190808311610988575b5050505050905090565b60095481565b60075481565b6109f0612cb2565b7f0000000000000000000000000000000000000000000000000000000000000000341015610a53576040517f08c379a0000000000000000000000000000000000000000000000000000000008152600401610a4a9061476a565b60405180910390fd5b7f0000000000000000000000000000000000000000000000000000000000000000610a8e34610a80612f07565b612f4890919063ffffffff16565b1115610acf576040517f08c379a0000000000000000000000000000000000000000000000000000000008152600401610ac69061498a565b60405180910390fd5b610ad7613687565b60405180604001604052803373ffffffffffffffffffffffffffffffffffffffff168152602001348152509050610b5634600260003373ffffffffffffffffffffffffffffffffffffffff1673ffffffffffffffffffffffffffffffffffffffff16815260200190815260200160002054612f4890919063ffffffff16565b600260003373ffffffffffffffffffffffffffffffffffffffff1673ffffffffffffffffffffffffffffffffffffffff16815260200190815260200160002081905550600081908060018154018082558091505060019003906000526020600020906002020160009091909190915060008201518160000160006101000a81548173ffffffffffffffffffffffffffffffffffffffff021916908373ffffffffffffffffffffffffffffffffffffffff1602179055506020820151816001015550507f000000000000000000000000000000000000000000000000000000000000000073ffffffffffffffffffffffffffffffffffffffff1663fd56b302336040518263ffffffff1660e01b8152600401610c7191906144dd565b600060405180830381600087803b158015610c8b57600080fd5b505af1158015610c9f573d6000803e3d6000fd5b5050505050565b6000610cb0612f9d565b905090565b7f000000000000000000000000000000000000000000000000000000000000000081565b610ce1612e1b565b610ce9612fde565b600c60008473ffffffffffffffffffffffffffffffffffffffff1673ffffffffffffffffffffffffffffffffffffffff16815260200190815260200160002060009054906101000a900460ff16610d75576040517f08c379a0000000000000000000000000000000000000000000000000000000008152600401610d6c9061470a565b60405180910390fd5b6060610e1e847f000000000000000000000000000000000000000000000000000000000000000073ffffffffffffffffffffffffffffffffffffffff1663ad5c46486040518163ffffffff1660e01b815260040160206040518083038186803b158015610de157600080fd5b505afa158015610df5573d6000803e3d6000fd5b505050506040513d601f19601f82011682018060405250810190610e199190613840565b613048565b905060007f000000000000000000000000000000000000000000000000000000000000000073ffffffffffffffffffffffffffffffffffffffff1663d06ca61f85846040518363ffffffff1660e01b8152600401610e7d929190614a97565b60006040518083038186803b158015610e9557600080fd5b505afa158015610ea9573d6000803e3d6000fd5b505050506040513d6000823e3d601f19601f82011682018060405250810190610ed2919061394d565b600181518110610ede57fe5b6020026020010151905082811015610f2b576040517f08c379a0000000000000000000000000000000000000000000000000000000008152600401610f229061472a565b60405180910390fd5b8473ffffffffffffffffffffffffffffffffffffffff1663095ea7b37f0000000000000000000000000000000000000000000000000000000000000000866040518363ffffffff1660e01b8152600401610f86929190614513565b602060405180830381600087803b158015610fa057600080fd5b505af1158015610fb4573d6000803e3d6000fd5b505050506040513d601f19601f82011682018060405250810190610fd8919061398e565b5060607f000000000000000000000000000000000000000000000000000000000000000073ffffffffffffffffffffffffffffffffffffffff166318cbafe58684863061070842016040518663ffffffff1660e01b8152600401611040959493929190614bc9565b600060405180830381600087803b15801561105a57600080fd5b505af115801561106e573d6000803e3d6000fd5b505050506040513d6000823e3d601f19601f82011682018060405250810190611097919061394d565b90506110e1836000815181106110a957fe5b6020026020010151846001815181106110be57fe5b602002602001015187846001815181106110d457fe5b602002602001015161312f565b505050505050565b6060600380548060200260200160405190810160405280929190818152602001828054801561116d57602002820191906000526020600020905b8160009054906101000a900473ffffffffffffffffffffffffffffffffffffffff1673ffffffffffffffffffffffffffffffffffffffff1681526020019060010190808311611123575b5050505050905090565b61117f612e1b565b611187612fde565b61118f612f07565b82106111d0576040517f08c379a00000000000000000000000000000000000000000000000000000000081526004016111c7906148ea565b60405180910390fd5b60006004805490501461122f57600d60008473ffffffffffffffffffffffffffffffffffffffff1673ffffffffffffffffffffffffffffffffffffffff16815260200190815260200160002060009054906101000a900460ff16611232565b60015b611271576040517f08c379a00000000000000000000000000000000000000000000000000000000081526004016112689061496a565b60405180910390fd5b606061131a7f000000000000000000000000000000000000000000000000000000000000000073ffffffffffffffffffffffffffffffffffffffff1663ad5c46486040518163ffffffff1660e01b815260040160206040518083038186803b1580156112dc57600080fd5b505afa1580156112f0573d6000803e3d6000fd5b505050506040513d601f19601f820116820180604052508101906113149190613840565b85613048565b905060007f000000000000000000000000000000000000000000000000000000000000000073ffffffffffffffffffffffffffffffffffffffff1663d06ca61f85846040518363ffffffff1660e01b8152600401611379929190614a97565b60006040518083038186803b15801561139157600080fd5b505afa1580156113a5573d6000803e3d6000fd5b505050506040513d6000823e3d601f19601f820116820180604052508101906113ce919061394d565b6001815181106113da57fe5b6020026020010151905082811015611427576040517f08c379a000000000000000000000000000000000000000000000000000000000815260040161141e9061472a565b60405180910390fd5b60607f000000000000000000000000000000000000000000000000000000000000000073ffffffffffffffffffffffffffffffffffffffff1663fb3bdb418684863061070842016040518663ffffffff1660e01b815260040161148d9493929190614ac7565b6000604051808303818588803b1580156114a657600080fd5b505af11580156114ba573d6000803e3d6000fd5b50505050506040513d6000823e3d601f19601f820116820180604052508101906114e4919061394d565b9050600c60008773ffffffffffffffffffffffffffffffffffffffff1673ffffffffffffffffffffffffffffffffffffffff16815260200190815260200160002060009054906101000a900460ff166115f3576003869080600181540180825580915050600190039060005260206000200160009091909190916101000a81548173ffffffffffffffffffffffffffffffffffffffff021916908373ffffffffffffffffffffffffffffffffffffffff1602179055506001600c60008873ffffffffffffffffffffffffffffffffffffffff1673ffffffffffffffffffffffffffffffffffffffff16815260200190815260200160002060006101000a81548160ff0219169083151502179055505b61163b8360008151811061160357fe5b60200260200101518460018151811061161857fe5b6020026020010151878460018151811061162e57fe5b602002602001015161312f565b505050505050565b7f000000000000000000000000000000000000000000000000000000000000000081565b7f000000000000000000000000000000000000000000000000000000000000000081565b7f000000000000000000000000000000000000000000000000000000000000000081565b600a5481565b6116bd612e1b565b6116c5612fde565b600284849050101561170c576040517f08c379a0000000000000000000000000000000000000000000000000000000008152600401611703906147ea565b60405180910390fd5b60008484600081811061171b57fe5b90506020020160208101906117309190613817565b9050600085856001888890500381811061174657fe5b905060200201602081019061175b9190613817565b905060005b868690508110156118c5576000600480549050146117ea57600d600088888481811061178857fe5b905060200201602081019061179d9190613817565b73ffffffffffffffffffffffffffffffffffffffff1673ffffffffffffffffffffffffffffffffffffffff16815260200190815260200160002060009054906101000a900460ff166117ed565b60015b61182c576040517f08c379a00000000000000000000000000000000000000000000000000000000081526004016118239061480a565b60405180910390fd5b600c60008473ffffffffffffffffffffffffffffffffffffffff1673ffffffffffffffffffffffffffffffffffffffff16815260200190815260200160002060009054906101000a900460ff166118b8576040517f08c379a00000000000000000000000000000000000000000000000000000000081526004016118af9061478a565b60405180910390fd5b8080600101915050611760565b5060007f000000000000000000000000000000000000000000000000000000000000000073ffffffffffffffffffffffffffffffffffffffff1663d06ca61f8689896040518463ffffffff1660e01b815260040161192593929190614a65565b60006040518083038186803b15801561193d57600080fd5b505afa158015611951573d6000803e3d6000fd5b505050506040513d6000823e3d601f19601f8201168201806040525081019061197a919061394d565b600188889050038151811061198b57fe5b60200260200101519050838110156119d8576040517f08c379a00000000000000000000000000000000000000000000000000000000081526004016119cf9061486a565b60405180910390fd5b8273ffffffffffffffffffffffffffffffffffffffff1663095ea7b37f0000000000000000000000000000000000000000000000000000000000000000876040518363ffffffff1660e01b8152600401611a33929190614513565b602060405180830381600087803b158015611a4d57600080fd5b505af1158015611a61573d6000803e3d6000fd5b505050506040513d601f19601f82011682018060405250810190611a85919061398e565b5060607f000000000000000000000000000000000000000000000000000000000000000073ffffffffffffffffffffffffffffffffffffffff166338ed173987848b8b30611ade61070842612f4890919063ffffffff16565b6040518763ffffffff1660e01b8152600401611aff96959493929190614b6d565b600060405180830381600087803b158015611b1957600080fd5b505af1158015611b2d573d6000803e3d6000fd5b505050506040513d6000823e3d601f19601f82011682018060405250810190611b56919061394d565b9050600c60008473ffffffffffffffffffffffffffffffffffffffff1673ffffffffffffffffffffffffffffffffffffffff16815260200190815260200160002060009054906101000a900460ff16611c65576003839080600181540180825580915050600190039060005260206000200160009091909190916101000a81548173ffffffffffffffffffffffffffffffffffffffff021916908373ffffffffffffffffffffffffffffffffffffffff1602179055506001600c60008573ffffffffffffffffffffffffffffffffffffffff1673ffffffffffffffffffffffffffffffffffffffff16815260200190815260200160002060006101000a81548160ff0219169083151502179055505b611c8a8484888460018d8d90500381518110611c7d57fe5b602002602001015161312f565b5050505050505050565b600b60009054906101000a900460ff1681565b60085481565b611cb5612e1b565b60006002811115611cc257fe5b600560009054906101000a900460ff166002811115611cdd57fe5b1415611d1e576040517f08c379a0000000000000000000000000000000000000000000000000000000008152600401611d15906149aa565b60405180910390fd5b60005b6003805490508110156120d1576060611e0e60038381548110611d4057fe5b9060005260206000200160009054906101000a900473ffffffffffffffffffffffffffffffffffffffff167f000000000000000000000000000000000000000000000000000000000000000073ffffffffffffffffffffffffffffffffffffffff1663ad5c46486040518163ffffffff1660e01b815260040160206040518083038186803b158015611dd157600080fd5b505afa158015611de5573d6000803e3d6000fd5b505050506040513d601f19601f82011682018060405250810190611e099190613840565b613048565b9050600060038381548110611e1f57fe5b9060005260206000200160009054906101000a900473ffffffffffffffffffffffffffffffffffffffff1673ffffffffffffffffffffffffffffffffffffffff166370a08231306040518263ffffffff1660e01b8152600401611e8291906144dd565b60206040518083038186803b158015611e9a57600080fd5b505afa158015611eae573d6000803e3d6000fd5b505050506040513d601f19601f82011682018060405250810190611ed291906139e0565b90506000811415611ee45750506120c4565b60038381548110611ef157fe5b9060005260206000200160009054906101000a900473ffffffffffffffffffffffffffffffffffffffff1673ffffffffffffffffffffffffffffffffffffffff1663095ea7b37f0000000000000000000000000000000000000000000000000000000000000000836040518363ffffffff1660e01b8152600401611f76929190614513565b602060405180830381600087803b158015611f9057600080fd5b505af1158015611fa4573d6000803e3d6000fd5b505050506040513d601f19601f82011682018060405250810190611fc8919061398e565b507f000000000000000000000000000000000000000000000000000000000000000073ffffffffffffffffffffffffffffffffffffffff166318cbafe5826000853061070842016040518663ffffffff1660e01b815260040161202f959493929190614b13565b600060405180830381600087803b15801561204957600080fd5b505af115801561205d573d6000803e3d6000fd5b505050506040513d6000823e3d601f19601f82011682018060405250810190612086919061394d565b506003838154811061209457fe5b9060005260206000200160006101000a81549073ffffffffffffffffffffffffffffffffffffffff021916905550505b8080600101915050611d21565b50565b6120dc612fde565b6120e4612f9d565b4211612125576040517f08c379a000000000000000000000000000000000000000000000000000000000815260040161211c9061484a565b60405180910390fd5b61212f6002612ee1565b612137612f07565b600981905550600060075460095410156121f0577f000000000000000000000000000000000000000000000000000000000000000073ffffffffffffffffffffffffffffffffffffffff1663d10d51a26040518163ffffffff1660e01b815260040160206040518083038186803b1580156121b157600080fd5b505afa1580156121c5573d6000803e3d6000fd5b505050506040513d601f19601f820116820180604052508101906121e991906139b7565b9050612214565b7f000000000000000000000000000000000000000000000000000000000000000090505b61222a6122228260646132d7565b600954613309565b600a8190555060075461224a600a5460095461333b90919063ffffffff16565b10156122635761225861338b565b600881905550612272565b61226b612f07565b6008819055505b7f000000000000000000000000000000000000000000000000000000000000000073ffffffffffffffffffffffffffffffffffffffff1663e3a1c6fe6040518163ffffffff1660e01b8152600401600060405180830381600087803b1580156122da57600080fd5b505af11580156122ee573d6000803e3d6000fd5b505050507fbc141a1c0c073ed34f6fa9cdc66bb9473f488bccda93d1e43bb9a15c4391a92f600560009054906101000a900460ff16600281111561232e57fe5b60405161233b9190614a4a565b60405180910390a150565b61234e613393565b6000600260008373ffffffffffffffffffffffffffffffffffffffff1673ffffffffffffffffffffffffffffffffffffffff1681526020019081526020016000205414156123d1576040517f08c379a00000000000000000000000000000000000000000000000000000000081526004016123c89061488a565b60405180910390fd5b6000600260008373ffffffffffffffffffffffffffffffffffffffff1673ffffffffffffffffffffffffffffffffffffffff1681526020019081526020016000205490506000600260008473ffffffffffffffffffffffffffffffffffffffff1673ffffffffffffffffffffffffffffffffffffffff1681526020019081526020016000208190555061248d60405180604001604052808473ffffffffffffffffffffffffffffffffffffffff16815260200183815250612d1c565b808273ffffffffffffffffffffffffffffffffffffffff167fa3896ee6f93bcf0dae942b7d4c9073b9a3c233e301281c823f58a8f70ec1c43160405160405180910390a35050565b60606000805480602002602001604051908101604052809291908181526020016000905b8282101561258b57838290600052602060002090600202016040518060400160405290816000820160009054906101000a900473ffffffffffffffffffffffffffffffffffffffff1673ffffffffffffffffffffffffffffffffffffffff1673ffffffffffffffffffffffffffffffffffffffff168152602001600182015481525050815260200190600101906124f9565b50505050905090565b60606001805480602002602001604051908101604052809291908181526020016000905b828210156126be57838290600052602060002090600602016040518060c00160405290816000820160009054906101000a900473ffffffffffffffffffffffffffffffffffffffff1673ffffffffffffffffffffffffffffffffffffffff1673ffffffffffffffffffffffffffffffffffffffff1681526020016001820160009054906101000a900473ffffffffffffffffffffffffffffffffffffffff1673ffffffffffffffffffffffffffffffffffffffff1673ffffffffffffffffffffffffffffffffffffffff168152602001600282015481526020016003820154815260200160048201548152602001600582015481525050815260200190600101906125b8565b50505050905090565b6126cf613393565b600b60009054906101000a900460ff161561271f576040517f08c379a00000000000000000000000000000000000000000000000000000000081526004016127169061492a565b60405180910390fd5b600061272961338b565b11612769576040517f08c379a0000000000000000000000000000000000000000000000000000000008152600401612760906147aa565b60405180910390fd5b6001600b60006101000a81548160ff0219169083151502179055506000806009546007541061279c57600a549150612880565b61287d6128757f000000000000000000000000000000000000000000000000000000000000000073ffffffffffffffffffffffffffffffffffffffff1663ca8f4ae87f00000000000000000000000000000000000000000000000000000000000000006040518263ffffffff1660e01b815260040161281b91906144dd565b60206040518083038186803b15801561283357600080fd5b505afa158015612847573d6000803e3d6000fd5b505050506040513d601f19601f8201168201806040525081019061286b91906139b7565b60640360646132d7565b600a54613309565b91505b61289582600a5461333b90919063ffffffff16565b9050816128a061338b565b1061290d577f000000000000000000000000000000000000000000000000000000000000000073ffffffffffffffffffffffffffffffffffffffff166108fc839081150290604051600060405180830381858888f1935050505015801561290b573d6000803e3d6000fd5b505b60008111801561292457508061292161338b565b10155b15612991577f000000000000000000000000000000000000000000000000000000000000000073ffffffffffffffffffffffffffffffffffffffff166108fc829081150290604051600060405180830381858888f1935050505015801561298f573d6000803e3d6000fd5b505b6000811180156129a45750600854600954145b80156129d757507f00000000000000000000000000000000000000000000000000000000000000006129d461338b565b10155b15612a64577f000000000000000000000000000000000000000000000000000000000000000073ffffffffffffffffffffffffffffffffffffffff166108fc7f00000000000000000000000000000000000000000000000000000000000000009081150290604051600060405180830381858888f19350505050158015612a62573d6000803e3d6000fd5b505b5050565b600560009054906101000a900460ff1681565b600080600080600080600080600080600060607f00000000000000000000000000000000000000000000000000000000000000006006547f00000000000000000000000000000000000000000000000000000000000000007f00000000000000000000000000000000000000000000000000000000000000007f00000000000000000000000000000000000000000000000000000000000000007f0000000000000000000000000000000000000000000000000000000000000000600560009054906101000a900460ff16477f00000000000000000000000000000000000000000000000000000000000000007f00000000000000000000000000000000000000000000000000000000000000007f000000000000000000000000000000000000000000000000000000000000000060008b9b5080805480602002602001604051908101604052809291908181526020016000905b82821015612c6257838290600052602060002090600202016040518060400160405290816000820160009054906101000a900473ffffffffffffffffffffffffffffffffffffffff1673ffffffffffffffffffffffffffffffffffffffff1673ffffffffffffffffffffffffffffffffffffffff16815260200160018201548152505081526020019060010190612bd0565b5050505090509b509b509b509b509b509b509b509b509b509b509b509b50909192939495969798999a9b565b7f000000000000000000000000000000000000000000000000000000000000000081565b60006002811115612cbf57fe5b600560009054906101000a900460ff166002811115612cda57fe5b14612d1a576040517f08c379a0000000000000000000000000000000000000000000000000000000008152600401612d1190614a2a565b60405180910390fd5b565b60006002811115612d2957fe5b600560009054906101000a900460ff166002811115612d4457fe5b1415612d9e57806000015173ffffffffffffffffffffffffffffffffffffffff166108fc82602001519081150290604051600060405180830381858888f19350505050158015612d98573d6000803e3d6000fd5b50612e18565b806000015173ffffffffffffffffffffffffffffffffffffffff166108fc612deb612dcf84602001516007546133fc565b612de6600a5460085461333b90919063ffffffff16565b613309565b9081150290604051600060405180830381858888f19350505050158015612e16573d6000803e3d6000fd5b505b50565b7f000000000000000000000000000000000000000000000000000000000000000073ffffffffffffffffffffffffffffffffffffffff163373ffffffffffffffffffffffffffffffffffffffff161480612ea057503073ffffffffffffffffffffffffffffffffffffffff163373ffffffffffffffffffffffffffffffffffffffff16145b612edf576040517f08c379a0000000000000000000000000000000000000000000000000000000008152600401612ed6906149ea565b60405180910390fd5b565b80600560006101000a81548160ff02191690836002811115612eff57fe5b021790555050565b6000612f437f0000000000000000000000000000000000000000000000000000000000000000612f3561338b565b61333b90919063ffffffff16565b905090565b600080828401905083811015612f93576040517f08c379a0000000000000000000000000000000000000000000000000000000008152600401612f8a9061474a565b60405180910390fd5b8091505092915050565b6000612fd562278d007f000000000000000000000000000000000000000000000000000000000000000061342e90919063ffffffff16565b60065401905090565b60016002811115612feb57fe5b600560009054906101000a900460ff16600281111561300657fe5b14613046576040517f08c379a000000000000000000000000000000000000000000000000000000000815260040161303d906146ea565b60405180910390fd5b565b606080600267ffffffffffffffff8111801561306357600080fd5b506040519080825280602002602001820160405280156130925781602001602082028036833780820191505090505b50905083816000815181106130a357fe5b602002602001019073ffffffffffffffffffffffffffffffffffffffff16908173ffffffffffffffffffffffffffffffffffffffff168152505082816001815181106130eb57fe5b602002602001019073ffffffffffffffffffffffffffffffffffffffff16908173ffffffffffffffffffffffffffffffffffffffff16815250508091505092915050565b808373ffffffffffffffffffffffffffffffffffffffff168573ffffffffffffffffffffffffffffffffffffffff167f6e31608d2e2f6546c30f3320a34d3826089ef057b2f52e93c107ca9d360f6dd48560405161318d9190614a4a565b60405180910390a460016040518060c001604052808673ffffffffffffffffffffffffffffffffffffffff1681526020018573ffffffffffffffffffffffffffffffffffffffff16815260200184815260200183815260200142815260200143815250908060018154018082558091505060019003906000526020600020906006020160009091909190915060008201518160000160006101000a81548173ffffffffffffffffffffffffffffffffffffffff021916908373ffffffffffffffffffffffffffffffffffffffff16021790555060208201518160010160006101000a81548173ffffffffffffffffffffffffffffffffffffffff021916908373ffffffffffffffffffffffffffffffffffffffff16021790555060408201518160020155606082015181600301556080820151816004015560a08201518160050155505050505050565b6000613301826132f3620186a08661349e90919063ffffffff16565b61359c90919063ffffffff16565b905092915050565b6000613333620186a0613325858561349e90919063ffffffff16565b61359c90919063ffffffff16565b905092915050565b600082821115613380576040517f08c379a0000000000000000000000000000000000000000000000000000000008152600401613377906147ca565b60405180910390fd5b818303905092915050565b600047905090565b60028081111561339f57fe5b600560009054906101000a900460ff1660028111156133ba57fe5b146133fa576040517f08c379a00000000000000000000000000000000000000000000000000000000081526004016133f1906149ca565b60405180910390fd5b565b600061342682613418620186a08661349e90919063ffffffff16565b61359c90919063ffffffff16565b905092915050565b6000808314156134415760009050613498565b600082840290508284828161345257fe5b0414613493576040517f08c379a000000000000000000000000000000000000000000000000000000000815260040161348a906148ca565b60405180910390fd5b809150505b92915050565b6000808314156134b15760009050613596565b7fffffffffffffffffffffffffffffffffffffffffffffffffffffffffffffffff831480156134ff57507f800000000000000000000000000000000000000000000000000000000000000082145b1561353f576040517f08c379a00000000000000000000000000000000000000000000000000000000081526004016135369061490a565b60405180910390fd5b600082840290508284828161355057fe5b0514613591576040517f08c379a00000000000000000000000000000000000000000000000000000000081526004016135889061490a565b60405180910390fd5b809150505b92915050565b6000808214156135e1576040517f08c379a00000000000000000000000000000000000000000000000000000000081526004016135d890614a0a565b60405180910390fd5b7fffffffffffffffffffffffffffffffffffffffffffffffffffffffffffffffff8214801561362f57507f800000000000000000000000000000000000000000000000000000000000000083145b1561366f576040517f08c379a00000000000000000000000000000000000000000000000000000000081526004016136669061482a565b60405180910390fd5b600082848161367a57fe5b0590508091505092915050565b6040518060400160405280600073ffffffffffffffffffffffffffffffffffffffff168152602001600081525090565b6000813590506136c681614ee5565b92915050565b6000815190506136db81614ee5565b92915050565b6000813590506136f081614efc565b92915050565b60008083601f84011261370857600080fd5b8235905067ffffffffffffffff81111561372157600080fd5b60208301915083602082028301111561373957600080fd5b9250929050565b600082601f83011261375157600080fd5b815161376461375f82614c50565b614c23565b9150818183526020840193506020810190508385602084028201111561378957600080fd5b60005b838110156137b9578161379f8882613802565b84526020840193506020830192505060018101905061378c565b5050505092915050565b6000815190506137d281614f13565b92915050565b6000815190506137e781614f2a565b92915050565b6000813590506137fc81614f41565b92915050565b60008151905061381181614f41565b92915050565b60006020828403121561382957600080fd5b6000613837848285016136b7565b91505092915050565b60006020828403121561385257600080fd5b6000613860848285016136cc565b91505092915050565b60006020828403121561387b57600080fd5b6000613889848285016136e1565b91505092915050565b6000806000606084860312156138a757600080fd5b60006138b5868287016136e1565b93505060206138c6868287016137ed565b92505060406138d7868287016137ed565b9150509250925092565b600080600080606085870312156138f757600080fd5b600085013567ffffffffffffffff81111561391157600080fd5b61391d878288016136f6565b94509450506020613930878288016137ed565b9250506040613941878288016137ed565b91505092959194509250565b60006020828403121561395f57600080fd5b600082015167ffffffffffffffff81111561397957600080fd5b61398584828501613740565b91505092915050565b6000602082840312156139a057600080fd5b60006139ae848285016137c3565b91505092915050565b6000602082840312156139c957600080fd5b60006139d7848285016137d8565b91505092915050565b6000602082840312156139f257600080fd5b6000613a0084828501613802565b91505092915050565b6000613a158383613a78565b60208301905092915050565b6000613a2d8383613a96565b60208301905092915050565b6000613a458383614415565b60408301905092915050565b6000613a5d8383614444565b60c08301905092915050565b613a7281614e12565b82525050565b613a8181614dad565b82525050565b613a9081614dad565b82525050565b613a9f81614d9b565b82525050565b613aae81614d9b565b82525050565b6000613ac08385614d2f565b9350613acb82614c78565b8060005b85811015613b0457613ae18284614d84565b613aeb8882613a21565b9750613af683614cee565b925050600181019050613acf565b5085925050509392505050565b6000613b1c82614cc2565b613b268185614d2f565b9350613b3183614c82565b8060005b83811015613b62578151613b498882613a21565b9750613b5483614cfb565b925050600181019050613b35565b5085935050505092915050565b6000613b7a82614ccd565b613b848185614d40565b9350613b8f83614c92565b8060005b83811015613bc0578151613ba78882613a09565b9750613bb283614d08565b925050600181019050613b93565b5085935050505092915050565b6000613bd882614cd8565b613be28185614d51565b9350613bed83614ca2565b8060005b83811015613c1e578151613c058882613a39565b9750613c1083614d15565b925050600181019050613bf1565b5085935050505092915050565b6000613c3682614ce3565b613c408185614d62565b9350613c4b83614cb2565b8060005b83811015613c7c578151613c638882613a51565b9750613c6e83614d22565b925050600181019050613c4f565b5085935050505092915050565b613c9281614dbf565b82525050565b613ca181614e24565b82525050565b613cb081614e48565b82525050565b613cbf81614e6c565b82525050565b613cce81614e90565b82525050565b613cdd81614ea2565b82525050565b6000613cf0600283614d73565b91507f53410000000000000000000000000000000000000000000000000000000000006000830152602082019050919050565b6000613d30600283614d73565b91507f4e4f0000000000000000000000000000000000000000000000000000000000006000830152602082019050919050565b6000613d70600283614d73565b91507f4f4c0000000000000000000000000000000000000000000000000000000000006000830152602082019050919050565b6000613db0601b83614d73565b91507f536166654d6174683a206164646974696f6e206f766572666c6f7700000000006000830152602082019050919050565b6000613df0600283614d73565b91507f544c0000000000000000000000000000000000000000000000000000000000006000830152602082019050919050565b6000613e30600283614d73565b91507f54310000000000000000000000000000000000000000000000000000000000006000830152602082019050919050565b6000613e70600283614d73565b91507f42300000000000000000000000000000000000000000000000000000000000006000830152602082019050919050565b6000613eb0601e83614d73565b91507f536166654d6174683a207375627472616374696f6e206f766572666c6f7700006000830152602082019050919050565b6000613ef0600283614d73565b91507f50300000000000000000000000000000000000000000000000000000000000006000830152602082019050919050565b6000613f30600283614d73565b91507f54300000000000000000000000000000000000000000000000000000000000006000830152602082019050919050565b6000613f70602183614d73565b91507f5369676e6564536166654d6174683a206469766973696f6e206f766572666c6f60008301527f77000000000000000000000000000000000000000000000000000000000000006020830152604082019050919050565b6000613fd6600283614d73565b91507f4e460000000000000000000000000000000000000000000000000000000000006000830152602082019050919050565b6000614016600283614d73565b91507f54320000000000000000000000000000000000000000000000000000000000006000830152602082019050919050565b6000614056600283614d73565b91507f4e440000000000000000000000000000000000000000000000000000000000006000830152602082019050919050565b6000614096600283614d73565b91507f43570000000000000000000000000000000000000000000000000000000000006000830152602082019050919050565b60006140d6602183614d73565b91507f536166654d6174683a206d756c7469706c69636174696f6e206f766572666c6f60008301527f77000000000000000000000000000000000000000000000000000000000000006020830152604082019050919050565b600061413c600283614d73565b91507f49410000000000000000000000000000000000000000000000000000000000006000830152602082019050919050565b600061417c602783614d73565b91507f5369676e6564536166654d6174683a206d756c7469706c69636174696f6e206f60008301527f766572666c6f77000000000000000000000000000000000000000000000000006020830152604082019050919050565b60006141e2600283614d73565b91507f50570000000000000000000000000000000000000000000000000000000000006000830152602082019050919050565b6000614222600283614d73565b91507f43530000000000000000000000000000000000000000000000000000000000006000830152602082019050919050565b6000614262600283614d73565b91507f4e410000000000000000000000000000000000000000000000000000000000006000830152602082019050919050565b60006142a2600283614d73565b91507f4d4f0000000000000000000000000000000000000000000000000000000000006000830152602082019050919050565b60006142e2600283614d73565b91507f46530000000000000000000000000000000000000000000000000000000000006000830152602082019050919050565b6000614322600283614d73565b91507f53430000000000000000000000000000000000000000000000000000000000006000830152602082019050919050565b6000614362600283614d73565b91507f4e500000000000000000000000000000000000000000000000000000000000006000830152602082019050919050565b60006143a2602083614d73565b91507f5369676e6564536166654d6174683a206469766973696f6e206279207a65726f6000830152602082019050919050565b60006143e2600283614d73565b91507f534f0000000000000000000000000000000000000000000000000000000000006000830152602082019050919050565b60408201600082015161442b6000850182613a78565b50602082015161443e60208501826144bf565b50505050565b60c08201600082015161445a6000850182613a96565b50602082015161446d6020850182613a96565b50604082015161448060408501826144bf565b50606082015161449360608501826144bf565b5060808201516144a660808501826144bf565b5060a08201516144b960a08501826144bf565b50505050565b6144c881614e08565b82525050565b6144d781614e08565b82525050565b60006020820190506144f26000830184613a69565b92915050565b600060208201905061450d6000830184613a87565b92915050565b60006040820190506145286000830185613a69565b61453560208301846144ce565b9392505050565b600061018082019050614552600083018f613aa5565b61455f602083018e6144ce565b61456c604083018d6144ce565b614579606083018c6144ce565b614586608083018b6144ce565b61459360a083018a6144ce565b6145a060c0830189613cc5565b6145ad60e08301886144ce565b6145bb6101008301876144ce565b6145c96101208301866144ce565b6145d76101408301856144ce565b8181036101608301526145ea8184613bcd565b90509d9c50505050505050505050505050565b600060208201905081810360008301526146178184613b6f565b905092915050565b600060208201905081810360008301526146398184613bcd565b905092915050565b6000602082019050818103600083015261465b8184613c2b565b905092915050565b60006020820190506146786000830184613c89565b92915050565b60006020820190506146936000830184613c98565b92915050565b60006020820190506146ae6000830184613ca7565b92915050565b60006020820190506146c96000830184613cb6565b92915050565b60006020820190506146e46000830184613cc5565b92915050565b6000602082019050818103600083015261470381613ce3565b9050919050565b6000602082019050818103600083015261472381613d23565b9050919050565b6000602082019050818103600083015261474381613d63565b9050919050565b6000602082019050818103600083015261476381613da3565b9050919050565b6000602082019050818103600083015261478381613de3565b9050919050565b600060208201905081810360008301526147a381613e23565b9050919050565b600060208201905081810360008301526147c381613e63565b9050919050565b600060208201905081810360008301526147e381613ea3565b9050919050565b6000602082019050818103600083015261480381613ee3565b9050919050565b6000602082019050818103600083015261482381613f23565b9050919050565b6000602082019050818103600083015261484381613f63565b9050919050565b6000602082019050818103600083015261486381613fc9565b9050919050565b6000602082019050818103600083015261488381614009565b9050919050565b600060208201905081810360008301526148a381614049565b9050919050565b600060208201905081810360008301526148c381614089565b9050919050565b600060208201905081810360008301526148e3816140c9565b9050919050565b600060208201905081810360008301526149038161412f565b9050919050565b600060208201905081810360008301526149238161416f565b9050919050565b60006020820190508181036000830152614943816141d5565b9050919050565b6000602082019050818103600083015261496381614215565b9050919050565b6000602082019050818103600083015261498381614255565b9050919050565b600060208201905081810360008301526149a381614295565b9050919050565b600060208201905081810360008301526149c3816142d5565b9050919050565b600060208201905081810360008301526149e381614315565b9050919050565b60006020820190508181036000830152614a0381614355565b9050919050565b60006020820190508181036000830152614a2381614395565b9050919050565b60006020820190508181036000830152614a43816143d5565b9050919050565b6000602082019050614a5f60008301846144ce565b92915050565b6000604082019050614a7a60008301866144ce565b8181036020830152614a8d818486613ab4565b9050949350505050565b6000604082019050614aac60008301856144ce565b8181036020830152614abe8184613b11565b90509392505050565b6000608082019050614adc60008301876144ce565b8181036020830152614aee8186613b11565b9050614afd6040830185613a69565b614b0a60608301846144ce565b95945050505050565b600060a082019050614b2860008301886144ce565b614b356020830187613cd4565b8181036040830152614b478186613b11565b9050614b566060830185613a69565b614b6360808301846144ce565b9695505050505050565b600060a082019050614b8260008301896144ce565b614b8f60208301886144ce565b8181036040830152614ba2818688613ab4565b9050614bb16060830185613a69565b614bbe60808301846144ce565b979650505050505050565b600060a082019050614bde60008301886144ce565b614beb60208301876144ce565b8181036040830152614bfd8186613b11565b9050614c0c6060830185613a69565b614c1960808301846144ce565b9695505050505050565b6000604051905081810181811067ffffffffffffffff82111715614c4657600080fd5b8060405250919050565b600067ffffffffffffffff821115614c6757600080fd5b602082029050602081019050919050565b6000819050919050565b6000819050602082019050919050565b6000819050602082019050919050565b6000819050602082019050919050565b6000819050602082019050919050565b600081519050919050565b600081519050919050565b600081519050919050565b600081519050919050565b6000602082019050919050565b6000602082019050919050565b6000602082019050919050565b6000602082019050919050565b6000602082019050919050565b600082825260208201905092915050565b600082825260208201905092915050565b600082825260208201905092915050565b600082825260208201905092915050565b600082825260208201905092915050565b6000614d9360208401846136b7565b905092915050565b6000614da682614de8565b9050919050565b6000614db882614de8565b9050919050565b60008115159050919050565b6000819050614dd982614ed8565b919050565b6000819050919050565b600073ffffffffffffffffffffffffffffffffffffffff82169050919050565b6000819050919050565b6000614e1d82614eb4565b9050919050565b6000614e2f82614e36565b9050919050565b6000614e4182614de8565b9050919050565b6000614e5382614e5a565b9050919050565b6000614e6582614de8565b9050919050565b6000614e7782614e7e565b9050919050565b6000614e8982614de8565b9050919050565b6000614e9b82614dcb565b9050919050565b6000614ead82614e08565b9050919050565b6000614ebf82614ec6565b9050919050565b6000614ed182614de8565b9050919050565b60038110614ee257fe5b50565b614eee81614d9b565b8114614ef957600080fd5b50565b614f0581614dad565b8114614f1057600080fd5b50565b614f1c81614dbf565b8114614f2757600080fd5b50565b614f3381614dde565b8114614f3e57600080fd5b50565b614f4a81614e08565b8114614f5557600080fd5b5056fea26469706673582212201547ab08756bc2c2413973a0009a84c454208c82e493fe3b14adfce0a5061b5664736f6c63430006060033",
  "linkReferences": {},
  "deployedLinkReferences": {}
}