{
  "_format": "hh-sol-artifact-1",
  "contractName": "HedgeFund",
  "sourceName": "contracts/HedgeFund.sol",
  "abi": [
    {
      "inputs": [
        {
          "components": [
            {
              "internalType": "address payable",
              "name": "swapRouterContract",
              "type": "address"
            },
            {
              "internalType": "address payable",
              "name": "eFundTokenContract",
              "type": "address"
            },
            {
              "internalType": "address payable",
              "name": "eFundPlatform",
              "type": "address"
            },
            {
              "internalType": "uint256",
              "name": "softCap",
              "type": "uint256"
            },
            {
              "internalType": "uint256",
              "name": "hardCap",
              "type": "uint256"
            },
            {
              "internalType": "uint256",
              "name": "profitFee",
              "type": "uint256"
            },
            {
              "internalType": "uint256",
              "name": "minimalDepostitAmount",
              "type": "uint256"
            },
            {
              "internalType": "uint256",
              "name": "minTimeUntilFundStart",
              "type": "uint256"
            },
            {
              "internalType": "address payable",
              "name": "managerAddress",
              "type": "address"
            },
            {
              "internalType": "uint256",
              "name": "duration",
              "type": "uint256"
            },
            {
              "internalType": "uint256",
              "name": "managerCollateral",
              "type": "uint256"
            },
            {
              "internalType": "address payable[]",
              "name": "allowedTokenAddresses",
              "type": "address[]"
            }
          ],
          "internalType": "struct HedgeFundInfo",
          "name": "_hedgeFundInfo",
          "type": "tuple"
        }
      ],
      "stateMutability": "nonpayable",
      "type": "constructor"
    },
    {
      "anonymous": false,
      "inputs": [
        {
          "indexed": true,
          "internalType": "address payable",
          "name": "_depositOwner",
          "type": "address"
        },
        {
          "indexed": true,
          "internalType": "uint256",
          "name": "_amount",
          "type": "uint256"
        }
      ],
      "name": "DepositWithdrawedBeforeActiveState",
      "type": "event"
    },
    {
      "anonymous": false,
      "inputs": [
        {
          "indexed": true,
          "internalType": "address",
          "name": "_depositor",
          "type": "address"
        },
        {
          "indexed": true,
          "internalType": "uint256",
          "name": "_amount",
          "type": "uint256"
        }
      ],
      "name": "DepositsWitdrawed",
      "type": "event"
    },
    {
      "anonymous": false,
      "inputs": [
        {
          "indexed": false,
          "internalType": "uint256",
          "name": "_newStatus",
          "type": "uint256"
        }
      ],
      "name": "FundStatusChanged",
      "type": "event"
    },
    {
      "anonymous": false,
      "inputs": [
        {
          "indexed": true,
          "internalType": "address payable",
          "name": "_depositOwner",
          "type": "address"
        },
        {
          "indexed": true,
          "internalType": "uint256",
          "name": "_id",
          "type": "uint256"
        },
        {
          "indexed": true,
          "internalType": "uint256",
          "name": "_depositAmount",
          "type": "uint256"
        }
      ],
      "name": "NewDeposit",
      "type": "event"
    },
    {
      "anonymous": false,
      "inputs": [
        {
          "indexed": true,
          "internalType": "address",
          "name": "_tokenFrom",
          "type": "address"
        },
        {
          "indexed": true,
          "internalType": "address",
          "name": "_tokenTo",
          "type": "address"
        },
        {
          "indexed": false,
          "internalType": "uint256",
          "name": "_amountFrom",
          "type": "uint256"
        },
        {
          "indexed": true,
          "internalType": "uint256",
          "name": "_amountTo",
          "type": "uint256"
        }
      ],
      "name": "TokensSwap",
      "type": "event"
    },
    {
      "stateMutability": "payable",
      "type": "fallback"
    },
    {
      "inputs": [],
      "name": "baseBalance",
      "outputs": [
        {
          "internalType": "uint256",
          "name": "",
          "type": "uint256"
        }
      ],
      "stateMutability": "view",
      "type": "function"
    },
    {
      "inputs": [],
      "name": "eFundPlatform",
      "outputs": [
        {
          "internalType": "contract EFundPlatform",
          "name": "",
          "type": "address"
        }
      ],
      "stateMutability": "view",
      "type": "function"
    },
    {
      "inputs": [],
      "name": "eFundToken",
      "outputs": [
        {
          "internalType": "contract IERC20",
          "name": "",
          "type": "address"
        }
      ],
      "stateMutability": "view",
      "type": "function"
    },
    {
      "inputs": [],
      "name": "endBalance",
      "outputs": [
        {
          "internalType": "uint256",
          "name": "",
          "type": "uint256"
        }
      ],
      "stateMutability": "view",
      "type": "function"
    },
    {
      "inputs": [],
      "name": "fundCreatedAt",
      "outputs": [
        {
          "internalType": "uint256",
          "name": "",
          "type": "uint256"
        }
      ],
      "stateMutability": "view",
      "type": "function"
    },
    {
      "inputs": [],
      "name": "fundDurationMonths",
      "outputs": [
        {
          "internalType": "uint256",
          "name": "",
          "type": "uint256"
        }
      ],
      "stateMutability": "view",
      "type": "function"
    },
    {
      "inputs": [],
      "name": "fundManager",
      "outputs": [
        {
          "internalType": "address payable",
          "name": "",
          "type": "address"
        }
      ],
      "stateMutability": "view",
      "type": "function"
    },
    {
      "inputs": [],
      "name": "fundProfitWitdrawed",
      "outputs": [
        {
          "internalType": "bool",
          "name": "",
          "type": "bool"
        }
      ],
      "stateMutability": "view",
      "type": "function"
    },
    {
      "inputs": [],
      "name": "fundStatus",
      "outputs": [
        {
          "internalType": "enum HedgeFund.FundStatus",
          "name": "",
          "type": "uint8"
        }
      ],
      "stateMutability": "view",
      "type": "function"
    },
    {
      "inputs": [],
      "name": "getAllDeposits",
      "outputs": [
        {
          "components": [
            {
              "internalType": "address payable",
              "name": "depositOwner",
              "type": "address"
            },
            {
              "internalType": "uint256",
              "name": "depositAmount",
              "type": "uint256"
            }
          ],
          "internalType": "struct HedgeFund.DepositInfo[]",
          "name": "",
          "type": "tuple[]"
        }
      ],
      "stateMutability": "view",
      "type": "function"
    },
    {
      "inputs": [],
      "name": "getAllSwaps",
      "outputs": [
        {
          "components": [
            {
              "internalType": "address",
              "name": "from",
              "type": "address"
            },
            {
              "internalType": "address",
              "name": "to",
              "type": "address"
            },
            {
              "internalType": "uint256",
              "name": "amountFrom",
              "type": "uint256"
            },
            {
              "internalType": "uint256",
              "name": "amountTo",
              "type": "uint256"
            },
            {
              "internalType": "uint256",
              "name": "timeStamp",
              "type": "uint256"
            },
            {
              "internalType": "uint256",
              "name": "block",
              "type": "uint256"
            }
          ],
          "internalType": "struct SwapInfo[]",
          "name": "",
          "type": "tuple[]"
        }
      ],
      "stateMutability": "view",
      "type": "function"
    },
    {
      "inputs": [],
      "name": "getAllowedTokensAddresses",
      "outputs": [
        {
          "internalType": "address payable[]",
          "name": "",
          "type": "address[]"
        }
      ],
      "stateMutability": "view",
      "type": "function"
    },
    {
      "inputs": [],
      "name": "getBoughtTokensAddresses",
      "outputs": [
        {
          "internalType": "address payable[]",
          "name": "",
          "type": "address[]"
        }
      ],
      "stateMutability": "view",
      "type": "function"
    },
    {
      "inputs": [],
      "name": "getEndTime",
      "outputs": [
        {
          "internalType": "uint256",
          "name": "",
          "type": "uint256"
        }
      ],
      "stateMutability": "view",
      "type": "function"
    },
    {
      "inputs": [],
      "name": "getFundInfo",
      "outputs": [
        {
          "internalType": "address",
          "name": "_fundManager",
          "type": "address"
        },
        {
          "internalType": "uint256",
          "name": "_fundStartTimestamp",
          "type": "uint256"
        },
        {
          "internalType": "uint256",
          "name": "_minDepositAmount",
          "type": "uint256"
        },
        {
          "internalType": "uint256",
          "name": "_fundCanBeStartedAt",
          "type": "uint256"
        },
        {
          "internalType": "uint256",
          "name": "_fundDurationInMonths",
          "type": "uint256"
        },
        {
          "internalType": "uint256",
          "name": "_profitFee",
          "type": "uint256"
        },
        {
          "internalType": "enum HedgeFund.FundStatus",
          "name": "_fundStatus",
          "type": "uint8"
        },
        {
          "internalType": "uint256",
          "name": "_currentBalance",
          "type": "uint256"
        },
        {
          "internalType": "uint256",
          "name": "_managerCollateral",
          "type": "uint256"
        },
        {
          "internalType": "uint256",
          "name": "_hardCap",
          "type": "uint256"
        },
        {
          "internalType": "uint256",
          "name": "_softCap",
          "type": "uint256"
        },
        {
          "components": [
            {
              "internalType": "address payable",
              "name": "depositOwner",
              "type": "address"
            },
            {
              "internalType": "uint256",
              "name": "depositAmount",
              "type": "uint256"
            }
          ],
          "internalType": "struct HedgeFund.DepositInfo[]",
          "name": "_deposits",
          "type": "tuple[]"
        }
      ],
      "stateMutability": "view",
      "type": "function"
    },
    {
      "inputs": [],
      "name": "isDepositsWithdrawed",
      "outputs": [
        {
          "internalType": "bool",
          "name": "",
          "type": "bool"
        }
      ],
      "stateMutability": "view",
      "type": "function"
    },
    {
      "inputs": [],
      "name": "lockedFundProfit",
      "outputs": [
        {
          "internalType": "uint256",
          "name": "",
          "type": "uint256"
        }
      ],
      "stateMutability": "view",
      "type": "function"
    },
    {
      "inputs": [],
      "name": "makeDeposit",
      "outputs": [],
      "stateMutability": "payable",
      "type": "function"
    },
    {
      "inputs": [],
      "name": "router",
      "outputs": [
        {
          "internalType": "contract UniswapV2Router02",
          "name": "",
          "type": "address"
        }
      ],
      "stateMutability": "view",
      "type": "function"
    },
    {
      "inputs": [],
      "name": "setFundStatusActive",
      "outputs": [],
      "stateMutability": "nonpayable",
      "type": "function"
    },
    {
      "inputs": [],
      "name": "setFundStatusCompleted",
      "outputs": [],
      "stateMutability": "nonpayable",
      "type": "function"
    },
    {
      "inputs": [
        {
          "internalType": "address[]",
          "name": "path",
          "type": "address[]"
        },
        {
          "internalType": "uint256",
          "name": "amountIn",
          "type": "uint256"
        },
        {
          "internalType": "uint256",
          "name": "amountOutMin",
          "type": "uint256"
        }
      ],
      "name": "swapERC20ToERC20",
      "outputs": [],
      "stateMutability": "nonpayable",
      "type": "function"
    },
    {
      "inputs": [
        {
          "internalType": "address payable",
          "name": "tokenFrom",
          "type": "address"
        },
        {
          "internalType": "uint256",
          "name": "amountIn",
          "type": "uint256"
        },
        {
          "internalType": "uint256",
          "name": "amountOutMin",
          "type": "uint256"
        }
      ],
      "name": "swapERC20ToETH",
      "outputs": [],
      "stateMutability": "nonpayable",
      "type": "function"
    },
    {
      "inputs": [
        {
          "internalType": "address payable",
          "name": "tokenTo",
          "type": "address"
        },
        {
          "internalType": "uint256",
          "name": "amountIn",
          "type": "uint256"
        },
        {
          "internalType": "uint256",
          "name": "amountOutMin",
          "type": "uint256"
        }
      ],
      "name": "swapETHToERC20",
      "outputs": [],
      "stateMutability": "nonpayable",
      "type": "function"
    },
    {
      "inputs": [
        {
          "internalType": "address",
          "name": "",
          "type": "address"
        }
      ],
      "name": "userDeposits",
      "outputs": [
        {
          "internalType": "uint256",
          "name": "",
          "type": "uint256"
        }
      ],
      "stateMutability": "view",
      "type": "function"
    },
    {
      "inputs": [],
      "name": "withdrawDepositsBeforeFundStarted",
      "outputs": [],
      "stateMutability": "nonpayable",
      "type": "function"
    },
    {
      "inputs": [
        {
          "internalType": "address payable",
          "name": "_of",
          "type": "address"
        }
      ],
      "name": "withdrawDepositsOf",
      "outputs": [],
      "stateMutability": "nonpayable",
      "type": "function"
    },
    {
      "inputs": [],
      "name": "withdrawFundProfit",
      "outputs": [],
      "stateMutability": "nonpayable",
      "type": "function"
    },
    {
      "stateMutability": "payable",
      "type": "receive"
    }
  ],
  "bytecode": "0x6102006040523480156200001257600080fd5b5060405162005478380380620054788339818101604052810190620000389190620005fa565b6200004e816101200151620002dc60201b60201c565b62000090576040517f08c379a0000000000000000000000000000000000000000000000000000000008152600401620000879062000681565b60405180910390fd5b806000015173ffffffffffffffffffffffffffffffffffffffff1660c08173ffffffffffffffffffffffffffffffffffffffff1660601b81525050806020015173ffffffffffffffffffffffffffffffffffffffff1660808173ffffffffffffffffffffffffffffffffffffffff1660601b81525050806040015173ffffffffffffffffffffffffffffffffffffffff1660a08173ffffffffffffffffffffffffffffffffffffffff1660601b8152505080610100015173ffffffffffffffffffffffffffffffffffffffff166101a08173ffffffffffffffffffffffffffffffffffffffff1660601b815250506000600560006101000a81548160ff021916908360028111156200019e57fe5b02179055508061012001516101c08181525050806060015161014081815250508060800151610160818152505080610160015160049080519060200190620001e892919062000318565b506000600d60006101000a81548160ff0219169083151502179055504261010081815250508060e00151420161012081815250508060c0015160e0818152505080610140015161018081815250508060a001516101e0818152505060005b81610160015151811015620002d4576001600c600084610160015184815181106200026d57fe5b602002602001015173ffffffffffffffffffffffffffffffffffffffff1673ffffffffffffffffffffffffffffffffffffffff16815260200190815260200160002060006101000a81548160ff021916908315150217905550808060010191505062000246565b50506200077d565b600080821480620002ed5750600182145b80620002f95750600282145b80620003055750600382145b80620003115750600682145b9050919050565b82805482825590600052602060002090810192821562000394579160200282015b82811115620003935782518260006101000a81548173ffffffffffffffffffffffffffffffffffffffff021916908373ffffffffffffffffffffffffffffffffffffffff1602179055509160200191906001019062000339565b5b509050620003a39190620003a7565b5090565b620003ea91905b80821115620003e657600081816101000a81549073ffffffffffffffffffffffffffffffffffffffff021916905550600101620003ae565b5090565b90565b600081519050620003fe8162000749565b92915050565b600082601f8301126200041657600080fd5b81516200042d6200042782620006d1565b620006a3565b915081818352602084019350602081019050838560208402820111156200045357600080fd5b60005b838110156200048757816200046c8882620003ed565b84526020840193506020830192505060018101905062000456565b5050505092915050565b60006101808284031215620004a557600080fd5b620004b2610180620006a3565b90506000620004c484828501620003ed565b6000830152506020620004da84828501620003ed565b6020830152506040620004f084828501620003ed565b60408301525060606200050684828501620005e3565b60608301525060806200051c84828501620005e3565b60808301525060a06200053284828501620005e3565b60a08301525060c06200054884828501620005e3565b60c08301525060e06200055e84828501620005e3565b60e0830152506101006200057584828501620003ed565b610100830152506101206200058d84828501620005e3565b61012083015250610140620005a584828501620005e3565b6101408301525061016082015167ffffffffffffffff811115620005c857600080fd5b620005d68482850162000404565b6101608301525092915050565b600081519050620005f48162000763565b92915050565b6000602082840312156200060d57600080fd5b600082015167ffffffffffffffff8111156200062857600080fd5b620006368482850162000491565b91505092915050565b60006200064e601083620006fa565b91507f496e76616c6964206475726174696f6e000000000000000000000000000000006000830152602082019050919050565b600060208201905081810360008301526200069c816200063f565b9050919050565b6000604051905081810181811067ffffffffffffffff82111715620006c757600080fd5b8060405250919050565b600067ffffffffffffffff821115620006e957600080fd5b602082029050602081019050919050565b600082825260208201905092915050565b600062000718826200071f565b9050919050565b600073ffffffffffffffffffffffffffffffffffffffff82169050919050565b6000819050919050565b62000754816200070b565b81146200076057600080fd5b50565b6200076e816200073f565b81146200077a57600080fd5b50565b60805160601c60a05160601c60c05160601c60e05161010051610120516101405161016051610180516101a05160601c6101c0516101e051614bd8620008a060003980612014528061282452508061186352806128035280612bbc5250806108325280610d6f52806112dc528061183f528061188d52806125c0528061270b528061279d525080612856525080610ae9528061287752508061289852508061062652806108ff52806127e252508061181b525080610a8652806127c1525080610ecd5280610f745280611099528061112d528061144e52806114f652806116015280611b5c5280611c885280611d1c528061299d525080610cae5280610d4b5280611f6f52806120545280612584528061268752508061080e5250614bd86000f3fe6080604052600436106101bb5760003560e01c80636209ec2d116100ec578063b0ae0fca1161008a578063d7d91fe611610064578063d7d91fe614610579578063e39e45e214610590578063ec233684146105bb578063f887ea40146105f1576101c2565b8063b0ae0fca146104fa578063d3f3f5ea14610523578063d6cfeae01461054e576101c2565b80637f18c7f6116100c65780637f18c7f614610464578063a0eb89fd1461048d578063a1956e32146104b8578063afb8b63a146104e3576101c2565b80636209ec2d146103e35780636da797c91461040e57806373d2d07114610439576101c2565b8063439f5ac2116101595780634d820b9a116101335780634d820b9a1461033957806359c57bed146103645780636032c7e31461038f578063610c51a5146103b8576101c2565b8063439f5ac2146102ba57806347f5b232146102e557806349c8602914610310576101c2565b80630ba36dcd116101955780630ba36dcd1461021d578063155d28301461025a57806338bde7911461028557806340732c89146102b0576101c2565b806303787365146101c4578063064cb8e0146101db5780630b77b3b514610206576101c2565b366101c257005b005b3480156101d057600080fd5b506101d961061c565b005b3480156101e757600080fd5b506101f061080c565b6040516101fd919061438f565b60405180910390f35b34801561021257600080fd5b5061021b610830565b005b34801561022957600080fd5b50610244600480360381019061023f9190613423565b6109d0565b6040516102519190614700565b60405180910390f35b34801561026657600080fd5b5061026f6109e8565b60405161027c91906142f3565b60405180910390f35b34801561029157600080fd5b5061029a610a76565b6040516102a79190614700565b60405180910390f35b6102b8610a7c565b005b3480156102c657600080fd5b506102cf610d3a565b6040516102dc9190614700565b60405180910390f35b3480156102f157600080fd5b506102fa610d49565b6040516103079190614374565b60405180910390f35b34801561031c57600080fd5b506103376004803603810190610332919061349e565b610d6d565b005b34801561034557600080fd5b5061034e611239565b60405161035b9190614359565b60405180910390f35b34801561037057600080fd5b5061037961124c565b60405161038691906142f3565b60405180910390f35b34801561039b57600080fd5b506103b660048036038101906103b1919061349e565b6112da565b005b3480156103c457600080fd5b506103cd611819565b6040516103da9190614700565b60405180910390f35b3480156103ef57600080fd5b506103f861183d565b60405161040591906141ee565b60405180910390f35b34801561041a57600080fd5b50610423611861565b6040516104309190614700565b60405180910390f35b34801561044557600080fd5b5061044e611885565b60405161045b9190614700565b60405180910390f35b34801561047057600080fd5b5061048b600480360381019061048691906134ed565b61188b565b005b34801561049957600080fd5b506104a2611f26565b6040516104af9190614359565b60405180910390f35b3480156104c457600080fd5b506104cd611f39565b6040516104da9190614700565b60405180910390f35b3480156104ef57600080fd5b506104f8611f3f565b005b34801561050657600080fd5b50610521600480360381019061051c9190613475565b612126565b005b34801561052f57600080fd5b506105386122b5565b6040516105459190614315565b60405180910390f35b34801561055a57600080fd5b50610563612374565b6040516105709190614337565b60405180910390f35b34801561058557600080fd5b5061058e6124a7565b005b34801561059c57600080fd5b506105a5612775565b6040516105b291906143c5565b60405180910390f35b3480156105c757600080fd5b506105d0612788565b6040516105e89c9b9a99989796959493929190614232565b60405180910390f35b3480156105fd57600080fd5b5061060661299b565b60405161061391906143aa565b60405180910390f35b6106246129bf565b7f00000000000000000000000000000000000000000000000000000000000000004211610686576040517f08c379a000000000000000000000000000000000000000000000000000000000815260040161067d906145e0565b60405180910390fd5b6000600260003373ffffffffffffffffffffffffffffffffffffffff1673ffffffffffffffffffffffffffffffffffffffff168152602001908152602001600020541415610709576040517f08c379a000000000000000000000000000000000000000000000000000000000815260040161070090614680565b60405180910390fd5b6000600260003373ffffffffffffffffffffffffffffffffffffffff1673ffffffffffffffffffffffffffffffffffffffff1681526020019081526020016000205490506000600260003373ffffffffffffffffffffffffffffffffffffffff1673ffffffffffffffffffffffffffffffffffffffff168152602001908152602001600020819055506107c560405180604001604052803373ffffffffffffffffffffffffffffffffffffffff16815260200183815250612a29565b803373ffffffffffffffffffffffffffffffffffffffff167fe737dc9ea16794043839aa01f063bf3e6faa009fe354f0b6ae1d7ab6dc20ac3460405160405180910390a350565b7f000000000000000000000000000000000000000000000000000000000000000081565b7f000000000000000000000000000000000000000000000000000000000000000073ffffffffffffffffffffffffffffffffffffffff163373ffffffffffffffffffffffffffffffffffffffff1614806108b557503073ffffffffffffffffffffffffffffffffffffffff163373ffffffffffffffffffffffffffffffffffffffff16145b6108f4576040517f08c379a00000000000000000000000000000000000000000000000000000000081526004016108eb90614440565b60405180910390fd5b6108fc6129bf565b427f00000000000000000000000000000000000000000000000000000000000000001061095e576040517f08c379a0000000000000000000000000000000000000000000000000000000008152600401610955906143e0565b60405180910390fd5b6109686001612b2e565b610970612b54565b600781905550426006819055507fbc141a1c0c073ed34f6fa9cdc66bb9473f488bccda93d1e43bb9a15c4391a92f600560009054906101000a900460ff1660028111156109b957fe5b6040516109c69190614700565b60405180910390a1565b60026020528060005260406000206000915090505481565b60606004805480602002602001604051908101604052809291908181526020018280548015610a6c57602002820191906000526020600020905b8160009054906101000a900473ffffffffffffffffffffffffffffffffffffffff1673ffffffffffffffffffffffffffffffffffffffff1681526020019060010190808311610a22575b5050505050905090565b60075481565b610a846129bf565b7f0000000000000000000000000000000000000000000000000000000000000000341015610ae7576040517f08c379a0000000000000000000000000000000000000000000000000000000008152600401610ade906146c0565b60405180910390fd5b7f0000000000000000000000000000000000000000000000000000000000000000610b2234610b14612b54565b612b5c90919063ffffffff16565b1115610b63576040517f08c379a0000000000000000000000000000000000000000000000000000000008152600401610b5a90614640565b60405180910390fd5b610b6b613293565b60405180604001604052803373ffffffffffffffffffffffffffffffffffffffff168152602001348152509050610bea34600260003373ffffffffffffffffffffffffffffffffffffffff1673ffffffffffffffffffffffffffffffffffffffff16815260200190815260200160002054612b5c90919063ffffffff16565b600260003373ffffffffffffffffffffffffffffffffffffffff1673ffffffffffffffffffffffffffffffffffffffff16815260200190815260200160002081905550600081908060018154018082558091505060019003906000526020600020906002020160009091909190915060008201518160000160006101000a81548173ffffffffffffffffffffffffffffffffffffffff021916908373ffffffffffffffffffffffffffffffffffffffff1602179055506020820151816001015550507f000000000000000000000000000000000000000000000000000000000000000073ffffffffffffffffffffffffffffffffffffffff1663fd56b302336040518263ffffffff1660e01b8152600401610d0591906141d3565b600060405180830381600087803b158015610d1f57600080fd5b505af1158015610d33573d6000803e3d6000fd5b5050505050565b6000610d44612bb1565b905090565b7f000000000000000000000000000000000000000000000000000000000000000081565b7f000000000000000000000000000000000000000000000000000000000000000073ffffffffffffffffffffffffffffffffffffffff163373ffffffffffffffffffffffffffffffffffffffff161480610df257503073ffffffffffffffffffffffffffffffffffffffff163373ffffffffffffffffffffffffffffffffffffffff16145b610e31576040517f08c379a0000000000000000000000000000000000000000000000000000000008152600401610e2890614440565b60405180910390fd5b610e39612bf2565b600b60008473ffffffffffffffffffffffffffffffffffffffff1673ffffffffffffffffffffffffffffffffffffffff16815260200190815260200160002060009054906101000a900460ff16610ec5576040517f08c379a0000000000000000000000000000000000000000000000000000000008152600401610ebc90614480565b60405180910390fd5b6060610f6e847f000000000000000000000000000000000000000000000000000000000000000073ffffffffffffffffffffffffffffffffffffffff1663ad5c46486040518163ffffffff1660e01b815260040160206040518083038186803b158015610f3157600080fd5b505afa158015610f45573d6000803e3d6000fd5b505050506040513d601f19601f82011682018060405250810190610f69919061344c565b612c5c565b905060007f000000000000000000000000000000000000000000000000000000000000000073ffffffffffffffffffffffffffffffffffffffff1663d06ca61f85846040518363ffffffff1660e01b8152600401610fcd92919061474d565b60006040518083038186803b158015610fe557600080fd5b505afa158015610ff9573d6000803e3d6000fd5b505050506040513d6000823e3d601f19601f820116820180604052508101906110229190613559565b60018151811061102e57fe5b602002602001015190508281101561107b576040517f08c379a000000000000000000000000000000000000000000000000000000000815260040161107290614560565b60405180910390fd5b8473ffffffffffffffffffffffffffffffffffffffff1663095ea7b37f0000000000000000000000000000000000000000000000000000000000000000866040518363ffffffff1660e01b81526004016110d6929190614209565b602060405180830381600087803b1580156110f057600080fd5b505af1158015611104573d6000803e3d6000fd5b505050506040513d601f19601f82011682018060405250810190611128919061359a565b5060607f000000000000000000000000000000000000000000000000000000000000000073ffffffffffffffffffffffffffffffffffffffff166318cbafe58684863061070842016040518663ffffffff1660e01b8152600401611190959493929190614825565b600060405180830381600087803b1580156111aa57600080fd5b505af11580156111be573d6000803e3d6000fd5b505050506040513d6000823e3d601f19601f820116820180604052508101906111e79190613559565b9050611231836000815181106111f957fe5b60200260200101518460018151811061120e57fe5b6020026020010151878460018151811061122457fe5b6020026020010151612d43565b505050505050565b600d60009054906101000a900460ff1681565b606060038054806020026020016040519081016040528092919081815260200182805480156112d057602002820191906000526020600020905b8160009054906101000a900473ffffffffffffffffffffffffffffffffffffffff1673ffffffffffffffffffffffffffffffffffffffff1681526020019060010190808311611286575b5050505050905090565b7f000000000000000000000000000000000000000000000000000000000000000073ffffffffffffffffffffffffffffffffffffffff163373ffffffffffffffffffffffffffffffffffffffff16148061135f57503073ffffffffffffffffffffffffffffffffffffffff163373ffffffffffffffffffffffffffffffffffffffff16145b61139e576040517f08c379a000000000000000000000000000000000000000000000000000000000815260040161139590614440565b60405180910390fd5b6113a6612bf2565b60006004805490501461140557600c60008473ffffffffffffffffffffffffffffffffffffffff1673ffffffffffffffffffffffffffffffffffffffff16815260200190815260200160002060009054906101000a900460ff16611408565b60015b611447576040517f08c379a000000000000000000000000000000000000000000000000000000000815260040161143e906146a0565b60405180910390fd5b60606114f07f000000000000000000000000000000000000000000000000000000000000000073ffffffffffffffffffffffffffffffffffffffff1663ad5c46486040518163ffffffff1660e01b815260040160206040518083038186803b1580156114b257600080fd5b505afa1580156114c6573d6000803e3d6000fd5b505050506040513d601f19601f820116820180604052508101906114ea919061344c565b85612c5c565b905060007f000000000000000000000000000000000000000000000000000000000000000073ffffffffffffffffffffffffffffffffffffffff1663d06ca61f85846040518363ffffffff1660e01b815260040161154f92919061474d565b60006040518083038186803b15801561156757600080fd5b505afa15801561157b573d6000803e3d6000fd5b505050506040513d6000823e3d601f19601f820116820180604052508101906115a49190613559565b6001815181106115b057fe5b60200260200101519050828110156115fd576040517f08c379a00000000000000000000000000000000000000000000000000000000081526004016115f490614560565b60405180910390fd5b60607f000000000000000000000000000000000000000000000000000000000000000073ffffffffffffffffffffffffffffffffffffffff1663fb3bdb418684863061070842016040518663ffffffff1660e01b8152600401611663949392919061477d565b6000604051808303818588803b15801561167c57600080fd5b505af1158015611690573d6000803e3d6000fd5b50505050506040513d6000823e3d601f19601f820116820180604052508101906116ba9190613559565b9050600b60008773ffffffffffffffffffffffffffffffffffffffff1673ffffffffffffffffffffffffffffffffffffffff16815260200190815260200160002060009054906101000a900460ff166117c9576003869080600181540180825580915050600190039060005260206000200160009091909190916101000a81548173ffffffffffffffffffffffffffffffffffffffff021916908373ffffffffffffffffffffffffffffffffffffffff1602179055506001600b60008873ffffffffffffffffffffffffffffffffffffffff1673ffffffffffffffffffffffffffffffffffffffff16815260200190815260200160002060006101000a81548160ff0219169083151502179055505b611811836000815181106117d957fe5b6020026020010151846001815181106117ee57fe5b6020026020010151878460018151811061180457fe5b6020026020010151612d43565b505050505050565b7f000000000000000000000000000000000000000000000000000000000000000081565b7f000000000000000000000000000000000000000000000000000000000000000081565b7f000000000000000000000000000000000000000000000000000000000000000081565b60095481565b7f000000000000000000000000000000000000000000000000000000000000000073ffffffffffffffffffffffffffffffffffffffff163373ffffffffffffffffffffffffffffffffffffffff16148061191057503073ffffffffffffffffffffffffffffffffffffffff163373ffffffffffffffffffffffffffffffffffffffff16145b61194f576040517f08c379a000000000000000000000000000000000000000000000000000000000815260040161194690614440565b60405180910390fd5b611957612bf2565b600284849050101561199e576040517f08c379a0000000000000000000000000000000000000000000000000000000008152600401611995906144e0565b60405180910390fd5b6000848460008181106119ad57fe5b90506020020160208101906119c29190613423565b905060008585600188889050038181106119d857fe5b90506020020160208101906119ed9190613423565b905060005b86869050811015611b5757600060048054905014611a7c57600c6000888884818110611a1a57fe5b9050602002016020810190611a2f9190613423565b73ffffffffffffffffffffffffffffffffffffffff1673ffffffffffffffffffffffffffffffffffffffff16815260200190815260200160002060009054906101000a900460ff16611a7f565b60015b611abe576040517f08c379a0000000000000000000000000000000000000000000000000000000008152600401611ab590614540565b60405180910390fd5b600b60008473ffffffffffffffffffffffffffffffffffffffff1673ffffffffffffffffffffffffffffffffffffffff16815260200190815260200160002060009054906101000a900460ff16611b4a576040517f08c379a0000000000000000000000000000000000000000000000000000000008152600401611b4190614420565b60405180910390fd5b80806001019150506119f2565b5060007f000000000000000000000000000000000000000000000000000000000000000073ffffffffffffffffffffffffffffffffffffffff1663d06ca61f8689896040518463ffffffff1660e01b8152600401611bb79392919061471b565b60006040518083038186803b158015611bcf57600080fd5b505afa158015611be3573d6000803e3d6000fd5b505050506040513d6000823e3d601f19601f82011682018060405250810190611c0c9190613559565b6001888890500381518110611c1d57fe5b6020026020010151905083811015611c6a576040517f08c379a0000000000000000000000000000000000000000000000000000000008152600401611c61906145c0565b60405180910390fd5b8273ffffffffffffffffffffffffffffffffffffffff1663095ea7b37f0000000000000000000000000000000000000000000000000000000000000000876040518363ffffffff1660e01b8152600401611cc5929190614209565b602060405180830381600087803b158015611cdf57600080fd5b505af1158015611cf3573d6000803e3d6000fd5b505050506040513d601f19601f82011682018060405250810190611d17919061359a565b5060607f000000000000000000000000000000000000000000000000000000000000000073ffffffffffffffffffffffffffffffffffffffff166338ed173987848b8b30611d7061070842612b5c90919063ffffffff16565b6040518763ffffffff1660e01b8152600401611d91969594939291906147c9565b600060405180830381600087803b158015611dab57600080fd5b505af1158015611dbf573d6000803e3d6000fd5b505050506040513d6000823e3d601f19601f82011682018060405250810190611de89190613559565b9050600b60008473ffffffffffffffffffffffffffffffffffffffff1673ffffffffffffffffffffffffffffffffffffffff16815260200190815260200160002060009054906101000a900460ff16611ef7576003839080600181540180825580915050600190039060005260206000200160009091909190916101000a81548173ffffffffffffffffffffffffffffffffffffffff021916908373ffffffffffffffffffffffffffffffffffffffff1602179055506001600b60008573ffffffffffffffffffffffffffffffffffffffff1673ffffffffffffffffffffffffffffffffffffffff16815260200190815260200160002060006101000a81548160ff0219169083151502179055505b611f1c8484888460018d8d90500381518110611f0f57fe5b6020026020010151612d43565b5050505050505050565b600a60009054906101000a900460ff1681565b60085481565b611f47612bf2565b611f516002612b2e565b611f59612b54565b60088190555060006007546008541015612012577f000000000000000000000000000000000000000000000000000000000000000073ffffffffffffffffffffffffffffffffffffffff1663d10d51a26040518163ffffffff1660e01b815260040160206040518083038186803b158015611fd357600080fd5b505afa158015611fe7573d6000803e3d6000fd5b505050506040513d601f19601f8201168201806040525081019061200b91906135c3565b9050612036565b7f000000000000000000000000000000000000000000000000000000000000000090505b61204c612044826064612eeb565b600854612f1d565b6009819055507f000000000000000000000000000000000000000000000000000000000000000073ffffffffffffffffffffffffffffffffffffffff1663e3a1c6fe6040518163ffffffff1660e01b8152600401600060405180830381600087803b1580156120ba57600080fd5b505af11580156120ce573d6000803e3d6000fd5b505050507fbc141a1c0c073ed34f6fa9cdc66bb9473f488bccda93d1e43bb9a15c4391a92f600560009054906101000a900460ff16600281111561210e57fe5b60405161211b9190614700565b60405180910390a150565b61212e612f4f565b6000600260008373ffffffffffffffffffffffffffffffffffffffff1673ffffffffffffffffffffffffffffffffffffffff1681526020019081526020016000205414156121b1576040517f08c379a00000000000000000000000000000000000000000000000000000000081526004016121a890614580565b60405180910390fd5b6000600260008373ffffffffffffffffffffffffffffffffffffffff1673ffffffffffffffffffffffffffffffffffffffff1681526020019081526020016000205490506000600260008473ffffffffffffffffffffffffffffffffffffffff1673ffffffffffffffffffffffffffffffffffffffff1681526020019081526020016000208190555061226d60405180604001604052808473ffffffffffffffffffffffffffffffffffffffff16815260200183815250612a29565b808273ffffffffffffffffffffffffffffffffffffffff167fa3896ee6f93bcf0dae942b7d4c9073b9a3c233e301281c823f58a8f70ec1c43160405160405180910390a35050565b60606000805480602002602001604051908101604052809291908181526020016000905b8282101561236b57838290600052602060002090600202016040518060400160405290816000820160009054906101000a900473ffffffffffffffffffffffffffffffffffffffff1673ffffffffffffffffffffffffffffffffffffffff1673ffffffffffffffffffffffffffffffffffffffff168152602001600182015481525050815260200190600101906122d9565b50505050905090565b60606001805480602002602001604051908101604052809291908181526020016000905b8282101561249e57838290600052602060002090600602016040518060c00160405290816000820160009054906101000a900473ffffffffffffffffffffffffffffffffffffffff1673ffffffffffffffffffffffffffffffffffffffff1673ffffffffffffffffffffffffffffffffffffffff1681526020016001820160009054906101000a900473ffffffffffffffffffffffffffffffffffffffff1673ffffffffffffffffffffffffffffffffffffffff1673ffffffffffffffffffffffffffffffffffffffff16815260200160028201548152602001600382015481526020016004820154815260200160058201548152505081526020019060010190612398565b50505050905090565b6124af612f4f565b600a60009054906101000a900460ff16156124ff576040517f08c379a00000000000000000000000000000000000000000000000000000000081526004016124f690614520565b60405180910390fd5b6000612509612b54565b11612549576040517f08c379a000000000000000000000000000000000000000000000000000000000815260040161254090614460565b60405180910390fd5b6001600a60006101000a81548160ff0219169083151502179055506000806008546007541061257c576009549150612660565b61265d6126557f000000000000000000000000000000000000000000000000000000000000000073ffffffffffffffffffffffffffffffffffffffff1663ca8f4ae87f00000000000000000000000000000000000000000000000000000000000000006040518263ffffffff1660e01b81526004016125fb91906141d3565b60206040518083038186803b15801561261357600080fd5b505afa158015612627573d6000803e3d6000fd5b505050506040513d601f19601f8201168201806040525081019061264b91906135c3565b6064036064612eeb565b600954612f1d565b91505b61267582600954612fb890919063ffffffff16565b905081612680612b54565b106126ed577f000000000000000000000000000000000000000000000000000000000000000073ffffffffffffffffffffffffffffffffffffffff166108fc839081150290604051600060405180830381858888f193505050501580156126eb573d6000803e3d6000fd5b505b600081118015612704575080612701612b54565b10155b15612771577f000000000000000000000000000000000000000000000000000000000000000073ffffffffffffffffffffffffffffffffffffffff166108fc829081150290604051600060405180830381858888f1935050505015801561276f573d6000803e3d6000fd5b505b5050565b600560009054906101000a900460ff1681565b600080600080600080600080600080600060607f00000000000000000000000000000000000000000000000000000000000000006006547f00000000000000000000000000000000000000000000000000000000000000007f00000000000000000000000000000000000000000000000000000000000000007f00000000000000000000000000000000000000000000000000000000000000007f0000000000000000000000000000000000000000000000000000000000000000600560009054906101000a900460ff16477f00000000000000000000000000000000000000000000000000000000000000007f00000000000000000000000000000000000000000000000000000000000000007f000000000000000000000000000000000000000000000000000000000000000060008b9b5080805480602002602001604051908101604052809291908181526020016000905b8282101561296f57838290600052602060002090600202016040518060400160405290816000820160009054906101000a900473ffffffffffffffffffffffffffffffffffffffff1673ffffffffffffffffffffffffffffffffffffffff1673ffffffffffffffffffffffffffffffffffffffff168152602001600182015481525050815260200190600101906128dd565b5050505090509b509b509b509b509b509b509b509b509b509b509b509b50909192939495969798999a9b565b7f000000000000000000000000000000000000000000000000000000000000000081565b600060028111156129cc57fe5b600560009054906101000a900460ff1660028111156129e757fe5b14612a27576040517f08c379a0000000000000000000000000000000000000000000000000000000008152600401612a1e90614500565b60405180910390fd5b565b60006002811115612a3657fe5b600560009054906101000a900460ff166002811115612a5157fe5b1415612aab57806000015173ffffffffffffffffffffffffffffffffffffffff166108fc82602001519081150290604051600060405180830381858888f19350505050158015612aa5573d6000803e3d6000fd5b50612b2b565b6000612abd8260200151600754613008565b9050816000015173ffffffffffffffffffffffffffffffffffffffff166108fc612afd83612af8600954600854612fb890919063ffffffff16565b612f1d565b9081150290604051600060405180830381858888f19350505050158015612b28573d6000803e3d6000fd5b50505b50565b80600560006101000a81548160ff02191690836002811115612b4c57fe5b021790555050565b600047905090565b600080828401905083811015612ba7576040517f08c379a0000000000000000000000000000000000000000000000000000000008152600401612b9e90614400565b60405180910390fd5b8091505092915050565b6000612be962278d007f000000000000000000000000000000000000000000000000000000000000000061303a90919063ffffffff16565b60065401905090565b60016002811115612bff57fe5b600560009054906101000a900460ff166002811115612c1a57fe5b14612c5a576040517f08c379a0000000000000000000000000000000000000000000000000000000008152600401612c51906144c0565b60405180910390fd5b565b606080600267ffffffffffffffff81118015612c7757600080fd5b50604051908082528060200260200182016040528015612ca65781602001602082028036833780820191505090505b5090508381600081518110612cb757fe5b602002602001019073ffffffffffffffffffffffffffffffffffffffff16908173ffffffffffffffffffffffffffffffffffffffff16815250508281600181518110612cff57fe5b602002602001019073ffffffffffffffffffffffffffffffffffffffff16908173ffffffffffffffffffffffffffffffffffffffff16815250508091505092915050565b808373ffffffffffffffffffffffffffffffffffffffff168573ffffffffffffffffffffffffffffffffffffffff167f6e31608d2e2f6546c30f3320a34d3826089ef057b2f52e93c107ca9d360f6dd485604051612da19190614700565b60405180910390a460016040518060c001604052808673ffffffffffffffffffffffffffffffffffffffff1681526020018573ffffffffffffffffffffffffffffffffffffffff16815260200184815260200183815260200142815260200143815250908060018154018082558091505060019003906000526020600020906006020160009091909190915060008201518160000160006101000a81548173ffffffffffffffffffffffffffffffffffffffff021916908373ffffffffffffffffffffffffffffffffffffffff16021790555060208201518160010160006101000a81548173ffffffffffffffffffffffffffffffffffffffff021916908373ffffffffffffffffffffffffffffffffffffffff16021790555060408201518160020155606082015181600301556080820151816004015560a08201518160050155505050505050565b6000612f1582612f07620186a0866130aa90919063ffffffff16565b6131a890919063ffffffff16565b905092915050565b6000612f47620186a0612f3985856130aa90919063ffffffff16565b6131a890919063ffffffff16565b905092915050565b600280811115612f5b57fe5b600560009054906101000a900460ff166002811115612f7657fe5b14612fb6576040517f08c379a0000000000000000000000000000000000000000000000000000000008152600401612fad90614620565b60405180910390fd5b565b600082821115612ffd576040517f08c379a0000000000000000000000000000000000000000000000000000000008152600401612ff4906144a0565b60405180910390fd5b818303905092915050565b600061303282613024620186a0866130aa90919063ffffffff16565b6131a890919063ffffffff16565b905092915050565b60008083141561304d57600090506130a4565b600082840290508284828161305e57fe5b041461309f576040517f08c379a000000000000000000000000000000000000000000000000000000000815260040161309690614600565b60405180910390fd5b809150505b92915050565b6000808314156130bd57600090506131a2565b7fffffffffffffffffffffffffffffffffffffffffffffffffffffffffffffffff8314801561310b57507f800000000000000000000000000000000000000000000000000000000000000082145b1561314b576040517f08c379a000000000000000000000000000000000000000000000000000000000815260040161314290614660565b60405180910390fd5b600082840290508284828161315c57fe5b051461319d576040517f08c379a000000000000000000000000000000000000000000000000000000000815260040161319490614660565b60405180910390fd5b809150505b92915050565b6000808214156131ed576040517f08c379a00000000000000000000000000000000000000000000000000000000081526004016131e4906146e0565b60405180910390fd5b7fffffffffffffffffffffffffffffffffffffffffffffffffffffffffffffffff8214801561323b57507f800000000000000000000000000000000000000000000000000000000000000083145b1561327b576040517f08c379a0000000000000000000000000000000000000000000000000000000008152600401613272906145a0565b60405180910390fd5b600082848161328657fe5b0590508091505092915050565b6040518060400160405280600073ffffffffffffffffffffffffffffffffffffffff168152602001600081525090565b6000813590506132d281614b2f565b92915050565b6000815190506132e781614b2f565b92915050565b6000813590506132fc81614b46565b92915050565b60008083601f84011261331457600080fd5b8235905067ffffffffffffffff81111561332d57600080fd5b60208301915083602082028301111561334557600080fd5b9250929050565b600082601f83011261335d57600080fd5b815161337061336b826148ac565b61487f565b9150818183526020840193506020810190508385602084028201111561339557600080fd5b60005b838110156133c557816133ab888261340e565b845260208401935060208301925050600181019050613398565b5050505092915050565b6000815190506133de81614b5d565b92915050565b6000815190506133f381614b74565b92915050565b60008135905061340881614b8b565b92915050565b60008151905061341d81614b8b565b92915050565b60006020828403121561343557600080fd5b6000613443848285016132c3565b91505092915050565b60006020828403121561345e57600080fd5b600061346c848285016132d8565b91505092915050565b60006020828403121561348757600080fd5b6000613495848285016132ed565b91505092915050565b6000806000606084860312156134b357600080fd5b60006134c1868287016132ed565b93505060206134d2868287016133f9565b92505060406134e3868287016133f9565b9150509250925092565b6000806000806060858703121561350357600080fd5b600085013567ffffffffffffffff81111561351d57600080fd5b61352987828801613302565b9450945050602061353c878288016133f9565b925050604061354d878288016133f9565b91505092959194509250565b60006020828403121561356b57600080fd5b600082015167ffffffffffffffff81111561358557600080fd5b6135918482850161334c565b91505092915050565b6000602082840312156135ac57600080fd5b60006135ba848285016133cf565b91505092915050565b6000602082840312156135d557600080fd5b60006135e3848285016133e4565b91505092915050565b60006135f8838361365b565b60208301905092915050565b60006136108383613679565b60208301905092915050565b6000613628838361410b565b60408301905092915050565b6000613640838361413a565b60c08301905092915050565b61365581614a6e565b82525050565b61366481614a09565b82525050565b61367381614a09565b82525050565b613682816149f7565b82525050565b613691816149f7565b82525050565b60006136a3838561498b565b93506136ae826148d4565b8060005b858110156136e7576136c482846149e0565b6136ce8882613604565b97506136d98361494a565b9250506001810190506136b2565b5085925050509392505050565b60006136ff8261491e565b613709818561498b565b9350613714836148de565b8060005b8381101561374557815161372c8882613604565b975061373783614957565b925050600181019050613718565b5085935050505092915050565b600061375d82614929565b613767818561499c565b9350613772836148ee565b8060005b838110156137a357815161378a88826135ec565b975061379583614964565b925050600181019050613776565b5085935050505092915050565b60006137bb82614934565b6137c581856149ad565b93506137d0836148fe565b8060005b838110156138015781516137e8888261361c565b97506137f383614971565b9250506001810190506137d4565b5085935050505092915050565b60006138198261493f565b61382381856149be565b935061382e8361490e565b8060005b8381101561385f5781516138468882613634565b97506138518361497e565b925050600181019050613832565b5085935050505092915050565b61387581614a1b565b82525050565b61388481614a80565b82525050565b61389381614aa4565b82525050565b6138a281614ac8565b82525050565b6138b181614aec565b82525050565b60006138c46025836149cf565b91507f46756e642063616e6e6f7420626520737461727465642061742074686174206d60008301527f6f6d656e740000000000000000000000000000000000000000000000000000006020830152604082019050919050565b600061392a601b836149cf565b91507f536166654d6174683a206164646974696f6e206f766572666c6f7700000000006000830152602082019050919050565b600061396a6002836149cf565b91507f54310000000000000000000000000000000000000000000000000000000000006000830152602082019050919050565b60006139aa6027836149cf565b91507f596f752068617665206e6f74207065726d697373696f6e7320746f207468697360008301527f20616374696f6e000000000000000000000000000000000000000000000000006020830152604082019050919050565b6000613a106002836149cf565b91507f42300000000000000000000000000000000000000000000000000000000000006000830152602082019050919050565b6000613a506021836149cf565b91507f596f75206e65656420746f206f776e207b746f6b656e46726f6d7d206669727360008301527f74000000000000000000000000000000000000000000000000000000000000006020830152604082019050919050565b6000613ab6601e836149cf565b91507f536166654d6174683a207375627472616374696f6e206f766572666c6f7700006000830152602082019050919050565b6000613af66022836149cf565b91507f46756e642073686f756c6420626520696e20616e20416374697665207374617460008301527f75730000000000000000000000000000000000000000000000000000000000006020830152604082019050919050565b6000613b5c6002836149cf565b91507f50300000000000000000000000000000000000000000000000000000000000006000830152602082019050919050565b6000613b9c6022836149cf565b91507f46756e642073686f756c6420626520696e20616e204f70656e6564207374617460008301527f75730000000000000000000000000000000000000000000000000000000000006020830152604082019050919050565b6000613c026021836149cf565b91507f46756e642070726f66697420697320616c72656164792077697468647261776560008301527f64000000000000000000000000000000000000000000000000000000000000006020830152604082019050919050565b6000613c686002836149cf565b91507f54300000000000000000000000000000000000000000000000000000000000006000830152602082019050919050565b6000613ca8602a836149cf565b91507f4f757470757420616d6f756e74206973206c6f776572207468656e207b616d6f60008301527f756e744f75744d696e7d000000000000000000000000000000000000000000006020830152604082019050919050565b6000613d0e6024836149cf565b91507f4164647265737320686173206e6f206465706f7369747320696e20746869732060008301527f66756e64000000000000000000000000000000000000000000000000000000006020830152604082019050919050565b6000613d746021836149cf565b91507f5369676e6564536166654d6174683a206469766973696f6e206f766572666c6f60008301527f77000000000000000000000000000000000000000000000000000000000000006020830152604082019050919050565b6000613dda6002836149cf565b91507f54320000000000000000000000000000000000000000000000000000000000006000830152602082019050919050565b6000613e1a6018836149cf565b91507f43616e6e6f742077697468647261772066756e64206e6f7700000000000000006000830152602082019050919050565b6000613e5a6021836149cf565b91507f536166654d6174683a206d756c7469706c69636174696f6e206f766572666c6f60008301527f77000000000000000000000000000000000000000000000000000000000000006020830152604082019050919050565b6000613ec06019836149cf565b91507f46756e64206973206e6f7420636f6d706c6974656420796574000000000000006000830152602082019050919050565b6000613f00602e836149cf565b91507f4d617820636170206973206f766572666c6f7765642e2054727920746f20736560008301527f6e64206c6f7765722076616c75650000000000000000000000000000000000006020830152604082019050919050565b6000613f666027836149cf565b91507f5369676e6564536166654d6174683a206d756c7469706c69636174696f6e206f60008301527f766572666c6f77000000000000000000000000000000000000000000000000006020830152604082019050919050565b6000613fcc6021836149cf565b91507f596f752068617665206e6f206465706f7369747320696e20746869732066756e60008301527f64000000000000000000000000000000000000000000000000000000000000006020830152604082019050919050565b6000614032601f836149cf565b91507f54726164696e672077697468206e6f7420616c6c6f77656420746f6b656e73006000830152602082019050919050565b60006140726034836149cf565b91507f5472616e73616374696f6e2076616c7565206973206c657373207468656e206d60008301527f696e696d756d206465706f73697420616d6f75740000000000000000000000006020830152604082019050919050565b60006140d86020836149cf565b91507f5369676e6564536166654d6174683a206469766973696f6e206279207a65726f6000830152602082019050919050565b604082016000820151614121600085018261365b565b50602082015161413460208501826141b5565b50505050565b60c0820160008201516141506000850182613679565b5060208201516141636020850182613679565b50604082015161417660408501826141b5565b50606082015161418960608501826141b5565b50608082015161419c60808501826141b5565b5060a08201516141af60a08501826141b5565b50505050565b6141be81614a64565b82525050565b6141cd81614a64565b82525050565b60006020820190506141e8600083018461364c565b92915050565b6000602082019050614203600083018461366a565b92915050565b600060408201905061421e600083018561364c565b61422b60208301846141c4565b9392505050565b600061018082019050614248600083018f613688565b614255602083018e6141c4565b614262604083018d6141c4565b61426f606083018c6141c4565b61427c608083018b6141c4565b61428960a083018a6141c4565b61429660c08301896138a8565b6142a360e08301886141c4565b6142b16101008301876141c4565b6142bf6101208301866141c4565b6142cd6101408301856141c4565b8181036101608301526142e081846137b0565b90509d9c50505050505050505050505050565b6000602082019050818103600083015261430d8184613752565b905092915050565b6000602082019050818103600083015261432f81846137b0565b905092915050565b60006020820190508181036000830152614351818461380e565b905092915050565b600060208201905061436e600083018461386c565b92915050565b6000602082019050614389600083018461387b565b92915050565b60006020820190506143a4600083018461388a565b92915050565b60006020820190506143bf6000830184613899565b92915050565b60006020820190506143da60008301846138a8565b92915050565b600060208201905081810360008301526143f9816138b7565b9050919050565b600060208201905081810360008301526144198161391d565b9050919050565b600060208201905081810360008301526144398161395d565b9050919050565b600060208201905081810360008301526144598161399d565b9050919050565b6000602082019050818103600083015261447981613a03565b9050919050565b6000602082019050818103600083015261449981613a43565b9050919050565b600060208201905081810360008301526144b981613aa9565b9050919050565b600060208201905081810360008301526144d981613ae9565b9050919050565b600060208201905081810360008301526144f981613b4f565b9050919050565b6000602082019050818103600083015261451981613b8f565b9050919050565b6000602082019050818103600083015261453981613bf5565b9050919050565b6000602082019050818103600083015261455981613c5b565b9050919050565b6000602082019050818103600083015261457981613c9b565b9050919050565b6000602082019050818103600083015261459981613d01565b9050919050565b600060208201905081810360008301526145b981613d67565b9050919050565b600060208201905081810360008301526145d981613dcd565b9050919050565b600060208201905081810360008301526145f981613e0d565b9050919050565b6000602082019050818103600083015261461981613e4d565b9050919050565b6000602082019050818103600083015261463981613eb3565b9050919050565b6000602082019050818103600083015261465981613ef3565b9050919050565b6000602082019050818103600083015261467981613f59565b9050919050565b6000602082019050818103600083015261469981613fbf565b9050919050565b600060208201905081810360008301526146b981614025565b9050919050565b600060208201905081810360008301526146d981614065565b9050919050565b600060208201905081810360008301526146f9816140cb565b9050919050565b600060208201905061471560008301846141c4565b92915050565b600060408201905061473060008301866141c4565b8181036020830152614743818486613697565b9050949350505050565b600060408201905061476260008301856141c4565b818103602083015261477481846136f4565b90509392505050565b600060808201905061479260008301876141c4565b81810360208301526147a481866136f4565b90506147b3604083018561364c565b6147c060608301846141c4565b95945050505050565b600060a0820190506147de60008301896141c4565b6147eb60208301886141c4565b81810360408301526147fe818688613697565b905061480d606083018561364c565b61481a60808301846141c4565b979650505050505050565b600060a08201905061483a60008301886141c4565b61484760208301876141c4565b818103604083015261485981866136f4565b9050614868606083018561364c565b61487560808301846141c4565b9695505050505050565b6000604051905081810181811067ffffffffffffffff821117156148a257600080fd5b8060405250919050565b600067ffffffffffffffff8211156148c357600080fd5b602082029050602081019050919050565b6000819050919050565b6000819050602082019050919050565b6000819050602082019050919050565b6000819050602082019050919050565b6000819050602082019050919050565b600081519050919050565b600081519050919050565b600081519050919050565b600081519050919050565b6000602082019050919050565b6000602082019050919050565b6000602082019050919050565b6000602082019050919050565b6000602082019050919050565b600082825260208201905092915050565b600082825260208201905092915050565b600082825260208201905092915050565b600082825260208201905092915050565b600082825260208201905092915050565b60006149ef60208401846132c3565b905092915050565b6000614a0282614a44565b9050919050565b6000614a1482614a44565b9050919050565b60008115159050919050565b6000819050614a3582614b22565b919050565b6000819050919050565b600073ffffffffffffffffffffffffffffffffffffffff82169050919050565b6000819050919050565b6000614a7982614afe565b9050919050565b6000614a8b82614a92565b9050919050565b6000614a9d82614a44565b9050919050565b6000614aaf82614ab6565b9050919050565b6000614ac182614a44565b9050919050565b6000614ad382614ada565b9050919050565b6000614ae582614a44565b9050919050565b6000614af782614a27565b9050919050565b6000614b0982614b10565b9050919050565b6000614b1b82614a44565b9050919050565b60038110614b2c57fe5b50565b614b38816149f7565b8114614b4357600080fd5b50565b614b4f81614a09565b8114614b5a57600080fd5b50565b614b6681614a1b565b8114614b7157600080fd5b50565b614b7d81614a3a565b8114614b8857600080fd5b50565b614b9481614a64565b8114614b9f57600080fd5b5056fea2646970667358221220276b6573600f9355d5bb13aafef3c0a7715f6a0102283f398a12ebba2c3fb78864736f6c63430006060033",
  "linkReferences": {},
  "deployedLinkReferences": {}
}